{
  "contracts/ChartsBet.sol": {
    "ChartsBet": {
      "abi": [
        {
          "inputs": [],
          "name": "ArtistNotInLeaderboard",
          "type": "error"
        },
        {
          "inputs": [],
          "name": "BettingClosed",
          "type": "error"
        },
        {
          "inputs": [],
          "name": "EnforcedPause",
          "type": "error"
        },
        {
          "inputs": [],
          "name": "ExpectedPause",
          "type": "error"
        },
        {
          "inputs": [],
          "name": "InvalidCountryCode",
          "type": "error"
        },
        {
          "inputs": [],
          "name": "InvalidInitialization",
          "type": "error"
        },
        {
          "inputs": [],
          "name": "InvalidOracleAddress",
          "type": "error"
        },
        {
          "inputs": [],
          "name": "LeaderboardAlreadyClosed",
          "type": "error"
        },
        {
          "inputs": [],
          "name": "LeaderboardNotFound",
          "type": "error"
        },
        {
          "inputs": [],
          "name": "LeaderboardStillActive",
          "type": "error"
        },
        {
          "inputs": [],
          "name": "NoFundsToWithdraw",
          "type": "error"
        },
        {
          "inputs": [],
          "name": "NotInitializing",
          "type": "error"
        },
        {
          "inputs": [],
          "name": "OnlyOracleAllowed",
          "type": "error"
        },
        {
          "inputs": [
            {
              "internalType": "address",
              "name": "owner",
              "type": "address"
            }
          ],
          "name": "OwnableInvalidOwner",
          "type": "error"
        },
        {
          "inputs": [
            {
              "internalType": "address",
              "name": "account",
              "type": "address"
            }
          ],
          "name": "OwnableUnauthorizedAccount",
          "type": "error"
        },
        {
          "inputs": [],
          "name": "ReentrancyGuardReentrantCall",
          "type": "error"
        },
        {
          "inputs": [],
          "name": "WithdrawalDelayNotMet",
          "type": "error"
        },
        {
          "anonymous": false,
          "inputs": [
            {
              "indexed": true,
              "internalType": "bytes32",
              "name": "country",
              "type": "bytes32"
            },
            {
              "indexed": false,
              "internalType": "bytes32",
              "name": "artist",
              "type": "bytes32"
            },
            {
              "indexed": false,
              "internalType": "uint256",
              "name": "odds",
              "type": "uint256"
            }
          ],
          "name": "ArtistOddsSet",
          "type": "event"
        },
        {
          "anonymous": false,
          "inputs": [
            {
              "indexed": true,
              "internalType": "address",
              "name": "user",
              "type": "address"
            },
            {
              "indexed": true,
              "internalType": "bytes32",
              "name": "country",
              "type": "bytes32"
            },
            {
              "indexed": false,
              "internalType": "string",
              "name": "artist",
              "type": "string"
            },
            {
              "indexed": false,
              "internalType": "uint256",
              "name": "amount",
              "type": "uint256"
            }
          ],
          "name": "BetPlaced",
          "type": "event"
        },
        {
          "anonymous": false,
          "inputs": [
            {
              "indexed": true,
              "internalType": "bytes32",
              "name": "country",
              "type": "bytes32"
            },
            {
              "indexed": false,
              "internalType": "string",
              "name": "winningArtist",
              "type": "string"
            }
          ],
          "name": "DailyWinnerFulfilled",
          "type": "event"
        },
        {
          "anonymous": false,
          "inputs": [
            {
              "indexed": false,
              "internalType": "uint64",
              "name": "version",
              "type": "uint64"
            }
          ],
          "name": "Initialized",
          "type": "event"
        },
        {
          "anonymous": false,
          "inputs": [
            {
              "indexed": true,
              "internalType": "bytes32",
              "name": "country",
              "type": "bytes32"
            }
          ],
          "name": "LeaderboardClosed",
          "type": "event"
        },
        {
          "anonymous": false,
          "inputs": [
            {
              "indexed": true,
              "internalType": "bytes32",
              "name": "country",
              "type": "bytes32"
            }
          ],
          "name": "LeaderboardCreated",
          "type": "event"
        },
        {
          "anonymous": false,
          "inputs": [
            {
              "indexed": false,
              "internalType": "address",
              "name": "newOracle",
              "type": "address"
            }
          ],
          "name": "OracleUpdated",
          "type": "event"
        },
        {
          "anonymous": false,
          "inputs": [
            {
              "indexed": true,
              "internalType": "address",
              "name": "previousOwner",
              "type": "address"
            },
            {
              "indexed": true,
              "internalType": "address",
              "name": "newOwner",
              "type": "address"
            }
          ],
          "name": "OwnershipTransferred",
          "type": "event"
        },
        {
          "anonymous": false,
          "inputs": [
            {
              "indexed": false,
              "internalType": "address",
              "name": "account",
              "type": "address"
            }
          ],
          "name": "Paused",
          "type": "event"
        },
        {
          "anonymous": false,
          "inputs": [
            {
              "indexed": true,
              "internalType": "bytes32",
              "name": "country",
              "type": "bytes32"
            }
          ],
          "name": "TopArtistsFulfilled",
          "type": "event"
        },
        {
          "anonymous": false,
          "inputs": [
            {
              "indexed": false,
              "internalType": "address",
              "name": "account",
              "type": "address"
            }
          ],
          "name": "Unpaused",
          "type": "event"
        },
        {
          "anonymous": false,
          "inputs": [
            {
              "indexed": false,
              "internalType": "uint256",
              "name": "amount",
              "type": "uint256"
            }
          ],
          "name": "WithdrawalExecuted",
          "type": "event"
        },
        {
          "anonymous": false,
          "inputs": [
            {
              "indexed": false,
              "internalType": "uint256",
              "name": "requestTime",
              "type": "uint256"
            }
          ],
          "name": "WithdrawalRequested",
          "type": "event"
        },
        {
          "inputs": [],
          "name": "LEADERBOARD_DURATION",
          "outputs": [
            {
              "internalType": "uint256",
              "name": "",
              "type": "uint256"
            }
          ],
          "stateMutability": "view",
          "type": "function"
        },
        {
          "inputs": [],
          "name": "WITHDRAWAL_DELAY",
          "outputs": [
            {
              "internalType": "uint256",
              "name": "",
              "type": "uint256"
            }
          ],
          "stateMutability": "view",
          "type": "function"
        },
        {
          "inputs": [
            {
              "internalType": "bytes32",
              "name": "country",
              "type": "bytes32"
            }
          ],
          "name": "closeLeaderboard",
          "outputs": [],
          "stateMutability": "nonpayable",
          "type": "function"
        },
        {
          "inputs": [
            {
              "internalType": "uint256",
              "name": "",
              "type": "uint256"
            }
          ],
          "name": "countryList",
          "outputs": [
            {
              "internalType": "bytes32",
              "name": "",
              "type": "bytes32"
            }
          ],
          "stateMutability": "view",
          "type": "function"
        },
        {
          "inputs": [
            {
              "internalType": "bytes32",
              "name": "country",
              "type": "bytes32"
            }
          ],
          "name": "createLeaderboard",
          "outputs": [],
          "stateMutability": "nonpayable",
          "type": "function"
        },
        {
          "inputs": [],
          "name": "executeWithdrawal",
          "outputs": [],
          "stateMutability": "nonpayable",
          "type": "function"
        },
        {
          "inputs": [
            {
              "internalType": "bytes32",
              "name": "country",
              "type": "bytes32"
            },
            {
              "internalType": "string",
              "name": "winningArtist",
              "type": "string"
            }
          ],
          "name": "fulfillDailyWinner",
          "outputs": [],
          "stateMutability": "nonpayable",
          "type": "function"
        },
        {
          "inputs": [
            {
              "internalType": "bytes32",
              "name": "country",
              "type": "bytes32"
            },
            {
              "internalType": "bytes32[]",
              "name": "topArtists",
              "type": "bytes32[]"
            }
          ],
          "name": "fulfillTopArtists",
          "outputs": [],
          "stateMutability": "nonpayable",
          "type": "function"
        },
        {
          "inputs": [
            {
              "internalType": "bytes32",
              "name": "country",
              "type": "bytes32"
            },
            {
              "internalType": "string",
              "name": "artist",
              "type": "string"
            }
          ],
          "name": "getArtistOdds",
          "outputs": [
            {
              "internalType": "uint256",
              "name": "",
              "type": "uint256"
            }
          ],
          "stateMutability": "view",
          "type": "function"
        },
        {
          "inputs": [
            {
              "internalType": "bytes32",
              "name": "country",
              "type": "bytes32"
            }
          ],
          "name": "getBetsInCountry",
          "outputs": [
            {
              "components": [
                {
                  "internalType": "address",
                  "name": "user",
                  "type": "address"
                },
                {
                  "internalType": "uint256",
                  "name": "amount",
                  "type": "uint256"
                },
                {
                  "internalType": "string",
                  "name": "artist",
                  "type": "string"
                },
                {
                  "internalType": "uint256",
                  "name": "odds",
                  "type": "uint256"
                }
              ],
              "internalType": "struct ChartsBet.Bet[]",
              "name": "",
              "type": "tuple[]"
            }
          ],
          "stateMutability": "view",
          "type": "function"
        },
        {
          "inputs": [
            {
              "internalType": "bytes32",
              "name": "country",
              "type": "bytes32"
            }
          ],
          "name": "getTotalBetAmount",
          "outputs": [
            {
              "internalType": "uint256",
              "name": "",
              "type": "uint256"
            }
          ],
          "stateMutability": "view",
          "type": "function"
        },
        {
          "inputs": [
            {
              "internalType": "bytes32",
              "name": "country",
              "type": "bytes32"
            },
            {
              "internalType": "string",
              "name": "artist",
              "type": "string"
            }
          ],
          "name": "getTotalBetsOnArtist",
          "outputs": [
            {
              "internalType": "uint256",
              "name": "",
              "type": "uint256"
            }
          ],
          "stateMutability": "view",
          "type": "function"
        },
        {
          "inputs": [
            {
              "internalType": "address",
              "name": "_owner",
              "type": "address"
            },
            {
              "internalType": "address",
              "name": "_oracle",
              "type": "address"
            }
          ],
          "name": "initialize",
          "outputs": [],
          "stateMutability": "nonpayable",
          "type": "function"
        },
        {
          "inputs": [
            {
              "internalType": "bytes32",
              "name": "country",
              "type": "bytes32"
            }
          ],
          "name": "isLeaderboardExpired",
          "outputs": [
            {
              "internalType": "bool",
              "name": "",
              "type": "bool"
            }
          ],
          "stateMutability": "view",
          "type": "function"
        },
        {
          "inputs": [
            {
              "internalType": "bytes32",
              "name": "",
              "type": "bytes32"
            }
          ],
          "name": "leaderboards",
          "outputs": [
            {
              "internalType": "bytes32",
              "name": "country",
              "type": "bytes32"
            },
            {
              "internalType": "string",
              "name": "winningArtist",
              "type": "string"
            },
            {
              "internalType": "bool",
              "name": "isClosed",
              "type": "bool"
            },
            {
              "internalType": "uint256",
              "name": "totalBetAmount",
              "type": "uint256"
            },
            {
              "internalType": "uint256",
              "name": "startTime",
              "type": "uint256"
            }
          ],
          "stateMutability": "view",
          "type": "function"
        },
        {
          "inputs": [],
          "name": "oracle",
          "outputs": [
            {
              "internalType": "contract ChartsOracle",
              "name": "",
              "type": "address"
            }
          ],
          "stateMutability": "view",
          "type": "function"
        },
        {
          "inputs": [],
          "name": "owner",
          "outputs": [
            {
              "internalType": "address",
              "name": "",
              "type": "address"
            }
          ],
          "stateMutability": "view",
          "type": "function"
        },
        {
          "inputs": [],
          "name": "paused",
          "outputs": [
            {
              "internalType": "bool",
              "name": "",
              "type": "bool"
            }
          ],
          "stateMutability": "view",
          "type": "function"
        },
        {
          "inputs": [
            {
              "internalType": "bytes32",
              "name": "country",
              "type": "bytes32"
            },
            {
              "internalType": "string",
              "name": "artist",
              "type": "string"
            }
          ],
          "name": "placeBet",
          "outputs": [],
          "stateMutability": "payable",
          "type": "function"
        },
        {
          "inputs": [],
          "name": "renounceOwnership",
          "outputs": [],
          "stateMutability": "nonpayable",
          "type": "function"
        },
        {
          "inputs": [],
          "name": "requestWithdrawal",
          "outputs": [],
          "stateMutability": "nonpayable",
          "type": "function"
        },
        {
          "inputs": [],
          "name": "testOracleConnection",
          "outputs": [],
          "stateMutability": "nonpayable",
          "type": "function"
        },
        {
          "inputs": [],
          "name": "toggleContractActive",
          "outputs": [],
          "stateMutability": "nonpayable",
          "type": "function"
        },
        {
          "inputs": [
            {
              "internalType": "address",
              "name": "newOwner",
              "type": "address"
            }
          ],
          "name": "transferOwnership",
          "outputs": [],
          "stateMutability": "nonpayable",
          "type": "function"
        },
        {
          "inputs": [
            {
              "internalType": "address",
              "name": "newOracle",
              "type": "address"
            }
          ],
          "name": "updateOracle",
          "outputs": [],
          "stateMutability": "nonpayable",
          "type": "function"
        },
        {
          "inputs": [
            {
              "internalType": "bytes32",
              "name": "",
              "type": "bytes32"
            }
          ],
          "name": "validCountries",
          "outputs": [
            {
              "internalType": "bool",
              "name": "",
              "type": "bool"
            }
          ],
          "stateMutability": "view",
          "type": "function"
        },
        {
          "inputs": [],
          "name": "withdrawalRequestTime",
          "outputs": [
            {
              "internalType": "uint256",
              "name": "",
              "type": "uint256"
            }
          ],
          "stateMutability": "view",
          "type": "function"
        }
      ],
      "evm": {
        "bytecode": {
          "linkReferences": {},
          "object": "6080604052348015600f57600080fd5b506133e48061001f6000396000f3fe60806040526004361061019c5760003560e01c8063715018a6116100ec57806399da7aac1161008a578063f2fde38b11610064578063f2fde38b14610595578063f59bdf85146105be578063fa45aa00146105e9578063fa88e7e7146106005761019c565b806399da7aac1461052a578063c2d1aebe14610553578063dbaf21451461057e5761019c565b80637dc0d1d0116100c65780637dc0d1d01461046e5780637fe93e31146104995780638da5cb5b146104c257806397654961146104ed5761019c565b8063715018a6146103f157806377d0c7d31461040857806378353ba6146104455761019c565b80632ce3707e116101595780635192235311610133578063519223531461030b5780635c975abb1461034c57806366566a3714610377578063685142c7146103b45761019c565b80632ce3707e146102a25780633952172d146102b9578063485cc955146102e25761019c565b80630617c33b146101a157806306dc39bf146101de5780630ebb172a1461021b5780631385d24c146102465780631cb44dfc1461025d57806325100b4d14610286575b600080fd5b3480156101ad57600080fd5b506101c860048036038101906101c3919061268b565b61063d565b6040516101d59190612700565b60405180910390f35b3480156101ea57600080fd5b506102056004803603810190610200919061271b565b610699565b604051610212919061293c565b60405180910390f35b34801561022757600080fd5b5061023061080f565b60405161023d9190612700565b60405180910390f35b34801561025257600080fd5b5061025b610816565b005b34801561026957600080fd5b50610284600480360381019061027f919061298a565b610843565b005b6102a0600480360381019061029b919061268b565b61092c565b005b3480156102ae57600080fd5b506102b7610be8565b005b3480156102c557600080fd5b506102e060048036038101906102db919061268b565b610c3f565b005b3480156102ee57600080fd5b50610309600480360381019061030491906129b7565b610f4c565b005b34801561031757600080fd5b50610332600480360381019061032d919061271b565b6112ef565b604051610343959493929190612a6b565b60405180910390f35b34801561035857600080fd5b506103616113ba565b60405161036e9190612ac5565b60405180910390f35b34801561038357600080fd5b5061039e6004803603810190610399919061271b565b6113df565b6040516103ab9190612ac5565b60405180910390f35b3480156103c057600080fd5b506103db60048036038101906103d69190612b0c565b6113ff565b6040516103e89190612b39565b60405180910390f35b3480156103fd57600080fd5b50610406611423565b005b34801561041457600080fd5b5061042f600480360381019061042a919061271b565b611437565b60405161043c9190612ac5565b60405180910390f35b34801561045157600080fd5b5061046c6004803603810190610467919061271b565b61146c565b005b34801561047a57600080fd5b50610483611561565b6040516104909190612bb3565b60405180910390f35b3480156104a557600080fd5b506104c060048036038101906104bb9190612c96565b611587565b005b3480156104ce57600080fd5b506104d7611748565b6040516104e49190612d01565b60405180910390f35b3480156104f957600080fd5b50610514600480360381019061050f919061271b565b611780565b6040516105219190612700565b60405180910390f35b34801561053657600080fd5b50610551600480360381019061054c919061271b565b61179f565b005b34801561055f57600080fd5b5061056861199d565b6040516105759190612700565b60405180910390f35b34801561058a57600080fd5b506105936119a4565b005b3480156105a157600080fd5b506105bc60048036038101906105b7919061298a565b6119ee565b005b3480156105ca57600080fd5b506105d3611a74565b6040516105e09190612700565b60405180910390f35b3480156105f557600080fd5b506105fe611a7a565b005b34801561060c57600080fd5b506106276004803603810190610622919061268b565b611b9b565b6040516106349190612700565b60405180910390f35b600080826040516020016106519190612d58565b60405160208183030381529060405280519060200120905060008085815260200190815260200160002060070160008281526020019081526020016000205491505092915050565b60606000806000848152602001908152602001600020905080600801805480602002602001604051908101604052809291908181526020016000905b8282101561080357838290600052602060002090600402016040518060800160405290816000820160009054906101000a900473ffffffffffffffffffffffffffffffffffffffff1673ffffffffffffffffffffffffffffffffffffffff1673ffffffffffffffffffffffffffffffffffffffff1681526020016001820154815260200160028201805461076890612d9e565b80601f016020809104026020016040519081016040528092919081815260200182805461079490612d9e565b80156107e15780601f106107b6576101008083540402835291602001916107e1565b820191906000526020600020905b8154815290600101906020018083116107c457829003601f168201915b50505050508152602001600382015481525050815260200190600101906106d5565b50505050915050919050565b6202a30081565b61081e611bf7565b6108266113ba565b1561083857610833611c7e565b610841565b610840611cf0565b5b565b61084b611bf7565b600073ffffffffffffffffffffffffffffffffffffffff168173ffffffffffffffffffffffffffffffffffffffff16036108b1576040517f5521068100000000000000000000000000000000000000000000000000000000815260040160405180910390fd5b80600260006101000a81548173ffffffffffffffffffffffffffffffffffffffff021916908373ffffffffffffffffffffffffffffffffffffffff1602179055507f3df77beb5db05fcdd70a30fc8adf3f83f9501b68579455adbd100b8180940394816040516109219190612d01565b60405180910390a150565b610934611d62565b61093c611da3565b600080600084815260200190815260200160002090506000801b816000015403610992576040517f3d3cef6a00000000000000000000000000000000000000000000000000000000815260040160405180910390fd5b8060020160009054906101000a900460ff16806109b457506109b383611437565b5b156109eb576040517f61c54c4a00000000000000000000000000000000000000000000000000000000815260040160405180910390fd5b6000826040516020016109fe9190612d58565b604051602081830303815290604052805190602001209050600082600701600083815260200190815260200160002054905060008103610a6a576040517f59bdd61600000000000000000000000000000000000000000000000000000000815260040160405180910390fd5b34836003016000828254610a7e9190612dfe565b92505081905550348360050160008481526020019081526020016000206000828254610aaa9190612dfe565b925050819055508260080160405180608001604052803373ffffffffffffffffffffffffffffffffffffffff16815260200134815260200186815260200183815250908060018154018082558091505060019003906000526020600020906004020160009091909190915060008201518160000160006101000a81548173ffffffffffffffffffffffffffffffffffffffff021916908373ffffffffffffffffffffffffffffffffffffffff160217905550602082015181600101556040820151816002019081610b7b9190612fd4565b50606082015181600301555050843373ffffffffffffffffffffffffffffffffffffffff167f48fc46cbccdd1929e80dd1cfd9cd0e841cf8a54f6dde1807225608686a8e6f758634604051610bd19291906130a6565b60405180910390a3505050610be4611dfa565b5050565b610bf0611bf7565b7f54455354000000000000000000000000000000000000000000000000000000007f73829305e9f70b89111cf588e6d67f7360300700b6ecaed7130c8021d454b49160405160405180910390a2565b610c47611d62565b610c4f611da3565b600260009054906101000a900473ffffffffffffffffffffffffffffffffffffffff1673ffffffffffffffffffffffffffffffffffffffff163373ffffffffffffffffffffffffffffffffffffffff1614610cd6576040517fd342cbff00000000000000000000000000000000000000000000000000000000815260040160405180910390fd5b600080600084815260200190815260200160002090506000801b816000015403610d2c576040517f3d3cef6a00000000000000000000000000000000000000000000000000000000815260040160405180910390fd5b8060020160009054906101000a900460ff1615610d75576040517f61c54c4a00000000000000000000000000000000000000000000000000000000815260040160405180910390fd5b81816001019081610d869190612fd4565b5060018160020160006101000a81548160ff021916908315150217905550600082604051602001610db79190612d58565b60405160208183030381529060405280519060200120905060005b8260080180549050811015610ed8576000836008018281548110610df957610df86130d6565b5b906000526020600020906004020190508281600201604051602001610e1e9190613188565b6040516020818303038152906040528051906020012003610eca576000606482600301548360010154610e51919061319f565b610e5b9190613210565b90508160000160009054906101000a900473ffffffffffffffffffffffffffffffffffffffff1673ffffffffffffffffffffffffffffffffffffffff166108fc829081150290604051600060405180830381858888f19350505050158015610ec7573d6000803e3d6000fd5b50505b508080600101915050610dd2565b50837f05b38d8d0276a7822a40028770c59e835ff41a84cf7ef75d0ca61374dd2114b284604051610f099190613241565b60405180910390a2837f7fa0af01d1013cd4a40114e18d6be90c73e0906187e6bd1f851acc747e36475360405160405180910390a25050610f48611dfa565b5050565b6000610f56611e13565b905060008160000160089054906101000a900460ff1615905060008260000160009054906101000a900467ffffffffffffffff1690506000808267ffffffffffffffff16148015610fa45750825b9050600060018367ffffffffffffffff16148015610fd9575060003073ffffffffffffffffffffffffffffffffffffffff163b145b905081158015610fe7575080155b1561101e576040517ff92ee8a900000000000000000000000000000000000000000000000000000000815260040160405180910390fd5b60018560000160006101000a81548167ffffffffffffffff021916908367ffffffffffffffff160217905550831561106e5760018560000160086101000a81548160ff0219169083151502179055505b61107787611e3b565b61107f611e4f565b611087611e61565b85600260006101000a81548173ffffffffffffffffffffffffffffffffffffffff021916908373ffffffffffffffffffffffffffffffffffffffff16021790555060006040518061012001604052807f575700000000000000000000000000000000000000000000000000000000000081526020017f425200000000000000000000000000000000000000000000000000000000000081526020017f444500000000000000000000000000000000000000000000000000000000000081526020017f455300000000000000000000000000000000000000000000000000000000000081526020017f465200000000000000000000000000000000000000000000000000000000000081526020017f495400000000000000000000000000000000000000000000000000000000000081526020017f505400000000000000000000000000000000000000000000000000000000000081526020017f555300000000000000000000000000000000000000000000000000000000000081526020017f5445535400000000000000000000000000000000000000000000000000000000815250905060005b600981101561128857600160036000848460098110611251576112506130d6565b5b6020020151815260200190815260200160002060006101000a81548160ff021916908315150217905550808060010191505061122f565b505083156112e65760008560000160086101000a81548160ff0219169083151502179055507fc7f505b2f371ae2175ee4913f4499e1f2633a7b5936321eed1cdaeb6115181d260016040516112dd91906132b2565b60405180910390a15b50505050505050565b600060205280600052604060002060009150905080600001549080600101805461131890612d9e565b80601f016020809104026020016040519081016040528092919081815260200182805461134490612d9e565b80156113915780601f1061136657610100808354040283529160200191611391565b820191906000526020600020905b81548152906001019060200180831161137457829003601f168201915b5050505050908060020160009054906101000a900460ff16908060030154908060040154905085565b6000806113c5611e73565b90508060000160009054906101000a900460ff1691505090565b60036020528060005260406000206000915054906101000a900460ff1681565b6001818154811061140f57600080fd5b906000526020600020016000915090505481565b61142b611bf7565b6114356000611e9b565b565b600080600080848152602001908152602001600020905062093a8081600401546114619190612dfe565b421015915050919050565b611474611bf7565b600080600083815260200190815260200160002090506000801b8160000154036114ca576040517f3d3cef6a00000000000000000000000000000000000000000000000000000000815260040160405180910390fd5b8060020160009054906101000a900460ff1615611513576040517f9aa0b8bd00000000000000000000000000000000000000000000000000000000815260040160405180910390fd5b60018160020160006101000a81548160ff021916908315150217905550817f7fa0af01d1013cd4a40114e18d6be90c73e0906187e6bd1f851acc747e36475360405160405180910390a25050565b600260009054906101000a900473ffffffffffffffffffffffffffffffffffffffff1681565b61158f611d62565b600260009054906101000a900473ffffffffffffffffffffffffffffffffffffffff1673ffffffffffffffffffffffffffffffffffffffff163373ffffffffffffffffffffffffffffffffffffffff1614611616576040517fd342cbff00000000000000000000000000000000000000000000000000000000815260040160405180910390fd5b6003600083815260200190815260200160002060009054906101000a900460ff1661166d576040517f139d566400000000000000000000000000000000000000000000000000000000815260040160405180910390fd5b600080600084815260200190815260200160002090506000801b8160000154036116c3576040517f3d3cef6a00000000000000000000000000000000000000000000000000000000815260040160405180910390fd5b8060020160009054906101000a900460ff161561170c576040517f9aa0b8bd00000000000000000000000000000000000000000000000000000000815260040160405180910390fd5b6117168383611f72565b827f577b6860ec2af75814bd1d732a479f5787676f4012afbc91228827a4b7f2e5a460405160405180910390a2505050565b6000806117536121e7565b90508060000160009054906101000a900473ffffffffffffffffffffffffffffffffffffffff1691505090565b6000806000838152602001908152602001600020600301549050919050565b6117a7611bf7565b6117af611d62565b6003600082815260200190815260200160002060009054906101000a900460ff16611806576040517f139d566400000000000000000000000000000000000000000000000000000000815260040160405180910390fd5b600080600083815260200190815260200160002090506000801b8160000154146118f3578060020160009054906101000a900460ff1615801561185a575062093a8081600401546118579190612dfe565b42105b15611891576040517fdbe95ff500000000000000000000000000000000000000000000000000000000815260040160405180910390fd5b6000808381526020019081526020016000206000808201600090556001820160006118bc919061241c565b6002820160006101000a81549060ff0219169055600382016000905560048201600090556008820160006118f0919061245c565b50505b6000806000848152602001908152602001600020905082816000018190555060008160020160006101000a81548160ff021916908315150217905550428160040181905550600081600301819055506001839080600181540180825580915050600190039060005260206000200160009091909190915055827f73829305e9f70b89111cf588e6d67f7360300700b6ecaed7130c8021d454b49160405160405180910390a2505050565b62093a8081565b6119ac611bf7565b426004819055507faf619daa033514f6c299197d29548ccd9276a1b55ef717fb80adf495925dd5106004546040516119e49190612700565b60405180910390a1565b6119f6611bf7565b600073ffffffffffffffffffffffffffffffffffffffff168173ffffffffffffffffffffffffffffffffffffffff1603611a685760006040517f1e4fbdf7000000000000000000000000000000000000000000000000000000008152600401611a5f9190612d01565b60405180910390fd5b611a7181611e9b565b50565b60045481565b611a82611bf7565b6202a300600454611a939190612dfe565b421015611acc576040517fb95063c200000000000000000000000000000000000000000000000000000000815260040160405180910390fd5b60004703611b06576040517f67e3990d00000000000000000000000000000000000000000000000000000000815260040160405180910390fd5b6000479050611b13611748565b73ffffffffffffffffffffffffffffffffffffffff166108fc829081150290604051600060405180830381858888f19350505050158015611b58573d6000803e3d6000fd5b5060006004819055507feaa620b5c98328f5ddb4195c31eadb3e30e7915fcbc9cc1c244441984780c0d281604051611b909190612700565b60405180910390a150565b60008082604051602001611baf9190612d58565b60405160208183030381529060405280519060200120905060008085815260200190815260200160002060050160008281526020019081526020016000205491505092915050565b611bff61220f565b73ffffffffffffffffffffffffffffffffffffffff16611c1d611748565b73ffffffffffffffffffffffffffffffffffffffff1614611c7c57611c4061220f565b6040517f118cdaa7000000000000000000000000000000000000000000000000000000008152600401611c739190612d01565b60405180910390fd5b565b611c86612217565b6000611c90611e73565b905060008160000160006101000a81548160ff0219169083151502179055507f5db9ee0a495bf2e6ff9c91a7834c1ba4fdd244a5e8aa4e537bd38aeae4b073aa611cd861220f565b604051611ce59190612d01565b60405180910390a150565b611cf8611d62565b6000611d02611e73565b905060018160000160006101000a81548160ff0219169083151502179055507f62e78cea01bee320cd4e420270b5ea74000d11b0c9f74754ebdbfc544b05a258611d4a61220f565b604051611d579190612d01565b60405180910390a150565b611d6a6113ba565b15611da1576040517fd93c066500000000000000000000000000000000000000000000000000000000815260040160405180910390fd5b565b6000611dad612257565b90506002816000015403611ded576040517f3ee5aeb500000000000000000000000000000000000000000000000000000000815260040160405180910390fd5b6002816000018190555050565b6000611e04612257565b90506001816000018190555050565b60007ff0c57e16840df040f15088dc2f81fe391c3923bec73e23a9662efc9c229c6a00905090565b611e4361227f565b611e4c816122bf565b50565b611e5761227f565b611e5f612345565b565b611e6961227f565b611e71612379565b565b60007fcd5ed15c6e187e77e9aee88184c21f4f2182ab5827cb3b7e07fbedcd63f03300905090565b6000611ea56121e7565b905060008160000160009054906101000a900473ffffffffffffffffffffffffffffffffffffffff169050828260000160006101000a81548173ffffffffffffffffffffffffffffffffffffffff021916908373ffffffffffffffffffffffffffffffffffffffff1602179055508273ffffffffffffffffffffffffffffffffffffffff168173ffffffffffffffffffffffffffffffffffffffff167f8be0079c531659141344cd1fd0a4f28419497f9722a3daafe3b4186f6b6457e060405160405180910390a3505050565b60008060008481526020019081526020016000209050600081600601905060005b835181101561203d576000848281518110611fb157611fb06130d6565b5b6020026020010151604051602001611fc991906132ee565b604051602081830303815290604052805190602001209050600084600601600083815260200190815260200160002081905550600084600701600083815260200190815260200160002081905550600083600083815260200190815260200160002081905550508080600101915050611f93565b5060005b83518110156120c557600084828151811061205f5761205e6130d6565b5b602002602001015160405160200161207791906132ee565b60405160208183030381529060405280519060200120905082600082815260200190815260200160002060008154809291906120b290613309565b9190505550508080600101915050612041565b5060005b83518110156121e05760008482815181106120e7576120e66130d6565b5b60200260200101516040516020016120ff91906132ee565b60405160208183030381529060405280519060200120905060006001836121269190612dfe565b905080856006016000848152602001908152602001600020819055506000612160828660008681526020019081526020016000205461239a565b90508086600701600085815260200190815260200160002081905550877fe702918564d36a4c4da3b202516e441b40204adeb97d8e49c6d2a7b27ee533e88886815181106121b1576121b06130d6565b5b6020026020010151836040516121c8929190613351565b60405180910390a250505080806001019150506120c9565b5050505050565b60007f9016d09d72d40fdae2fd8ceac6b6234c7706214fd39c1cd1e609a0528c199300905090565b600033905090565b61221f6113ba565b612255576040517f8dfc202b00000000000000000000000000000000000000000000000000000000815260040160405180910390fd5b565b60007f9b779b17422d0df92223018b32b4d1fa46e071723d6817e2486d003becc55f00905090565b6122876123fc565b6122bd576040517fd7e6bcf800000000000000000000000000000000000000000000000000000000815260040160405180910390fd5b565b6122c761227f565b600073ffffffffffffffffffffffffffffffffffffffff168173ffffffffffffffffffffffffffffffffffffffff16036123395760006040517f1e4fbdf70000000000000000000000000000000000000000000000000000000081526004016123309190612d01565b60405180910390fd5b61234281611e9b565b50565b61234d61227f565b6000612357611e73565b905060008160000160006101000a81548160ff02191690831515021790555050565b61238161227f565b600061238b612257565b90506001816000018190555050565b6000806002600184866123ad9190612dfe565b6123b7919061337a565b856123c29190612dfe565b6123cc9190613210565b905060146001826123dd919061337a565b6123e7919061319f565b60786123f39190612dfe565b91505092915050565b6000612406611e13565b60000160089054906101000a900460ff16905090565b50805461242890612d9e565b6000825580601f1061243a5750612459565b601f0160209004906000526020600020908101906124589190612480565b5b50565b508054600082556004029060005260206000209081019061247d919061249d565b50565b5b80821115612499576000816000905550600101612481565b5090565b5b808211156124f757600080820160006101000a81549073ffffffffffffffffffffffffffffffffffffffff021916905560018201600090556002820160006124e6919061241c565b60038201600090555060040161249e565b5090565b6000604051905090565b600080fd5b600080fd5b6000819050919050565b6125228161250f565b811461252d57600080fd5b50565b60008135905061253f81612519565b92915050565b600080fd5b600080fd5b6000601f19601f8301169050919050565b7f4e487b7100000000000000000000000000000000000000000000000000000000600052604160045260246000fd5b6125988261254f565b810181811067ffffffffffffffff821117156125b7576125b6612560565b5b80604052505050565b60006125ca6124fb565b90506125d6828261258f565b919050565b600067ffffffffffffffff8211156125f6576125f5612560565b5b6125ff8261254f565b9050602081019050919050565b82818337600083830152505050565b600061262e612629846125db565b6125c0565b90508281526020810184848401111561264a5761264961254a565b5b61265584828561260c565b509392505050565b600082601f83011261267257612671612545565b5b813561268284826020860161261b565b91505092915050565b600080604083850312156126a2576126a1612505565b5b60006126b085828601612530565b925050602083013567ffffffffffffffff8111156126d1576126d061250a565b5b6126dd8582860161265d565b9150509250929050565b6000819050919050565b6126fa816126e7565b82525050565b600060208201905061271560008301846126f1565b92915050565b60006020828403121561273157612730612505565b5b600061273f84828501612530565b91505092915050565b600081519050919050565b600082825260208201905092915050565b6000819050602082019050919050565b600073ffffffffffffffffffffffffffffffffffffffff82169050919050565b600061279f82612774565b9050919050565b6127af81612794565b82525050565b6127be816126e7565b82525050565b600081519050919050565b600082825260208201905092915050565b60005b838110156127fe5780820151818401526020810190506127e3565b60008484015250505050565b6000612815826127c4565b61281f81856127cf565b935061282f8185602086016127e0565b6128388161254f565b840191505092915050565b600060808301600083015161285b60008601826127a6565b50602083015161286e60208601826127b5565b5060408301518482036040860152612886828261280a565b915050606083015161289b60608601826127b5565b508091505092915050565b60006128b28383612843565b905092915050565b6000602082019050919050565b60006128d282612748565b6128dc8185612753565b9350836020820285016128ee85612764565b8060005b8581101561292a578484038952815161290b85826128a6565b9450612916836128ba565b925060208a019950506001810190506128f2565b50829750879550505050505092915050565b6000602082019050818103600083015261295681846128c7565b905092915050565b61296781612794565b811461297257600080fd5b50565b6000813590506129848161295e565b92915050565b6000602082840312156129a05761299f612505565b5b60006129ae84828501612975565b91505092915050565b600080604083850312156129ce576129cd612505565b5b60006129dc85828601612975565b92505060206129ed85828601612975565b9150509250929050565b612a008161250f565b82525050565b600082825260208201905092915050565b6000612a22826127c4565b612a2c8185612a06565b9350612a3c8185602086016127e0565b612a458161254f565b840191505092915050565b60008115159050919050565b612a6581612a50565b82525050565b600060a082019050612a8060008301886129f7565b8181036020830152612a928187612a17565b9050612aa16040830186612a5c565b612aae60608301856126f1565b612abb60808301846126f1565b9695505050505050565b6000602082019050612ada6000830184612a5c565b92915050565b612ae9816126e7565b8114612af457600080fd5b50565b600081359050612b0681612ae0565b92915050565b600060208284031215612b2257612b21612505565b5b6000612b3084828501612af7565b91505092915050565b6000602082019050612b4e60008301846129f7565b92915050565b6000819050919050565b6000612b79612b74612b6f84612774565b612b54565b612774565b9050919050565b6000612b8b82612b5e565b9050919050565b6000612b9d82612b80565b9050919050565b612bad81612b92565b82525050565b6000602082019050612bc86000830184612ba4565b92915050565b600067ffffffffffffffff821115612be957612be8612560565b5b602082029050602081019050919050565b600080fd5b6000612c12612c0d84612bce565b6125c0565b90508083825260208201905060208402830185811115612c3557612c34612bfa565b5b835b81811015612c5e5780612c4a8882612530565b845260208401935050602081019050612c37565b5050509392505050565b600082601f830112612c7d57612c7c612545565b5b8135612c8d848260208601612bff565b91505092915050565b60008060408385031215612cad57612cac612505565b5b6000612cbb85828601612530565b925050602083013567ffffffffffffffff811115612cdc57612cdb61250a565b5b612ce885828601612c68565b9150509250929050565b612cfb81612794565b82525050565b6000602082019050612d166000830184612cf2565b92915050565b600081905092915050565b6000612d32826127c4565b612d3c8185612d1c565b9350612d4c8185602086016127e0565b80840191505092915050565b6000612d648284612d27565b915081905092915050565b7f4e487b7100000000000000000000000000000000000000000000000000000000600052602260045260246000fd5b60006002820490506001821680612db657607f821691505b602082108103612dc957612dc8612d6f565b5b50919050565b7f4e487b7100000000000000000000000000000000000000000000000000000000600052601160045260246000fd5b6000612e09826126e7565b9150612e14836126e7565b9250828201905080821115612e2c57612e2b612dcf565b5b92915050565b60008190508160005260206000209050919050565b60006020601f8301049050919050565b600082821b905092915050565b600060088302612e947fffffffffffffffffffffffffffffffffffffffffffffffffffffffffffffffff82612e57565b612e9e8683612e57565b95508019841693508086168417925050509392505050565b6000612ed1612ecc612ec7846126e7565b612b54565b6126e7565b9050919050565b6000819050919050565b612eeb83612eb6565b612eff612ef782612ed8565b848454612e64565b825550505050565b600090565b612f14612f07565b612f1f818484612ee2565b505050565b5b81811015612f4357612f38600082612f0c565b600181019050612f25565b5050565b601f821115612f8857612f5981612e32565b612f6284612e47565b81016020851015612f71578190505b612f85612f7d85612e47565b830182612f24565b50505b505050565b600082821c905092915050565b6000612fab60001984600802612f8d565b1980831691505092915050565b6000612fc48383612f9a565b9150826002028217905092915050565b612fdd826127c4565b67ffffffffffffffff811115612ff657612ff5612560565b5b6130008254612d9e565b61300b828285612f47565b600060209050601f83116001811461303e576000841561302c578287015190505b6130368582612fb8565b86555061309e565b601f19841661304c86612e32565b60005b828110156130745784890151825560018201915060208501945060208101905061304f565b86831015613091578489015161308d601f891682612f9a565b8355505b6001600288020188555050505b505050505050565b600060408201905081810360008301526130c08185612a17565b90506130cf60208301846126f1565b9392505050565b7f4e487b7100000000000000000000000000000000000000000000000000000000600052603260045260246000fd5b6000815461311281612d9e565b61311c8186612d1c565b94506001821660008114613137576001811461314c5761317f565b60ff198316865281151582028601935061317f565b61315585612e32565b60005b8381101561317757815481890152600182019150602081019050613158565b838801955050505b50505092915050565b60006131948284613105565b915081905092915050565b60006131aa826126e7565b91506131b5836126e7565b92508282026131c3816126e7565b915082820484148315176131da576131d9612dcf565b5b5092915050565b7f4e487b7100000000000000000000000000000000000000000000000000000000600052601260045260246000fd5b600061321b826126e7565b9150613226836126e7565b925082613236576132356131e1565b5b828204905092915050565b6000602082019050818103600083015261325b8184612a17565b905092915050565b6000819050919050565b600067ffffffffffffffff82169050919050565b600061329c61329761329284613263565b612b54565b61326d565b9050919050565b6132ac81613281565b82525050565b60006020820190506132c760008301846132a3565b92915050565b6000819050919050565b6132e86132e38261250f565b6132cd565b82525050565b60006132fa82846132d7565b60208201915081905092915050565b6000613314826126e7565b91507fffffffffffffffffffffffffffffffffffffffffffffffffffffffffffffffff820361334657613345612dcf565b5b600182019050919050565b600060408201905061336660008301856129f7565b61337360208301846126f1565b9392505050565b6000613385826126e7565b9150613390836126e7565b92508282039050818111156133a8576133a7612dcf565b5b9291505056fea26469706673582212202e5877380fe54e805301e757e819d932dc8da5c81b652104ca272fc849b6483364736f6c634300081a0033",
          "opcodes": "PUSH1 0x80 PUSH1 0x40 MSTORE CALLVALUE DUP1 ISZERO PUSH1 0xF JUMPI PUSH1 0x0 DUP1 REVERT JUMPDEST POP PUSH2 0x33E4 DUP1 PUSH2 0x1F PUSH1 0x0 CODECOPY PUSH1 0x0 RETURN INVALID PUSH1 0x80 PUSH1 0x40 MSTORE PUSH1 0x4 CALLDATASIZE LT PUSH2 0x19C JUMPI PUSH1 0x0 CALLDATALOAD PUSH1 0xE0 SHR DUP1 PUSH4 0x715018A6 GT PUSH2 0xEC JUMPI DUP1 PUSH4 0x99DA7AAC GT PUSH2 0x8A JUMPI DUP1 PUSH4 0xF2FDE38B GT PUSH2 0x64 JUMPI DUP1 PUSH4 0xF2FDE38B EQ PUSH2 0x595 JUMPI DUP1 PUSH4 0xF59BDF85 EQ PUSH2 0x5BE JUMPI DUP1 PUSH4 0xFA45AA00 EQ PUSH2 0x5E9 JUMPI DUP1 PUSH4 0xFA88E7E7 EQ PUSH2 0x600 JUMPI PUSH2 0x19C JUMP JUMPDEST DUP1 PUSH4 0x99DA7AAC EQ PUSH2 0x52A JUMPI DUP1 PUSH4 0xC2D1AEBE EQ PUSH2 0x553 JUMPI DUP1 PUSH4 0xDBAF2145 EQ PUSH2 0x57E JUMPI PUSH2 0x19C JUMP JUMPDEST DUP1 PUSH4 0x7DC0D1D0 GT PUSH2 0xC6 JUMPI DUP1 PUSH4 0x7DC0D1D0 EQ PUSH2 0x46E JUMPI DUP1 PUSH4 0x7FE93E31 EQ PUSH2 0x499 JUMPI DUP1 PUSH4 0x8DA5CB5B EQ PUSH2 0x4C2 JUMPI DUP1 PUSH4 0x97654961 EQ PUSH2 0x4ED JUMPI PUSH2 0x19C JUMP JUMPDEST DUP1 PUSH4 0x715018A6 EQ PUSH2 0x3F1 JUMPI DUP1 PUSH4 0x77D0C7D3 EQ PUSH2 0x408 JUMPI DUP1 PUSH4 0x78353BA6 EQ PUSH2 0x445 JUMPI PUSH2 0x19C JUMP JUMPDEST DUP1 PUSH4 0x2CE3707E GT PUSH2 0x159 JUMPI DUP1 PUSH4 0x51922353 GT PUSH2 0x133 JUMPI DUP1 PUSH4 0x51922353 EQ PUSH2 0x30B JUMPI DUP1 PUSH4 0x5C975ABB EQ PUSH2 0x34C JUMPI DUP1 PUSH4 0x66566A37 EQ PUSH2 0x377 JUMPI DUP1 PUSH4 0x685142C7 EQ PUSH2 0x3B4 JUMPI PUSH2 0x19C JUMP JUMPDEST DUP1 PUSH4 0x2CE3707E EQ PUSH2 0x2A2 JUMPI DUP1 PUSH4 0x3952172D EQ PUSH2 0x2B9 JUMPI DUP1 PUSH4 0x485CC955 EQ PUSH2 0x2E2 JUMPI PUSH2 0x19C JUMP JUMPDEST DUP1 PUSH4 0x617C33B EQ PUSH2 0x1A1 JUMPI DUP1 PUSH4 0x6DC39BF EQ PUSH2 0x1DE JUMPI DUP1 PUSH4 0xEBB172A EQ PUSH2 0x21B JUMPI DUP1 PUSH4 0x1385D24C EQ PUSH2 0x246 JUMPI DUP1 PUSH4 0x1CB44DFC EQ PUSH2 0x25D JUMPI DUP1 PUSH4 0x25100B4D EQ PUSH2 0x286 JUMPI JUMPDEST PUSH1 0x0 DUP1 REVERT JUMPDEST CALLVALUE DUP1 ISZERO PUSH2 0x1AD JUMPI PUSH1 0x0 DUP1 REVERT JUMPDEST POP PUSH2 0x1C8 PUSH1 0x4 DUP1 CALLDATASIZE SUB DUP2 ADD SWAP1 PUSH2 0x1C3 SWAP2 SWAP1 PUSH2 0x268B JUMP JUMPDEST PUSH2 0x63D JUMP JUMPDEST PUSH1 0x40 MLOAD PUSH2 0x1D5 SWAP2 SWAP1 PUSH2 0x2700 JUMP JUMPDEST PUSH1 0x40 MLOAD DUP1 SWAP2 SUB SWAP1 RETURN JUMPDEST CALLVALUE DUP1 ISZERO PUSH2 0x1EA JUMPI PUSH1 0x0 DUP1 REVERT JUMPDEST POP PUSH2 0x205 PUSH1 0x4 DUP1 CALLDATASIZE SUB DUP2 ADD SWAP1 PUSH2 0x200 SWAP2 SWAP1 PUSH2 0x271B JUMP JUMPDEST PUSH2 0x699 JUMP JUMPDEST PUSH1 0x40 MLOAD PUSH2 0x212 SWAP2 SWAP1 PUSH2 0x293C JUMP JUMPDEST PUSH1 0x40 MLOAD DUP1 SWAP2 SUB SWAP1 RETURN JUMPDEST CALLVALUE DUP1 ISZERO PUSH2 0x227 JUMPI PUSH1 0x0 DUP1 REVERT JUMPDEST POP PUSH2 0x230 PUSH2 0x80F JUMP JUMPDEST PUSH1 0x40 MLOAD PUSH2 0x23D SWAP2 SWAP1 PUSH2 0x2700 JUMP JUMPDEST PUSH1 0x40 MLOAD DUP1 SWAP2 SUB SWAP1 RETURN JUMPDEST CALLVALUE DUP1 ISZERO PUSH2 0x252 JUMPI PUSH1 0x0 DUP1 REVERT JUMPDEST POP PUSH2 0x25B PUSH2 0x816 JUMP JUMPDEST STOP JUMPDEST CALLVALUE DUP1 ISZERO PUSH2 0x269 JUMPI PUSH1 0x0 DUP1 REVERT JUMPDEST POP PUSH2 0x284 PUSH1 0x4 DUP1 CALLDATASIZE SUB DUP2 ADD SWAP1 PUSH2 0x27F SWAP2 SWAP1 PUSH2 0x298A JUMP JUMPDEST PUSH2 0x843 JUMP JUMPDEST STOP JUMPDEST PUSH2 0x2A0 PUSH1 0x4 DUP1 CALLDATASIZE SUB DUP2 ADD SWAP1 PUSH2 0x29B SWAP2 SWAP1 PUSH2 0x268B JUMP JUMPDEST PUSH2 0x92C JUMP JUMPDEST STOP JUMPDEST CALLVALUE DUP1 ISZERO PUSH2 0x2AE JUMPI PUSH1 0x0 DUP1 REVERT JUMPDEST POP PUSH2 0x2B7 PUSH2 0xBE8 JUMP JUMPDEST STOP JUMPDEST CALLVALUE DUP1 ISZERO PUSH2 0x2C5 JUMPI PUSH1 0x0 DUP1 REVERT JUMPDEST POP PUSH2 0x2E0 PUSH1 0x4 DUP1 CALLDATASIZE SUB DUP2 ADD SWAP1 PUSH2 0x2DB SWAP2 SWAP1 PUSH2 0x268B JUMP JUMPDEST PUSH2 0xC3F JUMP JUMPDEST STOP JUMPDEST CALLVALUE DUP1 ISZERO PUSH2 0x2EE JUMPI PUSH1 0x0 DUP1 REVERT JUMPDEST POP PUSH2 0x309 PUSH1 0x4 DUP1 CALLDATASIZE SUB DUP2 ADD SWAP1 PUSH2 0x304 SWAP2 SWAP1 PUSH2 0x29B7 JUMP JUMPDEST PUSH2 0xF4C JUMP JUMPDEST STOP JUMPDEST CALLVALUE DUP1 ISZERO PUSH2 0x317 JUMPI PUSH1 0x0 DUP1 REVERT JUMPDEST POP PUSH2 0x332 PUSH1 0x4 DUP1 CALLDATASIZE SUB DUP2 ADD SWAP1 PUSH2 0x32D SWAP2 SWAP1 PUSH2 0x271B JUMP JUMPDEST PUSH2 0x12EF JUMP JUMPDEST PUSH1 0x40 MLOAD PUSH2 0x343 SWAP6 SWAP5 SWAP4 SWAP3 SWAP2 SWAP1 PUSH2 0x2A6B JUMP JUMPDEST PUSH1 0x40 MLOAD DUP1 SWAP2 SUB SWAP1 RETURN JUMPDEST CALLVALUE DUP1 ISZERO PUSH2 0x358 JUMPI PUSH1 0x0 DUP1 REVERT JUMPDEST POP PUSH2 0x361 PUSH2 0x13BA JUMP JUMPDEST PUSH1 0x40 MLOAD PUSH2 0x36E SWAP2 SWAP1 PUSH2 0x2AC5 JUMP JUMPDEST PUSH1 0x40 MLOAD DUP1 SWAP2 SUB SWAP1 RETURN JUMPDEST CALLVALUE DUP1 ISZERO PUSH2 0x383 JUMPI PUSH1 0x0 DUP1 REVERT JUMPDEST POP PUSH2 0x39E PUSH1 0x4 DUP1 CALLDATASIZE SUB DUP2 ADD SWAP1 PUSH2 0x399 SWAP2 SWAP1 PUSH2 0x271B JUMP JUMPDEST PUSH2 0x13DF JUMP JUMPDEST PUSH1 0x40 MLOAD PUSH2 0x3AB SWAP2 SWAP1 PUSH2 0x2AC5 JUMP JUMPDEST PUSH1 0x40 MLOAD DUP1 SWAP2 SUB SWAP1 RETURN JUMPDEST CALLVALUE DUP1 ISZERO PUSH2 0x3C0 JUMPI PUSH1 0x0 DUP1 REVERT JUMPDEST POP PUSH2 0x3DB PUSH1 0x4 DUP1 CALLDATASIZE SUB DUP2 ADD SWAP1 PUSH2 0x3D6 SWAP2 SWAP1 PUSH2 0x2B0C JUMP JUMPDEST PUSH2 0x13FF JUMP JUMPDEST PUSH1 0x40 MLOAD PUSH2 0x3E8 SWAP2 SWAP1 PUSH2 0x2B39 JUMP JUMPDEST PUSH1 0x40 MLOAD DUP1 SWAP2 SUB SWAP1 RETURN JUMPDEST CALLVALUE DUP1 ISZERO PUSH2 0x3FD JUMPI PUSH1 0x0 DUP1 REVERT JUMPDEST POP PUSH2 0x406 PUSH2 0x1423 JUMP JUMPDEST STOP JUMPDEST CALLVALUE DUP1 ISZERO PUSH2 0x414 JUMPI PUSH1 0x0 DUP1 REVERT JUMPDEST POP PUSH2 0x42F PUSH1 0x4 DUP1 CALLDATASIZE SUB DUP2 ADD SWAP1 PUSH2 0x42A SWAP2 SWAP1 PUSH2 0x271B JUMP JUMPDEST PUSH2 0x1437 JUMP JUMPDEST PUSH1 0x40 MLOAD PUSH2 0x43C SWAP2 SWAP1 PUSH2 0x2AC5 JUMP JUMPDEST PUSH1 0x40 MLOAD DUP1 SWAP2 SUB SWAP1 RETURN JUMPDEST CALLVALUE DUP1 ISZERO PUSH2 0x451 JUMPI PUSH1 0x0 DUP1 REVERT JUMPDEST POP PUSH2 0x46C PUSH1 0x4 DUP1 CALLDATASIZE SUB DUP2 ADD SWAP1 PUSH2 0x467 SWAP2 SWAP1 PUSH2 0x271B JUMP JUMPDEST PUSH2 0x146C JUMP JUMPDEST STOP JUMPDEST CALLVALUE DUP1 ISZERO PUSH2 0x47A JUMPI PUSH1 0x0 DUP1 REVERT JUMPDEST POP PUSH2 0x483 PUSH2 0x1561 JUMP JUMPDEST PUSH1 0x40 MLOAD PUSH2 0x490 SWAP2 SWAP1 PUSH2 0x2BB3 JUMP JUMPDEST PUSH1 0x40 MLOAD DUP1 SWAP2 SUB SWAP1 RETURN JUMPDEST CALLVALUE DUP1 ISZERO PUSH2 0x4A5 JUMPI PUSH1 0x0 DUP1 REVERT JUMPDEST POP PUSH2 0x4C0 PUSH1 0x4 DUP1 CALLDATASIZE SUB DUP2 ADD SWAP1 PUSH2 0x4BB SWAP2 SWAP1 PUSH2 0x2C96 JUMP JUMPDEST PUSH2 0x1587 JUMP JUMPDEST STOP JUMPDEST CALLVALUE DUP1 ISZERO PUSH2 0x4CE JUMPI PUSH1 0x0 DUP1 REVERT JUMPDEST POP PUSH2 0x4D7 PUSH2 0x1748 JUMP JUMPDEST PUSH1 0x40 MLOAD PUSH2 0x4E4 SWAP2 SWAP1 PUSH2 0x2D01 JUMP JUMPDEST PUSH1 0x40 MLOAD DUP1 SWAP2 SUB SWAP1 RETURN JUMPDEST CALLVALUE DUP1 ISZERO PUSH2 0x4F9 JUMPI PUSH1 0x0 DUP1 REVERT JUMPDEST POP PUSH2 0x514 PUSH1 0x4 DUP1 CALLDATASIZE SUB DUP2 ADD SWAP1 PUSH2 0x50F SWAP2 SWAP1 PUSH2 0x271B JUMP JUMPDEST PUSH2 0x1780 JUMP JUMPDEST PUSH1 0x40 MLOAD PUSH2 0x521 SWAP2 SWAP1 PUSH2 0x2700 JUMP JUMPDEST PUSH1 0x40 MLOAD DUP1 SWAP2 SUB SWAP1 RETURN JUMPDEST CALLVALUE DUP1 ISZERO PUSH2 0x536 JUMPI PUSH1 0x0 DUP1 REVERT JUMPDEST POP PUSH2 0x551 PUSH1 0x4 DUP1 CALLDATASIZE SUB DUP2 ADD SWAP1 PUSH2 0x54C SWAP2 SWAP1 PUSH2 0x271B JUMP JUMPDEST PUSH2 0x179F JUMP JUMPDEST STOP JUMPDEST CALLVALUE DUP1 ISZERO PUSH2 0x55F JUMPI PUSH1 0x0 DUP1 REVERT JUMPDEST POP PUSH2 0x568 PUSH2 0x199D JUMP JUMPDEST PUSH1 0x40 MLOAD PUSH2 0x575 SWAP2 SWAP1 PUSH2 0x2700 JUMP JUMPDEST PUSH1 0x40 MLOAD DUP1 SWAP2 SUB SWAP1 RETURN JUMPDEST CALLVALUE DUP1 ISZERO PUSH2 0x58A JUMPI PUSH1 0x0 DUP1 REVERT JUMPDEST POP PUSH2 0x593 PUSH2 0x19A4 JUMP JUMPDEST STOP JUMPDEST CALLVALUE DUP1 ISZERO PUSH2 0x5A1 JUMPI PUSH1 0x0 DUP1 REVERT JUMPDEST POP PUSH2 0x5BC PUSH1 0x4 DUP1 CALLDATASIZE SUB DUP2 ADD SWAP1 PUSH2 0x5B7 SWAP2 SWAP1 PUSH2 0x298A JUMP JUMPDEST PUSH2 0x19EE JUMP JUMPDEST STOP JUMPDEST CALLVALUE DUP1 ISZERO PUSH2 0x5CA JUMPI PUSH1 0x0 DUP1 REVERT JUMPDEST POP PUSH2 0x5D3 PUSH2 0x1A74 JUMP JUMPDEST PUSH1 0x40 MLOAD PUSH2 0x5E0 SWAP2 SWAP1 PUSH2 0x2700 JUMP JUMPDEST PUSH1 0x40 MLOAD DUP1 SWAP2 SUB SWAP1 RETURN JUMPDEST CALLVALUE DUP1 ISZERO PUSH2 0x5F5 JUMPI PUSH1 0x0 DUP1 REVERT JUMPDEST POP PUSH2 0x5FE PUSH2 0x1A7A JUMP JUMPDEST STOP JUMPDEST CALLVALUE DUP1 ISZERO PUSH2 0x60C JUMPI PUSH1 0x0 DUP1 REVERT JUMPDEST POP PUSH2 0x627 PUSH1 0x4 DUP1 CALLDATASIZE SUB DUP2 ADD SWAP1 PUSH2 0x622 SWAP2 SWAP1 PUSH2 0x268B JUMP JUMPDEST PUSH2 0x1B9B JUMP JUMPDEST PUSH1 0x40 MLOAD PUSH2 0x634 SWAP2 SWAP1 PUSH2 0x2700 JUMP JUMPDEST PUSH1 0x40 MLOAD DUP1 SWAP2 SUB SWAP1 RETURN JUMPDEST PUSH1 0x0 DUP1 DUP3 PUSH1 0x40 MLOAD PUSH1 0x20 ADD PUSH2 0x651 SWAP2 SWAP1 PUSH2 0x2D58 JUMP JUMPDEST PUSH1 0x40 MLOAD PUSH1 0x20 DUP2 DUP4 SUB SUB DUP2 MSTORE SWAP1 PUSH1 0x40 MSTORE DUP1 MLOAD SWAP1 PUSH1 0x20 ADD KECCAK256 SWAP1 POP PUSH1 0x0 DUP1 DUP6 DUP2 MSTORE PUSH1 0x20 ADD SWAP1 DUP2 MSTORE PUSH1 0x20 ADD PUSH1 0x0 KECCAK256 PUSH1 0x7 ADD PUSH1 0x0 DUP3 DUP2 MSTORE PUSH1 0x20 ADD SWAP1 DUP2 MSTORE PUSH1 0x20 ADD PUSH1 0x0 KECCAK256 SLOAD SWAP2 POP POP SWAP3 SWAP2 POP POP JUMP JUMPDEST PUSH1 0x60 PUSH1 0x0 DUP1 PUSH1 0x0 DUP5 DUP2 MSTORE PUSH1 0x20 ADD SWAP1 DUP2 MSTORE PUSH1 0x20 ADD PUSH1 0x0 KECCAK256 SWAP1 POP DUP1 PUSH1 0x8 ADD DUP1 SLOAD DUP1 PUSH1 0x20 MUL PUSH1 0x20 ADD PUSH1 0x40 MLOAD SWAP1 DUP2 ADD PUSH1 0x40 MSTORE DUP1 SWAP3 SWAP2 SWAP1 DUP2 DUP2 MSTORE PUSH1 0x20 ADD PUSH1 0x0 SWAP1 JUMPDEST DUP3 DUP3 LT ISZERO PUSH2 0x803 JUMPI DUP4 DUP3 SWAP1 PUSH1 0x0 MSTORE PUSH1 0x20 PUSH1 0x0 KECCAK256 SWAP1 PUSH1 0x4 MUL ADD PUSH1 0x40 MLOAD DUP1 PUSH1 0x80 ADD PUSH1 0x40 MSTORE SWAP1 DUP2 PUSH1 0x0 DUP3 ADD PUSH1 0x0 SWAP1 SLOAD SWAP1 PUSH2 0x100 EXP SWAP1 DIV PUSH20 0xFFFFFFFFFFFFFFFFFFFFFFFFFFFFFFFFFFFFFFFF AND PUSH20 0xFFFFFFFFFFFFFFFFFFFFFFFFFFFFFFFFFFFFFFFF AND PUSH20 0xFFFFFFFFFFFFFFFFFFFFFFFFFFFFFFFFFFFFFFFF AND DUP2 MSTORE PUSH1 0x20 ADD PUSH1 0x1 DUP3 ADD SLOAD DUP2 MSTORE PUSH1 0x20 ADD PUSH1 0x2 DUP3 ADD DUP1 SLOAD PUSH2 0x768 SWAP1 PUSH2 0x2D9E JUMP JUMPDEST DUP1 PUSH1 0x1F ADD PUSH1 0x20 DUP1 SWAP2 DIV MUL PUSH1 0x20 ADD PUSH1 0x40 MLOAD SWAP1 DUP2 ADD PUSH1 0x40 MSTORE DUP1 SWAP3 SWAP2 SWAP1 DUP2 DUP2 MSTORE PUSH1 0x20 ADD DUP3 DUP1 SLOAD PUSH2 0x794 SWAP1 PUSH2 0x2D9E JUMP JUMPDEST DUP1 ISZERO PUSH2 0x7E1 JUMPI DUP1 PUSH1 0x1F LT PUSH2 0x7B6 JUMPI PUSH2 0x100 DUP1 DUP4 SLOAD DIV MUL DUP4 MSTORE SWAP2 PUSH1 0x20 ADD SWAP2 PUSH2 0x7E1 JUMP JUMPDEST DUP3 ADD SWAP2 SWAP1 PUSH1 0x0 MSTORE PUSH1 0x20 PUSH1 0x0 KECCAK256 SWAP1 JUMPDEST DUP2 SLOAD DUP2 MSTORE SWAP1 PUSH1 0x1 ADD SWAP1 PUSH1 0x20 ADD DUP1 DUP4 GT PUSH2 0x7C4 JUMPI DUP3 SWAP1 SUB PUSH1 0x1F AND DUP3 ADD SWAP2 JUMPDEST POP POP POP POP POP DUP2 MSTORE PUSH1 0x20 ADD PUSH1 0x3 DUP3 ADD SLOAD DUP2 MSTORE POP POP DUP2 MSTORE PUSH1 0x20 ADD SWAP1 PUSH1 0x1 ADD SWAP1 PUSH2 0x6D5 JUMP JUMPDEST POP POP POP POP SWAP2 POP POP SWAP2 SWAP1 POP JUMP JUMPDEST PUSH3 0x2A300 DUP2 JUMP JUMPDEST PUSH2 0x81E PUSH2 0x1BF7 JUMP JUMPDEST PUSH2 0x826 PUSH2 0x13BA JUMP JUMPDEST ISZERO PUSH2 0x838 JUMPI PUSH2 0x833 PUSH2 0x1C7E JUMP JUMPDEST PUSH2 0x841 JUMP JUMPDEST PUSH2 0x840 PUSH2 0x1CF0 JUMP JUMPDEST JUMPDEST JUMP JUMPDEST PUSH2 0x84B PUSH2 0x1BF7 JUMP JUMPDEST PUSH1 0x0 PUSH20 0xFFFFFFFFFFFFFFFFFFFFFFFFFFFFFFFFFFFFFFFF AND DUP2 PUSH20 0xFFFFFFFFFFFFFFFFFFFFFFFFFFFFFFFFFFFFFFFF AND SUB PUSH2 0x8B1 JUMPI PUSH1 0x40 MLOAD PUSH32 0x5521068100000000000000000000000000000000000000000000000000000000 DUP2 MSTORE PUSH1 0x4 ADD PUSH1 0x40 MLOAD DUP1 SWAP2 SUB SWAP1 REVERT JUMPDEST DUP1 PUSH1 0x2 PUSH1 0x0 PUSH2 0x100 EXP DUP2 SLOAD DUP2 PUSH20 0xFFFFFFFFFFFFFFFFFFFFFFFFFFFFFFFFFFFFFFFF MUL NOT AND SWAP1 DUP4 PUSH20 0xFFFFFFFFFFFFFFFFFFFFFFFFFFFFFFFFFFFFFFFF AND MUL OR SWAP1 SSTORE POP PUSH32 0x3DF77BEB5DB05FCDD70A30FC8ADF3F83F9501B68579455ADBD100B8180940394 DUP2 PUSH1 0x40 MLOAD PUSH2 0x921 SWAP2 SWAP1 PUSH2 0x2D01 JUMP JUMPDEST PUSH1 0x40 MLOAD DUP1 SWAP2 SUB SWAP1 LOG1 POP JUMP JUMPDEST PUSH2 0x934 PUSH2 0x1D62 JUMP JUMPDEST PUSH2 0x93C PUSH2 0x1DA3 JUMP JUMPDEST PUSH1 0x0 DUP1 PUSH1 0x0 DUP5 DUP2 MSTORE PUSH1 0x20 ADD SWAP1 DUP2 MSTORE PUSH1 0x20 ADD PUSH1 0x0 KECCAK256 SWAP1 POP PUSH1 0x0 DUP1 SHL DUP2 PUSH1 0x0 ADD SLOAD SUB PUSH2 0x992 JUMPI PUSH1 0x40 MLOAD PUSH32 0x3D3CEF6A00000000000000000000000000000000000000000000000000000000 DUP2 MSTORE PUSH1 0x4 ADD PUSH1 0x40 MLOAD DUP1 SWAP2 SUB SWAP1 REVERT JUMPDEST DUP1 PUSH1 0x2 ADD PUSH1 0x0 SWAP1 SLOAD SWAP1 PUSH2 0x100 EXP SWAP1 DIV PUSH1 0xFF AND DUP1 PUSH2 0x9B4 JUMPI POP PUSH2 0x9B3 DUP4 PUSH2 0x1437 JUMP JUMPDEST JUMPDEST ISZERO PUSH2 0x9EB JUMPI PUSH1 0x40 MLOAD PUSH32 0x61C54C4A00000000000000000000000000000000000000000000000000000000 DUP2 MSTORE PUSH1 0x4 ADD PUSH1 0x40 MLOAD DUP1 SWAP2 SUB SWAP1 REVERT JUMPDEST PUSH1 0x0 DUP3 PUSH1 0x40 MLOAD PUSH1 0x20 ADD PUSH2 0x9FE SWAP2 SWAP1 PUSH2 0x2D58 JUMP JUMPDEST PUSH1 0x40 MLOAD PUSH1 0x20 DUP2 DUP4 SUB SUB DUP2 MSTORE SWAP1 PUSH1 0x40 MSTORE DUP1 MLOAD SWAP1 PUSH1 0x20 ADD KECCAK256 SWAP1 POP PUSH1 0x0 DUP3 PUSH1 0x7 ADD PUSH1 0x0 DUP4 DUP2 MSTORE PUSH1 0x20 ADD SWAP1 DUP2 MSTORE PUSH1 0x20 ADD PUSH1 0x0 KECCAK256 SLOAD SWAP1 POP PUSH1 0x0 DUP2 SUB PUSH2 0xA6A JUMPI PUSH1 0x40 MLOAD PUSH32 0x59BDD61600000000000000000000000000000000000000000000000000000000 DUP2 MSTORE PUSH1 0x4 ADD PUSH1 0x40 MLOAD DUP1 SWAP2 SUB SWAP1 REVERT JUMPDEST CALLVALUE DUP4 PUSH1 0x3 ADD PUSH1 0x0 DUP3 DUP3 SLOAD PUSH2 0xA7E SWAP2 SWAP1 PUSH2 0x2DFE JUMP JUMPDEST SWAP3 POP POP DUP2 SWAP1 SSTORE POP CALLVALUE DUP4 PUSH1 0x5 ADD PUSH1 0x0 DUP5 DUP2 MSTORE PUSH1 0x20 ADD SWAP1 DUP2 MSTORE PUSH1 0x20 ADD PUSH1 0x0 KECCAK256 PUSH1 0x0 DUP3 DUP3 SLOAD PUSH2 0xAAA SWAP2 SWAP1 PUSH2 0x2DFE JUMP JUMPDEST SWAP3 POP POP DUP2 SWAP1 SSTORE POP DUP3 PUSH1 0x8 ADD PUSH1 0x40 MLOAD DUP1 PUSH1 0x80 ADD PUSH1 0x40 MSTORE DUP1 CALLER PUSH20 0xFFFFFFFFFFFFFFFFFFFFFFFFFFFFFFFFFFFFFFFF AND DUP2 MSTORE PUSH1 0x20 ADD CALLVALUE DUP2 MSTORE PUSH1 0x20 ADD DUP7 DUP2 MSTORE PUSH1 0x20 ADD DUP4 DUP2 MSTORE POP SWAP1 DUP1 PUSH1 0x1 DUP2 SLOAD ADD DUP1 DUP3 SSTORE DUP1 SWAP2 POP POP PUSH1 0x1 SWAP1 SUB SWAP1 PUSH1 0x0 MSTORE PUSH1 0x20 PUSH1 0x0 KECCAK256 SWAP1 PUSH1 0x4 MUL ADD PUSH1 0x0 SWAP1 SWAP2 SWAP1 SWAP2 SWAP1 SWAP2 POP PUSH1 0x0 DUP3 ADD MLOAD DUP2 PUSH1 0x0 ADD PUSH1 0x0 PUSH2 0x100 EXP DUP2 SLOAD DUP2 PUSH20 0xFFFFFFFFFFFFFFFFFFFFFFFFFFFFFFFFFFFFFFFF MUL NOT AND SWAP1 DUP4 PUSH20 0xFFFFFFFFFFFFFFFFFFFFFFFFFFFFFFFFFFFFFFFF AND MUL OR SWAP1 SSTORE POP PUSH1 0x20 DUP3 ADD MLOAD DUP2 PUSH1 0x1 ADD SSTORE PUSH1 0x40 DUP3 ADD MLOAD DUP2 PUSH1 0x2 ADD SWAP1 DUP2 PUSH2 0xB7B SWAP2 SWAP1 PUSH2 0x2FD4 JUMP JUMPDEST POP PUSH1 0x60 DUP3 ADD MLOAD DUP2 PUSH1 0x3 ADD SSTORE POP POP DUP5 CALLER PUSH20 0xFFFFFFFFFFFFFFFFFFFFFFFFFFFFFFFFFFFFFFFF AND PUSH32 0x48FC46CBCCDD1929E80DD1CFD9CD0E841CF8A54F6DDE1807225608686A8E6F75 DUP7 CALLVALUE PUSH1 0x40 MLOAD PUSH2 0xBD1 SWAP3 SWAP2 SWAP1 PUSH2 0x30A6 JUMP JUMPDEST PUSH1 0x40 MLOAD DUP1 SWAP2 SUB SWAP1 LOG3 POP POP POP PUSH2 0xBE4 PUSH2 0x1DFA JUMP JUMPDEST POP POP JUMP JUMPDEST PUSH2 0xBF0 PUSH2 0x1BF7 JUMP JUMPDEST PUSH32 0x5445535400000000000000000000000000000000000000000000000000000000 PUSH32 0x73829305E9F70B89111CF588E6D67F7360300700B6ECAED7130C8021D454B491 PUSH1 0x40 MLOAD PUSH1 0x40 MLOAD DUP1 SWAP2 SUB SWAP1 LOG2 JUMP JUMPDEST PUSH2 0xC47 PUSH2 0x1D62 JUMP JUMPDEST PUSH2 0xC4F PUSH2 0x1DA3 JUMP JUMPDEST PUSH1 0x2 PUSH1 0x0 SWAP1 SLOAD SWAP1 PUSH2 0x100 EXP SWAP1 DIV PUSH20 0xFFFFFFFFFFFFFFFFFFFFFFFFFFFFFFFFFFFFFFFF AND PUSH20 0xFFFFFFFFFFFFFFFFFFFFFFFFFFFFFFFFFFFFFFFF AND CALLER PUSH20 0xFFFFFFFFFFFFFFFFFFFFFFFFFFFFFFFFFFFFFFFF AND EQ PUSH2 0xCD6 JUMPI PUSH1 0x40 MLOAD PUSH32 0xD342CBFF00000000000000000000000000000000000000000000000000000000 DUP2 MSTORE PUSH1 0x4 ADD PUSH1 0x40 MLOAD DUP1 SWAP2 SUB SWAP1 REVERT JUMPDEST PUSH1 0x0 DUP1 PUSH1 0x0 DUP5 DUP2 MSTORE PUSH1 0x20 ADD SWAP1 DUP2 MSTORE PUSH1 0x20 ADD PUSH1 0x0 KECCAK256 SWAP1 POP PUSH1 0x0 DUP1 SHL DUP2 PUSH1 0x0 ADD SLOAD SUB PUSH2 0xD2C JUMPI PUSH1 0x40 MLOAD PUSH32 0x3D3CEF6A00000000000000000000000000000000000000000000000000000000 DUP2 MSTORE PUSH1 0x4 ADD PUSH1 0x40 MLOAD DUP1 SWAP2 SUB SWAP1 REVERT JUMPDEST DUP1 PUSH1 0x2 ADD PUSH1 0x0 SWAP1 SLOAD SWAP1 PUSH2 0x100 EXP SWAP1 DIV PUSH1 0xFF AND ISZERO PUSH2 0xD75 JUMPI PUSH1 0x40 MLOAD PUSH32 0x61C54C4A00000000000000000000000000000000000000000000000000000000 DUP2 MSTORE PUSH1 0x4 ADD PUSH1 0x40 MLOAD DUP1 SWAP2 SUB SWAP1 REVERT JUMPDEST DUP2 DUP2 PUSH1 0x1 ADD SWAP1 DUP2 PUSH2 0xD86 SWAP2 SWAP1 PUSH2 0x2FD4 JUMP JUMPDEST POP PUSH1 0x1 DUP2 PUSH1 0x2 ADD PUSH1 0x0 PUSH2 0x100 EXP DUP2 SLOAD DUP2 PUSH1 0xFF MUL NOT AND SWAP1 DUP4 ISZERO ISZERO MUL OR SWAP1 SSTORE POP PUSH1 0x0 DUP3 PUSH1 0x40 MLOAD PUSH1 0x20 ADD PUSH2 0xDB7 SWAP2 SWAP1 PUSH2 0x2D58 JUMP JUMPDEST PUSH1 0x40 MLOAD PUSH1 0x20 DUP2 DUP4 SUB SUB DUP2 MSTORE SWAP1 PUSH1 0x40 MSTORE DUP1 MLOAD SWAP1 PUSH1 0x20 ADD KECCAK256 SWAP1 POP PUSH1 0x0 JUMPDEST DUP3 PUSH1 0x8 ADD DUP1 SLOAD SWAP1 POP DUP2 LT ISZERO PUSH2 0xED8 JUMPI PUSH1 0x0 DUP4 PUSH1 0x8 ADD DUP3 DUP2 SLOAD DUP2 LT PUSH2 0xDF9 JUMPI PUSH2 0xDF8 PUSH2 0x30D6 JUMP JUMPDEST JUMPDEST SWAP1 PUSH1 0x0 MSTORE PUSH1 0x20 PUSH1 0x0 KECCAK256 SWAP1 PUSH1 0x4 MUL ADD SWAP1 POP DUP3 DUP2 PUSH1 0x2 ADD PUSH1 0x40 MLOAD PUSH1 0x20 ADD PUSH2 0xE1E SWAP2 SWAP1 PUSH2 0x3188 JUMP JUMPDEST PUSH1 0x40 MLOAD PUSH1 0x20 DUP2 DUP4 SUB SUB DUP2 MSTORE SWAP1 PUSH1 0x40 MSTORE DUP1 MLOAD SWAP1 PUSH1 0x20 ADD KECCAK256 SUB PUSH2 0xECA JUMPI PUSH1 0x0 PUSH1 0x64 DUP3 PUSH1 0x3 ADD SLOAD DUP4 PUSH1 0x1 ADD SLOAD PUSH2 0xE51 SWAP2 SWAP1 PUSH2 0x319F JUMP JUMPDEST PUSH2 0xE5B SWAP2 SWAP1 PUSH2 0x3210 JUMP JUMPDEST SWAP1 POP DUP2 PUSH1 0x0 ADD PUSH1 0x0 SWAP1 SLOAD SWAP1 PUSH2 0x100 EXP SWAP1 DIV PUSH20 0xFFFFFFFFFFFFFFFFFFFFFFFFFFFFFFFFFFFFFFFF AND PUSH20 0xFFFFFFFFFFFFFFFFFFFFFFFFFFFFFFFFFFFFFFFF AND PUSH2 0x8FC DUP3 SWAP1 DUP2 ISZERO MUL SWAP1 PUSH1 0x40 MLOAD PUSH1 0x0 PUSH1 0x40 MLOAD DUP1 DUP4 SUB DUP2 DUP6 DUP9 DUP9 CALL SWAP4 POP POP POP POP ISZERO DUP1 ISZERO PUSH2 0xEC7 JUMPI RETURNDATASIZE PUSH1 0x0 DUP1 RETURNDATACOPY RETURNDATASIZE PUSH1 0x0 REVERT JUMPDEST POP POP JUMPDEST POP DUP1 DUP1 PUSH1 0x1 ADD SWAP2 POP POP PUSH2 0xDD2 JUMP JUMPDEST POP DUP4 PUSH32 0x5B38D8D0276A7822A40028770C59E835FF41A84CF7EF75D0CA61374DD2114B2 DUP5 PUSH1 0x40 MLOAD PUSH2 0xF09 SWAP2 SWAP1 PUSH2 0x3241 JUMP JUMPDEST PUSH1 0x40 MLOAD DUP1 SWAP2 SUB SWAP1 LOG2 DUP4 PUSH32 0x7FA0AF01D1013CD4A40114E18D6BE90C73E0906187E6BD1F851ACC747E364753 PUSH1 0x40 MLOAD PUSH1 0x40 MLOAD DUP1 SWAP2 SUB SWAP1 LOG2 POP POP PUSH2 0xF48 PUSH2 0x1DFA JUMP JUMPDEST POP POP JUMP JUMPDEST PUSH1 0x0 PUSH2 0xF56 PUSH2 0x1E13 JUMP JUMPDEST SWAP1 POP PUSH1 0x0 DUP2 PUSH1 0x0 ADD PUSH1 0x8 SWAP1 SLOAD SWAP1 PUSH2 0x100 EXP SWAP1 DIV PUSH1 0xFF AND ISZERO SWAP1 POP PUSH1 0x0 DUP3 PUSH1 0x0 ADD PUSH1 0x0 SWAP1 SLOAD SWAP1 PUSH2 0x100 EXP SWAP1 DIV PUSH8 0xFFFFFFFFFFFFFFFF AND SWAP1 POP PUSH1 0x0 DUP1 DUP3 PUSH8 0xFFFFFFFFFFFFFFFF AND EQ DUP1 ISZERO PUSH2 0xFA4 JUMPI POP DUP3 JUMPDEST SWAP1 POP PUSH1 0x0 PUSH1 0x1 DUP4 PUSH8 0xFFFFFFFFFFFFFFFF AND EQ DUP1 ISZERO PUSH2 0xFD9 JUMPI POP PUSH1 0x0 ADDRESS PUSH20 0xFFFFFFFFFFFFFFFFFFFFFFFFFFFFFFFFFFFFFFFF AND EXTCODESIZE EQ JUMPDEST SWAP1 POP DUP2 ISZERO DUP1 ISZERO PUSH2 0xFE7 JUMPI POP DUP1 ISZERO JUMPDEST ISZERO PUSH2 0x101E JUMPI PUSH1 0x40 MLOAD PUSH32 0xF92EE8A900000000000000000000000000000000000000000000000000000000 DUP2 MSTORE PUSH1 0x4 ADD PUSH1 0x40 MLOAD DUP1 SWAP2 SUB SWAP1 REVERT JUMPDEST PUSH1 0x1 DUP6 PUSH1 0x0 ADD PUSH1 0x0 PUSH2 0x100 EXP DUP2 SLOAD DUP2 PUSH8 0xFFFFFFFFFFFFFFFF MUL NOT AND SWAP1 DUP4 PUSH8 0xFFFFFFFFFFFFFFFF AND MUL OR SWAP1 SSTORE POP DUP4 ISZERO PUSH2 0x106E JUMPI PUSH1 0x1 DUP6 PUSH1 0x0 ADD PUSH1 0x8 PUSH2 0x100 EXP DUP2 SLOAD DUP2 PUSH1 0xFF MUL NOT AND SWAP1 DUP4 ISZERO ISZERO MUL OR SWAP1 SSTORE POP JUMPDEST PUSH2 0x1077 DUP8 PUSH2 0x1E3B JUMP JUMPDEST PUSH2 0x107F PUSH2 0x1E4F JUMP JUMPDEST PUSH2 0x1087 PUSH2 0x1E61 JUMP JUMPDEST DUP6 PUSH1 0x2 PUSH1 0x0 PUSH2 0x100 EXP DUP2 SLOAD DUP2 PUSH20 0xFFFFFFFFFFFFFFFFFFFFFFFFFFFFFFFFFFFFFFFF MUL NOT AND SWAP1 DUP4 PUSH20 0xFFFFFFFFFFFFFFFFFFFFFFFFFFFFFFFFFFFFFFFF AND MUL OR SWAP1 SSTORE POP PUSH1 0x0 PUSH1 0x40 MLOAD DUP1 PUSH2 0x120 ADD PUSH1 0x40 MSTORE DUP1 PUSH32 0x5757000000000000000000000000000000000000000000000000000000000000 DUP2 MSTORE PUSH1 0x20 ADD PUSH32 0x4252000000000000000000000000000000000000000000000000000000000000 DUP2 MSTORE PUSH1 0x20 ADD PUSH32 0x4445000000000000000000000000000000000000000000000000000000000000 DUP2 MSTORE PUSH1 0x20 ADD PUSH32 0x4553000000000000000000000000000000000000000000000000000000000000 DUP2 MSTORE PUSH1 0x20 ADD PUSH32 0x4652000000000000000000000000000000000000000000000000000000000000 DUP2 MSTORE PUSH1 0x20 ADD PUSH32 0x4954000000000000000000000000000000000000000000000000000000000000 DUP2 MSTORE PUSH1 0x20 ADD PUSH32 0x5054000000000000000000000000000000000000000000000000000000000000 DUP2 MSTORE PUSH1 0x20 ADD PUSH32 0x5553000000000000000000000000000000000000000000000000000000000000 DUP2 MSTORE PUSH1 0x20 ADD PUSH32 0x5445535400000000000000000000000000000000000000000000000000000000 DUP2 MSTORE POP SWAP1 POP PUSH1 0x0 JUMPDEST PUSH1 0x9 DUP2 LT ISZERO PUSH2 0x1288 JUMPI PUSH1 0x1 PUSH1 0x3 PUSH1 0x0 DUP5 DUP5 PUSH1 0x9 DUP2 LT PUSH2 0x1251 JUMPI PUSH2 0x1250 PUSH2 0x30D6 JUMP JUMPDEST JUMPDEST PUSH1 0x20 MUL ADD MLOAD DUP2 MSTORE PUSH1 0x20 ADD SWAP1 DUP2 MSTORE PUSH1 0x20 ADD PUSH1 0x0 KECCAK256 PUSH1 0x0 PUSH2 0x100 EXP DUP2 SLOAD DUP2 PUSH1 0xFF MUL NOT AND SWAP1 DUP4 ISZERO ISZERO MUL OR SWAP1 SSTORE POP DUP1 DUP1 PUSH1 0x1 ADD SWAP2 POP POP PUSH2 0x122F JUMP JUMPDEST POP POP DUP4 ISZERO PUSH2 0x12E6 JUMPI PUSH1 0x0 DUP6 PUSH1 0x0 ADD PUSH1 0x8 PUSH2 0x100 EXP DUP2 SLOAD DUP2 PUSH1 0xFF MUL NOT AND SWAP1 DUP4 ISZERO ISZERO MUL OR SWAP1 SSTORE POP PUSH32 0xC7F505B2F371AE2175EE4913F4499E1F2633A7B5936321EED1CDAEB6115181D2 PUSH1 0x1 PUSH1 0x40 MLOAD PUSH2 0x12DD SWAP2 SWAP1 PUSH2 0x32B2 JUMP JUMPDEST PUSH1 0x40 MLOAD DUP1 SWAP2 SUB SWAP1 LOG1 JUMPDEST POP POP POP POP POP POP POP JUMP JUMPDEST PUSH1 0x0 PUSH1 0x20 MSTORE DUP1 PUSH1 0x0 MSTORE PUSH1 0x40 PUSH1 0x0 KECCAK256 PUSH1 0x0 SWAP2 POP SWAP1 POP DUP1 PUSH1 0x0 ADD SLOAD SWAP1 DUP1 PUSH1 0x1 ADD DUP1 SLOAD PUSH2 0x1318 SWAP1 PUSH2 0x2D9E JUMP JUMPDEST DUP1 PUSH1 0x1F ADD PUSH1 0x20 DUP1 SWAP2 DIV MUL PUSH1 0x20 ADD PUSH1 0x40 MLOAD SWAP1 DUP2 ADD PUSH1 0x40 MSTORE DUP1 SWAP3 SWAP2 SWAP1 DUP2 DUP2 MSTORE PUSH1 0x20 ADD DUP3 DUP1 SLOAD PUSH2 0x1344 SWAP1 PUSH2 0x2D9E JUMP JUMPDEST DUP1 ISZERO PUSH2 0x1391 JUMPI DUP1 PUSH1 0x1F LT PUSH2 0x1366 JUMPI PUSH2 0x100 DUP1 DUP4 SLOAD DIV MUL DUP4 MSTORE SWAP2 PUSH1 0x20 ADD SWAP2 PUSH2 0x1391 JUMP JUMPDEST DUP3 ADD SWAP2 SWAP1 PUSH1 0x0 MSTORE PUSH1 0x20 PUSH1 0x0 KECCAK256 SWAP1 JUMPDEST DUP2 SLOAD DUP2 MSTORE SWAP1 PUSH1 0x1 ADD SWAP1 PUSH1 0x20 ADD DUP1 DUP4 GT PUSH2 0x1374 JUMPI DUP3 SWAP1 SUB PUSH1 0x1F AND DUP3 ADD SWAP2 JUMPDEST POP POP POP POP POP SWAP1 DUP1 PUSH1 0x2 ADD PUSH1 0x0 SWAP1 SLOAD SWAP1 PUSH2 0x100 EXP SWAP1 DIV PUSH1 0xFF AND SWAP1 DUP1 PUSH1 0x3 ADD SLOAD SWAP1 DUP1 PUSH1 0x4 ADD SLOAD SWAP1 POP DUP6 JUMP JUMPDEST PUSH1 0x0 DUP1 PUSH2 0x13C5 PUSH2 0x1E73 JUMP JUMPDEST SWAP1 POP DUP1 PUSH1 0x0 ADD PUSH1 0x0 SWAP1 SLOAD SWAP1 PUSH2 0x100 EXP SWAP1 DIV PUSH1 0xFF AND SWAP2 POP POP SWAP1 JUMP JUMPDEST PUSH1 0x3 PUSH1 0x20 MSTORE DUP1 PUSH1 0x0 MSTORE PUSH1 0x40 PUSH1 0x0 KECCAK256 PUSH1 0x0 SWAP2 POP SLOAD SWAP1 PUSH2 0x100 EXP SWAP1 DIV PUSH1 0xFF AND DUP2 JUMP JUMPDEST PUSH1 0x1 DUP2 DUP2 SLOAD DUP2 LT PUSH2 0x140F JUMPI PUSH1 0x0 DUP1 REVERT JUMPDEST SWAP1 PUSH1 0x0 MSTORE PUSH1 0x20 PUSH1 0x0 KECCAK256 ADD PUSH1 0x0 SWAP2 POP SWAP1 POP SLOAD DUP2 JUMP JUMPDEST PUSH2 0x142B PUSH2 0x1BF7 JUMP JUMPDEST PUSH2 0x1435 PUSH1 0x0 PUSH2 0x1E9B JUMP JUMPDEST JUMP JUMPDEST PUSH1 0x0 DUP1 PUSH1 0x0 DUP1 DUP5 DUP2 MSTORE PUSH1 0x20 ADD SWAP1 DUP2 MSTORE PUSH1 0x20 ADD PUSH1 0x0 KECCAK256 SWAP1 POP PUSH3 0x93A80 DUP2 PUSH1 0x4 ADD SLOAD PUSH2 0x1461 SWAP2 SWAP1 PUSH2 0x2DFE JUMP JUMPDEST TIMESTAMP LT ISZERO SWAP2 POP POP SWAP2 SWAP1 POP JUMP JUMPDEST PUSH2 0x1474 PUSH2 0x1BF7 JUMP JUMPDEST PUSH1 0x0 DUP1 PUSH1 0x0 DUP4 DUP2 MSTORE PUSH1 0x20 ADD SWAP1 DUP2 MSTORE PUSH1 0x20 ADD PUSH1 0x0 KECCAK256 SWAP1 POP PUSH1 0x0 DUP1 SHL DUP2 PUSH1 0x0 ADD SLOAD SUB PUSH2 0x14CA JUMPI PUSH1 0x40 MLOAD PUSH32 0x3D3CEF6A00000000000000000000000000000000000000000000000000000000 DUP2 MSTORE PUSH1 0x4 ADD PUSH1 0x40 MLOAD DUP1 SWAP2 SUB SWAP1 REVERT JUMPDEST DUP1 PUSH1 0x2 ADD PUSH1 0x0 SWAP1 SLOAD SWAP1 PUSH2 0x100 EXP SWAP1 DIV PUSH1 0xFF AND ISZERO PUSH2 0x1513 JUMPI PUSH1 0x40 MLOAD PUSH32 0x9AA0B8BD00000000000000000000000000000000000000000000000000000000 DUP2 MSTORE PUSH1 0x4 ADD PUSH1 0x40 MLOAD DUP1 SWAP2 SUB SWAP1 REVERT JUMPDEST PUSH1 0x1 DUP2 PUSH1 0x2 ADD PUSH1 0x0 PUSH2 0x100 EXP DUP2 SLOAD DUP2 PUSH1 0xFF MUL NOT AND SWAP1 DUP4 ISZERO ISZERO MUL OR SWAP1 SSTORE POP DUP2 PUSH32 0x7FA0AF01D1013CD4A40114E18D6BE90C73E0906187E6BD1F851ACC747E364753 PUSH1 0x40 MLOAD PUSH1 0x40 MLOAD DUP1 SWAP2 SUB SWAP1 LOG2 POP POP JUMP JUMPDEST PUSH1 0x2 PUSH1 0x0 SWAP1 SLOAD SWAP1 PUSH2 0x100 EXP SWAP1 DIV PUSH20 0xFFFFFFFFFFFFFFFFFFFFFFFFFFFFFFFFFFFFFFFF AND DUP2 JUMP JUMPDEST PUSH2 0x158F PUSH2 0x1D62 JUMP JUMPDEST PUSH1 0x2 PUSH1 0x0 SWAP1 SLOAD SWAP1 PUSH2 0x100 EXP SWAP1 DIV PUSH20 0xFFFFFFFFFFFFFFFFFFFFFFFFFFFFFFFFFFFFFFFF AND PUSH20 0xFFFFFFFFFFFFFFFFFFFFFFFFFFFFFFFFFFFFFFFF AND CALLER PUSH20 0xFFFFFFFFFFFFFFFFFFFFFFFFFFFFFFFFFFFFFFFF AND EQ PUSH2 0x1616 JUMPI PUSH1 0x40 MLOAD PUSH32 0xD342CBFF00000000000000000000000000000000000000000000000000000000 DUP2 MSTORE PUSH1 0x4 ADD PUSH1 0x40 MLOAD DUP1 SWAP2 SUB SWAP1 REVERT JUMPDEST PUSH1 0x3 PUSH1 0x0 DUP4 DUP2 MSTORE PUSH1 0x20 ADD SWAP1 DUP2 MSTORE PUSH1 0x20 ADD PUSH1 0x0 KECCAK256 PUSH1 0x0 SWAP1 SLOAD SWAP1 PUSH2 0x100 EXP SWAP1 DIV PUSH1 0xFF AND PUSH2 0x166D JUMPI PUSH1 0x40 MLOAD PUSH32 0x139D566400000000000000000000000000000000000000000000000000000000 DUP2 MSTORE PUSH1 0x4 ADD PUSH1 0x40 MLOAD DUP1 SWAP2 SUB SWAP1 REVERT JUMPDEST PUSH1 0x0 DUP1 PUSH1 0x0 DUP5 DUP2 MSTORE PUSH1 0x20 ADD SWAP1 DUP2 MSTORE PUSH1 0x20 ADD PUSH1 0x0 KECCAK256 SWAP1 POP PUSH1 0x0 DUP1 SHL DUP2 PUSH1 0x0 ADD SLOAD SUB PUSH2 0x16C3 JUMPI PUSH1 0x40 MLOAD PUSH32 0x3D3CEF6A00000000000000000000000000000000000000000000000000000000 DUP2 MSTORE PUSH1 0x4 ADD PUSH1 0x40 MLOAD DUP1 SWAP2 SUB SWAP1 REVERT JUMPDEST DUP1 PUSH1 0x2 ADD PUSH1 0x0 SWAP1 SLOAD SWAP1 PUSH2 0x100 EXP SWAP1 DIV PUSH1 0xFF AND ISZERO PUSH2 0x170C JUMPI PUSH1 0x40 MLOAD PUSH32 0x9AA0B8BD00000000000000000000000000000000000000000000000000000000 DUP2 MSTORE PUSH1 0x4 ADD PUSH1 0x40 MLOAD DUP1 SWAP2 SUB SWAP1 REVERT JUMPDEST PUSH2 0x1716 DUP4 DUP4 PUSH2 0x1F72 JUMP JUMPDEST DUP3 PUSH32 0x577B6860EC2AF75814BD1D732A479F5787676F4012AFBC91228827A4B7F2E5A4 PUSH1 0x40 MLOAD PUSH1 0x40 MLOAD DUP1 SWAP2 SUB SWAP1 LOG2 POP POP POP JUMP JUMPDEST PUSH1 0x0 DUP1 PUSH2 0x1753 PUSH2 0x21E7 JUMP JUMPDEST SWAP1 POP DUP1 PUSH1 0x0 ADD PUSH1 0x0 SWAP1 SLOAD SWAP1 PUSH2 0x100 EXP SWAP1 DIV PUSH20 0xFFFFFFFFFFFFFFFFFFFFFFFFFFFFFFFFFFFFFFFF AND SWAP2 POP POP SWAP1 JUMP JUMPDEST PUSH1 0x0 DUP1 PUSH1 0x0 DUP4 DUP2 MSTORE PUSH1 0x20 ADD SWAP1 DUP2 MSTORE PUSH1 0x20 ADD PUSH1 0x0 KECCAK256 PUSH1 0x3 ADD SLOAD SWAP1 POP SWAP2 SWAP1 POP JUMP JUMPDEST PUSH2 0x17A7 PUSH2 0x1BF7 JUMP JUMPDEST PUSH2 0x17AF PUSH2 0x1D62 JUMP JUMPDEST PUSH1 0x3 PUSH1 0x0 DUP3 DUP2 MSTORE PUSH1 0x20 ADD SWAP1 DUP2 MSTORE PUSH1 0x20 ADD PUSH1 0x0 KECCAK256 PUSH1 0x0 SWAP1 SLOAD SWAP1 PUSH2 0x100 EXP SWAP1 DIV PUSH1 0xFF AND PUSH2 0x1806 JUMPI PUSH1 0x40 MLOAD PUSH32 0x139D566400000000000000000000000000000000000000000000000000000000 DUP2 MSTORE PUSH1 0x4 ADD PUSH1 0x40 MLOAD DUP1 SWAP2 SUB SWAP1 REVERT JUMPDEST PUSH1 0x0 DUP1 PUSH1 0x0 DUP4 DUP2 MSTORE PUSH1 0x20 ADD SWAP1 DUP2 MSTORE PUSH1 0x20 ADD PUSH1 0x0 KECCAK256 SWAP1 POP PUSH1 0x0 DUP1 SHL DUP2 PUSH1 0x0 ADD SLOAD EQ PUSH2 0x18F3 JUMPI DUP1 PUSH1 0x2 ADD PUSH1 0x0 SWAP1 SLOAD SWAP1 PUSH2 0x100 EXP SWAP1 DIV PUSH1 0xFF AND ISZERO DUP1 ISZERO PUSH2 0x185A JUMPI POP PUSH3 0x93A80 DUP2 PUSH1 0x4 ADD SLOAD PUSH2 0x1857 SWAP2 SWAP1 PUSH2 0x2DFE JUMP JUMPDEST TIMESTAMP LT JUMPDEST ISZERO PUSH2 0x1891 JUMPI PUSH1 0x40 MLOAD PUSH32 0xDBE95FF500000000000000000000000000000000000000000000000000000000 DUP2 MSTORE PUSH1 0x4 ADD PUSH1 0x40 MLOAD DUP1 SWAP2 SUB SWAP1 REVERT JUMPDEST PUSH1 0x0 DUP1 DUP4 DUP2 MSTORE PUSH1 0x20 ADD SWAP1 DUP2 MSTORE PUSH1 0x20 ADD PUSH1 0x0 KECCAK256 PUSH1 0x0 DUP1 DUP3 ADD PUSH1 0x0 SWAP1 SSTORE PUSH1 0x1 DUP3 ADD PUSH1 0x0 PUSH2 0x18BC SWAP2 SWAP1 PUSH2 0x241C JUMP JUMPDEST PUSH1 0x2 DUP3 ADD PUSH1 0x0 PUSH2 0x100 EXP DUP2 SLOAD SWAP1 PUSH1 0xFF MUL NOT AND SWAP1 SSTORE PUSH1 0x3 DUP3 ADD PUSH1 0x0 SWAP1 SSTORE PUSH1 0x4 DUP3 ADD PUSH1 0x0 SWAP1 SSTORE PUSH1 0x8 DUP3 ADD PUSH1 0x0 PUSH2 0x18F0 SWAP2 SWAP1 PUSH2 0x245C JUMP JUMPDEST POP POP JUMPDEST PUSH1 0x0 DUP1 PUSH1 0x0 DUP5 DUP2 MSTORE PUSH1 0x20 ADD SWAP1 DUP2 MSTORE PUSH1 0x20 ADD PUSH1 0x0 KECCAK256 SWAP1 POP DUP3 DUP2 PUSH1 0x0 ADD DUP2 SWAP1 SSTORE POP PUSH1 0x0 DUP2 PUSH1 0x2 ADD PUSH1 0x0 PUSH2 0x100 EXP DUP2 SLOAD DUP2 PUSH1 0xFF MUL NOT AND SWAP1 DUP4 ISZERO ISZERO MUL OR SWAP1 SSTORE POP TIMESTAMP DUP2 PUSH1 0x4 ADD DUP2 SWAP1 SSTORE POP PUSH1 0x0 DUP2 PUSH1 0x3 ADD DUP2 SWAP1 SSTORE POP PUSH1 0x1 DUP4 SWAP1 DUP1 PUSH1 0x1 DUP2 SLOAD ADD DUP1 DUP3 SSTORE DUP1 SWAP2 POP POP PUSH1 0x1 SWAP1 SUB SWAP1 PUSH1 0x0 MSTORE PUSH1 0x20 PUSH1 0x0 KECCAK256 ADD PUSH1 0x0 SWAP1 SWAP2 SWAP1 SWAP2 SWAP1 SWAP2 POP SSTORE DUP3 PUSH32 0x73829305E9F70B89111CF588E6D67F7360300700B6ECAED7130C8021D454B491 PUSH1 0x40 MLOAD PUSH1 0x40 MLOAD DUP1 SWAP2 SUB SWAP1 LOG2 POP POP POP JUMP JUMPDEST PUSH3 0x93A80 DUP2 JUMP JUMPDEST PUSH2 0x19AC PUSH2 0x1BF7 JUMP JUMPDEST TIMESTAMP PUSH1 0x4 DUP2 SWAP1 SSTORE POP PUSH32 0xAF619DAA033514F6C299197D29548CCD9276A1B55EF717FB80ADF495925DD510 PUSH1 0x4 SLOAD PUSH1 0x40 MLOAD PUSH2 0x19E4 SWAP2 SWAP1 PUSH2 0x2700 JUMP JUMPDEST PUSH1 0x40 MLOAD DUP1 SWAP2 SUB SWAP1 LOG1 JUMP JUMPDEST PUSH2 0x19F6 PUSH2 0x1BF7 JUMP JUMPDEST PUSH1 0x0 PUSH20 0xFFFFFFFFFFFFFFFFFFFFFFFFFFFFFFFFFFFFFFFF AND DUP2 PUSH20 0xFFFFFFFFFFFFFFFFFFFFFFFFFFFFFFFFFFFFFFFF AND SUB PUSH2 0x1A68 JUMPI PUSH1 0x0 PUSH1 0x40 MLOAD PUSH32 0x1E4FBDF700000000000000000000000000000000000000000000000000000000 DUP2 MSTORE PUSH1 0x4 ADD PUSH2 0x1A5F SWAP2 SWAP1 PUSH2 0x2D01 JUMP JUMPDEST PUSH1 0x40 MLOAD DUP1 SWAP2 SUB SWAP1 REVERT JUMPDEST PUSH2 0x1A71 DUP2 PUSH2 0x1E9B JUMP JUMPDEST POP JUMP JUMPDEST PUSH1 0x4 SLOAD DUP2 JUMP JUMPDEST PUSH2 0x1A82 PUSH2 0x1BF7 JUMP JUMPDEST PUSH3 0x2A300 PUSH1 0x4 SLOAD PUSH2 0x1A93 SWAP2 SWAP1 PUSH2 0x2DFE JUMP JUMPDEST TIMESTAMP LT ISZERO PUSH2 0x1ACC JUMPI PUSH1 0x40 MLOAD PUSH32 0xB95063C200000000000000000000000000000000000000000000000000000000 DUP2 MSTORE PUSH1 0x4 ADD PUSH1 0x40 MLOAD DUP1 SWAP2 SUB SWAP1 REVERT JUMPDEST PUSH1 0x0 SELFBALANCE SUB PUSH2 0x1B06 JUMPI PUSH1 0x40 MLOAD PUSH32 0x67E3990D00000000000000000000000000000000000000000000000000000000 DUP2 MSTORE PUSH1 0x4 ADD PUSH1 0x40 MLOAD DUP1 SWAP2 SUB SWAP1 REVERT JUMPDEST PUSH1 0x0 SELFBALANCE SWAP1 POP PUSH2 0x1B13 PUSH2 0x1748 JUMP JUMPDEST PUSH20 0xFFFFFFFFFFFFFFFFFFFFFFFFFFFFFFFFFFFFFFFF AND PUSH2 0x8FC DUP3 SWAP1 DUP2 ISZERO MUL SWAP1 PUSH1 0x40 MLOAD PUSH1 0x0 PUSH1 0x40 MLOAD DUP1 DUP4 SUB DUP2 DUP6 DUP9 DUP9 CALL SWAP4 POP POP POP POP ISZERO DUP1 ISZERO PUSH2 0x1B58 JUMPI RETURNDATASIZE PUSH1 0x0 DUP1 RETURNDATACOPY RETURNDATASIZE PUSH1 0x0 REVERT JUMPDEST POP PUSH1 0x0 PUSH1 0x4 DUP2 SWAP1 SSTORE POP PUSH32 0xEAA620B5C98328F5DDB4195C31EADB3E30E7915FCBC9CC1C244441984780C0D2 DUP2 PUSH1 0x40 MLOAD PUSH2 0x1B90 SWAP2 SWAP1 PUSH2 0x2700 JUMP JUMPDEST PUSH1 0x40 MLOAD DUP1 SWAP2 SUB SWAP1 LOG1 POP JUMP JUMPDEST PUSH1 0x0 DUP1 DUP3 PUSH1 0x40 MLOAD PUSH1 0x20 ADD PUSH2 0x1BAF SWAP2 SWAP1 PUSH2 0x2D58 JUMP JUMPDEST PUSH1 0x40 MLOAD PUSH1 0x20 DUP2 DUP4 SUB SUB DUP2 MSTORE SWAP1 PUSH1 0x40 MSTORE DUP1 MLOAD SWAP1 PUSH1 0x20 ADD KECCAK256 SWAP1 POP PUSH1 0x0 DUP1 DUP6 DUP2 MSTORE PUSH1 0x20 ADD SWAP1 DUP2 MSTORE PUSH1 0x20 ADD PUSH1 0x0 KECCAK256 PUSH1 0x5 ADD PUSH1 0x0 DUP3 DUP2 MSTORE PUSH1 0x20 ADD SWAP1 DUP2 MSTORE PUSH1 0x20 ADD PUSH1 0x0 KECCAK256 SLOAD SWAP2 POP POP SWAP3 SWAP2 POP POP JUMP JUMPDEST PUSH2 0x1BFF PUSH2 0x220F JUMP JUMPDEST PUSH20 0xFFFFFFFFFFFFFFFFFFFFFFFFFFFFFFFFFFFFFFFF AND PUSH2 0x1C1D PUSH2 0x1748 JUMP JUMPDEST PUSH20 0xFFFFFFFFFFFFFFFFFFFFFFFFFFFFFFFFFFFFFFFF AND EQ PUSH2 0x1C7C JUMPI PUSH2 0x1C40 PUSH2 0x220F JUMP JUMPDEST PUSH1 0x40 MLOAD PUSH32 0x118CDAA700000000000000000000000000000000000000000000000000000000 DUP2 MSTORE PUSH1 0x4 ADD PUSH2 0x1C73 SWAP2 SWAP1 PUSH2 0x2D01 JUMP JUMPDEST PUSH1 0x40 MLOAD DUP1 SWAP2 SUB SWAP1 REVERT JUMPDEST JUMP JUMPDEST PUSH2 0x1C86 PUSH2 0x2217 JUMP JUMPDEST PUSH1 0x0 PUSH2 0x1C90 PUSH2 0x1E73 JUMP JUMPDEST SWAP1 POP PUSH1 0x0 DUP2 PUSH1 0x0 ADD PUSH1 0x0 PUSH2 0x100 EXP DUP2 SLOAD DUP2 PUSH1 0xFF MUL NOT AND SWAP1 DUP4 ISZERO ISZERO MUL OR SWAP1 SSTORE POP PUSH32 0x5DB9EE0A495BF2E6FF9C91A7834C1BA4FDD244A5E8AA4E537BD38AEAE4B073AA PUSH2 0x1CD8 PUSH2 0x220F JUMP JUMPDEST PUSH1 0x40 MLOAD PUSH2 0x1CE5 SWAP2 SWAP1 PUSH2 0x2D01 JUMP JUMPDEST PUSH1 0x40 MLOAD DUP1 SWAP2 SUB SWAP1 LOG1 POP JUMP JUMPDEST PUSH2 0x1CF8 PUSH2 0x1D62 JUMP JUMPDEST PUSH1 0x0 PUSH2 0x1D02 PUSH2 0x1E73 JUMP JUMPDEST SWAP1 POP PUSH1 0x1 DUP2 PUSH1 0x0 ADD PUSH1 0x0 PUSH2 0x100 EXP DUP2 SLOAD DUP2 PUSH1 0xFF MUL NOT AND SWAP1 DUP4 ISZERO ISZERO MUL OR SWAP1 SSTORE POP PUSH32 0x62E78CEA01BEE320CD4E420270B5EA74000D11B0C9F74754EBDBFC544B05A258 PUSH2 0x1D4A PUSH2 0x220F JUMP JUMPDEST PUSH1 0x40 MLOAD PUSH2 0x1D57 SWAP2 SWAP1 PUSH2 0x2D01 JUMP JUMPDEST PUSH1 0x40 MLOAD DUP1 SWAP2 SUB SWAP1 LOG1 POP JUMP JUMPDEST PUSH2 0x1D6A PUSH2 0x13BA JUMP JUMPDEST ISZERO PUSH2 0x1DA1 JUMPI PUSH1 0x40 MLOAD PUSH32 0xD93C066500000000000000000000000000000000000000000000000000000000 DUP2 MSTORE PUSH1 0x4 ADD PUSH1 0x40 MLOAD DUP1 SWAP2 SUB SWAP1 REVERT JUMPDEST JUMP JUMPDEST PUSH1 0x0 PUSH2 0x1DAD PUSH2 0x2257 JUMP JUMPDEST SWAP1 POP PUSH1 0x2 DUP2 PUSH1 0x0 ADD SLOAD SUB PUSH2 0x1DED JUMPI PUSH1 0x40 MLOAD PUSH32 0x3EE5AEB500000000000000000000000000000000000000000000000000000000 DUP2 MSTORE PUSH1 0x4 ADD PUSH1 0x40 MLOAD DUP1 SWAP2 SUB SWAP1 REVERT JUMPDEST PUSH1 0x2 DUP2 PUSH1 0x0 ADD DUP2 SWAP1 SSTORE POP POP JUMP JUMPDEST PUSH1 0x0 PUSH2 0x1E04 PUSH2 0x2257 JUMP JUMPDEST SWAP1 POP PUSH1 0x1 DUP2 PUSH1 0x0 ADD DUP2 SWAP1 SSTORE POP POP JUMP JUMPDEST PUSH1 0x0 PUSH32 0xF0C57E16840DF040F15088DC2F81FE391C3923BEC73E23A9662EFC9C229C6A00 SWAP1 POP SWAP1 JUMP JUMPDEST PUSH2 0x1E43 PUSH2 0x227F JUMP JUMPDEST PUSH2 0x1E4C DUP2 PUSH2 0x22BF JUMP JUMPDEST POP JUMP JUMPDEST PUSH2 0x1E57 PUSH2 0x227F JUMP JUMPDEST PUSH2 0x1E5F PUSH2 0x2345 JUMP JUMPDEST JUMP JUMPDEST PUSH2 0x1E69 PUSH2 0x227F JUMP JUMPDEST PUSH2 0x1E71 PUSH2 0x2379 JUMP JUMPDEST JUMP JUMPDEST PUSH1 0x0 PUSH32 0xCD5ED15C6E187E77E9AEE88184C21F4F2182AB5827CB3B7E07FBEDCD63F03300 SWAP1 POP SWAP1 JUMP JUMPDEST PUSH1 0x0 PUSH2 0x1EA5 PUSH2 0x21E7 JUMP JUMPDEST SWAP1 POP PUSH1 0x0 DUP2 PUSH1 0x0 ADD PUSH1 0x0 SWAP1 SLOAD SWAP1 PUSH2 0x100 EXP SWAP1 DIV PUSH20 0xFFFFFFFFFFFFFFFFFFFFFFFFFFFFFFFFFFFFFFFF AND SWAP1 POP DUP3 DUP3 PUSH1 0x0 ADD PUSH1 0x0 PUSH2 0x100 EXP DUP2 SLOAD DUP2 PUSH20 0xFFFFFFFFFFFFFFFFFFFFFFFFFFFFFFFFFFFFFFFF MUL NOT AND SWAP1 DUP4 PUSH20 0xFFFFFFFFFFFFFFFFFFFFFFFFFFFFFFFFFFFFFFFF AND MUL OR SWAP1 SSTORE POP DUP3 PUSH20 0xFFFFFFFFFFFFFFFFFFFFFFFFFFFFFFFFFFFFFFFF AND DUP2 PUSH20 0xFFFFFFFFFFFFFFFFFFFFFFFFFFFFFFFFFFFFFFFF AND PUSH32 0x8BE0079C531659141344CD1FD0A4F28419497F9722A3DAAFE3B4186F6B6457E0 PUSH1 0x40 MLOAD PUSH1 0x40 MLOAD DUP1 SWAP2 SUB SWAP1 LOG3 POP POP POP JUMP JUMPDEST PUSH1 0x0 DUP1 PUSH1 0x0 DUP5 DUP2 MSTORE PUSH1 0x20 ADD SWAP1 DUP2 MSTORE PUSH1 0x20 ADD PUSH1 0x0 KECCAK256 SWAP1 POP PUSH1 0x0 DUP2 PUSH1 0x6 ADD SWAP1 POP PUSH1 0x0 JUMPDEST DUP4 MLOAD DUP2 LT ISZERO PUSH2 0x203D JUMPI PUSH1 0x0 DUP5 DUP3 DUP2 MLOAD DUP2 LT PUSH2 0x1FB1 JUMPI PUSH2 0x1FB0 PUSH2 0x30D6 JUMP JUMPDEST JUMPDEST PUSH1 0x20 MUL PUSH1 0x20 ADD ADD MLOAD PUSH1 0x40 MLOAD PUSH1 0x20 ADD PUSH2 0x1FC9 SWAP2 SWAP1 PUSH2 0x32EE JUMP JUMPDEST PUSH1 0x40 MLOAD PUSH1 0x20 DUP2 DUP4 SUB SUB DUP2 MSTORE SWAP1 PUSH1 0x40 MSTORE DUP1 MLOAD SWAP1 PUSH1 0x20 ADD KECCAK256 SWAP1 POP PUSH1 0x0 DUP5 PUSH1 0x6 ADD PUSH1 0x0 DUP4 DUP2 MSTORE PUSH1 0x20 ADD SWAP1 DUP2 MSTORE PUSH1 0x20 ADD PUSH1 0x0 KECCAK256 DUP2 SWAP1 SSTORE POP PUSH1 0x0 DUP5 PUSH1 0x7 ADD PUSH1 0x0 DUP4 DUP2 MSTORE PUSH1 0x20 ADD SWAP1 DUP2 MSTORE PUSH1 0x20 ADD PUSH1 0x0 KECCAK256 DUP2 SWAP1 SSTORE POP PUSH1 0x0 DUP4 PUSH1 0x0 DUP4 DUP2 MSTORE PUSH1 0x20 ADD SWAP1 DUP2 MSTORE PUSH1 0x20 ADD PUSH1 0x0 KECCAK256 DUP2 SWAP1 SSTORE POP POP DUP1 DUP1 PUSH1 0x1 ADD SWAP2 POP POP PUSH2 0x1F93 JUMP JUMPDEST POP PUSH1 0x0 JUMPDEST DUP4 MLOAD DUP2 LT ISZERO PUSH2 0x20C5 JUMPI PUSH1 0x0 DUP5 DUP3 DUP2 MLOAD DUP2 LT PUSH2 0x205F JUMPI PUSH2 0x205E PUSH2 0x30D6 JUMP JUMPDEST JUMPDEST PUSH1 0x20 MUL PUSH1 0x20 ADD ADD MLOAD PUSH1 0x40 MLOAD PUSH1 0x20 ADD PUSH2 0x2077 SWAP2 SWAP1 PUSH2 0x32EE JUMP JUMPDEST PUSH1 0x40 MLOAD PUSH1 0x20 DUP2 DUP4 SUB SUB DUP2 MSTORE SWAP1 PUSH1 0x40 MSTORE DUP1 MLOAD SWAP1 PUSH1 0x20 ADD KECCAK256 SWAP1 POP DUP3 PUSH1 0x0 DUP3 DUP2 MSTORE PUSH1 0x20 ADD SWAP1 DUP2 MSTORE PUSH1 0x20 ADD PUSH1 0x0 KECCAK256 PUSH1 0x0 DUP2 SLOAD DUP1 SWAP3 SWAP2 SWAP1 PUSH2 0x20B2 SWAP1 PUSH2 0x3309 JUMP JUMPDEST SWAP2 SWAP1 POP SSTORE POP POP DUP1 DUP1 PUSH1 0x1 ADD SWAP2 POP POP PUSH2 0x2041 JUMP JUMPDEST POP PUSH1 0x0 JUMPDEST DUP4 MLOAD DUP2 LT ISZERO PUSH2 0x21E0 JUMPI PUSH1 0x0 DUP5 DUP3 DUP2 MLOAD DUP2 LT PUSH2 0x20E7 JUMPI PUSH2 0x20E6 PUSH2 0x30D6 JUMP JUMPDEST JUMPDEST PUSH1 0x20 MUL PUSH1 0x20 ADD ADD MLOAD PUSH1 0x40 MLOAD PUSH1 0x20 ADD PUSH2 0x20FF SWAP2 SWAP1 PUSH2 0x32EE JUMP JUMPDEST PUSH1 0x40 MLOAD PUSH1 0x20 DUP2 DUP4 SUB SUB DUP2 MSTORE SWAP1 PUSH1 0x40 MSTORE DUP1 MLOAD SWAP1 PUSH1 0x20 ADD KECCAK256 SWAP1 POP PUSH1 0x0 PUSH1 0x1 DUP4 PUSH2 0x2126 SWAP2 SWAP1 PUSH2 0x2DFE JUMP JUMPDEST SWAP1 POP DUP1 DUP6 PUSH1 0x6 ADD PUSH1 0x0 DUP5 DUP2 MSTORE PUSH1 0x20 ADD SWAP1 DUP2 MSTORE PUSH1 0x20 ADD PUSH1 0x0 KECCAK256 DUP2 SWAP1 SSTORE POP PUSH1 0x0 PUSH2 0x2160 DUP3 DUP7 PUSH1 0x0 DUP7 DUP2 MSTORE PUSH1 0x20 ADD SWAP1 DUP2 MSTORE PUSH1 0x20 ADD PUSH1 0x0 KECCAK256 SLOAD PUSH2 0x239A JUMP JUMPDEST SWAP1 POP DUP1 DUP7 PUSH1 0x7 ADD PUSH1 0x0 DUP6 DUP2 MSTORE PUSH1 0x20 ADD SWAP1 DUP2 MSTORE PUSH1 0x20 ADD PUSH1 0x0 KECCAK256 DUP2 SWAP1 SSTORE POP DUP8 PUSH32 0xE702918564D36A4C4DA3B202516E441B40204ADEB97D8E49C6D2A7B27EE533E8 DUP9 DUP7 DUP2 MLOAD DUP2 LT PUSH2 0x21B1 JUMPI PUSH2 0x21B0 PUSH2 0x30D6 JUMP JUMPDEST JUMPDEST PUSH1 0x20 MUL PUSH1 0x20 ADD ADD MLOAD DUP4 PUSH1 0x40 MLOAD PUSH2 0x21C8 SWAP3 SWAP2 SWAP1 PUSH2 0x3351 JUMP JUMPDEST PUSH1 0x40 MLOAD DUP1 SWAP2 SUB SWAP1 LOG2 POP POP POP DUP1 DUP1 PUSH1 0x1 ADD SWAP2 POP POP PUSH2 0x20C9 JUMP JUMPDEST POP POP POP POP POP JUMP JUMPDEST PUSH1 0x0 PUSH32 0x9016D09D72D40FDAE2FD8CEAC6B6234C7706214FD39C1CD1E609A0528C199300 SWAP1 POP SWAP1 JUMP JUMPDEST PUSH1 0x0 CALLER SWAP1 POP SWAP1 JUMP JUMPDEST PUSH2 0x221F PUSH2 0x13BA JUMP JUMPDEST PUSH2 0x2255 JUMPI PUSH1 0x40 MLOAD PUSH32 0x8DFC202B00000000000000000000000000000000000000000000000000000000 DUP2 MSTORE PUSH1 0x4 ADD PUSH1 0x40 MLOAD DUP1 SWAP2 SUB SWAP1 REVERT JUMPDEST JUMP JUMPDEST PUSH1 0x0 PUSH32 0x9B779B17422D0DF92223018B32B4D1FA46E071723D6817E2486D003BECC55F00 SWAP1 POP SWAP1 JUMP JUMPDEST PUSH2 0x2287 PUSH2 0x23FC JUMP JUMPDEST PUSH2 0x22BD JUMPI PUSH1 0x40 MLOAD PUSH32 0xD7E6BCF800000000000000000000000000000000000000000000000000000000 DUP2 MSTORE PUSH1 0x4 ADD PUSH1 0x40 MLOAD DUP1 SWAP2 SUB SWAP1 REVERT JUMPDEST JUMP JUMPDEST PUSH2 0x22C7 PUSH2 0x227F JUMP JUMPDEST PUSH1 0x0 PUSH20 0xFFFFFFFFFFFFFFFFFFFFFFFFFFFFFFFFFFFFFFFF AND DUP2 PUSH20 0xFFFFFFFFFFFFFFFFFFFFFFFFFFFFFFFFFFFFFFFF AND SUB PUSH2 0x2339 JUMPI PUSH1 0x0 PUSH1 0x40 MLOAD PUSH32 0x1E4FBDF700000000000000000000000000000000000000000000000000000000 DUP2 MSTORE PUSH1 0x4 ADD PUSH2 0x2330 SWAP2 SWAP1 PUSH2 0x2D01 JUMP JUMPDEST PUSH1 0x40 MLOAD DUP1 SWAP2 SUB SWAP1 REVERT JUMPDEST PUSH2 0x2342 DUP2 PUSH2 0x1E9B JUMP JUMPDEST POP JUMP JUMPDEST PUSH2 0x234D PUSH2 0x227F JUMP JUMPDEST PUSH1 0x0 PUSH2 0x2357 PUSH2 0x1E73 JUMP JUMPDEST SWAP1 POP PUSH1 0x0 DUP2 PUSH1 0x0 ADD PUSH1 0x0 PUSH2 0x100 EXP DUP2 SLOAD DUP2 PUSH1 0xFF MUL NOT AND SWAP1 DUP4 ISZERO ISZERO MUL OR SWAP1 SSTORE POP POP JUMP JUMPDEST PUSH2 0x2381 PUSH2 0x227F JUMP JUMPDEST PUSH1 0x0 PUSH2 0x238B PUSH2 0x2257 JUMP JUMPDEST SWAP1 POP PUSH1 0x1 DUP2 PUSH1 0x0 ADD DUP2 SWAP1 SSTORE POP POP JUMP JUMPDEST PUSH1 0x0 DUP1 PUSH1 0x2 PUSH1 0x1 DUP5 DUP7 PUSH2 0x23AD SWAP2 SWAP1 PUSH2 0x2DFE JUMP JUMPDEST PUSH2 0x23B7 SWAP2 SWAP1 PUSH2 0x337A JUMP JUMPDEST DUP6 PUSH2 0x23C2 SWAP2 SWAP1 PUSH2 0x2DFE JUMP JUMPDEST PUSH2 0x23CC SWAP2 SWAP1 PUSH2 0x3210 JUMP JUMPDEST SWAP1 POP PUSH1 0x14 PUSH1 0x1 DUP3 PUSH2 0x23DD SWAP2 SWAP1 PUSH2 0x337A JUMP JUMPDEST PUSH2 0x23E7 SWAP2 SWAP1 PUSH2 0x319F JUMP JUMPDEST PUSH1 0x78 PUSH2 0x23F3 SWAP2 SWAP1 PUSH2 0x2DFE JUMP JUMPDEST SWAP2 POP POP SWAP3 SWAP2 POP POP JUMP JUMPDEST PUSH1 0x0 PUSH2 0x2406 PUSH2 0x1E13 JUMP JUMPDEST PUSH1 0x0 ADD PUSH1 0x8 SWAP1 SLOAD SWAP1 PUSH2 0x100 EXP SWAP1 DIV PUSH1 0xFF AND SWAP1 POP SWAP1 JUMP JUMPDEST POP DUP1 SLOAD PUSH2 0x2428 SWAP1 PUSH2 0x2D9E JUMP JUMPDEST PUSH1 0x0 DUP3 SSTORE DUP1 PUSH1 0x1F LT PUSH2 0x243A JUMPI POP PUSH2 0x2459 JUMP JUMPDEST PUSH1 0x1F ADD PUSH1 0x20 SWAP1 DIV SWAP1 PUSH1 0x0 MSTORE PUSH1 0x20 PUSH1 0x0 KECCAK256 SWAP1 DUP2 ADD SWAP1 PUSH2 0x2458 SWAP2 SWAP1 PUSH2 0x2480 JUMP JUMPDEST JUMPDEST POP JUMP JUMPDEST POP DUP1 SLOAD PUSH1 0x0 DUP3 SSTORE PUSH1 0x4 MUL SWAP1 PUSH1 0x0 MSTORE PUSH1 0x20 PUSH1 0x0 KECCAK256 SWAP1 DUP2 ADD SWAP1 PUSH2 0x247D SWAP2 SWAP1 PUSH2 0x249D JUMP JUMPDEST POP JUMP JUMPDEST JUMPDEST DUP1 DUP3 GT ISZERO PUSH2 0x2499 JUMPI PUSH1 0x0 DUP2 PUSH1 0x0 SWAP1 SSTORE POP PUSH1 0x1 ADD PUSH2 0x2481 JUMP JUMPDEST POP SWAP1 JUMP JUMPDEST JUMPDEST DUP1 DUP3 GT ISZERO PUSH2 0x24F7 JUMPI PUSH1 0x0 DUP1 DUP3 ADD PUSH1 0x0 PUSH2 0x100 EXP DUP2 SLOAD SWAP1 PUSH20 0xFFFFFFFFFFFFFFFFFFFFFFFFFFFFFFFFFFFFFFFF MUL NOT AND SWAP1 SSTORE PUSH1 0x1 DUP3 ADD PUSH1 0x0 SWAP1 SSTORE PUSH1 0x2 DUP3 ADD PUSH1 0x0 PUSH2 0x24E6 SWAP2 SWAP1 PUSH2 0x241C JUMP JUMPDEST PUSH1 0x3 DUP3 ADD PUSH1 0x0 SWAP1 SSTORE POP PUSH1 0x4 ADD PUSH2 0x249E JUMP JUMPDEST POP SWAP1 JUMP JUMPDEST PUSH1 0x0 PUSH1 0x40 MLOAD SWAP1 POP SWAP1 JUMP JUMPDEST PUSH1 0x0 DUP1 REVERT JUMPDEST PUSH1 0x0 DUP1 REVERT JUMPDEST PUSH1 0x0 DUP2 SWAP1 POP SWAP2 SWAP1 POP JUMP JUMPDEST PUSH2 0x2522 DUP2 PUSH2 0x250F JUMP JUMPDEST DUP2 EQ PUSH2 0x252D JUMPI PUSH1 0x0 DUP1 REVERT JUMPDEST POP JUMP JUMPDEST PUSH1 0x0 DUP2 CALLDATALOAD SWAP1 POP PUSH2 0x253F DUP2 PUSH2 0x2519 JUMP JUMPDEST SWAP3 SWAP2 POP POP JUMP JUMPDEST PUSH1 0x0 DUP1 REVERT JUMPDEST PUSH1 0x0 DUP1 REVERT JUMPDEST PUSH1 0x0 PUSH1 0x1F NOT PUSH1 0x1F DUP4 ADD AND SWAP1 POP SWAP2 SWAP1 POP JUMP JUMPDEST PUSH32 0x4E487B7100000000000000000000000000000000000000000000000000000000 PUSH1 0x0 MSTORE PUSH1 0x41 PUSH1 0x4 MSTORE PUSH1 0x24 PUSH1 0x0 REVERT JUMPDEST PUSH2 0x2598 DUP3 PUSH2 0x254F JUMP JUMPDEST DUP2 ADD DUP2 DUP2 LT PUSH8 0xFFFFFFFFFFFFFFFF DUP3 GT OR ISZERO PUSH2 0x25B7 JUMPI PUSH2 0x25B6 PUSH2 0x2560 JUMP JUMPDEST JUMPDEST DUP1 PUSH1 0x40 MSTORE POP POP POP JUMP JUMPDEST PUSH1 0x0 PUSH2 0x25CA PUSH2 0x24FB JUMP JUMPDEST SWAP1 POP PUSH2 0x25D6 DUP3 DUP3 PUSH2 0x258F JUMP JUMPDEST SWAP2 SWAP1 POP JUMP JUMPDEST PUSH1 0x0 PUSH8 0xFFFFFFFFFFFFFFFF DUP3 GT ISZERO PUSH2 0x25F6 JUMPI PUSH2 0x25F5 PUSH2 0x2560 JUMP JUMPDEST JUMPDEST PUSH2 0x25FF DUP3 PUSH2 0x254F JUMP JUMPDEST SWAP1 POP PUSH1 0x20 DUP2 ADD SWAP1 POP SWAP2 SWAP1 POP JUMP JUMPDEST DUP3 DUP2 DUP4 CALLDATACOPY PUSH1 0x0 DUP4 DUP4 ADD MSTORE POP POP POP JUMP JUMPDEST PUSH1 0x0 PUSH2 0x262E PUSH2 0x2629 DUP5 PUSH2 0x25DB JUMP JUMPDEST PUSH2 0x25C0 JUMP JUMPDEST SWAP1 POP DUP3 DUP2 MSTORE PUSH1 0x20 DUP2 ADD DUP5 DUP5 DUP5 ADD GT ISZERO PUSH2 0x264A JUMPI PUSH2 0x2649 PUSH2 0x254A JUMP JUMPDEST JUMPDEST PUSH2 0x2655 DUP5 DUP3 DUP6 PUSH2 0x260C JUMP JUMPDEST POP SWAP4 SWAP3 POP POP POP JUMP JUMPDEST PUSH1 0x0 DUP3 PUSH1 0x1F DUP4 ADD SLT PUSH2 0x2672 JUMPI PUSH2 0x2671 PUSH2 0x2545 JUMP JUMPDEST JUMPDEST DUP2 CALLDATALOAD PUSH2 0x2682 DUP5 DUP3 PUSH1 0x20 DUP7 ADD PUSH2 0x261B JUMP JUMPDEST SWAP2 POP POP SWAP3 SWAP2 POP POP JUMP JUMPDEST PUSH1 0x0 DUP1 PUSH1 0x40 DUP4 DUP6 SUB SLT ISZERO PUSH2 0x26A2 JUMPI PUSH2 0x26A1 PUSH2 0x2505 JUMP JUMPDEST JUMPDEST PUSH1 0x0 PUSH2 0x26B0 DUP6 DUP3 DUP7 ADD PUSH2 0x2530 JUMP JUMPDEST SWAP3 POP POP PUSH1 0x20 DUP4 ADD CALLDATALOAD PUSH8 0xFFFFFFFFFFFFFFFF DUP2 GT ISZERO PUSH2 0x26D1 JUMPI PUSH2 0x26D0 PUSH2 0x250A JUMP JUMPDEST JUMPDEST PUSH2 0x26DD DUP6 DUP3 DUP7 ADD PUSH2 0x265D JUMP JUMPDEST SWAP2 POP POP SWAP3 POP SWAP3 SWAP1 POP JUMP JUMPDEST PUSH1 0x0 DUP2 SWAP1 POP SWAP2 SWAP1 POP JUMP JUMPDEST PUSH2 0x26FA DUP2 PUSH2 0x26E7 JUMP JUMPDEST DUP3 MSTORE POP POP JUMP JUMPDEST PUSH1 0x0 PUSH1 0x20 DUP3 ADD SWAP1 POP PUSH2 0x2715 PUSH1 0x0 DUP4 ADD DUP5 PUSH2 0x26F1 JUMP JUMPDEST SWAP3 SWAP2 POP POP JUMP JUMPDEST PUSH1 0x0 PUSH1 0x20 DUP3 DUP5 SUB SLT ISZERO PUSH2 0x2731 JUMPI PUSH2 0x2730 PUSH2 0x2505 JUMP JUMPDEST JUMPDEST PUSH1 0x0 PUSH2 0x273F DUP5 DUP3 DUP6 ADD PUSH2 0x2530 JUMP JUMPDEST SWAP2 POP POP SWAP3 SWAP2 POP POP JUMP JUMPDEST PUSH1 0x0 DUP2 MLOAD SWAP1 POP SWAP2 SWAP1 POP JUMP JUMPDEST PUSH1 0x0 DUP3 DUP3 MSTORE PUSH1 0x20 DUP3 ADD SWAP1 POP SWAP3 SWAP2 POP POP JUMP JUMPDEST PUSH1 0x0 DUP2 SWAP1 POP PUSH1 0x20 DUP3 ADD SWAP1 POP SWAP2 SWAP1 POP JUMP JUMPDEST PUSH1 0x0 PUSH20 0xFFFFFFFFFFFFFFFFFFFFFFFFFFFFFFFFFFFFFFFF DUP3 AND SWAP1 POP SWAP2 SWAP1 POP JUMP JUMPDEST PUSH1 0x0 PUSH2 0x279F DUP3 PUSH2 0x2774 JUMP JUMPDEST SWAP1 POP SWAP2 SWAP1 POP JUMP JUMPDEST PUSH2 0x27AF DUP2 PUSH2 0x2794 JUMP JUMPDEST DUP3 MSTORE POP POP JUMP JUMPDEST PUSH2 0x27BE DUP2 PUSH2 0x26E7 JUMP JUMPDEST DUP3 MSTORE POP POP JUMP JUMPDEST PUSH1 0x0 DUP2 MLOAD SWAP1 POP SWAP2 SWAP1 POP JUMP JUMPDEST PUSH1 0x0 DUP3 DUP3 MSTORE PUSH1 0x20 DUP3 ADD SWAP1 POP SWAP3 SWAP2 POP POP JUMP JUMPDEST PUSH1 0x0 JUMPDEST DUP4 DUP2 LT ISZERO PUSH2 0x27FE JUMPI DUP1 DUP3 ADD MLOAD DUP2 DUP5 ADD MSTORE PUSH1 0x20 DUP2 ADD SWAP1 POP PUSH2 0x27E3 JUMP JUMPDEST PUSH1 0x0 DUP5 DUP5 ADD MSTORE POP POP POP POP JUMP JUMPDEST PUSH1 0x0 PUSH2 0x2815 DUP3 PUSH2 0x27C4 JUMP JUMPDEST PUSH2 0x281F DUP2 DUP6 PUSH2 0x27CF JUMP JUMPDEST SWAP4 POP PUSH2 0x282F DUP2 DUP6 PUSH1 0x20 DUP7 ADD PUSH2 0x27E0 JUMP JUMPDEST PUSH2 0x2838 DUP2 PUSH2 0x254F JUMP JUMPDEST DUP5 ADD SWAP2 POP POP SWAP3 SWAP2 POP POP JUMP JUMPDEST PUSH1 0x0 PUSH1 0x80 DUP4 ADD PUSH1 0x0 DUP4 ADD MLOAD PUSH2 0x285B PUSH1 0x0 DUP7 ADD DUP3 PUSH2 0x27A6 JUMP JUMPDEST POP PUSH1 0x20 DUP4 ADD MLOAD PUSH2 0x286E PUSH1 0x20 DUP7 ADD DUP3 PUSH2 0x27B5 JUMP JUMPDEST POP PUSH1 0x40 DUP4 ADD MLOAD DUP5 DUP3 SUB PUSH1 0x40 DUP7 ADD MSTORE PUSH2 0x2886 DUP3 DUP3 PUSH2 0x280A JUMP JUMPDEST SWAP2 POP POP PUSH1 0x60 DUP4 ADD MLOAD PUSH2 0x289B PUSH1 0x60 DUP7 ADD DUP3 PUSH2 0x27B5 JUMP JUMPDEST POP DUP1 SWAP2 POP POP SWAP3 SWAP2 POP POP JUMP JUMPDEST PUSH1 0x0 PUSH2 0x28B2 DUP4 DUP4 PUSH2 0x2843 JUMP JUMPDEST SWAP1 POP SWAP3 SWAP2 POP POP JUMP JUMPDEST PUSH1 0x0 PUSH1 0x20 DUP3 ADD SWAP1 POP SWAP2 SWAP1 POP JUMP JUMPDEST PUSH1 0x0 PUSH2 0x28D2 DUP3 PUSH2 0x2748 JUMP JUMPDEST PUSH2 0x28DC DUP2 DUP6 PUSH2 0x2753 JUMP JUMPDEST SWAP4 POP DUP4 PUSH1 0x20 DUP3 MUL DUP6 ADD PUSH2 0x28EE DUP6 PUSH2 0x2764 JUMP JUMPDEST DUP1 PUSH1 0x0 JUMPDEST DUP6 DUP2 LT ISZERO PUSH2 0x292A JUMPI DUP5 DUP5 SUB DUP10 MSTORE DUP2 MLOAD PUSH2 0x290B DUP6 DUP3 PUSH2 0x28A6 JUMP JUMPDEST SWAP5 POP PUSH2 0x2916 DUP4 PUSH2 0x28BA JUMP JUMPDEST SWAP3 POP PUSH1 0x20 DUP11 ADD SWAP10 POP POP PUSH1 0x1 DUP2 ADD SWAP1 POP PUSH2 0x28F2 JUMP JUMPDEST POP DUP3 SWAP8 POP DUP8 SWAP6 POP POP POP POP POP POP SWAP3 SWAP2 POP POP JUMP JUMPDEST PUSH1 0x0 PUSH1 0x20 DUP3 ADD SWAP1 POP DUP2 DUP2 SUB PUSH1 0x0 DUP4 ADD MSTORE PUSH2 0x2956 DUP2 DUP5 PUSH2 0x28C7 JUMP JUMPDEST SWAP1 POP SWAP3 SWAP2 POP POP JUMP JUMPDEST PUSH2 0x2967 DUP2 PUSH2 0x2794 JUMP JUMPDEST DUP2 EQ PUSH2 0x2972 JUMPI PUSH1 0x0 DUP1 REVERT JUMPDEST POP JUMP JUMPDEST PUSH1 0x0 DUP2 CALLDATALOAD SWAP1 POP PUSH2 0x2984 DUP2 PUSH2 0x295E JUMP JUMPDEST SWAP3 SWAP2 POP POP JUMP JUMPDEST PUSH1 0x0 PUSH1 0x20 DUP3 DUP5 SUB SLT ISZERO PUSH2 0x29A0 JUMPI PUSH2 0x299F PUSH2 0x2505 JUMP JUMPDEST JUMPDEST PUSH1 0x0 PUSH2 0x29AE DUP5 DUP3 DUP6 ADD PUSH2 0x2975 JUMP JUMPDEST SWAP2 POP POP SWAP3 SWAP2 POP POP JUMP JUMPDEST PUSH1 0x0 DUP1 PUSH1 0x40 DUP4 DUP6 SUB SLT ISZERO PUSH2 0x29CE JUMPI PUSH2 0x29CD PUSH2 0x2505 JUMP JUMPDEST JUMPDEST PUSH1 0x0 PUSH2 0x29DC DUP6 DUP3 DUP7 ADD PUSH2 0x2975 JUMP JUMPDEST SWAP3 POP POP PUSH1 0x20 PUSH2 0x29ED DUP6 DUP3 DUP7 ADD PUSH2 0x2975 JUMP JUMPDEST SWAP2 POP POP SWAP3 POP SWAP3 SWAP1 POP JUMP JUMPDEST PUSH2 0x2A00 DUP2 PUSH2 0x250F JUMP JUMPDEST DUP3 MSTORE POP POP JUMP JUMPDEST PUSH1 0x0 DUP3 DUP3 MSTORE PUSH1 0x20 DUP3 ADD SWAP1 POP SWAP3 SWAP2 POP POP JUMP JUMPDEST PUSH1 0x0 PUSH2 0x2A22 DUP3 PUSH2 0x27C4 JUMP JUMPDEST PUSH2 0x2A2C DUP2 DUP6 PUSH2 0x2A06 JUMP JUMPDEST SWAP4 POP PUSH2 0x2A3C DUP2 DUP6 PUSH1 0x20 DUP7 ADD PUSH2 0x27E0 JUMP JUMPDEST PUSH2 0x2A45 DUP2 PUSH2 0x254F JUMP JUMPDEST DUP5 ADD SWAP2 POP POP SWAP3 SWAP2 POP POP JUMP JUMPDEST PUSH1 0x0 DUP2 ISZERO ISZERO SWAP1 POP SWAP2 SWAP1 POP JUMP JUMPDEST PUSH2 0x2A65 DUP2 PUSH2 0x2A50 JUMP JUMPDEST DUP3 MSTORE POP POP JUMP JUMPDEST PUSH1 0x0 PUSH1 0xA0 DUP3 ADD SWAP1 POP PUSH2 0x2A80 PUSH1 0x0 DUP4 ADD DUP9 PUSH2 0x29F7 JUMP JUMPDEST DUP2 DUP2 SUB PUSH1 0x20 DUP4 ADD MSTORE PUSH2 0x2A92 DUP2 DUP8 PUSH2 0x2A17 JUMP JUMPDEST SWAP1 POP PUSH2 0x2AA1 PUSH1 0x40 DUP4 ADD DUP7 PUSH2 0x2A5C JUMP JUMPDEST PUSH2 0x2AAE PUSH1 0x60 DUP4 ADD DUP6 PUSH2 0x26F1 JUMP JUMPDEST PUSH2 0x2ABB PUSH1 0x80 DUP4 ADD DUP5 PUSH2 0x26F1 JUMP JUMPDEST SWAP7 SWAP6 POP POP POP POP POP POP JUMP JUMPDEST PUSH1 0x0 PUSH1 0x20 DUP3 ADD SWAP1 POP PUSH2 0x2ADA PUSH1 0x0 DUP4 ADD DUP5 PUSH2 0x2A5C JUMP JUMPDEST SWAP3 SWAP2 POP POP JUMP JUMPDEST PUSH2 0x2AE9 DUP2 PUSH2 0x26E7 JUMP JUMPDEST DUP2 EQ PUSH2 0x2AF4 JUMPI PUSH1 0x0 DUP1 REVERT JUMPDEST POP JUMP JUMPDEST PUSH1 0x0 DUP2 CALLDATALOAD SWAP1 POP PUSH2 0x2B06 DUP2 PUSH2 0x2AE0 JUMP JUMPDEST SWAP3 SWAP2 POP POP JUMP JUMPDEST PUSH1 0x0 PUSH1 0x20 DUP3 DUP5 SUB SLT ISZERO PUSH2 0x2B22 JUMPI PUSH2 0x2B21 PUSH2 0x2505 JUMP JUMPDEST JUMPDEST PUSH1 0x0 PUSH2 0x2B30 DUP5 DUP3 DUP6 ADD PUSH2 0x2AF7 JUMP JUMPDEST SWAP2 POP POP SWAP3 SWAP2 POP POP JUMP JUMPDEST PUSH1 0x0 PUSH1 0x20 DUP3 ADD SWAP1 POP PUSH2 0x2B4E PUSH1 0x0 DUP4 ADD DUP5 PUSH2 0x29F7 JUMP JUMPDEST SWAP3 SWAP2 POP POP JUMP JUMPDEST PUSH1 0x0 DUP2 SWAP1 POP SWAP2 SWAP1 POP JUMP JUMPDEST PUSH1 0x0 PUSH2 0x2B79 PUSH2 0x2B74 PUSH2 0x2B6F DUP5 PUSH2 0x2774 JUMP JUMPDEST PUSH2 0x2B54 JUMP JUMPDEST PUSH2 0x2774 JUMP JUMPDEST SWAP1 POP SWAP2 SWAP1 POP JUMP JUMPDEST PUSH1 0x0 PUSH2 0x2B8B DUP3 PUSH2 0x2B5E JUMP JUMPDEST SWAP1 POP SWAP2 SWAP1 POP JUMP JUMPDEST PUSH1 0x0 PUSH2 0x2B9D DUP3 PUSH2 0x2B80 JUMP JUMPDEST SWAP1 POP SWAP2 SWAP1 POP JUMP JUMPDEST PUSH2 0x2BAD DUP2 PUSH2 0x2B92 JUMP JUMPDEST DUP3 MSTORE POP POP JUMP JUMPDEST PUSH1 0x0 PUSH1 0x20 DUP3 ADD SWAP1 POP PUSH2 0x2BC8 PUSH1 0x0 DUP4 ADD DUP5 PUSH2 0x2BA4 JUMP JUMPDEST SWAP3 SWAP2 POP POP JUMP JUMPDEST PUSH1 0x0 PUSH8 0xFFFFFFFFFFFFFFFF DUP3 GT ISZERO PUSH2 0x2BE9 JUMPI PUSH2 0x2BE8 PUSH2 0x2560 JUMP JUMPDEST JUMPDEST PUSH1 0x20 DUP3 MUL SWAP1 POP PUSH1 0x20 DUP2 ADD SWAP1 POP SWAP2 SWAP1 POP JUMP JUMPDEST PUSH1 0x0 DUP1 REVERT JUMPDEST PUSH1 0x0 PUSH2 0x2C12 PUSH2 0x2C0D DUP5 PUSH2 0x2BCE JUMP JUMPDEST PUSH2 0x25C0 JUMP JUMPDEST SWAP1 POP DUP1 DUP4 DUP3 MSTORE PUSH1 0x20 DUP3 ADD SWAP1 POP PUSH1 0x20 DUP5 MUL DUP4 ADD DUP6 DUP2 GT ISZERO PUSH2 0x2C35 JUMPI PUSH2 0x2C34 PUSH2 0x2BFA JUMP JUMPDEST JUMPDEST DUP4 JUMPDEST DUP2 DUP2 LT ISZERO PUSH2 0x2C5E JUMPI DUP1 PUSH2 0x2C4A DUP9 DUP3 PUSH2 0x2530 JUMP JUMPDEST DUP5 MSTORE PUSH1 0x20 DUP5 ADD SWAP4 POP POP PUSH1 0x20 DUP2 ADD SWAP1 POP PUSH2 0x2C37 JUMP JUMPDEST POP POP POP SWAP4 SWAP3 POP POP POP JUMP JUMPDEST PUSH1 0x0 DUP3 PUSH1 0x1F DUP4 ADD SLT PUSH2 0x2C7D JUMPI PUSH2 0x2C7C PUSH2 0x2545 JUMP JUMPDEST JUMPDEST DUP2 CALLDATALOAD PUSH2 0x2C8D DUP5 DUP3 PUSH1 0x20 DUP7 ADD PUSH2 0x2BFF JUMP JUMPDEST SWAP2 POP POP SWAP3 SWAP2 POP POP JUMP JUMPDEST PUSH1 0x0 DUP1 PUSH1 0x40 DUP4 DUP6 SUB SLT ISZERO PUSH2 0x2CAD JUMPI PUSH2 0x2CAC PUSH2 0x2505 JUMP JUMPDEST JUMPDEST PUSH1 0x0 PUSH2 0x2CBB DUP6 DUP3 DUP7 ADD PUSH2 0x2530 JUMP JUMPDEST SWAP3 POP POP PUSH1 0x20 DUP4 ADD CALLDATALOAD PUSH8 0xFFFFFFFFFFFFFFFF DUP2 GT ISZERO PUSH2 0x2CDC JUMPI PUSH2 0x2CDB PUSH2 0x250A JUMP JUMPDEST JUMPDEST PUSH2 0x2CE8 DUP6 DUP3 DUP7 ADD PUSH2 0x2C68 JUMP JUMPDEST SWAP2 POP POP SWAP3 POP SWAP3 SWAP1 POP JUMP JUMPDEST PUSH2 0x2CFB DUP2 PUSH2 0x2794 JUMP JUMPDEST DUP3 MSTORE POP POP JUMP JUMPDEST PUSH1 0x0 PUSH1 0x20 DUP3 ADD SWAP1 POP PUSH2 0x2D16 PUSH1 0x0 DUP4 ADD DUP5 PUSH2 0x2CF2 JUMP JUMPDEST SWAP3 SWAP2 POP POP JUMP JUMPDEST PUSH1 0x0 DUP2 SWAP1 POP SWAP3 SWAP2 POP POP JUMP JUMPDEST PUSH1 0x0 PUSH2 0x2D32 DUP3 PUSH2 0x27C4 JUMP JUMPDEST PUSH2 0x2D3C DUP2 DUP6 PUSH2 0x2D1C JUMP JUMPDEST SWAP4 POP PUSH2 0x2D4C DUP2 DUP6 PUSH1 0x20 DUP7 ADD PUSH2 0x27E0 JUMP JUMPDEST DUP1 DUP5 ADD SWAP2 POP POP SWAP3 SWAP2 POP POP JUMP JUMPDEST PUSH1 0x0 PUSH2 0x2D64 DUP3 DUP5 PUSH2 0x2D27 JUMP JUMPDEST SWAP2 POP DUP2 SWAP1 POP SWAP3 SWAP2 POP POP JUMP JUMPDEST PUSH32 0x4E487B7100000000000000000000000000000000000000000000000000000000 PUSH1 0x0 MSTORE PUSH1 0x22 PUSH1 0x4 MSTORE PUSH1 0x24 PUSH1 0x0 REVERT JUMPDEST PUSH1 0x0 PUSH1 0x2 DUP3 DIV SWAP1 POP PUSH1 0x1 DUP3 AND DUP1 PUSH2 0x2DB6 JUMPI PUSH1 0x7F DUP3 AND SWAP2 POP JUMPDEST PUSH1 0x20 DUP3 LT DUP2 SUB PUSH2 0x2DC9 JUMPI PUSH2 0x2DC8 PUSH2 0x2D6F JUMP JUMPDEST JUMPDEST POP SWAP2 SWAP1 POP JUMP JUMPDEST PUSH32 0x4E487B7100000000000000000000000000000000000000000000000000000000 PUSH1 0x0 MSTORE PUSH1 0x11 PUSH1 0x4 MSTORE PUSH1 0x24 PUSH1 0x0 REVERT JUMPDEST PUSH1 0x0 PUSH2 0x2E09 DUP3 PUSH2 0x26E7 JUMP JUMPDEST SWAP2 POP PUSH2 0x2E14 DUP4 PUSH2 0x26E7 JUMP JUMPDEST SWAP3 POP DUP3 DUP3 ADD SWAP1 POP DUP1 DUP3 GT ISZERO PUSH2 0x2E2C JUMPI PUSH2 0x2E2B PUSH2 0x2DCF JUMP JUMPDEST JUMPDEST SWAP3 SWAP2 POP POP JUMP JUMPDEST PUSH1 0x0 DUP2 SWAP1 POP DUP2 PUSH1 0x0 MSTORE PUSH1 0x20 PUSH1 0x0 KECCAK256 SWAP1 POP SWAP2 SWAP1 POP JUMP JUMPDEST PUSH1 0x0 PUSH1 0x20 PUSH1 0x1F DUP4 ADD DIV SWAP1 POP SWAP2 SWAP1 POP JUMP JUMPDEST PUSH1 0x0 DUP3 DUP3 SHL SWAP1 POP SWAP3 SWAP2 POP POP JUMP JUMPDEST PUSH1 0x0 PUSH1 0x8 DUP4 MUL PUSH2 0x2E94 PUSH32 0xFFFFFFFFFFFFFFFFFFFFFFFFFFFFFFFFFFFFFFFFFFFFFFFFFFFFFFFFFFFFFFFF DUP3 PUSH2 0x2E57 JUMP JUMPDEST PUSH2 0x2E9E DUP7 DUP4 PUSH2 0x2E57 JUMP JUMPDEST SWAP6 POP DUP1 NOT DUP5 AND SWAP4 POP DUP1 DUP7 AND DUP5 OR SWAP3 POP POP POP SWAP4 SWAP3 POP POP POP JUMP JUMPDEST PUSH1 0x0 PUSH2 0x2ED1 PUSH2 0x2ECC PUSH2 0x2EC7 DUP5 PUSH2 0x26E7 JUMP JUMPDEST PUSH2 0x2B54 JUMP JUMPDEST PUSH2 0x26E7 JUMP JUMPDEST SWAP1 POP SWAP2 SWAP1 POP JUMP JUMPDEST PUSH1 0x0 DUP2 SWAP1 POP SWAP2 SWAP1 POP JUMP JUMPDEST PUSH2 0x2EEB DUP4 PUSH2 0x2EB6 JUMP JUMPDEST PUSH2 0x2EFF PUSH2 0x2EF7 DUP3 PUSH2 0x2ED8 JUMP JUMPDEST DUP5 DUP5 SLOAD PUSH2 0x2E64 JUMP JUMPDEST DUP3 SSTORE POP POP POP POP JUMP JUMPDEST PUSH1 0x0 SWAP1 JUMP JUMPDEST PUSH2 0x2F14 PUSH2 0x2F07 JUMP JUMPDEST PUSH2 0x2F1F DUP2 DUP5 DUP5 PUSH2 0x2EE2 JUMP JUMPDEST POP POP POP JUMP JUMPDEST JUMPDEST DUP2 DUP2 LT ISZERO PUSH2 0x2F43 JUMPI PUSH2 0x2F38 PUSH1 0x0 DUP3 PUSH2 0x2F0C JUMP JUMPDEST PUSH1 0x1 DUP2 ADD SWAP1 POP PUSH2 0x2F25 JUMP JUMPDEST POP POP JUMP JUMPDEST PUSH1 0x1F DUP3 GT ISZERO PUSH2 0x2F88 JUMPI PUSH2 0x2F59 DUP2 PUSH2 0x2E32 JUMP JUMPDEST PUSH2 0x2F62 DUP5 PUSH2 0x2E47 JUMP JUMPDEST DUP2 ADD PUSH1 0x20 DUP6 LT ISZERO PUSH2 0x2F71 JUMPI DUP2 SWAP1 POP JUMPDEST PUSH2 0x2F85 PUSH2 0x2F7D DUP6 PUSH2 0x2E47 JUMP JUMPDEST DUP4 ADD DUP3 PUSH2 0x2F24 JUMP JUMPDEST POP POP JUMPDEST POP POP POP JUMP JUMPDEST PUSH1 0x0 DUP3 DUP3 SHR SWAP1 POP SWAP3 SWAP2 POP POP JUMP JUMPDEST PUSH1 0x0 PUSH2 0x2FAB PUSH1 0x0 NOT DUP5 PUSH1 0x8 MUL PUSH2 0x2F8D JUMP JUMPDEST NOT DUP1 DUP4 AND SWAP2 POP POP SWAP3 SWAP2 POP POP JUMP JUMPDEST PUSH1 0x0 PUSH2 0x2FC4 DUP4 DUP4 PUSH2 0x2F9A JUMP JUMPDEST SWAP2 POP DUP3 PUSH1 0x2 MUL DUP3 OR SWAP1 POP SWAP3 SWAP2 POP POP JUMP JUMPDEST PUSH2 0x2FDD DUP3 PUSH2 0x27C4 JUMP JUMPDEST PUSH8 0xFFFFFFFFFFFFFFFF DUP2 GT ISZERO PUSH2 0x2FF6 JUMPI PUSH2 0x2FF5 PUSH2 0x2560 JUMP JUMPDEST JUMPDEST PUSH2 0x3000 DUP3 SLOAD PUSH2 0x2D9E JUMP JUMPDEST PUSH2 0x300B DUP3 DUP3 DUP6 PUSH2 0x2F47 JUMP JUMPDEST PUSH1 0x0 PUSH1 0x20 SWAP1 POP PUSH1 0x1F DUP4 GT PUSH1 0x1 DUP2 EQ PUSH2 0x303E JUMPI PUSH1 0x0 DUP5 ISZERO PUSH2 0x302C JUMPI DUP3 DUP8 ADD MLOAD SWAP1 POP JUMPDEST PUSH2 0x3036 DUP6 DUP3 PUSH2 0x2FB8 JUMP JUMPDEST DUP7 SSTORE POP PUSH2 0x309E JUMP JUMPDEST PUSH1 0x1F NOT DUP5 AND PUSH2 0x304C DUP7 PUSH2 0x2E32 JUMP JUMPDEST PUSH1 0x0 JUMPDEST DUP3 DUP2 LT ISZERO PUSH2 0x3074 JUMPI DUP5 DUP10 ADD MLOAD DUP3 SSTORE PUSH1 0x1 DUP3 ADD SWAP2 POP PUSH1 0x20 DUP6 ADD SWAP5 POP PUSH1 0x20 DUP2 ADD SWAP1 POP PUSH2 0x304F JUMP JUMPDEST DUP7 DUP4 LT ISZERO PUSH2 0x3091 JUMPI DUP5 DUP10 ADD MLOAD PUSH2 0x308D PUSH1 0x1F DUP10 AND DUP3 PUSH2 0x2F9A JUMP JUMPDEST DUP4 SSTORE POP JUMPDEST PUSH1 0x1 PUSH1 0x2 DUP9 MUL ADD DUP9 SSTORE POP POP POP JUMPDEST POP POP POP POP POP POP JUMP JUMPDEST PUSH1 0x0 PUSH1 0x40 DUP3 ADD SWAP1 POP DUP2 DUP2 SUB PUSH1 0x0 DUP4 ADD MSTORE PUSH2 0x30C0 DUP2 DUP6 PUSH2 0x2A17 JUMP JUMPDEST SWAP1 POP PUSH2 0x30CF PUSH1 0x20 DUP4 ADD DUP5 PUSH2 0x26F1 JUMP JUMPDEST SWAP4 SWAP3 POP POP POP JUMP JUMPDEST PUSH32 0x4E487B7100000000000000000000000000000000000000000000000000000000 PUSH1 0x0 MSTORE PUSH1 0x32 PUSH1 0x4 MSTORE PUSH1 0x24 PUSH1 0x0 REVERT JUMPDEST PUSH1 0x0 DUP2 SLOAD PUSH2 0x3112 DUP2 PUSH2 0x2D9E JUMP JUMPDEST PUSH2 0x311C DUP2 DUP7 PUSH2 0x2D1C JUMP JUMPDEST SWAP5 POP PUSH1 0x1 DUP3 AND PUSH1 0x0 DUP2 EQ PUSH2 0x3137 JUMPI PUSH1 0x1 DUP2 EQ PUSH2 0x314C JUMPI PUSH2 0x317F JUMP JUMPDEST PUSH1 0xFF NOT DUP4 AND DUP7 MSTORE DUP2 ISZERO ISZERO DUP3 MUL DUP7 ADD SWAP4 POP PUSH2 0x317F JUMP JUMPDEST PUSH2 0x3155 DUP6 PUSH2 0x2E32 JUMP JUMPDEST PUSH1 0x0 JUMPDEST DUP4 DUP2 LT ISZERO PUSH2 0x3177 JUMPI DUP2 SLOAD DUP2 DUP10 ADD MSTORE PUSH1 0x1 DUP3 ADD SWAP2 POP PUSH1 0x20 DUP2 ADD SWAP1 POP PUSH2 0x3158 JUMP JUMPDEST DUP4 DUP9 ADD SWAP6 POP POP POP JUMPDEST POP POP POP SWAP3 SWAP2 POP POP JUMP JUMPDEST PUSH1 0x0 PUSH2 0x3194 DUP3 DUP5 PUSH2 0x3105 JUMP JUMPDEST SWAP2 POP DUP2 SWAP1 POP SWAP3 SWAP2 POP POP JUMP JUMPDEST PUSH1 0x0 PUSH2 0x31AA DUP3 PUSH2 0x26E7 JUMP JUMPDEST SWAP2 POP PUSH2 0x31B5 DUP4 PUSH2 0x26E7 JUMP JUMPDEST SWAP3 POP DUP3 DUP3 MUL PUSH2 0x31C3 DUP2 PUSH2 0x26E7 JUMP JUMPDEST SWAP2 POP DUP3 DUP3 DIV DUP5 EQ DUP4 ISZERO OR PUSH2 0x31DA JUMPI PUSH2 0x31D9 PUSH2 0x2DCF JUMP JUMPDEST JUMPDEST POP SWAP3 SWAP2 POP POP JUMP JUMPDEST PUSH32 0x4E487B7100000000000000000000000000000000000000000000000000000000 PUSH1 0x0 MSTORE PUSH1 0x12 PUSH1 0x4 MSTORE PUSH1 0x24 PUSH1 0x0 REVERT JUMPDEST PUSH1 0x0 PUSH2 0x321B DUP3 PUSH2 0x26E7 JUMP JUMPDEST SWAP2 POP PUSH2 0x3226 DUP4 PUSH2 0x26E7 JUMP JUMPDEST SWAP3 POP DUP3 PUSH2 0x3236 JUMPI PUSH2 0x3235 PUSH2 0x31E1 JUMP JUMPDEST JUMPDEST DUP3 DUP3 DIV SWAP1 POP SWAP3 SWAP2 POP POP JUMP JUMPDEST PUSH1 0x0 PUSH1 0x20 DUP3 ADD SWAP1 POP DUP2 DUP2 SUB PUSH1 0x0 DUP4 ADD MSTORE PUSH2 0x325B DUP2 DUP5 PUSH2 0x2A17 JUMP JUMPDEST SWAP1 POP SWAP3 SWAP2 POP POP JUMP JUMPDEST PUSH1 0x0 DUP2 SWAP1 POP SWAP2 SWAP1 POP JUMP JUMPDEST PUSH1 0x0 PUSH8 0xFFFFFFFFFFFFFFFF DUP3 AND SWAP1 POP SWAP2 SWAP1 POP JUMP JUMPDEST PUSH1 0x0 PUSH2 0x329C PUSH2 0x3297 PUSH2 0x3292 DUP5 PUSH2 0x3263 JUMP JUMPDEST PUSH2 0x2B54 JUMP JUMPDEST PUSH2 0x326D JUMP JUMPDEST SWAP1 POP SWAP2 SWAP1 POP JUMP JUMPDEST PUSH2 0x32AC DUP2 PUSH2 0x3281 JUMP JUMPDEST DUP3 MSTORE POP POP JUMP JUMPDEST PUSH1 0x0 PUSH1 0x20 DUP3 ADD SWAP1 POP PUSH2 0x32C7 PUSH1 0x0 DUP4 ADD DUP5 PUSH2 0x32A3 JUMP JUMPDEST SWAP3 SWAP2 POP POP JUMP JUMPDEST PUSH1 0x0 DUP2 SWAP1 POP SWAP2 SWAP1 POP JUMP JUMPDEST PUSH2 0x32E8 PUSH2 0x32E3 DUP3 PUSH2 0x250F JUMP JUMPDEST PUSH2 0x32CD JUMP JUMPDEST DUP3 MSTORE POP POP JUMP JUMPDEST PUSH1 0x0 PUSH2 0x32FA DUP3 DUP5 PUSH2 0x32D7 JUMP JUMPDEST PUSH1 0x20 DUP3 ADD SWAP2 POP DUP2 SWAP1 POP SWAP3 SWAP2 POP POP JUMP JUMPDEST PUSH1 0x0 PUSH2 0x3314 DUP3 PUSH2 0x26E7 JUMP JUMPDEST SWAP2 POP PUSH32 0xFFFFFFFFFFFFFFFFFFFFFFFFFFFFFFFFFFFFFFFFFFFFFFFFFFFFFFFFFFFFFFFF DUP3 SUB PUSH2 0x3346 JUMPI PUSH2 0x3345 PUSH2 0x2DCF JUMP JUMPDEST JUMPDEST PUSH1 0x1 DUP3 ADD SWAP1 POP SWAP2 SWAP1 POP JUMP JUMPDEST PUSH1 0x0 PUSH1 0x40 DUP3 ADD SWAP1 POP PUSH2 0x3366 PUSH1 0x0 DUP4 ADD DUP6 PUSH2 0x29F7 JUMP JUMPDEST PUSH2 0x3373 PUSH1 0x20 DUP4 ADD DUP5 PUSH2 0x26F1 JUMP JUMPDEST SWAP4 SWAP3 POP POP POP JUMP JUMPDEST PUSH1 0x0 PUSH2 0x3385 DUP3 PUSH2 0x26E7 JUMP JUMPDEST SWAP2 POP PUSH2 0x3390 DUP4 PUSH2 0x26E7 JUMP JUMPDEST SWAP3 POP DUP3 DUP3 SUB SWAP1 POP DUP2 DUP2 GT ISZERO PUSH2 0x33A8 JUMPI PUSH2 0x33A7 PUSH2 0x2DCF JUMP JUMPDEST JUMPDEST SWAP3 SWAP2 POP POP JUMP INVALID LOG2 PUSH5 0x6970667358 0x22 SLT KECCAK256 0x2E PC PUSH24 0x380FE54E805301E757E819D932DC8DA5C81B652104CA272F 0xC8 BLOBHASH 0xB6 BASEFEE CALLER PUSH5 0x736F6C6343 STOP ADDMOD BYTE STOP CALLER "
        },
        "methodIdentifiers": {
          "LEADERBOARD_DURATION()": "c2d1aebe",
          "WITHDRAWAL_DELAY()": "0ebb172a",
          "closeLeaderboard(bytes32)": "78353ba6",
          "countryList(uint256)": "685142c7",
          "createLeaderboard(bytes32)": "99da7aac",
          "executeWithdrawal()": "fa45aa00",
          "fulfillDailyWinner(bytes32,string)": "3952172d",
          "fulfillTopArtists(bytes32,bytes32[])": "7fe93e31",
          "getArtistOdds(bytes32,string)": "0617c33b",
          "getBetsInCountry(bytes32)": "06dc39bf",
          "getTotalBetAmount(bytes32)": "97654961",
          "getTotalBetsOnArtist(bytes32,string)": "fa88e7e7",
          "initialize(address,address)": "485cc955",
          "isLeaderboardExpired(bytes32)": "77d0c7d3",
          "leaderboards(bytes32)": "51922353",
          "oracle()": "7dc0d1d0",
          "owner()": "8da5cb5b",
          "paused()": "5c975abb",
          "placeBet(bytes32,string)": "25100b4d",
          "renounceOwnership()": "715018a6",
          "requestWithdrawal()": "dbaf2145",
          "testOracleConnection()": "2ce3707e",
          "toggleContractActive()": "1385d24c",
          "transferOwnership(address)": "f2fde38b",
          "updateOracle(address)": "1cb44dfc",
          "validCountries(bytes32)": "66566a37",
          "withdrawalRequestTime()": "f59bdf85"
        }
      },
      "storageLayout": {
        "storage": [
          {
            "astId": 856,
            "contract": "contracts/ChartsBet.sol:ChartsBet",
            "label": "leaderboards",
            "offset": 0,
            "slot": "0",
            "type": "t_mapping(t_bytes32,t_struct(Leaderboard)851_storage)"
          },
          {
            "astId": 859,
            "contract": "contracts/ChartsBet.sol:ChartsBet",
            "label": "countryList",
            "offset": 0,
            "slot": "1",
            "type": "t_array(t_bytes32)dyn_storage"
          },
          {
            "astId": 862,
            "contract": "contracts/ChartsBet.sol:ChartsBet",
            "label": "oracle",
            "offset": 0,
            "slot": "2",
            "type": "t_contract(ChartsOracle)2162"
          },
          {
            "astId": 869,
            "contract": "contracts/ChartsBet.sol:ChartsBet",
            "label": "validCountries",
            "offset": 0,
            "slot": "3",
            "type": "t_mapping(t_bytes32,t_bool)"
          },
          {
            "astId": 874,
            "contract": "contracts/ChartsBet.sol:ChartsBet",
            "label": "withdrawalRequestTime",
            "offset": 0,
            "slot": "4",
            "type": "t_uint256"
          },
          {
            "astId": 1894,
            "contract": "contracts/ChartsBet.sol:ChartsBet",
            "label": "__gap",
            "offset": 0,
            "slot": "5",
            "type": "t_array(t_uint256)50_storage"
          }
        ],
        "types": {
          "t_address": {
            "encoding": "inplace",
            "label": "address",
            "numberOfBytes": "20"
          },
          "t_array(t_bytes32)dyn_storage": {
            "base": "t_bytes32",
            "encoding": "dynamic_array",
            "label": "bytes32[]",
            "numberOfBytes": "32"
          },
          "t_array(t_struct(Bet)824_storage)dyn_storage": {
            "base": "t_struct(Bet)824_storage",
            "encoding": "dynamic_array",
            "label": "struct ChartsBet.Bet[]",
            "numberOfBytes": "32"
          },
          "t_array(t_uint256)50_storage": {
            "base": "t_uint256",
            "encoding": "inplace",
            "label": "uint256[50]",
            "numberOfBytes": "1600"
          },
          "t_bool": {
            "encoding": "inplace",
            "label": "bool",
            "numberOfBytes": "1"
          },
          "t_bytes32": {
            "encoding": "inplace",
            "label": "bytes32",
            "numberOfBytes": "32"
          },
          "t_contract(ChartsOracle)2162": {
            "encoding": "inplace",
            "label": "contract ChartsOracle",
            "numberOfBytes": "20"
          },
          "t_mapping(t_bytes32,t_bool)": {
            "encoding": "mapping",
            "key": "t_bytes32",
            "label": "mapping(bytes32 => bool)",
            "numberOfBytes": "32",
            "value": "t_bool"
          },
          "t_mapping(t_bytes32,t_struct(Leaderboard)851_storage)": {
            "encoding": "mapping",
            "key": "t_bytes32",
            "label": "mapping(bytes32 => struct ChartsBet.Leaderboard)",
            "numberOfBytes": "32",
            "value": "t_struct(Leaderboard)851_storage"
          },
          "t_mapping(t_bytes32,t_uint256)": {
            "encoding": "mapping",
            "key": "t_bytes32",
            "label": "mapping(bytes32 => uint256)",
            "numberOfBytes": "32",
            "value": "t_uint256"
          },
          "t_string_storage": {
            "encoding": "bytes",
            "label": "string",
            "numberOfBytes": "32"
          },
          "t_struct(Bet)824_storage": {
            "encoding": "inplace",
            "label": "struct ChartsBet.Bet",
            "members": [
              {
                "astId": 817,
                "contract": "contracts/ChartsBet.sol:ChartsBet",
                "label": "user",
                "offset": 0,
                "slot": "0",
                "type": "t_address"
              },
              {
                "astId": 819,
                "contract": "contracts/ChartsBet.sol:ChartsBet",
                "label": "amount",
                "offset": 0,
                "slot": "1",
                "type": "t_uint256"
              },
              {
                "astId": 821,
                "contract": "contracts/ChartsBet.sol:ChartsBet",
                "label": "artist",
                "offset": 0,
                "slot": "2",
                "type": "t_string_storage"
              },
              {
                "astId": 823,
                "contract": "contracts/ChartsBet.sol:ChartsBet",
                "label": "odds",
                "offset": 0,
                "slot": "3",
                "type": "t_uint256"
              }
            ],
            "numberOfBytes": "128"
          },
          "t_struct(Leaderboard)851_storage": {
            "encoding": "inplace",
            "label": "struct ChartsBet.Leaderboard",
            "members": [
              {
                "astId": 826,
                "contract": "contracts/ChartsBet.sol:ChartsBet",
                "label": "country",
                "offset": 0,
                "slot": "0",
                "type": "t_bytes32"
              },
              {
                "astId": 828,
                "contract": "contracts/ChartsBet.sol:ChartsBet",
                "label": "winningArtist",
                "offset": 0,
                "slot": "1",
                "type": "t_string_storage"
              },
              {
                "astId": 830,
                "contract": "contracts/ChartsBet.sol:ChartsBet",
                "label": "isClosed",
                "offset": 0,
                "slot": "2",
                "type": "t_bool"
              },
              {
                "astId": 832,
                "contract": "contracts/ChartsBet.sol:ChartsBet",
                "label": "totalBetAmount",
                "offset": 0,
                "slot": "3",
                "type": "t_uint256"
              },
              {
                "astId": 834,
                "contract": "contracts/ChartsBet.sol:ChartsBet",
                "label": "startTime",
                "offset": 0,
                "slot": "4",
                "type": "t_uint256"
              },
              {
                "astId": 838,
                "contract": "contracts/ChartsBet.sol:ChartsBet",
                "label": "totalBetsOnArtist",
                "offset": 0,
                "slot": "5",
                "type": "t_mapping(t_bytes32,t_uint256)"
              },
              {
                "astId": 842,
                "contract": "contracts/ChartsBet.sol:ChartsBet",
                "label": "artistRank",
                "offset": 0,
                "slot": "6",
                "type": "t_mapping(t_bytes32,t_uint256)"
              },
              {
                "astId": 846,
                "contract": "contracts/ChartsBet.sol:ChartsBet",
                "label": "artistOdds",
                "offset": 0,
                "slot": "7",
                "type": "t_mapping(t_bytes32,t_uint256)"
              },
              {
                "astId": 850,
                "contract": "contracts/ChartsBet.sol:ChartsBet",
                "label": "bets",
                "offset": 0,
                "slot": "8",
                "type": "t_array(t_struct(Bet)824_storage)dyn_storage"
              }
            ],
            "numberOfBytes": "288"
          },
          "t_uint256": {
            "encoding": "inplace",
            "label": "uint256",
            "numberOfBytes": "32"
          }
        }
      }
    }
  }
}