{
  "contracts/ChartsBet.sol": {
    "ChartsBet": {
      "abi": [
        {
          "inputs": [
            {
              "internalType": "address",
              "name": "initialOwner",
              "type": "address"
            },
            {
              "internalType": "address",
              "name": "_chartsBetToken",
              "type": "address"
            }
          ],
          "stateMutability": "nonpayable",
          "type": "constructor"
        },
        {
          "inputs": [
            {
              "internalType": "address",
              "name": "bettor",
              "type": "address"
            }
          ],
          "name": "BetAlreadyPlaced",
          "type": "error"
        },
        {
          "inputs": [
            {
              "internalType": "uint256",
              "name": "amount",
              "type": "uint256"
            },
            {
              "internalType": "uint256",
              "name": "maxBet",
              "type": "uint256"
            }
          ],
          "name": "BetTooHigh",
          "type": "error"
        },
        {
          "inputs": [],
          "name": "EnforcedPause",
          "type": "error"
        },
        {
          "inputs": [],
          "name": "ExpectedPause",
          "type": "error"
        },
        {
          "inputs": [
            {
              "internalType": "uint256",
              "name": "required",
              "type": "uint256"
            },
            {
              "internalType": "uint256",
              "name": "available",
              "type": "uint256"
            }
          ],
          "name": "InsufficientContractBalance",
          "type": "error"
        },
        {
          "inputs": [
            {
              "internalType": "uint256",
              "name": "count",
              "type": "uint256"
            }
          ],
          "name": "InvalidArtistCount",
          "type": "error"
        },
        {
          "inputs": [
            {
              "internalType": "bytes32",
              "name": "country",
              "type": "bytes32"
            }
          ],
          "name": "InvalidCountry",
          "type": "error"
        },
        {
          "inputs": [],
          "name": "InvalidInitialization",
          "type": "error"
        },
        {
          "inputs": [],
          "name": "NoBetPlaced",
          "type": "error"
        },
        {
          "inputs": [],
          "name": "NoPayoutToClaim",
          "type": "error"
        },
        {
          "inputs": [],
          "name": "NotInitializing",
          "type": "error"
        },
        {
          "inputs": [
            {
              "internalType": "address",
              "name": "owner",
              "type": "address"
            }
          ],
          "name": "OwnableInvalidOwner",
          "type": "error"
        },
        {
          "inputs": [
            {
              "internalType": "address",
              "name": "account",
              "type": "address"
            }
          ],
          "name": "OwnableUnauthorizedAccount",
          "type": "error"
        },
        {
          "inputs": [],
          "name": "PoolAlreadyClosed",
          "type": "error"
        },
        {
          "inputs": [],
          "name": "PoolNotClosed",
          "type": "error"
        },
        {
          "inputs": [
            {
              "internalType": "uint256",
              "name": "currentTime",
              "type": "uint256"
            },
            {
              "internalType": "uint256",
              "name": "openingTime",
              "type": "uint256"
            },
            {
              "internalType": "uint256",
              "name": "closingTime",
              "type": "uint256"
            }
          ],
          "name": "PoolNotOpen",
          "type": "error"
        },
        {
          "inputs": [
            {
              "internalType": "uint256",
              "name": "currentTime",
              "type": "uint256"
            },
            {
              "internalType": "uint256",
              "name": "closingTime",
              "type": "uint256"
            }
          ],
          "name": "PoolNotReadyToClose",
          "type": "error"
        },
        {
          "inputs": [],
          "name": "ReentrancyGuardReentrantCall",
          "type": "error"
        },
        {
          "inputs": [],
          "name": "TokenTransferFailed",
          "type": "error"
        },
        {
          "anonymous": false,
          "inputs": [
            {
              "indexed": true,
              "internalType": "address",
              "name": "bettor",
              "type": "address"
            },
            {
              "indexed": true,
              "internalType": "bytes32",
              "name": "country",
              "type": "bytes32"
            },
            {
              "indexed": true,
              "internalType": "uint256",
              "name": "day",
              "type": "uint256"
            },
            {
              "indexed": false,
              "internalType": "bytes32",
              "name": "artist",
              "type": "bytes32"
            },
            {
              "indexed": false,
              "internalType": "uint256",
              "name": "amount",
              "type": "uint256"
            },
            {
              "indexed": false,
              "internalType": "uint256",
              "name": "odds",
              "type": "uint256"
            }
          ],
          "name": "BetPlaced",
          "type": "event"
        },
        {
          "anonymous": false,
          "inputs": [
            {
              "indexed": true,
              "internalType": "address",
              "name": "bettor",
              "type": "address"
            },
            {
              "indexed": true,
              "internalType": "bytes32",
              "name": "country",
              "type": "bytes32"
            },
            {
              "indexed": true,
              "internalType": "uint256",
              "name": "day",
              "type": "uint256"
            },
            {
              "indexed": false,
              "internalType": "uint256",
              "name": "amount",
              "type": "uint256"
            },
            {
              "indexed": false,
              "internalType": "bool",
              "name": "won",
              "type": "bool"
            }
          ],
          "name": "BetSettled",
          "type": "event"
        },
        {
          "anonymous": false,
          "inputs": [
            {
              "indexed": false,
              "internalType": "uint64",
              "name": "version",
              "type": "uint64"
            }
          ],
          "name": "Initialized",
          "type": "event"
        },
        {
          "anonymous": false,
          "inputs": [
            {
              "indexed": true,
              "internalType": "address",
              "name": "previousOwner",
              "type": "address"
            },
            {
              "indexed": true,
              "internalType": "address",
              "name": "newOwner",
              "type": "address"
            }
          ],
          "name": "OwnershipTransferred",
          "type": "event"
        },
        {
          "anonymous": false,
          "inputs": [
            {
              "indexed": false,
              "internalType": "address",
              "name": "account",
              "type": "address"
            }
          ],
          "name": "Paused",
          "type": "event"
        },
        {
          "anonymous": false,
          "inputs": [
            {
              "indexed": true,
              "internalType": "address",
              "name": "bettor",
              "type": "address"
            },
            {
              "indexed": false,
              "internalType": "uint256",
              "name": "amount",
              "type": "uint256"
            }
          ],
          "name": "PayoutClaimed",
          "type": "event"
        },
        {
          "anonymous": false,
          "inputs": [
            {
              "indexed": true,
              "internalType": "bytes32",
              "name": "country",
              "type": "bytes32"
            },
            {
              "indexed": true,
              "internalType": "uint256",
              "name": "day",
              "type": "uint256"
            },
            {
              "indexed": false,
              "internalType": "bytes32",
              "name": "winningArtist",
              "type": "bytes32"
            }
          ],
          "name": "PoolClosed",
          "type": "event"
        },
        {
          "anonymous": false,
          "inputs": [
            {
              "indexed": true,
              "internalType": "bytes32",
              "name": "country",
              "type": "bytes32"
            },
            {
              "indexed": true,
              "internalType": "uint256",
              "name": "day",
              "type": "uint256"
            },
            {
              "indexed": false,
              "internalType": "uint256",
              "name": "openingTime",
              "type": "uint256"
            },
            {
              "indexed": false,
              "internalType": "uint256",
              "name": "closingTime",
              "type": "uint256"
            }
          ],
          "name": "PoolOpened",
          "type": "event"
        },
        {
          "anonymous": false,
          "inputs": [
            {
              "indexed": false,
              "internalType": "address",
              "name": "account",
              "type": "address"
            }
          ],
          "name": "Unpaused",
          "type": "event"
        },
        {
          "inputs": [],
          "name": "BET_DURATION",
          "outputs": [
            {
              "internalType": "uint256",
              "name": "",
              "type": "uint256"
            }
          ],
          "stateMutability": "view",
          "type": "function"
        },
        {
          "inputs": [],
          "name": "MAX_BET",
          "outputs": [
            {
              "internalType": "uint256",
              "name": "",
              "type": "uint256"
            }
          ],
          "stateMutability": "view",
          "type": "function"
        },
        {
          "inputs": [],
          "name": "OUTSIDER_ODDS",
          "outputs": [
            {
              "internalType": "uint256",
              "name": "",
              "type": "uint256"
            }
          ],
          "stateMutability": "view",
          "type": "function"
        },
        {
          "inputs": [],
          "name": "RESERVE_PERCENTAGE",
          "outputs": [
            {
              "internalType": "uint256",
              "name": "",
              "type": "uint256"
            }
          ],
          "stateMutability": "view",
          "type": "function"
        },
        {
          "inputs": [
            {
              "internalType": "bytes32",
              "name": "",
              "type": "bytes32"
            },
            {
              "internalType": "bytes32",
              "name": "",
              "type": "bytes32"
            }
          ],
          "name": "artistRanks",
          "outputs": [
            {
              "internalType": "uint256",
              "name": "",
              "type": "uint256"
            }
          ],
          "stateMutability": "view",
          "type": "function"
        },
        {
          "inputs": [],
          "name": "chartsBetToken",
          "outputs": [
            {
              "internalType": "contract IERC20",
              "name": "",
              "type": "address"
            }
          ],
          "stateMutability": "view",
          "type": "function"
        },
        {
          "inputs": [],
          "name": "claimPayout",
          "outputs": [],
          "stateMutability": "nonpayable",
          "type": "function"
        },
        {
          "inputs": [
            {
              "internalType": "bytes32",
              "name": "country",
              "type": "bytes32"
            },
            {
              "internalType": "bytes32",
              "name": "winningArtist",
              "type": "bytes32"
            }
          ],
          "name": "closePoolAndAnnounceWinner",
          "outputs": [],
          "stateMutability": "nonpayable",
          "type": "function"
        },
        {
          "inputs": [],
          "name": "currentDay",
          "outputs": [
            {
              "internalType": "uint256",
              "name": "",
              "type": "uint256"
            }
          ],
          "stateMutability": "view",
          "type": "function"
        },
        {
          "inputs": [
            {
              "internalType": "bytes32",
              "name": "",
              "type": "bytes32"
            },
            {
              "internalType": "uint256",
              "name": "",
              "type": "uint256"
            }
          ],
          "name": "dailyPools",
          "outputs": [
            {
              "internalType": "uint256",
              "name": "openingTime",
              "type": "uint256"
            },
            {
              "internalType": "uint256",
              "name": "closingTime",
              "type": "uint256"
            },
            {
              "internalType": "uint256",
              "name": "totalBets",
              "type": "uint256"
            },
            {
              "internalType": "uint256",
              "name": "totalAmount",
              "type": "uint256"
            },
            {
              "internalType": "bytes32",
              "name": "winningArtist",
              "type": "bytes32"
            },
            {
              "internalType": "bool",
              "name": "closed",
              "type": "bool"
            }
          ],
          "stateMutability": "view",
          "type": "function"
        },
        {
          "inputs": [
            {
              "internalType": "bytes32",
              "name": "country",
              "type": "bytes32"
            },
            {
              "internalType": "bytes32",
              "name": "artist",
              "type": "bytes32"
            }
          ],
          "name": "getOdds",
          "outputs": [
            {
              "internalType": "uint256",
              "name": "",
              "type": "uint256"
            }
          ],
          "stateMutability": "view",
          "type": "function"
        },
        {
          "inputs": [
            {
              "internalType": "bytes32",
              "name": "country",
              "type": "bytes32"
            }
          ],
          "name": "getPoolInfo",
          "outputs": [
            {
              "internalType": "uint256",
              "name": "openingTime",
              "type": "uint256"
            },
            {
              "internalType": "uint256",
              "name": "closingTime",
              "type": "uint256"
            },
            {
              "internalType": "bool",
              "name": "closed",
              "type": "bool"
            },
            {
              "internalType": "uint256",
              "name": "totalBets",
              "type": "uint256"
            },
            {
              "internalType": "uint256",
              "name": "totalAmount",
              "type": "uint256"
            }
          ],
          "stateMutability": "view",
          "type": "function"
        },
        {
          "inputs": [],
          "name": "initialize",
          "outputs": [],
          "stateMutability": "nonpayable",
          "type": "function"
        },
        {
          "inputs": [],
          "name": "openAllDailyPools",
          "outputs": [],
          "stateMutability": "nonpayable",
          "type": "function"
        },
        {
          "inputs": [],
          "name": "owner",
          "outputs": [
            {
              "internalType": "address",
              "name": "",
              "type": "address"
            }
          ],
          "stateMutability": "view",
          "type": "function"
        },
        {
          "inputs": [],
          "name": "pause",
          "outputs": [],
          "stateMutability": "nonpayable",
          "type": "function"
        },
        {
          "inputs": [],
          "name": "paused",
          "outputs": [
            {
              "internalType": "bool",
              "name": "",
              "type": "bool"
            }
          ],
          "stateMutability": "view",
          "type": "function"
        },
        {
          "inputs": [
            {
              "internalType": "address",
              "name": "",
              "type": "address"
            }
          ],
          "name": "pendingPayouts",
          "outputs": [
            {
              "internalType": "uint256",
              "name": "",
              "type": "uint256"
            }
          ],
          "stateMutability": "view",
          "type": "function"
        },
        {
          "inputs": [
            {
              "internalType": "bytes32",
              "name": "country",
              "type": "bytes32"
            },
            {
              "internalType": "bytes32",
              "name": "artist",
              "type": "bytes32"
            },
            {
              "internalType": "uint256",
              "name": "amount",
              "type": "uint256"
            }
          ],
          "name": "placeBet",
          "outputs": [],
          "stateMutability": "nonpayable",
          "type": "function"
        },
        {
          "inputs": [],
          "name": "renounceOwnership",
          "outputs": [],
          "stateMutability": "nonpayable",
          "type": "function"
        },
        {
          "inputs": [
            {
              "internalType": "bytes32",
              "name": "country",
              "type": "bytes32"
            }
          ],
          "name": "settleBet",
          "outputs": [],
          "stateMutability": "nonpayable",
          "type": "function"
        },
        {
          "inputs": [
            {
              "internalType": "bytes32",
              "name": "",
              "type": "bytes32"
            },
            {
              "internalType": "uint256",
              "name": "",
              "type": "uint256"
            }
          ],
          "name": "top10Artists",
          "outputs": [
            {
              "internalType": "bytes32",
              "name": "",
              "type": "bytes32"
            }
          ],
          "stateMutability": "view",
          "type": "function"
        },
        {
          "inputs": [
            {
              "internalType": "address",
              "name": "newOwner",
              "type": "address"
            }
          ],
          "name": "transferOwnership",
          "outputs": [],
          "stateMutability": "nonpayable",
          "type": "function"
        },
        {
          "inputs": [],
          "name": "unpause",
          "outputs": [],
          "stateMutability": "nonpayable",
          "type": "function"
        },
        {
          "inputs": [
            {
              "internalType": "bytes32",
              "name": "country",
              "type": "bytes32"
            },
            {
              "internalType": "bytes32[]",
              "name": "artists",
              "type": "bytes32[]"
            }
          ],
          "name": "updateTop10",
          "outputs": [],
          "stateMutability": "nonpayable",
          "type": "function"
        },
        {
          "inputs": [
            {
              "internalType": "bytes32",
              "name": "",
              "type": "bytes32"
            }
          ],
          "name": "validCountries",
          "outputs": [
            {
              "internalType": "bool",
              "name": "",
              "type": "bool"
            }
          ],
          "stateMutability": "view",
          "type": "function"
        },
        {
          "inputs": [
            {
              "internalType": "uint256",
              "name": "amount",
              "type": "uint256"
            }
          ],
          "name": "withdrawTokens",
          "outputs": [],
          "stateMutability": "nonpayable",
          "type": "function"
        }
      ],
      "evm": {
        "bytecode": {
          "linkReferences": {},
          "object": "60806040523480156200001157600080fd5b506040516200284438038062002844833981810160405281019062000037919062000257565b81600073ffffffffffffffffffffffffffffffffffffffff168173ffffffffffffffffffffffffffffffffffffffff1603620000ad5760006040517f1e4fbdf7000000000000000000000000000000000000000000000000000000008152600401620000a49190620002af565b60405180910390fd5b620000be816200012960201b60201c565b5060008060146101000a81548160ff0219169083151502179055506001808190555080600260006101000a81548173ffffffffffffffffffffffffffffffffffffffff021916908373ffffffffffffffffffffffffffffffffffffffff1602179055505050620002cc565b60008060009054906101000a900473ffffffffffffffffffffffffffffffffffffffff169050816000806101000a81548173ffffffffffffffffffffffffffffffffffffffff021916908373ffffffffffffffffffffffffffffffffffffffff1602179055508173ffffffffffffffffffffffffffffffffffffffff168173ffffffffffffffffffffffffffffffffffffffff167f8be0079c531659141344cd1fd0a4f28419497f9722a3daafe3b4186f6b6457e060405160405180910390a35050565b600080fd5b600073ffffffffffffffffffffffffffffffffffffffff82169050919050565b60006200021f82620001f2565b9050919050565b620002318162000212565b81146200023d57600080fd5b50565b600081519050620002518162000226565b92915050565b60008060408385031215620002715762000270620001ed565b5b6000620002818582860162000240565b9250506020620002948582860162000240565b9150509250929050565b620002a98162000212565b82525050565b6000602082019050620002c660008301846200029e565b92915050565b61256880620002dc6000396000f3fe608060405234801561001057600080fd5b50600436106101a95760003560e01c806374792153116100f9578063a32c90c911610097578063da3f857811610071578063da3f857814610467578063e53d4c2d14610497578063e88499a9146104b5578063f2fde38b146104bf576101a9565b8063a32c90c9146103f6578063b49d65eb14610414578063d32ecee314610449576101a9565b80637e95b523116100d35780637e95b523146103a65780638129fc1c146103c45780638456cb59146103ce5780638da5cb5b146103d8576101a9565b80637479215314610328578063776eba8e14610346578063784712f214610376576101a9565b80634ae701fe116101665780635c975abb116101405780635c975abb146102b457806366566a37146102d2578063675f653714610302578063715018a61461031e576101a9565b80634ae701fe1461025e5780635b68b7aa1461027a5780635c9302c914610296576101a9565b806309f2c019146101ae57806314989554146101e25780631a9db790146101fe5780632e1413df14610208578063315a095d146102385780633f4ba83a14610254575b600080fd5b6101c860048036038101906101c39190611d0a565b6104db565b6040516101d9959493929190611d6b565b60405180910390f35b6101fc60048036038101906101f79190611e23565b610546565b005b610206610678565b005b610222600480360381019061021d9190611e83565b6108aa565b60405161022f9190611ec3565b60405180910390f35b610252600480360381019061024d9190611f0a565b6108cf565b005b61025c6109b7565b005b61027860048036038101906102739190611f37565b6109c9565b005b610294600480360381019061028f9190611e83565b610e0b565b005b61029e610f3b565b6040516102ab9190611ec3565b60405180910390f35b6102bc610f41565b6040516102c99190611f8a565b60405180910390f35b6102ec60048036038101906102e79190611d0a565b610f57565b6040516102f99190611f8a565b60405180910390f35b61031c60048036038101906103179190611d0a565b610f77565b005b61032661123c565b005b610330611250565b60405161033d9190611ec3565b60405180910390f35b610360600480360381019061035b9190611e83565b611255565b60405161036d9190611ec3565b60405180910390f35b610390600480360381019061038b9190612003565b6112c1565b60405161039d9190611ec3565b60405180910390f35b6103ae6112d9565b6040516103bb9190611ec3565b60405180910390f35b6103cc6112e6565b005b6103d6611607565b005b6103e0611619565b6040516103ed919061203f565b60405180910390f35b6103fe611642565b60405161040b91906120b9565b60405180910390f35b61042e600480360381019061042991906120d4565b611668565b60405161044096959493929190612123565b60405180910390f35b6104516116be565b60405161045e9190611ec3565b60405180910390f35b610481600480360381019061047c91906120d4565b6116c4565b60405161048e9190612184565b60405180910390f35b61049f6116f5565b6040516104ac9190611ec3565b60405180910390f35b6104bd6116fc565b005b6104d960048036038101906104d49190612003565b6118f6565b005b60008060008060008060046000888152602001908152602001600020600060085481526020019081526020016000209050806000015481600101548260060160009054906101000a900460ff1683600301548460040154955095509550955095505091939590929450565b61054e61197c565b600a828290501461059957818190506040517f2dcd48eb0000000000000000000000000000000000000000000000000000000081526004016105909190611ec3565b60405180910390fd5b6005600084815260200190815260200160002060006105b89190611c8c565b60005b600a81101561067257600560008581526020019081526020016000208383838181106105ea576105e961219f565b5b90506020020135908060018154018082558091505060019003906000526020600020016000909190919091505560018161062491906121fd565b60066000868152602001908152602001600020600085858581811061064c5761064b61219f565b5b9050602002013581526020019081526020016000208190555080806001019150506105bb565b50505050565b61068061197c565b620151804261068f9190612260565b60088190555060006040518061010001604052807f575700000000000000000000000000000000000000000000000000000000000081526020017f425200000000000000000000000000000000000000000000000000000000000081526020017f444500000000000000000000000000000000000000000000000000000000000081526020017f455300000000000000000000000000000000000000000000000000000000000081526020017f465200000000000000000000000000000000000000000000000000000000000081526020017f495400000000000000000000000000000000000000000000000000000000000081526020017f505400000000000000000000000000000000000000000000000000000000000081526020017f5553000000000000000000000000000000000000000000000000000000000000815250905060005b60088110156108a65760008282600881106107f4576107f361219f565b5b60200201519050600060046000838152602001908152602001600020600060085481526020019081526020016000209050600081600001540361089757428160000181905550620151804261084991906121fd565b8160010181905550600854827f6d81dac161f941b26501b4cd6606ed14e343ce5e58ba8f62de9a2071f6be0fd98360000154846001015460405161088e929190612291565b60405180910390a35b505080806001019150506107d6565b5050565b6006602052816000526040600020602052806000526040600020600091509150505481565b6108d761197c565b600260009054906101000a900473ffffffffffffffffffffffffffffffffffffffff1673ffffffffffffffffffffffffffffffffffffffff1663a9059cbb61091d611619565b836040518363ffffffff1660e01b815260040161093b9291906122ba565b6020604051808303816000875af115801561095a573d6000803e3d6000fd5b505050506040513d601f19601f8201168201806040525081019061097e919061230f565b6109b4576040517f045c4b0200000000000000000000000000000000000000000000000000000000815260040160405180910390fd5b50565b6109bf61197c565b6109c7611a03565b565b6109d1611a65565b6109d9611aa6565b6003600084815260200190815260200160002060009054906101000a900460ff16610a3b57826040517f190ed2af000000000000000000000000000000000000000000000000000000008152600401610a329190612184565b60405180910390fd5b6000600460008581526020019081526020016000206000600854815260200190815260200160002090508060000154421080610a7b575080600101544210155b15610ac95742816000015482600101546040517fb866e502000000000000000000000000000000000000000000000000000000008152600401610ac09392919061233c565b60405180910390fd5b60008160020160003373ffffffffffffffffffffffffffffffffffffffff1673ffffffffffffffffffffffffffffffffffffffff1681526020019081526020016000206002015414610b5257336040517f660f02e8000000000000000000000000000000000000000000000000000000008152600401610b49919061203f565b60405180910390fd5b683635c9adc5dea00000821115610bab5781683635c9adc5dea000006040517f36165f66000000000000000000000000000000000000000000000000000000008152600401610ba2929190612291565b60405180910390fd5b600260009054906101000a900473ffffffffffffffffffffffffffffffffffffffff1673ffffffffffffffffffffffffffffffffffffffff166323b872dd3330856040518463ffffffff1660e01b8152600401610c0a93929190612373565b6020604051808303816000875af1158015610c29573d6000803e3d6000fd5b505050506040513d601f19601f82011682018060405250810190610c4d919061230f565b610c83576040517f045c4b0200000000000000000000000000000000000000000000000000000000815260040160405180910390fd5b6000610c8f8585611255565b905060405180608001604052803373ffffffffffffffffffffffffffffffffffffffff168152602001858152602001848152602001828152508260020160003373ffffffffffffffffffffffffffffffffffffffff1673ffffffffffffffffffffffffffffffffffffffff16815260200190815260200160002060008201518160000160006101000a81548173ffffffffffffffffffffffffffffffffffffffff021916908373ffffffffffffffffffffffffffffffffffffffff160217905550602082015181600101556040820151816002015560608201518160030155905050816003016000815480929190610d86906123aa565b919050555082826004016000828254610d9f91906121fd565b92505081905550600854853373ffffffffffffffffffffffffffffffffffffffff167f558994eb4efaf94bd607117c30a36b6623a6f3fcff263a773f37d634733fd2c9878786604051610df4939291906123f2565b60405180910390a45050610e06611aec565b505050565b610e1361197c565b6000600460008481526020019081526020016000206000600854815260200190815260200160002090508060010154421015610e8c574281600101546040517f14a5f30a000000000000000000000000000000000000000000000000000000008152600401610e83929190612291565b60405180910390fd5b8060060160009054906101000a900460ff1615610ed5576040517f8771584c00000000000000000000000000000000000000000000000000000000815260040160405180910390fd5b81816005018190555060018160060160006101000a81548160ff021916908315150217905550600854837f4a1c15136cda23d049da8fcc55a115cc1ca2dafc28f8d2ca647a3b4c6b42e05b84604051610f2e9190612184565b60405180910390a3505050565b60085481565b60008060149054906101000a900460ff16905090565b60036020528060005260406000206000915054906101000a900460ff1681565b610f7f611aa6565b6000600460008381526020019081526020016000206000600854815260200190815260200160002090508060060160009054906101000a900460ff16610ff1576040517ff78030f500000000000000000000000000000000000000000000000000000000815260040160405180910390fd5b60008160020160003373ffffffffffffffffffffffffffffffffffffffff1673ffffffffffffffffffffffffffffffffffffffff16815260200190815260200160002090506000816002015403611074576040517f028e52a100000000000000000000000000000000000000000000000000000000815260040160405180910390fd5b6000826005015482600101541490506000816110915760006110b2565b6064836003015484600201546110a79190612429565b6110b19190612260565b5b905060006064603285600201546110c99190612429565b6110d39190612260565b84600201546110e291906121fd565b90508082116110f157816110f3565b805b91508460020160003373ffffffffffffffffffffffffffffffffffffffff1673ffffffffffffffffffffffffffffffffffffffff168152602001908152602001600020600080820160006101000a81549073ffffffffffffffffffffffffffffffffffffffff0219169055600182016000905560028201600090556003820160009055505060008211156111d85781600760003373ffffffffffffffffffffffffffffffffffffffff1673ffffffffffffffffffffffffffffffffffffffff16815260200190815260200160002060008282546111d091906121fd565b925050819055505b600854863373ffffffffffffffffffffffffffffffffffffffff167f3b8fe5da6ddddb7951721ac65697f3b319db8bf4413601435c2576983580f559858760405161122492919061246b565b60405180910390a45050505050611239611aec565b50565b61124461197c565b61124e6000611af5565b565b603281565b600080600660008581526020019081526020016000206000848152602001908152602001600020549050600081036112925761015e9150506112bb565b60146001826112a19190612494565b6112ab9190612429565b60786112b791906121fd565b9150505b92915050565b60076020528060005260406000206000915090505481565b683635c9adc5dea0000081565b60006112f0611bb9565b905060008160000160089054906101000a900460ff1615905060008260000160009054906101000a900467ffffffffffffffff1690506000808267ffffffffffffffff1614801561133e5750825b9050600060018367ffffffffffffffff16148015611373575060003073ffffffffffffffffffffffffffffffffffffffff163b145b905081158015611381575080155b156113b8576040517ff92ee8a900000000000000000000000000000000000000000000000000000000815260040160405180910390fd5b60018560000160006101000a81548167ffffffffffffffff021916908367ffffffffffffffff16021790555083156114085760018560000160086101000a81548160ff0219169083151502179055505b60006040518061010001604052807f575700000000000000000000000000000000000000000000000000000000000081526020017f425200000000000000000000000000000000000000000000000000000000000081526020017f444500000000000000000000000000000000000000000000000000000000000081526020017f455300000000000000000000000000000000000000000000000000000000000081526020017f465200000000000000000000000000000000000000000000000000000000000081526020017f495400000000000000000000000000000000000000000000000000000000000081526020017f505400000000000000000000000000000000000000000000000000000000000081526020017f5553000000000000000000000000000000000000000000000000000000000000815250905060005b60088110156115a25760016003600084846008811061156b5761156a61219f565b5b6020020151815260200190815260200160002060006101000a81548160ff0219169083151502179055508080600101915050611549565b505083156116005760008560000160086101000a81548160ff0219169083151502179055507fc7f505b2f371ae2175ee4913f4499e1f2633a7b5936321eed1cdaeb6115181d260016040516115f79190612517565b60405180910390a15b5050505050565b61160f61197c565b611617611be1565b565b60008060009054906101000a900473ffffffffffffffffffffffffffffffffffffffff16905090565b600260009054906101000a900473ffffffffffffffffffffffffffffffffffffffff1681565b6004602052816000526040600020602052806000526040600020600091509150508060000154908060010154908060030154908060040154908060050154908060060160009054906101000a900460ff16905086565b61015e81565b600560205281600052604060002081815481106116e057600080fd5b90600052602060002001600091509150505481565b6201518081565b611704611aa6565b6000600760003373ffffffffffffffffffffffffffffffffffffffff1673ffffffffffffffffffffffffffffffffffffffff16815260200190815260200160002054905060008103611782576040517f3c90366100000000000000000000000000000000000000000000000000000000815260040160405180910390fd5b6000600760003373ffffffffffffffffffffffffffffffffffffffff1673ffffffffffffffffffffffffffffffffffffffff16815260200190815260200160002081905550600260009054906101000a900473ffffffffffffffffffffffffffffffffffffffff1673ffffffffffffffffffffffffffffffffffffffff1663a9059cbb33836040518363ffffffff1660e01b81526004016118249291906122ba565b6020604051808303816000875af1158015611843573d6000803e3d6000fd5b505050506040513d601f19601f82011682018060405250810190611867919061230f565b61189d576040517f045c4b0200000000000000000000000000000000000000000000000000000000815260040160405180910390fd5b3373ffffffffffffffffffffffffffffffffffffffff167fec68461f5d4cc45c89e914cb8826a966c73dd35e5f97815ece0a01ffa4a025a6826040516118e39190611ec3565b60405180910390a2506118f4611aec565b565b6118fe61197c565b600073ffffffffffffffffffffffffffffffffffffffff168173ffffffffffffffffffffffffffffffffffffffff16036119705760006040517f1e4fbdf7000000000000000000000000000000000000000000000000000000008152600401611967919061203f565b60405180910390fd5b61197981611af5565b50565b611984611c44565b73ffffffffffffffffffffffffffffffffffffffff166119a2611619565b73ffffffffffffffffffffffffffffffffffffffff1614611a01576119c5611c44565b6040517f118cdaa70000000000000000000000000000000000000000000000000000000081526004016119f8919061203f565b60405180910390fd5b565b611a0b611c4c565b60008060146101000a81548160ff0219169083151502179055507f5db9ee0a495bf2e6ff9c91a7834c1ba4fdd244a5e8aa4e537bd38aeae4b073aa611a4e611c44565b604051611a5b919061203f565b60405180910390a1565b611a6d610f41565b15611aa4576040517fd93c066500000000000000000000000000000000000000000000000000000000815260040160405180910390fd5b565b600260015403611ae2576040517f3ee5aeb500000000000000000000000000000000000000000000000000000000815260040160405180910390fd5b6002600181905550565b60018081905550565b60008060009054906101000a900473ffffffffffffffffffffffffffffffffffffffff169050816000806101000a81548173ffffffffffffffffffffffffffffffffffffffff021916908373ffffffffffffffffffffffffffffffffffffffff1602179055508173ffffffffffffffffffffffffffffffffffffffff168173ffffffffffffffffffffffffffffffffffffffff167f8be0079c531659141344cd1fd0a4f28419497f9722a3daafe3b4186f6b6457e060405160405180910390a35050565b60007ff0c57e16840df040f15088dc2f81fe391c3923bec73e23a9662efc9c229c6a00905090565b611be9611a65565b6001600060146101000a81548160ff0219169083151502179055507f62e78cea01bee320cd4e420270b5ea74000d11b0c9f74754ebdbfc544b05a258611c2d611c44565b604051611c3a919061203f565b60405180910390a1565b600033905090565b611c54610f41565b611c8a576040517f8dfc202b00000000000000000000000000000000000000000000000000000000815260040160405180910390fd5b565b5080546000825590600052602060002090810190611caa9190611cad565b50565b5b80821115611cc6576000816000905550600101611cae565b5090565b600080fd5b600080fd5b6000819050919050565b611ce781611cd4565b8114611cf257600080fd5b50565b600081359050611d0481611cde565b92915050565b600060208284031215611d2057611d1f611cca565b5b6000611d2e84828501611cf5565b91505092915050565b6000819050919050565b611d4a81611d37565b82525050565b60008115159050919050565b611d6581611d50565b82525050565b600060a082019050611d806000830188611d41565b611d8d6020830187611d41565b611d9a6040830186611d5c565b611da76060830185611d41565b611db46080830184611d41565b9695505050505050565b600080fd5b600080fd5b600080fd5b60008083601f840112611de357611de2611dbe565b5b8235905067ffffffffffffffff811115611e0057611dff611dc3565b5b602083019150836020820283011115611e1c57611e1b611dc8565b5b9250929050565b600080600060408486031215611e3c57611e3b611cca565b5b6000611e4a86828701611cf5565b935050602084013567ffffffffffffffff811115611e6b57611e6a611ccf565b5b611e7786828701611dcd565b92509250509250925092565b60008060408385031215611e9a57611e99611cca565b5b6000611ea885828601611cf5565b9250506020611eb985828601611cf5565b9150509250929050565b6000602082019050611ed86000830184611d41565b92915050565b611ee781611d37565b8114611ef257600080fd5b50565b600081359050611f0481611ede565b92915050565b600060208284031215611f2057611f1f611cca565b5b6000611f2e84828501611ef5565b91505092915050565b600080600060608486031215611f5057611f4f611cca565b5b6000611f5e86828701611cf5565b9350506020611f6f86828701611cf5565b9250506040611f8086828701611ef5565b9150509250925092565b6000602082019050611f9f6000830184611d5c565b92915050565b600073ffffffffffffffffffffffffffffffffffffffff82169050919050565b6000611fd082611fa5565b9050919050565b611fe081611fc5565b8114611feb57600080fd5b50565b600081359050611ffd81611fd7565b92915050565b60006020828403121561201957612018611cca565b5b600061202784828501611fee565b91505092915050565b61203981611fc5565b82525050565b60006020820190506120546000830184612030565b92915050565b6000819050919050565b600061207f61207a61207584611fa5565b61205a565b611fa5565b9050919050565b600061209182612064565b9050919050565b60006120a382612086565b9050919050565b6120b381612098565b82525050565b60006020820190506120ce60008301846120aa565b92915050565b600080604083850312156120eb576120ea611cca565b5b60006120f985828601611cf5565b925050602061210a85828601611ef5565b9150509250929050565b61211d81611cd4565b82525050565b600060c0820190506121386000830189611d41565b6121456020830188611d41565b6121526040830187611d41565b61215f6060830186611d41565b61216c6080830185612114565b61217960a0830184611d5c565b979650505050505050565b60006020820190506121996000830184612114565b92915050565b7f4e487b7100000000000000000000000000000000000000000000000000000000600052603260045260246000fd5b7f4e487b7100000000000000000000000000000000000000000000000000000000600052601160045260246000fd5b600061220882611d37565b915061221383611d37565b925082820190508082111561222b5761222a6121ce565b5b92915050565b7f4e487b7100000000000000000000000000000000000000000000000000000000600052601260045260246000fd5b600061226b82611d37565b915061227683611d37565b92508261228657612285612231565b5b828204905092915050565b60006040820190506122a66000830185611d41565b6122b36020830184611d41565b9392505050565b60006040820190506122cf6000830185612030565b6122dc6020830184611d41565b9392505050565b6122ec81611d50565b81146122f757600080fd5b50565b600081519050612309816122e3565b92915050565b60006020828403121561232557612324611cca565b5b6000612333848285016122fa565b91505092915050565b60006060820190506123516000830186611d41565b61235e6020830185611d41565b61236b6040830184611d41565b949350505050565b60006060820190506123886000830186612030565b6123956020830185612030565b6123a26040830184611d41565b949350505050565b60006123b582611d37565b91507fffffffffffffffffffffffffffffffffffffffffffffffffffffffffffffffff82036123e7576123e66121ce565b5b600182019050919050565b60006060820190506124076000830186612114565b6124146020830185611d41565b6124216040830184611d41565b949350505050565b600061243482611d37565b915061243f83611d37565b925082820261244d81611d37565b91508282048414831517612464576124636121ce565b5b5092915050565b60006040820190506124806000830185611d41565b61248d6020830184611d5c565b9392505050565b600061249f82611d37565b91506124aa83611d37565b92508282039050818111156124c2576124c16121ce565b5b92915050565b6000819050919050565b600067ffffffffffffffff82169050919050565b60006125016124fc6124f7846124c8565b61205a565b6124d2565b9050919050565b612511816124e6565b82525050565b600060208201905061252c6000830184612508565b9291505056fea2646970667358221220928b143da81bfb32459e38351276a794fe6245e961eee39abb13bb136a2a03fa64736f6c63430008180033",
          "opcodes": "PUSH1 0x80 PUSH1 0x40 MSTORE CALLVALUE DUP1 ISZERO PUSH3 0x11 JUMPI PUSH1 0x0 DUP1 REVERT JUMPDEST POP PUSH1 0x40 MLOAD PUSH3 0x2844 CODESIZE SUB DUP1 PUSH3 0x2844 DUP4 CODECOPY DUP2 DUP2 ADD PUSH1 0x40 MSTORE DUP2 ADD SWAP1 PUSH3 0x37 SWAP2 SWAP1 PUSH3 0x257 JUMP JUMPDEST DUP2 PUSH1 0x0 PUSH20 0xFFFFFFFFFFFFFFFFFFFFFFFFFFFFFFFFFFFFFFFF AND DUP2 PUSH20 0xFFFFFFFFFFFFFFFFFFFFFFFFFFFFFFFFFFFFFFFF AND SUB PUSH3 0xAD JUMPI PUSH1 0x0 PUSH1 0x40 MLOAD PUSH32 0x1E4FBDF700000000000000000000000000000000000000000000000000000000 DUP2 MSTORE PUSH1 0x4 ADD PUSH3 0xA4 SWAP2 SWAP1 PUSH3 0x2AF JUMP JUMPDEST PUSH1 0x40 MLOAD DUP1 SWAP2 SUB SWAP1 REVERT JUMPDEST PUSH3 0xBE DUP2 PUSH3 0x129 PUSH1 0x20 SHL PUSH1 0x20 SHR JUMP JUMPDEST POP PUSH1 0x0 DUP1 PUSH1 0x14 PUSH2 0x100 EXP DUP2 SLOAD DUP2 PUSH1 0xFF MUL NOT AND SWAP1 DUP4 ISZERO ISZERO MUL OR SWAP1 SSTORE POP PUSH1 0x1 DUP1 DUP2 SWAP1 SSTORE POP DUP1 PUSH1 0x2 PUSH1 0x0 PUSH2 0x100 EXP DUP2 SLOAD DUP2 PUSH20 0xFFFFFFFFFFFFFFFFFFFFFFFFFFFFFFFFFFFFFFFF MUL NOT AND SWAP1 DUP4 PUSH20 0xFFFFFFFFFFFFFFFFFFFFFFFFFFFFFFFFFFFFFFFF AND MUL OR SWAP1 SSTORE POP POP POP PUSH3 0x2CC JUMP JUMPDEST PUSH1 0x0 DUP1 PUSH1 0x0 SWAP1 SLOAD SWAP1 PUSH2 0x100 EXP SWAP1 DIV PUSH20 0xFFFFFFFFFFFFFFFFFFFFFFFFFFFFFFFFFFFFFFFF AND SWAP1 POP DUP2 PUSH1 0x0 DUP1 PUSH2 0x100 EXP DUP2 SLOAD DUP2 PUSH20 0xFFFFFFFFFFFFFFFFFFFFFFFFFFFFFFFFFFFFFFFF MUL NOT AND SWAP1 DUP4 PUSH20 0xFFFFFFFFFFFFFFFFFFFFFFFFFFFFFFFFFFFFFFFF AND MUL OR SWAP1 SSTORE POP DUP2 PUSH20 0xFFFFFFFFFFFFFFFFFFFFFFFFFFFFFFFFFFFFFFFF AND DUP2 PUSH20 0xFFFFFFFFFFFFFFFFFFFFFFFFFFFFFFFFFFFFFFFF AND PUSH32 0x8BE0079C531659141344CD1FD0A4F28419497F9722A3DAAFE3B4186F6B6457E0 PUSH1 0x40 MLOAD PUSH1 0x40 MLOAD DUP1 SWAP2 SUB SWAP1 LOG3 POP POP JUMP JUMPDEST PUSH1 0x0 DUP1 REVERT JUMPDEST PUSH1 0x0 PUSH20 0xFFFFFFFFFFFFFFFFFFFFFFFFFFFFFFFFFFFFFFFF DUP3 AND SWAP1 POP SWAP2 SWAP1 POP JUMP JUMPDEST PUSH1 0x0 PUSH3 0x21F DUP3 PUSH3 0x1F2 JUMP JUMPDEST SWAP1 POP SWAP2 SWAP1 POP JUMP JUMPDEST PUSH3 0x231 DUP2 PUSH3 0x212 JUMP JUMPDEST DUP2 EQ PUSH3 0x23D JUMPI PUSH1 0x0 DUP1 REVERT JUMPDEST POP JUMP JUMPDEST PUSH1 0x0 DUP2 MLOAD SWAP1 POP PUSH3 0x251 DUP2 PUSH3 0x226 JUMP JUMPDEST SWAP3 SWAP2 POP POP JUMP JUMPDEST PUSH1 0x0 DUP1 PUSH1 0x40 DUP4 DUP6 SUB SLT ISZERO PUSH3 0x271 JUMPI PUSH3 0x270 PUSH3 0x1ED JUMP JUMPDEST JUMPDEST PUSH1 0x0 PUSH3 0x281 DUP6 DUP3 DUP7 ADD PUSH3 0x240 JUMP JUMPDEST SWAP3 POP POP PUSH1 0x20 PUSH3 0x294 DUP6 DUP3 DUP7 ADD PUSH3 0x240 JUMP JUMPDEST SWAP2 POP POP SWAP3 POP SWAP3 SWAP1 POP JUMP JUMPDEST PUSH3 0x2A9 DUP2 PUSH3 0x212 JUMP JUMPDEST DUP3 MSTORE POP POP JUMP JUMPDEST PUSH1 0x0 PUSH1 0x20 DUP3 ADD SWAP1 POP PUSH3 0x2C6 PUSH1 0x0 DUP4 ADD DUP5 PUSH3 0x29E JUMP JUMPDEST SWAP3 SWAP2 POP POP JUMP JUMPDEST PUSH2 0x2568 DUP1 PUSH3 0x2DC PUSH1 0x0 CODECOPY PUSH1 0x0 RETURN INVALID PUSH1 0x80 PUSH1 0x40 MSTORE CALLVALUE DUP1 ISZERO PUSH2 0x10 JUMPI PUSH1 0x0 DUP1 REVERT JUMPDEST POP PUSH1 0x4 CALLDATASIZE LT PUSH2 0x1A9 JUMPI PUSH1 0x0 CALLDATALOAD PUSH1 0xE0 SHR DUP1 PUSH4 0x74792153 GT PUSH2 0xF9 JUMPI DUP1 PUSH4 0xA32C90C9 GT PUSH2 0x97 JUMPI DUP1 PUSH4 0xDA3F8578 GT PUSH2 0x71 JUMPI DUP1 PUSH4 0xDA3F8578 EQ PUSH2 0x467 JUMPI DUP1 PUSH4 0xE53D4C2D EQ PUSH2 0x497 JUMPI DUP1 PUSH4 0xE88499A9 EQ PUSH2 0x4B5 JUMPI DUP1 PUSH4 0xF2FDE38B EQ PUSH2 0x4BF JUMPI PUSH2 0x1A9 JUMP JUMPDEST DUP1 PUSH4 0xA32C90C9 EQ PUSH2 0x3F6 JUMPI DUP1 PUSH4 0xB49D65EB EQ PUSH2 0x414 JUMPI DUP1 PUSH4 0xD32ECEE3 EQ PUSH2 0x449 JUMPI PUSH2 0x1A9 JUMP JUMPDEST DUP1 PUSH4 0x7E95B523 GT PUSH2 0xD3 JUMPI DUP1 PUSH4 0x7E95B523 EQ PUSH2 0x3A6 JUMPI DUP1 PUSH4 0x8129FC1C EQ PUSH2 0x3C4 JUMPI DUP1 PUSH4 0x8456CB59 EQ PUSH2 0x3CE JUMPI DUP1 PUSH4 0x8DA5CB5B EQ PUSH2 0x3D8 JUMPI PUSH2 0x1A9 JUMP JUMPDEST DUP1 PUSH4 0x74792153 EQ PUSH2 0x328 JUMPI DUP1 PUSH4 0x776EBA8E EQ PUSH2 0x346 JUMPI DUP1 PUSH4 0x784712F2 EQ PUSH2 0x376 JUMPI PUSH2 0x1A9 JUMP JUMPDEST DUP1 PUSH4 0x4AE701FE GT PUSH2 0x166 JUMPI DUP1 PUSH4 0x5C975ABB GT PUSH2 0x140 JUMPI DUP1 PUSH4 0x5C975ABB EQ PUSH2 0x2B4 JUMPI DUP1 PUSH4 0x66566A37 EQ PUSH2 0x2D2 JUMPI DUP1 PUSH4 0x675F6537 EQ PUSH2 0x302 JUMPI DUP1 PUSH4 0x715018A6 EQ PUSH2 0x31E JUMPI PUSH2 0x1A9 JUMP JUMPDEST DUP1 PUSH4 0x4AE701FE EQ PUSH2 0x25E JUMPI DUP1 PUSH4 0x5B68B7AA EQ PUSH2 0x27A JUMPI DUP1 PUSH4 0x5C9302C9 EQ PUSH2 0x296 JUMPI PUSH2 0x1A9 JUMP JUMPDEST DUP1 PUSH4 0x9F2C019 EQ PUSH2 0x1AE JUMPI DUP1 PUSH4 0x14989554 EQ PUSH2 0x1E2 JUMPI DUP1 PUSH4 0x1A9DB790 EQ PUSH2 0x1FE JUMPI DUP1 PUSH4 0x2E1413DF EQ PUSH2 0x208 JUMPI DUP1 PUSH4 0x315A095D EQ PUSH2 0x238 JUMPI DUP1 PUSH4 0x3F4BA83A EQ PUSH2 0x254 JUMPI JUMPDEST PUSH1 0x0 DUP1 REVERT JUMPDEST PUSH2 0x1C8 PUSH1 0x4 DUP1 CALLDATASIZE SUB DUP2 ADD SWAP1 PUSH2 0x1C3 SWAP2 SWAP1 PUSH2 0x1D0A JUMP JUMPDEST PUSH2 0x4DB JUMP JUMPDEST PUSH1 0x40 MLOAD PUSH2 0x1D9 SWAP6 SWAP5 SWAP4 SWAP3 SWAP2 SWAP1 PUSH2 0x1D6B JUMP JUMPDEST PUSH1 0x40 MLOAD DUP1 SWAP2 SUB SWAP1 RETURN JUMPDEST PUSH2 0x1FC PUSH1 0x4 DUP1 CALLDATASIZE SUB DUP2 ADD SWAP1 PUSH2 0x1F7 SWAP2 SWAP1 PUSH2 0x1E23 JUMP JUMPDEST PUSH2 0x546 JUMP JUMPDEST STOP JUMPDEST PUSH2 0x206 PUSH2 0x678 JUMP JUMPDEST STOP JUMPDEST PUSH2 0x222 PUSH1 0x4 DUP1 CALLDATASIZE SUB DUP2 ADD SWAP1 PUSH2 0x21D SWAP2 SWAP1 PUSH2 0x1E83 JUMP JUMPDEST PUSH2 0x8AA JUMP JUMPDEST PUSH1 0x40 MLOAD PUSH2 0x22F SWAP2 SWAP1 PUSH2 0x1EC3 JUMP JUMPDEST PUSH1 0x40 MLOAD DUP1 SWAP2 SUB SWAP1 RETURN JUMPDEST PUSH2 0x252 PUSH1 0x4 DUP1 CALLDATASIZE SUB DUP2 ADD SWAP1 PUSH2 0x24D SWAP2 SWAP1 PUSH2 0x1F0A JUMP JUMPDEST PUSH2 0x8CF JUMP JUMPDEST STOP JUMPDEST PUSH2 0x25C PUSH2 0x9B7 JUMP JUMPDEST STOP JUMPDEST PUSH2 0x278 PUSH1 0x4 DUP1 CALLDATASIZE SUB DUP2 ADD SWAP1 PUSH2 0x273 SWAP2 SWAP1 PUSH2 0x1F37 JUMP JUMPDEST PUSH2 0x9C9 JUMP JUMPDEST STOP JUMPDEST PUSH2 0x294 PUSH1 0x4 DUP1 CALLDATASIZE SUB DUP2 ADD SWAP1 PUSH2 0x28F SWAP2 SWAP1 PUSH2 0x1E83 JUMP JUMPDEST PUSH2 0xE0B JUMP JUMPDEST STOP JUMPDEST PUSH2 0x29E PUSH2 0xF3B JUMP JUMPDEST PUSH1 0x40 MLOAD PUSH2 0x2AB SWAP2 SWAP1 PUSH2 0x1EC3 JUMP JUMPDEST PUSH1 0x40 MLOAD DUP1 SWAP2 SUB SWAP1 RETURN JUMPDEST PUSH2 0x2BC PUSH2 0xF41 JUMP JUMPDEST PUSH1 0x40 MLOAD PUSH2 0x2C9 SWAP2 SWAP1 PUSH2 0x1F8A JUMP JUMPDEST PUSH1 0x40 MLOAD DUP1 SWAP2 SUB SWAP1 RETURN JUMPDEST PUSH2 0x2EC PUSH1 0x4 DUP1 CALLDATASIZE SUB DUP2 ADD SWAP1 PUSH2 0x2E7 SWAP2 SWAP1 PUSH2 0x1D0A JUMP JUMPDEST PUSH2 0xF57 JUMP JUMPDEST PUSH1 0x40 MLOAD PUSH2 0x2F9 SWAP2 SWAP1 PUSH2 0x1F8A JUMP JUMPDEST PUSH1 0x40 MLOAD DUP1 SWAP2 SUB SWAP1 RETURN JUMPDEST PUSH2 0x31C PUSH1 0x4 DUP1 CALLDATASIZE SUB DUP2 ADD SWAP1 PUSH2 0x317 SWAP2 SWAP1 PUSH2 0x1D0A JUMP JUMPDEST PUSH2 0xF77 JUMP JUMPDEST STOP JUMPDEST PUSH2 0x326 PUSH2 0x123C JUMP JUMPDEST STOP JUMPDEST PUSH2 0x330 PUSH2 0x1250 JUMP JUMPDEST PUSH1 0x40 MLOAD PUSH2 0x33D SWAP2 SWAP1 PUSH2 0x1EC3 JUMP JUMPDEST PUSH1 0x40 MLOAD DUP1 SWAP2 SUB SWAP1 RETURN JUMPDEST PUSH2 0x360 PUSH1 0x4 DUP1 CALLDATASIZE SUB DUP2 ADD SWAP1 PUSH2 0x35B SWAP2 SWAP1 PUSH2 0x1E83 JUMP JUMPDEST PUSH2 0x1255 JUMP JUMPDEST PUSH1 0x40 MLOAD PUSH2 0x36D SWAP2 SWAP1 PUSH2 0x1EC3 JUMP JUMPDEST PUSH1 0x40 MLOAD DUP1 SWAP2 SUB SWAP1 RETURN JUMPDEST PUSH2 0x390 PUSH1 0x4 DUP1 CALLDATASIZE SUB DUP2 ADD SWAP1 PUSH2 0x38B SWAP2 SWAP1 PUSH2 0x2003 JUMP JUMPDEST PUSH2 0x12C1 JUMP JUMPDEST PUSH1 0x40 MLOAD PUSH2 0x39D SWAP2 SWAP1 PUSH2 0x1EC3 JUMP JUMPDEST PUSH1 0x40 MLOAD DUP1 SWAP2 SUB SWAP1 RETURN JUMPDEST PUSH2 0x3AE PUSH2 0x12D9 JUMP JUMPDEST PUSH1 0x40 MLOAD PUSH2 0x3BB SWAP2 SWAP1 PUSH2 0x1EC3 JUMP JUMPDEST PUSH1 0x40 MLOAD DUP1 SWAP2 SUB SWAP1 RETURN JUMPDEST PUSH2 0x3CC PUSH2 0x12E6 JUMP JUMPDEST STOP JUMPDEST PUSH2 0x3D6 PUSH2 0x1607 JUMP JUMPDEST STOP JUMPDEST PUSH2 0x3E0 PUSH2 0x1619 JUMP JUMPDEST PUSH1 0x40 MLOAD PUSH2 0x3ED SWAP2 SWAP1 PUSH2 0x203F JUMP JUMPDEST PUSH1 0x40 MLOAD DUP1 SWAP2 SUB SWAP1 RETURN JUMPDEST PUSH2 0x3FE PUSH2 0x1642 JUMP JUMPDEST PUSH1 0x40 MLOAD PUSH2 0x40B SWAP2 SWAP1 PUSH2 0x20B9 JUMP JUMPDEST PUSH1 0x40 MLOAD DUP1 SWAP2 SUB SWAP1 RETURN JUMPDEST PUSH2 0x42E PUSH1 0x4 DUP1 CALLDATASIZE SUB DUP2 ADD SWAP1 PUSH2 0x429 SWAP2 SWAP1 PUSH2 0x20D4 JUMP JUMPDEST PUSH2 0x1668 JUMP JUMPDEST PUSH1 0x40 MLOAD PUSH2 0x440 SWAP7 SWAP6 SWAP5 SWAP4 SWAP3 SWAP2 SWAP1 PUSH2 0x2123 JUMP JUMPDEST PUSH1 0x40 MLOAD DUP1 SWAP2 SUB SWAP1 RETURN JUMPDEST PUSH2 0x451 PUSH2 0x16BE JUMP JUMPDEST PUSH1 0x40 MLOAD PUSH2 0x45E SWAP2 SWAP1 PUSH2 0x1EC3 JUMP JUMPDEST PUSH1 0x40 MLOAD DUP1 SWAP2 SUB SWAP1 RETURN JUMPDEST PUSH2 0x481 PUSH1 0x4 DUP1 CALLDATASIZE SUB DUP2 ADD SWAP1 PUSH2 0x47C SWAP2 SWAP1 PUSH2 0x20D4 JUMP JUMPDEST PUSH2 0x16C4 JUMP JUMPDEST PUSH1 0x40 MLOAD PUSH2 0x48E SWAP2 SWAP1 PUSH2 0x2184 JUMP JUMPDEST PUSH1 0x40 MLOAD DUP1 SWAP2 SUB SWAP1 RETURN JUMPDEST PUSH2 0x49F PUSH2 0x16F5 JUMP JUMPDEST PUSH1 0x40 MLOAD PUSH2 0x4AC SWAP2 SWAP1 PUSH2 0x1EC3 JUMP JUMPDEST PUSH1 0x40 MLOAD DUP1 SWAP2 SUB SWAP1 RETURN JUMPDEST PUSH2 0x4BD PUSH2 0x16FC JUMP JUMPDEST STOP JUMPDEST PUSH2 0x4D9 PUSH1 0x4 DUP1 CALLDATASIZE SUB DUP2 ADD SWAP1 PUSH2 0x4D4 SWAP2 SWAP1 PUSH2 0x2003 JUMP JUMPDEST PUSH2 0x18F6 JUMP JUMPDEST STOP JUMPDEST PUSH1 0x0 DUP1 PUSH1 0x0 DUP1 PUSH1 0x0 DUP1 PUSH1 0x4 PUSH1 0x0 DUP9 DUP2 MSTORE PUSH1 0x20 ADD SWAP1 DUP2 MSTORE PUSH1 0x20 ADD PUSH1 0x0 KECCAK256 PUSH1 0x0 PUSH1 0x8 SLOAD DUP2 MSTORE PUSH1 0x20 ADD SWAP1 DUP2 MSTORE PUSH1 0x20 ADD PUSH1 0x0 KECCAK256 SWAP1 POP DUP1 PUSH1 0x0 ADD SLOAD DUP2 PUSH1 0x1 ADD SLOAD DUP3 PUSH1 0x6 ADD PUSH1 0x0 SWAP1 SLOAD SWAP1 PUSH2 0x100 EXP SWAP1 DIV PUSH1 0xFF AND DUP4 PUSH1 0x3 ADD SLOAD DUP5 PUSH1 0x4 ADD SLOAD SWAP6 POP SWAP6 POP SWAP6 POP SWAP6 POP SWAP6 POP POP SWAP2 SWAP4 SWAP6 SWAP1 SWAP3 SWAP5 POP JUMP JUMPDEST PUSH2 0x54E PUSH2 0x197C JUMP JUMPDEST PUSH1 0xA DUP3 DUP3 SWAP1 POP EQ PUSH2 0x599 JUMPI DUP2 DUP2 SWAP1 POP PUSH1 0x40 MLOAD PUSH32 0x2DCD48EB00000000000000000000000000000000000000000000000000000000 DUP2 MSTORE PUSH1 0x4 ADD PUSH2 0x590 SWAP2 SWAP1 PUSH2 0x1EC3 JUMP JUMPDEST PUSH1 0x40 MLOAD DUP1 SWAP2 SUB SWAP1 REVERT JUMPDEST PUSH1 0x5 PUSH1 0x0 DUP5 DUP2 MSTORE PUSH1 0x20 ADD SWAP1 DUP2 MSTORE PUSH1 0x20 ADD PUSH1 0x0 KECCAK256 PUSH1 0x0 PUSH2 0x5B8 SWAP2 SWAP1 PUSH2 0x1C8C JUMP JUMPDEST PUSH1 0x0 JUMPDEST PUSH1 0xA DUP2 LT ISZERO PUSH2 0x672 JUMPI PUSH1 0x5 PUSH1 0x0 DUP6 DUP2 MSTORE PUSH1 0x20 ADD SWAP1 DUP2 MSTORE PUSH1 0x20 ADD PUSH1 0x0 KECCAK256 DUP4 DUP4 DUP4 DUP2 DUP2 LT PUSH2 0x5EA JUMPI PUSH2 0x5E9 PUSH2 0x219F JUMP JUMPDEST JUMPDEST SWAP1 POP PUSH1 0x20 MUL ADD CALLDATALOAD SWAP1 DUP1 PUSH1 0x1 DUP2 SLOAD ADD DUP1 DUP3 SSTORE DUP1 SWAP2 POP POP PUSH1 0x1 SWAP1 SUB SWAP1 PUSH1 0x0 MSTORE PUSH1 0x20 PUSH1 0x0 KECCAK256 ADD PUSH1 0x0 SWAP1 SWAP2 SWAP1 SWAP2 SWAP1 SWAP2 POP SSTORE PUSH1 0x1 DUP2 PUSH2 0x624 SWAP2 SWAP1 PUSH2 0x21FD JUMP JUMPDEST PUSH1 0x6 PUSH1 0x0 DUP7 DUP2 MSTORE PUSH1 0x20 ADD SWAP1 DUP2 MSTORE PUSH1 0x20 ADD PUSH1 0x0 KECCAK256 PUSH1 0x0 DUP6 DUP6 DUP6 DUP2 DUP2 LT PUSH2 0x64C JUMPI PUSH2 0x64B PUSH2 0x219F JUMP JUMPDEST JUMPDEST SWAP1 POP PUSH1 0x20 MUL ADD CALLDATALOAD DUP2 MSTORE PUSH1 0x20 ADD SWAP1 DUP2 MSTORE PUSH1 0x20 ADD PUSH1 0x0 KECCAK256 DUP2 SWAP1 SSTORE POP DUP1 DUP1 PUSH1 0x1 ADD SWAP2 POP POP PUSH2 0x5BB JUMP JUMPDEST POP POP POP POP JUMP JUMPDEST PUSH2 0x680 PUSH2 0x197C JUMP JUMPDEST PUSH3 0x15180 TIMESTAMP PUSH2 0x68F SWAP2 SWAP1 PUSH2 0x2260 JUMP JUMPDEST PUSH1 0x8 DUP2 SWAP1 SSTORE POP PUSH1 0x0 PUSH1 0x40 MLOAD DUP1 PUSH2 0x100 ADD PUSH1 0x40 MSTORE DUP1 PUSH32 0x5757000000000000000000000000000000000000000000000000000000000000 DUP2 MSTORE PUSH1 0x20 ADD PUSH32 0x4252000000000000000000000000000000000000000000000000000000000000 DUP2 MSTORE PUSH1 0x20 ADD PUSH32 0x4445000000000000000000000000000000000000000000000000000000000000 DUP2 MSTORE PUSH1 0x20 ADD PUSH32 0x4553000000000000000000000000000000000000000000000000000000000000 DUP2 MSTORE PUSH1 0x20 ADD PUSH32 0x4652000000000000000000000000000000000000000000000000000000000000 DUP2 MSTORE PUSH1 0x20 ADD PUSH32 0x4954000000000000000000000000000000000000000000000000000000000000 DUP2 MSTORE PUSH1 0x20 ADD PUSH32 0x5054000000000000000000000000000000000000000000000000000000000000 DUP2 MSTORE PUSH1 0x20 ADD PUSH32 0x5553000000000000000000000000000000000000000000000000000000000000 DUP2 MSTORE POP SWAP1 POP PUSH1 0x0 JUMPDEST PUSH1 0x8 DUP2 LT ISZERO PUSH2 0x8A6 JUMPI PUSH1 0x0 DUP3 DUP3 PUSH1 0x8 DUP2 LT PUSH2 0x7F4 JUMPI PUSH2 0x7F3 PUSH2 0x219F JUMP JUMPDEST JUMPDEST PUSH1 0x20 MUL ADD MLOAD SWAP1 POP PUSH1 0x0 PUSH1 0x4 PUSH1 0x0 DUP4 DUP2 MSTORE PUSH1 0x20 ADD SWAP1 DUP2 MSTORE PUSH1 0x20 ADD PUSH1 0x0 KECCAK256 PUSH1 0x0 PUSH1 0x8 SLOAD DUP2 MSTORE PUSH1 0x20 ADD SWAP1 DUP2 MSTORE PUSH1 0x20 ADD PUSH1 0x0 KECCAK256 SWAP1 POP PUSH1 0x0 DUP2 PUSH1 0x0 ADD SLOAD SUB PUSH2 0x897 JUMPI TIMESTAMP DUP2 PUSH1 0x0 ADD DUP2 SWAP1 SSTORE POP PUSH3 0x15180 TIMESTAMP PUSH2 0x849 SWAP2 SWAP1 PUSH2 0x21FD JUMP JUMPDEST DUP2 PUSH1 0x1 ADD DUP2 SWAP1 SSTORE POP PUSH1 0x8 SLOAD DUP3 PUSH32 0x6D81DAC161F941B26501B4CD6606ED14E343CE5E58BA8F62DE9A2071F6BE0FD9 DUP4 PUSH1 0x0 ADD SLOAD DUP5 PUSH1 0x1 ADD SLOAD PUSH1 0x40 MLOAD PUSH2 0x88E SWAP3 SWAP2 SWAP1 PUSH2 0x2291 JUMP JUMPDEST PUSH1 0x40 MLOAD DUP1 SWAP2 SUB SWAP1 LOG3 JUMPDEST POP POP DUP1 DUP1 PUSH1 0x1 ADD SWAP2 POP POP PUSH2 0x7D6 JUMP JUMPDEST POP POP JUMP JUMPDEST PUSH1 0x6 PUSH1 0x20 MSTORE DUP2 PUSH1 0x0 MSTORE PUSH1 0x40 PUSH1 0x0 KECCAK256 PUSH1 0x20 MSTORE DUP1 PUSH1 0x0 MSTORE PUSH1 0x40 PUSH1 0x0 KECCAK256 PUSH1 0x0 SWAP2 POP SWAP2 POP POP SLOAD DUP2 JUMP JUMPDEST PUSH2 0x8D7 PUSH2 0x197C JUMP JUMPDEST PUSH1 0x2 PUSH1 0x0 SWAP1 SLOAD SWAP1 PUSH2 0x100 EXP SWAP1 DIV PUSH20 0xFFFFFFFFFFFFFFFFFFFFFFFFFFFFFFFFFFFFFFFF AND PUSH20 0xFFFFFFFFFFFFFFFFFFFFFFFFFFFFFFFFFFFFFFFF AND PUSH4 0xA9059CBB PUSH2 0x91D PUSH2 0x1619 JUMP JUMPDEST DUP4 PUSH1 0x40 MLOAD DUP4 PUSH4 0xFFFFFFFF AND PUSH1 0xE0 SHL DUP2 MSTORE PUSH1 0x4 ADD PUSH2 0x93B SWAP3 SWAP2 SWAP1 PUSH2 0x22BA JUMP JUMPDEST PUSH1 0x20 PUSH1 0x40 MLOAD DUP1 DUP4 SUB DUP2 PUSH1 0x0 DUP8 GAS CALL ISZERO DUP1 ISZERO PUSH2 0x95A JUMPI RETURNDATASIZE PUSH1 0x0 DUP1 RETURNDATACOPY RETURNDATASIZE PUSH1 0x0 REVERT JUMPDEST POP POP POP POP PUSH1 0x40 MLOAD RETURNDATASIZE PUSH1 0x1F NOT PUSH1 0x1F DUP3 ADD AND DUP3 ADD DUP1 PUSH1 0x40 MSTORE POP DUP2 ADD SWAP1 PUSH2 0x97E SWAP2 SWAP1 PUSH2 0x230F JUMP JUMPDEST PUSH2 0x9B4 JUMPI PUSH1 0x40 MLOAD PUSH32 0x45C4B0200000000000000000000000000000000000000000000000000000000 DUP2 MSTORE PUSH1 0x4 ADD PUSH1 0x40 MLOAD DUP1 SWAP2 SUB SWAP1 REVERT JUMPDEST POP JUMP JUMPDEST PUSH2 0x9BF PUSH2 0x197C JUMP JUMPDEST PUSH2 0x9C7 PUSH2 0x1A03 JUMP JUMPDEST JUMP JUMPDEST PUSH2 0x9D1 PUSH2 0x1A65 JUMP JUMPDEST PUSH2 0x9D9 PUSH2 0x1AA6 JUMP JUMPDEST PUSH1 0x3 PUSH1 0x0 DUP5 DUP2 MSTORE PUSH1 0x20 ADD SWAP1 DUP2 MSTORE PUSH1 0x20 ADD PUSH1 0x0 KECCAK256 PUSH1 0x0 SWAP1 SLOAD SWAP1 PUSH2 0x100 EXP SWAP1 DIV PUSH1 0xFF AND PUSH2 0xA3B JUMPI DUP3 PUSH1 0x40 MLOAD PUSH32 0x190ED2AF00000000000000000000000000000000000000000000000000000000 DUP2 MSTORE PUSH1 0x4 ADD PUSH2 0xA32 SWAP2 SWAP1 PUSH2 0x2184 JUMP JUMPDEST PUSH1 0x40 MLOAD DUP1 SWAP2 SUB SWAP1 REVERT JUMPDEST PUSH1 0x0 PUSH1 0x4 PUSH1 0x0 DUP6 DUP2 MSTORE PUSH1 0x20 ADD SWAP1 DUP2 MSTORE PUSH1 0x20 ADD PUSH1 0x0 KECCAK256 PUSH1 0x0 PUSH1 0x8 SLOAD DUP2 MSTORE PUSH1 0x20 ADD SWAP1 DUP2 MSTORE PUSH1 0x20 ADD PUSH1 0x0 KECCAK256 SWAP1 POP DUP1 PUSH1 0x0 ADD SLOAD TIMESTAMP LT DUP1 PUSH2 0xA7B JUMPI POP DUP1 PUSH1 0x1 ADD SLOAD TIMESTAMP LT ISZERO JUMPDEST ISZERO PUSH2 0xAC9 JUMPI TIMESTAMP DUP2 PUSH1 0x0 ADD SLOAD DUP3 PUSH1 0x1 ADD SLOAD PUSH1 0x40 MLOAD PUSH32 0xB866E50200000000000000000000000000000000000000000000000000000000 DUP2 MSTORE PUSH1 0x4 ADD PUSH2 0xAC0 SWAP4 SWAP3 SWAP2 SWAP1 PUSH2 0x233C JUMP JUMPDEST PUSH1 0x40 MLOAD DUP1 SWAP2 SUB SWAP1 REVERT JUMPDEST PUSH1 0x0 DUP2 PUSH1 0x2 ADD PUSH1 0x0 CALLER PUSH20 0xFFFFFFFFFFFFFFFFFFFFFFFFFFFFFFFFFFFFFFFF AND PUSH20 0xFFFFFFFFFFFFFFFFFFFFFFFFFFFFFFFFFFFFFFFF AND DUP2 MSTORE PUSH1 0x20 ADD SWAP1 DUP2 MSTORE PUSH1 0x20 ADD PUSH1 0x0 KECCAK256 PUSH1 0x2 ADD SLOAD EQ PUSH2 0xB52 JUMPI CALLER PUSH1 0x40 MLOAD PUSH32 0x660F02E800000000000000000000000000000000000000000000000000000000 DUP2 MSTORE PUSH1 0x4 ADD PUSH2 0xB49 SWAP2 SWAP1 PUSH2 0x203F JUMP JUMPDEST PUSH1 0x40 MLOAD DUP1 SWAP2 SUB SWAP1 REVERT JUMPDEST PUSH9 0x3635C9ADC5DEA00000 DUP3 GT ISZERO PUSH2 0xBAB JUMPI DUP2 PUSH9 0x3635C9ADC5DEA00000 PUSH1 0x40 MLOAD PUSH32 0x36165F6600000000000000000000000000000000000000000000000000000000 DUP2 MSTORE PUSH1 0x4 ADD PUSH2 0xBA2 SWAP3 SWAP2 SWAP1 PUSH2 0x2291 JUMP JUMPDEST PUSH1 0x40 MLOAD DUP1 SWAP2 SUB SWAP1 REVERT JUMPDEST PUSH1 0x2 PUSH1 0x0 SWAP1 SLOAD SWAP1 PUSH2 0x100 EXP SWAP1 DIV PUSH20 0xFFFFFFFFFFFFFFFFFFFFFFFFFFFFFFFFFFFFFFFF AND PUSH20 0xFFFFFFFFFFFFFFFFFFFFFFFFFFFFFFFFFFFFFFFF AND PUSH4 0x23B872DD CALLER ADDRESS DUP6 PUSH1 0x40 MLOAD DUP5 PUSH4 0xFFFFFFFF AND PUSH1 0xE0 SHL DUP2 MSTORE PUSH1 0x4 ADD PUSH2 0xC0A SWAP4 SWAP3 SWAP2 SWAP1 PUSH2 0x2373 JUMP JUMPDEST PUSH1 0x20 PUSH1 0x40 MLOAD DUP1 DUP4 SUB DUP2 PUSH1 0x0 DUP8 GAS CALL ISZERO DUP1 ISZERO PUSH2 0xC29 JUMPI RETURNDATASIZE PUSH1 0x0 DUP1 RETURNDATACOPY RETURNDATASIZE PUSH1 0x0 REVERT JUMPDEST POP POP POP POP PUSH1 0x40 MLOAD RETURNDATASIZE PUSH1 0x1F NOT PUSH1 0x1F DUP3 ADD AND DUP3 ADD DUP1 PUSH1 0x40 MSTORE POP DUP2 ADD SWAP1 PUSH2 0xC4D SWAP2 SWAP1 PUSH2 0x230F JUMP JUMPDEST PUSH2 0xC83 JUMPI PUSH1 0x40 MLOAD PUSH32 0x45C4B0200000000000000000000000000000000000000000000000000000000 DUP2 MSTORE PUSH1 0x4 ADD PUSH1 0x40 MLOAD DUP1 SWAP2 SUB SWAP1 REVERT JUMPDEST PUSH1 0x0 PUSH2 0xC8F DUP6 DUP6 PUSH2 0x1255 JUMP JUMPDEST SWAP1 POP PUSH1 0x40 MLOAD DUP1 PUSH1 0x80 ADD PUSH1 0x40 MSTORE DUP1 CALLER PUSH20 0xFFFFFFFFFFFFFFFFFFFFFFFFFFFFFFFFFFFFFFFF AND DUP2 MSTORE PUSH1 0x20 ADD DUP6 DUP2 MSTORE PUSH1 0x20 ADD DUP5 DUP2 MSTORE PUSH1 0x20 ADD DUP3 DUP2 MSTORE POP DUP3 PUSH1 0x2 ADD PUSH1 0x0 CALLER PUSH20 0xFFFFFFFFFFFFFFFFFFFFFFFFFFFFFFFFFFFFFFFF AND PUSH20 0xFFFFFFFFFFFFFFFFFFFFFFFFFFFFFFFFFFFFFFFF AND DUP2 MSTORE PUSH1 0x20 ADD SWAP1 DUP2 MSTORE PUSH1 0x20 ADD PUSH1 0x0 KECCAK256 PUSH1 0x0 DUP3 ADD MLOAD DUP2 PUSH1 0x0 ADD PUSH1 0x0 PUSH2 0x100 EXP DUP2 SLOAD DUP2 PUSH20 0xFFFFFFFFFFFFFFFFFFFFFFFFFFFFFFFFFFFFFFFF MUL NOT AND SWAP1 DUP4 PUSH20 0xFFFFFFFFFFFFFFFFFFFFFFFFFFFFFFFFFFFFFFFF AND MUL OR SWAP1 SSTORE POP PUSH1 0x20 DUP3 ADD MLOAD DUP2 PUSH1 0x1 ADD SSTORE PUSH1 0x40 DUP3 ADD MLOAD DUP2 PUSH1 0x2 ADD SSTORE PUSH1 0x60 DUP3 ADD MLOAD DUP2 PUSH1 0x3 ADD SSTORE SWAP1 POP POP DUP2 PUSH1 0x3 ADD PUSH1 0x0 DUP2 SLOAD DUP1 SWAP3 SWAP2 SWAP1 PUSH2 0xD86 SWAP1 PUSH2 0x23AA JUMP JUMPDEST SWAP2 SWAP1 POP SSTORE POP DUP3 DUP3 PUSH1 0x4 ADD PUSH1 0x0 DUP3 DUP3 SLOAD PUSH2 0xD9F SWAP2 SWAP1 PUSH2 0x21FD JUMP JUMPDEST SWAP3 POP POP DUP2 SWAP1 SSTORE POP PUSH1 0x8 SLOAD DUP6 CALLER PUSH20 0xFFFFFFFFFFFFFFFFFFFFFFFFFFFFFFFFFFFFFFFF AND PUSH32 0x558994EB4EFAF94BD607117C30A36B6623A6F3FCFF263A773F37D634733FD2C9 DUP8 DUP8 DUP7 PUSH1 0x40 MLOAD PUSH2 0xDF4 SWAP4 SWAP3 SWAP2 SWAP1 PUSH2 0x23F2 JUMP JUMPDEST PUSH1 0x40 MLOAD DUP1 SWAP2 SUB SWAP1 LOG4 POP POP PUSH2 0xE06 PUSH2 0x1AEC JUMP JUMPDEST POP POP POP JUMP JUMPDEST PUSH2 0xE13 PUSH2 0x197C JUMP JUMPDEST PUSH1 0x0 PUSH1 0x4 PUSH1 0x0 DUP5 DUP2 MSTORE PUSH1 0x20 ADD SWAP1 DUP2 MSTORE PUSH1 0x20 ADD PUSH1 0x0 KECCAK256 PUSH1 0x0 PUSH1 0x8 SLOAD DUP2 MSTORE PUSH1 0x20 ADD SWAP1 DUP2 MSTORE PUSH1 0x20 ADD PUSH1 0x0 KECCAK256 SWAP1 POP DUP1 PUSH1 0x1 ADD SLOAD TIMESTAMP LT ISZERO PUSH2 0xE8C JUMPI TIMESTAMP DUP2 PUSH1 0x1 ADD SLOAD PUSH1 0x40 MLOAD PUSH32 0x14A5F30A00000000000000000000000000000000000000000000000000000000 DUP2 MSTORE PUSH1 0x4 ADD PUSH2 0xE83 SWAP3 SWAP2 SWAP1 PUSH2 0x2291 JUMP JUMPDEST PUSH1 0x40 MLOAD DUP1 SWAP2 SUB SWAP1 REVERT JUMPDEST DUP1 PUSH1 0x6 ADD PUSH1 0x0 SWAP1 SLOAD SWAP1 PUSH2 0x100 EXP SWAP1 DIV PUSH1 0xFF AND ISZERO PUSH2 0xED5 JUMPI PUSH1 0x40 MLOAD PUSH32 0x8771584C00000000000000000000000000000000000000000000000000000000 DUP2 MSTORE PUSH1 0x4 ADD PUSH1 0x40 MLOAD DUP1 SWAP2 SUB SWAP1 REVERT JUMPDEST DUP2 DUP2 PUSH1 0x5 ADD DUP2 SWAP1 SSTORE POP PUSH1 0x1 DUP2 PUSH1 0x6 ADD PUSH1 0x0 PUSH2 0x100 EXP DUP2 SLOAD DUP2 PUSH1 0xFF MUL NOT AND SWAP1 DUP4 ISZERO ISZERO MUL OR SWAP1 SSTORE POP PUSH1 0x8 SLOAD DUP4 PUSH32 0x4A1C15136CDA23D049DA8FCC55A115CC1CA2DAFC28F8D2CA647A3B4C6B42E05B DUP5 PUSH1 0x40 MLOAD PUSH2 0xF2E SWAP2 SWAP1 PUSH2 0x2184 JUMP JUMPDEST PUSH1 0x40 MLOAD DUP1 SWAP2 SUB SWAP1 LOG3 POP POP POP JUMP JUMPDEST PUSH1 0x8 SLOAD DUP2 JUMP JUMPDEST PUSH1 0x0 DUP1 PUSH1 0x14 SWAP1 SLOAD SWAP1 PUSH2 0x100 EXP SWAP1 DIV PUSH1 0xFF AND SWAP1 POP SWAP1 JUMP JUMPDEST PUSH1 0x3 PUSH1 0x20 MSTORE DUP1 PUSH1 0x0 MSTORE PUSH1 0x40 PUSH1 0x0 KECCAK256 PUSH1 0x0 SWAP2 POP SLOAD SWAP1 PUSH2 0x100 EXP SWAP1 DIV PUSH1 0xFF AND DUP2 JUMP JUMPDEST PUSH2 0xF7F PUSH2 0x1AA6 JUMP JUMPDEST PUSH1 0x0 PUSH1 0x4 PUSH1 0x0 DUP4 DUP2 MSTORE PUSH1 0x20 ADD SWAP1 DUP2 MSTORE PUSH1 0x20 ADD PUSH1 0x0 KECCAK256 PUSH1 0x0 PUSH1 0x8 SLOAD DUP2 MSTORE PUSH1 0x20 ADD SWAP1 DUP2 MSTORE PUSH1 0x20 ADD PUSH1 0x0 KECCAK256 SWAP1 POP DUP1 PUSH1 0x6 ADD PUSH1 0x0 SWAP1 SLOAD SWAP1 PUSH2 0x100 EXP SWAP1 DIV PUSH1 0xFF AND PUSH2 0xFF1 JUMPI PUSH1 0x40 MLOAD PUSH32 0xF78030F500000000000000000000000000000000000000000000000000000000 DUP2 MSTORE PUSH1 0x4 ADD PUSH1 0x40 MLOAD DUP1 SWAP2 SUB SWAP1 REVERT JUMPDEST PUSH1 0x0 DUP2 PUSH1 0x2 ADD PUSH1 0x0 CALLER PUSH20 0xFFFFFFFFFFFFFFFFFFFFFFFFFFFFFFFFFFFFFFFF AND PUSH20 0xFFFFFFFFFFFFFFFFFFFFFFFFFFFFFFFFFFFFFFFF AND DUP2 MSTORE PUSH1 0x20 ADD SWAP1 DUP2 MSTORE PUSH1 0x20 ADD PUSH1 0x0 KECCAK256 SWAP1 POP PUSH1 0x0 DUP2 PUSH1 0x2 ADD SLOAD SUB PUSH2 0x1074 JUMPI PUSH1 0x40 MLOAD PUSH32 0x28E52A100000000000000000000000000000000000000000000000000000000 DUP2 MSTORE PUSH1 0x4 ADD PUSH1 0x40 MLOAD DUP1 SWAP2 SUB SWAP1 REVERT JUMPDEST PUSH1 0x0 DUP3 PUSH1 0x5 ADD SLOAD DUP3 PUSH1 0x1 ADD SLOAD EQ SWAP1 POP PUSH1 0x0 DUP2 PUSH2 0x1091 JUMPI PUSH1 0x0 PUSH2 0x10B2 JUMP JUMPDEST PUSH1 0x64 DUP4 PUSH1 0x3 ADD SLOAD DUP5 PUSH1 0x2 ADD SLOAD PUSH2 0x10A7 SWAP2 SWAP1 PUSH2 0x2429 JUMP JUMPDEST PUSH2 0x10B1 SWAP2 SWAP1 PUSH2 0x2260 JUMP JUMPDEST JUMPDEST SWAP1 POP PUSH1 0x0 PUSH1 0x64 PUSH1 0x32 DUP6 PUSH1 0x2 ADD SLOAD PUSH2 0x10C9 SWAP2 SWAP1 PUSH2 0x2429 JUMP JUMPDEST PUSH2 0x10D3 SWAP2 SWAP1 PUSH2 0x2260 JUMP JUMPDEST DUP5 PUSH1 0x2 ADD SLOAD PUSH2 0x10E2 SWAP2 SWAP1 PUSH2 0x21FD JUMP JUMPDEST SWAP1 POP DUP1 DUP3 GT PUSH2 0x10F1 JUMPI DUP2 PUSH2 0x10F3 JUMP JUMPDEST DUP1 JUMPDEST SWAP2 POP DUP5 PUSH1 0x2 ADD PUSH1 0x0 CALLER PUSH20 0xFFFFFFFFFFFFFFFFFFFFFFFFFFFFFFFFFFFFFFFF AND PUSH20 0xFFFFFFFFFFFFFFFFFFFFFFFFFFFFFFFFFFFFFFFF AND DUP2 MSTORE PUSH1 0x20 ADD SWAP1 DUP2 MSTORE PUSH1 0x20 ADD PUSH1 0x0 KECCAK256 PUSH1 0x0 DUP1 DUP3 ADD PUSH1 0x0 PUSH2 0x100 EXP DUP2 SLOAD SWAP1 PUSH20 0xFFFFFFFFFFFFFFFFFFFFFFFFFFFFFFFFFFFFFFFF MUL NOT AND SWAP1 SSTORE PUSH1 0x1 DUP3 ADD PUSH1 0x0 SWAP1 SSTORE PUSH1 0x2 DUP3 ADD PUSH1 0x0 SWAP1 SSTORE PUSH1 0x3 DUP3 ADD PUSH1 0x0 SWAP1 SSTORE POP POP PUSH1 0x0 DUP3 GT ISZERO PUSH2 0x11D8 JUMPI DUP2 PUSH1 0x7 PUSH1 0x0 CALLER PUSH20 0xFFFFFFFFFFFFFFFFFFFFFFFFFFFFFFFFFFFFFFFF AND PUSH20 0xFFFFFFFFFFFFFFFFFFFFFFFFFFFFFFFFFFFFFFFF AND DUP2 MSTORE PUSH1 0x20 ADD SWAP1 DUP2 MSTORE PUSH1 0x20 ADD PUSH1 0x0 KECCAK256 PUSH1 0x0 DUP3 DUP3 SLOAD PUSH2 0x11D0 SWAP2 SWAP1 PUSH2 0x21FD JUMP JUMPDEST SWAP3 POP POP DUP2 SWAP1 SSTORE POP JUMPDEST PUSH1 0x8 SLOAD DUP7 CALLER PUSH20 0xFFFFFFFFFFFFFFFFFFFFFFFFFFFFFFFFFFFFFFFF AND PUSH32 0x3B8FE5DA6DDDDB7951721AC65697F3B319DB8BF4413601435C2576983580F559 DUP6 DUP8 PUSH1 0x40 MLOAD PUSH2 0x1224 SWAP3 SWAP2 SWAP1 PUSH2 0x246B JUMP JUMPDEST PUSH1 0x40 MLOAD DUP1 SWAP2 SUB SWAP1 LOG4 POP POP POP POP POP PUSH2 0x1239 PUSH2 0x1AEC JUMP JUMPDEST POP JUMP JUMPDEST PUSH2 0x1244 PUSH2 0x197C JUMP JUMPDEST PUSH2 0x124E PUSH1 0x0 PUSH2 0x1AF5 JUMP JUMPDEST JUMP JUMPDEST PUSH1 0x32 DUP2 JUMP JUMPDEST PUSH1 0x0 DUP1 PUSH1 0x6 PUSH1 0x0 DUP6 DUP2 MSTORE PUSH1 0x20 ADD SWAP1 DUP2 MSTORE PUSH1 0x20 ADD PUSH1 0x0 KECCAK256 PUSH1 0x0 DUP5 DUP2 MSTORE PUSH1 0x20 ADD SWAP1 DUP2 MSTORE PUSH1 0x20 ADD PUSH1 0x0 KECCAK256 SLOAD SWAP1 POP PUSH1 0x0 DUP2 SUB PUSH2 0x1292 JUMPI PUSH2 0x15E SWAP2 POP POP PUSH2 0x12BB JUMP JUMPDEST PUSH1 0x14 PUSH1 0x1 DUP3 PUSH2 0x12A1 SWAP2 SWAP1 PUSH2 0x2494 JUMP JUMPDEST PUSH2 0x12AB SWAP2 SWAP1 PUSH2 0x2429 JUMP JUMPDEST PUSH1 0x78 PUSH2 0x12B7 SWAP2 SWAP1 PUSH2 0x21FD JUMP JUMPDEST SWAP2 POP POP JUMPDEST SWAP3 SWAP2 POP POP JUMP JUMPDEST PUSH1 0x7 PUSH1 0x20 MSTORE DUP1 PUSH1 0x0 MSTORE PUSH1 0x40 PUSH1 0x0 KECCAK256 PUSH1 0x0 SWAP2 POP SWAP1 POP SLOAD DUP2 JUMP JUMPDEST PUSH9 0x3635C9ADC5DEA00000 DUP2 JUMP JUMPDEST PUSH1 0x0 PUSH2 0x12F0 PUSH2 0x1BB9 JUMP JUMPDEST SWAP1 POP PUSH1 0x0 DUP2 PUSH1 0x0 ADD PUSH1 0x8 SWAP1 SLOAD SWAP1 PUSH2 0x100 EXP SWAP1 DIV PUSH1 0xFF AND ISZERO SWAP1 POP PUSH1 0x0 DUP3 PUSH1 0x0 ADD PUSH1 0x0 SWAP1 SLOAD SWAP1 PUSH2 0x100 EXP SWAP1 DIV PUSH8 0xFFFFFFFFFFFFFFFF AND SWAP1 POP PUSH1 0x0 DUP1 DUP3 PUSH8 0xFFFFFFFFFFFFFFFF AND EQ DUP1 ISZERO PUSH2 0x133E JUMPI POP DUP3 JUMPDEST SWAP1 POP PUSH1 0x0 PUSH1 0x1 DUP4 PUSH8 0xFFFFFFFFFFFFFFFF AND EQ DUP1 ISZERO PUSH2 0x1373 JUMPI POP PUSH1 0x0 ADDRESS PUSH20 0xFFFFFFFFFFFFFFFFFFFFFFFFFFFFFFFFFFFFFFFF AND EXTCODESIZE EQ JUMPDEST SWAP1 POP DUP2 ISZERO DUP1 ISZERO PUSH2 0x1381 JUMPI POP DUP1 ISZERO JUMPDEST ISZERO PUSH2 0x13B8 JUMPI PUSH1 0x40 MLOAD PUSH32 0xF92EE8A900000000000000000000000000000000000000000000000000000000 DUP2 MSTORE PUSH1 0x4 ADD PUSH1 0x40 MLOAD DUP1 SWAP2 SUB SWAP1 REVERT JUMPDEST PUSH1 0x1 DUP6 PUSH1 0x0 ADD PUSH1 0x0 PUSH2 0x100 EXP DUP2 SLOAD DUP2 PUSH8 0xFFFFFFFFFFFFFFFF MUL NOT AND SWAP1 DUP4 PUSH8 0xFFFFFFFFFFFFFFFF AND MUL OR SWAP1 SSTORE POP DUP4 ISZERO PUSH2 0x1408 JUMPI PUSH1 0x1 DUP6 PUSH1 0x0 ADD PUSH1 0x8 PUSH2 0x100 EXP DUP2 SLOAD DUP2 PUSH1 0xFF MUL NOT AND SWAP1 DUP4 ISZERO ISZERO MUL OR SWAP1 SSTORE POP JUMPDEST PUSH1 0x0 PUSH1 0x40 MLOAD DUP1 PUSH2 0x100 ADD PUSH1 0x40 MSTORE DUP1 PUSH32 0x5757000000000000000000000000000000000000000000000000000000000000 DUP2 MSTORE PUSH1 0x20 ADD PUSH32 0x4252000000000000000000000000000000000000000000000000000000000000 DUP2 MSTORE PUSH1 0x20 ADD PUSH32 0x4445000000000000000000000000000000000000000000000000000000000000 DUP2 MSTORE PUSH1 0x20 ADD PUSH32 0x4553000000000000000000000000000000000000000000000000000000000000 DUP2 MSTORE PUSH1 0x20 ADD PUSH32 0x4652000000000000000000000000000000000000000000000000000000000000 DUP2 MSTORE PUSH1 0x20 ADD PUSH32 0x4954000000000000000000000000000000000000000000000000000000000000 DUP2 MSTORE PUSH1 0x20 ADD PUSH32 0x5054000000000000000000000000000000000000000000000000000000000000 DUP2 MSTORE PUSH1 0x20 ADD PUSH32 0x5553000000000000000000000000000000000000000000000000000000000000 DUP2 MSTORE POP SWAP1 POP PUSH1 0x0 JUMPDEST PUSH1 0x8 DUP2 LT ISZERO PUSH2 0x15A2 JUMPI PUSH1 0x1 PUSH1 0x3 PUSH1 0x0 DUP5 DUP5 PUSH1 0x8 DUP2 LT PUSH2 0x156B JUMPI PUSH2 0x156A PUSH2 0x219F JUMP JUMPDEST JUMPDEST PUSH1 0x20 MUL ADD MLOAD DUP2 MSTORE PUSH1 0x20 ADD SWAP1 DUP2 MSTORE PUSH1 0x20 ADD PUSH1 0x0 KECCAK256 PUSH1 0x0 PUSH2 0x100 EXP DUP2 SLOAD DUP2 PUSH1 0xFF MUL NOT AND SWAP1 DUP4 ISZERO ISZERO MUL OR SWAP1 SSTORE POP DUP1 DUP1 PUSH1 0x1 ADD SWAP2 POP POP PUSH2 0x1549 JUMP JUMPDEST POP POP DUP4 ISZERO PUSH2 0x1600 JUMPI PUSH1 0x0 DUP6 PUSH1 0x0 ADD PUSH1 0x8 PUSH2 0x100 EXP DUP2 SLOAD DUP2 PUSH1 0xFF MUL NOT AND SWAP1 DUP4 ISZERO ISZERO MUL OR SWAP1 SSTORE POP PUSH32 0xC7F505B2F371AE2175EE4913F4499E1F2633A7B5936321EED1CDAEB6115181D2 PUSH1 0x1 PUSH1 0x40 MLOAD PUSH2 0x15F7 SWAP2 SWAP1 PUSH2 0x2517 JUMP JUMPDEST PUSH1 0x40 MLOAD DUP1 SWAP2 SUB SWAP1 LOG1 JUMPDEST POP POP POP POP POP JUMP JUMPDEST PUSH2 0x160F PUSH2 0x197C JUMP JUMPDEST PUSH2 0x1617 PUSH2 0x1BE1 JUMP JUMPDEST JUMP JUMPDEST PUSH1 0x0 DUP1 PUSH1 0x0 SWAP1 SLOAD SWAP1 PUSH2 0x100 EXP SWAP1 DIV PUSH20 0xFFFFFFFFFFFFFFFFFFFFFFFFFFFFFFFFFFFFFFFF AND SWAP1 POP SWAP1 JUMP JUMPDEST PUSH1 0x2 PUSH1 0x0 SWAP1 SLOAD SWAP1 PUSH2 0x100 EXP SWAP1 DIV PUSH20 0xFFFFFFFFFFFFFFFFFFFFFFFFFFFFFFFFFFFFFFFF AND DUP2 JUMP JUMPDEST PUSH1 0x4 PUSH1 0x20 MSTORE DUP2 PUSH1 0x0 MSTORE PUSH1 0x40 PUSH1 0x0 KECCAK256 PUSH1 0x20 MSTORE DUP1 PUSH1 0x0 MSTORE PUSH1 0x40 PUSH1 0x0 KECCAK256 PUSH1 0x0 SWAP2 POP SWAP2 POP POP DUP1 PUSH1 0x0 ADD SLOAD SWAP1 DUP1 PUSH1 0x1 ADD SLOAD SWAP1 DUP1 PUSH1 0x3 ADD SLOAD SWAP1 DUP1 PUSH1 0x4 ADD SLOAD SWAP1 DUP1 PUSH1 0x5 ADD SLOAD SWAP1 DUP1 PUSH1 0x6 ADD PUSH1 0x0 SWAP1 SLOAD SWAP1 PUSH2 0x100 EXP SWAP1 DIV PUSH1 0xFF AND SWAP1 POP DUP7 JUMP JUMPDEST PUSH2 0x15E DUP2 JUMP JUMPDEST PUSH1 0x5 PUSH1 0x20 MSTORE DUP2 PUSH1 0x0 MSTORE PUSH1 0x40 PUSH1 0x0 KECCAK256 DUP2 DUP2 SLOAD DUP2 LT PUSH2 0x16E0 JUMPI PUSH1 0x0 DUP1 REVERT JUMPDEST SWAP1 PUSH1 0x0 MSTORE PUSH1 0x20 PUSH1 0x0 KECCAK256 ADD PUSH1 0x0 SWAP2 POP SWAP2 POP POP SLOAD DUP2 JUMP JUMPDEST PUSH3 0x15180 DUP2 JUMP JUMPDEST PUSH2 0x1704 PUSH2 0x1AA6 JUMP JUMPDEST PUSH1 0x0 PUSH1 0x7 PUSH1 0x0 CALLER PUSH20 0xFFFFFFFFFFFFFFFFFFFFFFFFFFFFFFFFFFFFFFFF AND PUSH20 0xFFFFFFFFFFFFFFFFFFFFFFFFFFFFFFFFFFFFFFFF AND DUP2 MSTORE PUSH1 0x20 ADD SWAP1 DUP2 MSTORE PUSH1 0x20 ADD PUSH1 0x0 KECCAK256 SLOAD SWAP1 POP PUSH1 0x0 DUP2 SUB PUSH2 0x1782 JUMPI PUSH1 0x40 MLOAD PUSH32 0x3C90366100000000000000000000000000000000000000000000000000000000 DUP2 MSTORE PUSH1 0x4 ADD PUSH1 0x40 MLOAD DUP1 SWAP2 SUB SWAP1 REVERT JUMPDEST PUSH1 0x0 PUSH1 0x7 PUSH1 0x0 CALLER PUSH20 0xFFFFFFFFFFFFFFFFFFFFFFFFFFFFFFFFFFFFFFFF AND PUSH20 0xFFFFFFFFFFFFFFFFFFFFFFFFFFFFFFFFFFFFFFFF AND DUP2 MSTORE PUSH1 0x20 ADD SWAP1 DUP2 MSTORE PUSH1 0x20 ADD PUSH1 0x0 KECCAK256 DUP2 SWAP1 SSTORE POP PUSH1 0x2 PUSH1 0x0 SWAP1 SLOAD SWAP1 PUSH2 0x100 EXP SWAP1 DIV PUSH20 0xFFFFFFFFFFFFFFFFFFFFFFFFFFFFFFFFFFFFFFFF AND PUSH20 0xFFFFFFFFFFFFFFFFFFFFFFFFFFFFFFFFFFFFFFFF AND PUSH4 0xA9059CBB CALLER DUP4 PUSH1 0x40 MLOAD DUP4 PUSH4 0xFFFFFFFF AND PUSH1 0xE0 SHL DUP2 MSTORE PUSH1 0x4 ADD PUSH2 0x1824 SWAP3 SWAP2 SWAP1 PUSH2 0x22BA JUMP JUMPDEST PUSH1 0x20 PUSH1 0x40 MLOAD DUP1 DUP4 SUB DUP2 PUSH1 0x0 DUP8 GAS CALL ISZERO DUP1 ISZERO PUSH2 0x1843 JUMPI RETURNDATASIZE PUSH1 0x0 DUP1 RETURNDATACOPY RETURNDATASIZE PUSH1 0x0 REVERT JUMPDEST POP POP POP POP PUSH1 0x40 MLOAD RETURNDATASIZE PUSH1 0x1F NOT PUSH1 0x1F DUP3 ADD AND DUP3 ADD DUP1 PUSH1 0x40 MSTORE POP DUP2 ADD SWAP1 PUSH2 0x1867 SWAP2 SWAP1 PUSH2 0x230F JUMP JUMPDEST PUSH2 0x189D JUMPI PUSH1 0x40 MLOAD PUSH32 0x45C4B0200000000000000000000000000000000000000000000000000000000 DUP2 MSTORE PUSH1 0x4 ADD PUSH1 0x40 MLOAD DUP1 SWAP2 SUB SWAP1 REVERT JUMPDEST CALLER PUSH20 0xFFFFFFFFFFFFFFFFFFFFFFFFFFFFFFFFFFFFFFFF AND PUSH32 0xEC68461F5D4CC45C89E914CB8826A966C73DD35E5F97815ECE0A01FFA4A025A6 DUP3 PUSH1 0x40 MLOAD PUSH2 0x18E3 SWAP2 SWAP1 PUSH2 0x1EC3 JUMP JUMPDEST PUSH1 0x40 MLOAD DUP1 SWAP2 SUB SWAP1 LOG2 POP PUSH2 0x18F4 PUSH2 0x1AEC JUMP JUMPDEST JUMP JUMPDEST PUSH2 0x18FE PUSH2 0x197C JUMP JUMPDEST PUSH1 0x0 PUSH20 0xFFFFFFFFFFFFFFFFFFFFFFFFFFFFFFFFFFFFFFFF AND DUP2 PUSH20 0xFFFFFFFFFFFFFFFFFFFFFFFFFFFFFFFFFFFFFFFF AND SUB PUSH2 0x1970 JUMPI PUSH1 0x0 PUSH1 0x40 MLOAD PUSH32 0x1E4FBDF700000000000000000000000000000000000000000000000000000000 DUP2 MSTORE PUSH1 0x4 ADD PUSH2 0x1967 SWAP2 SWAP1 PUSH2 0x203F JUMP JUMPDEST PUSH1 0x40 MLOAD DUP1 SWAP2 SUB SWAP1 REVERT JUMPDEST PUSH2 0x1979 DUP2 PUSH2 0x1AF5 JUMP JUMPDEST POP JUMP JUMPDEST PUSH2 0x1984 PUSH2 0x1C44 JUMP JUMPDEST PUSH20 0xFFFFFFFFFFFFFFFFFFFFFFFFFFFFFFFFFFFFFFFF AND PUSH2 0x19A2 PUSH2 0x1619 JUMP JUMPDEST PUSH20 0xFFFFFFFFFFFFFFFFFFFFFFFFFFFFFFFFFFFFFFFF AND EQ PUSH2 0x1A01 JUMPI PUSH2 0x19C5 PUSH2 0x1C44 JUMP JUMPDEST PUSH1 0x40 MLOAD PUSH32 0x118CDAA700000000000000000000000000000000000000000000000000000000 DUP2 MSTORE PUSH1 0x4 ADD PUSH2 0x19F8 SWAP2 SWAP1 PUSH2 0x203F JUMP JUMPDEST PUSH1 0x40 MLOAD DUP1 SWAP2 SUB SWAP1 REVERT JUMPDEST JUMP JUMPDEST PUSH2 0x1A0B PUSH2 0x1C4C JUMP JUMPDEST PUSH1 0x0 DUP1 PUSH1 0x14 PUSH2 0x100 EXP DUP2 SLOAD DUP2 PUSH1 0xFF MUL NOT AND SWAP1 DUP4 ISZERO ISZERO MUL OR SWAP1 SSTORE POP PUSH32 0x5DB9EE0A495BF2E6FF9C91A7834C1BA4FDD244A5E8AA4E537BD38AEAE4B073AA PUSH2 0x1A4E PUSH2 0x1C44 JUMP JUMPDEST PUSH1 0x40 MLOAD PUSH2 0x1A5B SWAP2 SWAP1 PUSH2 0x203F JUMP JUMPDEST PUSH1 0x40 MLOAD DUP1 SWAP2 SUB SWAP1 LOG1 JUMP JUMPDEST PUSH2 0x1A6D PUSH2 0xF41 JUMP JUMPDEST ISZERO PUSH2 0x1AA4 JUMPI PUSH1 0x40 MLOAD PUSH32 0xD93C066500000000000000000000000000000000000000000000000000000000 DUP2 MSTORE PUSH1 0x4 ADD PUSH1 0x40 MLOAD DUP1 SWAP2 SUB SWAP1 REVERT JUMPDEST JUMP JUMPDEST PUSH1 0x2 PUSH1 0x1 SLOAD SUB PUSH2 0x1AE2 JUMPI PUSH1 0x40 MLOAD PUSH32 0x3EE5AEB500000000000000000000000000000000000000000000000000000000 DUP2 MSTORE PUSH1 0x4 ADD PUSH1 0x40 MLOAD DUP1 SWAP2 SUB SWAP1 REVERT JUMPDEST PUSH1 0x2 PUSH1 0x1 DUP2 SWAP1 SSTORE POP JUMP JUMPDEST PUSH1 0x1 DUP1 DUP2 SWAP1 SSTORE POP JUMP JUMPDEST PUSH1 0x0 DUP1 PUSH1 0x0 SWAP1 SLOAD SWAP1 PUSH2 0x100 EXP SWAP1 DIV PUSH20 0xFFFFFFFFFFFFFFFFFFFFFFFFFFFFFFFFFFFFFFFF AND SWAP1 POP DUP2 PUSH1 0x0 DUP1 PUSH2 0x100 EXP DUP2 SLOAD DUP2 PUSH20 0xFFFFFFFFFFFFFFFFFFFFFFFFFFFFFFFFFFFFFFFF MUL NOT AND SWAP1 DUP4 PUSH20 0xFFFFFFFFFFFFFFFFFFFFFFFFFFFFFFFFFFFFFFFF AND MUL OR SWAP1 SSTORE POP DUP2 PUSH20 0xFFFFFFFFFFFFFFFFFFFFFFFFFFFFFFFFFFFFFFFF AND DUP2 PUSH20 0xFFFFFFFFFFFFFFFFFFFFFFFFFFFFFFFFFFFFFFFF AND PUSH32 0x8BE0079C531659141344CD1FD0A4F28419497F9722A3DAAFE3B4186F6B6457E0 PUSH1 0x40 MLOAD PUSH1 0x40 MLOAD DUP1 SWAP2 SUB SWAP1 LOG3 POP POP JUMP JUMPDEST PUSH1 0x0 PUSH32 0xF0C57E16840DF040F15088DC2F81FE391C3923BEC73E23A9662EFC9C229C6A00 SWAP1 POP SWAP1 JUMP JUMPDEST PUSH2 0x1BE9 PUSH2 0x1A65 JUMP JUMPDEST PUSH1 0x1 PUSH1 0x0 PUSH1 0x14 PUSH2 0x100 EXP DUP2 SLOAD DUP2 PUSH1 0xFF MUL NOT AND SWAP1 DUP4 ISZERO ISZERO MUL OR SWAP1 SSTORE POP PUSH32 0x62E78CEA01BEE320CD4E420270B5EA74000D11B0C9F74754EBDBFC544B05A258 PUSH2 0x1C2D PUSH2 0x1C44 JUMP JUMPDEST PUSH1 0x40 MLOAD PUSH2 0x1C3A SWAP2 SWAP1 PUSH2 0x203F JUMP JUMPDEST PUSH1 0x40 MLOAD DUP1 SWAP2 SUB SWAP1 LOG1 JUMP JUMPDEST PUSH1 0x0 CALLER SWAP1 POP SWAP1 JUMP JUMPDEST PUSH2 0x1C54 PUSH2 0xF41 JUMP JUMPDEST PUSH2 0x1C8A JUMPI PUSH1 0x40 MLOAD PUSH32 0x8DFC202B00000000000000000000000000000000000000000000000000000000 DUP2 MSTORE PUSH1 0x4 ADD PUSH1 0x40 MLOAD DUP1 SWAP2 SUB SWAP1 REVERT JUMPDEST JUMP JUMPDEST POP DUP1 SLOAD PUSH1 0x0 DUP3 SSTORE SWAP1 PUSH1 0x0 MSTORE PUSH1 0x20 PUSH1 0x0 KECCAK256 SWAP1 DUP2 ADD SWAP1 PUSH2 0x1CAA SWAP2 SWAP1 PUSH2 0x1CAD JUMP JUMPDEST POP JUMP JUMPDEST JUMPDEST DUP1 DUP3 GT ISZERO PUSH2 0x1CC6 JUMPI PUSH1 0x0 DUP2 PUSH1 0x0 SWAP1 SSTORE POP PUSH1 0x1 ADD PUSH2 0x1CAE JUMP JUMPDEST POP SWAP1 JUMP JUMPDEST PUSH1 0x0 DUP1 REVERT JUMPDEST PUSH1 0x0 DUP1 REVERT JUMPDEST PUSH1 0x0 DUP2 SWAP1 POP SWAP2 SWAP1 POP JUMP JUMPDEST PUSH2 0x1CE7 DUP2 PUSH2 0x1CD4 JUMP JUMPDEST DUP2 EQ PUSH2 0x1CF2 JUMPI PUSH1 0x0 DUP1 REVERT JUMPDEST POP JUMP JUMPDEST PUSH1 0x0 DUP2 CALLDATALOAD SWAP1 POP PUSH2 0x1D04 DUP2 PUSH2 0x1CDE JUMP JUMPDEST SWAP3 SWAP2 POP POP JUMP JUMPDEST PUSH1 0x0 PUSH1 0x20 DUP3 DUP5 SUB SLT ISZERO PUSH2 0x1D20 JUMPI PUSH2 0x1D1F PUSH2 0x1CCA JUMP JUMPDEST JUMPDEST PUSH1 0x0 PUSH2 0x1D2E DUP5 DUP3 DUP6 ADD PUSH2 0x1CF5 JUMP JUMPDEST SWAP2 POP POP SWAP3 SWAP2 POP POP JUMP JUMPDEST PUSH1 0x0 DUP2 SWAP1 POP SWAP2 SWAP1 POP JUMP JUMPDEST PUSH2 0x1D4A DUP2 PUSH2 0x1D37 JUMP JUMPDEST DUP3 MSTORE POP POP JUMP JUMPDEST PUSH1 0x0 DUP2 ISZERO ISZERO SWAP1 POP SWAP2 SWAP1 POP JUMP JUMPDEST PUSH2 0x1D65 DUP2 PUSH2 0x1D50 JUMP JUMPDEST DUP3 MSTORE POP POP JUMP JUMPDEST PUSH1 0x0 PUSH1 0xA0 DUP3 ADD SWAP1 POP PUSH2 0x1D80 PUSH1 0x0 DUP4 ADD DUP9 PUSH2 0x1D41 JUMP JUMPDEST PUSH2 0x1D8D PUSH1 0x20 DUP4 ADD DUP8 PUSH2 0x1D41 JUMP JUMPDEST PUSH2 0x1D9A PUSH1 0x40 DUP4 ADD DUP7 PUSH2 0x1D5C JUMP JUMPDEST PUSH2 0x1DA7 PUSH1 0x60 DUP4 ADD DUP6 PUSH2 0x1D41 JUMP JUMPDEST PUSH2 0x1DB4 PUSH1 0x80 DUP4 ADD DUP5 PUSH2 0x1D41 JUMP JUMPDEST SWAP7 SWAP6 POP POP POP POP POP POP JUMP JUMPDEST PUSH1 0x0 DUP1 REVERT JUMPDEST PUSH1 0x0 DUP1 REVERT JUMPDEST PUSH1 0x0 DUP1 REVERT JUMPDEST PUSH1 0x0 DUP1 DUP4 PUSH1 0x1F DUP5 ADD SLT PUSH2 0x1DE3 JUMPI PUSH2 0x1DE2 PUSH2 0x1DBE JUMP JUMPDEST JUMPDEST DUP3 CALLDATALOAD SWAP1 POP PUSH8 0xFFFFFFFFFFFFFFFF DUP2 GT ISZERO PUSH2 0x1E00 JUMPI PUSH2 0x1DFF PUSH2 0x1DC3 JUMP JUMPDEST JUMPDEST PUSH1 0x20 DUP4 ADD SWAP2 POP DUP4 PUSH1 0x20 DUP3 MUL DUP4 ADD GT ISZERO PUSH2 0x1E1C JUMPI PUSH2 0x1E1B PUSH2 0x1DC8 JUMP JUMPDEST JUMPDEST SWAP3 POP SWAP3 SWAP1 POP JUMP JUMPDEST PUSH1 0x0 DUP1 PUSH1 0x0 PUSH1 0x40 DUP5 DUP7 SUB SLT ISZERO PUSH2 0x1E3C JUMPI PUSH2 0x1E3B PUSH2 0x1CCA JUMP JUMPDEST JUMPDEST PUSH1 0x0 PUSH2 0x1E4A DUP7 DUP3 DUP8 ADD PUSH2 0x1CF5 JUMP JUMPDEST SWAP4 POP POP PUSH1 0x20 DUP5 ADD CALLDATALOAD PUSH8 0xFFFFFFFFFFFFFFFF DUP2 GT ISZERO PUSH2 0x1E6B JUMPI PUSH2 0x1E6A PUSH2 0x1CCF JUMP JUMPDEST JUMPDEST PUSH2 0x1E77 DUP7 DUP3 DUP8 ADD PUSH2 0x1DCD JUMP JUMPDEST SWAP3 POP SWAP3 POP POP SWAP3 POP SWAP3 POP SWAP3 JUMP JUMPDEST PUSH1 0x0 DUP1 PUSH1 0x40 DUP4 DUP6 SUB SLT ISZERO PUSH2 0x1E9A JUMPI PUSH2 0x1E99 PUSH2 0x1CCA JUMP JUMPDEST JUMPDEST PUSH1 0x0 PUSH2 0x1EA8 DUP6 DUP3 DUP7 ADD PUSH2 0x1CF5 JUMP JUMPDEST SWAP3 POP POP PUSH1 0x20 PUSH2 0x1EB9 DUP6 DUP3 DUP7 ADD PUSH2 0x1CF5 JUMP JUMPDEST SWAP2 POP POP SWAP3 POP SWAP3 SWAP1 POP JUMP JUMPDEST PUSH1 0x0 PUSH1 0x20 DUP3 ADD SWAP1 POP PUSH2 0x1ED8 PUSH1 0x0 DUP4 ADD DUP5 PUSH2 0x1D41 JUMP JUMPDEST SWAP3 SWAP2 POP POP JUMP JUMPDEST PUSH2 0x1EE7 DUP2 PUSH2 0x1D37 JUMP JUMPDEST DUP2 EQ PUSH2 0x1EF2 JUMPI PUSH1 0x0 DUP1 REVERT JUMPDEST POP JUMP JUMPDEST PUSH1 0x0 DUP2 CALLDATALOAD SWAP1 POP PUSH2 0x1F04 DUP2 PUSH2 0x1EDE JUMP JUMPDEST SWAP3 SWAP2 POP POP JUMP JUMPDEST PUSH1 0x0 PUSH1 0x20 DUP3 DUP5 SUB SLT ISZERO PUSH2 0x1F20 JUMPI PUSH2 0x1F1F PUSH2 0x1CCA JUMP JUMPDEST JUMPDEST PUSH1 0x0 PUSH2 0x1F2E DUP5 DUP3 DUP6 ADD PUSH2 0x1EF5 JUMP JUMPDEST SWAP2 POP POP SWAP3 SWAP2 POP POP JUMP JUMPDEST PUSH1 0x0 DUP1 PUSH1 0x0 PUSH1 0x60 DUP5 DUP7 SUB SLT ISZERO PUSH2 0x1F50 JUMPI PUSH2 0x1F4F PUSH2 0x1CCA JUMP JUMPDEST JUMPDEST PUSH1 0x0 PUSH2 0x1F5E DUP7 DUP3 DUP8 ADD PUSH2 0x1CF5 JUMP JUMPDEST SWAP4 POP POP PUSH1 0x20 PUSH2 0x1F6F DUP7 DUP3 DUP8 ADD PUSH2 0x1CF5 JUMP JUMPDEST SWAP3 POP POP PUSH1 0x40 PUSH2 0x1F80 DUP7 DUP3 DUP8 ADD PUSH2 0x1EF5 JUMP JUMPDEST SWAP2 POP POP SWAP3 POP SWAP3 POP SWAP3 JUMP JUMPDEST PUSH1 0x0 PUSH1 0x20 DUP3 ADD SWAP1 POP PUSH2 0x1F9F PUSH1 0x0 DUP4 ADD DUP5 PUSH2 0x1D5C JUMP JUMPDEST SWAP3 SWAP2 POP POP JUMP JUMPDEST PUSH1 0x0 PUSH20 0xFFFFFFFFFFFFFFFFFFFFFFFFFFFFFFFFFFFFFFFF DUP3 AND SWAP1 POP SWAP2 SWAP1 POP JUMP JUMPDEST PUSH1 0x0 PUSH2 0x1FD0 DUP3 PUSH2 0x1FA5 JUMP JUMPDEST SWAP1 POP SWAP2 SWAP1 POP JUMP JUMPDEST PUSH2 0x1FE0 DUP2 PUSH2 0x1FC5 JUMP JUMPDEST DUP2 EQ PUSH2 0x1FEB JUMPI PUSH1 0x0 DUP1 REVERT JUMPDEST POP JUMP JUMPDEST PUSH1 0x0 DUP2 CALLDATALOAD SWAP1 POP PUSH2 0x1FFD DUP2 PUSH2 0x1FD7 JUMP JUMPDEST SWAP3 SWAP2 POP POP JUMP JUMPDEST PUSH1 0x0 PUSH1 0x20 DUP3 DUP5 SUB SLT ISZERO PUSH2 0x2019 JUMPI PUSH2 0x2018 PUSH2 0x1CCA JUMP JUMPDEST JUMPDEST PUSH1 0x0 PUSH2 0x2027 DUP5 DUP3 DUP6 ADD PUSH2 0x1FEE JUMP JUMPDEST SWAP2 POP POP SWAP3 SWAP2 POP POP JUMP JUMPDEST PUSH2 0x2039 DUP2 PUSH2 0x1FC5 JUMP JUMPDEST DUP3 MSTORE POP POP JUMP JUMPDEST PUSH1 0x0 PUSH1 0x20 DUP3 ADD SWAP1 POP PUSH2 0x2054 PUSH1 0x0 DUP4 ADD DUP5 PUSH2 0x2030 JUMP JUMPDEST SWAP3 SWAP2 POP POP JUMP JUMPDEST PUSH1 0x0 DUP2 SWAP1 POP SWAP2 SWAP1 POP JUMP JUMPDEST PUSH1 0x0 PUSH2 0x207F PUSH2 0x207A PUSH2 0x2075 DUP5 PUSH2 0x1FA5 JUMP JUMPDEST PUSH2 0x205A JUMP JUMPDEST PUSH2 0x1FA5 JUMP JUMPDEST SWAP1 POP SWAP2 SWAP1 POP JUMP JUMPDEST PUSH1 0x0 PUSH2 0x2091 DUP3 PUSH2 0x2064 JUMP JUMPDEST SWAP1 POP SWAP2 SWAP1 POP JUMP JUMPDEST PUSH1 0x0 PUSH2 0x20A3 DUP3 PUSH2 0x2086 JUMP JUMPDEST SWAP1 POP SWAP2 SWAP1 POP JUMP JUMPDEST PUSH2 0x20B3 DUP2 PUSH2 0x2098 JUMP JUMPDEST DUP3 MSTORE POP POP JUMP JUMPDEST PUSH1 0x0 PUSH1 0x20 DUP3 ADD SWAP1 POP PUSH2 0x20CE PUSH1 0x0 DUP4 ADD DUP5 PUSH2 0x20AA JUMP JUMPDEST SWAP3 SWAP2 POP POP JUMP JUMPDEST PUSH1 0x0 DUP1 PUSH1 0x40 DUP4 DUP6 SUB SLT ISZERO PUSH2 0x20EB JUMPI PUSH2 0x20EA PUSH2 0x1CCA JUMP JUMPDEST JUMPDEST PUSH1 0x0 PUSH2 0x20F9 DUP6 DUP3 DUP7 ADD PUSH2 0x1CF5 JUMP JUMPDEST SWAP3 POP POP PUSH1 0x20 PUSH2 0x210A DUP6 DUP3 DUP7 ADD PUSH2 0x1EF5 JUMP JUMPDEST SWAP2 POP POP SWAP3 POP SWAP3 SWAP1 POP JUMP JUMPDEST PUSH2 0x211D DUP2 PUSH2 0x1CD4 JUMP JUMPDEST DUP3 MSTORE POP POP JUMP JUMPDEST PUSH1 0x0 PUSH1 0xC0 DUP3 ADD SWAP1 POP PUSH2 0x2138 PUSH1 0x0 DUP4 ADD DUP10 PUSH2 0x1D41 JUMP JUMPDEST PUSH2 0x2145 PUSH1 0x20 DUP4 ADD DUP9 PUSH2 0x1D41 JUMP JUMPDEST PUSH2 0x2152 PUSH1 0x40 DUP4 ADD DUP8 PUSH2 0x1D41 JUMP JUMPDEST PUSH2 0x215F PUSH1 0x60 DUP4 ADD DUP7 PUSH2 0x1D41 JUMP JUMPDEST PUSH2 0x216C PUSH1 0x80 DUP4 ADD DUP6 PUSH2 0x2114 JUMP JUMPDEST PUSH2 0x2179 PUSH1 0xA0 DUP4 ADD DUP5 PUSH2 0x1D5C JUMP JUMPDEST SWAP8 SWAP7 POP POP POP POP POP POP POP JUMP JUMPDEST PUSH1 0x0 PUSH1 0x20 DUP3 ADD SWAP1 POP PUSH2 0x2199 PUSH1 0x0 DUP4 ADD DUP5 PUSH2 0x2114 JUMP JUMPDEST SWAP3 SWAP2 POP POP JUMP JUMPDEST PUSH32 0x4E487B7100000000000000000000000000000000000000000000000000000000 PUSH1 0x0 MSTORE PUSH1 0x32 PUSH1 0x4 MSTORE PUSH1 0x24 PUSH1 0x0 REVERT JUMPDEST PUSH32 0x4E487B7100000000000000000000000000000000000000000000000000000000 PUSH1 0x0 MSTORE PUSH1 0x11 PUSH1 0x4 MSTORE PUSH1 0x24 PUSH1 0x0 REVERT JUMPDEST PUSH1 0x0 PUSH2 0x2208 DUP3 PUSH2 0x1D37 JUMP JUMPDEST SWAP2 POP PUSH2 0x2213 DUP4 PUSH2 0x1D37 JUMP JUMPDEST SWAP3 POP DUP3 DUP3 ADD SWAP1 POP DUP1 DUP3 GT ISZERO PUSH2 0x222B JUMPI PUSH2 0x222A PUSH2 0x21CE JUMP JUMPDEST JUMPDEST SWAP3 SWAP2 POP POP JUMP JUMPDEST PUSH32 0x4E487B7100000000000000000000000000000000000000000000000000000000 PUSH1 0x0 MSTORE PUSH1 0x12 PUSH1 0x4 MSTORE PUSH1 0x24 PUSH1 0x0 REVERT JUMPDEST PUSH1 0x0 PUSH2 0x226B DUP3 PUSH2 0x1D37 JUMP JUMPDEST SWAP2 POP PUSH2 0x2276 DUP4 PUSH2 0x1D37 JUMP JUMPDEST SWAP3 POP DUP3 PUSH2 0x2286 JUMPI PUSH2 0x2285 PUSH2 0x2231 JUMP JUMPDEST JUMPDEST DUP3 DUP3 DIV SWAP1 POP SWAP3 SWAP2 POP POP JUMP JUMPDEST PUSH1 0x0 PUSH1 0x40 DUP3 ADD SWAP1 POP PUSH2 0x22A6 PUSH1 0x0 DUP4 ADD DUP6 PUSH2 0x1D41 JUMP JUMPDEST PUSH2 0x22B3 PUSH1 0x20 DUP4 ADD DUP5 PUSH2 0x1D41 JUMP JUMPDEST SWAP4 SWAP3 POP POP POP JUMP JUMPDEST PUSH1 0x0 PUSH1 0x40 DUP3 ADD SWAP1 POP PUSH2 0x22CF PUSH1 0x0 DUP4 ADD DUP6 PUSH2 0x2030 JUMP JUMPDEST PUSH2 0x22DC PUSH1 0x20 DUP4 ADD DUP5 PUSH2 0x1D41 JUMP JUMPDEST SWAP4 SWAP3 POP POP POP JUMP JUMPDEST PUSH2 0x22EC DUP2 PUSH2 0x1D50 JUMP JUMPDEST DUP2 EQ PUSH2 0x22F7 JUMPI PUSH1 0x0 DUP1 REVERT JUMPDEST POP JUMP JUMPDEST PUSH1 0x0 DUP2 MLOAD SWAP1 POP PUSH2 0x2309 DUP2 PUSH2 0x22E3 JUMP JUMPDEST SWAP3 SWAP2 POP POP JUMP JUMPDEST PUSH1 0x0 PUSH1 0x20 DUP3 DUP5 SUB SLT ISZERO PUSH2 0x2325 JUMPI PUSH2 0x2324 PUSH2 0x1CCA JUMP JUMPDEST JUMPDEST PUSH1 0x0 PUSH2 0x2333 DUP5 DUP3 DUP6 ADD PUSH2 0x22FA JUMP JUMPDEST SWAP2 POP POP SWAP3 SWAP2 POP POP JUMP JUMPDEST PUSH1 0x0 PUSH1 0x60 DUP3 ADD SWAP1 POP PUSH2 0x2351 PUSH1 0x0 DUP4 ADD DUP7 PUSH2 0x1D41 JUMP JUMPDEST PUSH2 0x235E PUSH1 0x20 DUP4 ADD DUP6 PUSH2 0x1D41 JUMP JUMPDEST PUSH2 0x236B PUSH1 0x40 DUP4 ADD DUP5 PUSH2 0x1D41 JUMP JUMPDEST SWAP5 SWAP4 POP POP POP POP JUMP JUMPDEST PUSH1 0x0 PUSH1 0x60 DUP3 ADD SWAP1 POP PUSH2 0x2388 PUSH1 0x0 DUP4 ADD DUP7 PUSH2 0x2030 JUMP JUMPDEST PUSH2 0x2395 PUSH1 0x20 DUP4 ADD DUP6 PUSH2 0x2030 JUMP JUMPDEST PUSH2 0x23A2 PUSH1 0x40 DUP4 ADD DUP5 PUSH2 0x1D41 JUMP JUMPDEST SWAP5 SWAP4 POP POP POP POP JUMP JUMPDEST PUSH1 0x0 PUSH2 0x23B5 DUP3 PUSH2 0x1D37 JUMP JUMPDEST SWAP2 POP PUSH32 0xFFFFFFFFFFFFFFFFFFFFFFFFFFFFFFFFFFFFFFFFFFFFFFFFFFFFFFFFFFFFFFFF DUP3 SUB PUSH2 0x23E7 JUMPI PUSH2 0x23E6 PUSH2 0x21CE JUMP JUMPDEST JUMPDEST PUSH1 0x1 DUP3 ADD SWAP1 POP SWAP2 SWAP1 POP JUMP JUMPDEST PUSH1 0x0 PUSH1 0x60 DUP3 ADD SWAP1 POP PUSH2 0x2407 PUSH1 0x0 DUP4 ADD DUP7 PUSH2 0x2114 JUMP JUMPDEST PUSH2 0x2414 PUSH1 0x20 DUP4 ADD DUP6 PUSH2 0x1D41 JUMP JUMPDEST PUSH2 0x2421 PUSH1 0x40 DUP4 ADD DUP5 PUSH2 0x1D41 JUMP JUMPDEST SWAP5 SWAP4 POP POP POP POP JUMP JUMPDEST PUSH1 0x0 PUSH2 0x2434 DUP3 PUSH2 0x1D37 JUMP JUMPDEST SWAP2 POP PUSH2 0x243F DUP4 PUSH2 0x1D37 JUMP JUMPDEST SWAP3 POP DUP3 DUP3 MUL PUSH2 0x244D DUP2 PUSH2 0x1D37 JUMP JUMPDEST SWAP2 POP DUP3 DUP3 DIV DUP5 EQ DUP4 ISZERO OR PUSH2 0x2464 JUMPI PUSH2 0x2463 PUSH2 0x21CE JUMP JUMPDEST JUMPDEST POP SWAP3 SWAP2 POP POP JUMP JUMPDEST PUSH1 0x0 PUSH1 0x40 DUP3 ADD SWAP1 POP PUSH2 0x2480 PUSH1 0x0 DUP4 ADD DUP6 PUSH2 0x1D41 JUMP JUMPDEST PUSH2 0x248D PUSH1 0x20 DUP4 ADD DUP5 PUSH2 0x1D5C JUMP JUMPDEST SWAP4 SWAP3 POP POP POP JUMP JUMPDEST PUSH1 0x0 PUSH2 0x249F DUP3 PUSH2 0x1D37 JUMP JUMPDEST SWAP2 POP PUSH2 0x24AA DUP4 PUSH2 0x1D37 JUMP JUMPDEST SWAP3 POP DUP3 DUP3 SUB SWAP1 POP DUP2 DUP2 GT ISZERO PUSH2 0x24C2 JUMPI PUSH2 0x24C1 PUSH2 0x21CE JUMP JUMPDEST JUMPDEST SWAP3 SWAP2 POP POP JUMP JUMPDEST PUSH1 0x0 DUP2 SWAP1 POP SWAP2 SWAP1 POP JUMP JUMPDEST PUSH1 0x0 PUSH8 0xFFFFFFFFFFFFFFFF DUP3 AND SWAP1 POP SWAP2 SWAP1 POP JUMP JUMPDEST PUSH1 0x0 PUSH2 0x2501 PUSH2 0x24FC PUSH2 0x24F7 DUP5 PUSH2 0x24C8 JUMP JUMPDEST PUSH2 0x205A JUMP JUMPDEST PUSH2 0x24D2 JUMP JUMPDEST SWAP1 POP SWAP2 SWAP1 POP JUMP JUMPDEST PUSH2 0x2511 DUP2 PUSH2 0x24E6 JUMP JUMPDEST DUP3 MSTORE POP POP JUMP JUMPDEST PUSH1 0x0 PUSH1 0x20 DUP3 ADD SWAP1 POP PUSH2 0x252C PUSH1 0x0 DUP4 ADD DUP5 PUSH2 0x2508 JUMP JUMPDEST SWAP3 SWAP2 POP POP JUMP INVALID LOG2 PUSH5 0x6970667358 0x22 SLT KECCAK256 SWAP3 DUP12 EQ RETURNDATASIZE 0xA8 SHL 0xFB ORIGIN GASLIMIT SWAP15 CODESIZE CALLDATALOAD SLT PUSH23 0xA794FE6245E961EEE39ABB13BB136A2A03FA64736F6C63 NUMBER STOP ADDMOD XOR STOP CALLER "
        },
        "methodIdentifiers": {
          "BET_DURATION()": "e53d4c2d",
          "MAX_BET()": "7e95b523",
          "OUTSIDER_ODDS()": "d32ecee3",
          "RESERVE_PERCENTAGE()": "74792153",
          "artistRanks(bytes32,bytes32)": "2e1413df",
          "chartsBetToken()": "a32c90c9",
          "claimPayout()": "e88499a9",
          "closePoolAndAnnounceWinner(bytes32,bytes32)": "5b68b7aa",
          "currentDay()": "5c9302c9",
          "dailyPools(bytes32,uint256)": "b49d65eb",
          "getOdds(bytes32,bytes32)": "776eba8e",
          "getPoolInfo(bytes32)": "09f2c019",
          "initialize()": "8129fc1c",
          "openAllDailyPools()": "1a9db790",
          "owner()": "8da5cb5b",
          "pause()": "8456cb59",
          "paused()": "5c975abb",
          "pendingPayouts(address)": "784712f2",
          "placeBet(bytes32,bytes32,uint256)": "4ae701fe",
          "renounceOwnership()": "715018a6",
          "settleBet(bytes32)": "675f6537",
          "top10Artists(bytes32,uint256)": "da3f8578",
          "transferOwnership(address)": "f2fde38b",
          "unpause()": "3f4ba83a",
          "updateTop10(bytes32,bytes32[])": "14989554",
          "validCountries(bytes32)": "66566a37",
          "withdrawTokens(uint256)": "315a095d"
        }
      },
      "storageLayout": {
        "storage": [
          {
            "astId": 8,
            "contract": "contracts/ChartsBet.sol:ChartsBet",
            "label": "_owner",
            "offset": 0,
            "slot": "0",
            "type": "t_address"
          },
          {
            "astId": 1242,
            "contract": "contracts/ChartsBet.sol:ChartsBet",
            "label": "_paused",
            "offset": 20,
            "slot": "0",
            "type": "t_bool"
          },
          {
            "astId": 1361,
            "contract": "contracts/ChartsBet.sol:ChartsBet",
            "label": "_status",
            "offset": 0,
            "slot": "1",
            "type": "t_uint256"
          },
          {
            "astId": 1480,
            "contract": "contracts/ChartsBet.sol:ChartsBet",
            "label": "chartsBetToken",
            "offset": 0,
            "slot": "2",
            "type": "t_contract(IERC20)1131"
          },
          {
            "astId": 1484,
            "contract": "contracts/ChartsBet.sol:ChartsBet",
            "label": "validCountries",
            "offset": 0,
            "slot": "3",
            "type": "t_mapping(t_bytes32,t_bool)"
          },
          {
            "astId": 1491,
            "contract": "contracts/ChartsBet.sol:ChartsBet",
            "label": "dailyPools",
            "offset": 0,
            "slot": "4",
            "type": "t_mapping(t_bytes32,t_mapping(t_uint256,t_struct(DailyBettingPool)1461_storage))"
          },
          {
            "astId": 1496,
            "contract": "contracts/ChartsBet.sol:ChartsBet",
            "label": "top10Artists",
            "offset": 0,
            "slot": "5",
            "type": "t_mapping(t_bytes32,t_array(t_bytes32)dyn_storage)"
          },
          {
            "astId": 1502,
            "contract": "contracts/ChartsBet.sol:ChartsBet",
            "label": "artistRanks",
            "offset": 0,
            "slot": "6",
            "type": "t_mapping(t_bytes32,t_mapping(t_bytes32,t_uint256))"
          },
          {
            "astId": 1506,
            "contract": "contracts/ChartsBet.sol:ChartsBet",
            "label": "pendingPayouts",
            "offset": 0,
            "slot": "7",
            "type": "t_mapping(t_address,t_uint256)"
          },
          {
            "astId": 1508,
            "contract": "contracts/ChartsBet.sol:ChartsBet",
            "label": "currentDay",
            "offset": 0,
            "slot": "8",
            "type": "t_uint256"
          }
        ],
        "types": {
          "t_address": {
            "encoding": "inplace",
            "label": "address",
            "numberOfBytes": "20"
          },
          "t_array(t_bytes32)dyn_storage": {
            "base": "t_bytes32",
            "encoding": "dynamic_array",
            "label": "bytes32[]",
            "numberOfBytes": "32"
          },
          "t_bool": {
            "encoding": "inplace",
            "label": "bool",
            "numberOfBytes": "1"
          },
          "t_bytes32": {
            "encoding": "inplace",
            "label": "bytes32",
            "numberOfBytes": "32"
          },
          "t_contract(IERC20)1131": {
            "encoding": "inplace",
            "label": "contract IERC20",
            "numberOfBytes": "20"
          },
          "t_mapping(t_address,t_struct(Bet)1443_storage)": {
            "encoding": "mapping",
            "key": "t_address",
            "label": "mapping(address => struct ChartsBet.Bet)",
            "numberOfBytes": "32",
            "value": "t_struct(Bet)1443_storage"
          },
          "t_mapping(t_address,t_uint256)": {
            "encoding": "mapping",
            "key": "t_address",
            "label": "mapping(address => uint256)",
            "numberOfBytes": "32",
            "value": "t_uint256"
          },
          "t_mapping(t_bytes32,t_array(t_bytes32)dyn_storage)": {
            "encoding": "mapping",
            "key": "t_bytes32",
            "label": "mapping(bytes32 => bytes32[])",
            "numberOfBytes": "32",
            "value": "t_array(t_bytes32)dyn_storage"
          },
          "t_mapping(t_bytes32,t_bool)": {
            "encoding": "mapping",
            "key": "t_bytes32",
            "label": "mapping(bytes32 => bool)",
            "numberOfBytes": "32",
            "value": "t_bool"
          },
          "t_mapping(t_bytes32,t_mapping(t_bytes32,t_uint256))": {
            "encoding": "mapping",
            "key": "t_bytes32",
            "label": "mapping(bytes32 => mapping(bytes32 => uint256))",
            "numberOfBytes": "32",
            "value": "t_mapping(t_bytes32,t_uint256)"
          },
          "t_mapping(t_bytes32,t_mapping(t_uint256,t_struct(DailyBettingPool)1461_storage))": {
            "encoding": "mapping",
            "key": "t_bytes32",
            "label": "mapping(bytes32 => mapping(uint256 => struct ChartsBet.DailyBettingPool))",
            "numberOfBytes": "32",
            "value": "t_mapping(t_uint256,t_struct(DailyBettingPool)1461_storage)"
          },
          "t_mapping(t_bytes32,t_uint256)": {
            "encoding": "mapping",
            "key": "t_bytes32",
            "label": "mapping(bytes32 => uint256)",
            "numberOfBytes": "32",
            "value": "t_uint256"
          },
          "t_mapping(t_uint256,t_struct(DailyBettingPool)1461_storage)": {
            "encoding": "mapping",
            "key": "t_uint256",
            "label": "mapping(uint256 => struct ChartsBet.DailyBettingPool)",
            "numberOfBytes": "32",
            "value": "t_struct(DailyBettingPool)1461_storage"
          },
          "t_struct(Bet)1443_storage": {
            "encoding": "inplace",
            "label": "struct ChartsBet.Bet",
            "members": [
              {
                "astId": 1436,
                "contract": "contracts/ChartsBet.sol:ChartsBet",
                "label": "bettor",
                "offset": 0,
                "slot": "0",
                "type": "t_address"
              },
              {
                "astId": 1438,
                "contract": "contracts/ChartsBet.sol:ChartsBet",
                "label": "artist",
                "offset": 0,
                "slot": "1",
                "type": "t_bytes32"
              },
              {
                "astId": 1440,
                "contract": "contracts/ChartsBet.sol:ChartsBet",
                "label": "amount",
                "offset": 0,
                "slot": "2",
                "type": "t_uint256"
              },
              {
                "astId": 1442,
                "contract": "contracts/ChartsBet.sol:ChartsBet",
                "label": "odds",
                "offset": 0,
                "slot": "3",
                "type": "t_uint256"
              }
            ],
            "numberOfBytes": "128"
          },
          "t_struct(DailyBettingPool)1461_storage": {
            "encoding": "inplace",
            "label": "struct ChartsBet.DailyBettingPool",
            "members": [
              {
                "astId": 1445,
                "contract": "contracts/ChartsBet.sol:ChartsBet",
                "label": "openingTime",
                "offset": 0,
                "slot": "0",
                "type": "t_uint256"
              },
              {
                "astId": 1447,
                "contract": "contracts/ChartsBet.sol:ChartsBet",
                "label": "closingTime",
                "offset": 0,
                "slot": "1",
                "type": "t_uint256"
              },
              {
                "astId": 1452,
                "contract": "contracts/ChartsBet.sol:ChartsBet",
                "label": "bets",
                "offset": 0,
                "slot": "2",
                "type": "t_mapping(t_address,t_struct(Bet)1443_storage)"
              },
              {
                "astId": 1454,
                "contract": "contracts/ChartsBet.sol:ChartsBet",
                "label": "totalBets",
                "offset": 0,
                "slot": "3",
                "type": "t_uint256"
              },
              {
                "astId": 1456,
                "contract": "contracts/ChartsBet.sol:ChartsBet",
                "label": "totalAmount",
                "offset": 0,
                "slot": "4",
                "type": "t_uint256"
              },
              {
                "astId": 1458,
                "contract": "contracts/ChartsBet.sol:ChartsBet",
                "label": "winningArtist",
                "offset": 0,
                "slot": "5",
                "type": "t_bytes32"
              },
              {
                "astId": 1460,
                "contract": "contracts/ChartsBet.sol:ChartsBet",
                "label": "closed",
                "offset": 0,
                "slot": "6",
                "type": "t_bool"
              }
            ],
            "numberOfBytes": "224"
          },
          "t_uint256": {
            "encoding": "inplace",
            "label": "uint256",
            "numberOfBytes": "32"
          }
        }
      }
    }
  }
}