{
  "contracts/ChartsBet.sol": {
    "ChartsBet": {
      "abi": [
        {
          "inputs": [
            {
              "internalType": "address",
              "name": "initialOwner",
              "type": "address"
            }
          ],
          "stateMutability": "nonpayable",
          "type": "constructor"
        },
        {
          "inputs": [
            {
              "internalType": "address",
              "name": "bettor",
              "type": "address"
            }
          ],
          "name": "BetAlreadyPlaced",
          "type": "error"
        },
        {
          "inputs": [
            {
              "internalType": "uint256",
              "name": "amount",
              "type": "uint256"
            },
            {
              "internalType": "uint256",
              "name": "maxBet",
              "type": "uint256"
            }
          ],
          "name": "BetTooHigh",
          "type": "error"
        },
        {
          "inputs": [],
          "name": "EnforcedPause",
          "type": "error"
        },
        {
          "inputs": [],
          "name": "ExpectedPause",
          "type": "error"
        },
        {
          "inputs": [
            {
              "internalType": "uint256",
              "name": "required",
              "type": "uint256"
            },
            {
              "internalType": "uint256",
              "name": "available",
              "type": "uint256"
            }
          ],
          "name": "InsufficientContractBalance",
          "type": "error"
        },
        {
          "inputs": [
            {
              "internalType": "uint256",
              "name": "count",
              "type": "uint256"
            }
          ],
          "name": "InvalidArtistCount",
          "type": "error"
        },
        {
          "inputs": [
            {
              "internalType": "bytes32",
              "name": "country",
              "type": "bytes32"
            }
          ],
          "name": "InvalidCountry",
          "type": "error"
        },
        {
          "inputs": [],
          "name": "InvalidInitialization",
          "type": "error"
        },
        {
          "inputs": [],
          "name": "NoBetPlaced",
          "type": "error"
        },
        {
          "inputs": [],
          "name": "NoPayoutToClaim",
          "type": "error"
        },
        {
          "inputs": [],
          "name": "NotInitializing",
          "type": "error"
        },
        {
          "inputs": [
            {
              "internalType": "address",
              "name": "owner",
              "type": "address"
            }
          ],
          "name": "OwnableInvalidOwner",
          "type": "error"
        },
        {
          "inputs": [
            {
              "internalType": "address",
              "name": "account",
              "type": "address"
            }
          ],
          "name": "OwnableUnauthorizedAccount",
          "type": "error"
        },
        {
          "inputs": [],
          "name": "PoolAlreadyClosed",
          "type": "error"
        },
        {
          "inputs": [],
          "name": "PoolNotClosed",
          "type": "error"
        },
        {
          "inputs": [
            {
              "internalType": "uint256",
              "name": "currentTime",
              "type": "uint256"
            },
            {
              "internalType": "uint256",
              "name": "openingTime",
              "type": "uint256"
            },
            {
              "internalType": "uint256",
              "name": "scheduledClosingTime",
              "type": "uint256"
            },
            {
              "internalType": "uint256",
              "name": "actualClosingTime",
              "type": "uint256"
            }
          ],
          "name": "PoolNotOpen",
          "type": "error"
        },
        {
          "inputs": [
            {
              "internalType": "uint256",
              "name": "currentTime",
              "type": "uint256"
            },
            {
              "internalType": "uint256",
              "name": "scheduledClosingTime",
              "type": "uint256"
            }
          ],
          "name": "PoolNotScheduledToClose",
          "type": "error"
        },
        {
          "inputs": [],
          "name": "ReentrancyGuardReentrantCall",
          "type": "error"
        },
        {
          "anonymous": false,
          "inputs": [
            {
              "indexed": true,
              "internalType": "address",
              "name": "bettor",
              "type": "address"
            },
            {
              "indexed": true,
              "internalType": "bytes32",
              "name": "country",
              "type": "bytes32"
            },
            {
              "indexed": true,
              "internalType": "uint256",
              "name": "day",
              "type": "uint256"
            },
            {
              "indexed": false,
              "internalType": "bytes32",
              "name": "artist",
              "type": "bytes32"
            },
            {
              "indexed": false,
              "internalType": "uint256",
              "name": "amount",
              "type": "uint256"
            },
            {
              "indexed": false,
              "internalType": "uint256",
              "name": "odds",
              "type": "uint256"
            }
          ],
          "name": "BetPlaced",
          "type": "event"
        },
        {
          "anonymous": false,
          "inputs": [
            {
              "indexed": true,
              "internalType": "address",
              "name": "bettor",
              "type": "address"
            },
            {
              "indexed": true,
              "internalType": "bytes32",
              "name": "country",
              "type": "bytes32"
            },
            {
              "indexed": true,
              "internalType": "uint256",
              "name": "day",
              "type": "uint256"
            },
            {
              "indexed": false,
              "internalType": "uint256",
              "name": "amount",
              "type": "uint256"
            },
            {
              "indexed": false,
              "internalType": "bool",
              "name": "won",
              "type": "bool"
            }
          ],
          "name": "BetSettled",
          "type": "event"
        },
        {
          "anonymous": false,
          "inputs": [
            {
              "indexed": false,
              "internalType": "uint64",
              "name": "version",
              "type": "uint64"
            }
          ],
          "name": "Initialized",
          "type": "event"
        },
        {
          "anonymous": false,
          "inputs": [
            {
              "indexed": true,
              "internalType": "address",
              "name": "previousOwner",
              "type": "address"
            },
            {
              "indexed": true,
              "internalType": "address",
              "name": "newOwner",
              "type": "address"
            }
          ],
          "name": "OwnershipTransferred",
          "type": "event"
        },
        {
          "anonymous": false,
          "inputs": [
            {
              "indexed": false,
              "internalType": "address",
              "name": "account",
              "type": "address"
            }
          ],
          "name": "Paused",
          "type": "event"
        },
        {
          "anonymous": false,
          "inputs": [
            {
              "indexed": true,
              "internalType": "address",
              "name": "bettor",
              "type": "address"
            },
            {
              "indexed": false,
              "internalType": "uint256",
              "name": "amount",
              "type": "uint256"
            }
          ],
          "name": "PayoutClaimed",
          "type": "event"
        },
        {
          "anonymous": false,
          "inputs": [
            {
              "indexed": true,
              "internalType": "bytes32",
              "name": "country",
              "type": "bytes32"
            },
            {
              "indexed": true,
              "internalType": "uint256",
              "name": "day",
              "type": "uint256"
            },
            {
              "indexed": false,
              "internalType": "bytes32",
              "name": "winningArtist",
              "type": "bytes32"
            },
            {
              "indexed": false,
              "internalType": "uint256",
              "name": "actualClosingTime",
              "type": "uint256"
            }
          ],
          "name": "PoolClosed",
          "type": "event"
        },
        {
          "anonymous": false,
          "inputs": [
            {
              "indexed": true,
              "internalType": "bytes32",
              "name": "country",
              "type": "bytes32"
            },
            {
              "indexed": true,
              "internalType": "uint256",
              "name": "day",
              "type": "uint256"
            },
            {
              "indexed": false,
              "internalType": "uint256",
              "name": "openingTime",
              "type": "uint256"
            },
            {
              "indexed": false,
              "internalType": "uint256",
              "name": "scheduledClosingTime",
              "type": "uint256"
            }
          ],
          "name": "PoolOpened",
          "type": "event"
        },
        {
          "anonymous": false,
          "inputs": [
            {
              "indexed": false,
              "internalType": "address",
              "name": "account",
              "type": "address"
            }
          ],
          "name": "Unpaused",
          "type": "event"
        },
        {
          "inputs": [],
          "name": "MAX_BET",
          "outputs": [
            {
              "internalType": "uint256",
              "name": "",
              "type": "uint256"
            }
          ],
          "stateMutability": "view",
          "type": "function"
        },
        {
          "inputs": [],
          "name": "OUTSIDER_ODDS",
          "outputs": [
            {
              "internalType": "uint256",
              "name": "",
              "type": "uint256"
            }
          ],
          "stateMutability": "view",
          "type": "function"
        },
        {
          "inputs": [],
          "name": "RESERVE_PERCENTAGE",
          "outputs": [
            {
              "internalType": "uint256",
              "name": "",
              "type": "uint256"
            }
          ],
          "stateMutability": "view",
          "type": "function"
        },
        {
          "inputs": [
            {
              "internalType": "bytes32",
              "name": "",
              "type": "bytes32"
            },
            {
              "internalType": "bytes32",
              "name": "",
              "type": "bytes32"
            }
          ],
          "name": "artistRanks",
          "outputs": [
            {
              "internalType": "uint256",
              "name": "",
              "type": "uint256"
            }
          ],
          "stateMutability": "view",
          "type": "function"
        },
        {
          "inputs": [],
          "name": "claimPayout",
          "outputs": [],
          "stateMutability": "nonpayable",
          "type": "function"
        },
        {
          "inputs": [
            {
              "internalType": "bytes32",
              "name": "country",
              "type": "bytes32"
            },
            {
              "internalType": "bytes32",
              "name": "winningArtist",
              "type": "bytes32"
            }
          ],
          "name": "closePoolAndAnnounceWinner",
          "outputs": [],
          "stateMutability": "nonpayable",
          "type": "function"
        },
        {
          "inputs": [],
          "name": "currentDay",
          "outputs": [
            {
              "internalType": "uint256",
              "name": "",
              "type": "uint256"
            }
          ],
          "stateMutability": "view",
          "type": "function"
        },
        {
          "inputs": [
            {
              "internalType": "bytes32",
              "name": "",
              "type": "bytes32"
            },
            {
              "internalType": "uint256",
              "name": "",
              "type": "uint256"
            }
          ],
          "name": "dailyPools",
          "outputs": [
            {
              "internalType": "uint256",
              "name": "openingTime",
              "type": "uint256"
            },
            {
              "internalType": "uint256",
              "name": "scheduledClosingTime",
              "type": "uint256"
            },
            {
              "internalType": "uint256",
              "name": "actualClosingTime",
              "type": "uint256"
            },
            {
              "internalType": "uint256",
              "name": "totalBets",
              "type": "uint256"
            },
            {
              "internalType": "uint256",
              "name": "totalAmount",
              "type": "uint256"
            },
            {
              "internalType": "bytes32",
              "name": "winningArtist",
              "type": "bytes32"
            },
            {
              "internalType": "bool",
              "name": "closed",
              "type": "bool"
            }
          ],
          "stateMutability": "view",
          "type": "function"
        },
        {
          "inputs": [],
          "name": "defaultDuration",
          "outputs": [
            {
              "internalType": "uint256",
              "name": "",
              "type": "uint256"
            }
          ],
          "stateMutability": "view",
          "type": "function"
        },
        {
          "inputs": [
            {
              "internalType": "bytes32",
              "name": "country",
              "type": "bytes32"
            },
            {
              "internalType": "bytes32",
              "name": "artist",
              "type": "bytes32"
            }
          ],
          "name": "getOdds",
          "outputs": [
            {
              "internalType": "uint256",
              "name": "",
              "type": "uint256"
            }
          ],
          "stateMutability": "view",
          "type": "function"
        },
        {
          "inputs": [
            {
              "internalType": "bytes32",
              "name": "country",
              "type": "bytes32"
            }
          ],
          "name": "getPoolInfo",
          "outputs": [
            {
              "internalType": "uint256",
              "name": "openingTime",
              "type": "uint256"
            },
            {
              "internalType": "uint256",
              "name": "scheduledClosingTime",
              "type": "uint256"
            },
            {
              "internalType": "uint256",
              "name": "actualClosingTime",
              "type": "uint256"
            },
            {
              "internalType": "bool",
              "name": "closed",
              "type": "bool"
            },
            {
              "internalType": "uint256",
              "name": "totalBets",
              "type": "uint256"
            },
            {
              "internalType": "uint256",
              "name": "totalAmount",
              "type": "uint256"
            }
          ],
          "stateMutability": "view",
          "type": "function"
        },
        {
          "inputs": [
            {
              "internalType": "bytes32",
              "name": "country",
              "type": "bytes32"
            },
            {
              "internalType": "address",
              "name": "bettor",
              "type": "address"
            }
          ],
          "name": "hasBetPlaced",
          "outputs": [
            {
              "internalType": "bool",
              "name": "",
              "type": "bool"
            }
          ],
          "stateMutability": "view",
          "type": "function"
        },
        {
          "inputs": [],
          "name": "initialize",
          "outputs": [],
          "stateMutability": "nonpayable",
          "type": "function"
        },
        {
          "inputs": [
            {
              "internalType": "uint256",
              "name": "_duration",
              "type": "uint256"
            }
          ],
          "name": "openAllDailyPools",
          "outputs": [],
          "stateMutability": "nonpayable",
          "type": "function"
        },
        {
          "inputs": [],
          "name": "owner",
          "outputs": [
            {
              "internalType": "address",
              "name": "",
              "type": "address"
            }
          ],
          "stateMutability": "view",
          "type": "function"
        },
        {
          "inputs": [],
          "name": "pause",
          "outputs": [],
          "stateMutability": "nonpayable",
          "type": "function"
        },
        {
          "inputs": [],
          "name": "paused",
          "outputs": [
            {
              "internalType": "bool",
              "name": "",
              "type": "bool"
            }
          ],
          "stateMutability": "view",
          "type": "function"
        },
        {
          "inputs": [
            {
              "internalType": "address",
              "name": "",
              "type": "address"
            }
          ],
          "name": "pendingPayouts",
          "outputs": [
            {
              "internalType": "uint256",
              "name": "",
              "type": "uint256"
            }
          ],
          "stateMutability": "view",
          "type": "function"
        },
        {
          "inputs": [
            {
              "internalType": "bytes32",
              "name": "country",
              "type": "bytes32"
            },
            {
              "internalType": "bytes32",
              "name": "artist",
              "type": "bytes32"
            }
          ],
          "name": "placeBet",
          "outputs": [],
          "stateMutability": "payable",
          "type": "function"
        },
        {
          "inputs": [],
          "name": "renounceOwnership",
          "outputs": [],
          "stateMutability": "nonpayable",
          "type": "function"
        },
        {
          "inputs": [
            {
              "internalType": "uint256",
              "name": "_duration",
              "type": "uint256"
            }
          ],
          "name": "setDefaultDuration",
          "outputs": [],
          "stateMutability": "nonpayable",
          "type": "function"
        },
        {
          "inputs": [
            {
              "internalType": "bytes32",
              "name": "country",
              "type": "bytes32"
            }
          ],
          "name": "settleBet",
          "outputs": [],
          "stateMutability": "nonpayable",
          "type": "function"
        },
        {
          "inputs": [
            {
              "internalType": "bytes32",
              "name": "",
              "type": "bytes32"
            },
            {
              "internalType": "uint256",
              "name": "",
              "type": "uint256"
            }
          ],
          "name": "top10Artists",
          "outputs": [
            {
              "internalType": "bytes32",
              "name": "",
              "type": "bytes32"
            }
          ],
          "stateMutability": "view",
          "type": "function"
        },
        {
          "inputs": [
            {
              "internalType": "address",
              "name": "newOwner",
              "type": "address"
            }
          ],
          "name": "transferOwnership",
          "outputs": [],
          "stateMutability": "nonpayable",
          "type": "function"
        },
        {
          "inputs": [],
          "name": "unpause",
          "outputs": [],
          "stateMutability": "nonpayable",
          "type": "function"
        },
        {
          "inputs": [
            {
              "internalType": "bytes32",
              "name": "country",
              "type": "bytes32"
            },
            {
              "internalType": "bytes32[]",
              "name": "artists",
              "type": "bytes32[]"
            }
          ],
          "name": "updateTop10",
          "outputs": [],
          "stateMutability": "nonpayable",
          "type": "function"
        },
        {
          "inputs": [
            {
              "internalType": "bytes32",
              "name": "",
              "type": "bytes32"
            }
          ],
          "name": "validCountries",
          "outputs": [
            {
              "internalType": "bool",
              "name": "",
              "type": "bool"
            }
          ],
          "stateMutability": "view",
          "type": "function"
        },
        {
          "inputs": [
            {
              "internalType": "uint256",
              "name": "amount",
              "type": "uint256"
            }
          ],
          "name": "withdrawETH",
          "outputs": [],
          "stateMutability": "nonpayable",
          "type": "function"
        },
        {
          "stateMutability": "payable",
          "type": "receive"
        }
      ],
      "evm": {
        "bytecode": {
          "linkReferences": {},
          "object": "6080604052620151806007553480156200001857600080fd5b506040516200297b3803806200297b83398181016040528101906200003e91906200021c565b80600073ffffffffffffffffffffffffffffffffffffffff168173ffffffffffffffffffffffffffffffffffffffff1603620000b45760006040517f1e4fbdf7000000000000000000000000000000000000000000000000000000008152600401620000ab91906200025f565b60405180910390fd5b620000c581620000ee60201b60201c565b5060008060146101000a81548160ff02191690831515021790555060018081905550506200027c565b60008060009054906101000a900473ffffffffffffffffffffffffffffffffffffffff169050816000806101000a81548173ffffffffffffffffffffffffffffffffffffffff021916908373ffffffffffffffffffffffffffffffffffffffff1602179055508173ffffffffffffffffffffffffffffffffffffffff168173ffffffffffffffffffffffffffffffffffffffff167f8be0079c531659141344cd1fd0a4f28419497f9722a3daafe3b4186f6b6457e060405160405180910390a35050565b600080fd5b600073ffffffffffffffffffffffffffffffffffffffff82169050919050565b6000620001e482620001b7565b9050919050565b620001f681620001d7565b81146200020257600080fd5b50565b6000815190506200021681620001eb565b92915050565b600060208284031215620002355762000234620001b2565b5b6000620002458482850162000205565b91505092915050565b6200025981620001d7565b82525050565b60006020820190506200027660008301846200024e565b92915050565b6126ef806200028c6000396000f3fe6080604052600436106101bb5760003560e01c8063776eba8e116100ec578063b49d65eb1161008a578063da3f857811610064578063da3f8578146105ef578063e88499a91461062c578063f14210a614610643578063f2fde38b1461066c576101c2565b8063b49d65eb14610558578063b78a3fff1461059b578063d32ecee3146105c4576101c2565b80637f6b0da8116100c65780637f6b0da8146104e35780638129fc1c146104ff5780638456cb59146105165780638da5cb5b1461052d576101c2565b8063776eba8e1461043e578063784712f21461047b5780637e95b523146104b8576101c2565b80635b68b7aa1161015957806366566a371161013357806366566a3714610396578063675f6537146103d3578063715018a6146103fc5780637479215314610413576101c2565b80635b68b7aa146103175780635c9302c9146103405780635c975abb1461036b576101c2565b80632af7e2ea116101955780632af7e2ea1461025b5780632e1413df146102865780633f4ba83a146102c3578063455fc8a1146102da576101c2565b806305917872146101c757806309f2c019146101f05780631498955414610232576101c2565b366101c257005b600080fd5b3480156101d357600080fd5b506101ee60048036038101906101e99190611e4b565b610695565b005b3480156101fc57600080fd5b5061021760048036038101906102129190611eae565b6106a7565b60405161022996959493929190611f05565b60405180910390f35b34801561023e57600080fd5b5061025960048036038101906102549190611fcb565b61071b565b005b34801561026757600080fd5b5061027061084d565b60405161027d919061202b565b60405180910390f35b34801561029257600080fd5b506102ad60048036038101906102a89190612046565b610853565b6040516102ba919061202b565b60405180910390f35b3480156102cf57600080fd5b506102d8610878565b005b3480156102e657600080fd5b5061030160048036038101906102fc91906120e4565b61088a565b60405161030e9190612124565b60405180910390f35b34801561032357600080fd5b5061033e60048036038101906103399190612046565b610907565b005b34801561034c57600080fd5b506103556109f7565b604051610362919061202b565b60405180910390f35b34801561037757600080fd5b506103806109fd565b60405161038d9190612124565b60405180910390f35b3480156103a257600080fd5b506103bd60048036038101906103b89190611eae565b610a13565b6040516103ca9190612124565b60405180910390f35b3480156103df57600080fd5b506103fa60048036038101906103f59190611eae565b610a33565b005b34801561040857600080fd5b50610411610cf8565b005b34801561041f57600080fd5b50610428610d0c565b604051610435919061202b565b60405180910390f35b34801561044a57600080fd5b5061046560048036038101906104609190612046565b610d11565b604051610472919061202b565b60405180910390f35b34801561048757600080fd5b506104a2600480360381019061049d919061213f565b610d7d565b6040516104af919061202b565b60405180910390f35b3480156104c457600080fd5b506104cd610d95565b6040516104da919061202b565b60405180910390f35b6104fd60048036038101906104f89190612046565b610da1565b005b34801561050b57600080fd5b50610514611127565b005b34801561052257600080fd5b5061052b611448565b005b34801561053957600080fd5b5061054261145a565b60405161054f919061217b565b60405180910390f35b34801561056457600080fd5b5061057f600480360381019061057a9190612196565b611483565b60405161059297969594939291906121e5565b60405180910390f35b3480156105a757600080fd5b506105c260048036038101906105bd9190611e4b565b6114df565b005b3480156105d057600080fd5b506105d961172d565b6040516105e6919061202b565b60405180910390f35b3480156105fb57600080fd5b5061061660048036038101906106119190612196565b611733565b6040516106239190612254565b60405180910390f35b34801561063857600080fd5b50610641611764565b005b34801561064f57600080fd5b5061066a60048036038101906106659190611e4b565b611935565b005b34801561067857600080fd5b50610693600480360381019061068e919061213f565b611a37565b005b61069d611abd565b8060078190555050565b6000806000806000806000600360008981526020019081526020016000206000600854815260200190815260200160002090508060000154816001015482600201548360070160009054906101000a900460ff16846004015485600501549650965096509650965096505091939550919395565b610723611abd565b600a828290501461076e57818190506040517f2dcd48eb000000000000000000000000000000000000000000000000000000008152600401610765919061202b565b60405180910390fd5b60046000848152602001908152602001600020600061078d9190611dcd565b60005b600a81101561084757600460008581526020019081526020016000208383838181106107bf576107be61226f565b5b9050602002013590806001815401808255809150506001900390600052602060002001600090919091909150556001816107f991906122cd565b6005600086815260200190815260200160002060008585858181106108215761082061226f565b5b905060200201358152602001908152602001600020819055508080600101915050610790565b50505050565b60075481565b6005602052816000526040600020602052806000526040600020600091509150505481565b610880611abd565b610888611b44565b565b6000806003600085815260200190815260200160002060006008548152602001908152602001600020905060008160030160008573ffffffffffffffffffffffffffffffffffffffff1673ffffffffffffffffffffffffffffffffffffffff16815260200190815260200160002060020154141591505092915050565b61090f611abd565b6000600360008481526020019081526020016000206000600854815260200190815260200160002090508060070160009054906101000a900460ff1615610982576040517f8771584c00000000000000000000000000000000000000000000000000000000815260040160405180910390fd5b81816006018190555060018160070160006101000a81548160ff021916908315150217905550428160020181905550600854837f58c7772496e0076e2b3d46e33e9975200496c28ef764e1c54ee55429cecea0658484600201546040516109ea929190612301565b60405180910390a3505050565b60085481565b60008060149054906101000a900460ff16905090565b60026020528060005260406000206000915054906101000a900460ff1681565b610a3b611ba6565b6000600360008381526020019081526020016000206000600854815260200190815260200160002090508060070160009054906101000a900460ff16610aad576040517ff78030f500000000000000000000000000000000000000000000000000000000815260040160405180910390fd5b60008160030160003373ffffffffffffffffffffffffffffffffffffffff1673ffffffffffffffffffffffffffffffffffffffff16815260200190815260200160002090506000816002015403610b30576040517f028e52a100000000000000000000000000000000000000000000000000000000815260040160405180910390fd5b600082600601548260010154149050600081610b4d576000610b6e565b606483600301548460020154610b63919061232a565b610b6d919061239b565b5b90506000606460328560020154610b85919061232a565b610b8f919061239b565b8460020154610b9e91906122cd565b9050808211610bad5781610baf565b805b91508460030160003373ffffffffffffffffffffffffffffffffffffffff1673ffffffffffffffffffffffffffffffffffffffff168152602001908152602001600020600080820160006101000a81549073ffffffffffffffffffffffffffffffffffffffff021916905560018201600090556002820160009055600382016000905550506000821115610c945781600660003373ffffffffffffffffffffffffffffffffffffffff1673ffffffffffffffffffffffffffffffffffffffff1681526020019081526020016000206000828254610c8c91906122cd565b925050819055505b600854863373ffffffffffffffffffffffffffffffffffffffff167f3b8fe5da6ddddb7951721ac65697f3b319db8bf4413601435c2576983580f5598587604051610ce09291906123cc565b60405180910390a45050505050610cf5611bec565b50565b610d00611abd565b610d0a6000611bf5565b565b603281565b60008060056000858152602001908152602001600020600084815260200190815260200160002054905060008103610d4e5761015e915050610d77565b6014600182610d5d91906123f5565b610d67919061232a565b6078610d7391906122cd565b9150505b92915050565b60066020528060005260406000206000915090505481565b670de0b6b3a764000081565b610da9611cb9565b610db1611ba6565b6002600083815260200190815260200160002060009054906101000a900460ff16610e1357816040517f190ed2af000000000000000000000000000000000000000000000000000000008152600401610e0a9190612254565b60405180910390fd5b6000600360008481526020019081526020016000206000600854815260200190815260200160002090508060000154421080610e53575080600201544210155b80610e6c57508060070160009054906101000a900460ff165b15610ec057428160000154826001015483600201546040517feff9e4e4000000000000000000000000000000000000000000000000000000008152600401610eb79493929190612429565b60405180910390fd5b60008160030160003373ffffffffffffffffffffffffffffffffffffffff1673ffffffffffffffffffffffffffffffffffffffff1681526020019081526020016000206002015414610f4957336040517f660f02e8000000000000000000000000000000000000000000000000000000008152600401610f40919061217b565b60405180910390fd5b670de0b6b3a7640000341115610fa05734670de0b6b3a76400006040517f36165f66000000000000000000000000000000000000000000000000000000008152600401610f9792919061246e565b60405180910390fd5b6000610fac8484610d11565b905060405180608001604052803373ffffffffffffffffffffffffffffffffffffffff168152602001848152602001348152602001828152508260030160003373ffffffffffffffffffffffffffffffffffffffff1673ffffffffffffffffffffffffffffffffffffffff16815260200190815260200160002060008201518160000160006101000a81548173ffffffffffffffffffffffffffffffffffffffff021916908373ffffffffffffffffffffffffffffffffffffffff1602179055506020820151816001015560408201518160020155606082015181600301559050508160040160008154809291906110a390612497565b9190505550348260050160008282546110bc91906122cd565b92505081905550600854843373ffffffffffffffffffffffffffffffffffffffff167f558994eb4efaf94bd607117c30a36b6623a6f3fcff263a773f37d634733fd2c9863486604051611111939291906124df565b60405180910390a45050611123611bec565b5050565b6000611131611cfa565b905060008160000160089054906101000a900460ff1615905060008260000160009054906101000a900467ffffffffffffffff1690506000808267ffffffffffffffff1614801561117f5750825b9050600060018367ffffffffffffffff161480156111b4575060003073ffffffffffffffffffffffffffffffffffffffff163b145b9050811580156111c2575080155b156111f9576040517ff92ee8a900000000000000000000000000000000000000000000000000000000815260040160405180910390fd5b60018560000160006101000a81548167ffffffffffffffff021916908367ffffffffffffffff16021790555083156112495760018560000160086101000a81548160ff0219169083151502179055505b60006040518061010001604052807f575700000000000000000000000000000000000000000000000000000000000081526020017f425200000000000000000000000000000000000000000000000000000000000081526020017f444500000000000000000000000000000000000000000000000000000000000081526020017f455300000000000000000000000000000000000000000000000000000000000081526020017f465200000000000000000000000000000000000000000000000000000000000081526020017f495400000000000000000000000000000000000000000000000000000000000081526020017f505400000000000000000000000000000000000000000000000000000000000081526020017f5553000000000000000000000000000000000000000000000000000000000000815250905060005b60088110156113e3576001600260008484600881106113ac576113ab61226f565b5b6020020151815260200190815260200160002060006101000a81548160ff021916908315150217905550808060010191505061138a565b505083156114415760008560000160086101000a81548160ff0219169083151502179055507fc7f505b2f371ae2175ee4913f4499e1f2633a7b5936321eed1cdaeb6115181d26001604051611438919061256f565b60405180910390a15b5050505050565b611450611abd565b611458611d22565b565b60008060009054906101000a900473ffffffffffffffffffffffffffffffffffffffff16905090565b6003602052816000526040600020602052806000526040600020600091509150508060000154908060010154908060020154908060040154908060050154908060060154908060070160009054906101000a900460ff16905087565b6114e7611abd565b62015180426114f6919061239b565b60088190555060006040518061010001604052807f575700000000000000000000000000000000000000000000000000000000000081526020017f425200000000000000000000000000000000000000000000000000000000000081526020017f444500000000000000000000000000000000000000000000000000000000000081526020017f455300000000000000000000000000000000000000000000000000000000000081526020017f465200000000000000000000000000000000000000000000000000000000000081526020017f495400000000000000000000000000000000000000000000000000000000000081526020017f505400000000000000000000000000000000000000000000000000000000000081526020017f5553000000000000000000000000000000000000000000000000000000000000815250905060005b600881101561172857600082826008811061165b5761165a61226f565b5b60200201519050600060036000838152602001908152602001600020600060085481526020019081526020016000209050600081600001540361171957428160000181905550600085116116b1576007546116b3565b845b426116be91906122cd565b816001018190555080600101548160020181905550600854827f6d81dac161f941b26501b4cd6606ed14e343ce5e58ba8f62de9a2071f6be0fd98360000154846001015460405161171092919061246e565b60405180910390a35b5050808060010191505061163d565b505050565b61015e81565b6004602052816000526040600020818154811061174f57600080fd5b90600052602060002001600091509150505481565b61176c611ba6565b6000600660003373ffffffffffffffffffffffffffffffffffffffff1673ffffffffffffffffffffffffffffffffffffffff168152602001908152602001600020549050600081036117ea576040517f3c90366100000000000000000000000000000000000000000000000000000000815260040160405180910390fd5b6000600660003373ffffffffffffffffffffffffffffffffffffffff1673ffffffffffffffffffffffffffffffffffffffff1681526020019081526020016000208190555060003373ffffffffffffffffffffffffffffffffffffffff1682604051611855906125bb565b60006040518083038185875af1925050503d8060008114611892576040519150601f19603f3d011682016040523d82523d6000602084013e611897565b606091505b50509050806118db576040517f08c379a00000000000000000000000000000000000000000000000000000000081526004016118d29061262d565b60405180910390fd5b3373ffffffffffffffffffffffffffffffffffffffff167fec68461f5d4cc45c89e914cb8826a966c73dd35e5f97815ece0a01ffa4a025a683604051611921919061202b565b60405180910390a25050611933611bec565b565b61193d611abd565b80471015611980576040517f08c379a000000000000000000000000000000000000000000000000000000000815260040161197790612699565b60405180910390fd5b600061198a61145a565b73ffffffffffffffffffffffffffffffffffffffff16826040516119ad906125bb565b60006040518083038185875af1925050503d80600081146119ea576040519150601f19603f3d011682016040523d82523d6000602084013e6119ef565b606091505b5050905080611a33576040517f08c379a0000000000000000000000000000000000000000000000000000000008152600401611a2a9061262d565b60405180910390fd5b5050565b611a3f611abd565b600073ffffffffffffffffffffffffffffffffffffffff168173ffffffffffffffffffffffffffffffffffffffff1603611ab15760006040517f1e4fbdf7000000000000000000000000000000000000000000000000000000008152600401611aa8919061217b565b60405180910390fd5b611aba81611bf5565b50565b611ac5611d85565b73ffffffffffffffffffffffffffffffffffffffff16611ae361145a565b73ffffffffffffffffffffffffffffffffffffffff1614611b4257611b06611d85565b6040517f118cdaa7000000000000000000000000000000000000000000000000000000008152600401611b39919061217b565b60405180910390fd5b565b611b4c611d8d565b60008060146101000a81548160ff0219169083151502179055507f5db9ee0a495bf2e6ff9c91a7834c1ba4fdd244a5e8aa4e537bd38aeae4b073aa611b8f611d85565b604051611b9c919061217b565b60405180910390a1565b600260015403611be2576040517f3ee5aeb500000000000000000000000000000000000000000000000000000000815260040160405180910390fd5b6002600181905550565b60018081905550565b60008060009054906101000a900473ffffffffffffffffffffffffffffffffffffffff169050816000806101000a81548173ffffffffffffffffffffffffffffffffffffffff021916908373ffffffffffffffffffffffffffffffffffffffff1602179055508173ffffffffffffffffffffffffffffffffffffffff168173ffffffffffffffffffffffffffffffffffffffff167f8be0079c531659141344cd1fd0a4f28419497f9722a3daafe3b4186f6b6457e060405160405180910390a35050565b611cc16109fd565b15611cf8576040517fd93c066500000000000000000000000000000000000000000000000000000000815260040160405180910390fd5b565b60007ff0c57e16840df040f15088dc2f81fe391c3923bec73e23a9662efc9c229c6a00905090565b611d2a611cb9565b6001600060146101000a81548160ff0219169083151502179055507f62e78cea01bee320cd4e420270b5ea74000d11b0c9f74754ebdbfc544b05a258611d6e611d85565b604051611d7b919061217b565b60405180910390a1565b600033905090565b611d956109fd565b611dcb576040517f8dfc202b00000000000000000000000000000000000000000000000000000000815260040160405180910390fd5b565b5080546000825590600052602060002090810190611deb9190611dee565b50565b5b80821115611e07576000816000905550600101611def565b5090565b600080fd5b600080fd5b6000819050919050565b611e2881611e15565b8114611e3357600080fd5b50565b600081359050611e4581611e1f565b92915050565b600060208284031215611e6157611e60611e0b565b5b6000611e6f84828501611e36565b91505092915050565b6000819050919050565b611e8b81611e78565b8114611e9657600080fd5b50565b600081359050611ea881611e82565b92915050565b600060208284031215611ec457611ec3611e0b565b5b6000611ed284828501611e99565b91505092915050565b611ee481611e15565b82525050565b60008115159050919050565b611eff81611eea565b82525050565b600060c082019050611f1a6000830189611edb565b611f276020830188611edb565b611f346040830187611edb565b611f416060830186611ef6565b611f4e6080830185611edb565b611f5b60a0830184611edb565b979650505050505050565b600080fd5b600080fd5b600080fd5b60008083601f840112611f8b57611f8a611f66565b5b8235905067ffffffffffffffff811115611fa857611fa7611f6b565b5b602083019150836020820283011115611fc457611fc3611f70565b5b9250929050565b600080600060408486031215611fe457611fe3611e0b565b5b6000611ff286828701611e99565b935050602084013567ffffffffffffffff81111561201357612012611e10565b5b61201f86828701611f75565b92509250509250925092565b60006020820190506120406000830184611edb565b92915050565b6000806040838503121561205d5761205c611e0b565b5b600061206b85828601611e99565b925050602061207c85828601611e99565b9150509250929050565b600073ffffffffffffffffffffffffffffffffffffffff82169050919050565b60006120b182612086565b9050919050565b6120c1816120a6565b81146120cc57600080fd5b50565b6000813590506120de816120b8565b92915050565b600080604083850312156120fb576120fa611e0b565b5b600061210985828601611e99565b925050602061211a858286016120cf565b9150509250929050565b60006020820190506121396000830184611ef6565b92915050565b60006020828403121561215557612154611e0b565b5b6000612163848285016120cf565b91505092915050565b612175816120a6565b82525050565b6000602082019050612190600083018461216c565b92915050565b600080604083850312156121ad576121ac611e0b565b5b60006121bb85828601611e99565b92505060206121cc85828601611e36565b9150509250929050565b6121df81611e78565b82525050565b600060e0820190506121fa600083018a611edb565b6122076020830189611edb565b6122146040830188611edb565b6122216060830187611edb565b61222e6080830186611edb565b61223b60a08301856121d6565b61224860c0830184611ef6565b98975050505050505050565b600060208201905061226960008301846121d6565b92915050565b7f4e487b7100000000000000000000000000000000000000000000000000000000600052603260045260246000fd5b7f4e487b7100000000000000000000000000000000000000000000000000000000600052601160045260246000fd5b60006122d882611e15565b91506122e383611e15565b92508282019050808211156122fb576122fa61229e565b5b92915050565b600060408201905061231660008301856121d6565b6123236020830184611edb565b9392505050565b600061233582611e15565b915061234083611e15565b925082820261234e81611e15565b915082820484148315176123655761236461229e565b5b5092915050565b7f4e487b7100000000000000000000000000000000000000000000000000000000600052601260045260246000fd5b60006123a682611e15565b91506123b183611e15565b9250826123c1576123c061236c565b5b828204905092915050565b60006040820190506123e16000830185611edb565b6123ee6020830184611ef6565b9392505050565b600061240082611e15565b915061240b83611e15565b92508282039050818111156124235761242261229e565b5b92915050565b600060808201905061243e6000830187611edb565b61244b6020830186611edb565b6124586040830185611edb565b6124656060830184611edb565b95945050505050565b60006040820190506124836000830185611edb565b6124906020830184611edb565b9392505050565b60006124a282611e15565b91507fffffffffffffffffffffffffffffffffffffffffffffffffffffffffffffffff82036124d4576124d361229e565b5b600182019050919050565b60006060820190506124f460008301866121d6565b6125016020830185611edb565b61250e6040830184611edb565b949350505050565b6000819050919050565b600067ffffffffffffffff82169050919050565b6000819050919050565b600061255961255461254f84612516565b612534565b612520565b9050919050565b6125698161253e565b82525050565b60006020820190506125846000830184612560565b92915050565b600081905092915050565b50565b60006125a560008361258a565b91506125b082612595565b600082019050919050565b60006125c682612598565b9150819050919050565b600082825260208201905092915050565b7f4661696c656420746f2073656e64204554480000000000000000000000000000600082015250565b60006126176012836125d0565b9150612622826125e1565b602082019050919050565b600060208201905081810360008301526126468161260a565b9050919050565b7f4e6f7420656e6f7567682045544820696e20636f6e7472616374000000000000600082015250565b6000612683601a836125d0565b915061268e8261264d565b602082019050919050565b600060208201905081810360008301526126b281612676565b905091905056fea2646970667358221220f829b0108b27520530d5773c20cf0bfe0601f8f24c22f76c56209d2ceabf4dc564736f6c63430008180033",
          "opcodes": "PUSH1 0x80 PUSH1 0x40 MSTORE PUSH3 0x15180 PUSH1 0x7 SSTORE CALLVALUE DUP1 ISZERO PUSH3 0x18 JUMPI PUSH1 0x0 DUP1 REVERT JUMPDEST POP PUSH1 0x40 MLOAD PUSH3 0x297B CODESIZE SUB DUP1 PUSH3 0x297B DUP4 CODECOPY DUP2 DUP2 ADD PUSH1 0x40 MSTORE DUP2 ADD SWAP1 PUSH3 0x3E SWAP2 SWAP1 PUSH3 0x21C JUMP JUMPDEST DUP1 PUSH1 0x0 PUSH20 0xFFFFFFFFFFFFFFFFFFFFFFFFFFFFFFFFFFFFFFFF AND DUP2 PUSH20 0xFFFFFFFFFFFFFFFFFFFFFFFFFFFFFFFFFFFFFFFF AND SUB PUSH3 0xB4 JUMPI PUSH1 0x0 PUSH1 0x40 MLOAD PUSH32 0x1E4FBDF700000000000000000000000000000000000000000000000000000000 DUP2 MSTORE PUSH1 0x4 ADD PUSH3 0xAB SWAP2 SWAP1 PUSH3 0x25F JUMP JUMPDEST PUSH1 0x40 MLOAD DUP1 SWAP2 SUB SWAP1 REVERT JUMPDEST PUSH3 0xC5 DUP2 PUSH3 0xEE PUSH1 0x20 SHL PUSH1 0x20 SHR JUMP JUMPDEST POP PUSH1 0x0 DUP1 PUSH1 0x14 PUSH2 0x100 EXP DUP2 SLOAD DUP2 PUSH1 0xFF MUL NOT AND SWAP1 DUP4 ISZERO ISZERO MUL OR SWAP1 SSTORE POP PUSH1 0x1 DUP1 DUP2 SWAP1 SSTORE POP POP PUSH3 0x27C JUMP JUMPDEST PUSH1 0x0 DUP1 PUSH1 0x0 SWAP1 SLOAD SWAP1 PUSH2 0x100 EXP SWAP1 DIV PUSH20 0xFFFFFFFFFFFFFFFFFFFFFFFFFFFFFFFFFFFFFFFF AND SWAP1 POP DUP2 PUSH1 0x0 DUP1 PUSH2 0x100 EXP DUP2 SLOAD DUP2 PUSH20 0xFFFFFFFFFFFFFFFFFFFFFFFFFFFFFFFFFFFFFFFF MUL NOT AND SWAP1 DUP4 PUSH20 0xFFFFFFFFFFFFFFFFFFFFFFFFFFFFFFFFFFFFFFFF AND MUL OR SWAP1 SSTORE POP DUP2 PUSH20 0xFFFFFFFFFFFFFFFFFFFFFFFFFFFFFFFFFFFFFFFF AND DUP2 PUSH20 0xFFFFFFFFFFFFFFFFFFFFFFFFFFFFFFFFFFFFFFFF AND PUSH32 0x8BE0079C531659141344CD1FD0A4F28419497F9722A3DAAFE3B4186F6B6457E0 PUSH1 0x40 MLOAD PUSH1 0x40 MLOAD DUP1 SWAP2 SUB SWAP1 LOG3 POP POP JUMP JUMPDEST PUSH1 0x0 DUP1 REVERT JUMPDEST PUSH1 0x0 PUSH20 0xFFFFFFFFFFFFFFFFFFFFFFFFFFFFFFFFFFFFFFFF DUP3 AND SWAP1 POP SWAP2 SWAP1 POP JUMP JUMPDEST PUSH1 0x0 PUSH3 0x1E4 DUP3 PUSH3 0x1B7 JUMP JUMPDEST SWAP1 POP SWAP2 SWAP1 POP JUMP JUMPDEST PUSH3 0x1F6 DUP2 PUSH3 0x1D7 JUMP JUMPDEST DUP2 EQ PUSH3 0x202 JUMPI PUSH1 0x0 DUP1 REVERT JUMPDEST POP JUMP JUMPDEST PUSH1 0x0 DUP2 MLOAD SWAP1 POP PUSH3 0x216 DUP2 PUSH3 0x1EB JUMP JUMPDEST SWAP3 SWAP2 POP POP JUMP JUMPDEST PUSH1 0x0 PUSH1 0x20 DUP3 DUP5 SUB SLT ISZERO PUSH3 0x235 JUMPI PUSH3 0x234 PUSH3 0x1B2 JUMP JUMPDEST JUMPDEST PUSH1 0x0 PUSH3 0x245 DUP5 DUP3 DUP6 ADD PUSH3 0x205 JUMP JUMPDEST SWAP2 POP POP SWAP3 SWAP2 POP POP JUMP JUMPDEST PUSH3 0x259 DUP2 PUSH3 0x1D7 JUMP JUMPDEST DUP3 MSTORE POP POP JUMP JUMPDEST PUSH1 0x0 PUSH1 0x20 DUP3 ADD SWAP1 POP PUSH3 0x276 PUSH1 0x0 DUP4 ADD DUP5 PUSH3 0x24E JUMP JUMPDEST SWAP3 SWAP2 POP POP JUMP JUMPDEST PUSH2 0x26EF DUP1 PUSH3 0x28C PUSH1 0x0 CODECOPY PUSH1 0x0 RETURN INVALID PUSH1 0x80 PUSH1 0x40 MSTORE PUSH1 0x4 CALLDATASIZE LT PUSH2 0x1BB JUMPI PUSH1 0x0 CALLDATALOAD PUSH1 0xE0 SHR DUP1 PUSH4 0x776EBA8E GT PUSH2 0xEC JUMPI DUP1 PUSH4 0xB49D65EB GT PUSH2 0x8A JUMPI DUP1 PUSH4 0xDA3F8578 GT PUSH2 0x64 JUMPI DUP1 PUSH4 0xDA3F8578 EQ PUSH2 0x5EF JUMPI DUP1 PUSH4 0xE88499A9 EQ PUSH2 0x62C JUMPI DUP1 PUSH4 0xF14210A6 EQ PUSH2 0x643 JUMPI DUP1 PUSH4 0xF2FDE38B EQ PUSH2 0x66C JUMPI PUSH2 0x1C2 JUMP JUMPDEST DUP1 PUSH4 0xB49D65EB EQ PUSH2 0x558 JUMPI DUP1 PUSH4 0xB78A3FFF EQ PUSH2 0x59B JUMPI DUP1 PUSH4 0xD32ECEE3 EQ PUSH2 0x5C4 JUMPI PUSH2 0x1C2 JUMP JUMPDEST DUP1 PUSH4 0x7F6B0DA8 GT PUSH2 0xC6 JUMPI DUP1 PUSH4 0x7F6B0DA8 EQ PUSH2 0x4E3 JUMPI DUP1 PUSH4 0x8129FC1C EQ PUSH2 0x4FF JUMPI DUP1 PUSH4 0x8456CB59 EQ PUSH2 0x516 JUMPI DUP1 PUSH4 0x8DA5CB5B EQ PUSH2 0x52D JUMPI PUSH2 0x1C2 JUMP JUMPDEST DUP1 PUSH4 0x776EBA8E EQ PUSH2 0x43E JUMPI DUP1 PUSH4 0x784712F2 EQ PUSH2 0x47B JUMPI DUP1 PUSH4 0x7E95B523 EQ PUSH2 0x4B8 JUMPI PUSH2 0x1C2 JUMP JUMPDEST DUP1 PUSH4 0x5B68B7AA GT PUSH2 0x159 JUMPI DUP1 PUSH4 0x66566A37 GT PUSH2 0x133 JUMPI DUP1 PUSH4 0x66566A37 EQ PUSH2 0x396 JUMPI DUP1 PUSH4 0x675F6537 EQ PUSH2 0x3D3 JUMPI DUP1 PUSH4 0x715018A6 EQ PUSH2 0x3FC JUMPI DUP1 PUSH4 0x74792153 EQ PUSH2 0x413 JUMPI PUSH2 0x1C2 JUMP JUMPDEST DUP1 PUSH4 0x5B68B7AA EQ PUSH2 0x317 JUMPI DUP1 PUSH4 0x5C9302C9 EQ PUSH2 0x340 JUMPI DUP1 PUSH4 0x5C975ABB EQ PUSH2 0x36B JUMPI PUSH2 0x1C2 JUMP JUMPDEST DUP1 PUSH4 0x2AF7E2EA GT PUSH2 0x195 JUMPI DUP1 PUSH4 0x2AF7E2EA EQ PUSH2 0x25B JUMPI DUP1 PUSH4 0x2E1413DF EQ PUSH2 0x286 JUMPI DUP1 PUSH4 0x3F4BA83A EQ PUSH2 0x2C3 JUMPI DUP1 PUSH4 0x455FC8A1 EQ PUSH2 0x2DA JUMPI PUSH2 0x1C2 JUMP JUMPDEST DUP1 PUSH4 0x5917872 EQ PUSH2 0x1C7 JUMPI DUP1 PUSH4 0x9F2C019 EQ PUSH2 0x1F0 JUMPI DUP1 PUSH4 0x14989554 EQ PUSH2 0x232 JUMPI PUSH2 0x1C2 JUMP JUMPDEST CALLDATASIZE PUSH2 0x1C2 JUMPI STOP JUMPDEST PUSH1 0x0 DUP1 REVERT JUMPDEST CALLVALUE DUP1 ISZERO PUSH2 0x1D3 JUMPI PUSH1 0x0 DUP1 REVERT JUMPDEST POP PUSH2 0x1EE PUSH1 0x4 DUP1 CALLDATASIZE SUB DUP2 ADD SWAP1 PUSH2 0x1E9 SWAP2 SWAP1 PUSH2 0x1E4B JUMP JUMPDEST PUSH2 0x695 JUMP JUMPDEST STOP JUMPDEST CALLVALUE DUP1 ISZERO PUSH2 0x1FC JUMPI PUSH1 0x0 DUP1 REVERT JUMPDEST POP PUSH2 0x217 PUSH1 0x4 DUP1 CALLDATASIZE SUB DUP2 ADD SWAP1 PUSH2 0x212 SWAP2 SWAP1 PUSH2 0x1EAE JUMP JUMPDEST PUSH2 0x6A7 JUMP JUMPDEST PUSH1 0x40 MLOAD PUSH2 0x229 SWAP7 SWAP6 SWAP5 SWAP4 SWAP3 SWAP2 SWAP1 PUSH2 0x1F05 JUMP JUMPDEST PUSH1 0x40 MLOAD DUP1 SWAP2 SUB SWAP1 RETURN JUMPDEST CALLVALUE DUP1 ISZERO PUSH2 0x23E JUMPI PUSH1 0x0 DUP1 REVERT JUMPDEST POP PUSH2 0x259 PUSH1 0x4 DUP1 CALLDATASIZE SUB DUP2 ADD SWAP1 PUSH2 0x254 SWAP2 SWAP1 PUSH2 0x1FCB JUMP JUMPDEST PUSH2 0x71B JUMP JUMPDEST STOP JUMPDEST CALLVALUE DUP1 ISZERO PUSH2 0x267 JUMPI PUSH1 0x0 DUP1 REVERT JUMPDEST POP PUSH2 0x270 PUSH2 0x84D JUMP JUMPDEST PUSH1 0x40 MLOAD PUSH2 0x27D SWAP2 SWAP1 PUSH2 0x202B JUMP JUMPDEST PUSH1 0x40 MLOAD DUP1 SWAP2 SUB SWAP1 RETURN JUMPDEST CALLVALUE DUP1 ISZERO PUSH2 0x292 JUMPI PUSH1 0x0 DUP1 REVERT JUMPDEST POP PUSH2 0x2AD PUSH1 0x4 DUP1 CALLDATASIZE SUB DUP2 ADD SWAP1 PUSH2 0x2A8 SWAP2 SWAP1 PUSH2 0x2046 JUMP JUMPDEST PUSH2 0x853 JUMP JUMPDEST PUSH1 0x40 MLOAD PUSH2 0x2BA SWAP2 SWAP1 PUSH2 0x202B JUMP JUMPDEST PUSH1 0x40 MLOAD DUP1 SWAP2 SUB SWAP1 RETURN JUMPDEST CALLVALUE DUP1 ISZERO PUSH2 0x2CF JUMPI PUSH1 0x0 DUP1 REVERT JUMPDEST POP PUSH2 0x2D8 PUSH2 0x878 JUMP JUMPDEST STOP JUMPDEST CALLVALUE DUP1 ISZERO PUSH2 0x2E6 JUMPI PUSH1 0x0 DUP1 REVERT JUMPDEST POP PUSH2 0x301 PUSH1 0x4 DUP1 CALLDATASIZE SUB DUP2 ADD SWAP1 PUSH2 0x2FC SWAP2 SWAP1 PUSH2 0x20E4 JUMP JUMPDEST PUSH2 0x88A JUMP JUMPDEST PUSH1 0x40 MLOAD PUSH2 0x30E SWAP2 SWAP1 PUSH2 0x2124 JUMP JUMPDEST PUSH1 0x40 MLOAD DUP1 SWAP2 SUB SWAP1 RETURN JUMPDEST CALLVALUE DUP1 ISZERO PUSH2 0x323 JUMPI PUSH1 0x0 DUP1 REVERT JUMPDEST POP PUSH2 0x33E PUSH1 0x4 DUP1 CALLDATASIZE SUB DUP2 ADD SWAP1 PUSH2 0x339 SWAP2 SWAP1 PUSH2 0x2046 JUMP JUMPDEST PUSH2 0x907 JUMP JUMPDEST STOP JUMPDEST CALLVALUE DUP1 ISZERO PUSH2 0x34C JUMPI PUSH1 0x0 DUP1 REVERT JUMPDEST POP PUSH2 0x355 PUSH2 0x9F7 JUMP JUMPDEST PUSH1 0x40 MLOAD PUSH2 0x362 SWAP2 SWAP1 PUSH2 0x202B JUMP JUMPDEST PUSH1 0x40 MLOAD DUP1 SWAP2 SUB SWAP1 RETURN JUMPDEST CALLVALUE DUP1 ISZERO PUSH2 0x377 JUMPI PUSH1 0x0 DUP1 REVERT JUMPDEST POP PUSH2 0x380 PUSH2 0x9FD JUMP JUMPDEST PUSH1 0x40 MLOAD PUSH2 0x38D SWAP2 SWAP1 PUSH2 0x2124 JUMP JUMPDEST PUSH1 0x40 MLOAD DUP1 SWAP2 SUB SWAP1 RETURN JUMPDEST CALLVALUE DUP1 ISZERO PUSH2 0x3A2 JUMPI PUSH1 0x0 DUP1 REVERT JUMPDEST POP PUSH2 0x3BD PUSH1 0x4 DUP1 CALLDATASIZE SUB DUP2 ADD SWAP1 PUSH2 0x3B8 SWAP2 SWAP1 PUSH2 0x1EAE JUMP JUMPDEST PUSH2 0xA13 JUMP JUMPDEST PUSH1 0x40 MLOAD PUSH2 0x3CA SWAP2 SWAP1 PUSH2 0x2124 JUMP JUMPDEST PUSH1 0x40 MLOAD DUP1 SWAP2 SUB SWAP1 RETURN JUMPDEST CALLVALUE DUP1 ISZERO PUSH2 0x3DF JUMPI PUSH1 0x0 DUP1 REVERT JUMPDEST POP PUSH2 0x3FA PUSH1 0x4 DUP1 CALLDATASIZE SUB DUP2 ADD SWAP1 PUSH2 0x3F5 SWAP2 SWAP1 PUSH2 0x1EAE JUMP JUMPDEST PUSH2 0xA33 JUMP JUMPDEST STOP JUMPDEST CALLVALUE DUP1 ISZERO PUSH2 0x408 JUMPI PUSH1 0x0 DUP1 REVERT JUMPDEST POP PUSH2 0x411 PUSH2 0xCF8 JUMP JUMPDEST STOP JUMPDEST CALLVALUE DUP1 ISZERO PUSH2 0x41F JUMPI PUSH1 0x0 DUP1 REVERT JUMPDEST POP PUSH2 0x428 PUSH2 0xD0C JUMP JUMPDEST PUSH1 0x40 MLOAD PUSH2 0x435 SWAP2 SWAP1 PUSH2 0x202B JUMP JUMPDEST PUSH1 0x40 MLOAD DUP1 SWAP2 SUB SWAP1 RETURN JUMPDEST CALLVALUE DUP1 ISZERO PUSH2 0x44A JUMPI PUSH1 0x0 DUP1 REVERT JUMPDEST POP PUSH2 0x465 PUSH1 0x4 DUP1 CALLDATASIZE SUB DUP2 ADD SWAP1 PUSH2 0x460 SWAP2 SWAP1 PUSH2 0x2046 JUMP JUMPDEST PUSH2 0xD11 JUMP JUMPDEST PUSH1 0x40 MLOAD PUSH2 0x472 SWAP2 SWAP1 PUSH2 0x202B JUMP JUMPDEST PUSH1 0x40 MLOAD DUP1 SWAP2 SUB SWAP1 RETURN JUMPDEST CALLVALUE DUP1 ISZERO PUSH2 0x487 JUMPI PUSH1 0x0 DUP1 REVERT JUMPDEST POP PUSH2 0x4A2 PUSH1 0x4 DUP1 CALLDATASIZE SUB DUP2 ADD SWAP1 PUSH2 0x49D SWAP2 SWAP1 PUSH2 0x213F JUMP JUMPDEST PUSH2 0xD7D JUMP JUMPDEST PUSH1 0x40 MLOAD PUSH2 0x4AF SWAP2 SWAP1 PUSH2 0x202B JUMP JUMPDEST PUSH1 0x40 MLOAD DUP1 SWAP2 SUB SWAP1 RETURN JUMPDEST CALLVALUE DUP1 ISZERO PUSH2 0x4C4 JUMPI PUSH1 0x0 DUP1 REVERT JUMPDEST POP PUSH2 0x4CD PUSH2 0xD95 JUMP JUMPDEST PUSH1 0x40 MLOAD PUSH2 0x4DA SWAP2 SWAP1 PUSH2 0x202B JUMP JUMPDEST PUSH1 0x40 MLOAD DUP1 SWAP2 SUB SWAP1 RETURN JUMPDEST PUSH2 0x4FD PUSH1 0x4 DUP1 CALLDATASIZE SUB DUP2 ADD SWAP1 PUSH2 0x4F8 SWAP2 SWAP1 PUSH2 0x2046 JUMP JUMPDEST PUSH2 0xDA1 JUMP JUMPDEST STOP JUMPDEST CALLVALUE DUP1 ISZERO PUSH2 0x50B JUMPI PUSH1 0x0 DUP1 REVERT JUMPDEST POP PUSH2 0x514 PUSH2 0x1127 JUMP JUMPDEST STOP JUMPDEST CALLVALUE DUP1 ISZERO PUSH2 0x522 JUMPI PUSH1 0x0 DUP1 REVERT JUMPDEST POP PUSH2 0x52B PUSH2 0x1448 JUMP JUMPDEST STOP JUMPDEST CALLVALUE DUP1 ISZERO PUSH2 0x539 JUMPI PUSH1 0x0 DUP1 REVERT JUMPDEST POP PUSH2 0x542 PUSH2 0x145A JUMP JUMPDEST PUSH1 0x40 MLOAD PUSH2 0x54F SWAP2 SWAP1 PUSH2 0x217B JUMP JUMPDEST PUSH1 0x40 MLOAD DUP1 SWAP2 SUB SWAP1 RETURN JUMPDEST CALLVALUE DUP1 ISZERO PUSH2 0x564 JUMPI PUSH1 0x0 DUP1 REVERT JUMPDEST POP PUSH2 0x57F PUSH1 0x4 DUP1 CALLDATASIZE SUB DUP2 ADD SWAP1 PUSH2 0x57A SWAP2 SWAP1 PUSH2 0x2196 JUMP JUMPDEST PUSH2 0x1483 JUMP JUMPDEST PUSH1 0x40 MLOAD PUSH2 0x592 SWAP8 SWAP7 SWAP6 SWAP5 SWAP4 SWAP3 SWAP2 SWAP1 PUSH2 0x21E5 JUMP JUMPDEST PUSH1 0x40 MLOAD DUP1 SWAP2 SUB SWAP1 RETURN JUMPDEST CALLVALUE DUP1 ISZERO PUSH2 0x5A7 JUMPI PUSH1 0x0 DUP1 REVERT JUMPDEST POP PUSH2 0x5C2 PUSH1 0x4 DUP1 CALLDATASIZE SUB DUP2 ADD SWAP1 PUSH2 0x5BD SWAP2 SWAP1 PUSH2 0x1E4B JUMP JUMPDEST PUSH2 0x14DF JUMP JUMPDEST STOP JUMPDEST CALLVALUE DUP1 ISZERO PUSH2 0x5D0 JUMPI PUSH1 0x0 DUP1 REVERT JUMPDEST POP PUSH2 0x5D9 PUSH2 0x172D JUMP JUMPDEST PUSH1 0x40 MLOAD PUSH2 0x5E6 SWAP2 SWAP1 PUSH2 0x202B JUMP JUMPDEST PUSH1 0x40 MLOAD DUP1 SWAP2 SUB SWAP1 RETURN JUMPDEST CALLVALUE DUP1 ISZERO PUSH2 0x5FB JUMPI PUSH1 0x0 DUP1 REVERT JUMPDEST POP PUSH2 0x616 PUSH1 0x4 DUP1 CALLDATASIZE SUB DUP2 ADD SWAP1 PUSH2 0x611 SWAP2 SWAP1 PUSH2 0x2196 JUMP JUMPDEST PUSH2 0x1733 JUMP JUMPDEST PUSH1 0x40 MLOAD PUSH2 0x623 SWAP2 SWAP1 PUSH2 0x2254 JUMP JUMPDEST PUSH1 0x40 MLOAD DUP1 SWAP2 SUB SWAP1 RETURN JUMPDEST CALLVALUE DUP1 ISZERO PUSH2 0x638 JUMPI PUSH1 0x0 DUP1 REVERT JUMPDEST POP PUSH2 0x641 PUSH2 0x1764 JUMP JUMPDEST STOP JUMPDEST CALLVALUE DUP1 ISZERO PUSH2 0x64F JUMPI PUSH1 0x0 DUP1 REVERT JUMPDEST POP PUSH2 0x66A PUSH1 0x4 DUP1 CALLDATASIZE SUB DUP2 ADD SWAP1 PUSH2 0x665 SWAP2 SWAP1 PUSH2 0x1E4B JUMP JUMPDEST PUSH2 0x1935 JUMP JUMPDEST STOP JUMPDEST CALLVALUE DUP1 ISZERO PUSH2 0x678 JUMPI PUSH1 0x0 DUP1 REVERT JUMPDEST POP PUSH2 0x693 PUSH1 0x4 DUP1 CALLDATASIZE SUB DUP2 ADD SWAP1 PUSH2 0x68E SWAP2 SWAP1 PUSH2 0x213F JUMP JUMPDEST PUSH2 0x1A37 JUMP JUMPDEST STOP JUMPDEST PUSH2 0x69D PUSH2 0x1ABD JUMP JUMPDEST DUP1 PUSH1 0x7 DUP2 SWAP1 SSTORE POP POP JUMP JUMPDEST PUSH1 0x0 DUP1 PUSH1 0x0 DUP1 PUSH1 0x0 DUP1 PUSH1 0x0 PUSH1 0x3 PUSH1 0x0 DUP10 DUP2 MSTORE PUSH1 0x20 ADD SWAP1 DUP2 MSTORE PUSH1 0x20 ADD PUSH1 0x0 KECCAK256 PUSH1 0x0 PUSH1 0x8 SLOAD DUP2 MSTORE PUSH1 0x20 ADD SWAP1 DUP2 MSTORE PUSH1 0x20 ADD PUSH1 0x0 KECCAK256 SWAP1 POP DUP1 PUSH1 0x0 ADD SLOAD DUP2 PUSH1 0x1 ADD SLOAD DUP3 PUSH1 0x2 ADD SLOAD DUP4 PUSH1 0x7 ADD PUSH1 0x0 SWAP1 SLOAD SWAP1 PUSH2 0x100 EXP SWAP1 DIV PUSH1 0xFF AND DUP5 PUSH1 0x4 ADD SLOAD DUP6 PUSH1 0x5 ADD SLOAD SWAP7 POP SWAP7 POP SWAP7 POP SWAP7 POP SWAP7 POP SWAP7 POP POP SWAP2 SWAP4 SWAP6 POP SWAP2 SWAP4 SWAP6 JUMP JUMPDEST PUSH2 0x723 PUSH2 0x1ABD JUMP JUMPDEST PUSH1 0xA DUP3 DUP3 SWAP1 POP EQ PUSH2 0x76E JUMPI DUP2 DUP2 SWAP1 POP PUSH1 0x40 MLOAD PUSH32 0x2DCD48EB00000000000000000000000000000000000000000000000000000000 DUP2 MSTORE PUSH1 0x4 ADD PUSH2 0x765 SWAP2 SWAP1 PUSH2 0x202B JUMP JUMPDEST PUSH1 0x40 MLOAD DUP1 SWAP2 SUB SWAP1 REVERT JUMPDEST PUSH1 0x4 PUSH1 0x0 DUP5 DUP2 MSTORE PUSH1 0x20 ADD SWAP1 DUP2 MSTORE PUSH1 0x20 ADD PUSH1 0x0 KECCAK256 PUSH1 0x0 PUSH2 0x78D SWAP2 SWAP1 PUSH2 0x1DCD JUMP JUMPDEST PUSH1 0x0 JUMPDEST PUSH1 0xA DUP2 LT ISZERO PUSH2 0x847 JUMPI PUSH1 0x4 PUSH1 0x0 DUP6 DUP2 MSTORE PUSH1 0x20 ADD SWAP1 DUP2 MSTORE PUSH1 0x20 ADD PUSH1 0x0 KECCAK256 DUP4 DUP4 DUP4 DUP2 DUP2 LT PUSH2 0x7BF JUMPI PUSH2 0x7BE PUSH2 0x226F JUMP JUMPDEST JUMPDEST SWAP1 POP PUSH1 0x20 MUL ADD CALLDATALOAD SWAP1 DUP1 PUSH1 0x1 DUP2 SLOAD ADD DUP1 DUP3 SSTORE DUP1 SWAP2 POP POP PUSH1 0x1 SWAP1 SUB SWAP1 PUSH1 0x0 MSTORE PUSH1 0x20 PUSH1 0x0 KECCAK256 ADD PUSH1 0x0 SWAP1 SWAP2 SWAP1 SWAP2 SWAP1 SWAP2 POP SSTORE PUSH1 0x1 DUP2 PUSH2 0x7F9 SWAP2 SWAP1 PUSH2 0x22CD JUMP JUMPDEST PUSH1 0x5 PUSH1 0x0 DUP7 DUP2 MSTORE PUSH1 0x20 ADD SWAP1 DUP2 MSTORE PUSH1 0x20 ADD PUSH1 0x0 KECCAK256 PUSH1 0x0 DUP6 DUP6 DUP6 DUP2 DUP2 LT PUSH2 0x821 JUMPI PUSH2 0x820 PUSH2 0x226F JUMP JUMPDEST JUMPDEST SWAP1 POP PUSH1 0x20 MUL ADD CALLDATALOAD DUP2 MSTORE PUSH1 0x20 ADD SWAP1 DUP2 MSTORE PUSH1 0x20 ADD PUSH1 0x0 KECCAK256 DUP2 SWAP1 SSTORE POP DUP1 DUP1 PUSH1 0x1 ADD SWAP2 POP POP PUSH2 0x790 JUMP JUMPDEST POP POP POP POP JUMP JUMPDEST PUSH1 0x7 SLOAD DUP2 JUMP JUMPDEST PUSH1 0x5 PUSH1 0x20 MSTORE DUP2 PUSH1 0x0 MSTORE PUSH1 0x40 PUSH1 0x0 KECCAK256 PUSH1 0x20 MSTORE DUP1 PUSH1 0x0 MSTORE PUSH1 0x40 PUSH1 0x0 KECCAK256 PUSH1 0x0 SWAP2 POP SWAP2 POP POP SLOAD DUP2 JUMP JUMPDEST PUSH2 0x880 PUSH2 0x1ABD JUMP JUMPDEST PUSH2 0x888 PUSH2 0x1B44 JUMP JUMPDEST JUMP JUMPDEST PUSH1 0x0 DUP1 PUSH1 0x3 PUSH1 0x0 DUP6 DUP2 MSTORE PUSH1 0x20 ADD SWAP1 DUP2 MSTORE PUSH1 0x20 ADD PUSH1 0x0 KECCAK256 PUSH1 0x0 PUSH1 0x8 SLOAD DUP2 MSTORE PUSH1 0x20 ADD SWAP1 DUP2 MSTORE PUSH1 0x20 ADD PUSH1 0x0 KECCAK256 SWAP1 POP PUSH1 0x0 DUP2 PUSH1 0x3 ADD PUSH1 0x0 DUP6 PUSH20 0xFFFFFFFFFFFFFFFFFFFFFFFFFFFFFFFFFFFFFFFF AND PUSH20 0xFFFFFFFFFFFFFFFFFFFFFFFFFFFFFFFFFFFFFFFF AND DUP2 MSTORE PUSH1 0x20 ADD SWAP1 DUP2 MSTORE PUSH1 0x20 ADD PUSH1 0x0 KECCAK256 PUSH1 0x2 ADD SLOAD EQ ISZERO SWAP2 POP POP SWAP3 SWAP2 POP POP JUMP JUMPDEST PUSH2 0x90F PUSH2 0x1ABD JUMP JUMPDEST PUSH1 0x0 PUSH1 0x3 PUSH1 0x0 DUP5 DUP2 MSTORE PUSH1 0x20 ADD SWAP1 DUP2 MSTORE PUSH1 0x20 ADD PUSH1 0x0 KECCAK256 PUSH1 0x0 PUSH1 0x8 SLOAD DUP2 MSTORE PUSH1 0x20 ADD SWAP1 DUP2 MSTORE PUSH1 0x20 ADD PUSH1 0x0 KECCAK256 SWAP1 POP DUP1 PUSH1 0x7 ADD PUSH1 0x0 SWAP1 SLOAD SWAP1 PUSH2 0x100 EXP SWAP1 DIV PUSH1 0xFF AND ISZERO PUSH2 0x982 JUMPI PUSH1 0x40 MLOAD PUSH32 0x8771584C00000000000000000000000000000000000000000000000000000000 DUP2 MSTORE PUSH1 0x4 ADD PUSH1 0x40 MLOAD DUP1 SWAP2 SUB SWAP1 REVERT JUMPDEST DUP2 DUP2 PUSH1 0x6 ADD DUP2 SWAP1 SSTORE POP PUSH1 0x1 DUP2 PUSH1 0x7 ADD PUSH1 0x0 PUSH2 0x100 EXP DUP2 SLOAD DUP2 PUSH1 0xFF MUL NOT AND SWAP1 DUP4 ISZERO ISZERO MUL OR SWAP1 SSTORE POP TIMESTAMP DUP2 PUSH1 0x2 ADD DUP2 SWAP1 SSTORE POP PUSH1 0x8 SLOAD DUP4 PUSH32 0x58C7772496E0076E2B3D46E33E9975200496C28EF764E1C54EE55429CECEA065 DUP5 DUP5 PUSH1 0x2 ADD SLOAD PUSH1 0x40 MLOAD PUSH2 0x9EA SWAP3 SWAP2 SWAP1 PUSH2 0x2301 JUMP JUMPDEST PUSH1 0x40 MLOAD DUP1 SWAP2 SUB SWAP1 LOG3 POP POP POP JUMP JUMPDEST PUSH1 0x8 SLOAD DUP2 JUMP JUMPDEST PUSH1 0x0 DUP1 PUSH1 0x14 SWAP1 SLOAD SWAP1 PUSH2 0x100 EXP SWAP1 DIV PUSH1 0xFF AND SWAP1 POP SWAP1 JUMP JUMPDEST PUSH1 0x2 PUSH1 0x20 MSTORE DUP1 PUSH1 0x0 MSTORE PUSH1 0x40 PUSH1 0x0 KECCAK256 PUSH1 0x0 SWAP2 POP SLOAD SWAP1 PUSH2 0x100 EXP SWAP1 DIV PUSH1 0xFF AND DUP2 JUMP JUMPDEST PUSH2 0xA3B PUSH2 0x1BA6 JUMP JUMPDEST PUSH1 0x0 PUSH1 0x3 PUSH1 0x0 DUP4 DUP2 MSTORE PUSH1 0x20 ADD SWAP1 DUP2 MSTORE PUSH1 0x20 ADD PUSH1 0x0 KECCAK256 PUSH1 0x0 PUSH1 0x8 SLOAD DUP2 MSTORE PUSH1 0x20 ADD SWAP1 DUP2 MSTORE PUSH1 0x20 ADD PUSH1 0x0 KECCAK256 SWAP1 POP DUP1 PUSH1 0x7 ADD PUSH1 0x0 SWAP1 SLOAD SWAP1 PUSH2 0x100 EXP SWAP1 DIV PUSH1 0xFF AND PUSH2 0xAAD JUMPI PUSH1 0x40 MLOAD PUSH32 0xF78030F500000000000000000000000000000000000000000000000000000000 DUP2 MSTORE PUSH1 0x4 ADD PUSH1 0x40 MLOAD DUP1 SWAP2 SUB SWAP1 REVERT JUMPDEST PUSH1 0x0 DUP2 PUSH1 0x3 ADD PUSH1 0x0 CALLER PUSH20 0xFFFFFFFFFFFFFFFFFFFFFFFFFFFFFFFFFFFFFFFF AND PUSH20 0xFFFFFFFFFFFFFFFFFFFFFFFFFFFFFFFFFFFFFFFF AND DUP2 MSTORE PUSH1 0x20 ADD SWAP1 DUP2 MSTORE PUSH1 0x20 ADD PUSH1 0x0 KECCAK256 SWAP1 POP PUSH1 0x0 DUP2 PUSH1 0x2 ADD SLOAD SUB PUSH2 0xB30 JUMPI PUSH1 0x40 MLOAD PUSH32 0x28E52A100000000000000000000000000000000000000000000000000000000 DUP2 MSTORE PUSH1 0x4 ADD PUSH1 0x40 MLOAD DUP1 SWAP2 SUB SWAP1 REVERT JUMPDEST PUSH1 0x0 DUP3 PUSH1 0x6 ADD SLOAD DUP3 PUSH1 0x1 ADD SLOAD EQ SWAP1 POP PUSH1 0x0 DUP2 PUSH2 0xB4D JUMPI PUSH1 0x0 PUSH2 0xB6E JUMP JUMPDEST PUSH1 0x64 DUP4 PUSH1 0x3 ADD SLOAD DUP5 PUSH1 0x2 ADD SLOAD PUSH2 0xB63 SWAP2 SWAP1 PUSH2 0x232A JUMP JUMPDEST PUSH2 0xB6D SWAP2 SWAP1 PUSH2 0x239B JUMP JUMPDEST JUMPDEST SWAP1 POP PUSH1 0x0 PUSH1 0x64 PUSH1 0x32 DUP6 PUSH1 0x2 ADD SLOAD PUSH2 0xB85 SWAP2 SWAP1 PUSH2 0x232A JUMP JUMPDEST PUSH2 0xB8F SWAP2 SWAP1 PUSH2 0x239B JUMP JUMPDEST DUP5 PUSH1 0x2 ADD SLOAD PUSH2 0xB9E SWAP2 SWAP1 PUSH2 0x22CD JUMP JUMPDEST SWAP1 POP DUP1 DUP3 GT PUSH2 0xBAD JUMPI DUP2 PUSH2 0xBAF JUMP JUMPDEST DUP1 JUMPDEST SWAP2 POP DUP5 PUSH1 0x3 ADD PUSH1 0x0 CALLER PUSH20 0xFFFFFFFFFFFFFFFFFFFFFFFFFFFFFFFFFFFFFFFF AND PUSH20 0xFFFFFFFFFFFFFFFFFFFFFFFFFFFFFFFFFFFFFFFF AND DUP2 MSTORE PUSH1 0x20 ADD SWAP1 DUP2 MSTORE PUSH1 0x20 ADD PUSH1 0x0 KECCAK256 PUSH1 0x0 DUP1 DUP3 ADD PUSH1 0x0 PUSH2 0x100 EXP DUP2 SLOAD SWAP1 PUSH20 0xFFFFFFFFFFFFFFFFFFFFFFFFFFFFFFFFFFFFFFFF MUL NOT AND SWAP1 SSTORE PUSH1 0x1 DUP3 ADD PUSH1 0x0 SWAP1 SSTORE PUSH1 0x2 DUP3 ADD PUSH1 0x0 SWAP1 SSTORE PUSH1 0x3 DUP3 ADD PUSH1 0x0 SWAP1 SSTORE POP POP PUSH1 0x0 DUP3 GT ISZERO PUSH2 0xC94 JUMPI DUP2 PUSH1 0x6 PUSH1 0x0 CALLER PUSH20 0xFFFFFFFFFFFFFFFFFFFFFFFFFFFFFFFFFFFFFFFF AND PUSH20 0xFFFFFFFFFFFFFFFFFFFFFFFFFFFFFFFFFFFFFFFF AND DUP2 MSTORE PUSH1 0x20 ADD SWAP1 DUP2 MSTORE PUSH1 0x20 ADD PUSH1 0x0 KECCAK256 PUSH1 0x0 DUP3 DUP3 SLOAD PUSH2 0xC8C SWAP2 SWAP1 PUSH2 0x22CD JUMP JUMPDEST SWAP3 POP POP DUP2 SWAP1 SSTORE POP JUMPDEST PUSH1 0x8 SLOAD DUP7 CALLER PUSH20 0xFFFFFFFFFFFFFFFFFFFFFFFFFFFFFFFFFFFFFFFF AND PUSH32 0x3B8FE5DA6DDDDB7951721AC65697F3B319DB8BF4413601435C2576983580F559 DUP6 DUP8 PUSH1 0x40 MLOAD PUSH2 0xCE0 SWAP3 SWAP2 SWAP1 PUSH2 0x23CC JUMP JUMPDEST PUSH1 0x40 MLOAD DUP1 SWAP2 SUB SWAP1 LOG4 POP POP POP POP POP PUSH2 0xCF5 PUSH2 0x1BEC JUMP JUMPDEST POP JUMP JUMPDEST PUSH2 0xD00 PUSH2 0x1ABD JUMP JUMPDEST PUSH2 0xD0A PUSH1 0x0 PUSH2 0x1BF5 JUMP JUMPDEST JUMP JUMPDEST PUSH1 0x32 DUP2 JUMP JUMPDEST PUSH1 0x0 DUP1 PUSH1 0x5 PUSH1 0x0 DUP6 DUP2 MSTORE PUSH1 0x20 ADD SWAP1 DUP2 MSTORE PUSH1 0x20 ADD PUSH1 0x0 KECCAK256 PUSH1 0x0 DUP5 DUP2 MSTORE PUSH1 0x20 ADD SWAP1 DUP2 MSTORE PUSH1 0x20 ADD PUSH1 0x0 KECCAK256 SLOAD SWAP1 POP PUSH1 0x0 DUP2 SUB PUSH2 0xD4E JUMPI PUSH2 0x15E SWAP2 POP POP PUSH2 0xD77 JUMP JUMPDEST PUSH1 0x14 PUSH1 0x1 DUP3 PUSH2 0xD5D SWAP2 SWAP1 PUSH2 0x23F5 JUMP JUMPDEST PUSH2 0xD67 SWAP2 SWAP1 PUSH2 0x232A JUMP JUMPDEST PUSH1 0x78 PUSH2 0xD73 SWAP2 SWAP1 PUSH2 0x22CD JUMP JUMPDEST SWAP2 POP POP JUMPDEST SWAP3 SWAP2 POP POP JUMP JUMPDEST PUSH1 0x6 PUSH1 0x20 MSTORE DUP1 PUSH1 0x0 MSTORE PUSH1 0x40 PUSH1 0x0 KECCAK256 PUSH1 0x0 SWAP2 POP SWAP1 POP SLOAD DUP2 JUMP JUMPDEST PUSH8 0xDE0B6B3A7640000 DUP2 JUMP JUMPDEST PUSH2 0xDA9 PUSH2 0x1CB9 JUMP JUMPDEST PUSH2 0xDB1 PUSH2 0x1BA6 JUMP JUMPDEST PUSH1 0x2 PUSH1 0x0 DUP4 DUP2 MSTORE PUSH1 0x20 ADD SWAP1 DUP2 MSTORE PUSH1 0x20 ADD PUSH1 0x0 KECCAK256 PUSH1 0x0 SWAP1 SLOAD SWAP1 PUSH2 0x100 EXP SWAP1 DIV PUSH1 0xFF AND PUSH2 0xE13 JUMPI DUP2 PUSH1 0x40 MLOAD PUSH32 0x190ED2AF00000000000000000000000000000000000000000000000000000000 DUP2 MSTORE PUSH1 0x4 ADD PUSH2 0xE0A SWAP2 SWAP1 PUSH2 0x2254 JUMP JUMPDEST PUSH1 0x40 MLOAD DUP1 SWAP2 SUB SWAP1 REVERT JUMPDEST PUSH1 0x0 PUSH1 0x3 PUSH1 0x0 DUP5 DUP2 MSTORE PUSH1 0x20 ADD SWAP1 DUP2 MSTORE PUSH1 0x20 ADD PUSH1 0x0 KECCAK256 PUSH1 0x0 PUSH1 0x8 SLOAD DUP2 MSTORE PUSH1 0x20 ADD SWAP1 DUP2 MSTORE PUSH1 0x20 ADD PUSH1 0x0 KECCAK256 SWAP1 POP DUP1 PUSH1 0x0 ADD SLOAD TIMESTAMP LT DUP1 PUSH2 0xE53 JUMPI POP DUP1 PUSH1 0x2 ADD SLOAD TIMESTAMP LT ISZERO JUMPDEST DUP1 PUSH2 0xE6C JUMPI POP DUP1 PUSH1 0x7 ADD PUSH1 0x0 SWAP1 SLOAD SWAP1 PUSH2 0x100 EXP SWAP1 DIV PUSH1 0xFF AND JUMPDEST ISZERO PUSH2 0xEC0 JUMPI TIMESTAMP DUP2 PUSH1 0x0 ADD SLOAD DUP3 PUSH1 0x1 ADD SLOAD DUP4 PUSH1 0x2 ADD SLOAD PUSH1 0x40 MLOAD PUSH32 0xEFF9E4E400000000000000000000000000000000000000000000000000000000 DUP2 MSTORE PUSH1 0x4 ADD PUSH2 0xEB7 SWAP5 SWAP4 SWAP3 SWAP2 SWAP1 PUSH2 0x2429 JUMP JUMPDEST PUSH1 0x40 MLOAD DUP1 SWAP2 SUB SWAP1 REVERT JUMPDEST PUSH1 0x0 DUP2 PUSH1 0x3 ADD PUSH1 0x0 CALLER PUSH20 0xFFFFFFFFFFFFFFFFFFFFFFFFFFFFFFFFFFFFFFFF AND PUSH20 0xFFFFFFFFFFFFFFFFFFFFFFFFFFFFFFFFFFFFFFFF AND DUP2 MSTORE PUSH1 0x20 ADD SWAP1 DUP2 MSTORE PUSH1 0x20 ADD PUSH1 0x0 KECCAK256 PUSH1 0x2 ADD SLOAD EQ PUSH2 0xF49 JUMPI CALLER PUSH1 0x40 MLOAD PUSH32 0x660F02E800000000000000000000000000000000000000000000000000000000 DUP2 MSTORE PUSH1 0x4 ADD PUSH2 0xF40 SWAP2 SWAP1 PUSH2 0x217B JUMP JUMPDEST PUSH1 0x40 MLOAD DUP1 SWAP2 SUB SWAP1 REVERT JUMPDEST PUSH8 0xDE0B6B3A7640000 CALLVALUE GT ISZERO PUSH2 0xFA0 JUMPI CALLVALUE PUSH8 0xDE0B6B3A7640000 PUSH1 0x40 MLOAD PUSH32 0x36165F6600000000000000000000000000000000000000000000000000000000 DUP2 MSTORE PUSH1 0x4 ADD PUSH2 0xF97 SWAP3 SWAP2 SWAP1 PUSH2 0x246E JUMP JUMPDEST PUSH1 0x40 MLOAD DUP1 SWAP2 SUB SWAP1 REVERT JUMPDEST PUSH1 0x0 PUSH2 0xFAC DUP5 DUP5 PUSH2 0xD11 JUMP JUMPDEST SWAP1 POP PUSH1 0x40 MLOAD DUP1 PUSH1 0x80 ADD PUSH1 0x40 MSTORE DUP1 CALLER PUSH20 0xFFFFFFFFFFFFFFFFFFFFFFFFFFFFFFFFFFFFFFFF AND DUP2 MSTORE PUSH1 0x20 ADD DUP5 DUP2 MSTORE PUSH1 0x20 ADD CALLVALUE DUP2 MSTORE PUSH1 0x20 ADD DUP3 DUP2 MSTORE POP DUP3 PUSH1 0x3 ADD PUSH1 0x0 CALLER PUSH20 0xFFFFFFFFFFFFFFFFFFFFFFFFFFFFFFFFFFFFFFFF AND PUSH20 0xFFFFFFFFFFFFFFFFFFFFFFFFFFFFFFFFFFFFFFFF AND DUP2 MSTORE PUSH1 0x20 ADD SWAP1 DUP2 MSTORE PUSH1 0x20 ADD PUSH1 0x0 KECCAK256 PUSH1 0x0 DUP3 ADD MLOAD DUP2 PUSH1 0x0 ADD PUSH1 0x0 PUSH2 0x100 EXP DUP2 SLOAD DUP2 PUSH20 0xFFFFFFFFFFFFFFFFFFFFFFFFFFFFFFFFFFFFFFFF MUL NOT AND SWAP1 DUP4 PUSH20 0xFFFFFFFFFFFFFFFFFFFFFFFFFFFFFFFFFFFFFFFF AND MUL OR SWAP1 SSTORE POP PUSH1 0x20 DUP3 ADD MLOAD DUP2 PUSH1 0x1 ADD SSTORE PUSH1 0x40 DUP3 ADD MLOAD DUP2 PUSH1 0x2 ADD SSTORE PUSH1 0x60 DUP3 ADD MLOAD DUP2 PUSH1 0x3 ADD SSTORE SWAP1 POP POP DUP2 PUSH1 0x4 ADD PUSH1 0x0 DUP2 SLOAD DUP1 SWAP3 SWAP2 SWAP1 PUSH2 0x10A3 SWAP1 PUSH2 0x2497 JUMP JUMPDEST SWAP2 SWAP1 POP SSTORE POP CALLVALUE DUP3 PUSH1 0x5 ADD PUSH1 0x0 DUP3 DUP3 SLOAD PUSH2 0x10BC SWAP2 SWAP1 PUSH2 0x22CD JUMP JUMPDEST SWAP3 POP POP DUP2 SWAP1 SSTORE POP PUSH1 0x8 SLOAD DUP5 CALLER PUSH20 0xFFFFFFFFFFFFFFFFFFFFFFFFFFFFFFFFFFFFFFFF AND PUSH32 0x558994EB4EFAF94BD607117C30A36B6623A6F3FCFF263A773F37D634733FD2C9 DUP7 CALLVALUE DUP7 PUSH1 0x40 MLOAD PUSH2 0x1111 SWAP4 SWAP3 SWAP2 SWAP1 PUSH2 0x24DF JUMP JUMPDEST PUSH1 0x40 MLOAD DUP1 SWAP2 SUB SWAP1 LOG4 POP POP PUSH2 0x1123 PUSH2 0x1BEC JUMP JUMPDEST POP POP JUMP JUMPDEST PUSH1 0x0 PUSH2 0x1131 PUSH2 0x1CFA JUMP JUMPDEST SWAP1 POP PUSH1 0x0 DUP2 PUSH1 0x0 ADD PUSH1 0x8 SWAP1 SLOAD SWAP1 PUSH2 0x100 EXP SWAP1 DIV PUSH1 0xFF AND ISZERO SWAP1 POP PUSH1 0x0 DUP3 PUSH1 0x0 ADD PUSH1 0x0 SWAP1 SLOAD SWAP1 PUSH2 0x100 EXP SWAP1 DIV PUSH8 0xFFFFFFFFFFFFFFFF AND SWAP1 POP PUSH1 0x0 DUP1 DUP3 PUSH8 0xFFFFFFFFFFFFFFFF AND EQ DUP1 ISZERO PUSH2 0x117F JUMPI POP DUP3 JUMPDEST SWAP1 POP PUSH1 0x0 PUSH1 0x1 DUP4 PUSH8 0xFFFFFFFFFFFFFFFF AND EQ DUP1 ISZERO PUSH2 0x11B4 JUMPI POP PUSH1 0x0 ADDRESS PUSH20 0xFFFFFFFFFFFFFFFFFFFFFFFFFFFFFFFFFFFFFFFF AND EXTCODESIZE EQ JUMPDEST SWAP1 POP DUP2 ISZERO DUP1 ISZERO PUSH2 0x11C2 JUMPI POP DUP1 ISZERO JUMPDEST ISZERO PUSH2 0x11F9 JUMPI PUSH1 0x40 MLOAD PUSH32 0xF92EE8A900000000000000000000000000000000000000000000000000000000 DUP2 MSTORE PUSH1 0x4 ADD PUSH1 0x40 MLOAD DUP1 SWAP2 SUB SWAP1 REVERT JUMPDEST PUSH1 0x1 DUP6 PUSH1 0x0 ADD PUSH1 0x0 PUSH2 0x100 EXP DUP2 SLOAD DUP2 PUSH8 0xFFFFFFFFFFFFFFFF MUL NOT AND SWAP1 DUP4 PUSH8 0xFFFFFFFFFFFFFFFF AND MUL OR SWAP1 SSTORE POP DUP4 ISZERO PUSH2 0x1249 JUMPI PUSH1 0x1 DUP6 PUSH1 0x0 ADD PUSH1 0x8 PUSH2 0x100 EXP DUP2 SLOAD DUP2 PUSH1 0xFF MUL NOT AND SWAP1 DUP4 ISZERO ISZERO MUL OR SWAP1 SSTORE POP JUMPDEST PUSH1 0x0 PUSH1 0x40 MLOAD DUP1 PUSH2 0x100 ADD PUSH1 0x40 MSTORE DUP1 PUSH32 0x5757000000000000000000000000000000000000000000000000000000000000 DUP2 MSTORE PUSH1 0x20 ADD PUSH32 0x4252000000000000000000000000000000000000000000000000000000000000 DUP2 MSTORE PUSH1 0x20 ADD PUSH32 0x4445000000000000000000000000000000000000000000000000000000000000 DUP2 MSTORE PUSH1 0x20 ADD PUSH32 0x4553000000000000000000000000000000000000000000000000000000000000 DUP2 MSTORE PUSH1 0x20 ADD PUSH32 0x4652000000000000000000000000000000000000000000000000000000000000 DUP2 MSTORE PUSH1 0x20 ADD PUSH32 0x4954000000000000000000000000000000000000000000000000000000000000 DUP2 MSTORE PUSH1 0x20 ADD PUSH32 0x5054000000000000000000000000000000000000000000000000000000000000 DUP2 MSTORE PUSH1 0x20 ADD PUSH32 0x5553000000000000000000000000000000000000000000000000000000000000 DUP2 MSTORE POP SWAP1 POP PUSH1 0x0 JUMPDEST PUSH1 0x8 DUP2 LT ISZERO PUSH2 0x13E3 JUMPI PUSH1 0x1 PUSH1 0x2 PUSH1 0x0 DUP5 DUP5 PUSH1 0x8 DUP2 LT PUSH2 0x13AC JUMPI PUSH2 0x13AB PUSH2 0x226F JUMP JUMPDEST JUMPDEST PUSH1 0x20 MUL ADD MLOAD DUP2 MSTORE PUSH1 0x20 ADD SWAP1 DUP2 MSTORE PUSH1 0x20 ADD PUSH1 0x0 KECCAK256 PUSH1 0x0 PUSH2 0x100 EXP DUP2 SLOAD DUP2 PUSH1 0xFF MUL NOT AND SWAP1 DUP4 ISZERO ISZERO MUL OR SWAP1 SSTORE POP DUP1 DUP1 PUSH1 0x1 ADD SWAP2 POP POP PUSH2 0x138A JUMP JUMPDEST POP POP DUP4 ISZERO PUSH2 0x1441 JUMPI PUSH1 0x0 DUP6 PUSH1 0x0 ADD PUSH1 0x8 PUSH2 0x100 EXP DUP2 SLOAD DUP2 PUSH1 0xFF MUL NOT AND SWAP1 DUP4 ISZERO ISZERO MUL OR SWAP1 SSTORE POP PUSH32 0xC7F505B2F371AE2175EE4913F4499E1F2633A7B5936321EED1CDAEB6115181D2 PUSH1 0x1 PUSH1 0x40 MLOAD PUSH2 0x1438 SWAP2 SWAP1 PUSH2 0x256F JUMP JUMPDEST PUSH1 0x40 MLOAD DUP1 SWAP2 SUB SWAP1 LOG1 JUMPDEST POP POP POP POP POP JUMP JUMPDEST PUSH2 0x1450 PUSH2 0x1ABD JUMP JUMPDEST PUSH2 0x1458 PUSH2 0x1D22 JUMP JUMPDEST JUMP JUMPDEST PUSH1 0x0 DUP1 PUSH1 0x0 SWAP1 SLOAD SWAP1 PUSH2 0x100 EXP SWAP1 DIV PUSH20 0xFFFFFFFFFFFFFFFFFFFFFFFFFFFFFFFFFFFFFFFF AND SWAP1 POP SWAP1 JUMP JUMPDEST PUSH1 0x3 PUSH1 0x20 MSTORE DUP2 PUSH1 0x0 MSTORE PUSH1 0x40 PUSH1 0x0 KECCAK256 PUSH1 0x20 MSTORE DUP1 PUSH1 0x0 MSTORE PUSH1 0x40 PUSH1 0x0 KECCAK256 PUSH1 0x0 SWAP2 POP SWAP2 POP POP DUP1 PUSH1 0x0 ADD SLOAD SWAP1 DUP1 PUSH1 0x1 ADD SLOAD SWAP1 DUP1 PUSH1 0x2 ADD SLOAD SWAP1 DUP1 PUSH1 0x4 ADD SLOAD SWAP1 DUP1 PUSH1 0x5 ADD SLOAD SWAP1 DUP1 PUSH1 0x6 ADD SLOAD SWAP1 DUP1 PUSH1 0x7 ADD PUSH1 0x0 SWAP1 SLOAD SWAP1 PUSH2 0x100 EXP SWAP1 DIV PUSH1 0xFF AND SWAP1 POP DUP8 JUMP JUMPDEST PUSH2 0x14E7 PUSH2 0x1ABD JUMP JUMPDEST PUSH3 0x15180 TIMESTAMP PUSH2 0x14F6 SWAP2 SWAP1 PUSH2 0x239B JUMP JUMPDEST PUSH1 0x8 DUP2 SWAP1 SSTORE POP PUSH1 0x0 PUSH1 0x40 MLOAD DUP1 PUSH2 0x100 ADD PUSH1 0x40 MSTORE DUP1 PUSH32 0x5757000000000000000000000000000000000000000000000000000000000000 DUP2 MSTORE PUSH1 0x20 ADD PUSH32 0x4252000000000000000000000000000000000000000000000000000000000000 DUP2 MSTORE PUSH1 0x20 ADD PUSH32 0x4445000000000000000000000000000000000000000000000000000000000000 DUP2 MSTORE PUSH1 0x20 ADD PUSH32 0x4553000000000000000000000000000000000000000000000000000000000000 DUP2 MSTORE PUSH1 0x20 ADD PUSH32 0x4652000000000000000000000000000000000000000000000000000000000000 DUP2 MSTORE PUSH1 0x20 ADD PUSH32 0x4954000000000000000000000000000000000000000000000000000000000000 DUP2 MSTORE PUSH1 0x20 ADD PUSH32 0x5054000000000000000000000000000000000000000000000000000000000000 DUP2 MSTORE PUSH1 0x20 ADD PUSH32 0x5553000000000000000000000000000000000000000000000000000000000000 DUP2 MSTORE POP SWAP1 POP PUSH1 0x0 JUMPDEST PUSH1 0x8 DUP2 LT ISZERO PUSH2 0x1728 JUMPI PUSH1 0x0 DUP3 DUP3 PUSH1 0x8 DUP2 LT PUSH2 0x165B JUMPI PUSH2 0x165A PUSH2 0x226F JUMP JUMPDEST JUMPDEST PUSH1 0x20 MUL ADD MLOAD SWAP1 POP PUSH1 0x0 PUSH1 0x3 PUSH1 0x0 DUP4 DUP2 MSTORE PUSH1 0x20 ADD SWAP1 DUP2 MSTORE PUSH1 0x20 ADD PUSH1 0x0 KECCAK256 PUSH1 0x0 PUSH1 0x8 SLOAD DUP2 MSTORE PUSH1 0x20 ADD SWAP1 DUP2 MSTORE PUSH1 0x20 ADD PUSH1 0x0 KECCAK256 SWAP1 POP PUSH1 0x0 DUP2 PUSH1 0x0 ADD SLOAD SUB PUSH2 0x1719 JUMPI TIMESTAMP DUP2 PUSH1 0x0 ADD DUP2 SWAP1 SSTORE POP PUSH1 0x0 DUP6 GT PUSH2 0x16B1 JUMPI PUSH1 0x7 SLOAD PUSH2 0x16B3 JUMP JUMPDEST DUP5 JUMPDEST TIMESTAMP PUSH2 0x16BE SWAP2 SWAP1 PUSH2 0x22CD JUMP JUMPDEST DUP2 PUSH1 0x1 ADD DUP2 SWAP1 SSTORE POP DUP1 PUSH1 0x1 ADD SLOAD DUP2 PUSH1 0x2 ADD DUP2 SWAP1 SSTORE POP PUSH1 0x8 SLOAD DUP3 PUSH32 0x6D81DAC161F941B26501B4CD6606ED14E343CE5E58BA8F62DE9A2071F6BE0FD9 DUP4 PUSH1 0x0 ADD SLOAD DUP5 PUSH1 0x1 ADD SLOAD PUSH1 0x40 MLOAD PUSH2 0x1710 SWAP3 SWAP2 SWAP1 PUSH2 0x246E JUMP JUMPDEST PUSH1 0x40 MLOAD DUP1 SWAP2 SUB SWAP1 LOG3 JUMPDEST POP POP DUP1 DUP1 PUSH1 0x1 ADD SWAP2 POP POP PUSH2 0x163D JUMP JUMPDEST POP POP POP JUMP JUMPDEST PUSH2 0x15E DUP2 JUMP JUMPDEST PUSH1 0x4 PUSH1 0x20 MSTORE DUP2 PUSH1 0x0 MSTORE PUSH1 0x40 PUSH1 0x0 KECCAK256 DUP2 DUP2 SLOAD DUP2 LT PUSH2 0x174F JUMPI PUSH1 0x0 DUP1 REVERT JUMPDEST SWAP1 PUSH1 0x0 MSTORE PUSH1 0x20 PUSH1 0x0 KECCAK256 ADD PUSH1 0x0 SWAP2 POP SWAP2 POP POP SLOAD DUP2 JUMP JUMPDEST PUSH2 0x176C PUSH2 0x1BA6 JUMP JUMPDEST PUSH1 0x0 PUSH1 0x6 PUSH1 0x0 CALLER PUSH20 0xFFFFFFFFFFFFFFFFFFFFFFFFFFFFFFFFFFFFFFFF AND PUSH20 0xFFFFFFFFFFFFFFFFFFFFFFFFFFFFFFFFFFFFFFFF AND DUP2 MSTORE PUSH1 0x20 ADD SWAP1 DUP2 MSTORE PUSH1 0x20 ADD PUSH1 0x0 KECCAK256 SLOAD SWAP1 POP PUSH1 0x0 DUP2 SUB PUSH2 0x17EA JUMPI PUSH1 0x40 MLOAD PUSH32 0x3C90366100000000000000000000000000000000000000000000000000000000 DUP2 MSTORE PUSH1 0x4 ADD PUSH1 0x40 MLOAD DUP1 SWAP2 SUB SWAP1 REVERT JUMPDEST PUSH1 0x0 PUSH1 0x6 PUSH1 0x0 CALLER PUSH20 0xFFFFFFFFFFFFFFFFFFFFFFFFFFFFFFFFFFFFFFFF AND PUSH20 0xFFFFFFFFFFFFFFFFFFFFFFFFFFFFFFFFFFFFFFFF AND DUP2 MSTORE PUSH1 0x20 ADD SWAP1 DUP2 MSTORE PUSH1 0x20 ADD PUSH1 0x0 KECCAK256 DUP2 SWAP1 SSTORE POP PUSH1 0x0 CALLER PUSH20 0xFFFFFFFFFFFFFFFFFFFFFFFFFFFFFFFFFFFFFFFF AND DUP3 PUSH1 0x40 MLOAD PUSH2 0x1855 SWAP1 PUSH2 0x25BB JUMP JUMPDEST PUSH1 0x0 PUSH1 0x40 MLOAD DUP1 DUP4 SUB DUP2 DUP6 DUP8 GAS CALL SWAP3 POP POP POP RETURNDATASIZE DUP1 PUSH1 0x0 DUP2 EQ PUSH2 0x1892 JUMPI PUSH1 0x40 MLOAD SWAP2 POP PUSH1 0x1F NOT PUSH1 0x3F RETURNDATASIZE ADD AND DUP3 ADD PUSH1 0x40 MSTORE RETURNDATASIZE DUP3 MSTORE RETURNDATASIZE PUSH1 0x0 PUSH1 0x20 DUP5 ADD RETURNDATACOPY PUSH2 0x1897 JUMP JUMPDEST PUSH1 0x60 SWAP2 POP JUMPDEST POP POP SWAP1 POP DUP1 PUSH2 0x18DB JUMPI PUSH1 0x40 MLOAD PUSH32 0x8C379A000000000000000000000000000000000000000000000000000000000 DUP2 MSTORE PUSH1 0x4 ADD PUSH2 0x18D2 SWAP1 PUSH2 0x262D JUMP JUMPDEST PUSH1 0x40 MLOAD DUP1 SWAP2 SUB SWAP1 REVERT JUMPDEST CALLER PUSH20 0xFFFFFFFFFFFFFFFFFFFFFFFFFFFFFFFFFFFFFFFF AND PUSH32 0xEC68461F5D4CC45C89E914CB8826A966C73DD35E5F97815ECE0A01FFA4A025A6 DUP4 PUSH1 0x40 MLOAD PUSH2 0x1921 SWAP2 SWAP1 PUSH2 0x202B JUMP JUMPDEST PUSH1 0x40 MLOAD DUP1 SWAP2 SUB SWAP1 LOG2 POP POP PUSH2 0x1933 PUSH2 0x1BEC JUMP JUMPDEST JUMP JUMPDEST PUSH2 0x193D PUSH2 0x1ABD JUMP JUMPDEST DUP1 SELFBALANCE LT ISZERO PUSH2 0x1980 JUMPI PUSH1 0x40 MLOAD PUSH32 0x8C379A000000000000000000000000000000000000000000000000000000000 DUP2 MSTORE PUSH1 0x4 ADD PUSH2 0x1977 SWAP1 PUSH2 0x2699 JUMP JUMPDEST PUSH1 0x40 MLOAD DUP1 SWAP2 SUB SWAP1 REVERT JUMPDEST PUSH1 0x0 PUSH2 0x198A PUSH2 0x145A JUMP JUMPDEST PUSH20 0xFFFFFFFFFFFFFFFFFFFFFFFFFFFFFFFFFFFFFFFF AND DUP3 PUSH1 0x40 MLOAD PUSH2 0x19AD SWAP1 PUSH2 0x25BB JUMP JUMPDEST PUSH1 0x0 PUSH1 0x40 MLOAD DUP1 DUP4 SUB DUP2 DUP6 DUP8 GAS CALL SWAP3 POP POP POP RETURNDATASIZE DUP1 PUSH1 0x0 DUP2 EQ PUSH2 0x19EA JUMPI PUSH1 0x40 MLOAD SWAP2 POP PUSH1 0x1F NOT PUSH1 0x3F RETURNDATASIZE ADD AND DUP3 ADD PUSH1 0x40 MSTORE RETURNDATASIZE DUP3 MSTORE RETURNDATASIZE PUSH1 0x0 PUSH1 0x20 DUP5 ADD RETURNDATACOPY PUSH2 0x19EF JUMP JUMPDEST PUSH1 0x60 SWAP2 POP JUMPDEST POP POP SWAP1 POP DUP1 PUSH2 0x1A33 JUMPI PUSH1 0x40 MLOAD PUSH32 0x8C379A000000000000000000000000000000000000000000000000000000000 DUP2 MSTORE PUSH1 0x4 ADD PUSH2 0x1A2A SWAP1 PUSH2 0x262D JUMP JUMPDEST PUSH1 0x40 MLOAD DUP1 SWAP2 SUB SWAP1 REVERT JUMPDEST POP POP JUMP JUMPDEST PUSH2 0x1A3F PUSH2 0x1ABD JUMP JUMPDEST PUSH1 0x0 PUSH20 0xFFFFFFFFFFFFFFFFFFFFFFFFFFFFFFFFFFFFFFFF AND DUP2 PUSH20 0xFFFFFFFFFFFFFFFFFFFFFFFFFFFFFFFFFFFFFFFF AND SUB PUSH2 0x1AB1 JUMPI PUSH1 0x0 PUSH1 0x40 MLOAD PUSH32 0x1E4FBDF700000000000000000000000000000000000000000000000000000000 DUP2 MSTORE PUSH1 0x4 ADD PUSH2 0x1AA8 SWAP2 SWAP1 PUSH2 0x217B JUMP JUMPDEST PUSH1 0x40 MLOAD DUP1 SWAP2 SUB SWAP1 REVERT JUMPDEST PUSH2 0x1ABA DUP2 PUSH2 0x1BF5 JUMP JUMPDEST POP JUMP JUMPDEST PUSH2 0x1AC5 PUSH2 0x1D85 JUMP JUMPDEST PUSH20 0xFFFFFFFFFFFFFFFFFFFFFFFFFFFFFFFFFFFFFFFF AND PUSH2 0x1AE3 PUSH2 0x145A JUMP JUMPDEST PUSH20 0xFFFFFFFFFFFFFFFFFFFFFFFFFFFFFFFFFFFFFFFF AND EQ PUSH2 0x1B42 JUMPI PUSH2 0x1B06 PUSH2 0x1D85 JUMP JUMPDEST PUSH1 0x40 MLOAD PUSH32 0x118CDAA700000000000000000000000000000000000000000000000000000000 DUP2 MSTORE PUSH1 0x4 ADD PUSH2 0x1B39 SWAP2 SWAP1 PUSH2 0x217B JUMP JUMPDEST PUSH1 0x40 MLOAD DUP1 SWAP2 SUB SWAP1 REVERT JUMPDEST JUMP JUMPDEST PUSH2 0x1B4C PUSH2 0x1D8D JUMP JUMPDEST PUSH1 0x0 DUP1 PUSH1 0x14 PUSH2 0x100 EXP DUP2 SLOAD DUP2 PUSH1 0xFF MUL NOT AND SWAP1 DUP4 ISZERO ISZERO MUL OR SWAP1 SSTORE POP PUSH32 0x5DB9EE0A495BF2E6FF9C91A7834C1BA4FDD244A5E8AA4E537BD38AEAE4B073AA PUSH2 0x1B8F PUSH2 0x1D85 JUMP JUMPDEST PUSH1 0x40 MLOAD PUSH2 0x1B9C SWAP2 SWAP1 PUSH2 0x217B JUMP JUMPDEST PUSH1 0x40 MLOAD DUP1 SWAP2 SUB SWAP1 LOG1 JUMP JUMPDEST PUSH1 0x2 PUSH1 0x1 SLOAD SUB PUSH2 0x1BE2 JUMPI PUSH1 0x40 MLOAD PUSH32 0x3EE5AEB500000000000000000000000000000000000000000000000000000000 DUP2 MSTORE PUSH1 0x4 ADD PUSH1 0x40 MLOAD DUP1 SWAP2 SUB SWAP1 REVERT JUMPDEST PUSH1 0x2 PUSH1 0x1 DUP2 SWAP1 SSTORE POP JUMP JUMPDEST PUSH1 0x1 DUP1 DUP2 SWAP1 SSTORE POP JUMP JUMPDEST PUSH1 0x0 DUP1 PUSH1 0x0 SWAP1 SLOAD SWAP1 PUSH2 0x100 EXP SWAP1 DIV PUSH20 0xFFFFFFFFFFFFFFFFFFFFFFFFFFFFFFFFFFFFFFFF AND SWAP1 POP DUP2 PUSH1 0x0 DUP1 PUSH2 0x100 EXP DUP2 SLOAD DUP2 PUSH20 0xFFFFFFFFFFFFFFFFFFFFFFFFFFFFFFFFFFFFFFFF MUL NOT AND SWAP1 DUP4 PUSH20 0xFFFFFFFFFFFFFFFFFFFFFFFFFFFFFFFFFFFFFFFF AND MUL OR SWAP1 SSTORE POP DUP2 PUSH20 0xFFFFFFFFFFFFFFFFFFFFFFFFFFFFFFFFFFFFFFFF AND DUP2 PUSH20 0xFFFFFFFFFFFFFFFFFFFFFFFFFFFFFFFFFFFFFFFF AND PUSH32 0x8BE0079C531659141344CD1FD0A4F28419497F9722A3DAAFE3B4186F6B6457E0 PUSH1 0x40 MLOAD PUSH1 0x40 MLOAD DUP1 SWAP2 SUB SWAP1 LOG3 POP POP JUMP JUMPDEST PUSH2 0x1CC1 PUSH2 0x9FD JUMP JUMPDEST ISZERO PUSH2 0x1CF8 JUMPI PUSH1 0x40 MLOAD PUSH32 0xD93C066500000000000000000000000000000000000000000000000000000000 DUP2 MSTORE PUSH1 0x4 ADD PUSH1 0x40 MLOAD DUP1 SWAP2 SUB SWAP1 REVERT JUMPDEST JUMP JUMPDEST PUSH1 0x0 PUSH32 0xF0C57E16840DF040F15088DC2F81FE391C3923BEC73E23A9662EFC9C229C6A00 SWAP1 POP SWAP1 JUMP JUMPDEST PUSH2 0x1D2A PUSH2 0x1CB9 JUMP JUMPDEST PUSH1 0x1 PUSH1 0x0 PUSH1 0x14 PUSH2 0x100 EXP DUP2 SLOAD DUP2 PUSH1 0xFF MUL NOT AND SWAP1 DUP4 ISZERO ISZERO MUL OR SWAP1 SSTORE POP PUSH32 0x62E78CEA01BEE320CD4E420270B5EA74000D11B0C9F74754EBDBFC544B05A258 PUSH2 0x1D6E PUSH2 0x1D85 JUMP JUMPDEST PUSH1 0x40 MLOAD PUSH2 0x1D7B SWAP2 SWAP1 PUSH2 0x217B JUMP JUMPDEST PUSH1 0x40 MLOAD DUP1 SWAP2 SUB SWAP1 LOG1 JUMP JUMPDEST PUSH1 0x0 CALLER SWAP1 POP SWAP1 JUMP JUMPDEST PUSH2 0x1D95 PUSH2 0x9FD JUMP JUMPDEST PUSH2 0x1DCB JUMPI PUSH1 0x40 MLOAD PUSH32 0x8DFC202B00000000000000000000000000000000000000000000000000000000 DUP2 MSTORE PUSH1 0x4 ADD PUSH1 0x40 MLOAD DUP1 SWAP2 SUB SWAP1 REVERT JUMPDEST JUMP JUMPDEST POP DUP1 SLOAD PUSH1 0x0 DUP3 SSTORE SWAP1 PUSH1 0x0 MSTORE PUSH1 0x20 PUSH1 0x0 KECCAK256 SWAP1 DUP2 ADD SWAP1 PUSH2 0x1DEB SWAP2 SWAP1 PUSH2 0x1DEE JUMP JUMPDEST POP JUMP JUMPDEST JUMPDEST DUP1 DUP3 GT ISZERO PUSH2 0x1E07 JUMPI PUSH1 0x0 DUP2 PUSH1 0x0 SWAP1 SSTORE POP PUSH1 0x1 ADD PUSH2 0x1DEF JUMP JUMPDEST POP SWAP1 JUMP JUMPDEST PUSH1 0x0 DUP1 REVERT JUMPDEST PUSH1 0x0 DUP1 REVERT JUMPDEST PUSH1 0x0 DUP2 SWAP1 POP SWAP2 SWAP1 POP JUMP JUMPDEST PUSH2 0x1E28 DUP2 PUSH2 0x1E15 JUMP JUMPDEST DUP2 EQ PUSH2 0x1E33 JUMPI PUSH1 0x0 DUP1 REVERT JUMPDEST POP JUMP JUMPDEST PUSH1 0x0 DUP2 CALLDATALOAD SWAP1 POP PUSH2 0x1E45 DUP2 PUSH2 0x1E1F JUMP JUMPDEST SWAP3 SWAP2 POP POP JUMP JUMPDEST PUSH1 0x0 PUSH1 0x20 DUP3 DUP5 SUB SLT ISZERO PUSH2 0x1E61 JUMPI PUSH2 0x1E60 PUSH2 0x1E0B JUMP JUMPDEST JUMPDEST PUSH1 0x0 PUSH2 0x1E6F DUP5 DUP3 DUP6 ADD PUSH2 0x1E36 JUMP JUMPDEST SWAP2 POP POP SWAP3 SWAP2 POP POP JUMP JUMPDEST PUSH1 0x0 DUP2 SWAP1 POP SWAP2 SWAP1 POP JUMP JUMPDEST PUSH2 0x1E8B DUP2 PUSH2 0x1E78 JUMP JUMPDEST DUP2 EQ PUSH2 0x1E96 JUMPI PUSH1 0x0 DUP1 REVERT JUMPDEST POP JUMP JUMPDEST PUSH1 0x0 DUP2 CALLDATALOAD SWAP1 POP PUSH2 0x1EA8 DUP2 PUSH2 0x1E82 JUMP JUMPDEST SWAP3 SWAP2 POP POP JUMP JUMPDEST PUSH1 0x0 PUSH1 0x20 DUP3 DUP5 SUB SLT ISZERO PUSH2 0x1EC4 JUMPI PUSH2 0x1EC3 PUSH2 0x1E0B JUMP JUMPDEST JUMPDEST PUSH1 0x0 PUSH2 0x1ED2 DUP5 DUP3 DUP6 ADD PUSH2 0x1E99 JUMP JUMPDEST SWAP2 POP POP SWAP3 SWAP2 POP POP JUMP JUMPDEST PUSH2 0x1EE4 DUP2 PUSH2 0x1E15 JUMP JUMPDEST DUP3 MSTORE POP POP JUMP JUMPDEST PUSH1 0x0 DUP2 ISZERO ISZERO SWAP1 POP SWAP2 SWAP1 POP JUMP JUMPDEST PUSH2 0x1EFF DUP2 PUSH2 0x1EEA JUMP JUMPDEST DUP3 MSTORE POP POP JUMP JUMPDEST PUSH1 0x0 PUSH1 0xC0 DUP3 ADD SWAP1 POP PUSH2 0x1F1A PUSH1 0x0 DUP4 ADD DUP10 PUSH2 0x1EDB JUMP JUMPDEST PUSH2 0x1F27 PUSH1 0x20 DUP4 ADD DUP9 PUSH2 0x1EDB JUMP JUMPDEST PUSH2 0x1F34 PUSH1 0x40 DUP4 ADD DUP8 PUSH2 0x1EDB JUMP JUMPDEST PUSH2 0x1F41 PUSH1 0x60 DUP4 ADD DUP7 PUSH2 0x1EF6 JUMP JUMPDEST PUSH2 0x1F4E PUSH1 0x80 DUP4 ADD DUP6 PUSH2 0x1EDB JUMP JUMPDEST PUSH2 0x1F5B PUSH1 0xA0 DUP4 ADD DUP5 PUSH2 0x1EDB JUMP JUMPDEST SWAP8 SWAP7 POP POP POP POP POP POP POP JUMP JUMPDEST PUSH1 0x0 DUP1 REVERT JUMPDEST PUSH1 0x0 DUP1 REVERT JUMPDEST PUSH1 0x0 DUP1 REVERT JUMPDEST PUSH1 0x0 DUP1 DUP4 PUSH1 0x1F DUP5 ADD SLT PUSH2 0x1F8B JUMPI PUSH2 0x1F8A PUSH2 0x1F66 JUMP JUMPDEST JUMPDEST DUP3 CALLDATALOAD SWAP1 POP PUSH8 0xFFFFFFFFFFFFFFFF DUP2 GT ISZERO PUSH2 0x1FA8 JUMPI PUSH2 0x1FA7 PUSH2 0x1F6B JUMP JUMPDEST JUMPDEST PUSH1 0x20 DUP4 ADD SWAP2 POP DUP4 PUSH1 0x20 DUP3 MUL DUP4 ADD GT ISZERO PUSH2 0x1FC4 JUMPI PUSH2 0x1FC3 PUSH2 0x1F70 JUMP JUMPDEST JUMPDEST SWAP3 POP SWAP3 SWAP1 POP JUMP JUMPDEST PUSH1 0x0 DUP1 PUSH1 0x0 PUSH1 0x40 DUP5 DUP7 SUB SLT ISZERO PUSH2 0x1FE4 JUMPI PUSH2 0x1FE3 PUSH2 0x1E0B JUMP JUMPDEST JUMPDEST PUSH1 0x0 PUSH2 0x1FF2 DUP7 DUP3 DUP8 ADD PUSH2 0x1E99 JUMP JUMPDEST SWAP4 POP POP PUSH1 0x20 DUP5 ADD CALLDATALOAD PUSH8 0xFFFFFFFFFFFFFFFF DUP2 GT ISZERO PUSH2 0x2013 JUMPI PUSH2 0x2012 PUSH2 0x1E10 JUMP JUMPDEST JUMPDEST PUSH2 0x201F DUP7 DUP3 DUP8 ADD PUSH2 0x1F75 JUMP JUMPDEST SWAP3 POP SWAP3 POP POP SWAP3 POP SWAP3 POP SWAP3 JUMP JUMPDEST PUSH1 0x0 PUSH1 0x20 DUP3 ADD SWAP1 POP PUSH2 0x2040 PUSH1 0x0 DUP4 ADD DUP5 PUSH2 0x1EDB JUMP JUMPDEST SWAP3 SWAP2 POP POP JUMP JUMPDEST PUSH1 0x0 DUP1 PUSH1 0x40 DUP4 DUP6 SUB SLT ISZERO PUSH2 0x205D JUMPI PUSH2 0x205C PUSH2 0x1E0B JUMP JUMPDEST JUMPDEST PUSH1 0x0 PUSH2 0x206B DUP6 DUP3 DUP7 ADD PUSH2 0x1E99 JUMP JUMPDEST SWAP3 POP POP PUSH1 0x20 PUSH2 0x207C DUP6 DUP3 DUP7 ADD PUSH2 0x1E99 JUMP JUMPDEST SWAP2 POP POP SWAP3 POP SWAP3 SWAP1 POP JUMP JUMPDEST PUSH1 0x0 PUSH20 0xFFFFFFFFFFFFFFFFFFFFFFFFFFFFFFFFFFFFFFFF DUP3 AND SWAP1 POP SWAP2 SWAP1 POP JUMP JUMPDEST PUSH1 0x0 PUSH2 0x20B1 DUP3 PUSH2 0x2086 JUMP JUMPDEST SWAP1 POP SWAP2 SWAP1 POP JUMP JUMPDEST PUSH2 0x20C1 DUP2 PUSH2 0x20A6 JUMP JUMPDEST DUP2 EQ PUSH2 0x20CC JUMPI PUSH1 0x0 DUP1 REVERT JUMPDEST POP JUMP JUMPDEST PUSH1 0x0 DUP2 CALLDATALOAD SWAP1 POP PUSH2 0x20DE DUP2 PUSH2 0x20B8 JUMP JUMPDEST SWAP3 SWAP2 POP POP JUMP JUMPDEST PUSH1 0x0 DUP1 PUSH1 0x40 DUP4 DUP6 SUB SLT ISZERO PUSH2 0x20FB JUMPI PUSH2 0x20FA PUSH2 0x1E0B JUMP JUMPDEST JUMPDEST PUSH1 0x0 PUSH2 0x2109 DUP6 DUP3 DUP7 ADD PUSH2 0x1E99 JUMP JUMPDEST SWAP3 POP POP PUSH1 0x20 PUSH2 0x211A DUP6 DUP3 DUP7 ADD PUSH2 0x20CF JUMP JUMPDEST SWAP2 POP POP SWAP3 POP SWAP3 SWAP1 POP JUMP JUMPDEST PUSH1 0x0 PUSH1 0x20 DUP3 ADD SWAP1 POP PUSH2 0x2139 PUSH1 0x0 DUP4 ADD DUP5 PUSH2 0x1EF6 JUMP JUMPDEST SWAP3 SWAP2 POP POP JUMP JUMPDEST PUSH1 0x0 PUSH1 0x20 DUP3 DUP5 SUB SLT ISZERO PUSH2 0x2155 JUMPI PUSH2 0x2154 PUSH2 0x1E0B JUMP JUMPDEST JUMPDEST PUSH1 0x0 PUSH2 0x2163 DUP5 DUP3 DUP6 ADD PUSH2 0x20CF JUMP JUMPDEST SWAP2 POP POP SWAP3 SWAP2 POP POP JUMP JUMPDEST PUSH2 0x2175 DUP2 PUSH2 0x20A6 JUMP JUMPDEST DUP3 MSTORE POP POP JUMP JUMPDEST PUSH1 0x0 PUSH1 0x20 DUP3 ADD SWAP1 POP PUSH2 0x2190 PUSH1 0x0 DUP4 ADD DUP5 PUSH2 0x216C JUMP JUMPDEST SWAP3 SWAP2 POP POP JUMP JUMPDEST PUSH1 0x0 DUP1 PUSH1 0x40 DUP4 DUP6 SUB SLT ISZERO PUSH2 0x21AD JUMPI PUSH2 0x21AC PUSH2 0x1E0B JUMP JUMPDEST JUMPDEST PUSH1 0x0 PUSH2 0x21BB DUP6 DUP3 DUP7 ADD PUSH2 0x1E99 JUMP JUMPDEST SWAP3 POP POP PUSH1 0x20 PUSH2 0x21CC DUP6 DUP3 DUP7 ADD PUSH2 0x1E36 JUMP JUMPDEST SWAP2 POP POP SWAP3 POP SWAP3 SWAP1 POP JUMP JUMPDEST PUSH2 0x21DF DUP2 PUSH2 0x1E78 JUMP JUMPDEST DUP3 MSTORE POP POP JUMP JUMPDEST PUSH1 0x0 PUSH1 0xE0 DUP3 ADD SWAP1 POP PUSH2 0x21FA PUSH1 0x0 DUP4 ADD DUP11 PUSH2 0x1EDB JUMP JUMPDEST PUSH2 0x2207 PUSH1 0x20 DUP4 ADD DUP10 PUSH2 0x1EDB JUMP JUMPDEST PUSH2 0x2214 PUSH1 0x40 DUP4 ADD DUP9 PUSH2 0x1EDB JUMP JUMPDEST PUSH2 0x2221 PUSH1 0x60 DUP4 ADD DUP8 PUSH2 0x1EDB JUMP JUMPDEST PUSH2 0x222E PUSH1 0x80 DUP4 ADD DUP7 PUSH2 0x1EDB JUMP JUMPDEST PUSH2 0x223B PUSH1 0xA0 DUP4 ADD DUP6 PUSH2 0x21D6 JUMP JUMPDEST PUSH2 0x2248 PUSH1 0xC0 DUP4 ADD DUP5 PUSH2 0x1EF6 JUMP JUMPDEST SWAP9 SWAP8 POP POP POP POP POP POP POP POP JUMP JUMPDEST PUSH1 0x0 PUSH1 0x20 DUP3 ADD SWAP1 POP PUSH2 0x2269 PUSH1 0x0 DUP4 ADD DUP5 PUSH2 0x21D6 JUMP JUMPDEST SWAP3 SWAP2 POP POP JUMP JUMPDEST PUSH32 0x4E487B7100000000000000000000000000000000000000000000000000000000 PUSH1 0x0 MSTORE PUSH1 0x32 PUSH1 0x4 MSTORE PUSH1 0x24 PUSH1 0x0 REVERT JUMPDEST PUSH32 0x4E487B7100000000000000000000000000000000000000000000000000000000 PUSH1 0x0 MSTORE PUSH1 0x11 PUSH1 0x4 MSTORE PUSH1 0x24 PUSH1 0x0 REVERT JUMPDEST PUSH1 0x0 PUSH2 0x22D8 DUP3 PUSH2 0x1E15 JUMP JUMPDEST SWAP2 POP PUSH2 0x22E3 DUP4 PUSH2 0x1E15 JUMP JUMPDEST SWAP3 POP DUP3 DUP3 ADD SWAP1 POP DUP1 DUP3 GT ISZERO PUSH2 0x22FB JUMPI PUSH2 0x22FA PUSH2 0x229E JUMP JUMPDEST JUMPDEST SWAP3 SWAP2 POP POP JUMP JUMPDEST PUSH1 0x0 PUSH1 0x40 DUP3 ADD SWAP1 POP PUSH2 0x2316 PUSH1 0x0 DUP4 ADD DUP6 PUSH2 0x21D6 JUMP JUMPDEST PUSH2 0x2323 PUSH1 0x20 DUP4 ADD DUP5 PUSH2 0x1EDB JUMP JUMPDEST SWAP4 SWAP3 POP POP POP JUMP JUMPDEST PUSH1 0x0 PUSH2 0x2335 DUP3 PUSH2 0x1E15 JUMP JUMPDEST SWAP2 POP PUSH2 0x2340 DUP4 PUSH2 0x1E15 JUMP JUMPDEST SWAP3 POP DUP3 DUP3 MUL PUSH2 0x234E DUP2 PUSH2 0x1E15 JUMP JUMPDEST SWAP2 POP DUP3 DUP3 DIV DUP5 EQ DUP4 ISZERO OR PUSH2 0x2365 JUMPI PUSH2 0x2364 PUSH2 0x229E JUMP JUMPDEST JUMPDEST POP SWAP3 SWAP2 POP POP JUMP JUMPDEST PUSH32 0x4E487B7100000000000000000000000000000000000000000000000000000000 PUSH1 0x0 MSTORE PUSH1 0x12 PUSH1 0x4 MSTORE PUSH1 0x24 PUSH1 0x0 REVERT JUMPDEST PUSH1 0x0 PUSH2 0x23A6 DUP3 PUSH2 0x1E15 JUMP JUMPDEST SWAP2 POP PUSH2 0x23B1 DUP4 PUSH2 0x1E15 JUMP JUMPDEST SWAP3 POP DUP3 PUSH2 0x23C1 JUMPI PUSH2 0x23C0 PUSH2 0x236C JUMP JUMPDEST JUMPDEST DUP3 DUP3 DIV SWAP1 POP SWAP3 SWAP2 POP POP JUMP JUMPDEST PUSH1 0x0 PUSH1 0x40 DUP3 ADD SWAP1 POP PUSH2 0x23E1 PUSH1 0x0 DUP4 ADD DUP6 PUSH2 0x1EDB JUMP JUMPDEST PUSH2 0x23EE PUSH1 0x20 DUP4 ADD DUP5 PUSH2 0x1EF6 JUMP JUMPDEST SWAP4 SWAP3 POP POP POP JUMP JUMPDEST PUSH1 0x0 PUSH2 0x2400 DUP3 PUSH2 0x1E15 JUMP JUMPDEST SWAP2 POP PUSH2 0x240B DUP4 PUSH2 0x1E15 JUMP JUMPDEST SWAP3 POP DUP3 DUP3 SUB SWAP1 POP DUP2 DUP2 GT ISZERO PUSH2 0x2423 JUMPI PUSH2 0x2422 PUSH2 0x229E JUMP JUMPDEST JUMPDEST SWAP3 SWAP2 POP POP JUMP JUMPDEST PUSH1 0x0 PUSH1 0x80 DUP3 ADD SWAP1 POP PUSH2 0x243E PUSH1 0x0 DUP4 ADD DUP8 PUSH2 0x1EDB JUMP JUMPDEST PUSH2 0x244B PUSH1 0x20 DUP4 ADD DUP7 PUSH2 0x1EDB JUMP JUMPDEST PUSH2 0x2458 PUSH1 0x40 DUP4 ADD DUP6 PUSH2 0x1EDB JUMP JUMPDEST PUSH2 0x2465 PUSH1 0x60 DUP4 ADD DUP5 PUSH2 0x1EDB JUMP JUMPDEST SWAP6 SWAP5 POP POP POP POP POP JUMP JUMPDEST PUSH1 0x0 PUSH1 0x40 DUP3 ADD SWAP1 POP PUSH2 0x2483 PUSH1 0x0 DUP4 ADD DUP6 PUSH2 0x1EDB JUMP JUMPDEST PUSH2 0x2490 PUSH1 0x20 DUP4 ADD DUP5 PUSH2 0x1EDB JUMP JUMPDEST SWAP4 SWAP3 POP POP POP JUMP JUMPDEST PUSH1 0x0 PUSH2 0x24A2 DUP3 PUSH2 0x1E15 JUMP JUMPDEST SWAP2 POP PUSH32 0xFFFFFFFFFFFFFFFFFFFFFFFFFFFFFFFFFFFFFFFFFFFFFFFFFFFFFFFFFFFFFFFF DUP3 SUB PUSH2 0x24D4 JUMPI PUSH2 0x24D3 PUSH2 0x229E JUMP JUMPDEST JUMPDEST PUSH1 0x1 DUP3 ADD SWAP1 POP SWAP2 SWAP1 POP JUMP JUMPDEST PUSH1 0x0 PUSH1 0x60 DUP3 ADD SWAP1 POP PUSH2 0x24F4 PUSH1 0x0 DUP4 ADD DUP7 PUSH2 0x21D6 JUMP JUMPDEST PUSH2 0x2501 PUSH1 0x20 DUP4 ADD DUP6 PUSH2 0x1EDB JUMP JUMPDEST PUSH2 0x250E PUSH1 0x40 DUP4 ADD DUP5 PUSH2 0x1EDB JUMP JUMPDEST SWAP5 SWAP4 POP POP POP POP JUMP JUMPDEST PUSH1 0x0 DUP2 SWAP1 POP SWAP2 SWAP1 POP JUMP JUMPDEST PUSH1 0x0 PUSH8 0xFFFFFFFFFFFFFFFF DUP3 AND SWAP1 POP SWAP2 SWAP1 POP JUMP JUMPDEST PUSH1 0x0 DUP2 SWAP1 POP SWAP2 SWAP1 POP JUMP JUMPDEST PUSH1 0x0 PUSH2 0x2559 PUSH2 0x2554 PUSH2 0x254F DUP5 PUSH2 0x2516 JUMP JUMPDEST PUSH2 0x2534 JUMP JUMPDEST PUSH2 0x2520 JUMP JUMPDEST SWAP1 POP SWAP2 SWAP1 POP JUMP JUMPDEST PUSH2 0x2569 DUP2 PUSH2 0x253E JUMP JUMPDEST DUP3 MSTORE POP POP JUMP JUMPDEST PUSH1 0x0 PUSH1 0x20 DUP3 ADD SWAP1 POP PUSH2 0x2584 PUSH1 0x0 DUP4 ADD DUP5 PUSH2 0x2560 JUMP JUMPDEST SWAP3 SWAP2 POP POP JUMP JUMPDEST PUSH1 0x0 DUP2 SWAP1 POP SWAP3 SWAP2 POP POP JUMP JUMPDEST POP JUMP JUMPDEST PUSH1 0x0 PUSH2 0x25A5 PUSH1 0x0 DUP4 PUSH2 0x258A JUMP JUMPDEST SWAP2 POP PUSH2 0x25B0 DUP3 PUSH2 0x2595 JUMP JUMPDEST PUSH1 0x0 DUP3 ADD SWAP1 POP SWAP2 SWAP1 POP JUMP JUMPDEST PUSH1 0x0 PUSH2 0x25C6 DUP3 PUSH2 0x2598 JUMP JUMPDEST SWAP2 POP DUP2 SWAP1 POP SWAP2 SWAP1 POP JUMP JUMPDEST PUSH1 0x0 DUP3 DUP3 MSTORE PUSH1 0x20 DUP3 ADD SWAP1 POP SWAP3 SWAP2 POP POP JUMP JUMPDEST PUSH32 0x4661696C656420746F2073656E64204554480000000000000000000000000000 PUSH1 0x0 DUP3 ADD MSTORE POP JUMP JUMPDEST PUSH1 0x0 PUSH2 0x2617 PUSH1 0x12 DUP4 PUSH2 0x25D0 JUMP JUMPDEST SWAP2 POP PUSH2 0x2622 DUP3 PUSH2 0x25E1 JUMP JUMPDEST PUSH1 0x20 DUP3 ADD SWAP1 POP SWAP2 SWAP1 POP JUMP JUMPDEST PUSH1 0x0 PUSH1 0x20 DUP3 ADD SWAP1 POP DUP2 DUP2 SUB PUSH1 0x0 DUP4 ADD MSTORE PUSH2 0x2646 DUP2 PUSH2 0x260A JUMP JUMPDEST SWAP1 POP SWAP2 SWAP1 POP JUMP JUMPDEST PUSH32 0x4E6F7420656E6F7567682045544820696E20636F6E7472616374000000000000 PUSH1 0x0 DUP3 ADD MSTORE POP JUMP JUMPDEST PUSH1 0x0 PUSH2 0x2683 PUSH1 0x1A DUP4 PUSH2 0x25D0 JUMP JUMPDEST SWAP2 POP PUSH2 0x268E DUP3 PUSH2 0x264D JUMP JUMPDEST PUSH1 0x20 DUP3 ADD SWAP1 POP SWAP2 SWAP1 POP JUMP JUMPDEST PUSH1 0x0 PUSH1 0x20 DUP3 ADD SWAP1 POP DUP2 DUP2 SUB PUSH1 0x0 DUP4 ADD MSTORE PUSH2 0x26B2 DUP2 PUSH2 0x2676 JUMP JUMPDEST SWAP1 POP SWAP2 SWAP1 POP JUMP INVALID LOG2 PUSH5 0x6970667358 0x22 SLT KECCAK256 0xF8 0x29 0xB0 LT DUP12 0x27 MSTORE SDIV ADDRESS 0xD5 PUSH24 0x3C20CF0BFE0601F8F24C22F76C56209D2CEABF4DC564736F PUSH13 0x63430008180033000000000000 "
        },
        "methodIdentifiers": {
          "MAX_BET()": "7e95b523",
          "OUTSIDER_ODDS()": "d32ecee3",
          "RESERVE_PERCENTAGE()": "74792153",
          "artistRanks(bytes32,bytes32)": "2e1413df",
          "claimPayout()": "e88499a9",
          "closePoolAndAnnounceWinner(bytes32,bytes32)": "5b68b7aa",
          "currentDay()": "5c9302c9",
          "dailyPools(bytes32,uint256)": "b49d65eb",
          "defaultDuration()": "2af7e2ea",
          "getOdds(bytes32,bytes32)": "776eba8e",
          "getPoolInfo(bytes32)": "09f2c019",
          "hasBetPlaced(bytes32,address)": "455fc8a1",
          "initialize()": "8129fc1c",
          "openAllDailyPools(uint256)": "b78a3fff",
          "owner()": "8da5cb5b",
          "pause()": "8456cb59",
          "paused()": "5c975abb",
          "pendingPayouts(address)": "784712f2",
          "placeBet(bytes32,bytes32)": "7f6b0da8",
          "renounceOwnership()": "715018a6",
          "setDefaultDuration(uint256)": "05917872",
          "settleBet(bytes32)": "675f6537",
          "top10Artists(bytes32,uint256)": "da3f8578",
          "transferOwnership(address)": "f2fde38b",
          "unpause()": "3f4ba83a",
          "updateTop10(bytes32,bytes32[])": "14989554",
          "validCountries(bytes32)": "66566a37",
          "withdrawETH(uint256)": "f14210a6"
        }
      },
      "storageLayout": {
        "storage": [
          {
            "astId": 8,
            "contract": "contracts/ChartsBet.sol:ChartsBet",
            "label": "_owner",
            "offset": 0,
            "slot": "0",
            "type": "t_address"
          },
          {
            "astId": 440,
            "contract": "contracts/ChartsBet.sol:ChartsBet",
            "label": "_paused",
            "offset": 20,
            "slot": "0",
            "type": "t_bool"
          },
          {
            "astId": 559,
            "contract": "contracts/ChartsBet.sol:ChartsBet",
            "label": "_status",
            "offset": 0,
            "slot": "1",
            "type": "t_uint256"
          },
          {
            "astId": 673,
            "contract": "contracts/ChartsBet.sol:ChartsBet",
            "label": "validCountries",
            "offset": 0,
            "slot": "2",
            "type": "t_mapping(t_bytes32,t_bool)"
          },
          {
            "astId": 680,
            "contract": "contracts/ChartsBet.sol:ChartsBet",
            "label": "dailyPools",
            "offset": 0,
            "slot": "3",
            "type": "t_mapping(t_bytes32,t_mapping(t_uint256,t_struct(DailyBettingPool)660_storage))"
          },
          {
            "astId": 685,
            "contract": "contracts/ChartsBet.sol:ChartsBet",
            "label": "top10Artists",
            "offset": 0,
            "slot": "4",
            "type": "t_mapping(t_bytes32,t_array(t_bytes32)dyn_storage)"
          },
          {
            "astId": 691,
            "contract": "contracts/ChartsBet.sol:ChartsBet",
            "label": "artistRanks",
            "offset": 0,
            "slot": "5",
            "type": "t_mapping(t_bytes32,t_mapping(t_bytes32,t_uint256))"
          },
          {
            "astId": 695,
            "contract": "contracts/ChartsBet.sol:ChartsBet",
            "label": "pendingPayouts",
            "offset": 0,
            "slot": "6",
            "type": "t_mapping(t_address,t_uint256)"
          },
          {
            "astId": 698,
            "contract": "contracts/ChartsBet.sol:ChartsBet",
            "label": "defaultDuration",
            "offset": 0,
            "slot": "7",
            "type": "t_uint256"
          },
          {
            "astId": 700,
            "contract": "contracts/ChartsBet.sol:ChartsBet",
            "label": "currentDay",
            "offset": 0,
            "slot": "8",
            "type": "t_uint256"
          }
        ],
        "types": {
          "t_address": {
            "encoding": "inplace",
            "label": "address",
            "numberOfBytes": "20"
          },
          "t_array(t_bytes32)dyn_storage": {
            "base": "t_bytes32",
            "encoding": "dynamic_array",
            "label": "bytes32[]",
            "numberOfBytes": "32"
          },
          "t_bool": {
            "encoding": "inplace",
            "label": "bool",
            "numberOfBytes": "1"
          },
          "t_bytes32": {
            "encoding": "inplace",
            "label": "bytes32",
            "numberOfBytes": "32"
          },
          "t_mapping(t_address,t_struct(Bet)640_storage)": {
            "encoding": "mapping",
            "key": "t_address",
            "label": "mapping(address => struct ChartsBet.Bet)",
            "numberOfBytes": "32",
            "value": "t_struct(Bet)640_storage"
          },
          "t_mapping(t_address,t_uint256)": {
            "encoding": "mapping",
            "key": "t_address",
            "label": "mapping(address => uint256)",
            "numberOfBytes": "32",
            "value": "t_uint256"
          },
          "t_mapping(t_bytes32,t_array(t_bytes32)dyn_storage)": {
            "encoding": "mapping",
            "key": "t_bytes32",
            "label": "mapping(bytes32 => bytes32[])",
            "numberOfBytes": "32",
            "value": "t_array(t_bytes32)dyn_storage"
          },
          "t_mapping(t_bytes32,t_bool)": {
            "encoding": "mapping",
            "key": "t_bytes32",
            "label": "mapping(bytes32 => bool)",
            "numberOfBytes": "32",
            "value": "t_bool"
          },
          "t_mapping(t_bytes32,t_mapping(t_bytes32,t_uint256))": {
            "encoding": "mapping",
            "key": "t_bytes32",
            "label": "mapping(bytes32 => mapping(bytes32 => uint256))",
            "numberOfBytes": "32",
            "value": "t_mapping(t_bytes32,t_uint256)"
          },
          "t_mapping(t_bytes32,t_mapping(t_uint256,t_struct(DailyBettingPool)660_storage))": {
            "encoding": "mapping",
            "key": "t_bytes32",
            "label": "mapping(bytes32 => mapping(uint256 => struct ChartsBet.DailyBettingPool))",
            "numberOfBytes": "32",
            "value": "t_mapping(t_uint256,t_struct(DailyBettingPool)660_storage)"
          },
          "t_mapping(t_bytes32,t_uint256)": {
            "encoding": "mapping",
            "key": "t_bytes32",
            "label": "mapping(bytes32 => uint256)",
            "numberOfBytes": "32",
            "value": "t_uint256"
          },
          "t_mapping(t_uint256,t_struct(DailyBettingPool)660_storage)": {
            "encoding": "mapping",
            "key": "t_uint256",
            "label": "mapping(uint256 => struct ChartsBet.DailyBettingPool)",
            "numberOfBytes": "32",
            "value": "t_struct(DailyBettingPool)660_storage"
          },
          "t_struct(Bet)640_storage": {
            "encoding": "inplace",
            "label": "struct ChartsBet.Bet",
            "members": [
              {
                "astId": 633,
                "contract": "contracts/ChartsBet.sol:ChartsBet",
                "label": "bettor",
                "offset": 0,
                "slot": "0",
                "type": "t_address"
              },
              {
                "astId": 635,
                "contract": "contracts/ChartsBet.sol:ChartsBet",
                "label": "artist",
                "offset": 0,
                "slot": "1",
                "type": "t_bytes32"
              },
              {
                "astId": 637,
                "contract": "contracts/ChartsBet.sol:ChartsBet",
                "label": "amount",
                "offset": 0,
                "slot": "2",
                "type": "t_uint256"
              },
              {
                "astId": 639,
                "contract": "contracts/ChartsBet.sol:ChartsBet",
                "label": "odds",
                "offset": 0,
                "slot": "3",
                "type": "t_uint256"
              }
            ],
            "numberOfBytes": "128"
          },
          "t_struct(DailyBettingPool)660_storage": {
            "encoding": "inplace",
            "label": "struct ChartsBet.DailyBettingPool",
            "members": [
              {
                "astId": 642,
                "contract": "contracts/ChartsBet.sol:ChartsBet",
                "label": "openingTime",
                "offset": 0,
                "slot": "0",
                "type": "t_uint256"
              },
              {
                "astId": 644,
                "contract": "contracts/ChartsBet.sol:ChartsBet",
                "label": "scheduledClosingTime",
                "offset": 0,
                "slot": "1",
                "type": "t_uint256"
              },
              {
                "astId": 646,
                "contract": "contracts/ChartsBet.sol:ChartsBet",
                "label": "actualClosingTime",
                "offset": 0,
                "slot": "2",
                "type": "t_uint256"
              },
              {
                "astId": 651,
                "contract": "contracts/ChartsBet.sol:ChartsBet",
                "label": "bets",
                "offset": 0,
                "slot": "3",
                "type": "t_mapping(t_address,t_struct(Bet)640_storage)"
              },
              {
                "astId": 653,
                "contract": "contracts/ChartsBet.sol:ChartsBet",
                "label": "totalBets",
                "offset": 0,
                "slot": "4",
                "type": "t_uint256"
              },
              {
                "astId": 655,
                "contract": "contracts/ChartsBet.sol:ChartsBet",
                "label": "totalAmount",
                "offset": 0,
                "slot": "5",
                "type": "t_uint256"
              },
              {
                "astId": 657,
                "contract": "contracts/ChartsBet.sol:ChartsBet",
                "label": "winningArtist",
                "offset": 0,
                "slot": "6",
                "type": "t_bytes32"
              },
              {
                "astId": 659,
                "contract": "contracts/ChartsBet.sol:ChartsBet",
                "label": "closed",
                "offset": 0,
                "slot": "7",
                "type": "t_bool"
              }
            ],
            "numberOfBytes": "256"
          },
          "t_uint256": {
            "encoding": "inplace",
            "label": "uint256",
            "numberOfBytes": "32"
          }
        }
      }
    }
  }
}