{
  "contracts/ChartsBet.sol": {
    "ChartsBet": {
      "abi": [
        {
          "inputs": [],
          "name": "ArtistNotInLeaderboard",
          "type": "error"
        },
        {
          "inputs": [],
          "name": "BettingClosed",
          "type": "error"
        },
        {
          "inputs": [],
          "name": "EnforcedPause",
          "type": "error"
        },
        {
          "inputs": [],
          "name": "ExpectedPause",
          "type": "error"
        },
        {
          "inputs": [],
          "name": "InvalidCountryCode",
          "type": "error"
        },
        {
          "inputs": [],
          "name": "InvalidInitialization",
          "type": "error"
        },
        {
          "inputs": [],
          "name": "InvalidOracleAddress",
          "type": "error"
        },
        {
          "inputs": [],
          "name": "LeaderboardAlreadyClosed",
          "type": "error"
        },
        {
          "inputs": [],
          "name": "LeaderboardNotFound",
          "type": "error"
        },
        {
          "inputs": [],
          "name": "LeaderboardStillActive",
          "type": "error"
        },
        {
          "inputs": [],
          "name": "NoFundsToWithdraw",
          "type": "error"
        },
        {
          "inputs": [],
          "name": "NotInitializing",
          "type": "error"
        },
        {
          "inputs": [],
          "name": "OnlyOracleAllowed",
          "type": "error"
        },
        {
          "inputs": [
            {
              "internalType": "address",
              "name": "owner",
              "type": "address"
            }
          ],
          "name": "OwnableInvalidOwner",
          "type": "error"
        },
        {
          "inputs": [
            {
              "internalType": "address",
              "name": "account",
              "type": "address"
            }
          ],
          "name": "OwnableUnauthorizedAccount",
          "type": "error"
        },
        {
          "inputs": [],
          "name": "ReentrancyGuardReentrantCall",
          "type": "error"
        },
        {
          "inputs": [],
          "name": "WithdrawalDelayNotMet",
          "type": "error"
        },
        {
          "anonymous": false,
          "inputs": [
            {
              "indexed": true,
              "internalType": "bytes32",
              "name": "country",
              "type": "bytes32"
            },
            {
              "indexed": false,
              "internalType": "bytes32",
              "name": "artist",
              "type": "bytes32"
            },
            {
              "indexed": false,
              "internalType": "uint256",
              "name": "odds",
              "type": "uint256"
            }
          ],
          "name": "ArtistOddsSet",
          "type": "event"
        },
        {
          "anonymous": false,
          "inputs": [
            {
              "indexed": true,
              "internalType": "address",
              "name": "user",
              "type": "address"
            },
            {
              "indexed": true,
              "internalType": "bytes32",
              "name": "country",
              "type": "bytes32"
            },
            {
              "indexed": false,
              "internalType": "bytes32",
              "name": "artist",
              "type": "bytes32"
            },
            {
              "indexed": false,
              "internalType": "uint256",
              "name": "amount",
              "type": "uint256"
            }
          ],
          "name": "BetPlaced",
          "type": "event"
        },
        {
          "anonymous": false,
          "inputs": [
            {
              "indexed": true,
              "internalType": "bytes32",
              "name": "country",
              "type": "bytes32"
            },
            {
              "indexed": false,
              "internalType": "bytes32",
              "name": "winningArtist",
              "type": "bytes32"
            }
          ],
          "name": "DailyWinnerFulfilled",
          "type": "event"
        },
        {
          "anonymous": false,
          "inputs": [
            {
              "indexed": false,
              "internalType": "uint64",
              "name": "version",
              "type": "uint64"
            }
          ],
          "name": "Initialized",
          "type": "event"
        },
        {
          "anonymous": false,
          "inputs": [
            {
              "indexed": true,
              "internalType": "bytes32",
              "name": "country",
              "type": "bytes32"
            }
          ],
          "name": "LeaderboardClosed",
          "type": "event"
        },
        {
          "anonymous": false,
          "inputs": [
            {
              "indexed": true,
              "internalType": "bytes32",
              "name": "country",
              "type": "bytes32"
            }
          ],
          "name": "LeaderboardCreated",
          "type": "event"
        },
        {
          "anonymous": false,
          "inputs": [
            {
              "indexed": false,
              "internalType": "address",
              "name": "newOracle",
              "type": "address"
            }
          ],
          "name": "OracleUpdated",
          "type": "event"
        },
        {
          "anonymous": false,
          "inputs": [
            {
              "indexed": true,
              "internalType": "address",
              "name": "previousOwner",
              "type": "address"
            },
            {
              "indexed": true,
              "internalType": "address",
              "name": "newOwner",
              "type": "address"
            }
          ],
          "name": "OwnershipTransferred",
          "type": "event"
        },
        {
          "anonymous": false,
          "inputs": [
            {
              "indexed": false,
              "internalType": "address",
              "name": "account",
              "type": "address"
            }
          ],
          "name": "Paused",
          "type": "event"
        },
        {
          "anonymous": false,
          "inputs": [
            {
              "indexed": true,
              "internalType": "bytes32",
              "name": "country",
              "type": "bytes32"
            }
          ],
          "name": "TopArtistsFulfilled",
          "type": "event"
        },
        {
          "anonymous": false,
          "inputs": [
            {
              "indexed": false,
              "internalType": "address",
              "name": "account",
              "type": "address"
            }
          ],
          "name": "Unpaused",
          "type": "event"
        },
        {
          "anonymous": false,
          "inputs": [
            {
              "indexed": false,
              "internalType": "uint256",
              "name": "amount",
              "type": "uint256"
            }
          ],
          "name": "WithdrawalExecuted",
          "type": "event"
        },
        {
          "anonymous": false,
          "inputs": [
            {
              "indexed": false,
              "internalType": "uint256",
              "name": "requestTime",
              "type": "uint256"
            }
          ],
          "name": "WithdrawalRequested",
          "type": "event"
        },
        {
          "inputs": [],
          "name": "LEADERBOARD_DURATION",
          "outputs": [
            {
              "internalType": "uint256",
              "name": "",
              "type": "uint256"
            }
          ],
          "stateMutability": "view",
          "type": "function"
        },
        {
          "inputs": [],
          "name": "WITHDRAWAL_DELAY",
          "outputs": [
            {
              "internalType": "uint256",
              "name": "",
              "type": "uint256"
            }
          ],
          "stateMutability": "view",
          "type": "function"
        },
        {
          "inputs": [
            {
              "internalType": "bytes32",
              "name": "country",
              "type": "bytes32"
            }
          ],
          "name": "closeLeaderboard",
          "outputs": [],
          "stateMutability": "nonpayable",
          "type": "function"
        },
        {
          "inputs": [
            {
              "internalType": "uint256",
              "name": "",
              "type": "uint256"
            }
          ],
          "name": "countryList",
          "outputs": [
            {
              "internalType": "bytes32",
              "name": "",
              "type": "bytes32"
            }
          ],
          "stateMutability": "view",
          "type": "function"
        },
        {
          "inputs": [
            {
              "internalType": "bytes32",
              "name": "country",
              "type": "bytes32"
            }
          ],
          "name": "createLeaderboard",
          "outputs": [],
          "stateMutability": "nonpayable",
          "type": "function"
        },
        {
          "inputs": [],
          "name": "executeWithdrawal",
          "outputs": [],
          "stateMutability": "nonpayable",
          "type": "function"
        },
        {
          "inputs": [
            {
              "internalType": "bytes32",
              "name": "country",
              "type": "bytes32"
            },
            {
              "internalType": "bytes32",
              "name": "winningArtist",
              "type": "bytes32"
            }
          ],
          "name": "fulfillDailyWinner",
          "outputs": [],
          "stateMutability": "nonpayable",
          "type": "function"
        },
        {
          "inputs": [
            {
              "internalType": "bytes32",
              "name": "country",
              "type": "bytes32"
            },
            {
              "internalType": "bytes32[]",
              "name": "topArtists",
              "type": "bytes32[]"
            }
          ],
          "name": "fulfillTopArtists",
          "outputs": [],
          "stateMutability": "nonpayable",
          "type": "function"
        },
        {
          "inputs": [
            {
              "internalType": "bytes32",
              "name": "country",
              "type": "bytes32"
            },
            {
              "internalType": "bytes32",
              "name": "artist",
              "type": "bytes32"
            }
          ],
          "name": "getArtistOdds",
          "outputs": [
            {
              "internalType": "uint256",
              "name": "",
              "type": "uint256"
            }
          ],
          "stateMutability": "view",
          "type": "function"
        },
        {
          "inputs": [
            {
              "internalType": "bytes32",
              "name": "country",
              "type": "bytes32"
            }
          ],
          "name": "getBetsInCountry",
          "outputs": [
            {
              "components": [
                {
                  "internalType": "address",
                  "name": "user",
                  "type": "address"
                },
                {
                  "internalType": "uint256",
                  "name": "amount",
                  "type": "uint256"
                },
                {
                  "internalType": "bytes32",
                  "name": "artist",
                  "type": "bytes32"
                },
                {
                  "internalType": "uint256",
                  "name": "odds",
                  "type": "uint256"
                }
              ],
              "internalType": "struct ChartsBet.Bet[]",
              "name": "",
              "type": "tuple[]"
            }
          ],
          "stateMutability": "view",
          "type": "function"
        },
        {
          "inputs": [
            {
              "internalType": "bytes32",
              "name": "country",
              "type": "bytes32"
            }
          ],
          "name": "getTotalBetAmount",
          "outputs": [
            {
              "internalType": "uint256",
              "name": "",
              "type": "uint256"
            }
          ],
          "stateMutability": "view",
          "type": "function"
        },
        {
          "inputs": [
            {
              "internalType": "bytes32",
              "name": "country",
              "type": "bytes32"
            },
            {
              "internalType": "bytes32",
              "name": "artist",
              "type": "bytes32"
            }
          ],
          "name": "getTotalBetsOnArtist",
          "outputs": [
            {
              "internalType": "uint256",
              "name": "",
              "type": "uint256"
            }
          ],
          "stateMutability": "view",
          "type": "function"
        },
        {
          "inputs": [
            {
              "internalType": "address",
              "name": "_owner",
              "type": "address"
            },
            {
              "internalType": "address",
              "name": "_oracle",
              "type": "address"
            }
          ],
          "name": "initialize",
          "outputs": [],
          "stateMutability": "nonpayable",
          "type": "function"
        },
        {
          "inputs": [
            {
              "internalType": "bytes32",
              "name": "country",
              "type": "bytes32"
            }
          ],
          "name": "isLeaderboardExpired",
          "outputs": [
            {
              "internalType": "bool",
              "name": "",
              "type": "bool"
            }
          ],
          "stateMutability": "view",
          "type": "function"
        },
        {
          "inputs": [
            {
              "internalType": "bytes32",
              "name": "",
              "type": "bytes32"
            }
          ],
          "name": "leaderboards",
          "outputs": [
            {
              "internalType": "bytes32",
              "name": "country",
              "type": "bytes32"
            },
            {
              "internalType": "bytes32",
              "name": "winningArtist",
              "type": "bytes32"
            },
            {
              "internalType": "bool",
              "name": "isClosed",
              "type": "bool"
            },
            {
              "internalType": "uint256",
              "name": "totalBetAmount",
              "type": "uint256"
            },
            {
              "internalType": "uint256",
              "name": "startTime",
              "type": "uint256"
            }
          ],
          "stateMutability": "view",
          "type": "function"
        },
        {
          "inputs": [],
          "name": "oracle",
          "outputs": [
            {
              "internalType": "contract ChartsOracle",
              "name": "",
              "type": "address"
            }
          ],
          "stateMutability": "view",
          "type": "function"
        },
        {
          "inputs": [],
          "name": "owner",
          "outputs": [
            {
              "internalType": "address",
              "name": "",
              "type": "address"
            }
          ],
          "stateMutability": "view",
          "type": "function"
        },
        {
          "inputs": [],
          "name": "paused",
          "outputs": [
            {
              "internalType": "bool",
              "name": "",
              "type": "bool"
            }
          ],
          "stateMutability": "view",
          "type": "function"
        },
        {
          "inputs": [
            {
              "internalType": "bytes32",
              "name": "country",
              "type": "bytes32"
            },
            {
              "internalType": "bytes32",
              "name": "artist",
              "type": "bytes32"
            }
          ],
          "name": "placeBet",
          "outputs": [],
          "stateMutability": "payable",
          "type": "function"
        },
        {
          "inputs": [],
          "name": "renounceOwnership",
          "outputs": [],
          "stateMutability": "nonpayable",
          "type": "function"
        },
        {
          "inputs": [],
          "name": "requestWithdrawal",
          "outputs": [],
          "stateMutability": "nonpayable",
          "type": "function"
        },
        {
          "inputs": [],
          "name": "testOracleConnection",
          "outputs": [],
          "stateMutability": "nonpayable",
          "type": "function"
        },
        {
          "inputs": [],
          "name": "toggleContractActive",
          "outputs": [],
          "stateMutability": "nonpayable",
          "type": "function"
        },
        {
          "inputs": [
            {
              "internalType": "address",
              "name": "newOwner",
              "type": "address"
            }
          ],
          "name": "transferOwnership",
          "outputs": [],
          "stateMutability": "nonpayable",
          "type": "function"
        },
        {
          "inputs": [
            {
              "internalType": "address",
              "name": "newOracle",
              "type": "address"
            }
          ],
          "name": "updateOracle",
          "outputs": [],
          "stateMutability": "nonpayable",
          "type": "function"
        },
        {
          "inputs": [
            {
              "internalType": "bytes32",
              "name": "",
              "type": "bytes32"
            }
          ],
          "name": "validCountries",
          "outputs": [
            {
              "internalType": "bool",
              "name": "",
              "type": "bool"
            }
          ],
          "stateMutability": "view",
          "type": "function"
        },
        {
          "inputs": [],
          "name": "withdrawalRequestTime",
          "outputs": [
            {
              "internalType": "uint256",
              "name": "",
              "type": "uint256"
            }
          ],
          "stateMutability": "view",
          "type": "function"
        }
      ],
      "evm": {
        "bytecode": {
          "linkReferences": {},
          "object": "6080604052348015600f57600080fd5b50612af18061001f6000396000f3fe60806040526004361061019c5760003560e01c806378353ba6116100ec57806399da7aac1161008a578063eb4c552811610064578063eb4c552814610595578063f2fde38b146105d2578063f59bdf85146105fb578063fa45aa00146106265761019c565b806399da7aac1461052a578063c2d1aebe14610553578063dbaf21451461057e5761019c565b80637fe93e31116100c65780637fe93e311461045c5780638da5cb5b146104855780638fcd8cee146104b057806397654961146104ed5761019c565b806378353ba6146103ec5780637dc0d1d0146104155780637f6b0da8146104405761019c565b8063485cc9551161015957806366566a371161013357806366566a371461031e578063685142c71461035b578063715018a61461039857806377d0c7d3146103af5761019c565b8063485cc9551461028957806351922353146102b25780635c975abb146102f35761019c565b806306dc39bf146101a15780630ca8726c146101de5780630ebb172a146102075780631385d24c146102325780631cb44dfc146102495780632ce3707e14610272575b600080fd5b3480156101ad57600080fd5b506101c860048036038101906101c39190612254565b61063d565b6040516101d591906123ee565b60405180910390f35b3480156101ea57600080fd5b5061020560048036038101906102009190612410565b61072b565b005b34801561021357600080fd5b5061021c6109de565b604051610229919061245f565b60405180910390f35b34801561023e57600080fd5b506102476109e5565b005b34801561025557600080fd5b50610270600480360381019061026b91906124a6565b610a12565b005b34801561027e57600080fd5b50610287610afb565b005b34801561029557600080fd5b506102b060048036038101906102ab91906124d3565b610b52565b005b3480156102be57600080fd5b506102d960048036038101906102d49190612254565b610ef5565b6040516102ea95949392919061253d565b60405180910390f35b3480156102ff57600080fd5b50610308610f38565b6040516103159190612590565b60405180910390f35b34801561032a57600080fd5b5061034560048036038101906103409190612254565b610f5d565b6040516103529190612590565b60405180910390f35b34801561036757600080fd5b50610382600480360381019061037d91906125d7565b610f7d565b60405161038f9190612604565b60405180910390f35b3480156103a457600080fd5b506103ad610fa1565b005b3480156103bb57600080fd5b506103d660048036038101906103d19190612254565b610fb5565b6040516103e39190612590565b60405180910390f35b3480156103f857600080fd5b50610413600480360381019061040e9190612254565b610fea565b005b34801561042157600080fd5b5061042a6110df565b604051610437919061267e565b60405180910390f35b61045a60048036038101906104559190612410565b611105565b005b34801561046857600080fd5b50610483600480360381019061047e91906127f2565b611389565b005b34801561049157600080fd5b5061049a61154a565b6040516104a7919061285d565b60405180910390f35b3480156104bc57600080fd5b506104d760048036038101906104d29190612410565b611582565b6040516104e4919061245f565b60405180910390f35b3480156104f957600080fd5b50610514600480360381019061050f9190612254565b6115b3565b604051610521919061245f565b60405180910390f35b34801561053657600080fd5b50610551600480360381019061054c9190612254565b6115d2565b005b34801561055f57600080fd5b506105686117c8565b604051610575919061245f565b60405180910390f35b34801561058a57600080fd5b506105936117cf565b005b3480156105a157600080fd5b506105bc60048036038101906105b79190612410565b611819565b6040516105c9919061245f565b60405180910390f35b3480156105de57600080fd5b506105f960048036038101906105f491906124a6565b61184a565b005b34801561060757600080fd5b506106106118d0565b60405161061d919061245f565b60405180910390f35b34801561063257600080fd5b5061063b6118d6565b005b60606000806000848152602001908152602001600020905080600801805480602002602001604051908101604052809291908181526020016000905b8282101561071f57838290600052602060002090600402016040518060800160405290816000820160009054906101000a900473ffffffffffffffffffffffffffffffffffffffff1673ffffffffffffffffffffffffffffffffffffffff1673ffffffffffffffffffffffffffffffffffffffff168152602001600182015481526020016002820154815260200160038201548152505081526020019060010190610679565b50505050915050919050565b6107336119f7565b61073b611a38565b600260009054906101000a900473ffffffffffffffffffffffffffffffffffffffff1673ffffffffffffffffffffffffffffffffffffffff163373ffffffffffffffffffffffffffffffffffffffff16146107c2576040517fd342cbff00000000000000000000000000000000000000000000000000000000815260040160405180910390fd5b600080600084815260200190815260200160002090506000801b816000015403610818576040517f3d3cef6a00000000000000000000000000000000000000000000000000000000815260040160405180910390fd5b8060020160009054906101000a900460ff1615610861576040517f61c54c4a00000000000000000000000000000000000000000000000000000000815260040160405180910390fd5b81816001018190555060018160020160006101000a81548160ff02191690831515021790555060005b816008018054905081101561096b5760008260080182815481106108b1576108b0612878565b5b906000526020600020906004020190508381600201540361095d5760006064826003015483600101546108e491906128d6565b6108ee9190612947565b90508160000160009054906101000a900473ffffffffffffffffffffffffffffffffffffffff1673ffffffffffffffffffffffffffffffffffffffff166108fc829081150290604051600060405180830381858888f1935050505015801561095a573d6000803e3d6000fd5b50505b50808060010191505061088a565b50827f0d1c14929821bae6c0a56db12925a05bb0fa1981e5d0b5d2cc78cc5316aa01f98360405161099c9190612604565b60405180910390a2827f7fa0af01d1013cd4a40114e18d6be90c73e0906187e6bd1f851acc747e36475360405160405180910390a2506109da611a8f565b5050565b6202a30081565b6109ed611aa8565b6109f5610f38565b15610a0757610a02611b2f565b610a10565b610a0f611ba1565b5b565b610a1a611aa8565b600073ffffffffffffffffffffffffffffffffffffffff168173ffffffffffffffffffffffffffffffffffffffff1603610a80576040517f5521068100000000000000000000000000000000000000000000000000000000815260040160405180910390fd5b80600260006101000a81548173ffffffffffffffffffffffffffffffffffffffff021916908373ffffffffffffffffffffffffffffffffffffffff1602179055507f3df77beb5db05fcdd70a30fc8adf3f83f9501b68579455adbd100b818094039481604051610af0919061285d565b60405180910390a150565b610b03611aa8565b7f54455354000000000000000000000000000000000000000000000000000000007f73829305e9f70b89111cf588e6d67f7360300700b6ecaed7130c8021d454b49160405160405180910390a2565b6000610b5c611c13565b905060008160000160089054906101000a900460ff1615905060008260000160009054906101000a900467ffffffffffffffff1690506000808267ffffffffffffffff16148015610baa5750825b9050600060018367ffffffffffffffff16148015610bdf575060003073ffffffffffffffffffffffffffffffffffffffff163b145b905081158015610bed575080155b15610c24576040517ff92ee8a900000000000000000000000000000000000000000000000000000000815260040160405180910390fd5b60018560000160006101000a81548167ffffffffffffffff021916908367ffffffffffffffff1602179055508315610c745760018560000160086101000a81548160ff0219169083151502179055505b610c7d87611c3b565b610c85611c4f565b610c8d611c61565b85600260006101000a81548173ffffffffffffffffffffffffffffffffffffffff021916908373ffffffffffffffffffffffffffffffffffffffff16021790555060006040518061012001604052807f575700000000000000000000000000000000000000000000000000000000000081526020017f425200000000000000000000000000000000000000000000000000000000000081526020017f444500000000000000000000000000000000000000000000000000000000000081526020017f455300000000000000000000000000000000000000000000000000000000000081526020017f465200000000000000000000000000000000000000000000000000000000000081526020017f495400000000000000000000000000000000000000000000000000000000000081526020017f505400000000000000000000000000000000000000000000000000000000000081526020017f555300000000000000000000000000000000000000000000000000000000000081526020017f5445535400000000000000000000000000000000000000000000000000000000815250905060005b6009811015610e8e57600160036000848460098110610e5757610e56612878565b5b6020020151815260200190815260200160002060006101000a81548160ff0219169083151502179055508080600101915050610e35565b50508315610eec5760008560000160086101000a81548160ff0219169083151502179055507fc7f505b2f371ae2175ee4913f4499e1f2633a7b5936321eed1cdaeb6115181d26001604051610ee391906129c7565b60405180910390a15b50505050505050565b60006020528060005260406000206000915090508060000154908060010154908060020160009054906101000a900460ff16908060030154908060040154905085565b600080610f43611c73565b90508060000160009054906101000a900460ff1691505090565b60036020528060005260406000206000915054906101000a900460ff1681565b60018181548110610f8d57600080fd5b906000526020600020016000915090505481565b610fa9611aa8565b610fb36000611c9b565b565b600080600080848152602001908152602001600020905062093a808160040154610fdf91906129e2565b421015915050919050565b610ff2611aa8565b600080600083815260200190815260200160002090506000801b816000015403611048576040517f3d3cef6a00000000000000000000000000000000000000000000000000000000815260040160405180910390fd5b8060020160009054906101000a900460ff1615611091576040517f9aa0b8bd00000000000000000000000000000000000000000000000000000000815260040160405180910390fd5b60018160020160006101000a81548160ff021916908315150217905550817f7fa0af01d1013cd4a40114e18d6be90c73e0906187e6bd1f851acc747e36475360405160405180910390a25050565b600260009054906101000a900473ffffffffffffffffffffffffffffffffffffffff1681565b61110d6119f7565b611115611a38565b600080600084815260200190815260200160002090506000801b81600001540361116b576040517f3d3cef6a00000000000000000000000000000000000000000000000000000000815260040160405180910390fd5b8060020160009054906101000a900460ff168061118d575061118c83610fb5565b5b156111c4576040517f61c54c4a00000000000000000000000000000000000000000000000000000000815260040160405180910390fd5b600081600701600084815260200190815260200160002054905060008103611218576040517f59bdd61600000000000000000000000000000000000000000000000000000000815260040160405180910390fd5b3482600301600082825461122c91906129e2565b9250508190555034826005016000858152602001908152602001600020600082825461125891906129e2565b925050819055508160080160405180608001604052803373ffffffffffffffffffffffffffffffffffffffff16815260200134815260200185815260200183815250908060018154018082558091505060019003906000526020600020906004020160009091909190915060008201518160000160006101000a81548173ffffffffffffffffffffffffffffffffffffffff021916908373ffffffffffffffffffffffffffffffffffffffff1602179055506020820151816001015560408201518160020155606082015181600301555050833373ffffffffffffffffffffffffffffffffffffffff167f5b84398aa8383c056c26357fe69021c31a67fe1c3065d6f6b85deabc1eb9e1d98534604051611373929190612a16565b60405180910390a35050611385611a8f565b5050565b6113916119f7565b600260009054906101000a900473ffffffffffffffffffffffffffffffffffffffff1673ffffffffffffffffffffffffffffffffffffffff163373ffffffffffffffffffffffffffffffffffffffff1614611418576040517fd342cbff00000000000000000000000000000000000000000000000000000000815260040160405180910390fd5b6003600083815260200190815260200160002060009054906101000a900460ff1661146f576040517f139d566400000000000000000000000000000000000000000000000000000000815260040160405180910390fd5b600080600084815260200190815260200160002090506000801b8160000154036114c5576040517f3d3cef6a00000000000000000000000000000000000000000000000000000000815260040160405180910390fd5b8060020160009054906101000a900460ff161561150e576040517f9aa0b8bd00000000000000000000000000000000000000000000000000000000815260040160405180910390fd5b6115188383611d72565b827f577b6860ec2af75814bd1d732a479f5787676f4012afbc91228827a4b7f2e5a460405160405180910390a2505050565b600080611555611f5b565b90508060000160009054906101000a900473ffffffffffffffffffffffffffffffffffffffff1691505090565b6000806000848152602001908152602001600020600701600083815260200190815260200160002054905092915050565b6000806000838152602001908152602001600020600301549050919050565b6115da611aa8565b6115e26119f7565b6003600082815260200190815260200160002060009054906101000a900460ff16611639576040517f139d566400000000000000000000000000000000000000000000000000000000815260040160405180910390fd5b600080600083815260200190815260200160002090506000801b81600001541461171e578060020160009054906101000a900460ff1615801561168d575062093a80816004015461168a91906129e2565b42105b156116c4576040517fdbe95ff500000000000000000000000000000000000000000000000000000000815260040160405180910390fd5b60008083815260200190815260200160002060008082016000905560018201600090556002820160006101000a81549060ff02191690556003820160009055600482016000905560088201600061171b9190612190565b50505b6000806000848152602001908152602001600020905082816000018190555060008160020160006101000a81548160ff021916908315150217905550428160040181905550600081600301819055506001839080600181540180825580915050600190039060005260206000200160009091909190915055827f73829305e9f70b89111cf588e6d67f7360300700b6ecaed7130c8021d454b49160405160405180910390a2505050565b62093a8081565b6117d7611aa8565b426004819055507faf619daa033514f6c299197d29548ccd9276a1b55ef717fb80adf495925dd51060045460405161180f919061245f565b60405180910390a1565b6000806000848152602001908152602001600020600501600083815260200190815260200160002054905092915050565b611852611aa8565b600073ffffffffffffffffffffffffffffffffffffffff168173ffffffffffffffffffffffffffffffffffffffff16036118c45760006040517f1e4fbdf70000000000000000000000000000000000000000000000000000000081526004016118bb919061285d565b60405180910390fd5b6118cd81611c9b565b50565b60045481565b6118de611aa8565b6202a3006004546118ef91906129e2565b421015611928576040517fb95063c200000000000000000000000000000000000000000000000000000000815260040160405180910390fd5b60004703611962576040517f67e3990d00000000000000000000000000000000000000000000000000000000815260040160405180910390fd5b600047905061196f61154a565b73ffffffffffffffffffffffffffffffffffffffff166108fc829081150290604051600060405180830381858888f193505050501580156119b4573d6000803e3d6000fd5b5060006004819055507feaa620b5c98328f5ddb4195c31eadb3e30e7915fcbc9cc1c244441984780c0d2816040516119ec919061245f565b60405180910390a150565b6119ff610f38565b15611a36576040517fd93c066500000000000000000000000000000000000000000000000000000000815260040160405180910390fd5b565b6000611a42611f83565b90506002816000015403611a82576040517f3ee5aeb500000000000000000000000000000000000000000000000000000000815260040160405180910390fd5b6002816000018190555050565b6000611a99611f83565b90506001816000018190555050565b611ab0611fab565b73ffffffffffffffffffffffffffffffffffffffff16611ace61154a565b73ffffffffffffffffffffffffffffffffffffffff1614611b2d57611af1611fab565b6040517f118cdaa7000000000000000000000000000000000000000000000000000000008152600401611b24919061285d565b60405180910390fd5b565b611b37611fb3565b6000611b41611c73565b905060008160000160006101000a81548160ff0219169083151502179055507f5db9ee0a495bf2e6ff9c91a7834c1ba4fdd244a5e8aa4e537bd38aeae4b073aa611b89611fab565b604051611b96919061285d565b60405180910390a150565b611ba96119f7565b6000611bb3611c73565b905060018160000160006101000a81548160ff0219169083151502179055507f62e78cea01bee320cd4e420270b5ea74000d11b0c9f74754ebdbfc544b05a258611bfb611fab565b604051611c08919061285d565b60405180910390a150565b60007ff0c57e16840df040f15088dc2f81fe391c3923bec73e23a9662efc9c229c6a00905090565b611c43611ff3565b611c4c81612033565b50565b611c57611ff3565b611c5f6120b9565b565b611c69611ff3565b611c716120ed565b565b60007fcd5ed15c6e187e77e9aee88184c21f4f2182ab5827cb3b7e07fbedcd63f03300905090565b6000611ca5611f5b565b905060008160000160009054906101000a900473ffffffffffffffffffffffffffffffffffffffff169050828260000160006101000a81548173ffffffffffffffffffffffffffffffffffffffff021916908373ffffffffffffffffffffffffffffffffffffffff1602179055508273ffffffffffffffffffffffffffffffffffffffff168173ffffffffffffffffffffffffffffffffffffffff167f8be0079c531659141344cd1fd0a4f28419497f9722a3daafe3b4186f6b6457e060405160405180910390a3505050565b60008060008481526020019081526020016000209050600081600601905060005b8351811015611e17576000848281518110611db157611db0612878565b5b60200260200101519050600084600601600083815260200190815260200160002081905550600084600701600083815260200190815260200160002081905550600083600083815260200190815260200160002081905550508080600101915050611d93565b5060005b8351811015611e79576000848281518110611e3957611e38612878565b5b602002602001015190508260008281526020019081526020016000206000815480929190611e6690612a3f565b9190505550508080600101915050611e1b565b5060005b8351811015611f54576000848281518110611e9b57611e9a612878565b5b602002602001015190506000600183611eb491906129e2565b905080856006016000848152602001908152602001600020819055506000611eee828660008681526020019081526020016000205461210e565b90508086600701600085815260200190815260200160002081905550877fe702918564d36a4c4da3b202516e441b40204adeb97d8e49c6d2a7b27ee533e88483604051611f3c929190612a16565b60405180910390a25050508080600101915050611e7d565b5050505050565b60007f9016d09d72d40fdae2fd8ceac6b6234c7706214fd39c1cd1e609a0528c199300905090565b60007f9b779b17422d0df92223018b32b4d1fa46e071723d6817e2486d003becc55f00905090565b600033905090565b611fbb610f38565b611ff1576040517f8dfc202b00000000000000000000000000000000000000000000000000000000815260040160405180910390fd5b565b611ffb612170565b612031576040517fd7e6bcf800000000000000000000000000000000000000000000000000000000815260040160405180910390fd5b565b61203b611ff3565b600073ffffffffffffffffffffffffffffffffffffffff168173ffffffffffffffffffffffffffffffffffffffff16036120ad5760006040517f1e4fbdf70000000000000000000000000000000000000000000000000000000081526004016120a4919061285d565b60405180910390fd5b6120b681611c9b565b50565b6120c1611ff3565b60006120cb611c73565b905060008160000160006101000a81548160ff02191690831515021790555050565b6120f5611ff3565b60006120ff611f83565b90506001816000018190555050565b60008060026001848661212191906129e2565b61212b9190612a87565b8561213691906129e2565b6121409190612947565b905060146001826121519190612a87565b61215b91906128d6565b607861216791906129e2565b91505092915050565b600061217a611c13565b60000160089054906101000a900460ff16905090565b50805460008255600402906000526020600020908101906121b191906121b4565b50565b5b8082111561220657600080820160006101000a81549073ffffffffffffffffffffffffffffffffffffffff0219169055600182016000905560028201600090556003820160009055506004016121b5565b5090565b6000604051905090565b600080fd5b600080fd5b6000819050919050565b6122318161221e565b811461223c57600080fd5b50565b60008135905061224e81612228565b92915050565b60006020828403121561226a57612269612214565b5b60006122788482850161223f565b91505092915050565b600081519050919050565b600082825260208201905092915050565b6000819050602082019050919050565b600073ffffffffffffffffffffffffffffffffffffffff82169050919050565b60006122d8826122ad565b9050919050565b6122e8816122cd565b82525050565b6000819050919050565b612301816122ee565b82525050565b6123108161221e565b82525050565b60808201600082015161232c60008501826122df565b50602082015161233f60208501826122f8565b5060408201516123526040850182612307565b50606082015161236560608501826122f8565b50505050565b60006123778383612316565b60808301905092915050565b6000602082019050919050565b600061239b82612281565b6123a5818561228c565b93506123b08361229d565b8060005b838110156123e15781516123c8888261236b565b97506123d383612383565b9250506001810190506123b4565b5085935050505092915050565b600060208201905081810360008301526124088184612390565b905092915050565b6000806040838503121561242757612426612214565b5b60006124358582860161223f565b92505060206124468582860161223f565b9150509250929050565b612459816122ee565b82525050565b60006020820190506124746000830184612450565b92915050565b612483816122cd565b811461248e57600080fd5b50565b6000813590506124a08161247a565b92915050565b6000602082840312156124bc576124bb612214565b5b60006124ca84828501612491565b91505092915050565b600080604083850312156124ea576124e9612214565b5b60006124f885828601612491565b925050602061250985828601612491565b9150509250929050565b61251c8161221e565b82525050565b60008115159050919050565b61253781612522565b82525050565b600060a0820190506125526000830188612513565b61255f6020830187612513565b61256c604083018661252e565b6125796060830185612450565b6125866080830184612450565b9695505050505050565b60006020820190506125a5600083018461252e565b92915050565b6125b4816122ee565b81146125bf57600080fd5b50565b6000813590506125d1816125ab565b92915050565b6000602082840312156125ed576125ec612214565b5b60006125fb848285016125c2565b91505092915050565b60006020820190506126196000830184612513565b92915050565b6000819050919050565b600061264461263f61263a846122ad565b61261f565b6122ad565b9050919050565b600061265682612629565b9050919050565b60006126688261264b565b9050919050565b6126788161265d565b82525050565b6000602082019050612693600083018461266f565b92915050565b600080fd5b6000601f19601f8301169050919050565b7f4e487b7100000000000000000000000000000000000000000000000000000000600052604160045260246000fd5b6126e78261269e565b810181811067ffffffffffffffff82111715612706576127056126af565b5b80604052505050565b600061271961220a565b905061272582826126de565b919050565b600067ffffffffffffffff821115612745576127446126af565b5b602082029050602081019050919050565b600080fd5b600061276e6127698461272a565b61270f565b9050808382526020820190506020840283018581111561279157612790612756565b5b835b818110156127ba57806127a6888261223f565b845260208401935050602081019050612793565b5050509392505050565b600082601f8301126127d9576127d8612699565b5b81356127e984826020860161275b565b91505092915050565b6000806040838503121561280957612808612214565b5b60006128178582860161223f565b925050602083013567ffffffffffffffff81111561283857612837612219565b5b612844858286016127c4565b9150509250929050565b612857816122cd565b82525050565b6000602082019050612872600083018461284e565b92915050565b7f4e487b7100000000000000000000000000000000000000000000000000000000600052603260045260246000fd5b7f4e487b7100000000000000000000000000000000000000000000000000000000600052601160045260246000fd5b60006128e1826122ee565b91506128ec836122ee565b92508282026128fa816122ee565b91508282048414831517612911576129106128a7565b5b5092915050565b7f4e487b7100000000000000000000000000000000000000000000000000000000600052601260045260246000fd5b6000612952826122ee565b915061295d836122ee565b92508261296d5761296c612918565b5b828204905092915050565b6000819050919050565b600067ffffffffffffffff82169050919050565b60006129b16129ac6129a784612978565b61261f565b612982565b9050919050565b6129c181612996565b82525050565b60006020820190506129dc60008301846129b8565b92915050565b60006129ed826122ee565b91506129f8836122ee565b9250828201905080821115612a1057612a0f6128a7565b5b92915050565b6000604082019050612a2b6000830185612513565b612a386020830184612450565b9392505050565b6000612a4a826122ee565b91507fffffffffffffffffffffffffffffffffffffffffffffffffffffffffffffffff8203612a7c57612a7b6128a7565b5b600182019050919050565b6000612a92826122ee565b9150612a9d836122ee565b9250828203905081811115612ab557612ab46128a7565b5b9291505056fea2646970667358221220900f7e31f17f994663f3a7c7fa210aead5999d09a73a70d8a36646c31b66cf8564736f6c634300081a0033",
          "opcodes": "PUSH1 0x80 PUSH1 0x40 MSTORE CALLVALUE DUP1 ISZERO PUSH1 0xF JUMPI PUSH1 0x0 DUP1 REVERT JUMPDEST POP PUSH2 0x2AF1 DUP1 PUSH2 0x1F PUSH1 0x0 CODECOPY PUSH1 0x0 RETURN INVALID PUSH1 0x80 PUSH1 0x40 MSTORE PUSH1 0x4 CALLDATASIZE LT PUSH2 0x19C JUMPI PUSH1 0x0 CALLDATALOAD PUSH1 0xE0 SHR DUP1 PUSH4 0x78353BA6 GT PUSH2 0xEC JUMPI DUP1 PUSH4 0x99DA7AAC GT PUSH2 0x8A JUMPI DUP1 PUSH4 0xEB4C5528 GT PUSH2 0x64 JUMPI DUP1 PUSH4 0xEB4C5528 EQ PUSH2 0x595 JUMPI DUP1 PUSH4 0xF2FDE38B EQ PUSH2 0x5D2 JUMPI DUP1 PUSH4 0xF59BDF85 EQ PUSH2 0x5FB JUMPI DUP1 PUSH4 0xFA45AA00 EQ PUSH2 0x626 JUMPI PUSH2 0x19C JUMP JUMPDEST DUP1 PUSH4 0x99DA7AAC EQ PUSH2 0x52A JUMPI DUP1 PUSH4 0xC2D1AEBE EQ PUSH2 0x553 JUMPI DUP1 PUSH4 0xDBAF2145 EQ PUSH2 0x57E JUMPI PUSH2 0x19C JUMP JUMPDEST DUP1 PUSH4 0x7FE93E31 GT PUSH2 0xC6 JUMPI DUP1 PUSH4 0x7FE93E31 EQ PUSH2 0x45C JUMPI DUP1 PUSH4 0x8DA5CB5B EQ PUSH2 0x485 JUMPI DUP1 PUSH4 0x8FCD8CEE EQ PUSH2 0x4B0 JUMPI DUP1 PUSH4 0x97654961 EQ PUSH2 0x4ED JUMPI PUSH2 0x19C JUMP JUMPDEST DUP1 PUSH4 0x78353BA6 EQ PUSH2 0x3EC JUMPI DUP1 PUSH4 0x7DC0D1D0 EQ PUSH2 0x415 JUMPI DUP1 PUSH4 0x7F6B0DA8 EQ PUSH2 0x440 JUMPI PUSH2 0x19C JUMP JUMPDEST DUP1 PUSH4 0x485CC955 GT PUSH2 0x159 JUMPI DUP1 PUSH4 0x66566A37 GT PUSH2 0x133 JUMPI DUP1 PUSH4 0x66566A37 EQ PUSH2 0x31E JUMPI DUP1 PUSH4 0x685142C7 EQ PUSH2 0x35B JUMPI DUP1 PUSH4 0x715018A6 EQ PUSH2 0x398 JUMPI DUP1 PUSH4 0x77D0C7D3 EQ PUSH2 0x3AF JUMPI PUSH2 0x19C JUMP JUMPDEST DUP1 PUSH4 0x485CC955 EQ PUSH2 0x289 JUMPI DUP1 PUSH4 0x51922353 EQ PUSH2 0x2B2 JUMPI DUP1 PUSH4 0x5C975ABB EQ PUSH2 0x2F3 JUMPI PUSH2 0x19C JUMP JUMPDEST DUP1 PUSH4 0x6DC39BF EQ PUSH2 0x1A1 JUMPI DUP1 PUSH4 0xCA8726C EQ PUSH2 0x1DE JUMPI DUP1 PUSH4 0xEBB172A EQ PUSH2 0x207 JUMPI DUP1 PUSH4 0x1385D24C EQ PUSH2 0x232 JUMPI DUP1 PUSH4 0x1CB44DFC EQ PUSH2 0x249 JUMPI DUP1 PUSH4 0x2CE3707E EQ PUSH2 0x272 JUMPI JUMPDEST PUSH1 0x0 DUP1 REVERT JUMPDEST CALLVALUE DUP1 ISZERO PUSH2 0x1AD JUMPI PUSH1 0x0 DUP1 REVERT JUMPDEST POP PUSH2 0x1C8 PUSH1 0x4 DUP1 CALLDATASIZE SUB DUP2 ADD SWAP1 PUSH2 0x1C3 SWAP2 SWAP1 PUSH2 0x2254 JUMP JUMPDEST PUSH2 0x63D JUMP JUMPDEST PUSH1 0x40 MLOAD PUSH2 0x1D5 SWAP2 SWAP1 PUSH2 0x23EE JUMP JUMPDEST PUSH1 0x40 MLOAD DUP1 SWAP2 SUB SWAP1 RETURN JUMPDEST CALLVALUE DUP1 ISZERO PUSH2 0x1EA JUMPI PUSH1 0x0 DUP1 REVERT JUMPDEST POP PUSH2 0x205 PUSH1 0x4 DUP1 CALLDATASIZE SUB DUP2 ADD SWAP1 PUSH2 0x200 SWAP2 SWAP1 PUSH2 0x2410 JUMP JUMPDEST PUSH2 0x72B JUMP JUMPDEST STOP JUMPDEST CALLVALUE DUP1 ISZERO PUSH2 0x213 JUMPI PUSH1 0x0 DUP1 REVERT JUMPDEST POP PUSH2 0x21C PUSH2 0x9DE JUMP JUMPDEST PUSH1 0x40 MLOAD PUSH2 0x229 SWAP2 SWAP1 PUSH2 0x245F JUMP JUMPDEST PUSH1 0x40 MLOAD DUP1 SWAP2 SUB SWAP1 RETURN JUMPDEST CALLVALUE DUP1 ISZERO PUSH2 0x23E JUMPI PUSH1 0x0 DUP1 REVERT JUMPDEST POP PUSH2 0x247 PUSH2 0x9E5 JUMP JUMPDEST STOP JUMPDEST CALLVALUE DUP1 ISZERO PUSH2 0x255 JUMPI PUSH1 0x0 DUP1 REVERT JUMPDEST POP PUSH2 0x270 PUSH1 0x4 DUP1 CALLDATASIZE SUB DUP2 ADD SWAP1 PUSH2 0x26B SWAP2 SWAP1 PUSH2 0x24A6 JUMP JUMPDEST PUSH2 0xA12 JUMP JUMPDEST STOP JUMPDEST CALLVALUE DUP1 ISZERO PUSH2 0x27E JUMPI PUSH1 0x0 DUP1 REVERT JUMPDEST POP PUSH2 0x287 PUSH2 0xAFB JUMP JUMPDEST STOP JUMPDEST CALLVALUE DUP1 ISZERO PUSH2 0x295 JUMPI PUSH1 0x0 DUP1 REVERT JUMPDEST POP PUSH2 0x2B0 PUSH1 0x4 DUP1 CALLDATASIZE SUB DUP2 ADD SWAP1 PUSH2 0x2AB SWAP2 SWAP1 PUSH2 0x24D3 JUMP JUMPDEST PUSH2 0xB52 JUMP JUMPDEST STOP JUMPDEST CALLVALUE DUP1 ISZERO PUSH2 0x2BE JUMPI PUSH1 0x0 DUP1 REVERT JUMPDEST POP PUSH2 0x2D9 PUSH1 0x4 DUP1 CALLDATASIZE SUB DUP2 ADD SWAP1 PUSH2 0x2D4 SWAP2 SWAP1 PUSH2 0x2254 JUMP JUMPDEST PUSH2 0xEF5 JUMP JUMPDEST PUSH1 0x40 MLOAD PUSH2 0x2EA SWAP6 SWAP5 SWAP4 SWAP3 SWAP2 SWAP1 PUSH2 0x253D JUMP JUMPDEST PUSH1 0x40 MLOAD DUP1 SWAP2 SUB SWAP1 RETURN JUMPDEST CALLVALUE DUP1 ISZERO PUSH2 0x2FF JUMPI PUSH1 0x0 DUP1 REVERT JUMPDEST POP PUSH2 0x308 PUSH2 0xF38 JUMP JUMPDEST PUSH1 0x40 MLOAD PUSH2 0x315 SWAP2 SWAP1 PUSH2 0x2590 JUMP JUMPDEST PUSH1 0x40 MLOAD DUP1 SWAP2 SUB SWAP1 RETURN JUMPDEST CALLVALUE DUP1 ISZERO PUSH2 0x32A JUMPI PUSH1 0x0 DUP1 REVERT JUMPDEST POP PUSH2 0x345 PUSH1 0x4 DUP1 CALLDATASIZE SUB DUP2 ADD SWAP1 PUSH2 0x340 SWAP2 SWAP1 PUSH2 0x2254 JUMP JUMPDEST PUSH2 0xF5D JUMP JUMPDEST PUSH1 0x40 MLOAD PUSH2 0x352 SWAP2 SWAP1 PUSH2 0x2590 JUMP JUMPDEST PUSH1 0x40 MLOAD DUP1 SWAP2 SUB SWAP1 RETURN JUMPDEST CALLVALUE DUP1 ISZERO PUSH2 0x367 JUMPI PUSH1 0x0 DUP1 REVERT JUMPDEST POP PUSH2 0x382 PUSH1 0x4 DUP1 CALLDATASIZE SUB DUP2 ADD SWAP1 PUSH2 0x37D SWAP2 SWAP1 PUSH2 0x25D7 JUMP JUMPDEST PUSH2 0xF7D JUMP JUMPDEST PUSH1 0x40 MLOAD PUSH2 0x38F SWAP2 SWAP1 PUSH2 0x2604 JUMP JUMPDEST PUSH1 0x40 MLOAD DUP1 SWAP2 SUB SWAP1 RETURN JUMPDEST CALLVALUE DUP1 ISZERO PUSH2 0x3A4 JUMPI PUSH1 0x0 DUP1 REVERT JUMPDEST POP PUSH2 0x3AD PUSH2 0xFA1 JUMP JUMPDEST STOP JUMPDEST CALLVALUE DUP1 ISZERO PUSH2 0x3BB JUMPI PUSH1 0x0 DUP1 REVERT JUMPDEST POP PUSH2 0x3D6 PUSH1 0x4 DUP1 CALLDATASIZE SUB DUP2 ADD SWAP1 PUSH2 0x3D1 SWAP2 SWAP1 PUSH2 0x2254 JUMP JUMPDEST PUSH2 0xFB5 JUMP JUMPDEST PUSH1 0x40 MLOAD PUSH2 0x3E3 SWAP2 SWAP1 PUSH2 0x2590 JUMP JUMPDEST PUSH1 0x40 MLOAD DUP1 SWAP2 SUB SWAP1 RETURN JUMPDEST CALLVALUE DUP1 ISZERO PUSH2 0x3F8 JUMPI PUSH1 0x0 DUP1 REVERT JUMPDEST POP PUSH2 0x413 PUSH1 0x4 DUP1 CALLDATASIZE SUB DUP2 ADD SWAP1 PUSH2 0x40E SWAP2 SWAP1 PUSH2 0x2254 JUMP JUMPDEST PUSH2 0xFEA JUMP JUMPDEST STOP JUMPDEST CALLVALUE DUP1 ISZERO PUSH2 0x421 JUMPI PUSH1 0x0 DUP1 REVERT JUMPDEST POP PUSH2 0x42A PUSH2 0x10DF JUMP JUMPDEST PUSH1 0x40 MLOAD PUSH2 0x437 SWAP2 SWAP1 PUSH2 0x267E JUMP JUMPDEST PUSH1 0x40 MLOAD DUP1 SWAP2 SUB SWAP1 RETURN JUMPDEST PUSH2 0x45A PUSH1 0x4 DUP1 CALLDATASIZE SUB DUP2 ADD SWAP1 PUSH2 0x455 SWAP2 SWAP1 PUSH2 0x2410 JUMP JUMPDEST PUSH2 0x1105 JUMP JUMPDEST STOP JUMPDEST CALLVALUE DUP1 ISZERO PUSH2 0x468 JUMPI PUSH1 0x0 DUP1 REVERT JUMPDEST POP PUSH2 0x483 PUSH1 0x4 DUP1 CALLDATASIZE SUB DUP2 ADD SWAP1 PUSH2 0x47E SWAP2 SWAP1 PUSH2 0x27F2 JUMP JUMPDEST PUSH2 0x1389 JUMP JUMPDEST STOP JUMPDEST CALLVALUE DUP1 ISZERO PUSH2 0x491 JUMPI PUSH1 0x0 DUP1 REVERT JUMPDEST POP PUSH2 0x49A PUSH2 0x154A JUMP JUMPDEST PUSH1 0x40 MLOAD PUSH2 0x4A7 SWAP2 SWAP1 PUSH2 0x285D JUMP JUMPDEST PUSH1 0x40 MLOAD DUP1 SWAP2 SUB SWAP1 RETURN JUMPDEST CALLVALUE DUP1 ISZERO PUSH2 0x4BC JUMPI PUSH1 0x0 DUP1 REVERT JUMPDEST POP PUSH2 0x4D7 PUSH1 0x4 DUP1 CALLDATASIZE SUB DUP2 ADD SWAP1 PUSH2 0x4D2 SWAP2 SWAP1 PUSH2 0x2410 JUMP JUMPDEST PUSH2 0x1582 JUMP JUMPDEST PUSH1 0x40 MLOAD PUSH2 0x4E4 SWAP2 SWAP1 PUSH2 0x245F JUMP JUMPDEST PUSH1 0x40 MLOAD DUP1 SWAP2 SUB SWAP1 RETURN JUMPDEST CALLVALUE DUP1 ISZERO PUSH2 0x4F9 JUMPI PUSH1 0x0 DUP1 REVERT JUMPDEST POP PUSH2 0x514 PUSH1 0x4 DUP1 CALLDATASIZE SUB DUP2 ADD SWAP1 PUSH2 0x50F SWAP2 SWAP1 PUSH2 0x2254 JUMP JUMPDEST PUSH2 0x15B3 JUMP JUMPDEST PUSH1 0x40 MLOAD PUSH2 0x521 SWAP2 SWAP1 PUSH2 0x245F JUMP JUMPDEST PUSH1 0x40 MLOAD DUP1 SWAP2 SUB SWAP1 RETURN JUMPDEST CALLVALUE DUP1 ISZERO PUSH2 0x536 JUMPI PUSH1 0x0 DUP1 REVERT JUMPDEST POP PUSH2 0x551 PUSH1 0x4 DUP1 CALLDATASIZE SUB DUP2 ADD SWAP1 PUSH2 0x54C SWAP2 SWAP1 PUSH2 0x2254 JUMP JUMPDEST PUSH2 0x15D2 JUMP JUMPDEST STOP JUMPDEST CALLVALUE DUP1 ISZERO PUSH2 0x55F JUMPI PUSH1 0x0 DUP1 REVERT JUMPDEST POP PUSH2 0x568 PUSH2 0x17C8 JUMP JUMPDEST PUSH1 0x40 MLOAD PUSH2 0x575 SWAP2 SWAP1 PUSH2 0x245F JUMP JUMPDEST PUSH1 0x40 MLOAD DUP1 SWAP2 SUB SWAP1 RETURN JUMPDEST CALLVALUE DUP1 ISZERO PUSH2 0x58A JUMPI PUSH1 0x0 DUP1 REVERT JUMPDEST POP PUSH2 0x593 PUSH2 0x17CF JUMP JUMPDEST STOP JUMPDEST CALLVALUE DUP1 ISZERO PUSH2 0x5A1 JUMPI PUSH1 0x0 DUP1 REVERT JUMPDEST POP PUSH2 0x5BC PUSH1 0x4 DUP1 CALLDATASIZE SUB DUP2 ADD SWAP1 PUSH2 0x5B7 SWAP2 SWAP1 PUSH2 0x2410 JUMP JUMPDEST PUSH2 0x1819 JUMP JUMPDEST PUSH1 0x40 MLOAD PUSH2 0x5C9 SWAP2 SWAP1 PUSH2 0x245F JUMP JUMPDEST PUSH1 0x40 MLOAD DUP1 SWAP2 SUB SWAP1 RETURN JUMPDEST CALLVALUE DUP1 ISZERO PUSH2 0x5DE JUMPI PUSH1 0x0 DUP1 REVERT JUMPDEST POP PUSH2 0x5F9 PUSH1 0x4 DUP1 CALLDATASIZE SUB DUP2 ADD SWAP1 PUSH2 0x5F4 SWAP2 SWAP1 PUSH2 0x24A6 JUMP JUMPDEST PUSH2 0x184A JUMP JUMPDEST STOP JUMPDEST CALLVALUE DUP1 ISZERO PUSH2 0x607 JUMPI PUSH1 0x0 DUP1 REVERT JUMPDEST POP PUSH2 0x610 PUSH2 0x18D0 JUMP JUMPDEST PUSH1 0x40 MLOAD PUSH2 0x61D SWAP2 SWAP1 PUSH2 0x245F JUMP JUMPDEST PUSH1 0x40 MLOAD DUP1 SWAP2 SUB SWAP1 RETURN JUMPDEST CALLVALUE DUP1 ISZERO PUSH2 0x632 JUMPI PUSH1 0x0 DUP1 REVERT JUMPDEST POP PUSH2 0x63B PUSH2 0x18D6 JUMP JUMPDEST STOP JUMPDEST PUSH1 0x60 PUSH1 0x0 DUP1 PUSH1 0x0 DUP5 DUP2 MSTORE PUSH1 0x20 ADD SWAP1 DUP2 MSTORE PUSH1 0x20 ADD PUSH1 0x0 KECCAK256 SWAP1 POP DUP1 PUSH1 0x8 ADD DUP1 SLOAD DUP1 PUSH1 0x20 MUL PUSH1 0x20 ADD PUSH1 0x40 MLOAD SWAP1 DUP2 ADD PUSH1 0x40 MSTORE DUP1 SWAP3 SWAP2 SWAP1 DUP2 DUP2 MSTORE PUSH1 0x20 ADD PUSH1 0x0 SWAP1 JUMPDEST DUP3 DUP3 LT ISZERO PUSH2 0x71F JUMPI DUP4 DUP3 SWAP1 PUSH1 0x0 MSTORE PUSH1 0x20 PUSH1 0x0 KECCAK256 SWAP1 PUSH1 0x4 MUL ADD PUSH1 0x40 MLOAD DUP1 PUSH1 0x80 ADD PUSH1 0x40 MSTORE SWAP1 DUP2 PUSH1 0x0 DUP3 ADD PUSH1 0x0 SWAP1 SLOAD SWAP1 PUSH2 0x100 EXP SWAP1 DIV PUSH20 0xFFFFFFFFFFFFFFFFFFFFFFFFFFFFFFFFFFFFFFFF AND PUSH20 0xFFFFFFFFFFFFFFFFFFFFFFFFFFFFFFFFFFFFFFFF AND PUSH20 0xFFFFFFFFFFFFFFFFFFFFFFFFFFFFFFFFFFFFFFFF AND DUP2 MSTORE PUSH1 0x20 ADD PUSH1 0x1 DUP3 ADD SLOAD DUP2 MSTORE PUSH1 0x20 ADD PUSH1 0x2 DUP3 ADD SLOAD DUP2 MSTORE PUSH1 0x20 ADD PUSH1 0x3 DUP3 ADD SLOAD DUP2 MSTORE POP POP DUP2 MSTORE PUSH1 0x20 ADD SWAP1 PUSH1 0x1 ADD SWAP1 PUSH2 0x679 JUMP JUMPDEST POP POP POP POP SWAP2 POP POP SWAP2 SWAP1 POP JUMP JUMPDEST PUSH2 0x733 PUSH2 0x19F7 JUMP JUMPDEST PUSH2 0x73B PUSH2 0x1A38 JUMP JUMPDEST PUSH1 0x2 PUSH1 0x0 SWAP1 SLOAD SWAP1 PUSH2 0x100 EXP SWAP1 DIV PUSH20 0xFFFFFFFFFFFFFFFFFFFFFFFFFFFFFFFFFFFFFFFF AND PUSH20 0xFFFFFFFFFFFFFFFFFFFFFFFFFFFFFFFFFFFFFFFF AND CALLER PUSH20 0xFFFFFFFFFFFFFFFFFFFFFFFFFFFFFFFFFFFFFFFF AND EQ PUSH2 0x7C2 JUMPI PUSH1 0x40 MLOAD PUSH32 0xD342CBFF00000000000000000000000000000000000000000000000000000000 DUP2 MSTORE PUSH1 0x4 ADD PUSH1 0x40 MLOAD DUP1 SWAP2 SUB SWAP1 REVERT JUMPDEST PUSH1 0x0 DUP1 PUSH1 0x0 DUP5 DUP2 MSTORE PUSH1 0x20 ADD SWAP1 DUP2 MSTORE PUSH1 0x20 ADD PUSH1 0x0 KECCAK256 SWAP1 POP PUSH1 0x0 DUP1 SHL DUP2 PUSH1 0x0 ADD SLOAD SUB PUSH2 0x818 JUMPI PUSH1 0x40 MLOAD PUSH32 0x3D3CEF6A00000000000000000000000000000000000000000000000000000000 DUP2 MSTORE PUSH1 0x4 ADD PUSH1 0x40 MLOAD DUP1 SWAP2 SUB SWAP1 REVERT JUMPDEST DUP1 PUSH1 0x2 ADD PUSH1 0x0 SWAP1 SLOAD SWAP1 PUSH2 0x100 EXP SWAP1 DIV PUSH1 0xFF AND ISZERO PUSH2 0x861 JUMPI PUSH1 0x40 MLOAD PUSH32 0x61C54C4A00000000000000000000000000000000000000000000000000000000 DUP2 MSTORE PUSH1 0x4 ADD PUSH1 0x40 MLOAD DUP1 SWAP2 SUB SWAP1 REVERT JUMPDEST DUP2 DUP2 PUSH1 0x1 ADD DUP2 SWAP1 SSTORE POP PUSH1 0x1 DUP2 PUSH1 0x2 ADD PUSH1 0x0 PUSH2 0x100 EXP DUP2 SLOAD DUP2 PUSH1 0xFF MUL NOT AND SWAP1 DUP4 ISZERO ISZERO MUL OR SWAP1 SSTORE POP PUSH1 0x0 JUMPDEST DUP2 PUSH1 0x8 ADD DUP1 SLOAD SWAP1 POP DUP2 LT ISZERO PUSH2 0x96B JUMPI PUSH1 0x0 DUP3 PUSH1 0x8 ADD DUP3 DUP2 SLOAD DUP2 LT PUSH2 0x8B1 JUMPI PUSH2 0x8B0 PUSH2 0x2878 JUMP JUMPDEST JUMPDEST SWAP1 PUSH1 0x0 MSTORE PUSH1 0x20 PUSH1 0x0 KECCAK256 SWAP1 PUSH1 0x4 MUL ADD SWAP1 POP DUP4 DUP2 PUSH1 0x2 ADD SLOAD SUB PUSH2 0x95D JUMPI PUSH1 0x0 PUSH1 0x64 DUP3 PUSH1 0x3 ADD SLOAD DUP4 PUSH1 0x1 ADD SLOAD PUSH2 0x8E4 SWAP2 SWAP1 PUSH2 0x28D6 JUMP JUMPDEST PUSH2 0x8EE SWAP2 SWAP1 PUSH2 0x2947 JUMP JUMPDEST SWAP1 POP DUP2 PUSH1 0x0 ADD PUSH1 0x0 SWAP1 SLOAD SWAP1 PUSH2 0x100 EXP SWAP1 DIV PUSH20 0xFFFFFFFFFFFFFFFFFFFFFFFFFFFFFFFFFFFFFFFF AND PUSH20 0xFFFFFFFFFFFFFFFFFFFFFFFFFFFFFFFFFFFFFFFF AND PUSH2 0x8FC DUP3 SWAP1 DUP2 ISZERO MUL SWAP1 PUSH1 0x40 MLOAD PUSH1 0x0 PUSH1 0x40 MLOAD DUP1 DUP4 SUB DUP2 DUP6 DUP9 DUP9 CALL SWAP4 POP POP POP POP ISZERO DUP1 ISZERO PUSH2 0x95A JUMPI RETURNDATASIZE PUSH1 0x0 DUP1 RETURNDATACOPY RETURNDATASIZE PUSH1 0x0 REVERT JUMPDEST POP POP JUMPDEST POP DUP1 DUP1 PUSH1 0x1 ADD SWAP2 POP POP PUSH2 0x88A JUMP JUMPDEST POP DUP3 PUSH32 0xD1C14929821BAE6C0A56DB12925A05BB0FA1981E5D0B5D2CC78CC5316AA01F9 DUP4 PUSH1 0x40 MLOAD PUSH2 0x99C SWAP2 SWAP1 PUSH2 0x2604 JUMP JUMPDEST PUSH1 0x40 MLOAD DUP1 SWAP2 SUB SWAP1 LOG2 DUP3 PUSH32 0x7FA0AF01D1013CD4A40114E18D6BE90C73E0906187E6BD1F851ACC747E364753 PUSH1 0x40 MLOAD PUSH1 0x40 MLOAD DUP1 SWAP2 SUB SWAP1 LOG2 POP PUSH2 0x9DA PUSH2 0x1A8F JUMP JUMPDEST POP POP JUMP JUMPDEST PUSH3 0x2A300 DUP2 JUMP JUMPDEST PUSH2 0x9ED PUSH2 0x1AA8 JUMP JUMPDEST PUSH2 0x9F5 PUSH2 0xF38 JUMP JUMPDEST ISZERO PUSH2 0xA07 JUMPI PUSH2 0xA02 PUSH2 0x1B2F JUMP JUMPDEST PUSH2 0xA10 JUMP JUMPDEST PUSH2 0xA0F PUSH2 0x1BA1 JUMP JUMPDEST JUMPDEST JUMP JUMPDEST PUSH2 0xA1A PUSH2 0x1AA8 JUMP JUMPDEST PUSH1 0x0 PUSH20 0xFFFFFFFFFFFFFFFFFFFFFFFFFFFFFFFFFFFFFFFF AND DUP2 PUSH20 0xFFFFFFFFFFFFFFFFFFFFFFFFFFFFFFFFFFFFFFFF AND SUB PUSH2 0xA80 JUMPI PUSH1 0x40 MLOAD PUSH32 0x5521068100000000000000000000000000000000000000000000000000000000 DUP2 MSTORE PUSH1 0x4 ADD PUSH1 0x40 MLOAD DUP1 SWAP2 SUB SWAP1 REVERT JUMPDEST DUP1 PUSH1 0x2 PUSH1 0x0 PUSH2 0x100 EXP DUP2 SLOAD DUP2 PUSH20 0xFFFFFFFFFFFFFFFFFFFFFFFFFFFFFFFFFFFFFFFF MUL NOT AND SWAP1 DUP4 PUSH20 0xFFFFFFFFFFFFFFFFFFFFFFFFFFFFFFFFFFFFFFFF AND MUL OR SWAP1 SSTORE POP PUSH32 0x3DF77BEB5DB05FCDD70A30FC8ADF3F83F9501B68579455ADBD100B8180940394 DUP2 PUSH1 0x40 MLOAD PUSH2 0xAF0 SWAP2 SWAP1 PUSH2 0x285D JUMP JUMPDEST PUSH1 0x40 MLOAD DUP1 SWAP2 SUB SWAP1 LOG1 POP JUMP JUMPDEST PUSH2 0xB03 PUSH2 0x1AA8 JUMP JUMPDEST PUSH32 0x5445535400000000000000000000000000000000000000000000000000000000 PUSH32 0x73829305E9F70B89111CF588E6D67F7360300700B6ECAED7130C8021D454B491 PUSH1 0x40 MLOAD PUSH1 0x40 MLOAD DUP1 SWAP2 SUB SWAP1 LOG2 JUMP JUMPDEST PUSH1 0x0 PUSH2 0xB5C PUSH2 0x1C13 JUMP JUMPDEST SWAP1 POP PUSH1 0x0 DUP2 PUSH1 0x0 ADD PUSH1 0x8 SWAP1 SLOAD SWAP1 PUSH2 0x100 EXP SWAP1 DIV PUSH1 0xFF AND ISZERO SWAP1 POP PUSH1 0x0 DUP3 PUSH1 0x0 ADD PUSH1 0x0 SWAP1 SLOAD SWAP1 PUSH2 0x100 EXP SWAP1 DIV PUSH8 0xFFFFFFFFFFFFFFFF AND SWAP1 POP PUSH1 0x0 DUP1 DUP3 PUSH8 0xFFFFFFFFFFFFFFFF AND EQ DUP1 ISZERO PUSH2 0xBAA JUMPI POP DUP3 JUMPDEST SWAP1 POP PUSH1 0x0 PUSH1 0x1 DUP4 PUSH8 0xFFFFFFFFFFFFFFFF AND EQ DUP1 ISZERO PUSH2 0xBDF JUMPI POP PUSH1 0x0 ADDRESS PUSH20 0xFFFFFFFFFFFFFFFFFFFFFFFFFFFFFFFFFFFFFFFF AND EXTCODESIZE EQ JUMPDEST SWAP1 POP DUP2 ISZERO DUP1 ISZERO PUSH2 0xBED JUMPI POP DUP1 ISZERO JUMPDEST ISZERO PUSH2 0xC24 JUMPI PUSH1 0x40 MLOAD PUSH32 0xF92EE8A900000000000000000000000000000000000000000000000000000000 DUP2 MSTORE PUSH1 0x4 ADD PUSH1 0x40 MLOAD DUP1 SWAP2 SUB SWAP1 REVERT JUMPDEST PUSH1 0x1 DUP6 PUSH1 0x0 ADD PUSH1 0x0 PUSH2 0x100 EXP DUP2 SLOAD DUP2 PUSH8 0xFFFFFFFFFFFFFFFF MUL NOT AND SWAP1 DUP4 PUSH8 0xFFFFFFFFFFFFFFFF AND MUL OR SWAP1 SSTORE POP DUP4 ISZERO PUSH2 0xC74 JUMPI PUSH1 0x1 DUP6 PUSH1 0x0 ADD PUSH1 0x8 PUSH2 0x100 EXP DUP2 SLOAD DUP2 PUSH1 0xFF MUL NOT AND SWAP1 DUP4 ISZERO ISZERO MUL OR SWAP1 SSTORE POP JUMPDEST PUSH2 0xC7D DUP8 PUSH2 0x1C3B JUMP JUMPDEST PUSH2 0xC85 PUSH2 0x1C4F JUMP JUMPDEST PUSH2 0xC8D PUSH2 0x1C61 JUMP JUMPDEST DUP6 PUSH1 0x2 PUSH1 0x0 PUSH2 0x100 EXP DUP2 SLOAD DUP2 PUSH20 0xFFFFFFFFFFFFFFFFFFFFFFFFFFFFFFFFFFFFFFFF MUL NOT AND SWAP1 DUP4 PUSH20 0xFFFFFFFFFFFFFFFFFFFFFFFFFFFFFFFFFFFFFFFF AND MUL OR SWAP1 SSTORE POP PUSH1 0x0 PUSH1 0x40 MLOAD DUP1 PUSH2 0x120 ADD PUSH1 0x40 MSTORE DUP1 PUSH32 0x5757000000000000000000000000000000000000000000000000000000000000 DUP2 MSTORE PUSH1 0x20 ADD PUSH32 0x4252000000000000000000000000000000000000000000000000000000000000 DUP2 MSTORE PUSH1 0x20 ADD PUSH32 0x4445000000000000000000000000000000000000000000000000000000000000 DUP2 MSTORE PUSH1 0x20 ADD PUSH32 0x4553000000000000000000000000000000000000000000000000000000000000 DUP2 MSTORE PUSH1 0x20 ADD PUSH32 0x4652000000000000000000000000000000000000000000000000000000000000 DUP2 MSTORE PUSH1 0x20 ADD PUSH32 0x4954000000000000000000000000000000000000000000000000000000000000 DUP2 MSTORE PUSH1 0x20 ADD PUSH32 0x5054000000000000000000000000000000000000000000000000000000000000 DUP2 MSTORE PUSH1 0x20 ADD PUSH32 0x5553000000000000000000000000000000000000000000000000000000000000 DUP2 MSTORE PUSH1 0x20 ADD PUSH32 0x5445535400000000000000000000000000000000000000000000000000000000 DUP2 MSTORE POP SWAP1 POP PUSH1 0x0 JUMPDEST PUSH1 0x9 DUP2 LT ISZERO PUSH2 0xE8E JUMPI PUSH1 0x1 PUSH1 0x3 PUSH1 0x0 DUP5 DUP5 PUSH1 0x9 DUP2 LT PUSH2 0xE57 JUMPI PUSH2 0xE56 PUSH2 0x2878 JUMP JUMPDEST JUMPDEST PUSH1 0x20 MUL ADD MLOAD DUP2 MSTORE PUSH1 0x20 ADD SWAP1 DUP2 MSTORE PUSH1 0x20 ADD PUSH1 0x0 KECCAK256 PUSH1 0x0 PUSH2 0x100 EXP DUP2 SLOAD DUP2 PUSH1 0xFF MUL NOT AND SWAP1 DUP4 ISZERO ISZERO MUL OR SWAP1 SSTORE POP DUP1 DUP1 PUSH1 0x1 ADD SWAP2 POP POP PUSH2 0xE35 JUMP JUMPDEST POP POP DUP4 ISZERO PUSH2 0xEEC JUMPI PUSH1 0x0 DUP6 PUSH1 0x0 ADD PUSH1 0x8 PUSH2 0x100 EXP DUP2 SLOAD DUP2 PUSH1 0xFF MUL NOT AND SWAP1 DUP4 ISZERO ISZERO MUL OR SWAP1 SSTORE POP PUSH32 0xC7F505B2F371AE2175EE4913F4499E1F2633A7B5936321EED1CDAEB6115181D2 PUSH1 0x1 PUSH1 0x40 MLOAD PUSH2 0xEE3 SWAP2 SWAP1 PUSH2 0x29C7 JUMP JUMPDEST PUSH1 0x40 MLOAD DUP1 SWAP2 SUB SWAP1 LOG1 JUMPDEST POP POP POP POP POP POP POP JUMP JUMPDEST PUSH1 0x0 PUSH1 0x20 MSTORE DUP1 PUSH1 0x0 MSTORE PUSH1 0x40 PUSH1 0x0 KECCAK256 PUSH1 0x0 SWAP2 POP SWAP1 POP DUP1 PUSH1 0x0 ADD SLOAD SWAP1 DUP1 PUSH1 0x1 ADD SLOAD SWAP1 DUP1 PUSH1 0x2 ADD PUSH1 0x0 SWAP1 SLOAD SWAP1 PUSH2 0x100 EXP SWAP1 DIV PUSH1 0xFF AND SWAP1 DUP1 PUSH1 0x3 ADD SLOAD SWAP1 DUP1 PUSH1 0x4 ADD SLOAD SWAP1 POP DUP6 JUMP JUMPDEST PUSH1 0x0 DUP1 PUSH2 0xF43 PUSH2 0x1C73 JUMP JUMPDEST SWAP1 POP DUP1 PUSH1 0x0 ADD PUSH1 0x0 SWAP1 SLOAD SWAP1 PUSH2 0x100 EXP SWAP1 DIV PUSH1 0xFF AND SWAP2 POP POP SWAP1 JUMP JUMPDEST PUSH1 0x3 PUSH1 0x20 MSTORE DUP1 PUSH1 0x0 MSTORE PUSH1 0x40 PUSH1 0x0 KECCAK256 PUSH1 0x0 SWAP2 POP SLOAD SWAP1 PUSH2 0x100 EXP SWAP1 DIV PUSH1 0xFF AND DUP2 JUMP JUMPDEST PUSH1 0x1 DUP2 DUP2 SLOAD DUP2 LT PUSH2 0xF8D JUMPI PUSH1 0x0 DUP1 REVERT JUMPDEST SWAP1 PUSH1 0x0 MSTORE PUSH1 0x20 PUSH1 0x0 KECCAK256 ADD PUSH1 0x0 SWAP2 POP SWAP1 POP SLOAD DUP2 JUMP JUMPDEST PUSH2 0xFA9 PUSH2 0x1AA8 JUMP JUMPDEST PUSH2 0xFB3 PUSH1 0x0 PUSH2 0x1C9B JUMP JUMPDEST JUMP JUMPDEST PUSH1 0x0 DUP1 PUSH1 0x0 DUP1 DUP5 DUP2 MSTORE PUSH1 0x20 ADD SWAP1 DUP2 MSTORE PUSH1 0x20 ADD PUSH1 0x0 KECCAK256 SWAP1 POP PUSH3 0x93A80 DUP2 PUSH1 0x4 ADD SLOAD PUSH2 0xFDF SWAP2 SWAP1 PUSH2 0x29E2 JUMP JUMPDEST TIMESTAMP LT ISZERO SWAP2 POP POP SWAP2 SWAP1 POP JUMP JUMPDEST PUSH2 0xFF2 PUSH2 0x1AA8 JUMP JUMPDEST PUSH1 0x0 DUP1 PUSH1 0x0 DUP4 DUP2 MSTORE PUSH1 0x20 ADD SWAP1 DUP2 MSTORE PUSH1 0x20 ADD PUSH1 0x0 KECCAK256 SWAP1 POP PUSH1 0x0 DUP1 SHL DUP2 PUSH1 0x0 ADD SLOAD SUB PUSH2 0x1048 JUMPI PUSH1 0x40 MLOAD PUSH32 0x3D3CEF6A00000000000000000000000000000000000000000000000000000000 DUP2 MSTORE PUSH1 0x4 ADD PUSH1 0x40 MLOAD DUP1 SWAP2 SUB SWAP1 REVERT JUMPDEST DUP1 PUSH1 0x2 ADD PUSH1 0x0 SWAP1 SLOAD SWAP1 PUSH2 0x100 EXP SWAP1 DIV PUSH1 0xFF AND ISZERO PUSH2 0x1091 JUMPI PUSH1 0x40 MLOAD PUSH32 0x9AA0B8BD00000000000000000000000000000000000000000000000000000000 DUP2 MSTORE PUSH1 0x4 ADD PUSH1 0x40 MLOAD DUP1 SWAP2 SUB SWAP1 REVERT JUMPDEST PUSH1 0x1 DUP2 PUSH1 0x2 ADD PUSH1 0x0 PUSH2 0x100 EXP DUP2 SLOAD DUP2 PUSH1 0xFF MUL NOT AND SWAP1 DUP4 ISZERO ISZERO MUL OR SWAP1 SSTORE POP DUP2 PUSH32 0x7FA0AF01D1013CD4A40114E18D6BE90C73E0906187E6BD1F851ACC747E364753 PUSH1 0x40 MLOAD PUSH1 0x40 MLOAD DUP1 SWAP2 SUB SWAP1 LOG2 POP POP JUMP JUMPDEST PUSH1 0x2 PUSH1 0x0 SWAP1 SLOAD SWAP1 PUSH2 0x100 EXP SWAP1 DIV PUSH20 0xFFFFFFFFFFFFFFFFFFFFFFFFFFFFFFFFFFFFFFFF AND DUP2 JUMP JUMPDEST PUSH2 0x110D PUSH2 0x19F7 JUMP JUMPDEST PUSH2 0x1115 PUSH2 0x1A38 JUMP JUMPDEST PUSH1 0x0 DUP1 PUSH1 0x0 DUP5 DUP2 MSTORE PUSH1 0x20 ADD SWAP1 DUP2 MSTORE PUSH1 0x20 ADD PUSH1 0x0 KECCAK256 SWAP1 POP PUSH1 0x0 DUP1 SHL DUP2 PUSH1 0x0 ADD SLOAD SUB PUSH2 0x116B JUMPI PUSH1 0x40 MLOAD PUSH32 0x3D3CEF6A00000000000000000000000000000000000000000000000000000000 DUP2 MSTORE PUSH1 0x4 ADD PUSH1 0x40 MLOAD DUP1 SWAP2 SUB SWAP1 REVERT JUMPDEST DUP1 PUSH1 0x2 ADD PUSH1 0x0 SWAP1 SLOAD SWAP1 PUSH2 0x100 EXP SWAP1 DIV PUSH1 0xFF AND DUP1 PUSH2 0x118D JUMPI POP PUSH2 0x118C DUP4 PUSH2 0xFB5 JUMP JUMPDEST JUMPDEST ISZERO PUSH2 0x11C4 JUMPI PUSH1 0x40 MLOAD PUSH32 0x61C54C4A00000000000000000000000000000000000000000000000000000000 DUP2 MSTORE PUSH1 0x4 ADD PUSH1 0x40 MLOAD DUP1 SWAP2 SUB SWAP1 REVERT JUMPDEST PUSH1 0x0 DUP2 PUSH1 0x7 ADD PUSH1 0x0 DUP5 DUP2 MSTORE PUSH1 0x20 ADD SWAP1 DUP2 MSTORE PUSH1 0x20 ADD PUSH1 0x0 KECCAK256 SLOAD SWAP1 POP PUSH1 0x0 DUP2 SUB PUSH2 0x1218 JUMPI PUSH1 0x40 MLOAD PUSH32 0x59BDD61600000000000000000000000000000000000000000000000000000000 DUP2 MSTORE PUSH1 0x4 ADD PUSH1 0x40 MLOAD DUP1 SWAP2 SUB SWAP1 REVERT JUMPDEST CALLVALUE DUP3 PUSH1 0x3 ADD PUSH1 0x0 DUP3 DUP3 SLOAD PUSH2 0x122C SWAP2 SWAP1 PUSH2 0x29E2 JUMP JUMPDEST SWAP3 POP POP DUP2 SWAP1 SSTORE POP CALLVALUE DUP3 PUSH1 0x5 ADD PUSH1 0x0 DUP6 DUP2 MSTORE PUSH1 0x20 ADD SWAP1 DUP2 MSTORE PUSH1 0x20 ADD PUSH1 0x0 KECCAK256 PUSH1 0x0 DUP3 DUP3 SLOAD PUSH2 0x1258 SWAP2 SWAP1 PUSH2 0x29E2 JUMP JUMPDEST SWAP3 POP POP DUP2 SWAP1 SSTORE POP DUP2 PUSH1 0x8 ADD PUSH1 0x40 MLOAD DUP1 PUSH1 0x80 ADD PUSH1 0x40 MSTORE DUP1 CALLER PUSH20 0xFFFFFFFFFFFFFFFFFFFFFFFFFFFFFFFFFFFFFFFF AND DUP2 MSTORE PUSH1 0x20 ADD CALLVALUE DUP2 MSTORE PUSH1 0x20 ADD DUP6 DUP2 MSTORE PUSH1 0x20 ADD DUP4 DUP2 MSTORE POP SWAP1 DUP1 PUSH1 0x1 DUP2 SLOAD ADD DUP1 DUP3 SSTORE DUP1 SWAP2 POP POP PUSH1 0x1 SWAP1 SUB SWAP1 PUSH1 0x0 MSTORE PUSH1 0x20 PUSH1 0x0 KECCAK256 SWAP1 PUSH1 0x4 MUL ADD PUSH1 0x0 SWAP1 SWAP2 SWAP1 SWAP2 SWAP1 SWAP2 POP PUSH1 0x0 DUP3 ADD MLOAD DUP2 PUSH1 0x0 ADD PUSH1 0x0 PUSH2 0x100 EXP DUP2 SLOAD DUP2 PUSH20 0xFFFFFFFFFFFFFFFFFFFFFFFFFFFFFFFFFFFFFFFF MUL NOT AND SWAP1 DUP4 PUSH20 0xFFFFFFFFFFFFFFFFFFFFFFFFFFFFFFFFFFFFFFFF AND MUL OR SWAP1 SSTORE POP PUSH1 0x20 DUP3 ADD MLOAD DUP2 PUSH1 0x1 ADD SSTORE PUSH1 0x40 DUP3 ADD MLOAD DUP2 PUSH1 0x2 ADD SSTORE PUSH1 0x60 DUP3 ADD MLOAD DUP2 PUSH1 0x3 ADD SSTORE POP POP DUP4 CALLER PUSH20 0xFFFFFFFFFFFFFFFFFFFFFFFFFFFFFFFFFFFFFFFF AND PUSH32 0x5B84398AA8383C056C26357FE69021C31A67FE1C3065D6F6B85DEABC1EB9E1D9 DUP6 CALLVALUE PUSH1 0x40 MLOAD PUSH2 0x1373 SWAP3 SWAP2 SWAP1 PUSH2 0x2A16 JUMP JUMPDEST PUSH1 0x40 MLOAD DUP1 SWAP2 SUB SWAP1 LOG3 POP POP PUSH2 0x1385 PUSH2 0x1A8F JUMP JUMPDEST POP POP JUMP JUMPDEST PUSH2 0x1391 PUSH2 0x19F7 JUMP JUMPDEST PUSH1 0x2 PUSH1 0x0 SWAP1 SLOAD SWAP1 PUSH2 0x100 EXP SWAP1 DIV PUSH20 0xFFFFFFFFFFFFFFFFFFFFFFFFFFFFFFFFFFFFFFFF AND PUSH20 0xFFFFFFFFFFFFFFFFFFFFFFFFFFFFFFFFFFFFFFFF AND CALLER PUSH20 0xFFFFFFFFFFFFFFFFFFFFFFFFFFFFFFFFFFFFFFFF AND EQ PUSH2 0x1418 JUMPI PUSH1 0x40 MLOAD PUSH32 0xD342CBFF00000000000000000000000000000000000000000000000000000000 DUP2 MSTORE PUSH1 0x4 ADD PUSH1 0x40 MLOAD DUP1 SWAP2 SUB SWAP1 REVERT JUMPDEST PUSH1 0x3 PUSH1 0x0 DUP4 DUP2 MSTORE PUSH1 0x20 ADD SWAP1 DUP2 MSTORE PUSH1 0x20 ADD PUSH1 0x0 KECCAK256 PUSH1 0x0 SWAP1 SLOAD SWAP1 PUSH2 0x100 EXP SWAP1 DIV PUSH1 0xFF AND PUSH2 0x146F JUMPI PUSH1 0x40 MLOAD PUSH32 0x139D566400000000000000000000000000000000000000000000000000000000 DUP2 MSTORE PUSH1 0x4 ADD PUSH1 0x40 MLOAD DUP1 SWAP2 SUB SWAP1 REVERT JUMPDEST PUSH1 0x0 DUP1 PUSH1 0x0 DUP5 DUP2 MSTORE PUSH1 0x20 ADD SWAP1 DUP2 MSTORE PUSH1 0x20 ADD PUSH1 0x0 KECCAK256 SWAP1 POP PUSH1 0x0 DUP1 SHL DUP2 PUSH1 0x0 ADD SLOAD SUB PUSH2 0x14C5 JUMPI PUSH1 0x40 MLOAD PUSH32 0x3D3CEF6A00000000000000000000000000000000000000000000000000000000 DUP2 MSTORE PUSH1 0x4 ADD PUSH1 0x40 MLOAD DUP1 SWAP2 SUB SWAP1 REVERT JUMPDEST DUP1 PUSH1 0x2 ADD PUSH1 0x0 SWAP1 SLOAD SWAP1 PUSH2 0x100 EXP SWAP1 DIV PUSH1 0xFF AND ISZERO PUSH2 0x150E JUMPI PUSH1 0x40 MLOAD PUSH32 0x9AA0B8BD00000000000000000000000000000000000000000000000000000000 DUP2 MSTORE PUSH1 0x4 ADD PUSH1 0x40 MLOAD DUP1 SWAP2 SUB SWAP1 REVERT JUMPDEST PUSH2 0x1518 DUP4 DUP4 PUSH2 0x1D72 JUMP JUMPDEST DUP3 PUSH32 0x577B6860EC2AF75814BD1D732A479F5787676F4012AFBC91228827A4B7F2E5A4 PUSH1 0x40 MLOAD PUSH1 0x40 MLOAD DUP1 SWAP2 SUB SWAP1 LOG2 POP POP POP JUMP JUMPDEST PUSH1 0x0 DUP1 PUSH2 0x1555 PUSH2 0x1F5B JUMP JUMPDEST SWAP1 POP DUP1 PUSH1 0x0 ADD PUSH1 0x0 SWAP1 SLOAD SWAP1 PUSH2 0x100 EXP SWAP1 DIV PUSH20 0xFFFFFFFFFFFFFFFFFFFFFFFFFFFFFFFFFFFFFFFF AND SWAP2 POP POP SWAP1 JUMP JUMPDEST PUSH1 0x0 DUP1 PUSH1 0x0 DUP5 DUP2 MSTORE PUSH1 0x20 ADD SWAP1 DUP2 MSTORE PUSH1 0x20 ADD PUSH1 0x0 KECCAK256 PUSH1 0x7 ADD PUSH1 0x0 DUP4 DUP2 MSTORE PUSH1 0x20 ADD SWAP1 DUP2 MSTORE PUSH1 0x20 ADD PUSH1 0x0 KECCAK256 SLOAD SWAP1 POP SWAP3 SWAP2 POP POP JUMP JUMPDEST PUSH1 0x0 DUP1 PUSH1 0x0 DUP4 DUP2 MSTORE PUSH1 0x20 ADD SWAP1 DUP2 MSTORE PUSH1 0x20 ADD PUSH1 0x0 KECCAK256 PUSH1 0x3 ADD SLOAD SWAP1 POP SWAP2 SWAP1 POP JUMP JUMPDEST PUSH2 0x15DA PUSH2 0x1AA8 JUMP JUMPDEST PUSH2 0x15E2 PUSH2 0x19F7 JUMP JUMPDEST PUSH1 0x3 PUSH1 0x0 DUP3 DUP2 MSTORE PUSH1 0x20 ADD SWAP1 DUP2 MSTORE PUSH1 0x20 ADD PUSH1 0x0 KECCAK256 PUSH1 0x0 SWAP1 SLOAD SWAP1 PUSH2 0x100 EXP SWAP1 DIV PUSH1 0xFF AND PUSH2 0x1639 JUMPI PUSH1 0x40 MLOAD PUSH32 0x139D566400000000000000000000000000000000000000000000000000000000 DUP2 MSTORE PUSH1 0x4 ADD PUSH1 0x40 MLOAD DUP1 SWAP2 SUB SWAP1 REVERT JUMPDEST PUSH1 0x0 DUP1 PUSH1 0x0 DUP4 DUP2 MSTORE PUSH1 0x20 ADD SWAP1 DUP2 MSTORE PUSH1 0x20 ADD PUSH1 0x0 KECCAK256 SWAP1 POP PUSH1 0x0 DUP1 SHL DUP2 PUSH1 0x0 ADD SLOAD EQ PUSH2 0x171E JUMPI DUP1 PUSH1 0x2 ADD PUSH1 0x0 SWAP1 SLOAD SWAP1 PUSH2 0x100 EXP SWAP1 DIV PUSH1 0xFF AND ISZERO DUP1 ISZERO PUSH2 0x168D JUMPI POP PUSH3 0x93A80 DUP2 PUSH1 0x4 ADD SLOAD PUSH2 0x168A SWAP2 SWAP1 PUSH2 0x29E2 JUMP JUMPDEST TIMESTAMP LT JUMPDEST ISZERO PUSH2 0x16C4 JUMPI PUSH1 0x40 MLOAD PUSH32 0xDBE95FF500000000000000000000000000000000000000000000000000000000 DUP2 MSTORE PUSH1 0x4 ADD PUSH1 0x40 MLOAD DUP1 SWAP2 SUB SWAP1 REVERT JUMPDEST PUSH1 0x0 DUP1 DUP4 DUP2 MSTORE PUSH1 0x20 ADD SWAP1 DUP2 MSTORE PUSH1 0x20 ADD PUSH1 0x0 KECCAK256 PUSH1 0x0 DUP1 DUP3 ADD PUSH1 0x0 SWAP1 SSTORE PUSH1 0x1 DUP3 ADD PUSH1 0x0 SWAP1 SSTORE PUSH1 0x2 DUP3 ADD PUSH1 0x0 PUSH2 0x100 EXP DUP2 SLOAD SWAP1 PUSH1 0xFF MUL NOT AND SWAP1 SSTORE PUSH1 0x3 DUP3 ADD PUSH1 0x0 SWAP1 SSTORE PUSH1 0x4 DUP3 ADD PUSH1 0x0 SWAP1 SSTORE PUSH1 0x8 DUP3 ADD PUSH1 0x0 PUSH2 0x171B SWAP2 SWAP1 PUSH2 0x2190 JUMP JUMPDEST POP POP JUMPDEST PUSH1 0x0 DUP1 PUSH1 0x0 DUP5 DUP2 MSTORE PUSH1 0x20 ADD SWAP1 DUP2 MSTORE PUSH1 0x20 ADD PUSH1 0x0 KECCAK256 SWAP1 POP DUP3 DUP2 PUSH1 0x0 ADD DUP2 SWAP1 SSTORE POP PUSH1 0x0 DUP2 PUSH1 0x2 ADD PUSH1 0x0 PUSH2 0x100 EXP DUP2 SLOAD DUP2 PUSH1 0xFF MUL NOT AND SWAP1 DUP4 ISZERO ISZERO MUL OR SWAP1 SSTORE POP TIMESTAMP DUP2 PUSH1 0x4 ADD DUP2 SWAP1 SSTORE POP PUSH1 0x0 DUP2 PUSH1 0x3 ADD DUP2 SWAP1 SSTORE POP PUSH1 0x1 DUP4 SWAP1 DUP1 PUSH1 0x1 DUP2 SLOAD ADD DUP1 DUP3 SSTORE DUP1 SWAP2 POP POP PUSH1 0x1 SWAP1 SUB SWAP1 PUSH1 0x0 MSTORE PUSH1 0x20 PUSH1 0x0 KECCAK256 ADD PUSH1 0x0 SWAP1 SWAP2 SWAP1 SWAP2 SWAP1 SWAP2 POP SSTORE DUP3 PUSH32 0x73829305E9F70B89111CF588E6D67F7360300700B6ECAED7130C8021D454B491 PUSH1 0x40 MLOAD PUSH1 0x40 MLOAD DUP1 SWAP2 SUB SWAP1 LOG2 POP POP POP JUMP JUMPDEST PUSH3 0x93A80 DUP2 JUMP JUMPDEST PUSH2 0x17D7 PUSH2 0x1AA8 JUMP JUMPDEST TIMESTAMP PUSH1 0x4 DUP2 SWAP1 SSTORE POP PUSH32 0xAF619DAA033514F6C299197D29548CCD9276A1B55EF717FB80ADF495925DD510 PUSH1 0x4 SLOAD PUSH1 0x40 MLOAD PUSH2 0x180F SWAP2 SWAP1 PUSH2 0x245F JUMP JUMPDEST PUSH1 0x40 MLOAD DUP1 SWAP2 SUB SWAP1 LOG1 JUMP JUMPDEST PUSH1 0x0 DUP1 PUSH1 0x0 DUP5 DUP2 MSTORE PUSH1 0x20 ADD SWAP1 DUP2 MSTORE PUSH1 0x20 ADD PUSH1 0x0 KECCAK256 PUSH1 0x5 ADD PUSH1 0x0 DUP4 DUP2 MSTORE PUSH1 0x20 ADD SWAP1 DUP2 MSTORE PUSH1 0x20 ADD PUSH1 0x0 KECCAK256 SLOAD SWAP1 POP SWAP3 SWAP2 POP POP JUMP JUMPDEST PUSH2 0x1852 PUSH2 0x1AA8 JUMP JUMPDEST PUSH1 0x0 PUSH20 0xFFFFFFFFFFFFFFFFFFFFFFFFFFFFFFFFFFFFFFFF AND DUP2 PUSH20 0xFFFFFFFFFFFFFFFFFFFFFFFFFFFFFFFFFFFFFFFF AND SUB PUSH2 0x18C4 JUMPI PUSH1 0x0 PUSH1 0x40 MLOAD PUSH32 0x1E4FBDF700000000000000000000000000000000000000000000000000000000 DUP2 MSTORE PUSH1 0x4 ADD PUSH2 0x18BB SWAP2 SWAP1 PUSH2 0x285D JUMP JUMPDEST PUSH1 0x40 MLOAD DUP1 SWAP2 SUB SWAP1 REVERT JUMPDEST PUSH2 0x18CD DUP2 PUSH2 0x1C9B JUMP JUMPDEST POP JUMP JUMPDEST PUSH1 0x4 SLOAD DUP2 JUMP JUMPDEST PUSH2 0x18DE PUSH2 0x1AA8 JUMP JUMPDEST PUSH3 0x2A300 PUSH1 0x4 SLOAD PUSH2 0x18EF SWAP2 SWAP1 PUSH2 0x29E2 JUMP JUMPDEST TIMESTAMP LT ISZERO PUSH2 0x1928 JUMPI PUSH1 0x40 MLOAD PUSH32 0xB95063C200000000000000000000000000000000000000000000000000000000 DUP2 MSTORE PUSH1 0x4 ADD PUSH1 0x40 MLOAD DUP1 SWAP2 SUB SWAP1 REVERT JUMPDEST PUSH1 0x0 SELFBALANCE SUB PUSH2 0x1962 JUMPI PUSH1 0x40 MLOAD PUSH32 0x67E3990D00000000000000000000000000000000000000000000000000000000 DUP2 MSTORE PUSH1 0x4 ADD PUSH1 0x40 MLOAD DUP1 SWAP2 SUB SWAP1 REVERT JUMPDEST PUSH1 0x0 SELFBALANCE SWAP1 POP PUSH2 0x196F PUSH2 0x154A JUMP JUMPDEST PUSH20 0xFFFFFFFFFFFFFFFFFFFFFFFFFFFFFFFFFFFFFFFF AND PUSH2 0x8FC DUP3 SWAP1 DUP2 ISZERO MUL SWAP1 PUSH1 0x40 MLOAD PUSH1 0x0 PUSH1 0x40 MLOAD DUP1 DUP4 SUB DUP2 DUP6 DUP9 DUP9 CALL SWAP4 POP POP POP POP ISZERO DUP1 ISZERO PUSH2 0x19B4 JUMPI RETURNDATASIZE PUSH1 0x0 DUP1 RETURNDATACOPY RETURNDATASIZE PUSH1 0x0 REVERT JUMPDEST POP PUSH1 0x0 PUSH1 0x4 DUP2 SWAP1 SSTORE POP PUSH32 0xEAA620B5C98328F5DDB4195C31EADB3E30E7915FCBC9CC1C244441984780C0D2 DUP2 PUSH1 0x40 MLOAD PUSH2 0x19EC SWAP2 SWAP1 PUSH2 0x245F JUMP JUMPDEST PUSH1 0x40 MLOAD DUP1 SWAP2 SUB SWAP1 LOG1 POP JUMP JUMPDEST PUSH2 0x19FF PUSH2 0xF38 JUMP JUMPDEST ISZERO PUSH2 0x1A36 JUMPI PUSH1 0x40 MLOAD PUSH32 0xD93C066500000000000000000000000000000000000000000000000000000000 DUP2 MSTORE PUSH1 0x4 ADD PUSH1 0x40 MLOAD DUP1 SWAP2 SUB SWAP1 REVERT JUMPDEST JUMP JUMPDEST PUSH1 0x0 PUSH2 0x1A42 PUSH2 0x1F83 JUMP JUMPDEST SWAP1 POP PUSH1 0x2 DUP2 PUSH1 0x0 ADD SLOAD SUB PUSH2 0x1A82 JUMPI PUSH1 0x40 MLOAD PUSH32 0x3EE5AEB500000000000000000000000000000000000000000000000000000000 DUP2 MSTORE PUSH1 0x4 ADD PUSH1 0x40 MLOAD DUP1 SWAP2 SUB SWAP1 REVERT JUMPDEST PUSH1 0x2 DUP2 PUSH1 0x0 ADD DUP2 SWAP1 SSTORE POP POP JUMP JUMPDEST PUSH1 0x0 PUSH2 0x1A99 PUSH2 0x1F83 JUMP JUMPDEST SWAP1 POP PUSH1 0x1 DUP2 PUSH1 0x0 ADD DUP2 SWAP1 SSTORE POP POP JUMP JUMPDEST PUSH2 0x1AB0 PUSH2 0x1FAB JUMP JUMPDEST PUSH20 0xFFFFFFFFFFFFFFFFFFFFFFFFFFFFFFFFFFFFFFFF AND PUSH2 0x1ACE PUSH2 0x154A JUMP JUMPDEST PUSH20 0xFFFFFFFFFFFFFFFFFFFFFFFFFFFFFFFFFFFFFFFF AND EQ PUSH2 0x1B2D JUMPI PUSH2 0x1AF1 PUSH2 0x1FAB JUMP JUMPDEST PUSH1 0x40 MLOAD PUSH32 0x118CDAA700000000000000000000000000000000000000000000000000000000 DUP2 MSTORE PUSH1 0x4 ADD PUSH2 0x1B24 SWAP2 SWAP1 PUSH2 0x285D JUMP JUMPDEST PUSH1 0x40 MLOAD DUP1 SWAP2 SUB SWAP1 REVERT JUMPDEST JUMP JUMPDEST PUSH2 0x1B37 PUSH2 0x1FB3 JUMP JUMPDEST PUSH1 0x0 PUSH2 0x1B41 PUSH2 0x1C73 JUMP JUMPDEST SWAP1 POP PUSH1 0x0 DUP2 PUSH1 0x0 ADD PUSH1 0x0 PUSH2 0x100 EXP DUP2 SLOAD DUP2 PUSH1 0xFF MUL NOT AND SWAP1 DUP4 ISZERO ISZERO MUL OR SWAP1 SSTORE POP PUSH32 0x5DB9EE0A495BF2E6FF9C91A7834C1BA4FDD244A5E8AA4E537BD38AEAE4B073AA PUSH2 0x1B89 PUSH2 0x1FAB JUMP JUMPDEST PUSH1 0x40 MLOAD PUSH2 0x1B96 SWAP2 SWAP1 PUSH2 0x285D JUMP JUMPDEST PUSH1 0x40 MLOAD DUP1 SWAP2 SUB SWAP1 LOG1 POP JUMP JUMPDEST PUSH2 0x1BA9 PUSH2 0x19F7 JUMP JUMPDEST PUSH1 0x0 PUSH2 0x1BB3 PUSH2 0x1C73 JUMP JUMPDEST SWAP1 POP PUSH1 0x1 DUP2 PUSH1 0x0 ADD PUSH1 0x0 PUSH2 0x100 EXP DUP2 SLOAD DUP2 PUSH1 0xFF MUL NOT AND SWAP1 DUP4 ISZERO ISZERO MUL OR SWAP1 SSTORE POP PUSH32 0x62E78CEA01BEE320CD4E420270B5EA74000D11B0C9F74754EBDBFC544B05A258 PUSH2 0x1BFB PUSH2 0x1FAB JUMP JUMPDEST PUSH1 0x40 MLOAD PUSH2 0x1C08 SWAP2 SWAP1 PUSH2 0x285D JUMP JUMPDEST PUSH1 0x40 MLOAD DUP1 SWAP2 SUB SWAP1 LOG1 POP JUMP JUMPDEST PUSH1 0x0 PUSH32 0xF0C57E16840DF040F15088DC2F81FE391C3923BEC73E23A9662EFC9C229C6A00 SWAP1 POP SWAP1 JUMP JUMPDEST PUSH2 0x1C43 PUSH2 0x1FF3 JUMP JUMPDEST PUSH2 0x1C4C DUP2 PUSH2 0x2033 JUMP JUMPDEST POP JUMP JUMPDEST PUSH2 0x1C57 PUSH2 0x1FF3 JUMP JUMPDEST PUSH2 0x1C5F PUSH2 0x20B9 JUMP JUMPDEST JUMP JUMPDEST PUSH2 0x1C69 PUSH2 0x1FF3 JUMP JUMPDEST PUSH2 0x1C71 PUSH2 0x20ED JUMP JUMPDEST JUMP JUMPDEST PUSH1 0x0 PUSH32 0xCD5ED15C6E187E77E9AEE88184C21F4F2182AB5827CB3B7E07FBEDCD63F03300 SWAP1 POP SWAP1 JUMP JUMPDEST PUSH1 0x0 PUSH2 0x1CA5 PUSH2 0x1F5B JUMP JUMPDEST SWAP1 POP PUSH1 0x0 DUP2 PUSH1 0x0 ADD PUSH1 0x0 SWAP1 SLOAD SWAP1 PUSH2 0x100 EXP SWAP1 DIV PUSH20 0xFFFFFFFFFFFFFFFFFFFFFFFFFFFFFFFFFFFFFFFF AND SWAP1 POP DUP3 DUP3 PUSH1 0x0 ADD PUSH1 0x0 PUSH2 0x100 EXP DUP2 SLOAD DUP2 PUSH20 0xFFFFFFFFFFFFFFFFFFFFFFFFFFFFFFFFFFFFFFFF MUL NOT AND SWAP1 DUP4 PUSH20 0xFFFFFFFFFFFFFFFFFFFFFFFFFFFFFFFFFFFFFFFF AND MUL OR SWAP1 SSTORE POP DUP3 PUSH20 0xFFFFFFFFFFFFFFFFFFFFFFFFFFFFFFFFFFFFFFFF AND DUP2 PUSH20 0xFFFFFFFFFFFFFFFFFFFFFFFFFFFFFFFFFFFFFFFF AND PUSH32 0x8BE0079C531659141344CD1FD0A4F28419497F9722A3DAAFE3B4186F6B6457E0 PUSH1 0x40 MLOAD PUSH1 0x40 MLOAD DUP1 SWAP2 SUB SWAP1 LOG3 POP POP POP JUMP JUMPDEST PUSH1 0x0 DUP1 PUSH1 0x0 DUP5 DUP2 MSTORE PUSH1 0x20 ADD SWAP1 DUP2 MSTORE PUSH1 0x20 ADD PUSH1 0x0 KECCAK256 SWAP1 POP PUSH1 0x0 DUP2 PUSH1 0x6 ADD SWAP1 POP PUSH1 0x0 JUMPDEST DUP4 MLOAD DUP2 LT ISZERO PUSH2 0x1E17 JUMPI PUSH1 0x0 DUP5 DUP3 DUP2 MLOAD DUP2 LT PUSH2 0x1DB1 JUMPI PUSH2 0x1DB0 PUSH2 0x2878 JUMP JUMPDEST JUMPDEST PUSH1 0x20 MUL PUSH1 0x20 ADD ADD MLOAD SWAP1 POP PUSH1 0x0 DUP5 PUSH1 0x6 ADD PUSH1 0x0 DUP4 DUP2 MSTORE PUSH1 0x20 ADD SWAP1 DUP2 MSTORE PUSH1 0x20 ADD PUSH1 0x0 KECCAK256 DUP2 SWAP1 SSTORE POP PUSH1 0x0 DUP5 PUSH1 0x7 ADD PUSH1 0x0 DUP4 DUP2 MSTORE PUSH1 0x20 ADD SWAP1 DUP2 MSTORE PUSH1 0x20 ADD PUSH1 0x0 KECCAK256 DUP2 SWAP1 SSTORE POP PUSH1 0x0 DUP4 PUSH1 0x0 DUP4 DUP2 MSTORE PUSH1 0x20 ADD SWAP1 DUP2 MSTORE PUSH1 0x20 ADD PUSH1 0x0 KECCAK256 DUP2 SWAP1 SSTORE POP POP DUP1 DUP1 PUSH1 0x1 ADD SWAP2 POP POP PUSH2 0x1D93 JUMP JUMPDEST POP PUSH1 0x0 JUMPDEST DUP4 MLOAD DUP2 LT ISZERO PUSH2 0x1E79 JUMPI PUSH1 0x0 DUP5 DUP3 DUP2 MLOAD DUP2 LT PUSH2 0x1E39 JUMPI PUSH2 0x1E38 PUSH2 0x2878 JUMP JUMPDEST JUMPDEST PUSH1 0x20 MUL PUSH1 0x20 ADD ADD MLOAD SWAP1 POP DUP3 PUSH1 0x0 DUP3 DUP2 MSTORE PUSH1 0x20 ADD SWAP1 DUP2 MSTORE PUSH1 0x20 ADD PUSH1 0x0 KECCAK256 PUSH1 0x0 DUP2 SLOAD DUP1 SWAP3 SWAP2 SWAP1 PUSH2 0x1E66 SWAP1 PUSH2 0x2A3F JUMP JUMPDEST SWAP2 SWAP1 POP SSTORE POP POP DUP1 DUP1 PUSH1 0x1 ADD SWAP2 POP POP PUSH2 0x1E1B JUMP JUMPDEST POP PUSH1 0x0 JUMPDEST DUP4 MLOAD DUP2 LT ISZERO PUSH2 0x1F54 JUMPI PUSH1 0x0 DUP5 DUP3 DUP2 MLOAD DUP2 LT PUSH2 0x1E9B JUMPI PUSH2 0x1E9A PUSH2 0x2878 JUMP JUMPDEST JUMPDEST PUSH1 0x20 MUL PUSH1 0x20 ADD ADD MLOAD SWAP1 POP PUSH1 0x0 PUSH1 0x1 DUP4 PUSH2 0x1EB4 SWAP2 SWAP1 PUSH2 0x29E2 JUMP JUMPDEST SWAP1 POP DUP1 DUP6 PUSH1 0x6 ADD PUSH1 0x0 DUP5 DUP2 MSTORE PUSH1 0x20 ADD SWAP1 DUP2 MSTORE PUSH1 0x20 ADD PUSH1 0x0 KECCAK256 DUP2 SWAP1 SSTORE POP PUSH1 0x0 PUSH2 0x1EEE DUP3 DUP7 PUSH1 0x0 DUP7 DUP2 MSTORE PUSH1 0x20 ADD SWAP1 DUP2 MSTORE PUSH1 0x20 ADD PUSH1 0x0 KECCAK256 SLOAD PUSH2 0x210E JUMP JUMPDEST SWAP1 POP DUP1 DUP7 PUSH1 0x7 ADD PUSH1 0x0 DUP6 DUP2 MSTORE PUSH1 0x20 ADD SWAP1 DUP2 MSTORE PUSH1 0x20 ADD PUSH1 0x0 KECCAK256 DUP2 SWAP1 SSTORE POP DUP8 PUSH32 0xE702918564D36A4C4DA3B202516E441B40204ADEB97D8E49C6D2A7B27EE533E8 DUP5 DUP4 PUSH1 0x40 MLOAD PUSH2 0x1F3C SWAP3 SWAP2 SWAP1 PUSH2 0x2A16 JUMP JUMPDEST PUSH1 0x40 MLOAD DUP1 SWAP2 SUB SWAP1 LOG2 POP POP POP DUP1 DUP1 PUSH1 0x1 ADD SWAP2 POP POP PUSH2 0x1E7D JUMP JUMPDEST POP POP POP POP POP JUMP JUMPDEST PUSH1 0x0 PUSH32 0x9016D09D72D40FDAE2FD8CEAC6B6234C7706214FD39C1CD1E609A0528C199300 SWAP1 POP SWAP1 JUMP JUMPDEST PUSH1 0x0 PUSH32 0x9B779B17422D0DF92223018B32B4D1FA46E071723D6817E2486D003BECC55F00 SWAP1 POP SWAP1 JUMP JUMPDEST PUSH1 0x0 CALLER SWAP1 POP SWAP1 JUMP JUMPDEST PUSH2 0x1FBB PUSH2 0xF38 JUMP JUMPDEST PUSH2 0x1FF1 JUMPI PUSH1 0x40 MLOAD PUSH32 0x8DFC202B00000000000000000000000000000000000000000000000000000000 DUP2 MSTORE PUSH1 0x4 ADD PUSH1 0x40 MLOAD DUP1 SWAP2 SUB SWAP1 REVERT JUMPDEST JUMP JUMPDEST PUSH2 0x1FFB PUSH2 0x2170 JUMP JUMPDEST PUSH2 0x2031 JUMPI PUSH1 0x40 MLOAD PUSH32 0xD7E6BCF800000000000000000000000000000000000000000000000000000000 DUP2 MSTORE PUSH1 0x4 ADD PUSH1 0x40 MLOAD DUP1 SWAP2 SUB SWAP1 REVERT JUMPDEST JUMP JUMPDEST PUSH2 0x203B PUSH2 0x1FF3 JUMP JUMPDEST PUSH1 0x0 PUSH20 0xFFFFFFFFFFFFFFFFFFFFFFFFFFFFFFFFFFFFFFFF AND DUP2 PUSH20 0xFFFFFFFFFFFFFFFFFFFFFFFFFFFFFFFFFFFFFFFF AND SUB PUSH2 0x20AD JUMPI PUSH1 0x0 PUSH1 0x40 MLOAD PUSH32 0x1E4FBDF700000000000000000000000000000000000000000000000000000000 DUP2 MSTORE PUSH1 0x4 ADD PUSH2 0x20A4 SWAP2 SWAP1 PUSH2 0x285D JUMP JUMPDEST PUSH1 0x40 MLOAD DUP1 SWAP2 SUB SWAP1 REVERT JUMPDEST PUSH2 0x20B6 DUP2 PUSH2 0x1C9B JUMP JUMPDEST POP JUMP JUMPDEST PUSH2 0x20C1 PUSH2 0x1FF3 JUMP JUMPDEST PUSH1 0x0 PUSH2 0x20CB PUSH2 0x1C73 JUMP JUMPDEST SWAP1 POP PUSH1 0x0 DUP2 PUSH1 0x0 ADD PUSH1 0x0 PUSH2 0x100 EXP DUP2 SLOAD DUP2 PUSH1 0xFF MUL NOT AND SWAP1 DUP4 ISZERO ISZERO MUL OR SWAP1 SSTORE POP POP JUMP JUMPDEST PUSH2 0x20F5 PUSH2 0x1FF3 JUMP JUMPDEST PUSH1 0x0 PUSH2 0x20FF PUSH2 0x1F83 JUMP JUMPDEST SWAP1 POP PUSH1 0x1 DUP2 PUSH1 0x0 ADD DUP2 SWAP1 SSTORE POP POP JUMP JUMPDEST PUSH1 0x0 DUP1 PUSH1 0x2 PUSH1 0x1 DUP5 DUP7 PUSH2 0x2121 SWAP2 SWAP1 PUSH2 0x29E2 JUMP JUMPDEST PUSH2 0x212B SWAP2 SWAP1 PUSH2 0x2A87 JUMP JUMPDEST DUP6 PUSH2 0x2136 SWAP2 SWAP1 PUSH2 0x29E2 JUMP JUMPDEST PUSH2 0x2140 SWAP2 SWAP1 PUSH2 0x2947 JUMP JUMPDEST SWAP1 POP PUSH1 0x14 PUSH1 0x1 DUP3 PUSH2 0x2151 SWAP2 SWAP1 PUSH2 0x2A87 JUMP JUMPDEST PUSH2 0x215B SWAP2 SWAP1 PUSH2 0x28D6 JUMP JUMPDEST PUSH1 0x78 PUSH2 0x2167 SWAP2 SWAP1 PUSH2 0x29E2 JUMP JUMPDEST SWAP2 POP POP SWAP3 SWAP2 POP POP JUMP JUMPDEST PUSH1 0x0 PUSH2 0x217A PUSH2 0x1C13 JUMP JUMPDEST PUSH1 0x0 ADD PUSH1 0x8 SWAP1 SLOAD SWAP1 PUSH2 0x100 EXP SWAP1 DIV PUSH1 0xFF AND SWAP1 POP SWAP1 JUMP JUMPDEST POP DUP1 SLOAD PUSH1 0x0 DUP3 SSTORE PUSH1 0x4 MUL SWAP1 PUSH1 0x0 MSTORE PUSH1 0x20 PUSH1 0x0 KECCAK256 SWAP1 DUP2 ADD SWAP1 PUSH2 0x21B1 SWAP2 SWAP1 PUSH2 0x21B4 JUMP JUMPDEST POP JUMP JUMPDEST JUMPDEST DUP1 DUP3 GT ISZERO PUSH2 0x2206 JUMPI PUSH1 0x0 DUP1 DUP3 ADD PUSH1 0x0 PUSH2 0x100 EXP DUP2 SLOAD SWAP1 PUSH20 0xFFFFFFFFFFFFFFFFFFFFFFFFFFFFFFFFFFFFFFFF MUL NOT AND SWAP1 SSTORE PUSH1 0x1 DUP3 ADD PUSH1 0x0 SWAP1 SSTORE PUSH1 0x2 DUP3 ADD PUSH1 0x0 SWAP1 SSTORE PUSH1 0x3 DUP3 ADD PUSH1 0x0 SWAP1 SSTORE POP PUSH1 0x4 ADD PUSH2 0x21B5 JUMP JUMPDEST POP SWAP1 JUMP JUMPDEST PUSH1 0x0 PUSH1 0x40 MLOAD SWAP1 POP SWAP1 JUMP JUMPDEST PUSH1 0x0 DUP1 REVERT JUMPDEST PUSH1 0x0 DUP1 REVERT JUMPDEST PUSH1 0x0 DUP2 SWAP1 POP SWAP2 SWAP1 POP JUMP JUMPDEST PUSH2 0x2231 DUP2 PUSH2 0x221E JUMP JUMPDEST DUP2 EQ PUSH2 0x223C JUMPI PUSH1 0x0 DUP1 REVERT JUMPDEST POP JUMP JUMPDEST PUSH1 0x0 DUP2 CALLDATALOAD SWAP1 POP PUSH2 0x224E DUP2 PUSH2 0x2228 JUMP JUMPDEST SWAP3 SWAP2 POP POP JUMP JUMPDEST PUSH1 0x0 PUSH1 0x20 DUP3 DUP5 SUB SLT ISZERO PUSH2 0x226A JUMPI PUSH2 0x2269 PUSH2 0x2214 JUMP JUMPDEST JUMPDEST PUSH1 0x0 PUSH2 0x2278 DUP5 DUP3 DUP6 ADD PUSH2 0x223F JUMP JUMPDEST SWAP2 POP POP SWAP3 SWAP2 POP POP JUMP JUMPDEST PUSH1 0x0 DUP2 MLOAD SWAP1 POP SWAP2 SWAP1 POP JUMP JUMPDEST PUSH1 0x0 DUP3 DUP3 MSTORE PUSH1 0x20 DUP3 ADD SWAP1 POP SWAP3 SWAP2 POP POP JUMP JUMPDEST PUSH1 0x0 DUP2 SWAP1 POP PUSH1 0x20 DUP3 ADD SWAP1 POP SWAP2 SWAP1 POP JUMP JUMPDEST PUSH1 0x0 PUSH20 0xFFFFFFFFFFFFFFFFFFFFFFFFFFFFFFFFFFFFFFFF DUP3 AND SWAP1 POP SWAP2 SWAP1 POP JUMP JUMPDEST PUSH1 0x0 PUSH2 0x22D8 DUP3 PUSH2 0x22AD JUMP JUMPDEST SWAP1 POP SWAP2 SWAP1 POP JUMP JUMPDEST PUSH2 0x22E8 DUP2 PUSH2 0x22CD JUMP JUMPDEST DUP3 MSTORE POP POP JUMP JUMPDEST PUSH1 0x0 DUP2 SWAP1 POP SWAP2 SWAP1 POP JUMP JUMPDEST PUSH2 0x2301 DUP2 PUSH2 0x22EE JUMP JUMPDEST DUP3 MSTORE POP POP JUMP JUMPDEST PUSH2 0x2310 DUP2 PUSH2 0x221E JUMP JUMPDEST DUP3 MSTORE POP POP JUMP JUMPDEST PUSH1 0x80 DUP3 ADD PUSH1 0x0 DUP3 ADD MLOAD PUSH2 0x232C PUSH1 0x0 DUP6 ADD DUP3 PUSH2 0x22DF JUMP JUMPDEST POP PUSH1 0x20 DUP3 ADD MLOAD PUSH2 0x233F PUSH1 0x20 DUP6 ADD DUP3 PUSH2 0x22F8 JUMP JUMPDEST POP PUSH1 0x40 DUP3 ADD MLOAD PUSH2 0x2352 PUSH1 0x40 DUP6 ADD DUP3 PUSH2 0x2307 JUMP JUMPDEST POP PUSH1 0x60 DUP3 ADD MLOAD PUSH2 0x2365 PUSH1 0x60 DUP6 ADD DUP3 PUSH2 0x22F8 JUMP JUMPDEST POP POP POP POP JUMP JUMPDEST PUSH1 0x0 PUSH2 0x2377 DUP4 DUP4 PUSH2 0x2316 JUMP JUMPDEST PUSH1 0x80 DUP4 ADD SWAP1 POP SWAP3 SWAP2 POP POP JUMP JUMPDEST PUSH1 0x0 PUSH1 0x20 DUP3 ADD SWAP1 POP SWAP2 SWAP1 POP JUMP JUMPDEST PUSH1 0x0 PUSH2 0x239B DUP3 PUSH2 0x2281 JUMP JUMPDEST PUSH2 0x23A5 DUP2 DUP6 PUSH2 0x228C JUMP JUMPDEST SWAP4 POP PUSH2 0x23B0 DUP4 PUSH2 0x229D JUMP JUMPDEST DUP1 PUSH1 0x0 JUMPDEST DUP4 DUP2 LT ISZERO PUSH2 0x23E1 JUMPI DUP2 MLOAD PUSH2 0x23C8 DUP9 DUP3 PUSH2 0x236B JUMP JUMPDEST SWAP8 POP PUSH2 0x23D3 DUP4 PUSH2 0x2383 JUMP JUMPDEST SWAP3 POP POP PUSH1 0x1 DUP2 ADD SWAP1 POP PUSH2 0x23B4 JUMP JUMPDEST POP DUP6 SWAP4 POP POP POP POP SWAP3 SWAP2 POP POP JUMP JUMPDEST PUSH1 0x0 PUSH1 0x20 DUP3 ADD SWAP1 POP DUP2 DUP2 SUB PUSH1 0x0 DUP4 ADD MSTORE PUSH2 0x2408 DUP2 DUP5 PUSH2 0x2390 JUMP JUMPDEST SWAP1 POP SWAP3 SWAP2 POP POP JUMP JUMPDEST PUSH1 0x0 DUP1 PUSH1 0x40 DUP4 DUP6 SUB SLT ISZERO PUSH2 0x2427 JUMPI PUSH2 0x2426 PUSH2 0x2214 JUMP JUMPDEST JUMPDEST PUSH1 0x0 PUSH2 0x2435 DUP6 DUP3 DUP7 ADD PUSH2 0x223F JUMP JUMPDEST SWAP3 POP POP PUSH1 0x20 PUSH2 0x2446 DUP6 DUP3 DUP7 ADD PUSH2 0x223F JUMP JUMPDEST SWAP2 POP POP SWAP3 POP SWAP3 SWAP1 POP JUMP JUMPDEST PUSH2 0x2459 DUP2 PUSH2 0x22EE JUMP JUMPDEST DUP3 MSTORE POP POP JUMP JUMPDEST PUSH1 0x0 PUSH1 0x20 DUP3 ADD SWAP1 POP PUSH2 0x2474 PUSH1 0x0 DUP4 ADD DUP5 PUSH2 0x2450 JUMP JUMPDEST SWAP3 SWAP2 POP POP JUMP JUMPDEST PUSH2 0x2483 DUP2 PUSH2 0x22CD JUMP JUMPDEST DUP2 EQ PUSH2 0x248E JUMPI PUSH1 0x0 DUP1 REVERT JUMPDEST POP JUMP JUMPDEST PUSH1 0x0 DUP2 CALLDATALOAD SWAP1 POP PUSH2 0x24A0 DUP2 PUSH2 0x247A JUMP JUMPDEST SWAP3 SWAP2 POP POP JUMP JUMPDEST PUSH1 0x0 PUSH1 0x20 DUP3 DUP5 SUB SLT ISZERO PUSH2 0x24BC JUMPI PUSH2 0x24BB PUSH2 0x2214 JUMP JUMPDEST JUMPDEST PUSH1 0x0 PUSH2 0x24CA DUP5 DUP3 DUP6 ADD PUSH2 0x2491 JUMP JUMPDEST SWAP2 POP POP SWAP3 SWAP2 POP POP JUMP JUMPDEST PUSH1 0x0 DUP1 PUSH1 0x40 DUP4 DUP6 SUB SLT ISZERO PUSH2 0x24EA JUMPI PUSH2 0x24E9 PUSH2 0x2214 JUMP JUMPDEST JUMPDEST PUSH1 0x0 PUSH2 0x24F8 DUP6 DUP3 DUP7 ADD PUSH2 0x2491 JUMP JUMPDEST SWAP3 POP POP PUSH1 0x20 PUSH2 0x2509 DUP6 DUP3 DUP7 ADD PUSH2 0x2491 JUMP JUMPDEST SWAP2 POP POP SWAP3 POP SWAP3 SWAP1 POP JUMP JUMPDEST PUSH2 0x251C DUP2 PUSH2 0x221E JUMP JUMPDEST DUP3 MSTORE POP POP JUMP JUMPDEST PUSH1 0x0 DUP2 ISZERO ISZERO SWAP1 POP SWAP2 SWAP1 POP JUMP JUMPDEST PUSH2 0x2537 DUP2 PUSH2 0x2522 JUMP JUMPDEST DUP3 MSTORE POP POP JUMP JUMPDEST PUSH1 0x0 PUSH1 0xA0 DUP3 ADD SWAP1 POP PUSH2 0x2552 PUSH1 0x0 DUP4 ADD DUP9 PUSH2 0x2513 JUMP JUMPDEST PUSH2 0x255F PUSH1 0x20 DUP4 ADD DUP8 PUSH2 0x2513 JUMP JUMPDEST PUSH2 0x256C PUSH1 0x40 DUP4 ADD DUP7 PUSH2 0x252E JUMP JUMPDEST PUSH2 0x2579 PUSH1 0x60 DUP4 ADD DUP6 PUSH2 0x2450 JUMP JUMPDEST PUSH2 0x2586 PUSH1 0x80 DUP4 ADD DUP5 PUSH2 0x2450 JUMP JUMPDEST SWAP7 SWAP6 POP POP POP POP POP POP JUMP JUMPDEST PUSH1 0x0 PUSH1 0x20 DUP3 ADD SWAP1 POP PUSH2 0x25A5 PUSH1 0x0 DUP4 ADD DUP5 PUSH2 0x252E JUMP JUMPDEST SWAP3 SWAP2 POP POP JUMP JUMPDEST PUSH2 0x25B4 DUP2 PUSH2 0x22EE JUMP JUMPDEST DUP2 EQ PUSH2 0x25BF JUMPI PUSH1 0x0 DUP1 REVERT JUMPDEST POP JUMP JUMPDEST PUSH1 0x0 DUP2 CALLDATALOAD SWAP1 POP PUSH2 0x25D1 DUP2 PUSH2 0x25AB JUMP JUMPDEST SWAP3 SWAP2 POP POP JUMP JUMPDEST PUSH1 0x0 PUSH1 0x20 DUP3 DUP5 SUB SLT ISZERO PUSH2 0x25ED JUMPI PUSH2 0x25EC PUSH2 0x2214 JUMP JUMPDEST JUMPDEST PUSH1 0x0 PUSH2 0x25FB DUP5 DUP3 DUP6 ADD PUSH2 0x25C2 JUMP JUMPDEST SWAP2 POP POP SWAP3 SWAP2 POP POP JUMP JUMPDEST PUSH1 0x0 PUSH1 0x20 DUP3 ADD SWAP1 POP PUSH2 0x2619 PUSH1 0x0 DUP4 ADD DUP5 PUSH2 0x2513 JUMP JUMPDEST SWAP3 SWAP2 POP POP JUMP JUMPDEST PUSH1 0x0 DUP2 SWAP1 POP SWAP2 SWAP1 POP JUMP JUMPDEST PUSH1 0x0 PUSH2 0x2644 PUSH2 0x263F PUSH2 0x263A DUP5 PUSH2 0x22AD JUMP JUMPDEST PUSH2 0x261F JUMP JUMPDEST PUSH2 0x22AD JUMP JUMPDEST SWAP1 POP SWAP2 SWAP1 POP JUMP JUMPDEST PUSH1 0x0 PUSH2 0x2656 DUP3 PUSH2 0x2629 JUMP JUMPDEST SWAP1 POP SWAP2 SWAP1 POP JUMP JUMPDEST PUSH1 0x0 PUSH2 0x2668 DUP3 PUSH2 0x264B JUMP JUMPDEST SWAP1 POP SWAP2 SWAP1 POP JUMP JUMPDEST PUSH2 0x2678 DUP2 PUSH2 0x265D JUMP JUMPDEST DUP3 MSTORE POP POP JUMP JUMPDEST PUSH1 0x0 PUSH1 0x20 DUP3 ADD SWAP1 POP PUSH2 0x2693 PUSH1 0x0 DUP4 ADD DUP5 PUSH2 0x266F JUMP JUMPDEST SWAP3 SWAP2 POP POP JUMP JUMPDEST PUSH1 0x0 DUP1 REVERT JUMPDEST PUSH1 0x0 PUSH1 0x1F NOT PUSH1 0x1F DUP4 ADD AND SWAP1 POP SWAP2 SWAP1 POP JUMP JUMPDEST PUSH32 0x4E487B7100000000000000000000000000000000000000000000000000000000 PUSH1 0x0 MSTORE PUSH1 0x41 PUSH1 0x4 MSTORE PUSH1 0x24 PUSH1 0x0 REVERT JUMPDEST PUSH2 0x26E7 DUP3 PUSH2 0x269E JUMP JUMPDEST DUP2 ADD DUP2 DUP2 LT PUSH8 0xFFFFFFFFFFFFFFFF DUP3 GT OR ISZERO PUSH2 0x2706 JUMPI PUSH2 0x2705 PUSH2 0x26AF JUMP JUMPDEST JUMPDEST DUP1 PUSH1 0x40 MSTORE POP POP POP JUMP JUMPDEST PUSH1 0x0 PUSH2 0x2719 PUSH2 0x220A JUMP JUMPDEST SWAP1 POP PUSH2 0x2725 DUP3 DUP3 PUSH2 0x26DE JUMP JUMPDEST SWAP2 SWAP1 POP JUMP JUMPDEST PUSH1 0x0 PUSH8 0xFFFFFFFFFFFFFFFF DUP3 GT ISZERO PUSH2 0x2745 JUMPI PUSH2 0x2744 PUSH2 0x26AF JUMP JUMPDEST JUMPDEST PUSH1 0x20 DUP3 MUL SWAP1 POP PUSH1 0x20 DUP2 ADD SWAP1 POP SWAP2 SWAP1 POP JUMP JUMPDEST PUSH1 0x0 DUP1 REVERT JUMPDEST PUSH1 0x0 PUSH2 0x276E PUSH2 0x2769 DUP5 PUSH2 0x272A JUMP JUMPDEST PUSH2 0x270F JUMP JUMPDEST SWAP1 POP DUP1 DUP4 DUP3 MSTORE PUSH1 0x20 DUP3 ADD SWAP1 POP PUSH1 0x20 DUP5 MUL DUP4 ADD DUP6 DUP2 GT ISZERO PUSH2 0x2791 JUMPI PUSH2 0x2790 PUSH2 0x2756 JUMP JUMPDEST JUMPDEST DUP4 JUMPDEST DUP2 DUP2 LT ISZERO PUSH2 0x27BA JUMPI DUP1 PUSH2 0x27A6 DUP9 DUP3 PUSH2 0x223F JUMP JUMPDEST DUP5 MSTORE PUSH1 0x20 DUP5 ADD SWAP4 POP POP PUSH1 0x20 DUP2 ADD SWAP1 POP PUSH2 0x2793 JUMP JUMPDEST POP POP POP SWAP4 SWAP3 POP POP POP JUMP JUMPDEST PUSH1 0x0 DUP3 PUSH1 0x1F DUP4 ADD SLT PUSH2 0x27D9 JUMPI PUSH2 0x27D8 PUSH2 0x2699 JUMP JUMPDEST JUMPDEST DUP2 CALLDATALOAD PUSH2 0x27E9 DUP5 DUP3 PUSH1 0x20 DUP7 ADD PUSH2 0x275B JUMP JUMPDEST SWAP2 POP POP SWAP3 SWAP2 POP POP JUMP JUMPDEST PUSH1 0x0 DUP1 PUSH1 0x40 DUP4 DUP6 SUB SLT ISZERO PUSH2 0x2809 JUMPI PUSH2 0x2808 PUSH2 0x2214 JUMP JUMPDEST JUMPDEST PUSH1 0x0 PUSH2 0x2817 DUP6 DUP3 DUP7 ADD PUSH2 0x223F JUMP JUMPDEST SWAP3 POP POP PUSH1 0x20 DUP4 ADD CALLDATALOAD PUSH8 0xFFFFFFFFFFFFFFFF DUP2 GT ISZERO PUSH2 0x2838 JUMPI PUSH2 0x2837 PUSH2 0x2219 JUMP JUMPDEST JUMPDEST PUSH2 0x2844 DUP6 DUP3 DUP7 ADD PUSH2 0x27C4 JUMP JUMPDEST SWAP2 POP POP SWAP3 POP SWAP3 SWAP1 POP JUMP JUMPDEST PUSH2 0x2857 DUP2 PUSH2 0x22CD JUMP JUMPDEST DUP3 MSTORE POP POP JUMP JUMPDEST PUSH1 0x0 PUSH1 0x20 DUP3 ADD SWAP1 POP PUSH2 0x2872 PUSH1 0x0 DUP4 ADD DUP5 PUSH2 0x284E JUMP JUMPDEST SWAP3 SWAP2 POP POP JUMP JUMPDEST PUSH32 0x4E487B7100000000000000000000000000000000000000000000000000000000 PUSH1 0x0 MSTORE PUSH1 0x32 PUSH1 0x4 MSTORE PUSH1 0x24 PUSH1 0x0 REVERT JUMPDEST PUSH32 0x4E487B7100000000000000000000000000000000000000000000000000000000 PUSH1 0x0 MSTORE PUSH1 0x11 PUSH1 0x4 MSTORE PUSH1 0x24 PUSH1 0x0 REVERT JUMPDEST PUSH1 0x0 PUSH2 0x28E1 DUP3 PUSH2 0x22EE JUMP JUMPDEST SWAP2 POP PUSH2 0x28EC DUP4 PUSH2 0x22EE JUMP JUMPDEST SWAP3 POP DUP3 DUP3 MUL PUSH2 0x28FA DUP2 PUSH2 0x22EE JUMP JUMPDEST SWAP2 POP DUP3 DUP3 DIV DUP5 EQ DUP4 ISZERO OR PUSH2 0x2911 JUMPI PUSH2 0x2910 PUSH2 0x28A7 JUMP JUMPDEST JUMPDEST POP SWAP3 SWAP2 POP POP JUMP JUMPDEST PUSH32 0x4E487B7100000000000000000000000000000000000000000000000000000000 PUSH1 0x0 MSTORE PUSH1 0x12 PUSH1 0x4 MSTORE PUSH1 0x24 PUSH1 0x0 REVERT JUMPDEST PUSH1 0x0 PUSH2 0x2952 DUP3 PUSH2 0x22EE JUMP JUMPDEST SWAP2 POP PUSH2 0x295D DUP4 PUSH2 0x22EE JUMP JUMPDEST SWAP3 POP DUP3 PUSH2 0x296D JUMPI PUSH2 0x296C PUSH2 0x2918 JUMP JUMPDEST JUMPDEST DUP3 DUP3 DIV SWAP1 POP SWAP3 SWAP2 POP POP JUMP JUMPDEST PUSH1 0x0 DUP2 SWAP1 POP SWAP2 SWAP1 POP JUMP JUMPDEST PUSH1 0x0 PUSH8 0xFFFFFFFFFFFFFFFF DUP3 AND SWAP1 POP SWAP2 SWAP1 POP JUMP JUMPDEST PUSH1 0x0 PUSH2 0x29B1 PUSH2 0x29AC PUSH2 0x29A7 DUP5 PUSH2 0x2978 JUMP JUMPDEST PUSH2 0x261F JUMP JUMPDEST PUSH2 0x2982 JUMP JUMPDEST SWAP1 POP SWAP2 SWAP1 POP JUMP JUMPDEST PUSH2 0x29C1 DUP2 PUSH2 0x2996 JUMP JUMPDEST DUP3 MSTORE POP POP JUMP JUMPDEST PUSH1 0x0 PUSH1 0x20 DUP3 ADD SWAP1 POP PUSH2 0x29DC PUSH1 0x0 DUP4 ADD DUP5 PUSH2 0x29B8 JUMP JUMPDEST SWAP3 SWAP2 POP POP JUMP JUMPDEST PUSH1 0x0 PUSH2 0x29ED DUP3 PUSH2 0x22EE JUMP JUMPDEST SWAP2 POP PUSH2 0x29F8 DUP4 PUSH2 0x22EE JUMP JUMPDEST SWAP3 POP DUP3 DUP3 ADD SWAP1 POP DUP1 DUP3 GT ISZERO PUSH2 0x2A10 JUMPI PUSH2 0x2A0F PUSH2 0x28A7 JUMP JUMPDEST JUMPDEST SWAP3 SWAP2 POP POP JUMP JUMPDEST PUSH1 0x0 PUSH1 0x40 DUP3 ADD SWAP1 POP PUSH2 0x2A2B PUSH1 0x0 DUP4 ADD DUP6 PUSH2 0x2513 JUMP JUMPDEST PUSH2 0x2A38 PUSH1 0x20 DUP4 ADD DUP5 PUSH2 0x2450 JUMP JUMPDEST SWAP4 SWAP3 POP POP POP JUMP JUMPDEST PUSH1 0x0 PUSH2 0x2A4A DUP3 PUSH2 0x22EE JUMP JUMPDEST SWAP2 POP PUSH32 0xFFFFFFFFFFFFFFFFFFFFFFFFFFFFFFFFFFFFFFFFFFFFFFFFFFFFFFFFFFFFFFFF DUP3 SUB PUSH2 0x2A7C JUMPI PUSH2 0x2A7B PUSH2 0x28A7 JUMP JUMPDEST JUMPDEST PUSH1 0x1 DUP3 ADD SWAP1 POP SWAP2 SWAP1 POP JUMP JUMPDEST PUSH1 0x0 PUSH2 0x2A92 DUP3 PUSH2 0x22EE JUMP JUMPDEST SWAP2 POP PUSH2 0x2A9D DUP4 PUSH2 0x22EE JUMP JUMPDEST SWAP3 POP DUP3 DUP3 SUB SWAP1 POP DUP2 DUP2 GT ISZERO PUSH2 0x2AB5 JUMPI PUSH2 0x2AB4 PUSH2 0x28A7 JUMP JUMPDEST JUMPDEST SWAP3 SWAP2 POP POP JUMP INVALID LOG2 PUSH5 0x6970667358 0x22 SLT KECCAK256 SWAP1 0xF PUSH31 0x31F17F994663F3A7C7FA210AEAD5999D09A73A70D8A36646C31B66CF856473 PUSH16 0x6C634300081A00330000000000000000 "
        },
        "methodIdentifiers": {
          "LEADERBOARD_DURATION()": "c2d1aebe",
          "WITHDRAWAL_DELAY()": "0ebb172a",
          "closeLeaderboard(bytes32)": "78353ba6",
          "countryList(uint256)": "685142c7",
          "createLeaderboard(bytes32)": "99da7aac",
          "executeWithdrawal()": "fa45aa00",
          "fulfillDailyWinner(bytes32,bytes32)": "0ca8726c",
          "fulfillTopArtists(bytes32,bytes32[])": "7fe93e31",
          "getArtistOdds(bytes32,bytes32)": "8fcd8cee",
          "getBetsInCountry(bytes32)": "06dc39bf",
          "getTotalBetAmount(bytes32)": "97654961",
          "getTotalBetsOnArtist(bytes32,bytes32)": "eb4c5528",
          "initialize(address,address)": "485cc955",
          "isLeaderboardExpired(bytes32)": "77d0c7d3",
          "leaderboards(bytes32)": "51922353",
          "oracle()": "7dc0d1d0",
          "owner()": "8da5cb5b",
          "paused()": "5c975abb",
          "placeBet(bytes32,bytes32)": "7f6b0da8",
          "renounceOwnership()": "715018a6",
          "requestWithdrawal()": "dbaf2145",
          "testOracleConnection()": "2ce3707e",
          "toggleContractActive()": "1385d24c",
          "transferOwnership(address)": "f2fde38b",
          "updateOracle(address)": "1cb44dfc",
          "validCountries(bytes32)": "66566a37",
          "withdrawalRequestTime()": "f59bdf85"
        }
      },
      "storageLayout": {
        "storage": [
          {
            "astId": 856,
            "contract": "contracts/ChartsBet.sol:ChartsBet",
            "label": "leaderboards",
            "offset": 0,
            "slot": "0",
            "type": "t_mapping(t_bytes32,t_struct(Leaderboard)851_storage)"
          },
          {
            "astId": 859,
            "contract": "contracts/ChartsBet.sol:ChartsBet",
            "label": "countryList",
            "offset": 0,
            "slot": "1",
            "type": "t_array(t_bytes32)dyn_storage"
          },
          {
            "astId": 862,
            "contract": "contracts/ChartsBet.sol:ChartsBet",
            "label": "oracle",
            "offset": 0,
            "slot": "2",
            "type": "t_contract(ChartsOracle)2104"
          },
          {
            "astId": 869,
            "contract": "contracts/ChartsBet.sol:ChartsBet",
            "label": "validCountries",
            "offset": 0,
            "slot": "3",
            "type": "t_mapping(t_bytes32,t_bool)"
          },
          {
            "astId": 874,
            "contract": "contracts/ChartsBet.sol:ChartsBet",
            "label": "withdrawalRequestTime",
            "offset": 0,
            "slot": "4",
            "type": "t_uint256"
          },
          {
            "astId": 1836,
            "contract": "contracts/ChartsBet.sol:ChartsBet",
            "label": "__gap",
            "offset": 0,
            "slot": "5",
            "type": "t_array(t_uint256)50_storage"
          }
        ],
        "types": {
          "t_address": {
            "encoding": "inplace",
            "label": "address",
            "numberOfBytes": "20"
          },
          "t_array(t_bytes32)dyn_storage": {
            "base": "t_bytes32",
            "encoding": "dynamic_array",
            "label": "bytes32[]",
            "numberOfBytes": "32"
          },
          "t_array(t_struct(Bet)824_storage)dyn_storage": {
            "base": "t_struct(Bet)824_storage",
            "encoding": "dynamic_array",
            "label": "struct ChartsBet.Bet[]",
            "numberOfBytes": "32"
          },
          "t_array(t_uint256)50_storage": {
            "base": "t_uint256",
            "encoding": "inplace",
            "label": "uint256[50]",
            "numberOfBytes": "1600"
          },
          "t_bool": {
            "encoding": "inplace",
            "label": "bool",
            "numberOfBytes": "1"
          },
          "t_bytes32": {
            "encoding": "inplace",
            "label": "bytes32",
            "numberOfBytes": "32"
          },
          "t_contract(ChartsOracle)2104": {
            "encoding": "inplace",
            "label": "contract ChartsOracle",
            "numberOfBytes": "20"
          },
          "t_mapping(t_bytes32,t_bool)": {
            "encoding": "mapping",
            "key": "t_bytes32",
            "label": "mapping(bytes32 => bool)",
            "numberOfBytes": "32",
            "value": "t_bool"
          },
          "t_mapping(t_bytes32,t_struct(Leaderboard)851_storage)": {
            "encoding": "mapping",
            "key": "t_bytes32",
            "label": "mapping(bytes32 => struct ChartsBet.Leaderboard)",
            "numberOfBytes": "32",
            "value": "t_struct(Leaderboard)851_storage"
          },
          "t_mapping(t_bytes32,t_uint256)": {
            "encoding": "mapping",
            "key": "t_bytes32",
            "label": "mapping(bytes32 => uint256)",
            "numberOfBytes": "32",
            "value": "t_uint256"
          },
          "t_struct(Bet)824_storage": {
            "encoding": "inplace",
            "label": "struct ChartsBet.Bet",
            "members": [
              {
                "astId": 817,
                "contract": "contracts/ChartsBet.sol:ChartsBet",
                "label": "user",
                "offset": 0,
                "slot": "0",
                "type": "t_address"
              },
              {
                "astId": 819,
                "contract": "contracts/ChartsBet.sol:ChartsBet",
                "label": "amount",
                "offset": 0,
                "slot": "1",
                "type": "t_uint256"
              },
              {
                "astId": 821,
                "contract": "contracts/ChartsBet.sol:ChartsBet",
                "label": "artist",
                "offset": 0,
                "slot": "2",
                "type": "t_bytes32"
              },
              {
                "astId": 823,
                "contract": "contracts/ChartsBet.sol:ChartsBet",
                "label": "odds",
                "offset": 0,
                "slot": "3",
                "type": "t_uint256"
              }
            ],
            "numberOfBytes": "128"
          },
          "t_struct(Leaderboard)851_storage": {
            "encoding": "inplace",
            "label": "struct ChartsBet.Leaderboard",
            "members": [
              {
                "astId": 826,
                "contract": "contracts/ChartsBet.sol:ChartsBet",
                "label": "country",
                "offset": 0,
                "slot": "0",
                "type": "t_bytes32"
              },
              {
                "astId": 828,
                "contract": "contracts/ChartsBet.sol:ChartsBet",
                "label": "winningArtist",
                "offset": 0,
                "slot": "1",
                "type": "t_bytes32"
              },
              {
                "astId": 830,
                "contract": "contracts/ChartsBet.sol:ChartsBet",
                "label": "isClosed",
                "offset": 0,
                "slot": "2",
                "type": "t_bool"
              },
              {
                "astId": 832,
                "contract": "contracts/ChartsBet.sol:ChartsBet",
                "label": "totalBetAmount",
                "offset": 0,
                "slot": "3",
                "type": "t_uint256"
              },
              {
                "astId": 834,
                "contract": "contracts/ChartsBet.sol:ChartsBet",
                "label": "startTime",
                "offset": 0,
                "slot": "4",
                "type": "t_uint256"
              },
              {
                "astId": 838,
                "contract": "contracts/ChartsBet.sol:ChartsBet",
                "label": "totalBetsOnArtist",
                "offset": 0,
                "slot": "5",
                "type": "t_mapping(t_bytes32,t_uint256)"
              },
              {
                "astId": 842,
                "contract": "contracts/ChartsBet.sol:ChartsBet",
                "label": "artistRank",
                "offset": 0,
                "slot": "6",
                "type": "t_mapping(t_bytes32,t_uint256)"
              },
              {
                "astId": 846,
                "contract": "contracts/ChartsBet.sol:ChartsBet",
                "label": "artistOdds",
                "offset": 0,
                "slot": "7",
                "type": "t_mapping(t_bytes32,t_uint256)"
              },
              {
                "astId": 850,
                "contract": "contracts/ChartsBet.sol:ChartsBet",
                "label": "bets",
                "offset": 0,
                "slot": "8",
                "type": "t_array(t_struct(Bet)824_storage)dyn_storage"
              }
            ],
            "numberOfBytes": "288"
          },
          "t_uint256": {
            "encoding": "inplace",
            "label": "uint256",
            "numberOfBytes": "32"
          }
        }
      }
    }
  }
}