{
  "contracts/ChartsBet.sol": {
    "ChartsBet": {
      "abi": [
        {
          "inputs": [],
          "name": "ArtistNotInLeaderboard",
          "type": "error"
        },
        {
          "inputs": [],
          "name": "BettingClosed",
          "type": "error"
        },
        {
          "inputs": [],
          "name": "EnforcedPause",
          "type": "error"
        },
        {
          "inputs": [],
          "name": "ExpectedPause",
          "type": "error"
        },
        {
          "inputs": [],
          "name": "InvalidCountryCode",
          "type": "error"
        },
        {
          "inputs": [],
          "name": "InvalidInitialization",
          "type": "error"
        },
        {
          "inputs": [],
          "name": "InvalidOracleAddress",
          "type": "error"
        },
        {
          "inputs": [],
          "name": "LeaderboardAlreadyClosed",
          "type": "error"
        },
        {
          "inputs": [],
          "name": "LeaderboardNotFound",
          "type": "error"
        },
        {
          "inputs": [],
          "name": "LeaderboardStillActive",
          "type": "error"
        },
        {
          "inputs": [],
          "name": "NoFundsToWithdraw",
          "type": "error"
        },
        {
          "inputs": [],
          "name": "NotInitializing",
          "type": "error"
        },
        {
          "inputs": [],
          "name": "OnlyOracleAllowed",
          "type": "error"
        },
        {
          "inputs": [
            {
              "internalType": "address",
              "name": "owner",
              "type": "address"
            }
          ],
          "name": "OwnableInvalidOwner",
          "type": "error"
        },
        {
          "inputs": [
            {
              "internalType": "address",
              "name": "account",
              "type": "address"
            }
          ],
          "name": "OwnableUnauthorizedAccount",
          "type": "error"
        },
        {
          "inputs": [],
          "name": "ReentrancyGuardReentrantCall",
          "type": "error"
        },
        {
          "inputs": [],
          "name": "WithdrawalDelayNotMet",
          "type": "error"
        },
        {
          "anonymous": false,
          "inputs": [
            {
              "indexed": true,
              "internalType": "bytes32",
              "name": "country",
              "type": "bytes32"
            },
            {
              "indexed": false,
              "internalType": "string",
              "name": "artist",
              "type": "string"
            },
            {
              "indexed": false,
              "internalType": "uint256",
              "name": "odds",
              "type": "uint256"
            }
          ],
          "name": "ArtistOddsSet",
          "type": "event"
        },
        {
          "anonymous": false,
          "inputs": [
            {
              "indexed": true,
              "internalType": "address",
              "name": "user",
              "type": "address"
            },
            {
              "indexed": true,
              "internalType": "bytes32",
              "name": "country",
              "type": "bytes32"
            },
            {
              "indexed": false,
              "internalType": "string",
              "name": "artist",
              "type": "string"
            },
            {
              "indexed": false,
              "internalType": "uint256",
              "name": "amount",
              "type": "uint256"
            }
          ],
          "name": "BetPlaced",
          "type": "event"
        },
        {
          "anonymous": false,
          "inputs": [
            {
              "indexed": true,
              "internalType": "bytes32",
              "name": "country",
              "type": "bytes32"
            },
            {
              "indexed": false,
              "internalType": "string",
              "name": "winningArtist",
              "type": "string"
            }
          ],
          "name": "DailyWinnerFulfilled",
          "type": "event"
        },
        {
          "anonymous": false,
          "inputs": [
            {
              "indexed": false,
              "internalType": "uint64",
              "name": "version",
              "type": "uint64"
            }
          ],
          "name": "Initialized",
          "type": "event"
        },
        {
          "anonymous": false,
          "inputs": [
            {
              "indexed": true,
              "internalType": "bytes32",
              "name": "country",
              "type": "bytes32"
            }
          ],
          "name": "LeaderboardClosed",
          "type": "event"
        },
        {
          "anonymous": false,
          "inputs": [
            {
              "indexed": true,
              "internalType": "bytes32",
              "name": "country",
              "type": "bytes32"
            }
          ],
          "name": "LeaderboardCreated",
          "type": "event"
        },
        {
          "anonymous": false,
          "inputs": [
            {
              "indexed": false,
              "internalType": "address",
              "name": "newOracle",
              "type": "address"
            }
          ],
          "name": "OracleUpdated",
          "type": "event"
        },
        {
          "anonymous": false,
          "inputs": [
            {
              "indexed": true,
              "internalType": "address",
              "name": "previousOwner",
              "type": "address"
            },
            {
              "indexed": true,
              "internalType": "address",
              "name": "newOwner",
              "type": "address"
            }
          ],
          "name": "OwnershipTransferred",
          "type": "event"
        },
        {
          "anonymous": false,
          "inputs": [
            {
              "indexed": false,
              "internalType": "address",
              "name": "account",
              "type": "address"
            }
          ],
          "name": "Paused",
          "type": "event"
        },
        {
          "anonymous": false,
          "inputs": [
            {
              "indexed": true,
              "internalType": "bytes32",
              "name": "country",
              "type": "bytes32"
            }
          ],
          "name": "TopArtistsFulfilled",
          "type": "event"
        },
        {
          "anonymous": false,
          "inputs": [
            {
              "indexed": false,
              "internalType": "address",
              "name": "account",
              "type": "address"
            }
          ],
          "name": "Unpaused",
          "type": "event"
        },
        {
          "anonymous": false,
          "inputs": [
            {
              "indexed": false,
              "internalType": "uint256",
              "name": "amount",
              "type": "uint256"
            }
          ],
          "name": "WithdrawalExecuted",
          "type": "event"
        },
        {
          "anonymous": false,
          "inputs": [
            {
              "indexed": false,
              "internalType": "uint256",
              "name": "requestTime",
              "type": "uint256"
            }
          ],
          "name": "WithdrawalRequested",
          "type": "event"
        },
        {
          "inputs": [],
          "name": "LEADERBOARD_DURATION",
          "outputs": [
            {
              "internalType": "uint256",
              "name": "",
              "type": "uint256"
            }
          ],
          "stateMutability": "view",
          "type": "function"
        },
        {
          "inputs": [],
          "name": "WITHDRAWAL_DELAY",
          "outputs": [
            {
              "internalType": "uint256",
              "name": "",
              "type": "uint256"
            }
          ],
          "stateMutability": "view",
          "type": "function"
        },
        {
          "inputs": [
            {
              "internalType": "bytes32",
              "name": "country",
              "type": "bytes32"
            }
          ],
          "name": "closeLeaderboard",
          "outputs": [],
          "stateMutability": "nonpayable",
          "type": "function"
        },
        {
          "inputs": [
            {
              "internalType": "uint256",
              "name": "",
              "type": "uint256"
            }
          ],
          "name": "countryList",
          "outputs": [
            {
              "internalType": "bytes32",
              "name": "",
              "type": "bytes32"
            }
          ],
          "stateMutability": "view",
          "type": "function"
        },
        {
          "inputs": [
            {
              "internalType": "bytes32",
              "name": "country",
              "type": "bytes32"
            }
          ],
          "name": "createLeaderboard",
          "outputs": [],
          "stateMutability": "nonpayable",
          "type": "function"
        },
        {
          "inputs": [],
          "name": "executeWithdrawal",
          "outputs": [],
          "stateMutability": "nonpayable",
          "type": "function"
        },
        {
          "inputs": [
            {
              "internalType": "bytes32",
              "name": "country",
              "type": "bytes32"
            },
            {
              "internalType": "string",
              "name": "winningArtist",
              "type": "string"
            }
          ],
          "name": "fulfillDailyWinner",
          "outputs": [],
          "stateMutability": "nonpayable",
          "type": "function"
        },
        {
          "inputs": [
            {
              "internalType": "bytes32",
              "name": "country",
              "type": "bytes32"
            },
            {
              "internalType": "string[]",
              "name": "topArtists",
              "type": "string[]"
            }
          ],
          "name": "fulfillTopArtists",
          "outputs": [],
          "stateMutability": "nonpayable",
          "type": "function"
        },
        {
          "inputs": [
            {
              "internalType": "bytes32",
              "name": "country",
              "type": "bytes32"
            },
            {
              "internalType": "string",
              "name": "artist",
              "type": "string"
            }
          ],
          "name": "getArtistOdds",
          "outputs": [
            {
              "internalType": "uint256",
              "name": "",
              "type": "uint256"
            }
          ],
          "stateMutability": "view",
          "type": "function"
        },
        {
          "inputs": [
            {
              "internalType": "bytes32",
              "name": "country",
              "type": "bytes32"
            }
          ],
          "name": "getBetsInCountry",
          "outputs": [
            {
              "components": [
                {
                  "internalType": "address",
                  "name": "user",
                  "type": "address"
                },
                {
                  "internalType": "uint256",
                  "name": "amount",
                  "type": "uint256"
                },
                {
                  "internalType": "string",
                  "name": "artist",
                  "type": "string"
                },
                {
                  "internalType": "uint256",
                  "name": "odds",
                  "type": "uint256"
                }
              ],
              "internalType": "struct ChartsBet.Bet[]",
              "name": "",
              "type": "tuple[]"
            }
          ],
          "stateMutability": "view",
          "type": "function"
        },
        {
          "inputs": [
            {
              "internalType": "bytes32",
              "name": "country",
              "type": "bytes32"
            }
          ],
          "name": "getTotalBetAmount",
          "outputs": [
            {
              "internalType": "uint256",
              "name": "",
              "type": "uint256"
            }
          ],
          "stateMutability": "view",
          "type": "function"
        },
        {
          "inputs": [
            {
              "internalType": "bytes32",
              "name": "country",
              "type": "bytes32"
            },
            {
              "internalType": "string",
              "name": "artist",
              "type": "string"
            }
          ],
          "name": "getTotalBetsOnArtist",
          "outputs": [
            {
              "internalType": "uint256",
              "name": "",
              "type": "uint256"
            }
          ],
          "stateMutability": "view",
          "type": "function"
        },
        {
          "inputs": [
            {
              "internalType": "address",
              "name": "_owner",
              "type": "address"
            },
            {
              "internalType": "address",
              "name": "_oracle",
              "type": "address"
            }
          ],
          "name": "initialize",
          "outputs": [],
          "stateMutability": "nonpayable",
          "type": "function"
        },
        {
          "inputs": [
            {
              "internalType": "bytes32",
              "name": "country",
              "type": "bytes32"
            }
          ],
          "name": "isLeaderboardExpired",
          "outputs": [
            {
              "internalType": "bool",
              "name": "",
              "type": "bool"
            }
          ],
          "stateMutability": "view",
          "type": "function"
        },
        {
          "inputs": [
            {
              "internalType": "bytes32",
              "name": "",
              "type": "bytes32"
            }
          ],
          "name": "leaderboards",
          "outputs": [
            {
              "internalType": "bytes32",
              "name": "country",
              "type": "bytes32"
            },
            {
              "internalType": "string",
              "name": "winningArtist",
              "type": "string"
            },
            {
              "internalType": "bool",
              "name": "isClosed",
              "type": "bool"
            },
            {
              "internalType": "uint256",
              "name": "totalBetAmount",
              "type": "uint256"
            },
            {
              "internalType": "uint256",
              "name": "startTime",
              "type": "uint256"
            }
          ],
          "stateMutability": "view",
          "type": "function"
        },
        {
          "inputs": [],
          "name": "oracle",
          "outputs": [
            {
              "internalType": "contract ChartsOracle",
              "name": "",
              "type": "address"
            }
          ],
          "stateMutability": "view",
          "type": "function"
        },
        {
          "inputs": [],
          "name": "owner",
          "outputs": [
            {
              "internalType": "address",
              "name": "",
              "type": "address"
            }
          ],
          "stateMutability": "view",
          "type": "function"
        },
        {
          "inputs": [],
          "name": "paused",
          "outputs": [
            {
              "internalType": "bool",
              "name": "",
              "type": "bool"
            }
          ],
          "stateMutability": "view",
          "type": "function"
        },
        {
          "inputs": [
            {
              "internalType": "bytes32",
              "name": "country",
              "type": "bytes32"
            },
            {
              "internalType": "string",
              "name": "artist",
              "type": "string"
            }
          ],
          "name": "placeBet",
          "outputs": [],
          "stateMutability": "payable",
          "type": "function"
        },
        {
          "inputs": [],
          "name": "renounceOwnership",
          "outputs": [],
          "stateMutability": "nonpayable",
          "type": "function"
        },
        {
          "inputs": [],
          "name": "requestWithdrawal",
          "outputs": [],
          "stateMutability": "nonpayable",
          "type": "function"
        },
        {
          "inputs": [],
          "name": "toggleContractActive",
          "outputs": [],
          "stateMutability": "nonpayable",
          "type": "function"
        },
        {
          "inputs": [
            {
              "internalType": "address",
              "name": "newOwner",
              "type": "address"
            }
          ],
          "name": "transferOwnership",
          "outputs": [],
          "stateMutability": "nonpayable",
          "type": "function"
        },
        {
          "inputs": [
            {
              "internalType": "address",
              "name": "newOracle",
              "type": "address"
            }
          ],
          "name": "updateOracle",
          "outputs": [],
          "stateMutability": "nonpayable",
          "type": "function"
        },
        {
          "inputs": [
            {
              "internalType": "bytes32",
              "name": "",
              "type": "bytes32"
            }
          ],
          "name": "validCountries",
          "outputs": [
            {
              "internalType": "bool",
              "name": "",
              "type": "bool"
            }
          ],
          "stateMutability": "view",
          "type": "function"
        },
        {
          "inputs": [],
          "name": "withdrawalRequestTime",
          "outputs": [
            {
              "internalType": "uint256",
              "name": "",
              "type": "uint256"
            }
          ],
          "stateMutability": "view",
          "type": "function"
        }
      ],
      "evm": {
        "bytecode": {
          "linkReferences": {},
          "object": "6080604052348015600f57600080fd5b506132ee8061001f6000396000f3fe6080604052600436106101815760003560e01c8063715018a6116100d157806399da7aac1161008a578063f2fde38b11610064578063f2fde38b14610563578063f59bdf851461058c578063fa45aa00146105b7578063fa88e7e7146105ce57610181565b806399da7aac146104f8578063c2d1aebe14610521578063dbaf21451461054c57610181565b8063715018a6146103e857806377d0c7d3146103ff57806378353ba61461043c5780637dc0d1d0146104655780638da5cb5b1461049057806397654961146104bb57610181565b806325100b4d1161013e578063519223531161011857806351922353146103025780635c975abb1461034357806366566a371461036e578063685142c7146103ab57610181565b806325100b4d146102945780633952172d146102b0578063485cc955146102d957610181565b80630617c33b14610186578063061d3bd2146101c357806306dc39bf146101ec5780630ebb172a146102295780631385d24c146102545780631cb44dfc1461026b575b600080fd5b34801561019257600080fd5b506101ad60048036038101906101a891906125dc565b61060b565b6040516101ba9190612651565b60405180910390f35b3480156101cf57600080fd5b506101ea60048036038101906101e59190612752565b610667565b005b3480156101f857600080fd5b50610213600480360381019061020e91906127ae565b610828565b60405161022091906129cf565b60405180910390f35b34801561023557600080fd5b5061023e61099e565b60405161024b9190612651565b60405180910390f35b34801561026057600080fd5b506102696109a5565b005b34801561027757600080fd5b50610292600480360381019061028d9190612a1d565b6109d2565b005b6102ae60048036038101906102a991906125dc565b610abb565b005b3480156102bc57600080fd5b506102d760048036038101906102d291906125dc565b610d77565b005b3480156102e557600080fd5b5061030060048036038101906102fb9190612a4a565b611084565b005b34801561030e57600080fd5b50610329600480360381019061032491906127ae565b611401565b60405161033a959493929190612afe565b60405180910390f35b34801561034f57600080fd5b506103586114cc565b6040516103659190612b58565b60405180910390f35b34801561037a57600080fd5b50610395600480360381019061039091906127ae565b6114f1565b6040516103a29190612b58565b60405180910390f35b3480156103b757600080fd5b506103d260048036038101906103cd9190612b9f565b611511565b6040516103df9190612bcc565b60405180910390f35b3480156103f457600080fd5b506103fd611535565b005b34801561040b57600080fd5b50610426600480360381019061042191906127ae565b611549565b6040516104339190612b58565b60405180910390f35b34801561044857600080fd5b50610463600480360381019061045e91906127ae565b61157e565b005b34801561047157600080fd5b5061047a611673565b6040516104879190612c46565b60405180910390f35b34801561049c57600080fd5b506104a5611699565b6040516104b29190612c70565b60405180910390f35b3480156104c757600080fd5b506104e260048036038101906104dd91906127ae565b6116d1565b6040516104ef9190612651565b60405180910390f35b34801561050457600080fd5b5061051f600480360381019061051a91906127ae565b6116f0565b005b34801561052d57600080fd5b506105366118ee565b6040516105439190612651565b60405180910390f35b34801561055857600080fd5b506105616118f5565b005b34801561056f57600080fd5b5061058a60048036038101906105859190612a1d565b61193f565b005b34801561059857600080fd5b506105a16119c5565b6040516105ae9190612651565b60405180910390f35b3480156105c357600080fd5b506105cc6119cb565b005b3480156105da57600080fd5b506105f560048036038101906105f091906125dc565b611aec565b6040516106029190612651565b60405180910390f35b6000808260405160200161061f9190612cc7565b60405160208183030381529060405280519060200120905060008085815260200190815260200160002060070160008281526020019081526020016000205491505092915050565b61066f611b48565b600260009054906101000a900473ffffffffffffffffffffffffffffffffffffffff1673ffffffffffffffffffffffffffffffffffffffff163373ffffffffffffffffffffffffffffffffffffffff16146106f6576040517fd342cbff00000000000000000000000000000000000000000000000000000000815260040160405180910390fd5b6003600083815260200190815260200160002060009054906101000a900460ff1661074d576040517f139d566400000000000000000000000000000000000000000000000000000000815260040160405180910390fd5b600080600084815260200190815260200160002090506000801b8160000154036107a3576040517f3d3cef6a00000000000000000000000000000000000000000000000000000000815260040160405180910390fd5b8060020160009054906101000a900460ff16156107ec576040517f9aa0b8bd00000000000000000000000000000000000000000000000000000000815260040160405180910390fd5b6107f68383611b89565b827f577b6860ec2af75814bd1d732a479f5787676f4012afbc91228827a4b7f2e5a460405160405180910390a2505050565b60606000806000848152602001908152602001600020905080600801805480602002602001604051908101604052809291908181526020016000905b8282101561099257838290600052602060002090600402016040518060800160405290816000820160009054906101000a900473ffffffffffffffffffffffffffffffffffffffff1673ffffffffffffffffffffffffffffffffffffffff1673ffffffffffffffffffffffffffffffffffffffff168152602001600182015481526020016002820180546108f790612d0d565b80601f016020809104026020016040519081016040528092919081815260200182805461092390612d0d565b80156109705780601f1061094557610100808354040283529160200191610970565b820191906000526020600020905b81548152906001019060200180831161095357829003601f168201915b5050505050815260200160038201548152505081526020019060010190610864565b50505050915050919050565b6202a30081565b6109ad611dfe565b6109b56114cc565b156109c7576109c2611e85565b6109d0565b6109cf611ef7565b5b565b6109da611dfe565b600073ffffffffffffffffffffffffffffffffffffffff168173ffffffffffffffffffffffffffffffffffffffff1603610a40576040517f5521068100000000000000000000000000000000000000000000000000000000815260040160405180910390fd5b80600260006101000a81548173ffffffffffffffffffffffffffffffffffffffff021916908373ffffffffffffffffffffffffffffffffffffffff1602179055507f3df77beb5db05fcdd70a30fc8adf3f83f9501b68579455adbd100b818094039481604051610ab09190612c70565b60405180910390a150565b610ac3611b48565b610acb611f69565b600080600084815260200190815260200160002090506000801b816000015403610b21576040517f3d3cef6a00000000000000000000000000000000000000000000000000000000815260040160405180910390fd5b8060020160009054906101000a900460ff1680610b435750610b4283611549565b5b15610b7a576040517f61c54c4a00000000000000000000000000000000000000000000000000000000815260040160405180910390fd5b600082604051602001610b8d9190612cc7565b604051602081830303815290604052805190602001209050600082600701600083815260200190815260200160002054905060008103610bf9576040517f59bdd61600000000000000000000000000000000000000000000000000000000815260040160405180910390fd5b34836003016000828254610c0d9190612d6d565b92505081905550348360050160008481526020019081526020016000206000828254610c399190612d6d565b925050819055508260080160405180608001604052803373ffffffffffffffffffffffffffffffffffffffff16815260200134815260200186815260200183815250908060018154018082558091505060019003906000526020600020906004020160009091909190915060008201518160000160006101000a81548173ffffffffffffffffffffffffffffffffffffffff021916908373ffffffffffffffffffffffffffffffffffffffff160217905550602082015181600101556040820151816002019081610d0a9190612f43565b50606082015181600301555050843373ffffffffffffffffffffffffffffffffffffffff167f48fc46cbccdd1929e80dd1cfd9cd0e841cf8a54f6dde1807225608686a8e6f758634604051610d60929190613015565b60405180910390a3505050610d73611fc0565b5050565b610d7f611b48565b610d87611f69565b600260009054906101000a900473ffffffffffffffffffffffffffffffffffffffff1673ffffffffffffffffffffffffffffffffffffffff163373ffffffffffffffffffffffffffffffffffffffff1614610e0e576040517fd342cbff00000000000000000000000000000000000000000000000000000000815260040160405180910390fd5b600080600084815260200190815260200160002090506000801b816000015403610e64576040517f3d3cef6a00000000000000000000000000000000000000000000000000000000815260040160405180910390fd5b8060020160009054906101000a900460ff1615610ead576040517f61c54c4a00000000000000000000000000000000000000000000000000000000815260040160405180910390fd5b81816001019081610ebe9190612f43565b5060018160020160006101000a81548160ff021916908315150217905550600082604051602001610eef9190612cc7565b60405160208183030381529060405280519060200120905060005b8260080180549050811015611010576000836008018281548110610f3157610f30613045565b5b906000526020600020906004020190508281600201604051602001610f5691906130f7565b6040516020818303038152906040528051906020012003611002576000606482600301548360010154610f89919061310e565b610f93919061317f565b90508160000160009054906101000a900473ffffffffffffffffffffffffffffffffffffffff1673ffffffffffffffffffffffffffffffffffffffff166108fc829081150290604051600060405180830381858888f19350505050158015610fff573d6000803e3d6000fd5b50505b508080600101915050610f0a565b50837f05b38d8d0276a7822a40028770c59e835ff41a84cf7ef75d0ca61374dd2114b28460405161104191906131b0565b60405180910390a2837f7fa0af01d1013cd4a40114e18d6be90c73e0906187e6bd1f851acc747e36475360405160405180910390a25050611080611fc0565b5050565b600061108e611fd9565b905060008160000160089054906101000a900460ff1615905060008260000160009054906101000a900467ffffffffffffffff1690506000808267ffffffffffffffff161480156110dc5750825b9050600060018367ffffffffffffffff16148015611111575060003073ffffffffffffffffffffffffffffffffffffffff163b145b90508115801561111f575080155b15611156576040517ff92ee8a900000000000000000000000000000000000000000000000000000000815260040160405180910390fd5b60018560000160006101000a81548167ffffffffffffffff021916908367ffffffffffffffff16021790555083156111a65760018560000160086101000a81548160ff0219169083151502179055505b6111af87612001565b6111b7612015565b6111bf612027565b85600260006101000a81548173ffffffffffffffffffffffffffffffffffffffff021916908373ffffffffffffffffffffffffffffffffffffffff16021790555060006040518061010001604052807f575700000000000000000000000000000000000000000000000000000000000081526020017f425200000000000000000000000000000000000000000000000000000000000081526020017f444500000000000000000000000000000000000000000000000000000000000081526020017f455300000000000000000000000000000000000000000000000000000000000081526020017f465200000000000000000000000000000000000000000000000000000000000081526020017f495400000000000000000000000000000000000000000000000000000000000081526020017f505400000000000000000000000000000000000000000000000000000000000081526020017f5553000000000000000000000000000000000000000000000000000000000000815250905060005b600881101561139a5760016003600084846008811061136357611362613045565b5b6020020151815260200190815260200160002060006101000a81548160ff0219169083151502179055508080600101915050611341565b505083156113f85760008560000160086101000a81548160ff0219169083151502179055507fc7f505b2f371ae2175ee4913f4499e1f2633a7b5936321eed1cdaeb6115181d260016040516113ef9190613221565b60405180910390a15b50505050505050565b600060205280600052604060002060009150905080600001549080600101805461142a90612d0d565b80601f016020809104026020016040519081016040528092919081815260200182805461145690612d0d565b80156114a35780601f10611478576101008083540402835291602001916114a3565b820191906000526020600020905b81548152906001019060200180831161148657829003601f168201915b5050505050908060020160009054906101000a900460ff16908060030154908060040154905085565b6000806114d7612039565b90508060000160009054906101000a900460ff1691505090565b60036020528060005260406000206000915054906101000a900460ff1681565b6001818154811061152157600080fd5b906000526020600020016000915090505481565b61153d611dfe565b6115476000612061565b565b600080600080848152602001908152602001600020905062093a8081600401546115739190612d6d565b421015915050919050565b611586611dfe565b600080600083815260200190815260200160002090506000801b8160000154036115dc576040517f3d3cef6a00000000000000000000000000000000000000000000000000000000815260040160405180910390fd5b8060020160009054906101000a900460ff1615611625576040517f9aa0b8bd00000000000000000000000000000000000000000000000000000000815260040160405180910390fd5b60018160020160006101000a81548160ff021916908315150217905550817f7fa0af01d1013cd4a40114e18d6be90c73e0906187e6bd1f851acc747e36475360405160405180910390a25050565b600260009054906101000a900473ffffffffffffffffffffffffffffffffffffffff1681565b6000806116a4612138565b90508060000160009054906101000a900473ffffffffffffffffffffffffffffffffffffffff1691505090565b6000806000838152602001908152602001600020600301549050919050565b6116f8611dfe565b611700611b48565b6003600082815260200190815260200160002060009054906101000a900460ff16611757576040517f139d566400000000000000000000000000000000000000000000000000000000815260040160405180910390fd5b600080600083815260200190815260200160002090506000801b816000015414611844578060020160009054906101000a900460ff161580156117ab575062093a8081600401546117a89190612d6d565b42105b156117e2576040517fdbe95ff500000000000000000000000000000000000000000000000000000000815260040160405180910390fd5b60008083815260200190815260200160002060008082016000905560018201600061180d919061236d565b6002820160006101000a81549060ff02191690556003820160009055600482016000905560088201600061184191906123ad565b50505b6000806000848152602001908152602001600020905082816000018190555060008160020160006101000a81548160ff021916908315150217905550428160040181905550600081600301819055506001839080600181540180825580915050600190039060005260206000200160009091909190915055827f73829305e9f70b89111cf588e6d67f7360300700b6ecaed7130c8021d454b49160405160405180910390a2505050565b62093a8081565b6118fd611dfe565b426004819055507faf619daa033514f6c299197d29548ccd9276a1b55ef717fb80adf495925dd5106004546040516119359190612651565b60405180910390a1565b611947611dfe565b600073ffffffffffffffffffffffffffffffffffffffff168173ffffffffffffffffffffffffffffffffffffffff16036119b95760006040517f1e4fbdf70000000000000000000000000000000000000000000000000000000081526004016119b09190612c70565b60405180910390fd5b6119c281612061565b50565b60045481565b6119d3611dfe565b6202a3006004546119e49190612d6d565b421015611a1d576040517fb95063c200000000000000000000000000000000000000000000000000000000815260040160405180910390fd5b60004703611a57576040517f67e3990d00000000000000000000000000000000000000000000000000000000815260040160405180910390fd5b6000479050611a64611699565b73ffffffffffffffffffffffffffffffffffffffff166108fc829081150290604051600060405180830381858888f19350505050158015611aa9573d6000803e3d6000fd5b5060006004819055507feaa620b5c98328f5ddb4195c31eadb3e30e7915fcbc9cc1c244441984780c0d281604051611ae19190612651565b60405180910390a150565b60008082604051602001611b009190612cc7565b60405160208183030381529060405280519060200120905060008085815260200190815260200160002060050160008281526020019081526020016000205491505092915050565b611b506114cc565b15611b87576040517fd93c066500000000000000000000000000000000000000000000000000000000815260040160405180910390fd5b565b60008060008481526020019081526020016000209050600081600601905060005b8351811015611c54576000848281518110611bc857611bc7613045565b5b6020026020010151604051602001611be09190612cc7565b604051602081830303815290604052805190602001209050600084600601600083815260200190815260200160002081905550600084600701600083815260200190815260200160002081905550600083600083815260200190815260200160002081905550508080600101915050611baa565b5060005b8351811015611cdc576000848281518110611c7657611c75613045565b5b6020026020010151604051602001611c8e9190612cc7565b6040516020818303038152906040528051906020012090508260008281526020019081526020016000206000815480929190611cc99061323c565b9190505550508080600101915050611c58565b5060005b8351811015611df7576000848281518110611cfe57611cfd613045565b5b6020026020010151604051602001611d169190612cc7565b6040516020818303038152906040528051906020012090506000600183611d3d9190612d6d565b905080856006016000848152602001908152602001600020819055506000611d778286600086815260200190815260200160002054612160565b90508086600701600085815260200190815260200160002081905550877fc95c35564c411feac50a7081834b0aaba8fa88d917db6f6989e6387e52746c2a888681518110611dc857611dc7613045565b5b602002602001015183604051611ddf929190613015565b60405180910390a25050508080600101915050611ce0565b5050505050565b611e066121c2565b73ffffffffffffffffffffffffffffffffffffffff16611e24611699565b73ffffffffffffffffffffffffffffffffffffffff1614611e8357611e476121c2565b6040517f118cdaa7000000000000000000000000000000000000000000000000000000008152600401611e7a9190612c70565b60405180910390fd5b565b611e8d6121ca565b6000611e97612039565b905060008160000160006101000a81548160ff0219169083151502179055507f5db9ee0a495bf2e6ff9c91a7834c1ba4fdd244a5e8aa4e537bd38aeae4b073aa611edf6121c2565b604051611eec9190612c70565b60405180910390a150565b611eff611b48565b6000611f09612039565b905060018160000160006101000a81548160ff0219169083151502179055507f62e78cea01bee320cd4e420270b5ea74000d11b0c9f74754ebdbfc544b05a258611f516121c2565b604051611f5e9190612c70565b60405180910390a150565b6000611f7361220a565b90506002816000015403611fb3576040517f3ee5aeb500000000000000000000000000000000000000000000000000000000815260040160405180910390fd5b6002816000018190555050565b6000611fca61220a565b90506001816000018190555050565b60007ff0c57e16840df040f15088dc2f81fe391c3923bec73e23a9662efc9c229c6a00905090565b612009612232565b61201281612272565b50565b61201d612232565b6120256122f8565b565b61202f612232565b61203761232c565b565b60007fcd5ed15c6e187e77e9aee88184c21f4f2182ab5827cb3b7e07fbedcd63f03300905090565b600061206b612138565b905060008160000160009054906101000a900473ffffffffffffffffffffffffffffffffffffffff169050828260000160006101000a81548173ffffffffffffffffffffffffffffffffffffffff021916908373ffffffffffffffffffffffffffffffffffffffff1602179055508273ffffffffffffffffffffffffffffffffffffffff168173ffffffffffffffffffffffffffffffffffffffff167f8be0079c531659141344cd1fd0a4f28419497f9722a3daafe3b4186f6b6457e060405160405180910390a3505050565b60007f9016d09d72d40fdae2fd8ceac6b6234c7706214fd39c1cd1e609a0528c199300905090565b6000806002600184866121739190612d6d565b61217d9190613284565b856121889190612d6d565b612192919061317f565b905060146001826121a39190613284565b6121ad919061310e565b60786121b99190612d6d565b91505092915050565b600033905090565b6121d26114cc565b612208576040517f8dfc202b00000000000000000000000000000000000000000000000000000000815260040160405180910390fd5b565b60007f9b779b17422d0df92223018b32b4d1fa46e071723d6817e2486d003becc55f00905090565b61223a61234d565b612270576040517fd7e6bcf800000000000000000000000000000000000000000000000000000000815260040160405180910390fd5b565b61227a612232565b600073ffffffffffffffffffffffffffffffffffffffff168173ffffffffffffffffffffffffffffffffffffffff16036122ec5760006040517f1e4fbdf70000000000000000000000000000000000000000000000000000000081526004016122e39190612c70565b60405180910390fd5b6122f581612061565b50565b612300612232565b600061230a612039565b905060008160000160006101000a81548160ff02191690831515021790555050565b612334612232565b600061233e61220a565b90506001816000018190555050565b6000612357611fd9565b60000160089054906101000a900460ff16905090565b50805461237990612d0d565b6000825580601f1061238b57506123aa565b601f0160209004906000526020600020908101906123a991906123d1565b5b50565b50805460008255600402906000526020600020908101906123ce91906123ee565b50565b5b808211156123ea5760008160009055506001016123d2565b5090565b5b8082111561244857600080820160006101000a81549073ffffffffffffffffffffffffffffffffffffffff02191690556001820160009055600282016000612437919061236d565b6003820160009055506004016123ef565b5090565b6000604051905090565b600080fd5b600080fd5b6000819050919050565b61247381612460565b811461247e57600080fd5b50565b6000813590506124908161246a565b92915050565b600080fd5b600080fd5b6000601f19601f8301169050919050565b7f4e487b7100000000000000000000000000000000000000000000000000000000600052604160045260246000fd5b6124e9826124a0565b810181811067ffffffffffffffff82111715612508576125076124b1565b5b80604052505050565b600061251b61244c565b905061252782826124e0565b919050565b600067ffffffffffffffff821115612547576125466124b1565b5b612550826124a0565b9050602081019050919050565b82818337600083830152505050565b600061257f61257a8461252c565b612511565b90508281526020810184848401111561259b5761259a61249b565b5b6125a684828561255d565b509392505050565b600082601f8301126125c3576125c2612496565b5b81356125d384826020860161256c565b91505092915050565b600080604083850312156125f3576125f2612456565b5b600061260185828601612481565b925050602083013567ffffffffffffffff8111156126225761262161245b565b5b61262e858286016125ae565b9150509250929050565b6000819050919050565b61264b81612638565b82525050565b60006020820190506126666000830184612642565b92915050565b600067ffffffffffffffff821115612687576126866124b1565b5b602082029050602081019050919050565b600080fd5b60006126b06126ab8461266c565b612511565b905080838252602082019050602084028301858111156126d3576126d2612698565b5b835b8181101561271a57803567ffffffffffffffff8111156126f8576126f7612496565b5b80860161270589826125ae565b855260208501945050506020810190506126d5565b5050509392505050565b600082601f83011261273957612738612496565b5b813561274984826020860161269d565b91505092915050565b6000806040838503121561276957612768612456565b5b600061277785828601612481565b925050602083013567ffffffffffffffff8111156127985761279761245b565b5b6127a485828601612724565b9150509250929050565b6000602082840312156127c4576127c3612456565b5b60006127d284828501612481565b91505092915050565b600081519050919050565b600082825260208201905092915050565b6000819050602082019050919050565b600073ffffffffffffffffffffffffffffffffffffffff82169050919050565b600061283282612807565b9050919050565b61284281612827565b82525050565b61285181612638565b82525050565b600081519050919050565b600082825260208201905092915050565b60005b83811015612891578082015181840152602081019050612876565b60008484015250505050565b60006128a882612857565b6128b28185612862565b93506128c2818560208601612873565b6128cb816124a0565b840191505092915050565b60006080830160008301516128ee6000860182612839565b5060208301516129016020860182612848565b5060408301518482036040860152612919828261289d565b915050606083015161292e6060860182612848565b508091505092915050565b600061294583836128d6565b905092915050565b6000602082019050919050565b6000612965826127db565b61296f81856127e6565b935083602082028501612981856127f7565b8060005b858110156129bd578484038952815161299e8582612939565b94506129a98361294d565b925060208a01995050600181019050612985565b50829750879550505050505092915050565b600060208201905081810360008301526129e9818461295a565b905092915050565b6129fa81612827565b8114612a0557600080fd5b50565b600081359050612a17816129f1565b92915050565b600060208284031215612a3357612a32612456565b5b6000612a4184828501612a08565b91505092915050565b60008060408385031215612a6157612a60612456565b5b6000612a6f85828601612a08565b9250506020612a8085828601612a08565b9150509250929050565b612a9381612460565b82525050565b600082825260208201905092915050565b6000612ab582612857565b612abf8185612a99565b9350612acf818560208601612873565b612ad8816124a0565b840191505092915050565b60008115159050919050565b612af881612ae3565b82525050565b600060a082019050612b136000830188612a8a565b8181036020830152612b258187612aaa565b9050612b346040830186612aef565b612b416060830185612642565b612b4e6080830184612642565b9695505050505050565b6000602082019050612b6d6000830184612aef565b92915050565b612b7c81612638565b8114612b8757600080fd5b50565b600081359050612b9981612b73565b92915050565b600060208284031215612bb557612bb4612456565b5b6000612bc384828501612b8a565b91505092915050565b6000602082019050612be16000830184612a8a565b92915050565b6000819050919050565b6000612c0c612c07612c0284612807565b612be7565b612807565b9050919050565b6000612c1e82612bf1565b9050919050565b6000612c3082612c13565b9050919050565b612c4081612c25565b82525050565b6000602082019050612c5b6000830184612c37565b92915050565b612c6a81612827565b82525050565b6000602082019050612c856000830184612c61565b92915050565b600081905092915050565b6000612ca182612857565b612cab8185612c8b565b9350612cbb818560208601612873565b80840191505092915050565b6000612cd38284612c96565b915081905092915050565b7f4e487b7100000000000000000000000000000000000000000000000000000000600052602260045260246000fd5b60006002820490506001821680612d2557607f821691505b602082108103612d3857612d37612cde565b5b50919050565b7f4e487b7100000000000000000000000000000000000000000000000000000000600052601160045260246000fd5b6000612d7882612638565b9150612d8383612638565b9250828201905080821115612d9b57612d9a612d3e565b5b92915050565b60008190508160005260206000209050919050565b60006020601f8301049050919050565b600082821b905092915050565b600060088302612e037fffffffffffffffffffffffffffffffffffffffffffffffffffffffffffffffff82612dc6565b612e0d8683612dc6565b95508019841693508086168417925050509392505050565b6000612e40612e3b612e3684612638565b612be7565b612638565b9050919050565b6000819050919050565b612e5a83612e25565b612e6e612e6682612e47565b848454612dd3565b825550505050565b600090565b612e83612e76565b612e8e818484612e51565b505050565b5b81811015612eb257612ea7600082612e7b565b600181019050612e94565b5050565b601f821115612ef757612ec881612da1565b612ed184612db6565b81016020851015612ee0578190505b612ef4612eec85612db6565b830182612e93565b50505b505050565b600082821c905092915050565b6000612f1a60001984600802612efc565b1980831691505092915050565b6000612f338383612f09565b9150826002028217905092915050565b612f4c82612857565b67ffffffffffffffff811115612f6557612f646124b1565b5b612f6f8254612d0d565b612f7a828285612eb6565b600060209050601f831160018114612fad5760008415612f9b578287015190505b612fa58582612f27565b86555061300d565b601f198416612fbb86612da1565b60005b82811015612fe357848901518255600182019150602085019450602081019050612fbe565b868310156130005784890151612ffc601f891682612f09565b8355505b6001600288020188555050505b505050505050565b6000604082019050818103600083015261302f8185612aaa565b905061303e6020830184612642565b9392505050565b7f4e487b7100000000000000000000000000000000000000000000000000000000600052603260045260246000fd5b6000815461308181612d0d565b61308b8186612c8b565b945060018216600081146130a657600181146130bb576130ee565b60ff19831686528115158202860193506130ee565b6130c485612da1565b60005b838110156130e6578154818901526001820191506020810190506130c7565b838801955050505b50505092915050565b60006131038284613074565b915081905092915050565b600061311982612638565b915061312483612638565b925082820261313281612638565b9150828204841483151761314957613148612d3e565b5b5092915050565b7f4e487b7100000000000000000000000000000000000000000000000000000000600052601260045260246000fd5b600061318a82612638565b915061319583612638565b9250826131a5576131a4613150565b5b828204905092915050565b600060208201905081810360008301526131ca8184612aaa565b905092915050565b6000819050919050565b600067ffffffffffffffff82169050919050565b600061320b613206613201846131d2565b612be7565b6131dc565b9050919050565b61321b816131f0565b82525050565b60006020820190506132366000830184613212565b92915050565b600061324782612638565b91507fffffffffffffffffffffffffffffffffffffffffffffffffffffffffffffffff820361327957613278612d3e565b5b600182019050919050565b600061328f82612638565b915061329a83612638565b92508282039050818111156132b2576132b1612d3e565b5b9291505056fea26469706673582212209673e11c138c872f0ca857997043f220b13c3e0387316cecd9187fc8dbc4259564736f6c634300081a0033",
          "opcodes": "PUSH1 0x80 PUSH1 0x40 MSTORE CALLVALUE DUP1 ISZERO PUSH1 0xF JUMPI PUSH1 0x0 DUP1 REVERT JUMPDEST POP PUSH2 0x32EE DUP1 PUSH2 0x1F PUSH1 0x0 CODECOPY PUSH1 0x0 RETURN INVALID PUSH1 0x80 PUSH1 0x40 MSTORE PUSH1 0x4 CALLDATASIZE LT PUSH2 0x181 JUMPI PUSH1 0x0 CALLDATALOAD PUSH1 0xE0 SHR DUP1 PUSH4 0x715018A6 GT PUSH2 0xD1 JUMPI DUP1 PUSH4 0x99DA7AAC GT PUSH2 0x8A JUMPI DUP1 PUSH4 0xF2FDE38B GT PUSH2 0x64 JUMPI DUP1 PUSH4 0xF2FDE38B EQ PUSH2 0x563 JUMPI DUP1 PUSH4 0xF59BDF85 EQ PUSH2 0x58C JUMPI DUP1 PUSH4 0xFA45AA00 EQ PUSH2 0x5B7 JUMPI DUP1 PUSH4 0xFA88E7E7 EQ PUSH2 0x5CE JUMPI PUSH2 0x181 JUMP JUMPDEST DUP1 PUSH4 0x99DA7AAC EQ PUSH2 0x4F8 JUMPI DUP1 PUSH4 0xC2D1AEBE EQ PUSH2 0x521 JUMPI DUP1 PUSH4 0xDBAF2145 EQ PUSH2 0x54C JUMPI PUSH2 0x181 JUMP JUMPDEST DUP1 PUSH4 0x715018A6 EQ PUSH2 0x3E8 JUMPI DUP1 PUSH4 0x77D0C7D3 EQ PUSH2 0x3FF JUMPI DUP1 PUSH4 0x78353BA6 EQ PUSH2 0x43C JUMPI DUP1 PUSH4 0x7DC0D1D0 EQ PUSH2 0x465 JUMPI DUP1 PUSH4 0x8DA5CB5B EQ PUSH2 0x490 JUMPI DUP1 PUSH4 0x97654961 EQ PUSH2 0x4BB JUMPI PUSH2 0x181 JUMP JUMPDEST DUP1 PUSH4 0x25100B4D GT PUSH2 0x13E JUMPI DUP1 PUSH4 0x51922353 GT PUSH2 0x118 JUMPI DUP1 PUSH4 0x51922353 EQ PUSH2 0x302 JUMPI DUP1 PUSH4 0x5C975ABB EQ PUSH2 0x343 JUMPI DUP1 PUSH4 0x66566A37 EQ PUSH2 0x36E JUMPI DUP1 PUSH4 0x685142C7 EQ PUSH2 0x3AB JUMPI PUSH2 0x181 JUMP JUMPDEST DUP1 PUSH4 0x25100B4D EQ PUSH2 0x294 JUMPI DUP1 PUSH4 0x3952172D EQ PUSH2 0x2B0 JUMPI DUP1 PUSH4 0x485CC955 EQ PUSH2 0x2D9 JUMPI PUSH2 0x181 JUMP JUMPDEST DUP1 PUSH4 0x617C33B EQ PUSH2 0x186 JUMPI DUP1 PUSH4 0x61D3BD2 EQ PUSH2 0x1C3 JUMPI DUP1 PUSH4 0x6DC39BF EQ PUSH2 0x1EC JUMPI DUP1 PUSH4 0xEBB172A EQ PUSH2 0x229 JUMPI DUP1 PUSH4 0x1385D24C EQ PUSH2 0x254 JUMPI DUP1 PUSH4 0x1CB44DFC EQ PUSH2 0x26B JUMPI JUMPDEST PUSH1 0x0 DUP1 REVERT JUMPDEST CALLVALUE DUP1 ISZERO PUSH2 0x192 JUMPI PUSH1 0x0 DUP1 REVERT JUMPDEST POP PUSH2 0x1AD PUSH1 0x4 DUP1 CALLDATASIZE SUB DUP2 ADD SWAP1 PUSH2 0x1A8 SWAP2 SWAP1 PUSH2 0x25DC JUMP JUMPDEST PUSH2 0x60B JUMP JUMPDEST PUSH1 0x40 MLOAD PUSH2 0x1BA SWAP2 SWAP1 PUSH2 0x2651 JUMP JUMPDEST PUSH1 0x40 MLOAD DUP1 SWAP2 SUB SWAP1 RETURN JUMPDEST CALLVALUE DUP1 ISZERO PUSH2 0x1CF JUMPI PUSH1 0x0 DUP1 REVERT JUMPDEST POP PUSH2 0x1EA PUSH1 0x4 DUP1 CALLDATASIZE SUB DUP2 ADD SWAP1 PUSH2 0x1E5 SWAP2 SWAP1 PUSH2 0x2752 JUMP JUMPDEST PUSH2 0x667 JUMP JUMPDEST STOP JUMPDEST CALLVALUE DUP1 ISZERO PUSH2 0x1F8 JUMPI PUSH1 0x0 DUP1 REVERT JUMPDEST POP PUSH2 0x213 PUSH1 0x4 DUP1 CALLDATASIZE SUB DUP2 ADD SWAP1 PUSH2 0x20E SWAP2 SWAP1 PUSH2 0x27AE JUMP JUMPDEST PUSH2 0x828 JUMP JUMPDEST PUSH1 0x40 MLOAD PUSH2 0x220 SWAP2 SWAP1 PUSH2 0x29CF JUMP JUMPDEST PUSH1 0x40 MLOAD DUP1 SWAP2 SUB SWAP1 RETURN JUMPDEST CALLVALUE DUP1 ISZERO PUSH2 0x235 JUMPI PUSH1 0x0 DUP1 REVERT JUMPDEST POP PUSH2 0x23E PUSH2 0x99E JUMP JUMPDEST PUSH1 0x40 MLOAD PUSH2 0x24B SWAP2 SWAP1 PUSH2 0x2651 JUMP JUMPDEST PUSH1 0x40 MLOAD DUP1 SWAP2 SUB SWAP1 RETURN JUMPDEST CALLVALUE DUP1 ISZERO PUSH2 0x260 JUMPI PUSH1 0x0 DUP1 REVERT JUMPDEST POP PUSH2 0x269 PUSH2 0x9A5 JUMP JUMPDEST STOP JUMPDEST CALLVALUE DUP1 ISZERO PUSH2 0x277 JUMPI PUSH1 0x0 DUP1 REVERT JUMPDEST POP PUSH2 0x292 PUSH1 0x4 DUP1 CALLDATASIZE SUB DUP2 ADD SWAP1 PUSH2 0x28D SWAP2 SWAP1 PUSH2 0x2A1D JUMP JUMPDEST PUSH2 0x9D2 JUMP JUMPDEST STOP JUMPDEST PUSH2 0x2AE PUSH1 0x4 DUP1 CALLDATASIZE SUB DUP2 ADD SWAP1 PUSH2 0x2A9 SWAP2 SWAP1 PUSH2 0x25DC JUMP JUMPDEST PUSH2 0xABB JUMP JUMPDEST STOP JUMPDEST CALLVALUE DUP1 ISZERO PUSH2 0x2BC JUMPI PUSH1 0x0 DUP1 REVERT JUMPDEST POP PUSH2 0x2D7 PUSH1 0x4 DUP1 CALLDATASIZE SUB DUP2 ADD SWAP1 PUSH2 0x2D2 SWAP2 SWAP1 PUSH2 0x25DC JUMP JUMPDEST PUSH2 0xD77 JUMP JUMPDEST STOP JUMPDEST CALLVALUE DUP1 ISZERO PUSH2 0x2E5 JUMPI PUSH1 0x0 DUP1 REVERT JUMPDEST POP PUSH2 0x300 PUSH1 0x4 DUP1 CALLDATASIZE SUB DUP2 ADD SWAP1 PUSH2 0x2FB SWAP2 SWAP1 PUSH2 0x2A4A JUMP JUMPDEST PUSH2 0x1084 JUMP JUMPDEST STOP JUMPDEST CALLVALUE DUP1 ISZERO PUSH2 0x30E JUMPI PUSH1 0x0 DUP1 REVERT JUMPDEST POP PUSH2 0x329 PUSH1 0x4 DUP1 CALLDATASIZE SUB DUP2 ADD SWAP1 PUSH2 0x324 SWAP2 SWAP1 PUSH2 0x27AE JUMP JUMPDEST PUSH2 0x1401 JUMP JUMPDEST PUSH1 0x40 MLOAD PUSH2 0x33A SWAP6 SWAP5 SWAP4 SWAP3 SWAP2 SWAP1 PUSH2 0x2AFE JUMP JUMPDEST PUSH1 0x40 MLOAD DUP1 SWAP2 SUB SWAP1 RETURN JUMPDEST CALLVALUE DUP1 ISZERO PUSH2 0x34F JUMPI PUSH1 0x0 DUP1 REVERT JUMPDEST POP PUSH2 0x358 PUSH2 0x14CC JUMP JUMPDEST PUSH1 0x40 MLOAD PUSH2 0x365 SWAP2 SWAP1 PUSH2 0x2B58 JUMP JUMPDEST PUSH1 0x40 MLOAD DUP1 SWAP2 SUB SWAP1 RETURN JUMPDEST CALLVALUE DUP1 ISZERO PUSH2 0x37A JUMPI PUSH1 0x0 DUP1 REVERT JUMPDEST POP PUSH2 0x395 PUSH1 0x4 DUP1 CALLDATASIZE SUB DUP2 ADD SWAP1 PUSH2 0x390 SWAP2 SWAP1 PUSH2 0x27AE JUMP JUMPDEST PUSH2 0x14F1 JUMP JUMPDEST PUSH1 0x40 MLOAD PUSH2 0x3A2 SWAP2 SWAP1 PUSH2 0x2B58 JUMP JUMPDEST PUSH1 0x40 MLOAD DUP1 SWAP2 SUB SWAP1 RETURN JUMPDEST CALLVALUE DUP1 ISZERO PUSH2 0x3B7 JUMPI PUSH1 0x0 DUP1 REVERT JUMPDEST POP PUSH2 0x3D2 PUSH1 0x4 DUP1 CALLDATASIZE SUB DUP2 ADD SWAP1 PUSH2 0x3CD SWAP2 SWAP1 PUSH2 0x2B9F JUMP JUMPDEST PUSH2 0x1511 JUMP JUMPDEST PUSH1 0x40 MLOAD PUSH2 0x3DF SWAP2 SWAP1 PUSH2 0x2BCC JUMP JUMPDEST PUSH1 0x40 MLOAD DUP1 SWAP2 SUB SWAP1 RETURN JUMPDEST CALLVALUE DUP1 ISZERO PUSH2 0x3F4 JUMPI PUSH1 0x0 DUP1 REVERT JUMPDEST POP PUSH2 0x3FD PUSH2 0x1535 JUMP JUMPDEST STOP JUMPDEST CALLVALUE DUP1 ISZERO PUSH2 0x40B JUMPI PUSH1 0x0 DUP1 REVERT JUMPDEST POP PUSH2 0x426 PUSH1 0x4 DUP1 CALLDATASIZE SUB DUP2 ADD SWAP1 PUSH2 0x421 SWAP2 SWAP1 PUSH2 0x27AE JUMP JUMPDEST PUSH2 0x1549 JUMP JUMPDEST PUSH1 0x40 MLOAD PUSH2 0x433 SWAP2 SWAP1 PUSH2 0x2B58 JUMP JUMPDEST PUSH1 0x40 MLOAD DUP1 SWAP2 SUB SWAP1 RETURN JUMPDEST CALLVALUE DUP1 ISZERO PUSH2 0x448 JUMPI PUSH1 0x0 DUP1 REVERT JUMPDEST POP PUSH2 0x463 PUSH1 0x4 DUP1 CALLDATASIZE SUB DUP2 ADD SWAP1 PUSH2 0x45E SWAP2 SWAP1 PUSH2 0x27AE JUMP JUMPDEST PUSH2 0x157E JUMP JUMPDEST STOP JUMPDEST CALLVALUE DUP1 ISZERO PUSH2 0x471 JUMPI PUSH1 0x0 DUP1 REVERT JUMPDEST POP PUSH2 0x47A PUSH2 0x1673 JUMP JUMPDEST PUSH1 0x40 MLOAD PUSH2 0x487 SWAP2 SWAP1 PUSH2 0x2C46 JUMP JUMPDEST PUSH1 0x40 MLOAD DUP1 SWAP2 SUB SWAP1 RETURN JUMPDEST CALLVALUE DUP1 ISZERO PUSH2 0x49C JUMPI PUSH1 0x0 DUP1 REVERT JUMPDEST POP PUSH2 0x4A5 PUSH2 0x1699 JUMP JUMPDEST PUSH1 0x40 MLOAD PUSH2 0x4B2 SWAP2 SWAP1 PUSH2 0x2C70 JUMP JUMPDEST PUSH1 0x40 MLOAD DUP1 SWAP2 SUB SWAP1 RETURN JUMPDEST CALLVALUE DUP1 ISZERO PUSH2 0x4C7 JUMPI PUSH1 0x0 DUP1 REVERT JUMPDEST POP PUSH2 0x4E2 PUSH1 0x4 DUP1 CALLDATASIZE SUB DUP2 ADD SWAP1 PUSH2 0x4DD SWAP2 SWAP1 PUSH2 0x27AE JUMP JUMPDEST PUSH2 0x16D1 JUMP JUMPDEST PUSH1 0x40 MLOAD PUSH2 0x4EF SWAP2 SWAP1 PUSH2 0x2651 JUMP JUMPDEST PUSH1 0x40 MLOAD DUP1 SWAP2 SUB SWAP1 RETURN JUMPDEST CALLVALUE DUP1 ISZERO PUSH2 0x504 JUMPI PUSH1 0x0 DUP1 REVERT JUMPDEST POP PUSH2 0x51F PUSH1 0x4 DUP1 CALLDATASIZE SUB DUP2 ADD SWAP1 PUSH2 0x51A SWAP2 SWAP1 PUSH2 0x27AE JUMP JUMPDEST PUSH2 0x16F0 JUMP JUMPDEST STOP JUMPDEST CALLVALUE DUP1 ISZERO PUSH2 0x52D JUMPI PUSH1 0x0 DUP1 REVERT JUMPDEST POP PUSH2 0x536 PUSH2 0x18EE JUMP JUMPDEST PUSH1 0x40 MLOAD PUSH2 0x543 SWAP2 SWAP1 PUSH2 0x2651 JUMP JUMPDEST PUSH1 0x40 MLOAD DUP1 SWAP2 SUB SWAP1 RETURN JUMPDEST CALLVALUE DUP1 ISZERO PUSH2 0x558 JUMPI PUSH1 0x0 DUP1 REVERT JUMPDEST POP PUSH2 0x561 PUSH2 0x18F5 JUMP JUMPDEST STOP JUMPDEST CALLVALUE DUP1 ISZERO PUSH2 0x56F JUMPI PUSH1 0x0 DUP1 REVERT JUMPDEST POP PUSH2 0x58A PUSH1 0x4 DUP1 CALLDATASIZE SUB DUP2 ADD SWAP1 PUSH2 0x585 SWAP2 SWAP1 PUSH2 0x2A1D JUMP JUMPDEST PUSH2 0x193F JUMP JUMPDEST STOP JUMPDEST CALLVALUE DUP1 ISZERO PUSH2 0x598 JUMPI PUSH1 0x0 DUP1 REVERT JUMPDEST POP PUSH2 0x5A1 PUSH2 0x19C5 JUMP JUMPDEST PUSH1 0x40 MLOAD PUSH2 0x5AE SWAP2 SWAP1 PUSH2 0x2651 JUMP JUMPDEST PUSH1 0x40 MLOAD DUP1 SWAP2 SUB SWAP1 RETURN JUMPDEST CALLVALUE DUP1 ISZERO PUSH2 0x5C3 JUMPI PUSH1 0x0 DUP1 REVERT JUMPDEST POP PUSH2 0x5CC PUSH2 0x19CB JUMP JUMPDEST STOP JUMPDEST CALLVALUE DUP1 ISZERO PUSH2 0x5DA JUMPI PUSH1 0x0 DUP1 REVERT JUMPDEST POP PUSH2 0x5F5 PUSH1 0x4 DUP1 CALLDATASIZE SUB DUP2 ADD SWAP1 PUSH2 0x5F0 SWAP2 SWAP1 PUSH2 0x25DC JUMP JUMPDEST PUSH2 0x1AEC JUMP JUMPDEST PUSH1 0x40 MLOAD PUSH2 0x602 SWAP2 SWAP1 PUSH2 0x2651 JUMP JUMPDEST PUSH1 0x40 MLOAD DUP1 SWAP2 SUB SWAP1 RETURN JUMPDEST PUSH1 0x0 DUP1 DUP3 PUSH1 0x40 MLOAD PUSH1 0x20 ADD PUSH2 0x61F SWAP2 SWAP1 PUSH2 0x2CC7 JUMP JUMPDEST PUSH1 0x40 MLOAD PUSH1 0x20 DUP2 DUP4 SUB SUB DUP2 MSTORE SWAP1 PUSH1 0x40 MSTORE DUP1 MLOAD SWAP1 PUSH1 0x20 ADD KECCAK256 SWAP1 POP PUSH1 0x0 DUP1 DUP6 DUP2 MSTORE PUSH1 0x20 ADD SWAP1 DUP2 MSTORE PUSH1 0x20 ADD PUSH1 0x0 KECCAK256 PUSH1 0x7 ADD PUSH1 0x0 DUP3 DUP2 MSTORE PUSH1 0x20 ADD SWAP1 DUP2 MSTORE PUSH1 0x20 ADD PUSH1 0x0 KECCAK256 SLOAD SWAP2 POP POP SWAP3 SWAP2 POP POP JUMP JUMPDEST PUSH2 0x66F PUSH2 0x1B48 JUMP JUMPDEST PUSH1 0x2 PUSH1 0x0 SWAP1 SLOAD SWAP1 PUSH2 0x100 EXP SWAP1 DIV PUSH20 0xFFFFFFFFFFFFFFFFFFFFFFFFFFFFFFFFFFFFFFFF AND PUSH20 0xFFFFFFFFFFFFFFFFFFFFFFFFFFFFFFFFFFFFFFFF AND CALLER PUSH20 0xFFFFFFFFFFFFFFFFFFFFFFFFFFFFFFFFFFFFFFFF AND EQ PUSH2 0x6F6 JUMPI PUSH1 0x40 MLOAD PUSH32 0xD342CBFF00000000000000000000000000000000000000000000000000000000 DUP2 MSTORE PUSH1 0x4 ADD PUSH1 0x40 MLOAD DUP1 SWAP2 SUB SWAP1 REVERT JUMPDEST PUSH1 0x3 PUSH1 0x0 DUP4 DUP2 MSTORE PUSH1 0x20 ADD SWAP1 DUP2 MSTORE PUSH1 0x20 ADD PUSH1 0x0 KECCAK256 PUSH1 0x0 SWAP1 SLOAD SWAP1 PUSH2 0x100 EXP SWAP1 DIV PUSH1 0xFF AND PUSH2 0x74D JUMPI PUSH1 0x40 MLOAD PUSH32 0x139D566400000000000000000000000000000000000000000000000000000000 DUP2 MSTORE PUSH1 0x4 ADD PUSH1 0x40 MLOAD DUP1 SWAP2 SUB SWAP1 REVERT JUMPDEST PUSH1 0x0 DUP1 PUSH1 0x0 DUP5 DUP2 MSTORE PUSH1 0x20 ADD SWAP1 DUP2 MSTORE PUSH1 0x20 ADD PUSH1 0x0 KECCAK256 SWAP1 POP PUSH1 0x0 DUP1 SHL DUP2 PUSH1 0x0 ADD SLOAD SUB PUSH2 0x7A3 JUMPI PUSH1 0x40 MLOAD PUSH32 0x3D3CEF6A00000000000000000000000000000000000000000000000000000000 DUP2 MSTORE PUSH1 0x4 ADD PUSH1 0x40 MLOAD DUP1 SWAP2 SUB SWAP1 REVERT JUMPDEST DUP1 PUSH1 0x2 ADD PUSH1 0x0 SWAP1 SLOAD SWAP1 PUSH2 0x100 EXP SWAP1 DIV PUSH1 0xFF AND ISZERO PUSH2 0x7EC JUMPI PUSH1 0x40 MLOAD PUSH32 0x9AA0B8BD00000000000000000000000000000000000000000000000000000000 DUP2 MSTORE PUSH1 0x4 ADD PUSH1 0x40 MLOAD DUP1 SWAP2 SUB SWAP1 REVERT JUMPDEST PUSH2 0x7F6 DUP4 DUP4 PUSH2 0x1B89 JUMP JUMPDEST DUP3 PUSH32 0x577B6860EC2AF75814BD1D732A479F5787676F4012AFBC91228827A4B7F2E5A4 PUSH1 0x40 MLOAD PUSH1 0x40 MLOAD DUP1 SWAP2 SUB SWAP1 LOG2 POP POP POP JUMP JUMPDEST PUSH1 0x60 PUSH1 0x0 DUP1 PUSH1 0x0 DUP5 DUP2 MSTORE PUSH1 0x20 ADD SWAP1 DUP2 MSTORE PUSH1 0x20 ADD PUSH1 0x0 KECCAK256 SWAP1 POP DUP1 PUSH1 0x8 ADD DUP1 SLOAD DUP1 PUSH1 0x20 MUL PUSH1 0x20 ADD PUSH1 0x40 MLOAD SWAP1 DUP2 ADD PUSH1 0x40 MSTORE DUP1 SWAP3 SWAP2 SWAP1 DUP2 DUP2 MSTORE PUSH1 0x20 ADD PUSH1 0x0 SWAP1 JUMPDEST DUP3 DUP3 LT ISZERO PUSH2 0x992 JUMPI DUP4 DUP3 SWAP1 PUSH1 0x0 MSTORE PUSH1 0x20 PUSH1 0x0 KECCAK256 SWAP1 PUSH1 0x4 MUL ADD PUSH1 0x40 MLOAD DUP1 PUSH1 0x80 ADD PUSH1 0x40 MSTORE SWAP1 DUP2 PUSH1 0x0 DUP3 ADD PUSH1 0x0 SWAP1 SLOAD SWAP1 PUSH2 0x100 EXP SWAP1 DIV PUSH20 0xFFFFFFFFFFFFFFFFFFFFFFFFFFFFFFFFFFFFFFFF AND PUSH20 0xFFFFFFFFFFFFFFFFFFFFFFFFFFFFFFFFFFFFFFFF AND PUSH20 0xFFFFFFFFFFFFFFFFFFFFFFFFFFFFFFFFFFFFFFFF AND DUP2 MSTORE PUSH1 0x20 ADD PUSH1 0x1 DUP3 ADD SLOAD DUP2 MSTORE PUSH1 0x20 ADD PUSH1 0x2 DUP3 ADD DUP1 SLOAD PUSH2 0x8F7 SWAP1 PUSH2 0x2D0D JUMP JUMPDEST DUP1 PUSH1 0x1F ADD PUSH1 0x20 DUP1 SWAP2 DIV MUL PUSH1 0x20 ADD PUSH1 0x40 MLOAD SWAP1 DUP2 ADD PUSH1 0x40 MSTORE DUP1 SWAP3 SWAP2 SWAP1 DUP2 DUP2 MSTORE PUSH1 0x20 ADD DUP3 DUP1 SLOAD PUSH2 0x923 SWAP1 PUSH2 0x2D0D JUMP JUMPDEST DUP1 ISZERO PUSH2 0x970 JUMPI DUP1 PUSH1 0x1F LT PUSH2 0x945 JUMPI PUSH2 0x100 DUP1 DUP4 SLOAD DIV MUL DUP4 MSTORE SWAP2 PUSH1 0x20 ADD SWAP2 PUSH2 0x970 JUMP JUMPDEST DUP3 ADD SWAP2 SWAP1 PUSH1 0x0 MSTORE PUSH1 0x20 PUSH1 0x0 KECCAK256 SWAP1 JUMPDEST DUP2 SLOAD DUP2 MSTORE SWAP1 PUSH1 0x1 ADD SWAP1 PUSH1 0x20 ADD DUP1 DUP4 GT PUSH2 0x953 JUMPI DUP3 SWAP1 SUB PUSH1 0x1F AND DUP3 ADD SWAP2 JUMPDEST POP POP POP POP POP DUP2 MSTORE PUSH1 0x20 ADD PUSH1 0x3 DUP3 ADD SLOAD DUP2 MSTORE POP POP DUP2 MSTORE PUSH1 0x20 ADD SWAP1 PUSH1 0x1 ADD SWAP1 PUSH2 0x864 JUMP JUMPDEST POP POP POP POP SWAP2 POP POP SWAP2 SWAP1 POP JUMP JUMPDEST PUSH3 0x2A300 DUP2 JUMP JUMPDEST PUSH2 0x9AD PUSH2 0x1DFE JUMP JUMPDEST PUSH2 0x9B5 PUSH2 0x14CC JUMP JUMPDEST ISZERO PUSH2 0x9C7 JUMPI PUSH2 0x9C2 PUSH2 0x1E85 JUMP JUMPDEST PUSH2 0x9D0 JUMP JUMPDEST PUSH2 0x9CF PUSH2 0x1EF7 JUMP JUMPDEST JUMPDEST JUMP JUMPDEST PUSH2 0x9DA PUSH2 0x1DFE JUMP JUMPDEST PUSH1 0x0 PUSH20 0xFFFFFFFFFFFFFFFFFFFFFFFFFFFFFFFFFFFFFFFF AND DUP2 PUSH20 0xFFFFFFFFFFFFFFFFFFFFFFFFFFFFFFFFFFFFFFFF AND SUB PUSH2 0xA40 JUMPI PUSH1 0x40 MLOAD PUSH32 0x5521068100000000000000000000000000000000000000000000000000000000 DUP2 MSTORE PUSH1 0x4 ADD PUSH1 0x40 MLOAD DUP1 SWAP2 SUB SWAP1 REVERT JUMPDEST DUP1 PUSH1 0x2 PUSH1 0x0 PUSH2 0x100 EXP DUP2 SLOAD DUP2 PUSH20 0xFFFFFFFFFFFFFFFFFFFFFFFFFFFFFFFFFFFFFFFF MUL NOT AND SWAP1 DUP4 PUSH20 0xFFFFFFFFFFFFFFFFFFFFFFFFFFFFFFFFFFFFFFFF AND MUL OR SWAP1 SSTORE POP PUSH32 0x3DF77BEB5DB05FCDD70A30FC8ADF3F83F9501B68579455ADBD100B8180940394 DUP2 PUSH1 0x40 MLOAD PUSH2 0xAB0 SWAP2 SWAP1 PUSH2 0x2C70 JUMP JUMPDEST PUSH1 0x40 MLOAD DUP1 SWAP2 SUB SWAP1 LOG1 POP JUMP JUMPDEST PUSH2 0xAC3 PUSH2 0x1B48 JUMP JUMPDEST PUSH2 0xACB PUSH2 0x1F69 JUMP JUMPDEST PUSH1 0x0 DUP1 PUSH1 0x0 DUP5 DUP2 MSTORE PUSH1 0x20 ADD SWAP1 DUP2 MSTORE PUSH1 0x20 ADD PUSH1 0x0 KECCAK256 SWAP1 POP PUSH1 0x0 DUP1 SHL DUP2 PUSH1 0x0 ADD SLOAD SUB PUSH2 0xB21 JUMPI PUSH1 0x40 MLOAD PUSH32 0x3D3CEF6A00000000000000000000000000000000000000000000000000000000 DUP2 MSTORE PUSH1 0x4 ADD PUSH1 0x40 MLOAD DUP1 SWAP2 SUB SWAP1 REVERT JUMPDEST DUP1 PUSH1 0x2 ADD PUSH1 0x0 SWAP1 SLOAD SWAP1 PUSH2 0x100 EXP SWAP1 DIV PUSH1 0xFF AND DUP1 PUSH2 0xB43 JUMPI POP PUSH2 0xB42 DUP4 PUSH2 0x1549 JUMP JUMPDEST JUMPDEST ISZERO PUSH2 0xB7A JUMPI PUSH1 0x40 MLOAD PUSH32 0x61C54C4A00000000000000000000000000000000000000000000000000000000 DUP2 MSTORE PUSH1 0x4 ADD PUSH1 0x40 MLOAD DUP1 SWAP2 SUB SWAP1 REVERT JUMPDEST PUSH1 0x0 DUP3 PUSH1 0x40 MLOAD PUSH1 0x20 ADD PUSH2 0xB8D SWAP2 SWAP1 PUSH2 0x2CC7 JUMP JUMPDEST PUSH1 0x40 MLOAD PUSH1 0x20 DUP2 DUP4 SUB SUB DUP2 MSTORE SWAP1 PUSH1 0x40 MSTORE DUP1 MLOAD SWAP1 PUSH1 0x20 ADD KECCAK256 SWAP1 POP PUSH1 0x0 DUP3 PUSH1 0x7 ADD PUSH1 0x0 DUP4 DUP2 MSTORE PUSH1 0x20 ADD SWAP1 DUP2 MSTORE PUSH1 0x20 ADD PUSH1 0x0 KECCAK256 SLOAD SWAP1 POP PUSH1 0x0 DUP2 SUB PUSH2 0xBF9 JUMPI PUSH1 0x40 MLOAD PUSH32 0x59BDD61600000000000000000000000000000000000000000000000000000000 DUP2 MSTORE PUSH1 0x4 ADD PUSH1 0x40 MLOAD DUP1 SWAP2 SUB SWAP1 REVERT JUMPDEST CALLVALUE DUP4 PUSH1 0x3 ADD PUSH1 0x0 DUP3 DUP3 SLOAD PUSH2 0xC0D SWAP2 SWAP1 PUSH2 0x2D6D JUMP JUMPDEST SWAP3 POP POP DUP2 SWAP1 SSTORE POP CALLVALUE DUP4 PUSH1 0x5 ADD PUSH1 0x0 DUP5 DUP2 MSTORE PUSH1 0x20 ADD SWAP1 DUP2 MSTORE PUSH1 0x20 ADD PUSH1 0x0 KECCAK256 PUSH1 0x0 DUP3 DUP3 SLOAD PUSH2 0xC39 SWAP2 SWAP1 PUSH2 0x2D6D JUMP JUMPDEST SWAP3 POP POP DUP2 SWAP1 SSTORE POP DUP3 PUSH1 0x8 ADD PUSH1 0x40 MLOAD DUP1 PUSH1 0x80 ADD PUSH1 0x40 MSTORE DUP1 CALLER PUSH20 0xFFFFFFFFFFFFFFFFFFFFFFFFFFFFFFFFFFFFFFFF AND DUP2 MSTORE PUSH1 0x20 ADD CALLVALUE DUP2 MSTORE PUSH1 0x20 ADD DUP7 DUP2 MSTORE PUSH1 0x20 ADD DUP4 DUP2 MSTORE POP SWAP1 DUP1 PUSH1 0x1 DUP2 SLOAD ADD DUP1 DUP3 SSTORE DUP1 SWAP2 POP POP PUSH1 0x1 SWAP1 SUB SWAP1 PUSH1 0x0 MSTORE PUSH1 0x20 PUSH1 0x0 KECCAK256 SWAP1 PUSH1 0x4 MUL ADD PUSH1 0x0 SWAP1 SWAP2 SWAP1 SWAP2 SWAP1 SWAP2 POP PUSH1 0x0 DUP3 ADD MLOAD DUP2 PUSH1 0x0 ADD PUSH1 0x0 PUSH2 0x100 EXP DUP2 SLOAD DUP2 PUSH20 0xFFFFFFFFFFFFFFFFFFFFFFFFFFFFFFFFFFFFFFFF MUL NOT AND SWAP1 DUP4 PUSH20 0xFFFFFFFFFFFFFFFFFFFFFFFFFFFFFFFFFFFFFFFF AND MUL OR SWAP1 SSTORE POP PUSH1 0x20 DUP3 ADD MLOAD DUP2 PUSH1 0x1 ADD SSTORE PUSH1 0x40 DUP3 ADD MLOAD DUP2 PUSH1 0x2 ADD SWAP1 DUP2 PUSH2 0xD0A SWAP2 SWAP1 PUSH2 0x2F43 JUMP JUMPDEST POP PUSH1 0x60 DUP3 ADD MLOAD DUP2 PUSH1 0x3 ADD SSTORE POP POP DUP5 CALLER PUSH20 0xFFFFFFFFFFFFFFFFFFFFFFFFFFFFFFFFFFFFFFFF AND PUSH32 0x48FC46CBCCDD1929E80DD1CFD9CD0E841CF8A54F6DDE1807225608686A8E6F75 DUP7 CALLVALUE PUSH1 0x40 MLOAD PUSH2 0xD60 SWAP3 SWAP2 SWAP1 PUSH2 0x3015 JUMP JUMPDEST PUSH1 0x40 MLOAD DUP1 SWAP2 SUB SWAP1 LOG3 POP POP POP PUSH2 0xD73 PUSH2 0x1FC0 JUMP JUMPDEST POP POP JUMP JUMPDEST PUSH2 0xD7F PUSH2 0x1B48 JUMP JUMPDEST PUSH2 0xD87 PUSH2 0x1F69 JUMP JUMPDEST PUSH1 0x2 PUSH1 0x0 SWAP1 SLOAD SWAP1 PUSH2 0x100 EXP SWAP1 DIV PUSH20 0xFFFFFFFFFFFFFFFFFFFFFFFFFFFFFFFFFFFFFFFF AND PUSH20 0xFFFFFFFFFFFFFFFFFFFFFFFFFFFFFFFFFFFFFFFF AND CALLER PUSH20 0xFFFFFFFFFFFFFFFFFFFFFFFFFFFFFFFFFFFFFFFF AND EQ PUSH2 0xE0E JUMPI PUSH1 0x40 MLOAD PUSH32 0xD342CBFF00000000000000000000000000000000000000000000000000000000 DUP2 MSTORE PUSH1 0x4 ADD PUSH1 0x40 MLOAD DUP1 SWAP2 SUB SWAP1 REVERT JUMPDEST PUSH1 0x0 DUP1 PUSH1 0x0 DUP5 DUP2 MSTORE PUSH1 0x20 ADD SWAP1 DUP2 MSTORE PUSH1 0x20 ADD PUSH1 0x0 KECCAK256 SWAP1 POP PUSH1 0x0 DUP1 SHL DUP2 PUSH1 0x0 ADD SLOAD SUB PUSH2 0xE64 JUMPI PUSH1 0x40 MLOAD PUSH32 0x3D3CEF6A00000000000000000000000000000000000000000000000000000000 DUP2 MSTORE PUSH1 0x4 ADD PUSH1 0x40 MLOAD DUP1 SWAP2 SUB SWAP1 REVERT JUMPDEST DUP1 PUSH1 0x2 ADD PUSH1 0x0 SWAP1 SLOAD SWAP1 PUSH2 0x100 EXP SWAP1 DIV PUSH1 0xFF AND ISZERO PUSH2 0xEAD JUMPI PUSH1 0x40 MLOAD PUSH32 0x61C54C4A00000000000000000000000000000000000000000000000000000000 DUP2 MSTORE PUSH1 0x4 ADD PUSH1 0x40 MLOAD DUP1 SWAP2 SUB SWAP1 REVERT JUMPDEST DUP2 DUP2 PUSH1 0x1 ADD SWAP1 DUP2 PUSH2 0xEBE SWAP2 SWAP1 PUSH2 0x2F43 JUMP JUMPDEST POP PUSH1 0x1 DUP2 PUSH1 0x2 ADD PUSH1 0x0 PUSH2 0x100 EXP DUP2 SLOAD DUP2 PUSH1 0xFF MUL NOT AND SWAP1 DUP4 ISZERO ISZERO MUL OR SWAP1 SSTORE POP PUSH1 0x0 DUP3 PUSH1 0x40 MLOAD PUSH1 0x20 ADD PUSH2 0xEEF SWAP2 SWAP1 PUSH2 0x2CC7 JUMP JUMPDEST PUSH1 0x40 MLOAD PUSH1 0x20 DUP2 DUP4 SUB SUB DUP2 MSTORE SWAP1 PUSH1 0x40 MSTORE DUP1 MLOAD SWAP1 PUSH1 0x20 ADD KECCAK256 SWAP1 POP PUSH1 0x0 JUMPDEST DUP3 PUSH1 0x8 ADD DUP1 SLOAD SWAP1 POP DUP2 LT ISZERO PUSH2 0x1010 JUMPI PUSH1 0x0 DUP4 PUSH1 0x8 ADD DUP3 DUP2 SLOAD DUP2 LT PUSH2 0xF31 JUMPI PUSH2 0xF30 PUSH2 0x3045 JUMP JUMPDEST JUMPDEST SWAP1 PUSH1 0x0 MSTORE PUSH1 0x20 PUSH1 0x0 KECCAK256 SWAP1 PUSH1 0x4 MUL ADD SWAP1 POP DUP3 DUP2 PUSH1 0x2 ADD PUSH1 0x40 MLOAD PUSH1 0x20 ADD PUSH2 0xF56 SWAP2 SWAP1 PUSH2 0x30F7 JUMP JUMPDEST PUSH1 0x40 MLOAD PUSH1 0x20 DUP2 DUP4 SUB SUB DUP2 MSTORE SWAP1 PUSH1 0x40 MSTORE DUP1 MLOAD SWAP1 PUSH1 0x20 ADD KECCAK256 SUB PUSH2 0x1002 JUMPI PUSH1 0x0 PUSH1 0x64 DUP3 PUSH1 0x3 ADD SLOAD DUP4 PUSH1 0x1 ADD SLOAD PUSH2 0xF89 SWAP2 SWAP1 PUSH2 0x310E JUMP JUMPDEST PUSH2 0xF93 SWAP2 SWAP1 PUSH2 0x317F JUMP JUMPDEST SWAP1 POP DUP2 PUSH1 0x0 ADD PUSH1 0x0 SWAP1 SLOAD SWAP1 PUSH2 0x100 EXP SWAP1 DIV PUSH20 0xFFFFFFFFFFFFFFFFFFFFFFFFFFFFFFFFFFFFFFFF AND PUSH20 0xFFFFFFFFFFFFFFFFFFFFFFFFFFFFFFFFFFFFFFFF AND PUSH2 0x8FC DUP3 SWAP1 DUP2 ISZERO MUL SWAP1 PUSH1 0x40 MLOAD PUSH1 0x0 PUSH1 0x40 MLOAD DUP1 DUP4 SUB DUP2 DUP6 DUP9 DUP9 CALL SWAP4 POP POP POP POP ISZERO DUP1 ISZERO PUSH2 0xFFF JUMPI RETURNDATASIZE PUSH1 0x0 DUP1 RETURNDATACOPY RETURNDATASIZE PUSH1 0x0 REVERT JUMPDEST POP POP JUMPDEST POP DUP1 DUP1 PUSH1 0x1 ADD SWAP2 POP POP PUSH2 0xF0A JUMP JUMPDEST POP DUP4 PUSH32 0x5B38D8D0276A7822A40028770C59E835FF41A84CF7EF75D0CA61374DD2114B2 DUP5 PUSH1 0x40 MLOAD PUSH2 0x1041 SWAP2 SWAP1 PUSH2 0x31B0 JUMP JUMPDEST PUSH1 0x40 MLOAD DUP1 SWAP2 SUB SWAP1 LOG2 DUP4 PUSH32 0x7FA0AF01D1013CD4A40114E18D6BE90C73E0906187E6BD1F851ACC747E364753 PUSH1 0x40 MLOAD PUSH1 0x40 MLOAD DUP1 SWAP2 SUB SWAP1 LOG2 POP POP PUSH2 0x1080 PUSH2 0x1FC0 JUMP JUMPDEST POP POP JUMP JUMPDEST PUSH1 0x0 PUSH2 0x108E PUSH2 0x1FD9 JUMP JUMPDEST SWAP1 POP PUSH1 0x0 DUP2 PUSH1 0x0 ADD PUSH1 0x8 SWAP1 SLOAD SWAP1 PUSH2 0x100 EXP SWAP1 DIV PUSH1 0xFF AND ISZERO SWAP1 POP PUSH1 0x0 DUP3 PUSH1 0x0 ADD PUSH1 0x0 SWAP1 SLOAD SWAP1 PUSH2 0x100 EXP SWAP1 DIV PUSH8 0xFFFFFFFFFFFFFFFF AND SWAP1 POP PUSH1 0x0 DUP1 DUP3 PUSH8 0xFFFFFFFFFFFFFFFF AND EQ DUP1 ISZERO PUSH2 0x10DC JUMPI POP DUP3 JUMPDEST SWAP1 POP PUSH1 0x0 PUSH1 0x1 DUP4 PUSH8 0xFFFFFFFFFFFFFFFF AND EQ DUP1 ISZERO PUSH2 0x1111 JUMPI POP PUSH1 0x0 ADDRESS PUSH20 0xFFFFFFFFFFFFFFFFFFFFFFFFFFFFFFFFFFFFFFFF AND EXTCODESIZE EQ JUMPDEST SWAP1 POP DUP2 ISZERO DUP1 ISZERO PUSH2 0x111F JUMPI POP DUP1 ISZERO JUMPDEST ISZERO PUSH2 0x1156 JUMPI PUSH1 0x40 MLOAD PUSH32 0xF92EE8A900000000000000000000000000000000000000000000000000000000 DUP2 MSTORE PUSH1 0x4 ADD PUSH1 0x40 MLOAD DUP1 SWAP2 SUB SWAP1 REVERT JUMPDEST PUSH1 0x1 DUP6 PUSH1 0x0 ADD PUSH1 0x0 PUSH2 0x100 EXP DUP2 SLOAD DUP2 PUSH8 0xFFFFFFFFFFFFFFFF MUL NOT AND SWAP1 DUP4 PUSH8 0xFFFFFFFFFFFFFFFF AND MUL OR SWAP1 SSTORE POP DUP4 ISZERO PUSH2 0x11A6 JUMPI PUSH1 0x1 DUP6 PUSH1 0x0 ADD PUSH1 0x8 PUSH2 0x100 EXP DUP2 SLOAD DUP2 PUSH1 0xFF MUL NOT AND SWAP1 DUP4 ISZERO ISZERO MUL OR SWAP1 SSTORE POP JUMPDEST PUSH2 0x11AF DUP8 PUSH2 0x2001 JUMP JUMPDEST PUSH2 0x11B7 PUSH2 0x2015 JUMP JUMPDEST PUSH2 0x11BF PUSH2 0x2027 JUMP JUMPDEST DUP6 PUSH1 0x2 PUSH1 0x0 PUSH2 0x100 EXP DUP2 SLOAD DUP2 PUSH20 0xFFFFFFFFFFFFFFFFFFFFFFFFFFFFFFFFFFFFFFFF MUL NOT AND SWAP1 DUP4 PUSH20 0xFFFFFFFFFFFFFFFFFFFFFFFFFFFFFFFFFFFFFFFF AND MUL OR SWAP1 SSTORE POP PUSH1 0x0 PUSH1 0x40 MLOAD DUP1 PUSH2 0x100 ADD PUSH1 0x40 MSTORE DUP1 PUSH32 0x5757000000000000000000000000000000000000000000000000000000000000 DUP2 MSTORE PUSH1 0x20 ADD PUSH32 0x4252000000000000000000000000000000000000000000000000000000000000 DUP2 MSTORE PUSH1 0x20 ADD PUSH32 0x4445000000000000000000000000000000000000000000000000000000000000 DUP2 MSTORE PUSH1 0x20 ADD PUSH32 0x4553000000000000000000000000000000000000000000000000000000000000 DUP2 MSTORE PUSH1 0x20 ADD PUSH32 0x4652000000000000000000000000000000000000000000000000000000000000 DUP2 MSTORE PUSH1 0x20 ADD PUSH32 0x4954000000000000000000000000000000000000000000000000000000000000 DUP2 MSTORE PUSH1 0x20 ADD PUSH32 0x5054000000000000000000000000000000000000000000000000000000000000 DUP2 MSTORE PUSH1 0x20 ADD PUSH32 0x5553000000000000000000000000000000000000000000000000000000000000 DUP2 MSTORE POP SWAP1 POP PUSH1 0x0 JUMPDEST PUSH1 0x8 DUP2 LT ISZERO PUSH2 0x139A JUMPI PUSH1 0x1 PUSH1 0x3 PUSH1 0x0 DUP5 DUP5 PUSH1 0x8 DUP2 LT PUSH2 0x1363 JUMPI PUSH2 0x1362 PUSH2 0x3045 JUMP JUMPDEST JUMPDEST PUSH1 0x20 MUL ADD MLOAD DUP2 MSTORE PUSH1 0x20 ADD SWAP1 DUP2 MSTORE PUSH1 0x20 ADD PUSH1 0x0 KECCAK256 PUSH1 0x0 PUSH2 0x100 EXP DUP2 SLOAD DUP2 PUSH1 0xFF MUL NOT AND SWAP1 DUP4 ISZERO ISZERO MUL OR SWAP1 SSTORE POP DUP1 DUP1 PUSH1 0x1 ADD SWAP2 POP POP PUSH2 0x1341 JUMP JUMPDEST POP POP DUP4 ISZERO PUSH2 0x13F8 JUMPI PUSH1 0x0 DUP6 PUSH1 0x0 ADD PUSH1 0x8 PUSH2 0x100 EXP DUP2 SLOAD DUP2 PUSH1 0xFF MUL NOT AND SWAP1 DUP4 ISZERO ISZERO MUL OR SWAP1 SSTORE POP PUSH32 0xC7F505B2F371AE2175EE4913F4499E1F2633A7B5936321EED1CDAEB6115181D2 PUSH1 0x1 PUSH1 0x40 MLOAD PUSH2 0x13EF SWAP2 SWAP1 PUSH2 0x3221 JUMP JUMPDEST PUSH1 0x40 MLOAD DUP1 SWAP2 SUB SWAP1 LOG1 JUMPDEST POP POP POP POP POP POP POP JUMP JUMPDEST PUSH1 0x0 PUSH1 0x20 MSTORE DUP1 PUSH1 0x0 MSTORE PUSH1 0x40 PUSH1 0x0 KECCAK256 PUSH1 0x0 SWAP2 POP SWAP1 POP DUP1 PUSH1 0x0 ADD SLOAD SWAP1 DUP1 PUSH1 0x1 ADD DUP1 SLOAD PUSH2 0x142A SWAP1 PUSH2 0x2D0D JUMP JUMPDEST DUP1 PUSH1 0x1F ADD PUSH1 0x20 DUP1 SWAP2 DIV MUL PUSH1 0x20 ADD PUSH1 0x40 MLOAD SWAP1 DUP2 ADD PUSH1 0x40 MSTORE DUP1 SWAP3 SWAP2 SWAP1 DUP2 DUP2 MSTORE PUSH1 0x20 ADD DUP3 DUP1 SLOAD PUSH2 0x1456 SWAP1 PUSH2 0x2D0D JUMP JUMPDEST DUP1 ISZERO PUSH2 0x14A3 JUMPI DUP1 PUSH1 0x1F LT PUSH2 0x1478 JUMPI PUSH2 0x100 DUP1 DUP4 SLOAD DIV MUL DUP4 MSTORE SWAP2 PUSH1 0x20 ADD SWAP2 PUSH2 0x14A3 JUMP JUMPDEST DUP3 ADD SWAP2 SWAP1 PUSH1 0x0 MSTORE PUSH1 0x20 PUSH1 0x0 KECCAK256 SWAP1 JUMPDEST DUP2 SLOAD DUP2 MSTORE SWAP1 PUSH1 0x1 ADD SWAP1 PUSH1 0x20 ADD DUP1 DUP4 GT PUSH2 0x1486 JUMPI DUP3 SWAP1 SUB PUSH1 0x1F AND DUP3 ADD SWAP2 JUMPDEST POP POP POP POP POP SWAP1 DUP1 PUSH1 0x2 ADD PUSH1 0x0 SWAP1 SLOAD SWAP1 PUSH2 0x100 EXP SWAP1 DIV PUSH1 0xFF AND SWAP1 DUP1 PUSH1 0x3 ADD SLOAD SWAP1 DUP1 PUSH1 0x4 ADD SLOAD SWAP1 POP DUP6 JUMP JUMPDEST PUSH1 0x0 DUP1 PUSH2 0x14D7 PUSH2 0x2039 JUMP JUMPDEST SWAP1 POP DUP1 PUSH1 0x0 ADD PUSH1 0x0 SWAP1 SLOAD SWAP1 PUSH2 0x100 EXP SWAP1 DIV PUSH1 0xFF AND SWAP2 POP POP SWAP1 JUMP JUMPDEST PUSH1 0x3 PUSH1 0x20 MSTORE DUP1 PUSH1 0x0 MSTORE PUSH1 0x40 PUSH1 0x0 KECCAK256 PUSH1 0x0 SWAP2 POP SLOAD SWAP1 PUSH2 0x100 EXP SWAP1 DIV PUSH1 0xFF AND DUP2 JUMP JUMPDEST PUSH1 0x1 DUP2 DUP2 SLOAD DUP2 LT PUSH2 0x1521 JUMPI PUSH1 0x0 DUP1 REVERT JUMPDEST SWAP1 PUSH1 0x0 MSTORE PUSH1 0x20 PUSH1 0x0 KECCAK256 ADD PUSH1 0x0 SWAP2 POP SWAP1 POP SLOAD DUP2 JUMP JUMPDEST PUSH2 0x153D PUSH2 0x1DFE JUMP JUMPDEST PUSH2 0x1547 PUSH1 0x0 PUSH2 0x2061 JUMP JUMPDEST JUMP JUMPDEST PUSH1 0x0 DUP1 PUSH1 0x0 DUP1 DUP5 DUP2 MSTORE PUSH1 0x20 ADD SWAP1 DUP2 MSTORE PUSH1 0x20 ADD PUSH1 0x0 KECCAK256 SWAP1 POP PUSH3 0x93A80 DUP2 PUSH1 0x4 ADD SLOAD PUSH2 0x1573 SWAP2 SWAP1 PUSH2 0x2D6D JUMP JUMPDEST TIMESTAMP LT ISZERO SWAP2 POP POP SWAP2 SWAP1 POP JUMP JUMPDEST PUSH2 0x1586 PUSH2 0x1DFE JUMP JUMPDEST PUSH1 0x0 DUP1 PUSH1 0x0 DUP4 DUP2 MSTORE PUSH1 0x20 ADD SWAP1 DUP2 MSTORE PUSH1 0x20 ADD PUSH1 0x0 KECCAK256 SWAP1 POP PUSH1 0x0 DUP1 SHL DUP2 PUSH1 0x0 ADD SLOAD SUB PUSH2 0x15DC JUMPI PUSH1 0x40 MLOAD PUSH32 0x3D3CEF6A00000000000000000000000000000000000000000000000000000000 DUP2 MSTORE PUSH1 0x4 ADD PUSH1 0x40 MLOAD DUP1 SWAP2 SUB SWAP1 REVERT JUMPDEST DUP1 PUSH1 0x2 ADD PUSH1 0x0 SWAP1 SLOAD SWAP1 PUSH2 0x100 EXP SWAP1 DIV PUSH1 0xFF AND ISZERO PUSH2 0x1625 JUMPI PUSH1 0x40 MLOAD PUSH32 0x9AA0B8BD00000000000000000000000000000000000000000000000000000000 DUP2 MSTORE PUSH1 0x4 ADD PUSH1 0x40 MLOAD DUP1 SWAP2 SUB SWAP1 REVERT JUMPDEST PUSH1 0x1 DUP2 PUSH1 0x2 ADD PUSH1 0x0 PUSH2 0x100 EXP DUP2 SLOAD DUP2 PUSH1 0xFF MUL NOT AND SWAP1 DUP4 ISZERO ISZERO MUL OR SWAP1 SSTORE POP DUP2 PUSH32 0x7FA0AF01D1013CD4A40114E18D6BE90C73E0906187E6BD1F851ACC747E364753 PUSH1 0x40 MLOAD PUSH1 0x40 MLOAD DUP1 SWAP2 SUB SWAP1 LOG2 POP POP JUMP JUMPDEST PUSH1 0x2 PUSH1 0x0 SWAP1 SLOAD SWAP1 PUSH2 0x100 EXP SWAP1 DIV PUSH20 0xFFFFFFFFFFFFFFFFFFFFFFFFFFFFFFFFFFFFFFFF AND DUP2 JUMP JUMPDEST PUSH1 0x0 DUP1 PUSH2 0x16A4 PUSH2 0x2138 JUMP JUMPDEST SWAP1 POP DUP1 PUSH1 0x0 ADD PUSH1 0x0 SWAP1 SLOAD SWAP1 PUSH2 0x100 EXP SWAP1 DIV PUSH20 0xFFFFFFFFFFFFFFFFFFFFFFFFFFFFFFFFFFFFFFFF AND SWAP2 POP POP SWAP1 JUMP JUMPDEST PUSH1 0x0 DUP1 PUSH1 0x0 DUP4 DUP2 MSTORE PUSH1 0x20 ADD SWAP1 DUP2 MSTORE PUSH1 0x20 ADD PUSH1 0x0 KECCAK256 PUSH1 0x3 ADD SLOAD SWAP1 POP SWAP2 SWAP1 POP JUMP JUMPDEST PUSH2 0x16F8 PUSH2 0x1DFE JUMP JUMPDEST PUSH2 0x1700 PUSH2 0x1B48 JUMP JUMPDEST PUSH1 0x3 PUSH1 0x0 DUP3 DUP2 MSTORE PUSH1 0x20 ADD SWAP1 DUP2 MSTORE PUSH1 0x20 ADD PUSH1 0x0 KECCAK256 PUSH1 0x0 SWAP1 SLOAD SWAP1 PUSH2 0x100 EXP SWAP1 DIV PUSH1 0xFF AND PUSH2 0x1757 JUMPI PUSH1 0x40 MLOAD PUSH32 0x139D566400000000000000000000000000000000000000000000000000000000 DUP2 MSTORE PUSH1 0x4 ADD PUSH1 0x40 MLOAD DUP1 SWAP2 SUB SWAP1 REVERT JUMPDEST PUSH1 0x0 DUP1 PUSH1 0x0 DUP4 DUP2 MSTORE PUSH1 0x20 ADD SWAP1 DUP2 MSTORE PUSH1 0x20 ADD PUSH1 0x0 KECCAK256 SWAP1 POP PUSH1 0x0 DUP1 SHL DUP2 PUSH1 0x0 ADD SLOAD EQ PUSH2 0x1844 JUMPI DUP1 PUSH1 0x2 ADD PUSH1 0x0 SWAP1 SLOAD SWAP1 PUSH2 0x100 EXP SWAP1 DIV PUSH1 0xFF AND ISZERO DUP1 ISZERO PUSH2 0x17AB JUMPI POP PUSH3 0x93A80 DUP2 PUSH1 0x4 ADD SLOAD PUSH2 0x17A8 SWAP2 SWAP1 PUSH2 0x2D6D JUMP JUMPDEST TIMESTAMP LT JUMPDEST ISZERO PUSH2 0x17E2 JUMPI PUSH1 0x40 MLOAD PUSH32 0xDBE95FF500000000000000000000000000000000000000000000000000000000 DUP2 MSTORE PUSH1 0x4 ADD PUSH1 0x40 MLOAD DUP1 SWAP2 SUB SWAP1 REVERT JUMPDEST PUSH1 0x0 DUP1 DUP4 DUP2 MSTORE PUSH1 0x20 ADD SWAP1 DUP2 MSTORE PUSH1 0x20 ADD PUSH1 0x0 KECCAK256 PUSH1 0x0 DUP1 DUP3 ADD PUSH1 0x0 SWAP1 SSTORE PUSH1 0x1 DUP3 ADD PUSH1 0x0 PUSH2 0x180D SWAP2 SWAP1 PUSH2 0x236D JUMP JUMPDEST PUSH1 0x2 DUP3 ADD PUSH1 0x0 PUSH2 0x100 EXP DUP2 SLOAD SWAP1 PUSH1 0xFF MUL NOT AND SWAP1 SSTORE PUSH1 0x3 DUP3 ADD PUSH1 0x0 SWAP1 SSTORE PUSH1 0x4 DUP3 ADD PUSH1 0x0 SWAP1 SSTORE PUSH1 0x8 DUP3 ADD PUSH1 0x0 PUSH2 0x1841 SWAP2 SWAP1 PUSH2 0x23AD JUMP JUMPDEST POP POP JUMPDEST PUSH1 0x0 DUP1 PUSH1 0x0 DUP5 DUP2 MSTORE PUSH1 0x20 ADD SWAP1 DUP2 MSTORE PUSH1 0x20 ADD PUSH1 0x0 KECCAK256 SWAP1 POP DUP3 DUP2 PUSH1 0x0 ADD DUP2 SWAP1 SSTORE POP PUSH1 0x0 DUP2 PUSH1 0x2 ADD PUSH1 0x0 PUSH2 0x100 EXP DUP2 SLOAD DUP2 PUSH1 0xFF MUL NOT AND SWAP1 DUP4 ISZERO ISZERO MUL OR SWAP1 SSTORE POP TIMESTAMP DUP2 PUSH1 0x4 ADD DUP2 SWAP1 SSTORE POP PUSH1 0x0 DUP2 PUSH1 0x3 ADD DUP2 SWAP1 SSTORE POP PUSH1 0x1 DUP4 SWAP1 DUP1 PUSH1 0x1 DUP2 SLOAD ADD DUP1 DUP3 SSTORE DUP1 SWAP2 POP POP PUSH1 0x1 SWAP1 SUB SWAP1 PUSH1 0x0 MSTORE PUSH1 0x20 PUSH1 0x0 KECCAK256 ADD PUSH1 0x0 SWAP1 SWAP2 SWAP1 SWAP2 SWAP1 SWAP2 POP SSTORE DUP3 PUSH32 0x73829305E9F70B89111CF588E6D67F7360300700B6ECAED7130C8021D454B491 PUSH1 0x40 MLOAD PUSH1 0x40 MLOAD DUP1 SWAP2 SUB SWAP1 LOG2 POP POP POP JUMP JUMPDEST PUSH3 0x93A80 DUP2 JUMP JUMPDEST PUSH2 0x18FD PUSH2 0x1DFE JUMP JUMPDEST TIMESTAMP PUSH1 0x4 DUP2 SWAP1 SSTORE POP PUSH32 0xAF619DAA033514F6C299197D29548CCD9276A1B55EF717FB80ADF495925DD510 PUSH1 0x4 SLOAD PUSH1 0x40 MLOAD PUSH2 0x1935 SWAP2 SWAP1 PUSH2 0x2651 JUMP JUMPDEST PUSH1 0x40 MLOAD DUP1 SWAP2 SUB SWAP1 LOG1 JUMP JUMPDEST PUSH2 0x1947 PUSH2 0x1DFE JUMP JUMPDEST PUSH1 0x0 PUSH20 0xFFFFFFFFFFFFFFFFFFFFFFFFFFFFFFFFFFFFFFFF AND DUP2 PUSH20 0xFFFFFFFFFFFFFFFFFFFFFFFFFFFFFFFFFFFFFFFF AND SUB PUSH2 0x19B9 JUMPI PUSH1 0x0 PUSH1 0x40 MLOAD PUSH32 0x1E4FBDF700000000000000000000000000000000000000000000000000000000 DUP2 MSTORE PUSH1 0x4 ADD PUSH2 0x19B0 SWAP2 SWAP1 PUSH2 0x2C70 JUMP JUMPDEST PUSH1 0x40 MLOAD DUP1 SWAP2 SUB SWAP1 REVERT JUMPDEST PUSH2 0x19C2 DUP2 PUSH2 0x2061 JUMP JUMPDEST POP JUMP JUMPDEST PUSH1 0x4 SLOAD DUP2 JUMP JUMPDEST PUSH2 0x19D3 PUSH2 0x1DFE JUMP JUMPDEST PUSH3 0x2A300 PUSH1 0x4 SLOAD PUSH2 0x19E4 SWAP2 SWAP1 PUSH2 0x2D6D JUMP JUMPDEST TIMESTAMP LT ISZERO PUSH2 0x1A1D JUMPI PUSH1 0x40 MLOAD PUSH32 0xB95063C200000000000000000000000000000000000000000000000000000000 DUP2 MSTORE PUSH1 0x4 ADD PUSH1 0x40 MLOAD DUP1 SWAP2 SUB SWAP1 REVERT JUMPDEST PUSH1 0x0 SELFBALANCE SUB PUSH2 0x1A57 JUMPI PUSH1 0x40 MLOAD PUSH32 0x67E3990D00000000000000000000000000000000000000000000000000000000 DUP2 MSTORE PUSH1 0x4 ADD PUSH1 0x40 MLOAD DUP1 SWAP2 SUB SWAP1 REVERT JUMPDEST PUSH1 0x0 SELFBALANCE SWAP1 POP PUSH2 0x1A64 PUSH2 0x1699 JUMP JUMPDEST PUSH20 0xFFFFFFFFFFFFFFFFFFFFFFFFFFFFFFFFFFFFFFFF AND PUSH2 0x8FC DUP3 SWAP1 DUP2 ISZERO MUL SWAP1 PUSH1 0x40 MLOAD PUSH1 0x0 PUSH1 0x40 MLOAD DUP1 DUP4 SUB DUP2 DUP6 DUP9 DUP9 CALL SWAP4 POP POP POP POP ISZERO DUP1 ISZERO PUSH2 0x1AA9 JUMPI RETURNDATASIZE PUSH1 0x0 DUP1 RETURNDATACOPY RETURNDATASIZE PUSH1 0x0 REVERT JUMPDEST POP PUSH1 0x0 PUSH1 0x4 DUP2 SWAP1 SSTORE POP PUSH32 0xEAA620B5C98328F5DDB4195C31EADB3E30E7915FCBC9CC1C244441984780C0D2 DUP2 PUSH1 0x40 MLOAD PUSH2 0x1AE1 SWAP2 SWAP1 PUSH2 0x2651 JUMP JUMPDEST PUSH1 0x40 MLOAD DUP1 SWAP2 SUB SWAP1 LOG1 POP JUMP JUMPDEST PUSH1 0x0 DUP1 DUP3 PUSH1 0x40 MLOAD PUSH1 0x20 ADD PUSH2 0x1B00 SWAP2 SWAP1 PUSH2 0x2CC7 JUMP JUMPDEST PUSH1 0x40 MLOAD PUSH1 0x20 DUP2 DUP4 SUB SUB DUP2 MSTORE SWAP1 PUSH1 0x40 MSTORE DUP1 MLOAD SWAP1 PUSH1 0x20 ADD KECCAK256 SWAP1 POP PUSH1 0x0 DUP1 DUP6 DUP2 MSTORE PUSH1 0x20 ADD SWAP1 DUP2 MSTORE PUSH1 0x20 ADD PUSH1 0x0 KECCAK256 PUSH1 0x5 ADD PUSH1 0x0 DUP3 DUP2 MSTORE PUSH1 0x20 ADD SWAP1 DUP2 MSTORE PUSH1 0x20 ADD PUSH1 0x0 KECCAK256 SLOAD SWAP2 POP POP SWAP3 SWAP2 POP POP JUMP JUMPDEST PUSH2 0x1B50 PUSH2 0x14CC JUMP JUMPDEST ISZERO PUSH2 0x1B87 JUMPI PUSH1 0x40 MLOAD PUSH32 0xD93C066500000000000000000000000000000000000000000000000000000000 DUP2 MSTORE PUSH1 0x4 ADD PUSH1 0x40 MLOAD DUP1 SWAP2 SUB SWAP1 REVERT JUMPDEST JUMP JUMPDEST PUSH1 0x0 DUP1 PUSH1 0x0 DUP5 DUP2 MSTORE PUSH1 0x20 ADD SWAP1 DUP2 MSTORE PUSH1 0x20 ADD PUSH1 0x0 KECCAK256 SWAP1 POP PUSH1 0x0 DUP2 PUSH1 0x6 ADD SWAP1 POP PUSH1 0x0 JUMPDEST DUP4 MLOAD DUP2 LT ISZERO PUSH2 0x1C54 JUMPI PUSH1 0x0 DUP5 DUP3 DUP2 MLOAD DUP2 LT PUSH2 0x1BC8 JUMPI PUSH2 0x1BC7 PUSH2 0x3045 JUMP JUMPDEST JUMPDEST PUSH1 0x20 MUL PUSH1 0x20 ADD ADD MLOAD PUSH1 0x40 MLOAD PUSH1 0x20 ADD PUSH2 0x1BE0 SWAP2 SWAP1 PUSH2 0x2CC7 JUMP JUMPDEST PUSH1 0x40 MLOAD PUSH1 0x20 DUP2 DUP4 SUB SUB DUP2 MSTORE SWAP1 PUSH1 0x40 MSTORE DUP1 MLOAD SWAP1 PUSH1 0x20 ADD KECCAK256 SWAP1 POP PUSH1 0x0 DUP5 PUSH1 0x6 ADD PUSH1 0x0 DUP4 DUP2 MSTORE PUSH1 0x20 ADD SWAP1 DUP2 MSTORE PUSH1 0x20 ADD PUSH1 0x0 KECCAK256 DUP2 SWAP1 SSTORE POP PUSH1 0x0 DUP5 PUSH1 0x7 ADD PUSH1 0x0 DUP4 DUP2 MSTORE PUSH1 0x20 ADD SWAP1 DUP2 MSTORE PUSH1 0x20 ADD PUSH1 0x0 KECCAK256 DUP2 SWAP1 SSTORE POP PUSH1 0x0 DUP4 PUSH1 0x0 DUP4 DUP2 MSTORE PUSH1 0x20 ADD SWAP1 DUP2 MSTORE PUSH1 0x20 ADD PUSH1 0x0 KECCAK256 DUP2 SWAP1 SSTORE POP POP DUP1 DUP1 PUSH1 0x1 ADD SWAP2 POP POP PUSH2 0x1BAA JUMP JUMPDEST POP PUSH1 0x0 JUMPDEST DUP4 MLOAD DUP2 LT ISZERO PUSH2 0x1CDC JUMPI PUSH1 0x0 DUP5 DUP3 DUP2 MLOAD DUP2 LT PUSH2 0x1C76 JUMPI PUSH2 0x1C75 PUSH2 0x3045 JUMP JUMPDEST JUMPDEST PUSH1 0x20 MUL PUSH1 0x20 ADD ADD MLOAD PUSH1 0x40 MLOAD PUSH1 0x20 ADD PUSH2 0x1C8E SWAP2 SWAP1 PUSH2 0x2CC7 JUMP JUMPDEST PUSH1 0x40 MLOAD PUSH1 0x20 DUP2 DUP4 SUB SUB DUP2 MSTORE SWAP1 PUSH1 0x40 MSTORE DUP1 MLOAD SWAP1 PUSH1 0x20 ADD KECCAK256 SWAP1 POP DUP3 PUSH1 0x0 DUP3 DUP2 MSTORE PUSH1 0x20 ADD SWAP1 DUP2 MSTORE PUSH1 0x20 ADD PUSH1 0x0 KECCAK256 PUSH1 0x0 DUP2 SLOAD DUP1 SWAP3 SWAP2 SWAP1 PUSH2 0x1CC9 SWAP1 PUSH2 0x323C JUMP JUMPDEST SWAP2 SWAP1 POP SSTORE POP POP DUP1 DUP1 PUSH1 0x1 ADD SWAP2 POP POP PUSH2 0x1C58 JUMP JUMPDEST POP PUSH1 0x0 JUMPDEST DUP4 MLOAD DUP2 LT ISZERO PUSH2 0x1DF7 JUMPI PUSH1 0x0 DUP5 DUP3 DUP2 MLOAD DUP2 LT PUSH2 0x1CFE JUMPI PUSH2 0x1CFD PUSH2 0x3045 JUMP JUMPDEST JUMPDEST PUSH1 0x20 MUL PUSH1 0x20 ADD ADD MLOAD PUSH1 0x40 MLOAD PUSH1 0x20 ADD PUSH2 0x1D16 SWAP2 SWAP1 PUSH2 0x2CC7 JUMP JUMPDEST PUSH1 0x40 MLOAD PUSH1 0x20 DUP2 DUP4 SUB SUB DUP2 MSTORE SWAP1 PUSH1 0x40 MSTORE DUP1 MLOAD SWAP1 PUSH1 0x20 ADD KECCAK256 SWAP1 POP PUSH1 0x0 PUSH1 0x1 DUP4 PUSH2 0x1D3D SWAP2 SWAP1 PUSH2 0x2D6D JUMP JUMPDEST SWAP1 POP DUP1 DUP6 PUSH1 0x6 ADD PUSH1 0x0 DUP5 DUP2 MSTORE PUSH1 0x20 ADD SWAP1 DUP2 MSTORE PUSH1 0x20 ADD PUSH1 0x0 KECCAK256 DUP2 SWAP1 SSTORE POP PUSH1 0x0 PUSH2 0x1D77 DUP3 DUP7 PUSH1 0x0 DUP7 DUP2 MSTORE PUSH1 0x20 ADD SWAP1 DUP2 MSTORE PUSH1 0x20 ADD PUSH1 0x0 KECCAK256 SLOAD PUSH2 0x2160 JUMP JUMPDEST SWAP1 POP DUP1 DUP7 PUSH1 0x7 ADD PUSH1 0x0 DUP6 DUP2 MSTORE PUSH1 0x20 ADD SWAP1 DUP2 MSTORE PUSH1 0x20 ADD PUSH1 0x0 KECCAK256 DUP2 SWAP1 SSTORE POP DUP8 PUSH32 0xC95C35564C411FEAC50A7081834B0AABA8FA88D917DB6F6989E6387E52746C2A DUP9 DUP7 DUP2 MLOAD DUP2 LT PUSH2 0x1DC8 JUMPI PUSH2 0x1DC7 PUSH2 0x3045 JUMP JUMPDEST JUMPDEST PUSH1 0x20 MUL PUSH1 0x20 ADD ADD MLOAD DUP4 PUSH1 0x40 MLOAD PUSH2 0x1DDF SWAP3 SWAP2 SWAP1 PUSH2 0x3015 JUMP JUMPDEST PUSH1 0x40 MLOAD DUP1 SWAP2 SUB SWAP1 LOG2 POP POP POP DUP1 DUP1 PUSH1 0x1 ADD SWAP2 POP POP PUSH2 0x1CE0 JUMP JUMPDEST POP POP POP POP POP JUMP JUMPDEST PUSH2 0x1E06 PUSH2 0x21C2 JUMP JUMPDEST PUSH20 0xFFFFFFFFFFFFFFFFFFFFFFFFFFFFFFFFFFFFFFFF AND PUSH2 0x1E24 PUSH2 0x1699 JUMP JUMPDEST PUSH20 0xFFFFFFFFFFFFFFFFFFFFFFFFFFFFFFFFFFFFFFFF AND EQ PUSH2 0x1E83 JUMPI PUSH2 0x1E47 PUSH2 0x21C2 JUMP JUMPDEST PUSH1 0x40 MLOAD PUSH32 0x118CDAA700000000000000000000000000000000000000000000000000000000 DUP2 MSTORE PUSH1 0x4 ADD PUSH2 0x1E7A SWAP2 SWAP1 PUSH2 0x2C70 JUMP JUMPDEST PUSH1 0x40 MLOAD DUP1 SWAP2 SUB SWAP1 REVERT JUMPDEST JUMP JUMPDEST PUSH2 0x1E8D PUSH2 0x21CA JUMP JUMPDEST PUSH1 0x0 PUSH2 0x1E97 PUSH2 0x2039 JUMP JUMPDEST SWAP1 POP PUSH1 0x0 DUP2 PUSH1 0x0 ADD PUSH1 0x0 PUSH2 0x100 EXP DUP2 SLOAD DUP2 PUSH1 0xFF MUL NOT AND SWAP1 DUP4 ISZERO ISZERO MUL OR SWAP1 SSTORE POP PUSH32 0x5DB9EE0A495BF2E6FF9C91A7834C1BA4FDD244A5E8AA4E537BD38AEAE4B073AA PUSH2 0x1EDF PUSH2 0x21C2 JUMP JUMPDEST PUSH1 0x40 MLOAD PUSH2 0x1EEC SWAP2 SWAP1 PUSH2 0x2C70 JUMP JUMPDEST PUSH1 0x40 MLOAD DUP1 SWAP2 SUB SWAP1 LOG1 POP JUMP JUMPDEST PUSH2 0x1EFF PUSH2 0x1B48 JUMP JUMPDEST PUSH1 0x0 PUSH2 0x1F09 PUSH2 0x2039 JUMP JUMPDEST SWAP1 POP PUSH1 0x1 DUP2 PUSH1 0x0 ADD PUSH1 0x0 PUSH2 0x100 EXP DUP2 SLOAD DUP2 PUSH1 0xFF MUL NOT AND SWAP1 DUP4 ISZERO ISZERO MUL OR SWAP1 SSTORE POP PUSH32 0x62E78CEA01BEE320CD4E420270B5EA74000D11B0C9F74754EBDBFC544B05A258 PUSH2 0x1F51 PUSH2 0x21C2 JUMP JUMPDEST PUSH1 0x40 MLOAD PUSH2 0x1F5E SWAP2 SWAP1 PUSH2 0x2C70 JUMP JUMPDEST PUSH1 0x40 MLOAD DUP1 SWAP2 SUB SWAP1 LOG1 POP JUMP JUMPDEST PUSH1 0x0 PUSH2 0x1F73 PUSH2 0x220A JUMP JUMPDEST SWAP1 POP PUSH1 0x2 DUP2 PUSH1 0x0 ADD SLOAD SUB PUSH2 0x1FB3 JUMPI PUSH1 0x40 MLOAD PUSH32 0x3EE5AEB500000000000000000000000000000000000000000000000000000000 DUP2 MSTORE PUSH1 0x4 ADD PUSH1 0x40 MLOAD DUP1 SWAP2 SUB SWAP1 REVERT JUMPDEST PUSH1 0x2 DUP2 PUSH1 0x0 ADD DUP2 SWAP1 SSTORE POP POP JUMP JUMPDEST PUSH1 0x0 PUSH2 0x1FCA PUSH2 0x220A JUMP JUMPDEST SWAP1 POP PUSH1 0x1 DUP2 PUSH1 0x0 ADD DUP2 SWAP1 SSTORE POP POP JUMP JUMPDEST PUSH1 0x0 PUSH32 0xF0C57E16840DF040F15088DC2F81FE391C3923BEC73E23A9662EFC9C229C6A00 SWAP1 POP SWAP1 JUMP JUMPDEST PUSH2 0x2009 PUSH2 0x2232 JUMP JUMPDEST PUSH2 0x2012 DUP2 PUSH2 0x2272 JUMP JUMPDEST POP JUMP JUMPDEST PUSH2 0x201D PUSH2 0x2232 JUMP JUMPDEST PUSH2 0x2025 PUSH2 0x22F8 JUMP JUMPDEST JUMP JUMPDEST PUSH2 0x202F PUSH2 0x2232 JUMP JUMPDEST PUSH2 0x2037 PUSH2 0x232C JUMP JUMPDEST JUMP JUMPDEST PUSH1 0x0 PUSH32 0xCD5ED15C6E187E77E9AEE88184C21F4F2182AB5827CB3B7E07FBEDCD63F03300 SWAP1 POP SWAP1 JUMP JUMPDEST PUSH1 0x0 PUSH2 0x206B PUSH2 0x2138 JUMP JUMPDEST SWAP1 POP PUSH1 0x0 DUP2 PUSH1 0x0 ADD PUSH1 0x0 SWAP1 SLOAD SWAP1 PUSH2 0x100 EXP SWAP1 DIV PUSH20 0xFFFFFFFFFFFFFFFFFFFFFFFFFFFFFFFFFFFFFFFF AND SWAP1 POP DUP3 DUP3 PUSH1 0x0 ADD PUSH1 0x0 PUSH2 0x100 EXP DUP2 SLOAD DUP2 PUSH20 0xFFFFFFFFFFFFFFFFFFFFFFFFFFFFFFFFFFFFFFFF MUL NOT AND SWAP1 DUP4 PUSH20 0xFFFFFFFFFFFFFFFFFFFFFFFFFFFFFFFFFFFFFFFF AND MUL OR SWAP1 SSTORE POP DUP3 PUSH20 0xFFFFFFFFFFFFFFFFFFFFFFFFFFFFFFFFFFFFFFFF AND DUP2 PUSH20 0xFFFFFFFFFFFFFFFFFFFFFFFFFFFFFFFFFFFFFFFF AND PUSH32 0x8BE0079C531659141344CD1FD0A4F28419497F9722A3DAAFE3B4186F6B6457E0 PUSH1 0x40 MLOAD PUSH1 0x40 MLOAD DUP1 SWAP2 SUB SWAP1 LOG3 POP POP POP JUMP JUMPDEST PUSH1 0x0 PUSH32 0x9016D09D72D40FDAE2FD8CEAC6B6234C7706214FD39C1CD1E609A0528C199300 SWAP1 POP SWAP1 JUMP JUMPDEST PUSH1 0x0 DUP1 PUSH1 0x2 PUSH1 0x1 DUP5 DUP7 PUSH2 0x2173 SWAP2 SWAP1 PUSH2 0x2D6D JUMP JUMPDEST PUSH2 0x217D SWAP2 SWAP1 PUSH2 0x3284 JUMP JUMPDEST DUP6 PUSH2 0x2188 SWAP2 SWAP1 PUSH2 0x2D6D JUMP JUMPDEST PUSH2 0x2192 SWAP2 SWAP1 PUSH2 0x317F JUMP JUMPDEST SWAP1 POP PUSH1 0x14 PUSH1 0x1 DUP3 PUSH2 0x21A3 SWAP2 SWAP1 PUSH2 0x3284 JUMP JUMPDEST PUSH2 0x21AD SWAP2 SWAP1 PUSH2 0x310E JUMP JUMPDEST PUSH1 0x78 PUSH2 0x21B9 SWAP2 SWAP1 PUSH2 0x2D6D JUMP JUMPDEST SWAP2 POP POP SWAP3 SWAP2 POP POP JUMP JUMPDEST PUSH1 0x0 CALLER SWAP1 POP SWAP1 JUMP JUMPDEST PUSH2 0x21D2 PUSH2 0x14CC JUMP JUMPDEST PUSH2 0x2208 JUMPI PUSH1 0x40 MLOAD PUSH32 0x8DFC202B00000000000000000000000000000000000000000000000000000000 DUP2 MSTORE PUSH1 0x4 ADD PUSH1 0x40 MLOAD DUP1 SWAP2 SUB SWAP1 REVERT JUMPDEST JUMP JUMPDEST PUSH1 0x0 PUSH32 0x9B779B17422D0DF92223018B32B4D1FA46E071723D6817E2486D003BECC55F00 SWAP1 POP SWAP1 JUMP JUMPDEST PUSH2 0x223A PUSH2 0x234D JUMP JUMPDEST PUSH2 0x2270 JUMPI PUSH1 0x40 MLOAD PUSH32 0xD7E6BCF800000000000000000000000000000000000000000000000000000000 DUP2 MSTORE PUSH1 0x4 ADD PUSH1 0x40 MLOAD DUP1 SWAP2 SUB SWAP1 REVERT JUMPDEST JUMP JUMPDEST PUSH2 0x227A PUSH2 0x2232 JUMP JUMPDEST PUSH1 0x0 PUSH20 0xFFFFFFFFFFFFFFFFFFFFFFFFFFFFFFFFFFFFFFFF AND DUP2 PUSH20 0xFFFFFFFFFFFFFFFFFFFFFFFFFFFFFFFFFFFFFFFF AND SUB PUSH2 0x22EC JUMPI PUSH1 0x0 PUSH1 0x40 MLOAD PUSH32 0x1E4FBDF700000000000000000000000000000000000000000000000000000000 DUP2 MSTORE PUSH1 0x4 ADD PUSH2 0x22E3 SWAP2 SWAP1 PUSH2 0x2C70 JUMP JUMPDEST PUSH1 0x40 MLOAD DUP1 SWAP2 SUB SWAP1 REVERT JUMPDEST PUSH2 0x22F5 DUP2 PUSH2 0x2061 JUMP JUMPDEST POP JUMP JUMPDEST PUSH2 0x2300 PUSH2 0x2232 JUMP JUMPDEST PUSH1 0x0 PUSH2 0x230A PUSH2 0x2039 JUMP JUMPDEST SWAP1 POP PUSH1 0x0 DUP2 PUSH1 0x0 ADD PUSH1 0x0 PUSH2 0x100 EXP DUP2 SLOAD DUP2 PUSH1 0xFF MUL NOT AND SWAP1 DUP4 ISZERO ISZERO MUL OR SWAP1 SSTORE POP POP JUMP JUMPDEST PUSH2 0x2334 PUSH2 0x2232 JUMP JUMPDEST PUSH1 0x0 PUSH2 0x233E PUSH2 0x220A JUMP JUMPDEST SWAP1 POP PUSH1 0x1 DUP2 PUSH1 0x0 ADD DUP2 SWAP1 SSTORE POP POP JUMP JUMPDEST PUSH1 0x0 PUSH2 0x2357 PUSH2 0x1FD9 JUMP JUMPDEST PUSH1 0x0 ADD PUSH1 0x8 SWAP1 SLOAD SWAP1 PUSH2 0x100 EXP SWAP1 DIV PUSH1 0xFF AND SWAP1 POP SWAP1 JUMP JUMPDEST POP DUP1 SLOAD PUSH2 0x2379 SWAP1 PUSH2 0x2D0D JUMP JUMPDEST PUSH1 0x0 DUP3 SSTORE DUP1 PUSH1 0x1F LT PUSH2 0x238B JUMPI POP PUSH2 0x23AA JUMP JUMPDEST PUSH1 0x1F ADD PUSH1 0x20 SWAP1 DIV SWAP1 PUSH1 0x0 MSTORE PUSH1 0x20 PUSH1 0x0 KECCAK256 SWAP1 DUP2 ADD SWAP1 PUSH2 0x23A9 SWAP2 SWAP1 PUSH2 0x23D1 JUMP JUMPDEST JUMPDEST POP JUMP JUMPDEST POP DUP1 SLOAD PUSH1 0x0 DUP3 SSTORE PUSH1 0x4 MUL SWAP1 PUSH1 0x0 MSTORE PUSH1 0x20 PUSH1 0x0 KECCAK256 SWAP1 DUP2 ADD SWAP1 PUSH2 0x23CE SWAP2 SWAP1 PUSH2 0x23EE JUMP JUMPDEST POP JUMP JUMPDEST JUMPDEST DUP1 DUP3 GT ISZERO PUSH2 0x23EA JUMPI PUSH1 0x0 DUP2 PUSH1 0x0 SWAP1 SSTORE POP PUSH1 0x1 ADD PUSH2 0x23D2 JUMP JUMPDEST POP SWAP1 JUMP JUMPDEST JUMPDEST DUP1 DUP3 GT ISZERO PUSH2 0x2448 JUMPI PUSH1 0x0 DUP1 DUP3 ADD PUSH1 0x0 PUSH2 0x100 EXP DUP2 SLOAD SWAP1 PUSH20 0xFFFFFFFFFFFFFFFFFFFFFFFFFFFFFFFFFFFFFFFF MUL NOT AND SWAP1 SSTORE PUSH1 0x1 DUP3 ADD PUSH1 0x0 SWAP1 SSTORE PUSH1 0x2 DUP3 ADD PUSH1 0x0 PUSH2 0x2437 SWAP2 SWAP1 PUSH2 0x236D JUMP JUMPDEST PUSH1 0x3 DUP3 ADD PUSH1 0x0 SWAP1 SSTORE POP PUSH1 0x4 ADD PUSH2 0x23EF JUMP JUMPDEST POP SWAP1 JUMP JUMPDEST PUSH1 0x0 PUSH1 0x40 MLOAD SWAP1 POP SWAP1 JUMP JUMPDEST PUSH1 0x0 DUP1 REVERT JUMPDEST PUSH1 0x0 DUP1 REVERT JUMPDEST PUSH1 0x0 DUP2 SWAP1 POP SWAP2 SWAP1 POP JUMP JUMPDEST PUSH2 0x2473 DUP2 PUSH2 0x2460 JUMP JUMPDEST DUP2 EQ PUSH2 0x247E JUMPI PUSH1 0x0 DUP1 REVERT JUMPDEST POP JUMP JUMPDEST PUSH1 0x0 DUP2 CALLDATALOAD SWAP1 POP PUSH2 0x2490 DUP2 PUSH2 0x246A JUMP JUMPDEST SWAP3 SWAP2 POP POP JUMP JUMPDEST PUSH1 0x0 DUP1 REVERT JUMPDEST PUSH1 0x0 DUP1 REVERT JUMPDEST PUSH1 0x0 PUSH1 0x1F NOT PUSH1 0x1F DUP4 ADD AND SWAP1 POP SWAP2 SWAP1 POP JUMP JUMPDEST PUSH32 0x4E487B7100000000000000000000000000000000000000000000000000000000 PUSH1 0x0 MSTORE PUSH1 0x41 PUSH1 0x4 MSTORE PUSH1 0x24 PUSH1 0x0 REVERT JUMPDEST PUSH2 0x24E9 DUP3 PUSH2 0x24A0 JUMP JUMPDEST DUP2 ADD DUP2 DUP2 LT PUSH8 0xFFFFFFFFFFFFFFFF DUP3 GT OR ISZERO PUSH2 0x2508 JUMPI PUSH2 0x2507 PUSH2 0x24B1 JUMP JUMPDEST JUMPDEST DUP1 PUSH1 0x40 MSTORE POP POP POP JUMP JUMPDEST PUSH1 0x0 PUSH2 0x251B PUSH2 0x244C JUMP JUMPDEST SWAP1 POP PUSH2 0x2527 DUP3 DUP3 PUSH2 0x24E0 JUMP JUMPDEST SWAP2 SWAP1 POP JUMP JUMPDEST PUSH1 0x0 PUSH8 0xFFFFFFFFFFFFFFFF DUP3 GT ISZERO PUSH2 0x2547 JUMPI PUSH2 0x2546 PUSH2 0x24B1 JUMP JUMPDEST JUMPDEST PUSH2 0x2550 DUP3 PUSH2 0x24A0 JUMP JUMPDEST SWAP1 POP PUSH1 0x20 DUP2 ADD SWAP1 POP SWAP2 SWAP1 POP JUMP JUMPDEST DUP3 DUP2 DUP4 CALLDATACOPY PUSH1 0x0 DUP4 DUP4 ADD MSTORE POP POP POP JUMP JUMPDEST PUSH1 0x0 PUSH2 0x257F PUSH2 0x257A DUP5 PUSH2 0x252C JUMP JUMPDEST PUSH2 0x2511 JUMP JUMPDEST SWAP1 POP DUP3 DUP2 MSTORE PUSH1 0x20 DUP2 ADD DUP5 DUP5 DUP5 ADD GT ISZERO PUSH2 0x259B JUMPI PUSH2 0x259A PUSH2 0x249B JUMP JUMPDEST JUMPDEST PUSH2 0x25A6 DUP5 DUP3 DUP6 PUSH2 0x255D JUMP JUMPDEST POP SWAP4 SWAP3 POP POP POP JUMP JUMPDEST PUSH1 0x0 DUP3 PUSH1 0x1F DUP4 ADD SLT PUSH2 0x25C3 JUMPI PUSH2 0x25C2 PUSH2 0x2496 JUMP JUMPDEST JUMPDEST DUP2 CALLDATALOAD PUSH2 0x25D3 DUP5 DUP3 PUSH1 0x20 DUP7 ADD PUSH2 0x256C JUMP JUMPDEST SWAP2 POP POP SWAP3 SWAP2 POP POP JUMP JUMPDEST PUSH1 0x0 DUP1 PUSH1 0x40 DUP4 DUP6 SUB SLT ISZERO PUSH2 0x25F3 JUMPI PUSH2 0x25F2 PUSH2 0x2456 JUMP JUMPDEST JUMPDEST PUSH1 0x0 PUSH2 0x2601 DUP6 DUP3 DUP7 ADD PUSH2 0x2481 JUMP JUMPDEST SWAP3 POP POP PUSH1 0x20 DUP4 ADD CALLDATALOAD PUSH8 0xFFFFFFFFFFFFFFFF DUP2 GT ISZERO PUSH2 0x2622 JUMPI PUSH2 0x2621 PUSH2 0x245B JUMP JUMPDEST JUMPDEST PUSH2 0x262E DUP6 DUP3 DUP7 ADD PUSH2 0x25AE JUMP JUMPDEST SWAP2 POP POP SWAP3 POP SWAP3 SWAP1 POP JUMP JUMPDEST PUSH1 0x0 DUP2 SWAP1 POP SWAP2 SWAP1 POP JUMP JUMPDEST PUSH2 0x264B DUP2 PUSH2 0x2638 JUMP JUMPDEST DUP3 MSTORE POP POP JUMP JUMPDEST PUSH1 0x0 PUSH1 0x20 DUP3 ADD SWAP1 POP PUSH2 0x2666 PUSH1 0x0 DUP4 ADD DUP5 PUSH2 0x2642 JUMP JUMPDEST SWAP3 SWAP2 POP POP JUMP JUMPDEST PUSH1 0x0 PUSH8 0xFFFFFFFFFFFFFFFF DUP3 GT ISZERO PUSH2 0x2687 JUMPI PUSH2 0x2686 PUSH2 0x24B1 JUMP JUMPDEST JUMPDEST PUSH1 0x20 DUP3 MUL SWAP1 POP PUSH1 0x20 DUP2 ADD SWAP1 POP SWAP2 SWAP1 POP JUMP JUMPDEST PUSH1 0x0 DUP1 REVERT JUMPDEST PUSH1 0x0 PUSH2 0x26B0 PUSH2 0x26AB DUP5 PUSH2 0x266C JUMP JUMPDEST PUSH2 0x2511 JUMP JUMPDEST SWAP1 POP DUP1 DUP4 DUP3 MSTORE PUSH1 0x20 DUP3 ADD SWAP1 POP PUSH1 0x20 DUP5 MUL DUP4 ADD DUP6 DUP2 GT ISZERO PUSH2 0x26D3 JUMPI PUSH2 0x26D2 PUSH2 0x2698 JUMP JUMPDEST JUMPDEST DUP4 JUMPDEST DUP2 DUP2 LT ISZERO PUSH2 0x271A JUMPI DUP1 CALLDATALOAD PUSH8 0xFFFFFFFFFFFFFFFF DUP2 GT ISZERO PUSH2 0x26F8 JUMPI PUSH2 0x26F7 PUSH2 0x2496 JUMP JUMPDEST JUMPDEST DUP1 DUP7 ADD PUSH2 0x2705 DUP10 DUP3 PUSH2 0x25AE JUMP JUMPDEST DUP6 MSTORE PUSH1 0x20 DUP6 ADD SWAP5 POP POP POP PUSH1 0x20 DUP2 ADD SWAP1 POP PUSH2 0x26D5 JUMP JUMPDEST POP POP POP SWAP4 SWAP3 POP POP POP JUMP JUMPDEST PUSH1 0x0 DUP3 PUSH1 0x1F DUP4 ADD SLT PUSH2 0x2739 JUMPI PUSH2 0x2738 PUSH2 0x2496 JUMP JUMPDEST JUMPDEST DUP2 CALLDATALOAD PUSH2 0x2749 DUP5 DUP3 PUSH1 0x20 DUP7 ADD PUSH2 0x269D JUMP JUMPDEST SWAP2 POP POP SWAP3 SWAP2 POP POP JUMP JUMPDEST PUSH1 0x0 DUP1 PUSH1 0x40 DUP4 DUP6 SUB SLT ISZERO PUSH2 0x2769 JUMPI PUSH2 0x2768 PUSH2 0x2456 JUMP JUMPDEST JUMPDEST PUSH1 0x0 PUSH2 0x2777 DUP6 DUP3 DUP7 ADD PUSH2 0x2481 JUMP JUMPDEST SWAP3 POP POP PUSH1 0x20 DUP4 ADD CALLDATALOAD PUSH8 0xFFFFFFFFFFFFFFFF DUP2 GT ISZERO PUSH2 0x2798 JUMPI PUSH2 0x2797 PUSH2 0x245B JUMP JUMPDEST JUMPDEST PUSH2 0x27A4 DUP6 DUP3 DUP7 ADD PUSH2 0x2724 JUMP JUMPDEST SWAP2 POP POP SWAP3 POP SWAP3 SWAP1 POP JUMP JUMPDEST PUSH1 0x0 PUSH1 0x20 DUP3 DUP5 SUB SLT ISZERO PUSH2 0x27C4 JUMPI PUSH2 0x27C3 PUSH2 0x2456 JUMP JUMPDEST JUMPDEST PUSH1 0x0 PUSH2 0x27D2 DUP5 DUP3 DUP6 ADD PUSH2 0x2481 JUMP JUMPDEST SWAP2 POP POP SWAP3 SWAP2 POP POP JUMP JUMPDEST PUSH1 0x0 DUP2 MLOAD SWAP1 POP SWAP2 SWAP1 POP JUMP JUMPDEST PUSH1 0x0 DUP3 DUP3 MSTORE PUSH1 0x20 DUP3 ADD SWAP1 POP SWAP3 SWAP2 POP POP JUMP JUMPDEST PUSH1 0x0 DUP2 SWAP1 POP PUSH1 0x20 DUP3 ADD SWAP1 POP SWAP2 SWAP1 POP JUMP JUMPDEST PUSH1 0x0 PUSH20 0xFFFFFFFFFFFFFFFFFFFFFFFFFFFFFFFFFFFFFFFF DUP3 AND SWAP1 POP SWAP2 SWAP1 POP JUMP JUMPDEST PUSH1 0x0 PUSH2 0x2832 DUP3 PUSH2 0x2807 JUMP JUMPDEST SWAP1 POP SWAP2 SWAP1 POP JUMP JUMPDEST PUSH2 0x2842 DUP2 PUSH2 0x2827 JUMP JUMPDEST DUP3 MSTORE POP POP JUMP JUMPDEST PUSH2 0x2851 DUP2 PUSH2 0x2638 JUMP JUMPDEST DUP3 MSTORE POP POP JUMP JUMPDEST PUSH1 0x0 DUP2 MLOAD SWAP1 POP SWAP2 SWAP1 POP JUMP JUMPDEST PUSH1 0x0 DUP3 DUP3 MSTORE PUSH1 0x20 DUP3 ADD SWAP1 POP SWAP3 SWAP2 POP POP JUMP JUMPDEST PUSH1 0x0 JUMPDEST DUP4 DUP2 LT ISZERO PUSH2 0x2891 JUMPI DUP1 DUP3 ADD MLOAD DUP2 DUP5 ADD MSTORE PUSH1 0x20 DUP2 ADD SWAP1 POP PUSH2 0x2876 JUMP JUMPDEST PUSH1 0x0 DUP5 DUP5 ADD MSTORE POP POP POP POP JUMP JUMPDEST PUSH1 0x0 PUSH2 0x28A8 DUP3 PUSH2 0x2857 JUMP JUMPDEST PUSH2 0x28B2 DUP2 DUP6 PUSH2 0x2862 JUMP JUMPDEST SWAP4 POP PUSH2 0x28C2 DUP2 DUP6 PUSH1 0x20 DUP7 ADD PUSH2 0x2873 JUMP JUMPDEST PUSH2 0x28CB DUP2 PUSH2 0x24A0 JUMP JUMPDEST DUP5 ADD SWAP2 POP POP SWAP3 SWAP2 POP POP JUMP JUMPDEST PUSH1 0x0 PUSH1 0x80 DUP4 ADD PUSH1 0x0 DUP4 ADD MLOAD PUSH2 0x28EE PUSH1 0x0 DUP7 ADD DUP3 PUSH2 0x2839 JUMP JUMPDEST POP PUSH1 0x20 DUP4 ADD MLOAD PUSH2 0x2901 PUSH1 0x20 DUP7 ADD DUP3 PUSH2 0x2848 JUMP JUMPDEST POP PUSH1 0x40 DUP4 ADD MLOAD DUP5 DUP3 SUB PUSH1 0x40 DUP7 ADD MSTORE PUSH2 0x2919 DUP3 DUP3 PUSH2 0x289D JUMP JUMPDEST SWAP2 POP POP PUSH1 0x60 DUP4 ADD MLOAD PUSH2 0x292E PUSH1 0x60 DUP7 ADD DUP3 PUSH2 0x2848 JUMP JUMPDEST POP DUP1 SWAP2 POP POP SWAP3 SWAP2 POP POP JUMP JUMPDEST PUSH1 0x0 PUSH2 0x2945 DUP4 DUP4 PUSH2 0x28D6 JUMP JUMPDEST SWAP1 POP SWAP3 SWAP2 POP POP JUMP JUMPDEST PUSH1 0x0 PUSH1 0x20 DUP3 ADD SWAP1 POP SWAP2 SWAP1 POP JUMP JUMPDEST PUSH1 0x0 PUSH2 0x2965 DUP3 PUSH2 0x27DB JUMP JUMPDEST PUSH2 0x296F DUP2 DUP6 PUSH2 0x27E6 JUMP JUMPDEST SWAP4 POP DUP4 PUSH1 0x20 DUP3 MUL DUP6 ADD PUSH2 0x2981 DUP6 PUSH2 0x27F7 JUMP JUMPDEST DUP1 PUSH1 0x0 JUMPDEST DUP6 DUP2 LT ISZERO PUSH2 0x29BD JUMPI DUP5 DUP5 SUB DUP10 MSTORE DUP2 MLOAD PUSH2 0x299E DUP6 DUP3 PUSH2 0x2939 JUMP JUMPDEST SWAP5 POP PUSH2 0x29A9 DUP4 PUSH2 0x294D JUMP JUMPDEST SWAP3 POP PUSH1 0x20 DUP11 ADD SWAP10 POP POP PUSH1 0x1 DUP2 ADD SWAP1 POP PUSH2 0x2985 JUMP JUMPDEST POP DUP3 SWAP8 POP DUP8 SWAP6 POP POP POP POP POP POP SWAP3 SWAP2 POP POP JUMP JUMPDEST PUSH1 0x0 PUSH1 0x20 DUP3 ADD SWAP1 POP DUP2 DUP2 SUB PUSH1 0x0 DUP4 ADD MSTORE PUSH2 0x29E9 DUP2 DUP5 PUSH2 0x295A JUMP JUMPDEST SWAP1 POP SWAP3 SWAP2 POP POP JUMP JUMPDEST PUSH2 0x29FA DUP2 PUSH2 0x2827 JUMP JUMPDEST DUP2 EQ PUSH2 0x2A05 JUMPI PUSH1 0x0 DUP1 REVERT JUMPDEST POP JUMP JUMPDEST PUSH1 0x0 DUP2 CALLDATALOAD SWAP1 POP PUSH2 0x2A17 DUP2 PUSH2 0x29F1 JUMP JUMPDEST SWAP3 SWAP2 POP POP JUMP JUMPDEST PUSH1 0x0 PUSH1 0x20 DUP3 DUP5 SUB SLT ISZERO PUSH2 0x2A33 JUMPI PUSH2 0x2A32 PUSH2 0x2456 JUMP JUMPDEST JUMPDEST PUSH1 0x0 PUSH2 0x2A41 DUP5 DUP3 DUP6 ADD PUSH2 0x2A08 JUMP JUMPDEST SWAP2 POP POP SWAP3 SWAP2 POP POP JUMP JUMPDEST PUSH1 0x0 DUP1 PUSH1 0x40 DUP4 DUP6 SUB SLT ISZERO PUSH2 0x2A61 JUMPI PUSH2 0x2A60 PUSH2 0x2456 JUMP JUMPDEST JUMPDEST PUSH1 0x0 PUSH2 0x2A6F DUP6 DUP3 DUP7 ADD PUSH2 0x2A08 JUMP JUMPDEST SWAP3 POP POP PUSH1 0x20 PUSH2 0x2A80 DUP6 DUP3 DUP7 ADD PUSH2 0x2A08 JUMP JUMPDEST SWAP2 POP POP SWAP3 POP SWAP3 SWAP1 POP JUMP JUMPDEST PUSH2 0x2A93 DUP2 PUSH2 0x2460 JUMP JUMPDEST DUP3 MSTORE POP POP JUMP JUMPDEST PUSH1 0x0 DUP3 DUP3 MSTORE PUSH1 0x20 DUP3 ADD SWAP1 POP SWAP3 SWAP2 POP POP JUMP JUMPDEST PUSH1 0x0 PUSH2 0x2AB5 DUP3 PUSH2 0x2857 JUMP JUMPDEST PUSH2 0x2ABF DUP2 DUP6 PUSH2 0x2A99 JUMP JUMPDEST SWAP4 POP PUSH2 0x2ACF DUP2 DUP6 PUSH1 0x20 DUP7 ADD PUSH2 0x2873 JUMP JUMPDEST PUSH2 0x2AD8 DUP2 PUSH2 0x24A0 JUMP JUMPDEST DUP5 ADD SWAP2 POP POP SWAP3 SWAP2 POP POP JUMP JUMPDEST PUSH1 0x0 DUP2 ISZERO ISZERO SWAP1 POP SWAP2 SWAP1 POP JUMP JUMPDEST PUSH2 0x2AF8 DUP2 PUSH2 0x2AE3 JUMP JUMPDEST DUP3 MSTORE POP POP JUMP JUMPDEST PUSH1 0x0 PUSH1 0xA0 DUP3 ADD SWAP1 POP PUSH2 0x2B13 PUSH1 0x0 DUP4 ADD DUP9 PUSH2 0x2A8A JUMP JUMPDEST DUP2 DUP2 SUB PUSH1 0x20 DUP4 ADD MSTORE PUSH2 0x2B25 DUP2 DUP8 PUSH2 0x2AAA JUMP JUMPDEST SWAP1 POP PUSH2 0x2B34 PUSH1 0x40 DUP4 ADD DUP7 PUSH2 0x2AEF JUMP JUMPDEST PUSH2 0x2B41 PUSH1 0x60 DUP4 ADD DUP6 PUSH2 0x2642 JUMP JUMPDEST PUSH2 0x2B4E PUSH1 0x80 DUP4 ADD DUP5 PUSH2 0x2642 JUMP JUMPDEST SWAP7 SWAP6 POP POP POP POP POP POP JUMP JUMPDEST PUSH1 0x0 PUSH1 0x20 DUP3 ADD SWAP1 POP PUSH2 0x2B6D PUSH1 0x0 DUP4 ADD DUP5 PUSH2 0x2AEF JUMP JUMPDEST SWAP3 SWAP2 POP POP JUMP JUMPDEST PUSH2 0x2B7C DUP2 PUSH2 0x2638 JUMP JUMPDEST DUP2 EQ PUSH2 0x2B87 JUMPI PUSH1 0x0 DUP1 REVERT JUMPDEST POP JUMP JUMPDEST PUSH1 0x0 DUP2 CALLDATALOAD SWAP1 POP PUSH2 0x2B99 DUP2 PUSH2 0x2B73 JUMP JUMPDEST SWAP3 SWAP2 POP POP JUMP JUMPDEST PUSH1 0x0 PUSH1 0x20 DUP3 DUP5 SUB SLT ISZERO PUSH2 0x2BB5 JUMPI PUSH2 0x2BB4 PUSH2 0x2456 JUMP JUMPDEST JUMPDEST PUSH1 0x0 PUSH2 0x2BC3 DUP5 DUP3 DUP6 ADD PUSH2 0x2B8A JUMP JUMPDEST SWAP2 POP POP SWAP3 SWAP2 POP POP JUMP JUMPDEST PUSH1 0x0 PUSH1 0x20 DUP3 ADD SWAP1 POP PUSH2 0x2BE1 PUSH1 0x0 DUP4 ADD DUP5 PUSH2 0x2A8A JUMP JUMPDEST SWAP3 SWAP2 POP POP JUMP JUMPDEST PUSH1 0x0 DUP2 SWAP1 POP SWAP2 SWAP1 POP JUMP JUMPDEST PUSH1 0x0 PUSH2 0x2C0C PUSH2 0x2C07 PUSH2 0x2C02 DUP5 PUSH2 0x2807 JUMP JUMPDEST PUSH2 0x2BE7 JUMP JUMPDEST PUSH2 0x2807 JUMP JUMPDEST SWAP1 POP SWAP2 SWAP1 POP JUMP JUMPDEST PUSH1 0x0 PUSH2 0x2C1E DUP3 PUSH2 0x2BF1 JUMP JUMPDEST SWAP1 POP SWAP2 SWAP1 POP JUMP JUMPDEST PUSH1 0x0 PUSH2 0x2C30 DUP3 PUSH2 0x2C13 JUMP JUMPDEST SWAP1 POP SWAP2 SWAP1 POP JUMP JUMPDEST PUSH2 0x2C40 DUP2 PUSH2 0x2C25 JUMP JUMPDEST DUP3 MSTORE POP POP JUMP JUMPDEST PUSH1 0x0 PUSH1 0x20 DUP3 ADD SWAP1 POP PUSH2 0x2C5B PUSH1 0x0 DUP4 ADD DUP5 PUSH2 0x2C37 JUMP JUMPDEST SWAP3 SWAP2 POP POP JUMP JUMPDEST PUSH2 0x2C6A DUP2 PUSH2 0x2827 JUMP JUMPDEST DUP3 MSTORE POP POP JUMP JUMPDEST PUSH1 0x0 PUSH1 0x20 DUP3 ADD SWAP1 POP PUSH2 0x2C85 PUSH1 0x0 DUP4 ADD DUP5 PUSH2 0x2C61 JUMP JUMPDEST SWAP3 SWAP2 POP POP JUMP JUMPDEST PUSH1 0x0 DUP2 SWAP1 POP SWAP3 SWAP2 POP POP JUMP JUMPDEST PUSH1 0x0 PUSH2 0x2CA1 DUP3 PUSH2 0x2857 JUMP JUMPDEST PUSH2 0x2CAB DUP2 DUP6 PUSH2 0x2C8B JUMP JUMPDEST SWAP4 POP PUSH2 0x2CBB DUP2 DUP6 PUSH1 0x20 DUP7 ADD PUSH2 0x2873 JUMP JUMPDEST DUP1 DUP5 ADD SWAP2 POP POP SWAP3 SWAP2 POP POP JUMP JUMPDEST PUSH1 0x0 PUSH2 0x2CD3 DUP3 DUP5 PUSH2 0x2C96 JUMP JUMPDEST SWAP2 POP DUP2 SWAP1 POP SWAP3 SWAP2 POP POP JUMP JUMPDEST PUSH32 0x4E487B7100000000000000000000000000000000000000000000000000000000 PUSH1 0x0 MSTORE PUSH1 0x22 PUSH1 0x4 MSTORE PUSH1 0x24 PUSH1 0x0 REVERT JUMPDEST PUSH1 0x0 PUSH1 0x2 DUP3 DIV SWAP1 POP PUSH1 0x1 DUP3 AND DUP1 PUSH2 0x2D25 JUMPI PUSH1 0x7F DUP3 AND SWAP2 POP JUMPDEST PUSH1 0x20 DUP3 LT DUP2 SUB PUSH2 0x2D38 JUMPI PUSH2 0x2D37 PUSH2 0x2CDE JUMP JUMPDEST JUMPDEST POP SWAP2 SWAP1 POP JUMP JUMPDEST PUSH32 0x4E487B7100000000000000000000000000000000000000000000000000000000 PUSH1 0x0 MSTORE PUSH1 0x11 PUSH1 0x4 MSTORE PUSH1 0x24 PUSH1 0x0 REVERT JUMPDEST PUSH1 0x0 PUSH2 0x2D78 DUP3 PUSH2 0x2638 JUMP JUMPDEST SWAP2 POP PUSH2 0x2D83 DUP4 PUSH2 0x2638 JUMP JUMPDEST SWAP3 POP DUP3 DUP3 ADD SWAP1 POP DUP1 DUP3 GT ISZERO PUSH2 0x2D9B JUMPI PUSH2 0x2D9A PUSH2 0x2D3E JUMP JUMPDEST JUMPDEST SWAP3 SWAP2 POP POP JUMP JUMPDEST PUSH1 0x0 DUP2 SWAP1 POP DUP2 PUSH1 0x0 MSTORE PUSH1 0x20 PUSH1 0x0 KECCAK256 SWAP1 POP SWAP2 SWAP1 POP JUMP JUMPDEST PUSH1 0x0 PUSH1 0x20 PUSH1 0x1F DUP4 ADD DIV SWAP1 POP SWAP2 SWAP1 POP JUMP JUMPDEST PUSH1 0x0 DUP3 DUP3 SHL SWAP1 POP SWAP3 SWAP2 POP POP JUMP JUMPDEST PUSH1 0x0 PUSH1 0x8 DUP4 MUL PUSH2 0x2E03 PUSH32 0xFFFFFFFFFFFFFFFFFFFFFFFFFFFFFFFFFFFFFFFFFFFFFFFFFFFFFFFFFFFFFFFF DUP3 PUSH2 0x2DC6 JUMP JUMPDEST PUSH2 0x2E0D DUP7 DUP4 PUSH2 0x2DC6 JUMP JUMPDEST SWAP6 POP DUP1 NOT DUP5 AND SWAP4 POP DUP1 DUP7 AND DUP5 OR SWAP3 POP POP POP SWAP4 SWAP3 POP POP POP JUMP JUMPDEST PUSH1 0x0 PUSH2 0x2E40 PUSH2 0x2E3B PUSH2 0x2E36 DUP5 PUSH2 0x2638 JUMP JUMPDEST PUSH2 0x2BE7 JUMP JUMPDEST PUSH2 0x2638 JUMP JUMPDEST SWAP1 POP SWAP2 SWAP1 POP JUMP JUMPDEST PUSH1 0x0 DUP2 SWAP1 POP SWAP2 SWAP1 POP JUMP JUMPDEST PUSH2 0x2E5A DUP4 PUSH2 0x2E25 JUMP JUMPDEST PUSH2 0x2E6E PUSH2 0x2E66 DUP3 PUSH2 0x2E47 JUMP JUMPDEST DUP5 DUP5 SLOAD PUSH2 0x2DD3 JUMP JUMPDEST DUP3 SSTORE POP POP POP POP JUMP JUMPDEST PUSH1 0x0 SWAP1 JUMP JUMPDEST PUSH2 0x2E83 PUSH2 0x2E76 JUMP JUMPDEST PUSH2 0x2E8E DUP2 DUP5 DUP5 PUSH2 0x2E51 JUMP JUMPDEST POP POP POP JUMP JUMPDEST JUMPDEST DUP2 DUP2 LT ISZERO PUSH2 0x2EB2 JUMPI PUSH2 0x2EA7 PUSH1 0x0 DUP3 PUSH2 0x2E7B JUMP JUMPDEST PUSH1 0x1 DUP2 ADD SWAP1 POP PUSH2 0x2E94 JUMP JUMPDEST POP POP JUMP JUMPDEST PUSH1 0x1F DUP3 GT ISZERO PUSH2 0x2EF7 JUMPI PUSH2 0x2EC8 DUP2 PUSH2 0x2DA1 JUMP JUMPDEST PUSH2 0x2ED1 DUP5 PUSH2 0x2DB6 JUMP JUMPDEST DUP2 ADD PUSH1 0x20 DUP6 LT ISZERO PUSH2 0x2EE0 JUMPI DUP2 SWAP1 POP JUMPDEST PUSH2 0x2EF4 PUSH2 0x2EEC DUP6 PUSH2 0x2DB6 JUMP JUMPDEST DUP4 ADD DUP3 PUSH2 0x2E93 JUMP JUMPDEST POP POP JUMPDEST POP POP POP JUMP JUMPDEST PUSH1 0x0 DUP3 DUP3 SHR SWAP1 POP SWAP3 SWAP2 POP POP JUMP JUMPDEST PUSH1 0x0 PUSH2 0x2F1A PUSH1 0x0 NOT DUP5 PUSH1 0x8 MUL PUSH2 0x2EFC JUMP JUMPDEST NOT DUP1 DUP4 AND SWAP2 POP POP SWAP3 SWAP2 POP POP JUMP JUMPDEST PUSH1 0x0 PUSH2 0x2F33 DUP4 DUP4 PUSH2 0x2F09 JUMP JUMPDEST SWAP2 POP DUP3 PUSH1 0x2 MUL DUP3 OR SWAP1 POP SWAP3 SWAP2 POP POP JUMP JUMPDEST PUSH2 0x2F4C DUP3 PUSH2 0x2857 JUMP JUMPDEST PUSH8 0xFFFFFFFFFFFFFFFF DUP2 GT ISZERO PUSH2 0x2F65 JUMPI PUSH2 0x2F64 PUSH2 0x24B1 JUMP JUMPDEST JUMPDEST PUSH2 0x2F6F DUP3 SLOAD PUSH2 0x2D0D JUMP JUMPDEST PUSH2 0x2F7A DUP3 DUP3 DUP6 PUSH2 0x2EB6 JUMP JUMPDEST PUSH1 0x0 PUSH1 0x20 SWAP1 POP PUSH1 0x1F DUP4 GT PUSH1 0x1 DUP2 EQ PUSH2 0x2FAD JUMPI PUSH1 0x0 DUP5 ISZERO PUSH2 0x2F9B JUMPI DUP3 DUP8 ADD MLOAD SWAP1 POP JUMPDEST PUSH2 0x2FA5 DUP6 DUP3 PUSH2 0x2F27 JUMP JUMPDEST DUP7 SSTORE POP PUSH2 0x300D JUMP JUMPDEST PUSH1 0x1F NOT DUP5 AND PUSH2 0x2FBB DUP7 PUSH2 0x2DA1 JUMP JUMPDEST PUSH1 0x0 JUMPDEST DUP3 DUP2 LT ISZERO PUSH2 0x2FE3 JUMPI DUP5 DUP10 ADD MLOAD DUP3 SSTORE PUSH1 0x1 DUP3 ADD SWAP2 POP PUSH1 0x20 DUP6 ADD SWAP5 POP PUSH1 0x20 DUP2 ADD SWAP1 POP PUSH2 0x2FBE JUMP JUMPDEST DUP7 DUP4 LT ISZERO PUSH2 0x3000 JUMPI DUP5 DUP10 ADD MLOAD PUSH2 0x2FFC PUSH1 0x1F DUP10 AND DUP3 PUSH2 0x2F09 JUMP JUMPDEST DUP4 SSTORE POP JUMPDEST PUSH1 0x1 PUSH1 0x2 DUP9 MUL ADD DUP9 SSTORE POP POP POP JUMPDEST POP POP POP POP POP POP JUMP JUMPDEST PUSH1 0x0 PUSH1 0x40 DUP3 ADD SWAP1 POP DUP2 DUP2 SUB PUSH1 0x0 DUP4 ADD MSTORE PUSH2 0x302F DUP2 DUP6 PUSH2 0x2AAA JUMP JUMPDEST SWAP1 POP PUSH2 0x303E PUSH1 0x20 DUP4 ADD DUP5 PUSH2 0x2642 JUMP JUMPDEST SWAP4 SWAP3 POP POP POP JUMP JUMPDEST PUSH32 0x4E487B7100000000000000000000000000000000000000000000000000000000 PUSH1 0x0 MSTORE PUSH1 0x32 PUSH1 0x4 MSTORE PUSH1 0x24 PUSH1 0x0 REVERT JUMPDEST PUSH1 0x0 DUP2 SLOAD PUSH2 0x3081 DUP2 PUSH2 0x2D0D JUMP JUMPDEST PUSH2 0x308B DUP2 DUP7 PUSH2 0x2C8B JUMP JUMPDEST SWAP5 POP PUSH1 0x1 DUP3 AND PUSH1 0x0 DUP2 EQ PUSH2 0x30A6 JUMPI PUSH1 0x1 DUP2 EQ PUSH2 0x30BB JUMPI PUSH2 0x30EE JUMP JUMPDEST PUSH1 0xFF NOT DUP4 AND DUP7 MSTORE DUP2 ISZERO ISZERO DUP3 MUL DUP7 ADD SWAP4 POP PUSH2 0x30EE JUMP JUMPDEST PUSH2 0x30C4 DUP6 PUSH2 0x2DA1 JUMP JUMPDEST PUSH1 0x0 JUMPDEST DUP4 DUP2 LT ISZERO PUSH2 0x30E6 JUMPI DUP2 SLOAD DUP2 DUP10 ADD MSTORE PUSH1 0x1 DUP3 ADD SWAP2 POP PUSH1 0x20 DUP2 ADD SWAP1 POP PUSH2 0x30C7 JUMP JUMPDEST DUP4 DUP9 ADD SWAP6 POP POP POP JUMPDEST POP POP POP SWAP3 SWAP2 POP POP JUMP JUMPDEST PUSH1 0x0 PUSH2 0x3103 DUP3 DUP5 PUSH2 0x3074 JUMP JUMPDEST SWAP2 POP DUP2 SWAP1 POP SWAP3 SWAP2 POP POP JUMP JUMPDEST PUSH1 0x0 PUSH2 0x3119 DUP3 PUSH2 0x2638 JUMP JUMPDEST SWAP2 POP PUSH2 0x3124 DUP4 PUSH2 0x2638 JUMP JUMPDEST SWAP3 POP DUP3 DUP3 MUL PUSH2 0x3132 DUP2 PUSH2 0x2638 JUMP JUMPDEST SWAP2 POP DUP3 DUP3 DIV DUP5 EQ DUP4 ISZERO OR PUSH2 0x3149 JUMPI PUSH2 0x3148 PUSH2 0x2D3E JUMP JUMPDEST JUMPDEST POP SWAP3 SWAP2 POP POP JUMP JUMPDEST PUSH32 0x4E487B7100000000000000000000000000000000000000000000000000000000 PUSH1 0x0 MSTORE PUSH1 0x12 PUSH1 0x4 MSTORE PUSH1 0x24 PUSH1 0x0 REVERT JUMPDEST PUSH1 0x0 PUSH2 0x318A DUP3 PUSH2 0x2638 JUMP JUMPDEST SWAP2 POP PUSH2 0x3195 DUP4 PUSH2 0x2638 JUMP JUMPDEST SWAP3 POP DUP3 PUSH2 0x31A5 JUMPI PUSH2 0x31A4 PUSH2 0x3150 JUMP JUMPDEST JUMPDEST DUP3 DUP3 DIV SWAP1 POP SWAP3 SWAP2 POP POP JUMP JUMPDEST PUSH1 0x0 PUSH1 0x20 DUP3 ADD SWAP1 POP DUP2 DUP2 SUB PUSH1 0x0 DUP4 ADD MSTORE PUSH2 0x31CA DUP2 DUP5 PUSH2 0x2AAA JUMP JUMPDEST SWAP1 POP SWAP3 SWAP2 POP POP JUMP JUMPDEST PUSH1 0x0 DUP2 SWAP1 POP SWAP2 SWAP1 POP JUMP JUMPDEST PUSH1 0x0 PUSH8 0xFFFFFFFFFFFFFFFF DUP3 AND SWAP1 POP SWAP2 SWAP1 POP JUMP JUMPDEST PUSH1 0x0 PUSH2 0x320B PUSH2 0x3206 PUSH2 0x3201 DUP5 PUSH2 0x31D2 JUMP JUMPDEST PUSH2 0x2BE7 JUMP JUMPDEST PUSH2 0x31DC JUMP JUMPDEST SWAP1 POP SWAP2 SWAP1 POP JUMP JUMPDEST PUSH2 0x321B DUP2 PUSH2 0x31F0 JUMP JUMPDEST DUP3 MSTORE POP POP JUMP JUMPDEST PUSH1 0x0 PUSH1 0x20 DUP3 ADD SWAP1 POP PUSH2 0x3236 PUSH1 0x0 DUP4 ADD DUP5 PUSH2 0x3212 JUMP JUMPDEST SWAP3 SWAP2 POP POP JUMP JUMPDEST PUSH1 0x0 PUSH2 0x3247 DUP3 PUSH2 0x2638 JUMP JUMPDEST SWAP2 POP PUSH32 0xFFFFFFFFFFFFFFFFFFFFFFFFFFFFFFFFFFFFFFFFFFFFFFFFFFFFFFFFFFFFFFFF DUP3 SUB PUSH2 0x3279 JUMPI PUSH2 0x3278 PUSH2 0x2D3E JUMP JUMPDEST JUMPDEST PUSH1 0x1 DUP3 ADD SWAP1 POP SWAP2 SWAP1 POP JUMP JUMPDEST PUSH1 0x0 PUSH2 0x328F DUP3 PUSH2 0x2638 JUMP JUMPDEST SWAP2 POP PUSH2 0x329A DUP4 PUSH2 0x2638 JUMP JUMPDEST SWAP3 POP DUP3 DUP3 SUB SWAP1 POP DUP2 DUP2 GT ISZERO PUSH2 0x32B2 JUMPI PUSH2 0x32B1 PUSH2 0x2D3E JUMP JUMPDEST JUMPDEST SWAP3 SWAP2 POP POP JUMP INVALID LOG2 PUSH5 0x6970667358 0x22 SLT KECCAK256 SWAP7 PUSH20 0xE11C138C872F0CA857997043F220B13C3E038731 PUSH13 0xECD9187FC8DBC4259564736F6C PUSH4 0x4300081A STOP CALLER "
        },
        "methodIdentifiers": {
          "LEADERBOARD_DURATION()": "c2d1aebe",
          "WITHDRAWAL_DELAY()": "0ebb172a",
          "closeLeaderboard(bytes32)": "78353ba6",
          "countryList(uint256)": "685142c7",
          "createLeaderboard(bytes32)": "99da7aac",
          "executeWithdrawal()": "fa45aa00",
          "fulfillDailyWinner(bytes32,string)": "3952172d",
          "fulfillTopArtists(bytes32,string[])": "061d3bd2",
          "getArtistOdds(bytes32,string)": "0617c33b",
          "getBetsInCountry(bytes32)": "06dc39bf",
          "getTotalBetAmount(bytes32)": "97654961",
          "getTotalBetsOnArtist(bytes32,string)": "fa88e7e7",
          "initialize(address,address)": "485cc955",
          "isLeaderboardExpired(bytes32)": "77d0c7d3",
          "leaderboards(bytes32)": "51922353",
          "oracle()": "7dc0d1d0",
          "owner()": "8da5cb5b",
          "paused()": "5c975abb",
          "placeBet(bytes32,string)": "25100b4d",
          "renounceOwnership()": "715018a6",
          "requestWithdrawal()": "dbaf2145",
          "toggleContractActive()": "1385d24c",
          "transferOwnership(address)": "f2fde38b",
          "updateOracle(address)": "1cb44dfc",
          "validCountries(bytes32)": "66566a37",
          "withdrawalRequestTime()": "f59bdf85"
        }
      },
      "storageLayout": {
        "storage": [
          {
            "astId": 856,
            "contract": "contracts/ChartsBet.sol:ChartsBet",
            "label": "leaderboards",
            "offset": 0,
            "slot": "0",
            "type": "t_mapping(t_bytes32,t_struct(Leaderboard)851_storage)"
          },
          {
            "astId": 859,
            "contract": "contracts/ChartsBet.sol:ChartsBet",
            "label": "countryList",
            "offset": 0,
            "slot": "1",
            "type": "t_array(t_bytes32)dyn_storage"
          },
          {
            "astId": 862,
            "contract": "contracts/ChartsBet.sol:ChartsBet",
            "label": "oracle",
            "offset": 0,
            "slot": "2",
            "type": "t_contract(ChartsOracle)2145"
          },
          {
            "astId": 869,
            "contract": "contracts/ChartsBet.sol:ChartsBet",
            "label": "validCountries",
            "offset": 0,
            "slot": "3",
            "type": "t_mapping(t_bytes32,t_bool)"
          },
          {
            "astId": 874,
            "contract": "contracts/ChartsBet.sol:ChartsBet",
            "label": "withdrawalRequestTime",
            "offset": 0,
            "slot": "4",
            "type": "t_uint256"
          },
          {
            "astId": 1877,
            "contract": "contracts/ChartsBet.sol:ChartsBet",
            "label": "__gap",
            "offset": 0,
            "slot": "5",
            "type": "t_array(t_uint256)50_storage"
          }
        ],
        "types": {
          "t_address": {
            "encoding": "inplace",
            "label": "address",
            "numberOfBytes": "20"
          },
          "t_array(t_bytes32)dyn_storage": {
            "base": "t_bytes32",
            "encoding": "dynamic_array",
            "label": "bytes32[]",
            "numberOfBytes": "32"
          },
          "t_array(t_struct(Bet)824_storage)dyn_storage": {
            "base": "t_struct(Bet)824_storage",
            "encoding": "dynamic_array",
            "label": "struct ChartsBet.Bet[]",
            "numberOfBytes": "32"
          },
          "t_array(t_uint256)50_storage": {
            "base": "t_uint256",
            "encoding": "inplace",
            "label": "uint256[50]",
            "numberOfBytes": "1600"
          },
          "t_bool": {
            "encoding": "inplace",
            "label": "bool",
            "numberOfBytes": "1"
          },
          "t_bytes32": {
            "encoding": "inplace",
            "label": "bytes32",
            "numberOfBytes": "32"
          },
          "t_contract(ChartsOracle)2145": {
            "encoding": "inplace",
            "label": "contract ChartsOracle",
            "numberOfBytes": "20"
          },
          "t_mapping(t_bytes32,t_bool)": {
            "encoding": "mapping",
            "key": "t_bytes32",
            "label": "mapping(bytes32 => bool)",
            "numberOfBytes": "32",
            "value": "t_bool"
          },
          "t_mapping(t_bytes32,t_struct(Leaderboard)851_storage)": {
            "encoding": "mapping",
            "key": "t_bytes32",
            "label": "mapping(bytes32 => struct ChartsBet.Leaderboard)",
            "numberOfBytes": "32",
            "value": "t_struct(Leaderboard)851_storage"
          },
          "t_mapping(t_bytes32,t_uint256)": {
            "encoding": "mapping",
            "key": "t_bytes32",
            "label": "mapping(bytes32 => uint256)",
            "numberOfBytes": "32",
            "value": "t_uint256"
          },
          "t_string_storage": {
            "encoding": "bytes",
            "label": "string",
            "numberOfBytes": "32"
          },
          "t_struct(Bet)824_storage": {
            "encoding": "inplace",
            "label": "struct ChartsBet.Bet",
            "members": [
              {
                "astId": 817,
                "contract": "contracts/ChartsBet.sol:ChartsBet",
                "label": "user",
                "offset": 0,
                "slot": "0",
                "type": "t_address"
              },
              {
                "astId": 819,
                "contract": "contracts/ChartsBet.sol:ChartsBet",
                "label": "amount",
                "offset": 0,
                "slot": "1",
                "type": "t_uint256"
              },
              {
                "astId": 821,
                "contract": "contracts/ChartsBet.sol:ChartsBet",
                "label": "artist",
                "offset": 0,
                "slot": "2",
                "type": "t_string_storage"
              },
              {
                "astId": 823,
                "contract": "contracts/ChartsBet.sol:ChartsBet",
                "label": "odds",
                "offset": 0,
                "slot": "3",
                "type": "t_uint256"
              }
            ],
            "numberOfBytes": "128"
          },
          "t_struct(Leaderboard)851_storage": {
            "encoding": "inplace",
            "label": "struct ChartsBet.Leaderboard",
            "members": [
              {
                "astId": 826,
                "contract": "contracts/ChartsBet.sol:ChartsBet",
                "label": "country",
                "offset": 0,
                "slot": "0",
                "type": "t_bytes32"
              },
              {
                "astId": 828,
                "contract": "contracts/ChartsBet.sol:ChartsBet",
                "label": "winningArtist",
                "offset": 0,
                "slot": "1",
                "type": "t_string_storage"
              },
              {
                "astId": 830,
                "contract": "contracts/ChartsBet.sol:ChartsBet",
                "label": "isClosed",
                "offset": 0,
                "slot": "2",
                "type": "t_bool"
              },
              {
                "astId": 832,
                "contract": "contracts/ChartsBet.sol:ChartsBet",
                "label": "totalBetAmount",
                "offset": 0,
                "slot": "3",
                "type": "t_uint256"
              },
              {
                "astId": 834,
                "contract": "contracts/ChartsBet.sol:ChartsBet",
                "label": "startTime",
                "offset": 0,
                "slot": "4",
                "type": "t_uint256"
              },
              {
                "astId": 838,
                "contract": "contracts/ChartsBet.sol:ChartsBet",
                "label": "totalBetsOnArtist",
                "offset": 0,
                "slot": "5",
                "type": "t_mapping(t_bytes32,t_uint256)"
              },
              {
                "astId": 842,
                "contract": "contracts/ChartsBet.sol:ChartsBet",
                "label": "artistRank",
                "offset": 0,
                "slot": "6",
                "type": "t_mapping(t_bytes32,t_uint256)"
              },
              {
                "astId": 846,
                "contract": "contracts/ChartsBet.sol:ChartsBet",
                "label": "artistOdds",
                "offset": 0,
                "slot": "7",
                "type": "t_mapping(t_bytes32,t_uint256)"
              },
              {
                "astId": 850,
                "contract": "contracts/ChartsBet.sol:ChartsBet",
                "label": "bets",
                "offset": 0,
                "slot": "8",
                "type": "t_array(t_struct(Bet)824_storage)dyn_storage"
              }
            ],
            "numberOfBytes": "288"
          },
          "t_uint256": {
            "encoding": "inplace",
            "label": "uint256",
            "numberOfBytes": "32"
          }
        }
      }
    }
  }
}