{
  "_format": "hh-sol-artifact-1",
  "contractName": "ChartsBet",
  "sourceName": "contracts/ChartsBet.sol",
  "abi": [
    {
      "inputs": [],
      "name": "ArtistNotInLeaderboard",
      "type": "error"
    },
    {
      "inputs": [],
      "name": "BettingClosed",
      "type": "error"
    },
    {
      "inputs": [],
      "name": "EnforcedPause",
      "type": "error"
    },
    {
      "inputs": [],
      "name": "ExpectedPause",
      "type": "error"
    },
    {
      "inputs": [],
      "name": "InvalidCountryCode",
      "type": "error"
    },
    {
      "inputs": [],
      "name": "InvalidInitialization",
      "type": "error"
    },
    {
      "inputs": [],
      "name": "InvalidOracleAddress",
      "type": "error"
    },
    {
      "inputs": [],
      "name": "LeaderboardAlreadyClosed",
      "type": "error"
    },
    {
      "inputs": [],
      "name": "LeaderboardNotFound",
      "type": "error"
    },
    {
      "inputs": [],
      "name": "LeaderboardStillActive",
      "type": "error"
    },
    {
      "inputs": [],
      "name": "NoFundsToWithdraw",
      "type": "error"
    },
    {
      "inputs": [],
      "name": "NotInitializing",
      "type": "error"
    },
    {
      "inputs": [],
      "name": "OnlyOracleAllowed",
      "type": "error"
    },
    {
      "inputs": [
        {
          "internalType": "address",
          "name": "owner",
          "type": "address"
        }
      ],
      "name": "OwnableInvalidOwner",
      "type": "error"
    },
    {
      "inputs": [
        {
          "internalType": "address",
          "name": "account",
          "type": "address"
        }
      ],
      "name": "OwnableUnauthorizedAccount",
      "type": "error"
    },
    {
      "inputs": [],
      "name": "ReentrancyGuardReentrantCall",
      "type": "error"
    },
    {
      "inputs": [],
      "name": "WithdrawalDelayNotMet",
      "type": "error"
    },
    {
      "anonymous": false,
      "inputs": [
        {
          "indexed": true,
          "internalType": "bytes32",
          "name": "country",
          "type": "bytes32"
        },
        {
          "indexed": false,
          "internalType": "string",
          "name": "artist",
          "type": "string"
        },
        {
          "indexed": false,
          "internalType": "uint256",
          "name": "odds",
          "type": "uint256"
        }
      ],
      "name": "ArtistOddsSet",
      "type": "event"
    },
    {
      "anonymous": false,
      "inputs": [
        {
          "indexed": true,
          "internalType": "address",
          "name": "user",
          "type": "address"
        },
        {
          "indexed": true,
          "internalType": "bytes32",
          "name": "country",
          "type": "bytes32"
        },
        {
          "indexed": false,
          "internalType": "string",
          "name": "artist",
          "type": "string"
        },
        {
          "indexed": false,
          "internalType": "uint256",
          "name": "amount",
          "type": "uint256"
        }
      ],
      "name": "BetPlaced",
      "type": "event"
    },
    {
      "anonymous": false,
      "inputs": [
        {
          "indexed": true,
          "internalType": "bytes32",
          "name": "country",
          "type": "bytes32"
        },
        {
          "indexed": false,
          "internalType": "string",
          "name": "winningArtist",
          "type": "string"
        }
      ],
      "name": "DailyWinnerFulfilled",
      "type": "event"
    },
    {
      "anonymous": false,
      "inputs": [
        {
          "indexed": false,
          "internalType": "uint64",
          "name": "version",
          "type": "uint64"
        }
      ],
      "name": "Initialized",
      "type": "event"
    },
    {
      "anonymous": false,
      "inputs": [
        {
          "indexed": true,
          "internalType": "bytes32",
          "name": "country",
          "type": "bytes32"
        }
      ],
      "name": "LeaderboardClosed",
      "type": "event"
    },
    {
      "anonymous": false,
      "inputs": [
        {
          "indexed": true,
          "internalType": "bytes32",
          "name": "country",
          "type": "bytes32"
        }
      ],
      "name": "LeaderboardCreated",
      "type": "event"
    },
    {
      "anonymous": false,
      "inputs": [
        {
          "indexed": false,
          "internalType": "address",
          "name": "newOracle",
          "type": "address"
        }
      ],
      "name": "OracleUpdated",
      "type": "event"
    },
    {
      "anonymous": false,
      "inputs": [
        {
          "indexed": true,
          "internalType": "address",
          "name": "previousOwner",
          "type": "address"
        },
        {
          "indexed": true,
          "internalType": "address",
          "name": "newOwner",
          "type": "address"
        }
      ],
      "name": "OwnershipTransferred",
      "type": "event"
    },
    {
      "anonymous": false,
      "inputs": [
        {
          "indexed": false,
          "internalType": "address",
          "name": "account",
          "type": "address"
        }
      ],
      "name": "Paused",
      "type": "event"
    },
    {
      "anonymous": false,
      "inputs": [
        {
          "indexed": true,
          "internalType": "bytes32",
          "name": "country",
          "type": "bytes32"
        }
      ],
      "name": "TopArtistsFulfilled",
      "type": "event"
    },
    {
      "anonymous": false,
      "inputs": [
        {
          "indexed": false,
          "internalType": "address",
          "name": "account",
          "type": "address"
        }
      ],
      "name": "Unpaused",
      "type": "event"
    },
    {
      "anonymous": false,
      "inputs": [
        {
          "indexed": false,
          "internalType": "uint256",
          "name": "amount",
          "type": "uint256"
        }
      ],
      "name": "WithdrawalExecuted",
      "type": "event"
    },
    {
      "anonymous": false,
      "inputs": [
        {
          "indexed": false,
          "internalType": "uint256",
          "name": "requestTime",
          "type": "uint256"
        }
      ],
      "name": "WithdrawalRequested",
      "type": "event"
    },
    {
      "inputs": [],
      "name": "LEADERBOARD_DURATION",
      "outputs": [
        {
          "internalType": "uint256",
          "name": "",
          "type": "uint256"
        }
      ],
      "stateMutability": "view",
      "type": "function"
    },
    {
      "inputs": [],
      "name": "WITHDRAWAL_DELAY",
      "outputs": [
        {
          "internalType": "uint256",
          "name": "",
          "type": "uint256"
        }
      ],
      "stateMutability": "view",
      "type": "function"
    },
    {
      "inputs": [
        {
          "internalType": "bytes32",
          "name": "country",
          "type": "bytes32"
        }
      ],
      "name": "closeLeaderboard",
      "outputs": [],
      "stateMutability": "nonpayable",
      "type": "function"
    },
    {
      "inputs": [
        {
          "internalType": "uint256",
          "name": "",
          "type": "uint256"
        }
      ],
      "name": "countryList",
      "outputs": [
        {
          "internalType": "bytes32",
          "name": "",
          "type": "bytes32"
        }
      ],
      "stateMutability": "view",
      "type": "function"
    },
    {
      "inputs": [
        {
          "internalType": "bytes32",
          "name": "country",
          "type": "bytes32"
        }
      ],
      "name": "createLeaderboard",
      "outputs": [],
      "stateMutability": "nonpayable",
      "type": "function"
    },
    {
      "inputs": [],
      "name": "executeWithdrawal",
      "outputs": [],
      "stateMutability": "nonpayable",
      "type": "function"
    },
    {
      "inputs": [
        {
          "internalType": "bytes32",
          "name": "country",
          "type": "bytes32"
        },
        {
          "internalType": "string",
          "name": "winningArtist",
          "type": "string"
        }
      ],
      "name": "fulfillDailyWinner",
      "outputs": [],
      "stateMutability": "nonpayable",
      "type": "function"
    },
    {
      "inputs": [
        {
          "internalType": "bytes32",
          "name": "country",
          "type": "bytes32"
        },
        {
          "internalType": "string[]",
          "name": "topArtists",
          "type": "string[]"
        }
      ],
      "name": "fulfillTopArtists",
      "outputs": [],
      "stateMutability": "nonpayable",
      "type": "function"
    },
    {
      "inputs": [
        {
          "internalType": "bytes32",
          "name": "country",
          "type": "bytes32"
        },
        {
          "internalType": "string",
          "name": "artist",
          "type": "string"
        }
      ],
      "name": "getArtistOdds",
      "outputs": [
        {
          "internalType": "uint256",
          "name": "",
          "type": "uint256"
        }
      ],
      "stateMutability": "view",
      "type": "function"
    },
    {
      "inputs": [
        {
          "internalType": "bytes32",
          "name": "country",
          "type": "bytes32"
        }
      ],
      "name": "getBetsInCountry",
      "outputs": [
        {
          "components": [
            {
              "internalType": "address",
              "name": "user",
              "type": "address"
            },
            {
              "internalType": "uint256",
              "name": "amount",
              "type": "uint256"
            },
            {
              "internalType": "string",
              "name": "artist",
              "type": "string"
            },
            {
              "internalType": "uint256",
              "name": "odds",
              "type": "uint256"
            }
          ],
          "internalType": "struct ChartsBet.Bet[]",
          "name": "",
          "type": "tuple[]"
        }
      ],
      "stateMutability": "view",
      "type": "function"
    },
    {
      "inputs": [
        {
          "internalType": "bytes32",
          "name": "country",
          "type": "bytes32"
        }
      ],
      "name": "getTotalBetAmount",
      "outputs": [
        {
          "internalType": "uint256",
          "name": "",
          "type": "uint256"
        }
      ],
      "stateMutability": "view",
      "type": "function"
    },
    {
      "inputs": [
        {
          "internalType": "bytes32",
          "name": "country",
          "type": "bytes32"
        },
        {
          "internalType": "string",
          "name": "artist",
          "type": "string"
        }
      ],
      "name": "getTotalBetsOnArtist",
      "outputs": [
        {
          "internalType": "uint256",
          "name": "",
          "type": "uint256"
        }
      ],
      "stateMutability": "view",
      "type": "function"
    },
    {
      "inputs": [
        {
          "internalType": "address",
          "name": "_owner",
          "type": "address"
        },
        {
          "internalType": "address",
          "name": "_oracle",
          "type": "address"
        }
      ],
      "name": "initialize",
      "outputs": [],
      "stateMutability": "nonpayable",
      "type": "function"
    },
    {
      "inputs": [
        {
          "internalType": "bytes32",
          "name": "country",
          "type": "bytes32"
        }
      ],
      "name": "isLeaderboardExpired",
      "outputs": [
        {
          "internalType": "bool",
          "name": "",
          "type": "bool"
        }
      ],
      "stateMutability": "view",
      "type": "function"
    },
    {
      "inputs": [
        {
          "internalType": "bytes32",
          "name": "",
          "type": "bytes32"
        }
      ],
      "name": "leaderboards",
      "outputs": [
        {
          "internalType": "bytes32",
          "name": "country",
          "type": "bytes32"
        },
        {
          "internalType": "string",
          "name": "winningArtist",
          "type": "string"
        },
        {
          "internalType": "bool",
          "name": "isClosed",
          "type": "bool"
        },
        {
          "internalType": "uint256",
          "name": "totalBetAmount",
          "type": "uint256"
        },
        {
          "internalType": "uint256",
          "name": "startTime",
          "type": "uint256"
        }
      ],
      "stateMutability": "view",
      "type": "function"
    },
    {
      "inputs": [],
      "name": "oracle",
      "outputs": [
        {
          "internalType": "contract ChartsOracle",
          "name": "",
          "type": "address"
        }
      ],
      "stateMutability": "view",
      "type": "function"
    },
    {
      "inputs": [],
      "name": "owner",
      "outputs": [
        {
          "internalType": "address",
          "name": "",
          "type": "address"
        }
      ],
      "stateMutability": "view",
      "type": "function"
    },
    {
      "inputs": [],
      "name": "paused",
      "outputs": [
        {
          "internalType": "bool",
          "name": "",
          "type": "bool"
        }
      ],
      "stateMutability": "view",
      "type": "function"
    },
    {
      "inputs": [
        {
          "internalType": "bytes32",
          "name": "country",
          "type": "bytes32"
        },
        {
          "internalType": "string",
          "name": "artist",
          "type": "string"
        }
      ],
      "name": "placeBet",
      "outputs": [],
      "stateMutability": "payable",
      "type": "function"
    },
    {
      "inputs": [],
      "name": "renounceOwnership",
      "outputs": [],
      "stateMutability": "nonpayable",
      "type": "function"
    },
    {
      "inputs": [],
      "name": "requestWithdrawal",
      "outputs": [],
      "stateMutability": "nonpayable",
      "type": "function"
    },
    {
      "inputs": [],
      "name": "testOracleConnection",
      "outputs": [],
      "stateMutability": "nonpayable",
      "type": "function"
    },
    {
      "inputs": [],
      "name": "toggleContractActive",
      "outputs": [],
      "stateMutability": "nonpayable",
      "type": "function"
    },
    {
      "inputs": [
        {
          "internalType": "address",
          "name": "newOwner",
          "type": "address"
        }
      ],
      "name": "transferOwnership",
      "outputs": [],
      "stateMutability": "nonpayable",
      "type": "function"
    },
    {
      "inputs": [
        {
          "internalType": "address",
          "name": "newOracle",
          "type": "address"
        }
      ],
      "name": "updateOracle",
      "outputs": [],
      "stateMutability": "nonpayable",
      "type": "function"
    },
    {
      "inputs": [
        {
          "internalType": "bytes32",
          "name": "",
          "type": "bytes32"
        }
      ],
      "name": "validCountries",
      "outputs": [
        {
          "internalType": "bool",
          "name": "",
          "type": "bool"
        }
      ],
      "stateMutability": "view",
      "type": "function"
    },
    {
      "inputs": [],
      "name": "withdrawalRequestTime",
      "outputs": [
        {
          "internalType": "uint256",
          "name": "",
          "type": "uint256"
        }
      ],
      "stateMutability": "view",
      "type": "function"
    }
  ],
  "bytecode": "0x6080604052348015600f57600080fd5b5061339d8061001f6000396000f3fe60806040526004361061019c5760003560e01c8063685142c7116100ec57806399da7aac1161008a578063f2fde38b11610064578063f2fde38b14610595578063f59bdf85146105be578063fa45aa00146105e9578063fa88e7e7146106005761019c565b806399da7aac1461052a578063c2d1aebe14610553578063dbaf21451461057e5761019c565b806378353ba6116100c657806378353ba61461046e5780637dc0d1d0146104975780638da5cb5b146104c257806397654961146104ed5761019c565b8063685142c7146103dd578063715018a61461041a57806377d0c7d3146104315761019c565b806325100b4d11610159578063485cc95511610133578063485cc9551461030b57806351922353146103345780635c975abb1461037557806366566a37146103a05761019c565b806325100b4d146102af5780632ce3707e146102cb5780633952172d146102e25761019c565b80630617c33b146101a1578063061d3bd2146101de57806306dc39bf146102075780630ebb172a146102445780631385d24c1461026f5780631cb44dfc14610286575b600080fd5b3480156101ad57600080fd5b506101c860048036038101906101c3919061268b565b61063d565b6040516101d59190612700565b60405180910390f35b3480156101ea57600080fd5b5061020560048036038101906102009190612801565b610699565b005b34801561021357600080fd5b5061022e6004803603810190610229919061285d565b61085a565b60405161023b9190612a7e565b60405180910390f35b34801561025057600080fd5b506102596109d0565b6040516102669190612700565b60405180910390f35b34801561027b57600080fd5b506102846109d7565b005b34801561029257600080fd5b506102ad60048036038101906102a89190612acc565b610a04565b005b6102c960048036038101906102c4919061268b565b610aed565b005b3480156102d757600080fd5b506102e0610da9565b005b3480156102ee57600080fd5b506103096004803603810190610304919061268b565b610e00565b005b34801561031757600080fd5b50610332600480360381019061032d9190612af9565b61110d565b005b34801561034057600080fd5b5061035b6004803603810190610356919061285d565b6114b0565b60405161036c959493929190612bad565b60405180910390f35b34801561038157600080fd5b5061038a61157b565b6040516103979190612c07565b60405180910390f35b3480156103ac57600080fd5b506103c760048036038101906103c2919061285d565b6115a0565b6040516103d49190612c07565b60405180910390f35b3480156103e957600080fd5b5061040460048036038101906103ff9190612c4e565b6115c0565b6040516104119190612c7b565b60405180910390f35b34801561042657600080fd5b5061042f6115e4565b005b34801561043d57600080fd5b506104586004803603810190610453919061285d565b6115f8565b6040516104659190612c07565b60405180910390f35b34801561047a57600080fd5b506104956004803603810190610490919061285d565b61162d565b005b3480156104a357600080fd5b506104ac611722565b6040516104b99190612cf5565b60405180910390f35b3480156104ce57600080fd5b506104d7611748565b6040516104e49190612d1f565b60405180910390f35b3480156104f957600080fd5b50610514600480360381019061050f919061285d565b611780565b6040516105219190612700565b60405180910390f35b34801561053657600080fd5b50610551600480360381019061054c919061285d565b61179f565b005b34801561055f57600080fd5b5061056861199d565b6040516105759190612700565b60405180910390f35b34801561058a57600080fd5b506105936119a4565b005b3480156105a157600080fd5b506105bc60048036038101906105b79190612acc565b6119ee565b005b3480156105ca57600080fd5b506105d3611a74565b6040516105e09190612700565b60405180910390f35b3480156105f557600080fd5b506105fe611a7a565b005b34801561060c57600080fd5b506106276004803603810190610622919061268b565b611b9b565b6040516106349190612700565b60405180910390f35b600080826040516020016106519190612d76565b60405160208183030381529060405280519060200120905060008085815260200190815260200160002060070160008281526020019081526020016000205491505092915050565b6106a1611bf7565b600260009054906101000a900473ffffffffffffffffffffffffffffffffffffffff1673ffffffffffffffffffffffffffffffffffffffff163373ffffffffffffffffffffffffffffffffffffffff1614610728576040517fd342cbff00000000000000000000000000000000000000000000000000000000815260040160405180910390fd5b6003600083815260200190815260200160002060009054906101000a900460ff1661077f576040517f139d566400000000000000000000000000000000000000000000000000000000815260040160405180910390fd5b600080600084815260200190815260200160002090506000801b8160000154036107d5576040517f3d3cef6a00000000000000000000000000000000000000000000000000000000815260040160405180910390fd5b8060020160009054906101000a900460ff161561081e576040517f9aa0b8bd00000000000000000000000000000000000000000000000000000000815260040160405180910390fd5b6108288383611c38565b827f577b6860ec2af75814bd1d732a479f5787676f4012afbc91228827a4b7f2e5a460405160405180910390a2505050565b60606000806000848152602001908152602001600020905080600801805480602002602001604051908101604052809291908181526020016000905b828210156109c457838290600052602060002090600402016040518060800160405290816000820160009054906101000a900473ffffffffffffffffffffffffffffffffffffffff1673ffffffffffffffffffffffffffffffffffffffff1673ffffffffffffffffffffffffffffffffffffffff1681526020016001820154815260200160028201805461092990612dbc565b80601f016020809104026020016040519081016040528092919081815260200182805461095590612dbc565b80156109a25780601f10610977576101008083540402835291602001916109a2565b820191906000526020600020905b81548152906001019060200180831161098557829003601f168201915b5050505050815260200160038201548152505081526020019060010190610896565b50505050915050919050565b6202a30081565b6109df611ead565b6109e761157b565b156109f9576109f4611f34565b610a02565b610a01611fa6565b5b565b610a0c611ead565b600073ffffffffffffffffffffffffffffffffffffffff168173ffffffffffffffffffffffffffffffffffffffff1603610a72576040517f5521068100000000000000000000000000000000000000000000000000000000815260040160405180910390fd5b80600260006101000a81548173ffffffffffffffffffffffffffffffffffffffff021916908373ffffffffffffffffffffffffffffffffffffffff1602179055507f3df77beb5db05fcdd70a30fc8adf3f83f9501b68579455adbd100b818094039481604051610ae29190612d1f565b60405180910390a150565b610af5611bf7565b610afd612018565b600080600084815260200190815260200160002090506000801b816000015403610b53576040517f3d3cef6a00000000000000000000000000000000000000000000000000000000815260040160405180910390fd5b8060020160009054906101000a900460ff1680610b755750610b74836115f8565b5b15610bac576040517f61c54c4a00000000000000000000000000000000000000000000000000000000815260040160405180910390fd5b600082604051602001610bbf9190612d76565b604051602081830303815290604052805190602001209050600082600701600083815260200190815260200160002054905060008103610c2b576040517f59bdd61600000000000000000000000000000000000000000000000000000000815260040160405180910390fd5b34836003016000828254610c3f9190612e1c565b92505081905550348360050160008481526020019081526020016000206000828254610c6b9190612e1c565b925050819055508260080160405180608001604052803373ffffffffffffffffffffffffffffffffffffffff16815260200134815260200186815260200183815250908060018154018082558091505060019003906000526020600020906004020160009091909190915060008201518160000160006101000a81548173ffffffffffffffffffffffffffffffffffffffff021916908373ffffffffffffffffffffffffffffffffffffffff160217905550602082015181600101556040820151816002019081610d3c9190612ff2565b50606082015181600301555050843373ffffffffffffffffffffffffffffffffffffffff167f48fc46cbccdd1929e80dd1cfd9cd0e841cf8a54f6dde1807225608686a8e6f758634604051610d929291906130c4565b60405180910390a3505050610da561206f565b5050565b610db1611ead565b7f54455354000000000000000000000000000000000000000000000000000000007f73829305e9f70b89111cf588e6d67f7360300700b6ecaed7130c8021d454b49160405160405180910390a2565b610e08611bf7565b610e10612018565b600260009054906101000a900473ffffffffffffffffffffffffffffffffffffffff1673ffffffffffffffffffffffffffffffffffffffff163373ffffffffffffffffffffffffffffffffffffffff1614610e97576040517fd342cbff00000000000000000000000000000000000000000000000000000000815260040160405180910390fd5b600080600084815260200190815260200160002090506000801b816000015403610eed576040517f3d3cef6a00000000000000000000000000000000000000000000000000000000815260040160405180910390fd5b8060020160009054906101000a900460ff1615610f36576040517f61c54c4a00000000000000000000000000000000000000000000000000000000815260040160405180910390fd5b81816001019081610f479190612ff2565b5060018160020160006101000a81548160ff021916908315150217905550600082604051602001610f789190612d76565b60405160208183030381529060405280519060200120905060005b8260080180549050811015611099576000836008018281548110610fba57610fb96130f4565b5b906000526020600020906004020190508281600201604051602001610fdf91906131a6565b604051602081830303815290604052805190602001200361108b57600060648260030154836001015461101291906131bd565b61101c919061322e565b90508160000160009054906101000a900473ffffffffffffffffffffffffffffffffffffffff1673ffffffffffffffffffffffffffffffffffffffff166108fc829081150290604051600060405180830381858888f19350505050158015611088573d6000803e3d6000fd5b50505b508080600101915050610f93565b50837f05b38d8d0276a7822a40028770c59e835ff41a84cf7ef75d0ca61374dd2114b2846040516110ca919061325f565b60405180910390a2837f7fa0af01d1013cd4a40114e18d6be90c73e0906187e6bd1f851acc747e36475360405160405180910390a2505061110961206f565b5050565b6000611117612088565b905060008160000160089054906101000a900460ff1615905060008260000160009054906101000a900467ffffffffffffffff1690506000808267ffffffffffffffff161480156111655750825b9050600060018367ffffffffffffffff1614801561119a575060003073ffffffffffffffffffffffffffffffffffffffff163b145b9050811580156111a8575080155b156111df576040517ff92ee8a900000000000000000000000000000000000000000000000000000000815260040160405180910390fd5b60018560000160006101000a81548167ffffffffffffffff021916908367ffffffffffffffff160217905550831561122f5760018560000160086101000a81548160ff0219169083151502179055505b611238876120b0565b6112406120c4565b6112486120d6565b85600260006101000a81548173ffffffffffffffffffffffffffffffffffffffff021916908373ffffffffffffffffffffffffffffffffffffffff16021790555060006040518061012001604052807f575700000000000000000000000000000000000000000000000000000000000081526020017f425200000000000000000000000000000000000000000000000000000000000081526020017f444500000000000000000000000000000000000000000000000000000000000081526020017f455300000000000000000000000000000000000000000000000000000000000081526020017f465200000000000000000000000000000000000000000000000000000000000081526020017f495400000000000000000000000000000000000000000000000000000000000081526020017f505400000000000000000000000000000000000000000000000000000000000081526020017f555300000000000000000000000000000000000000000000000000000000000081526020017f5445535400000000000000000000000000000000000000000000000000000000815250905060005b600981101561144957600160036000848460098110611412576114116130f4565b5b6020020151815260200190815260200160002060006101000a81548160ff02191690831515021790555080806001019150506113f0565b505083156114a75760008560000160086101000a81548160ff0219169083151502179055507fc7f505b2f371ae2175ee4913f4499e1f2633a7b5936321eed1cdaeb6115181d2600160405161149e91906132d0565b60405180910390a15b50505050505050565b60006020528060005260406000206000915090508060000154908060010180546114d990612dbc565b80601f016020809104026020016040519081016040528092919081815260200182805461150590612dbc565b80156115525780601f1061152757610100808354040283529160200191611552565b820191906000526020600020905b81548152906001019060200180831161153557829003601f168201915b5050505050908060020160009054906101000a900460ff16908060030154908060040154905085565b6000806115866120e8565b90508060000160009054906101000a900460ff1691505090565b60036020528060005260406000206000915054906101000a900460ff1681565b600181815481106115d057600080fd5b906000526020600020016000915090505481565b6115ec611ead565b6115f66000612110565b565b600080600080848152602001908152602001600020905062093a8081600401546116229190612e1c565b421015915050919050565b611635611ead565b600080600083815260200190815260200160002090506000801b81600001540361168b576040517f3d3cef6a00000000000000000000000000000000000000000000000000000000815260040160405180910390fd5b8060020160009054906101000a900460ff16156116d4576040517f9aa0b8bd00000000000000000000000000000000000000000000000000000000815260040160405180910390fd5b60018160020160006101000a81548160ff021916908315150217905550817f7fa0af01d1013cd4a40114e18d6be90c73e0906187e6bd1f851acc747e36475360405160405180910390a25050565b600260009054906101000a900473ffffffffffffffffffffffffffffffffffffffff1681565b6000806117536121e7565b90508060000160009054906101000a900473ffffffffffffffffffffffffffffffffffffffff1691505090565b6000806000838152602001908152602001600020600301549050919050565b6117a7611ead565b6117af611bf7565b6003600082815260200190815260200160002060009054906101000a900460ff16611806576040517f139d566400000000000000000000000000000000000000000000000000000000815260040160405180910390fd5b600080600083815260200190815260200160002090506000801b8160000154146118f3578060020160009054906101000a900460ff1615801561185a575062093a8081600401546118579190612e1c565b42105b15611891576040517fdbe95ff500000000000000000000000000000000000000000000000000000000815260040160405180910390fd5b6000808381526020019081526020016000206000808201600090556001820160006118bc919061241c565b6002820160006101000a81549060ff0219169055600382016000905560048201600090556008820160006118f0919061245c565b50505b6000806000848152602001908152602001600020905082816000018190555060008160020160006101000a81548160ff021916908315150217905550428160040181905550600081600301819055506001839080600181540180825580915050600190039060005260206000200160009091909190915055827f73829305e9f70b89111cf588e6d67f7360300700b6ecaed7130c8021d454b49160405160405180910390a2505050565b62093a8081565b6119ac611ead565b426004819055507faf619daa033514f6c299197d29548ccd9276a1b55ef717fb80adf495925dd5106004546040516119e49190612700565b60405180910390a1565b6119f6611ead565b600073ffffffffffffffffffffffffffffffffffffffff168173ffffffffffffffffffffffffffffffffffffffff1603611a685760006040517f1e4fbdf7000000000000000000000000000000000000000000000000000000008152600401611a5f9190612d1f565b60405180910390fd5b611a7181612110565b50565b60045481565b611a82611ead565b6202a300600454611a939190612e1c565b421015611acc576040517fb95063c200000000000000000000000000000000000000000000000000000000815260040160405180910390fd5b60004703611b06576040517f67e3990d00000000000000000000000000000000000000000000000000000000815260040160405180910390fd5b6000479050611b13611748565b73ffffffffffffffffffffffffffffffffffffffff166108fc829081150290604051600060405180830381858888f19350505050158015611b58573d6000803e3d6000fd5b5060006004819055507feaa620b5c98328f5ddb4195c31eadb3e30e7915fcbc9cc1c244441984780c0d281604051611b909190612700565b60405180910390a150565b60008082604051602001611baf9190612d76565b60405160208183030381529060405280519060200120905060008085815260200190815260200160002060050160008281526020019081526020016000205491505092915050565b611bff61157b565b15611c36576040517fd93c066500000000000000000000000000000000000000000000000000000000815260040160405180910390fd5b565b60008060008481526020019081526020016000209050600081600601905060005b8351811015611d03576000848281518110611c7757611c766130f4565b5b6020026020010151604051602001611c8f9190612d76565b604051602081830303815290604052805190602001209050600084600601600083815260200190815260200160002081905550600084600701600083815260200190815260200160002081905550600083600083815260200190815260200160002081905550508080600101915050611c59565b5060005b8351811015611d8b576000848281518110611d2557611d246130f4565b5b6020026020010151604051602001611d3d9190612d76565b6040516020818303038152906040528051906020012090508260008281526020019081526020016000206000815480929190611d78906132eb565b9190505550508080600101915050611d07565b5060005b8351811015611ea6576000848281518110611dad57611dac6130f4565b5b6020026020010151604051602001611dc59190612d76565b6040516020818303038152906040528051906020012090506000600183611dec9190612e1c565b905080856006016000848152602001908152602001600020819055506000611e26828660008681526020019081526020016000205461220f565b90508086600701600085815260200190815260200160002081905550877fc95c35564c411feac50a7081834b0aaba8fa88d917db6f6989e6387e52746c2a888681518110611e7757611e766130f4565b5b602002602001015183604051611e8e9291906130c4565b60405180910390a25050508080600101915050611d8f565b5050505050565b611eb5612271565b73ffffffffffffffffffffffffffffffffffffffff16611ed3611748565b73ffffffffffffffffffffffffffffffffffffffff1614611f3257611ef6612271565b6040517f118cdaa7000000000000000000000000000000000000000000000000000000008152600401611f299190612d1f565b60405180910390fd5b565b611f3c612279565b6000611f466120e8565b905060008160000160006101000a81548160ff0219169083151502179055507f5db9ee0a495bf2e6ff9c91a7834c1ba4fdd244a5e8aa4e537bd38aeae4b073aa611f8e612271565b604051611f9b9190612d1f565b60405180910390a150565b611fae611bf7565b6000611fb86120e8565b905060018160000160006101000a81548160ff0219169083151502179055507f62e78cea01bee320cd4e420270b5ea74000d11b0c9f74754ebdbfc544b05a258612000612271565b60405161200d9190612d1f565b60405180910390a150565b60006120226122b9565b90506002816000015403612062576040517f3ee5aeb500000000000000000000000000000000000000000000000000000000815260040160405180910390fd5b6002816000018190555050565b60006120796122b9565b90506001816000018190555050565b60007ff0c57e16840df040f15088dc2f81fe391c3923bec73e23a9662efc9c229c6a00905090565b6120b86122e1565b6120c181612321565b50565b6120cc6122e1565b6120d46123a7565b565b6120de6122e1565b6120e66123db565b565b60007fcd5ed15c6e187e77e9aee88184c21f4f2182ab5827cb3b7e07fbedcd63f03300905090565b600061211a6121e7565b905060008160000160009054906101000a900473ffffffffffffffffffffffffffffffffffffffff169050828260000160006101000a81548173ffffffffffffffffffffffffffffffffffffffff021916908373ffffffffffffffffffffffffffffffffffffffff1602179055508273ffffffffffffffffffffffffffffffffffffffff168173ffffffffffffffffffffffffffffffffffffffff167f8be0079c531659141344cd1fd0a4f28419497f9722a3daafe3b4186f6b6457e060405160405180910390a3505050565b60007f9016d09d72d40fdae2fd8ceac6b6234c7706214fd39c1cd1e609a0528c199300905090565b6000806002600184866122229190612e1c565b61222c9190613333565b856122379190612e1c565b612241919061322e565b905060146001826122529190613333565b61225c91906131bd565b60786122689190612e1c565b91505092915050565b600033905090565b61228161157b565b6122b7576040517f8dfc202b00000000000000000000000000000000000000000000000000000000815260040160405180910390fd5b565b60007f9b779b17422d0df92223018b32b4d1fa46e071723d6817e2486d003becc55f00905090565b6122e96123fc565b61231f576040517fd7e6bcf800000000000000000000000000000000000000000000000000000000815260040160405180910390fd5b565b6123296122e1565b600073ffffffffffffffffffffffffffffffffffffffff168173ffffffffffffffffffffffffffffffffffffffff160361239b5760006040517f1e4fbdf70000000000000000000000000000000000000000000000000000000081526004016123929190612d1f565b60405180910390fd5b6123a481612110565b50565b6123af6122e1565b60006123b96120e8565b905060008160000160006101000a81548160ff02191690831515021790555050565b6123e36122e1565b60006123ed6122b9565b90506001816000018190555050565b6000612406612088565b60000160089054906101000a900460ff16905090565b50805461242890612dbc565b6000825580601f1061243a5750612459565b601f0160209004906000526020600020908101906124589190612480565b5b50565b508054600082556004029060005260206000209081019061247d919061249d565b50565b5b80821115612499576000816000905550600101612481565b5090565b5b808211156124f757600080820160006101000a81549073ffffffffffffffffffffffffffffffffffffffff021916905560018201600090556002820160006124e6919061241c565b60038201600090555060040161249e565b5090565b6000604051905090565b600080fd5b600080fd5b6000819050919050565b6125228161250f565b811461252d57600080fd5b50565b60008135905061253f81612519565b92915050565b600080fd5b600080fd5b6000601f19601f8301169050919050565b7f4e487b7100000000000000000000000000000000000000000000000000000000600052604160045260246000fd5b6125988261254f565b810181811067ffffffffffffffff821117156125b7576125b6612560565b5b80604052505050565b60006125ca6124fb565b90506125d6828261258f565b919050565b600067ffffffffffffffff8211156125f6576125f5612560565b5b6125ff8261254f565b9050602081019050919050565b82818337600083830152505050565b600061262e612629846125db565b6125c0565b90508281526020810184848401111561264a5761264961254a565b5b61265584828561260c565b509392505050565b600082601f83011261267257612671612545565b5b813561268284826020860161261b565b91505092915050565b600080604083850312156126a2576126a1612505565b5b60006126b085828601612530565b925050602083013567ffffffffffffffff8111156126d1576126d061250a565b5b6126dd8582860161265d565b9150509250929050565b6000819050919050565b6126fa816126e7565b82525050565b600060208201905061271560008301846126f1565b92915050565b600067ffffffffffffffff82111561273657612735612560565b5b602082029050602081019050919050565b600080fd5b600061275f61275a8461271b565b6125c0565b9050808382526020820190506020840283018581111561278257612781612747565b5b835b818110156127c957803567ffffffffffffffff8111156127a7576127a6612545565b5b8086016127b4898261265d565b85526020850194505050602081019050612784565b5050509392505050565b600082601f8301126127e8576127e7612545565b5b81356127f884826020860161274c565b91505092915050565b6000806040838503121561281857612817612505565b5b600061282685828601612530565b925050602083013567ffffffffffffffff8111156128475761284661250a565b5b612853858286016127d3565b9150509250929050565b60006020828403121561287357612872612505565b5b600061288184828501612530565b91505092915050565b600081519050919050565b600082825260208201905092915050565b6000819050602082019050919050565b600073ffffffffffffffffffffffffffffffffffffffff82169050919050565b60006128e1826128b6565b9050919050565b6128f1816128d6565b82525050565b612900816126e7565b82525050565b600081519050919050565b600082825260208201905092915050565b60005b83811015612940578082015181840152602081019050612925565b60008484015250505050565b600061295782612906565b6129618185612911565b9350612971818560208601612922565b61297a8161254f565b840191505092915050565b600060808301600083015161299d60008601826128e8565b5060208301516129b060208601826128f7565b50604083015184820360408601526129c8828261294c565b91505060608301516129dd60608601826128f7565b508091505092915050565b60006129f48383612985565b905092915050565b6000602082019050919050565b6000612a148261288a565b612a1e8185612895565b935083602082028501612a30856128a6565b8060005b85811015612a6c5784840389528151612a4d85826129e8565b9450612a58836129fc565b925060208a01995050600181019050612a34565b50829750879550505050505092915050565b60006020820190508181036000830152612a988184612a09565b905092915050565b612aa9816128d6565b8114612ab457600080fd5b50565b600081359050612ac681612aa0565b92915050565b600060208284031215612ae257612ae1612505565b5b6000612af084828501612ab7565b91505092915050565b60008060408385031215612b1057612b0f612505565b5b6000612b1e85828601612ab7565b9250506020612b2f85828601612ab7565b9150509250929050565b612b428161250f565b82525050565b600082825260208201905092915050565b6000612b6482612906565b612b6e8185612b48565b9350612b7e818560208601612922565b612b878161254f565b840191505092915050565b60008115159050919050565b612ba781612b92565b82525050565b600060a082019050612bc26000830188612b39565b8181036020830152612bd48187612b59565b9050612be36040830186612b9e565b612bf060608301856126f1565b612bfd60808301846126f1565b9695505050505050565b6000602082019050612c1c6000830184612b9e565b92915050565b612c2b816126e7565b8114612c3657600080fd5b50565b600081359050612c4881612c22565b92915050565b600060208284031215612c6457612c63612505565b5b6000612c7284828501612c39565b91505092915050565b6000602082019050612c906000830184612b39565b92915050565b6000819050919050565b6000612cbb612cb6612cb1846128b6565b612c96565b6128b6565b9050919050565b6000612ccd82612ca0565b9050919050565b6000612cdf82612cc2565b9050919050565b612cef81612cd4565b82525050565b6000602082019050612d0a6000830184612ce6565b92915050565b612d19816128d6565b82525050565b6000602082019050612d346000830184612d10565b92915050565b600081905092915050565b6000612d5082612906565b612d5a8185612d3a565b9350612d6a818560208601612922565b80840191505092915050565b6000612d828284612d45565b915081905092915050565b7f4e487b7100000000000000000000000000000000000000000000000000000000600052602260045260246000fd5b60006002820490506001821680612dd457607f821691505b602082108103612de757612de6612d8d565b5b50919050565b7f4e487b7100000000000000000000000000000000000000000000000000000000600052601160045260246000fd5b6000612e27826126e7565b9150612e32836126e7565b9250828201905080821115612e4a57612e49612ded565b5b92915050565b60008190508160005260206000209050919050565b60006020601f8301049050919050565b600082821b905092915050565b600060088302612eb27fffffffffffffffffffffffffffffffffffffffffffffffffffffffffffffffff82612e75565b612ebc8683612e75565b95508019841693508086168417925050509392505050565b6000612eef612eea612ee5846126e7565b612c96565b6126e7565b9050919050565b6000819050919050565b612f0983612ed4565b612f1d612f1582612ef6565b848454612e82565b825550505050565b600090565b612f32612f25565b612f3d818484612f00565b505050565b5b81811015612f6157612f56600082612f2a565b600181019050612f43565b5050565b601f821115612fa657612f7781612e50565b612f8084612e65565b81016020851015612f8f578190505b612fa3612f9b85612e65565b830182612f42565b50505b505050565b600082821c905092915050565b6000612fc960001984600802612fab565b1980831691505092915050565b6000612fe28383612fb8565b9150826002028217905092915050565b612ffb82612906565b67ffffffffffffffff81111561301457613013612560565b5b61301e8254612dbc565b613029828285612f65565b600060209050601f83116001811461305c576000841561304a578287015190505b6130548582612fd6565b8655506130bc565b601f19841661306a86612e50565b60005b828110156130925784890151825560018201915060208501945060208101905061306d565b868310156130af57848901516130ab601f891682612fb8565b8355505b6001600288020188555050505b505050505050565b600060408201905081810360008301526130de8185612b59565b90506130ed60208301846126f1565b9392505050565b7f4e487b7100000000000000000000000000000000000000000000000000000000600052603260045260246000fd5b6000815461313081612dbc565b61313a8186612d3a565b94506001821660008114613155576001811461316a5761319d565b60ff198316865281151582028601935061319d565b61317385612e50565b60005b8381101561319557815481890152600182019150602081019050613176565b838801955050505b50505092915050565b60006131b28284613123565b915081905092915050565b60006131c8826126e7565b91506131d3836126e7565b92508282026131e1816126e7565b915082820484148315176131f8576131f7612ded565b5b5092915050565b7f4e487b7100000000000000000000000000000000000000000000000000000000600052601260045260246000fd5b6000613239826126e7565b9150613244836126e7565b925082613254576132536131ff565b5b828204905092915050565b600060208201905081810360008301526132798184612b59565b905092915050565b6000819050919050565b600067ffffffffffffffff82169050919050565b60006132ba6132b56132b084613281565b612c96565b61328b565b9050919050565b6132ca8161329f565b82525050565b60006020820190506132e560008301846132c1565b92915050565b60006132f6826126e7565b91507fffffffffffffffffffffffffffffffffffffffffffffffffffffffffffffffff820361332857613327612ded565b5b600182019050919050565b600061333e826126e7565b9150613349836126e7565b925082820390508181111561336157613360612ded565b5b9291505056fea264697066735822122057cacf4fa53812c24a86d4a9511c341bdf114692a79d2f4e572b182dbeeddd6564736f6c634300081a0033",
  "linkReferences": {},
  "deployedLinkReferences": {}
}