{
  "_format": "hh-sol-artifact-1",
  "contractName": "ChartsBet",
  "sourceName": "contracts/ChartsBet.sol",
  "abi": [
    {
      "inputs": [
        {
          "internalType": "address",
          "name": "initialOwner",
          "type": "address"
        },
        {
          "internalType": "address",
          "name": "_chartsBetToken",
          "type": "address"
        }
      ],
      "stateMutability": "nonpayable",
      "type": "constructor"
    },
    {
      "inputs": [
        {
          "internalType": "address",
          "name": "bettor",
          "type": "address"
        }
      ],
      "name": "BetAlreadyPlaced",
      "type": "error"
    },
    {
      "inputs": [
        {
          "internalType": "uint256",
          "name": "amount",
          "type": "uint256"
        },
        {
          "internalType": "uint256",
          "name": "maxBet",
          "type": "uint256"
        }
      ],
      "name": "BetTooHigh",
      "type": "error"
    },
    {
      "inputs": [],
      "name": "EnforcedPause",
      "type": "error"
    },
    {
      "inputs": [],
      "name": "ExpectedPause",
      "type": "error"
    },
    {
      "inputs": [
        {
          "internalType": "uint256",
          "name": "required",
          "type": "uint256"
        },
        {
          "internalType": "uint256",
          "name": "available",
          "type": "uint256"
        }
      ],
      "name": "InsufficientContractBalance",
      "type": "error"
    },
    {
      "inputs": [
        {
          "internalType": "uint256",
          "name": "count",
          "type": "uint256"
        }
      ],
      "name": "InvalidArtistCount",
      "type": "error"
    },
    {
      "inputs": [
        {
          "internalType": "bytes32",
          "name": "country",
          "type": "bytes32"
        }
      ],
      "name": "InvalidCountry",
      "type": "error"
    },
    {
      "inputs": [],
      "name": "InvalidInitialization",
      "type": "error"
    },
    {
      "inputs": [],
      "name": "NoBetPlaced",
      "type": "error"
    },
    {
      "inputs": [],
      "name": "NoPayoutToClaim",
      "type": "error"
    },
    {
      "inputs": [],
      "name": "NotInitializing",
      "type": "error"
    },
    {
      "inputs": [
        {
          "internalType": "address",
          "name": "owner",
          "type": "address"
        }
      ],
      "name": "OwnableInvalidOwner",
      "type": "error"
    },
    {
      "inputs": [
        {
          "internalType": "address",
          "name": "account",
          "type": "address"
        }
      ],
      "name": "OwnableUnauthorizedAccount",
      "type": "error"
    },
    {
      "inputs": [],
      "name": "PoolAlreadyClosed",
      "type": "error"
    },
    {
      "inputs": [],
      "name": "PoolNotClosed",
      "type": "error"
    },
    {
      "inputs": [
        {
          "internalType": "uint256",
          "name": "currentTime",
          "type": "uint256"
        },
        {
          "internalType": "uint256",
          "name": "openingTime",
          "type": "uint256"
        },
        {
          "internalType": "uint256",
          "name": "closingTime",
          "type": "uint256"
        }
      ],
      "name": "PoolNotOpen",
      "type": "error"
    },
    {
      "inputs": [
        {
          "internalType": "uint256",
          "name": "currentTime",
          "type": "uint256"
        },
        {
          "internalType": "uint256",
          "name": "closingTime",
          "type": "uint256"
        }
      ],
      "name": "PoolNotReadyToClose",
      "type": "error"
    },
    {
      "inputs": [],
      "name": "ReentrancyGuardReentrantCall",
      "type": "error"
    },
    {
      "inputs": [],
      "name": "TokenTransferFailed",
      "type": "error"
    },
    {
      "anonymous": false,
      "inputs": [
        {
          "indexed": true,
          "internalType": "address",
          "name": "bettor",
          "type": "address"
        },
        {
          "indexed": true,
          "internalType": "bytes32",
          "name": "country",
          "type": "bytes32"
        },
        {
          "indexed": true,
          "internalType": "uint256",
          "name": "day",
          "type": "uint256"
        },
        {
          "indexed": false,
          "internalType": "bytes32",
          "name": "artist",
          "type": "bytes32"
        },
        {
          "indexed": false,
          "internalType": "uint256",
          "name": "amount",
          "type": "uint256"
        },
        {
          "indexed": false,
          "internalType": "uint256",
          "name": "odds",
          "type": "uint256"
        }
      ],
      "name": "BetPlaced",
      "type": "event"
    },
    {
      "anonymous": false,
      "inputs": [
        {
          "indexed": true,
          "internalType": "address",
          "name": "bettor",
          "type": "address"
        },
        {
          "indexed": true,
          "internalType": "bytes32",
          "name": "country",
          "type": "bytes32"
        },
        {
          "indexed": true,
          "internalType": "uint256",
          "name": "day",
          "type": "uint256"
        },
        {
          "indexed": false,
          "internalType": "uint256",
          "name": "amount",
          "type": "uint256"
        },
        {
          "indexed": false,
          "internalType": "bool",
          "name": "won",
          "type": "bool"
        }
      ],
      "name": "BetSettled",
      "type": "event"
    },
    {
      "anonymous": false,
      "inputs": [
        {
          "indexed": false,
          "internalType": "uint64",
          "name": "version",
          "type": "uint64"
        }
      ],
      "name": "Initialized",
      "type": "event"
    },
    {
      "anonymous": false,
      "inputs": [
        {
          "indexed": true,
          "internalType": "address",
          "name": "previousOwner",
          "type": "address"
        },
        {
          "indexed": true,
          "internalType": "address",
          "name": "newOwner",
          "type": "address"
        }
      ],
      "name": "OwnershipTransferred",
      "type": "event"
    },
    {
      "anonymous": false,
      "inputs": [
        {
          "indexed": false,
          "internalType": "address",
          "name": "account",
          "type": "address"
        }
      ],
      "name": "Paused",
      "type": "event"
    },
    {
      "anonymous": false,
      "inputs": [
        {
          "indexed": true,
          "internalType": "address",
          "name": "bettor",
          "type": "address"
        },
        {
          "indexed": false,
          "internalType": "uint256",
          "name": "amount",
          "type": "uint256"
        }
      ],
      "name": "PayoutClaimed",
      "type": "event"
    },
    {
      "anonymous": false,
      "inputs": [
        {
          "indexed": true,
          "internalType": "bytes32",
          "name": "country",
          "type": "bytes32"
        },
        {
          "indexed": true,
          "internalType": "uint256",
          "name": "day",
          "type": "uint256"
        },
        {
          "indexed": false,
          "internalType": "bytes32",
          "name": "winningArtist",
          "type": "bytes32"
        }
      ],
      "name": "PoolClosed",
      "type": "event"
    },
    {
      "anonymous": false,
      "inputs": [
        {
          "indexed": true,
          "internalType": "bytes32",
          "name": "country",
          "type": "bytes32"
        },
        {
          "indexed": true,
          "internalType": "uint256",
          "name": "day",
          "type": "uint256"
        },
        {
          "indexed": false,
          "internalType": "uint256",
          "name": "openingTime",
          "type": "uint256"
        },
        {
          "indexed": false,
          "internalType": "uint256",
          "name": "closingTime",
          "type": "uint256"
        }
      ],
      "name": "PoolOpened",
      "type": "event"
    },
    {
      "anonymous": false,
      "inputs": [
        {
          "indexed": false,
          "internalType": "address",
          "name": "account",
          "type": "address"
        }
      ],
      "name": "Unpaused",
      "type": "event"
    },
    {
      "inputs": [],
      "name": "BET_DURATION",
      "outputs": [
        {
          "internalType": "uint256",
          "name": "",
          "type": "uint256"
        }
      ],
      "stateMutability": "view",
      "type": "function"
    },
    {
      "inputs": [],
      "name": "MAX_BET",
      "outputs": [
        {
          "internalType": "uint256",
          "name": "",
          "type": "uint256"
        }
      ],
      "stateMutability": "view",
      "type": "function"
    },
    {
      "inputs": [],
      "name": "OUTSIDER_ODDS",
      "outputs": [
        {
          "internalType": "uint256",
          "name": "",
          "type": "uint256"
        }
      ],
      "stateMutability": "view",
      "type": "function"
    },
    {
      "inputs": [],
      "name": "RESERVE_PERCENTAGE",
      "outputs": [
        {
          "internalType": "uint256",
          "name": "",
          "type": "uint256"
        }
      ],
      "stateMutability": "view",
      "type": "function"
    },
    {
      "inputs": [
        {
          "internalType": "bytes32",
          "name": "",
          "type": "bytes32"
        },
        {
          "internalType": "bytes32",
          "name": "",
          "type": "bytes32"
        }
      ],
      "name": "artistRanks",
      "outputs": [
        {
          "internalType": "uint256",
          "name": "",
          "type": "uint256"
        }
      ],
      "stateMutability": "view",
      "type": "function"
    },
    {
      "inputs": [],
      "name": "chartsBetToken",
      "outputs": [
        {
          "internalType": "contract IERC20",
          "name": "",
          "type": "address"
        }
      ],
      "stateMutability": "view",
      "type": "function"
    },
    {
      "inputs": [],
      "name": "claimPayout",
      "outputs": [],
      "stateMutability": "nonpayable",
      "type": "function"
    },
    {
      "inputs": [
        {
          "internalType": "bytes32",
          "name": "country",
          "type": "bytes32"
        },
        {
          "internalType": "bytes32",
          "name": "winningArtist",
          "type": "bytes32"
        }
      ],
      "name": "closePoolAndAnnounceWinner",
      "outputs": [],
      "stateMutability": "nonpayable",
      "type": "function"
    },
    {
      "inputs": [],
      "name": "currentDay",
      "outputs": [
        {
          "internalType": "uint256",
          "name": "",
          "type": "uint256"
        }
      ],
      "stateMutability": "view",
      "type": "function"
    },
    {
      "inputs": [
        {
          "internalType": "bytes32",
          "name": "",
          "type": "bytes32"
        },
        {
          "internalType": "uint256",
          "name": "",
          "type": "uint256"
        }
      ],
      "name": "dailyPools",
      "outputs": [
        {
          "internalType": "uint256",
          "name": "openingTime",
          "type": "uint256"
        },
        {
          "internalType": "uint256",
          "name": "closingTime",
          "type": "uint256"
        },
        {
          "internalType": "uint256",
          "name": "totalBets",
          "type": "uint256"
        },
        {
          "internalType": "uint256",
          "name": "totalAmount",
          "type": "uint256"
        },
        {
          "internalType": "bytes32",
          "name": "winningArtist",
          "type": "bytes32"
        },
        {
          "internalType": "bool",
          "name": "closed",
          "type": "bool"
        }
      ],
      "stateMutability": "view",
      "type": "function"
    },
    {
      "inputs": [
        {
          "internalType": "bytes32",
          "name": "country",
          "type": "bytes32"
        },
        {
          "internalType": "bytes32",
          "name": "artist",
          "type": "bytes32"
        }
      ],
      "name": "getOdds",
      "outputs": [
        {
          "internalType": "uint256",
          "name": "",
          "type": "uint256"
        }
      ],
      "stateMutability": "view",
      "type": "function"
    },
    {
      "inputs": [
        {
          "internalType": "bytes32",
          "name": "country",
          "type": "bytes32"
        }
      ],
      "name": "getPoolInfo",
      "outputs": [
        {
          "internalType": "uint256",
          "name": "openingTime",
          "type": "uint256"
        },
        {
          "internalType": "uint256",
          "name": "closingTime",
          "type": "uint256"
        },
        {
          "internalType": "bool",
          "name": "closed",
          "type": "bool"
        },
        {
          "internalType": "uint256",
          "name": "totalBets",
          "type": "uint256"
        },
        {
          "internalType": "uint256",
          "name": "totalAmount",
          "type": "uint256"
        }
      ],
      "stateMutability": "view",
      "type": "function"
    },
    {
      "inputs": [],
      "name": "initialize",
      "outputs": [],
      "stateMutability": "nonpayable",
      "type": "function"
    },
    {
      "inputs": [],
      "name": "openAllDailyPools",
      "outputs": [],
      "stateMutability": "nonpayable",
      "type": "function"
    },
    {
      "inputs": [],
      "name": "owner",
      "outputs": [
        {
          "internalType": "address",
          "name": "",
          "type": "address"
        }
      ],
      "stateMutability": "view",
      "type": "function"
    },
    {
      "inputs": [],
      "name": "pause",
      "outputs": [],
      "stateMutability": "nonpayable",
      "type": "function"
    },
    {
      "inputs": [],
      "name": "paused",
      "outputs": [
        {
          "internalType": "bool",
          "name": "",
          "type": "bool"
        }
      ],
      "stateMutability": "view",
      "type": "function"
    },
    {
      "inputs": [
        {
          "internalType": "address",
          "name": "",
          "type": "address"
        }
      ],
      "name": "pendingPayouts",
      "outputs": [
        {
          "internalType": "uint256",
          "name": "",
          "type": "uint256"
        }
      ],
      "stateMutability": "view",
      "type": "function"
    },
    {
      "inputs": [
        {
          "internalType": "bytes32",
          "name": "country",
          "type": "bytes32"
        },
        {
          "internalType": "bytes32",
          "name": "artist",
          "type": "bytes32"
        },
        {
          "internalType": "uint256",
          "name": "amount",
          "type": "uint256"
        }
      ],
      "name": "placeBet",
      "outputs": [],
      "stateMutability": "nonpayable",
      "type": "function"
    },
    {
      "inputs": [],
      "name": "renounceOwnership",
      "outputs": [],
      "stateMutability": "nonpayable",
      "type": "function"
    },
    {
      "inputs": [
        {
          "internalType": "bytes32",
          "name": "country",
          "type": "bytes32"
        }
      ],
      "name": "settleBet",
      "outputs": [],
      "stateMutability": "nonpayable",
      "type": "function"
    },
    {
      "inputs": [
        {
          "internalType": "bytes32",
          "name": "",
          "type": "bytes32"
        },
        {
          "internalType": "uint256",
          "name": "",
          "type": "uint256"
        }
      ],
      "name": "top10Artists",
      "outputs": [
        {
          "internalType": "bytes32",
          "name": "",
          "type": "bytes32"
        }
      ],
      "stateMutability": "view",
      "type": "function"
    },
    {
      "inputs": [
        {
          "internalType": "address",
          "name": "newOwner",
          "type": "address"
        }
      ],
      "name": "transferOwnership",
      "outputs": [],
      "stateMutability": "nonpayable",
      "type": "function"
    },
    {
      "inputs": [],
      "name": "unpause",
      "outputs": [],
      "stateMutability": "nonpayable",
      "type": "function"
    },
    {
      "inputs": [
        {
          "internalType": "bytes32",
          "name": "country",
          "type": "bytes32"
        },
        {
          "internalType": "bytes32[]",
          "name": "artists",
          "type": "bytes32[]"
        }
      ],
      "name": "updateTop10",
      "outputs": [],
      "stateMutability": "nonpayable",
      "type": "function"
    },
    {
      "inputs": [
        {
          "internalType": "bytes32",
          "name": "",
          "type": "bytes32"
        }
      ],
      "name": "validCountries",
      "outputs": [
        {
          "internalType": "bool",
          "name": "",
          "type": "bool"
        }
      ],
      "stateMutability": "view",
      "type": "function"
    },
    {
      "inputs": [
        {
          "internalType": "uint256",
          "name": "amount",
          "type": "uint256"
        }
      ],
      "name": "withdrawTokens",
      "outputs": [],
      "stateMutability": "nonpayable",
      "type": "function"
    }
  ],
  "bytecode": "0x60806040523480156200001157600080fd5b506040516200284438038062002844833981810160405281019062000037919062000257565b81600073ffffffffffffffffffffffffffffffffffffffff168173ffffffffffffffffffffffffffffffffffffffff1603620000ad5760006040517f1e4fbdf7000000000000000000000000000000000000000000000000000000008152600401620000a49190620002af565b60405180910390fd5b620000be816200012960201b60201c565b5060008060146101000a81548160ff0219169083151502179055506001808190555080600260006101000a81548173ffffffffffffffffffffffffffffffffffffffff021916908373ffffffffffffffffffffffffffffffffffffffff1602179055505050620002cc565b60008060009054906101000a900473ffffffffffffffffffffffffffffffffffffffff169050816000806101000a81548173ffffffffffffffffffffffffffffffffffffffff021916908373ffffffffffffffffffffffffffffffffffffffff1602179055508173ffffffffffffffffffffffffffffffffffffffff168173ffffffffffffffffffffffffffffffffffffffff167f8be0079c531659141344cd1fd0a4f28419497f9722a3daafe3b4186f6b6457e060405160405180910390a35050565b600080fd5b600073ffffffffffffffffffffffffffffffffffffffff82169050919050565b60006200021f82620001f2565b9050919050565b620002318162000212565b81146200023d57600080fd5b50565b600081519050620002518162000226565b92915050565b60008060408385031215620002715762000270620001ed565b5b6000620002818582860162000240565b9250506020620002948582860162000240565b9150509250929050565b620002a98162000212565b82525050565b6000602082019050620002c660008301846200029e565b92915050565b61256880620002dc6000396000f3fe608060405234801561001057600080fd5b50600436106101a95760003560e01c806374792153116100f9578063a32c90c911610097578063da3f857811610071578063da3f857814610467578063e53d4c2d14610497578063e88499a9146104b5578063f2fde38b146104bf576101a9565b8063a32c90c9146103f6578063b49d65eb14610414578063d32ecee314610449576101a9565b80637e95b523116100d35780637e95b523146103a65780638129fc1c146103c45780638456cb59146103ce5780638da5cb5b146103d8576101a9565b80637479215314610328578063776eba8e14610346578063784712f214610376576101a9565b80634ae701fe116101665780635c975abb116101405780635c975abb146102b457806366566a37146102d2578063675f653714610302578063715018a61461031e576101a9565b80634ae701fe1461025e5780635b68b7aa1461027a5780635c9302c914610296576101a9565b806309f2c019146101ae57806314989554146101e25780631a9db790146101fe5780632e1413df14610208578063315a095d146102385780633f4ba83a14610254575b600080fd5b6101c860048036038101906101c39190611d0a565b6104db565b6040516101d9959493929190611d6b565b60405180910390f35b6101fc60048036038101906101f79190611e23565b610546565b005b610206610678565b005b610222600480360381019061021d9190611e83565b6108aa565b60405161022f9190611ec3565b60405180910390f35b610252600480360381019061024d9190611f0a565b6108cf565b005b61025c6109b7565b005b61027860048036038101906102739190611f37565b6109c9565b005b610294600480360381019061028f9190611e83565b610e0b565b005b61029e610f3b565b6040516102ab9190611ec3565b60405180910390f35b6102bc610f41565b6040516102c99190611f8a565b60405180910390f35b6102ec60048036038101906102e79190611d0a565b610f57565b6040516102f99190611f8a565b60405180910390f35b61031c60048036038101906103179190611d0a565b610f77565b005b61032661123c565b005b610330611250565b60405161033d9190611ec3565b60405180910390f35b610360600480360381019061035b9190611e83565b611255565b60405161036d9190611ec3565b60405180910390f35b610390600480360381019061038b9190612003565b6112c1565b60405161039d9190611ec3565b60405180910390f35b6103ae6112d9565b6040516103bb9190611ec3565b60405180910390f35b6103cc6112e6565b005b6103d6611607565b005b6103e0611619565b6040516103ed919061203f565b60405180910390f35b6103fe611642565b60405161040b91906120b9565b60405180910390f35b61042e600480360381019061042991906120d4565b611668565b60405161044096959493929190612123565b60405180910390f35b6104516116be565b60405161045e9190611ec3565b60405180910390f35b610481600480360381019061047c91906120d4565b6116c4565b60405161048e9190612184565b60405180910390f35b61049f6116f5565b6040516104ac9190611ec3565b60405180910390f35b6104bd6116fc565b005b6104d960048036038101906104d49190612003565b6118f6565b005b60008060008060008060046000888152602001908152602001600020600060085481526020019081526020016000209050806000015481600101548260060160009054906101000a900460ff1683600301548460040154955095509550955095505091939590929450565b61054e61197c565b600a828290501461059957818190506040517f2dcd48eb0000000000000000000000000000000000000000000000000000000081526004016105909190611ec3565b60405180910390fd5b6005600084815260200190815260200160002060006105b89190611c8c565b60005b600a81101561067257600560008581526020019081526020016000208383838181106105ea576105e961219f565b5b90506020020135908060018154018082558091505060019003906000526020600020016000909190919091505560018161062491906121fd565b60066000868152602001908152602001600020600085858581811061064c5761064b61219f565b5b9050602002013581526020019081526020016000208190555080806001019150506105bb565b50505050565b61068061197c565b620151804261068f9190612260565b60088190555060006040518061010001604052807f575700000000000000000000000000000000000000000000000000000000000081526020017f425200000000000000000000000000000000000000000000000000000000000081526020017f444500000000000000000000000000000000000000000000000000000000000081526020017f455300000000000000000000000000000000000000000000000000000000000081526020017f465200000000000000000000000000000000000000000000000000000000000081526020017f495400000000000000000000000000000000000000000000000000000000000081526020017f505400000000000000000000000000000000000000000000000000000000000081526020017f5553000000000000000000000000000000000000000000000000000000000000815250905060005b60088110156108a65760008282600881106107f4576107f361219f565b5b60200201519050600060046000838152602001908152602001600020600060085481526020019081526020016000209050600081600001540361089757428160000181905550620151804261084991906121fd565b8160010181905550600854827f6d81dac161f941b26501b4cd6606ed14e343ce5e58ba8f62de9a2071f6be0fd98360000154846001015460405161088e929190612291565b60405180910390a35b505080806001019150506107d6565b5050565b6006602052816000526040600020602052806000526040600020600091509150505481565b6108d761197c565b600260009054906101000a900473ffffffffffffffffffffffffffffffffffffffff1673ffffffffffffffffffffffffffffffffffffffff1663a9059cbb61091d611619565b836040518363ffffffff1660e01b815260040161093b9291906122ba565b6020604051808303816000875af115801561095a573d6000803e3d6000fd5b505050506040513d601f19601f8201168201806040525081019061097e919061230f565b6109b4576040517f045c4b0200000000000000000000000000000000000000000000000000000000815260040160405180910390fd5b50565b6109bf61197c565b6109c7611a03565b565b6109d1611a65565b6109d9611aa6565b6003600084815260200190815260200160002060009054906101000a900460ff16610a3b57826040517f190ed2af000000000000000000000000000000000000000000000000000000008152600401610a329190612184565b60405180910390fd5b6000600460008581526020019081526020016000206000600854815260200190815260200160002090508060000154421080610a7b575080600101544210155b15610ac95742816000015482600101546040517fb866e502000000000000000000000000000000000000000000000000000000008152600401610ac09392919061233c565b60405180910390fd5b60008160020160003373ffffffffffffffffffffffffffffffffffffffff1673ffffffffffffffffffffffffffffffffffffffff1681526020019081526020016000206002015414610b5257336040517f660f02e8000000000000000000000000000000000000000000000000000000008152600401610b49919061203f565b60405180910390fd5b683635c9adc5dea00000821115610bab5781683635c9adc5dea000006040517f36165f66000000000000000000000000000000000000000000000000000000008152600401610ba2929190612291565b60405180910390fd5b600260009054906101000a900473ffffffffffffffffffffffffffffffffffffffff1673ffffffffffffffffffffffffffffffffffffffff166323b872dd3330856040518463ffffffff1660e01b8152600401610c0a93929190612373565b6020604051808303816000875af1158015610c29573d6000803e3d6000fd5b505050506040513d601f19601f82011682018060405250810190610c4d919061230f565b610c83576040517f045c4b0200000000000000000000000000000000000000000000000000000000815260040160405180910390fd5b6000610c8f8585611255565b905060405180608001604052803373ffffffffffffffffffffffffffffffffffffffff168152602001858152602001848152602001828152508260020160003373ffffffffffffffffffffffffffffffffffffffff1673ffffffffffffffffffffffffffffffffffffffff16815260200190815260200160002060008201518160000160006101000a81548173ffffffffffffffffffffffffffffffffffffffff021916908373ffffffffffffffffffffffffffffffffffffffff160217905550602082015181600101556040820151816002015560608201518160030155905050816003016000815480929190610d86906123aa565b919050555082826004016000828254610d9f91906121fd565b92505081905550600854853373ffffffffffffffffffffffffffffffffffffffff167f558994eb4efaf94bd607117c30a36b6623a6f3fcff263a773f37d634733fd2c9878786604051610df4939291906123f2565b60405180910390a45050610e06611aec565b505050565b610e1361197c565b6000600460008481526020019081526020016000206000600854815260200190815260200160002090508060010154421015610e8c574281600101546040517f14a5f30a000000000000000000000000000000000000000000000000000000008152600401610e83929190612291565b60405180910390fd5b8060060160009054906101000a900460ff1615610ed5576040517f8771584c00000000000000000000000000000000000000000000000000000000815260040160405180910390fd5b81816005018190555060018160060160006101000a81548160ff021916908315150217905550600854837f4a1c15136cda23d049da8fcc55a115cc1ca2dafc28f8d2ca647a3b4c6b42e05b84604051610f2e9190612184565b60405180910390a3505050565b60085481565b60008060149054906101000a900460ff16905090565b60036020528060005260406000206000915054906101000a900460ff1681565b610f7f611aa6565b6000600460008381526020019081526020016000206000600854815260200190815260200160002090508060060160009054906101000a900460ff16610ff1576040517ff78030f500000000000000000000000000000000000000000000000000000000815260040160405180910390fd5b60008160020160003373ffffffffffffffffffffffffffffffffffffffff1673ffffffffffffffffffffffffffffffffffffffff16815260200190815260200160002090506000816002015403611074576040517f028e52a100000000000000000000000000000000000000000000000000000000815260040160405180910390fd5b6000826005015482600101541490506000816110915760006110b2565b6064836003015484600201546110a79190612429565b6110b19190612260565b5b905060006064603285600201546110c99190612429565b6110d39190612260565b84600201546110e291906121fd565b90508082116110f157816110f3565b805b91508460020160003373ffffffffffffffffffffffffffffffffffffffff1673ffffffffffffffffffffffffffffffffffffffff168152602001908152602001600020600080820160006101000a81549073ffffffffffffffffffffffffffffffffffffffff0219169055600182016000905560028201600090556003820160009055505060008211156111d85781600760003373ffffffffffffffffffffffffffffffffffffffff1673ffffffffffffffffffffffffffffffffffffffff16815260200190815260200160002060008282546111d091906121fd565b925050819055505b600854863373ffffffffffffffffffffffffffffffffffffffff167f3b8fe5da6ddddb7951721ac65697f3b319db8bf4413601435c2576983580f559858760405161122492919061246b565b60405180910390a45050505050611239611aec565b50565b61124461197c565b61124e6000611af5565b565b603281565b600080600660008581526020019081526020016000206000848152602001908152602001600020549050600081036112925761015e9150506112bb565b60146001826112a19190612494565b6112ab9190612429565b60786112b791906121fd565b9150505b92915050565b60076020528060005260406000206000915090505481565b683635c9adc5dea0000081565b60006112f0611bb9565b905060008160000160089054906101000a900460ff1615905060008260000160009054906101000a900467ffffffffffffffff1690506000808267ffffffffffffffff1614801561133e5750825b9050600060018367ffffffffffffffff16148015611373575060003073ffffffffffffffffffffffffffffffffffffffff163b145b905081158015611381575080155b156113b8576040517ff92ee8a900000000000000000000000000000000000000000000000000000000815260040160405180910390fd5b60018560000160006101000a81548167ffffffffffffffff021916908367ffffffffffffffff16021790555083156114085760018560000160086101000a81548160ff0219169083151502179055505b60006040518061010001604052807f575700000000000000000000000000000000000000000000000000000000000081526020017f425200000000000000000000000000000000000000000000000000000000000081526020017f444500000000000000000000000000000000000000000000000000000000000081526020017f455300000000000000000000000000000000000000000000000000000000000081526020017f465200000000000000000000000000000000000000000000000000000000000081526020017f495400000000000000000000000000000000000000000000000000000000000081526020017f505400000000000000000000000000000000000000000000000000000000000081526020017f5553000000000000000000000000000000000000000000000000000000000000815250905060005b60088110156115a25760016003600084846008811061156b5761156a61219f565b5b6020020151815260200190815260200160002060006101000a81548160ff0219169083151502179055508080600101915050611549565b505083156116005760008560000160086101000a81548160ff0219169083151502179055507fc7f505b2f371ae2175ee4913f4499e1f2633a7b5936321eed1cdaeb6115181d260016040516115f79190612517565b60405180910390a15b5050505050565b61160f61197c565b611617611be1565b565b60008060009054906101000a900473ffffffffffffffffffffffffffffffffffffffff16905090565b600260009054906101000a900473ffffffffffffffffffffffffffffffffffffffff1681565b6004602052816000526040600020602052806000526040600020600091509150508060000154908060010154908060030154908060040154908060050154908060060160009054906101000a900460ff16905086565b61015e81565b600560205281600052604060002081815481106116e057600080fd5b90600052602060002001600091509150505481565b6201518081565b611704611aa6565b6000600760003373ffffffffffffffffffffffffffffffffffffffff1673ffffffffffffffffffffffffffffffffffffffff16815260200190815260200160002054905060008103611782576040517f3c90366100000000000000000000000000000000000000000000000000000000815260040160405180910390fd5b6000600760003373ffffffffffffffffffffffffffffffffffffffff1673ffffffffffffffffffffffffffffffffffffffff16815260200190815260200160002081905550600260009054906101000a900473ffffffffffffffffffffffffffffffffffffffff1673ffffffffffffffffffffffffffffffffffffffff1663a9059cbb33836040518363ffffffff1660e01b81526004016118249291906122ba565b6020604051808303816000875af1158015611843573d6000803e3d6000fd5b505050506040513d601f19601f82011682018060405250810190611867919061230f565b61189d576040517f045c4b0200000000000000000000000000000000000000000000000000000000815260040160405180910390fd5b3373ffffffffffffffffffffffffffffffffffffffff167fec68461f5d4cc45c89e914cb8826a966c73dd35e5f97815ece0a01ffa4a025a6826040516118e39190611ec3565b60405180910390a2506118f4611aec565b565b6118fe61197c565b600073ffffffffffffffffffffffffffffffffffffffff168173ffffffffffffffffffffffffffffffffffffffff16036119705760006040517f1e4fbdf7000000000000000000000000000000000000000000000000000000008152600401611967919061203f565b60405180910390fd5b61197981611af5565b50565b611984611c44565b73ffffffffffffffffffffffffffffffffffffffff166119a2611619565b73ffffffffffffffffffffffffffffffffffffffff1614611a01576119c5611c44565b6040517f118cdaa70000000000000000000000000000000000000000000000000000000081526004016119f8919061203f565b60405180910390fd5b565b611a0b611c4c565b60008060146101000a81548160ff0219169083151502179055507f5db9ee0a495bf2e6ff9c91a7834c1ba4fdd244a5e8aa4e537bd38aeae4b073aa611a4e611c44565b604051611a5b919061203f565b60405180910390a1565b611a6d610f41565b15611aa4576040517fd93c066500000000000000000000000000000000000000000000000000000000815260040160405180910390fd5b565b600260015403611ae2576040517f3ee5aeb500000000000000000000000000000000000000000000000000000000815260040160405180910390fd5b6002600181905550565b60018081905550565b60008060009054906101000a900473ffffffffffffffffffffffffffffffffffffffff169050816000806101000a81548173ffffffffffffffffffffffffffffffffffffffff021916908373ffffffffffffffffffffffffffffffffffffffff1602179055508173ffffffffffffffffffffffffffffffffffffffff168173ffffffffffffffffffffffffffffffffffffffff167f8be0079c531659141344cd1fd0a4f28419497f9722a3daafe3b4186f6b6457e060405160405180910390a35050565b60007ff0c57e16840df040f15088dc2f81fe391c3923bec73e23a9662efc9c229c6a00905090565b611be9611a65565b6001600060146101000a81548160ff0219169083151502179055507f62e78cea01bee320cd4e420270b5ea74000d11b0c9f74754ebdbfc544b05a258611c2d611c44565b604051611c3a919061203f565b60405180910390a1565b600033905090565b611c54610f41565b611c8a576040517f8dfc202b00000000000000000000000000000000000000000000000000000000815260040160405180910390fd5b565b5080546000825590600052602060002090810190611caa9190611cad565b50565b5b80821115611cc6576000816000905550600101611cae565b5090565b600080fd5b600080fd5b6000819050919050565b611ce781611cd4565b8114611cf257600080fd5b50565b600081359050611d0481611cde565b92915050565b600060208284031215611d2057611d1f611cca565b5b6000611d2e84828501611cf5565b91505092915050565b6000819050919050565b611d4a81611d37565b82525050565b60008115159050919050565b611d6581611d50565b82525050565b600060a082019050611d806000830188611d41565b611d8d6020830187611d41565b611d9a6040830186611d5c565b611da76060830185611d41565b611db46080830184611d41565b9695505050505050565b600080fd5b600080fd5b600080fd5b60008083601f840112611de357611de2611dbe565b5b8235905067ffffffffffffffff811115611e0057611dff611dc3565b5b602083019150836020820283011115611e1c57611e1b611dc8565b5b9250929050565b600080600060408486031215611e3c57611e3b611cca565b5b6000611e4a86828701611cf5565b935050602084013567ffffffffffffffff811115611e6b57611e6a611ccf565b5b611e7786828701611dcd565b92509250509250925092565b60008060408385031215611e9a57611e99611cca565b5b6000611ea885828601611cf5565b9250506020611eb985828601611cf5565b9150509250929050565b6000602082019050611ed86000830184611d41565b92915050565b611ee781611d37565b8114611ef257600080fd5b50565b600081359050611f0481611ede565b92915050565b600060208284031215611f2057611f1f611cca565b5b6000611f2e84828501611ef5565b91505092915050565b600080600060608486031215611f5057611f4f611cca565b5b6000611f5e86828701611cf5565b9350506020611f6f86828701611cf5565b9250506040611f8086828701611ef5565b9150509250925092565b6000602082019050611f9f6000830184611d5c565b92915050565b600073ffffffffffffffffffffffffffffffffffffffff82169050919050565b6000611fd082611fa5565b9050919050565b611fe081611fc5565b8114611feb57600080fd5b50565b600081359050611ffd81611fd7565b92915050565b60006020828403121561201957612018611cca565b5b600061202784828501611fee565b91505092915050565b61203981611fc5565b82525050565b60006020820190506120546000830184612030565b92915050565b6000819050919050565b600061207f61207a61207584611fa5565b61205a565b611fa5565b9050919050565b600061209182612064565b9050919050565b60006120a382612086565b9050919050565b6120b381612098565b82525050565b60006020820190506120ce60008301846120aa565b92915050565b600080604083850312156120eb576120ea611cca565b5b60006120f985828601611cf5565b925050602061210a85828601611ef5565b9150509250929050565b61211d81611cd4565b82525050565b600060c0820190506121386000830189611d41565b6121456020830188611d41565b6121526040830187611d41565b61215f6060830186611d41565b61216c6080830185612114565b61217960a0830184611d5c565b979650505050505050565b60006020820190506121996000830184612114565b92915050565b7f4e487b7100000000000000000000000000000000000000000000000000000000600052603260045260246000fd5b7f4e487b7100000000000000000000000000000000000000000000000000000000600052601160045260246000fd5b600061220882611d37565b915061221383611d37565b925082820190508082111561222b5761222a6121ce565b5b92915050565b7f4e487b7100000000000000000000000000000000000000000000000000000000600052601260045260246000fd5b600061226b82611d37565b915061227683611d37565b92508261228657612285612231565b5b828204905092915050565b60006040820190506122a66000830185611d41565b6122b36020830184611d41565b9392505050565b60006040820190506122cf6000830185612030565b6122dc6020830184611d41565b9392505050565b6122ec81611d50565b81146122f757600080fd5b50565b600081519050612309816122e3565b92915050565b60006020828403121561232557612324611cca565b5b6000612333848285016122fa565b91505092915050565b60006060820190506123516000830186611d41565b61235e6020830185611d41565b61236b6040830184611d41565b949350505050565b60006060820190506123886000830186612030565b6123956020830185612030565b6123a26040830184611d41565b949350505050565b60006123b582611d37565b91507fffffffffffffffffffffffffffffffffffffffffffffffffffffffffffffffff82036123e7576123e66121ce565b5b600182019050919050565b60006060820190506124076000830186612114565b6124146020830185611d41565b6124216040830184611d41565b949350505050565b600061243482611d37565b915061243f83611d37565b925082820261244d81611d37565b91508282048414831517612464576124636121ce565b5b5092915050565b60006040820190506124806000830185611d41565b61248d6020830184611d5c565b9392505050565b600061249f82611d37565b91506124aa83611d37565b92508282039050818111156124c2576124c16121ce565b5b92915050565b6000819050919050565b600067ffffffffffffffff82169050919050565b60006125016124fc6124f7846124c8565b61205a565b6124d2565b9050919050565b612511816124e6565b82525050565b600060208201905061252c6000830184612508565b9291505056fea2646970667358221220928b143da81bfb32459e38351276a794fe6245e961eee39abb13bb136a2a03fa64736f6c63430008180033",
  "linkReferences": {},
  "deployedLinkReferences": {}
}