{
  "_format": "hh-sol-artifact-1",
  "contractName": "ChartsOracle",
  "sourceName": "contracts/ChartsOracle.sol",
  "abi": [
    {
      "inputs": [],
      "name": "EnforcedPause",
      "type": "error"
    },
    {
      "inputs": [],
      "name": "ExpectedPause",
      "type": "error"
    },
    {
      "inputs": [],
      "name": "InvalidInitialization",
      "type": "error"
    },
    {
      "inputs": [],
      "name": "NotInitializing",
      "type": "error"
    },
    {
      "inputs": [
        {
          "internalType": "address",
          "name": "owner",
          "type": "address"
        }
      ],
      "name": "OwnableInvalidOwner",
      "type": "error"
    },
    {
      "inputs": [
        {
          "internalType": "address",
          "name": "account",
          "type": "address"
        }
      ],
      "name": "OwnableUnauthorizedAccount",
      "type": "error"
    },
    {
      "anonymous": false,
      "inputs": [
        {
          "indexed": true,
          "internalType": "bytes32",
          "name": "requestId",
          "type": "bytes32"
        },
        {
          "indexed": true,
          "internalType": "bytes32",
          "name": "country",
          "type": "bytes32"
        },
        {
          "indexed": false,
          "internalType": "bytes32",
          "name": "winningArtist",
          "type": "bytes32"
        }
      ],
      "name": "DailyWinnerFulfilled",
      "type": "event"
    },
    {
      "anonymous": false,
      "inputs": [
        {
          "indexed": false,
          "internalType": "uint64",
          "name": "version",
          "type": "uint64"
        }
      ],
      "name": "Initialized",
      "type": "event"
    },
    {
      "anonymous": false,
      "inputs": [
        {
          "indexed": true,
          "internalType": "bytes32",
          "name": "requestId",
          "type": "bytes32"
        },
        {
          "indexed": true,
          "internalType": "bytes32",
          "name": "country",
          "type": "bytes32"
        }
      ],
      "name": "LeaderboardDataFulfilled",
      "type": "event"
    },
    {
      "anonymous": false,
      "inputs": [
        {
          "indexed": true,
          "internalType": "address",
          "name": "previousOwner",
          "type": "address"
        },
        {
          "indexed": true,
          "internalType": "address",
          "name": "newOwner",
          "type": "address"
        }
      ],
      "name": "OwnershipTransferred",
      "type": "event"
    },
    {
      "anonymous": false,
      "inputs": [
        {
          "indexed": false,
          "internalType": "address",
          "name": "account",
          "type": "address"
        }
      ],
      "name": "Paused",
      "type": "event"
    },
    {
      "anonymous": false,
      "inputs": [
        {
          "indexed": true,
          "internalType": "bytes32",
          "name": "requestId",
          "type": "bytes32"
        },
        {
          "indexed": true,
          "internalType": "bytes32",
          "name": "country",
          "type": "bytes32"
        }
      ],
      "name": "RequestDailyWinner",
      "type": "event"
    },
    {
      "anonymous": false,
      "inputs": [
        {
          "indexed": true,
          "internalType": "bytes32",
          "name": "requestId",
          "type": "bytes32"
        },
        {
          "indexed": true,
          "internalType": "bytes32",
          "name": "country",
          "type": "bytes32"
        }
      ],
      "name": "RequestLeaderboardData",
      "type": "event"
    },
    {
      "anonymous": false,
      "inputs": [
        {
          "indexed": false,
          "internalType": "address",
          "name": "account",
          "type": "address"
        }
      ],
      "name": "Unpaused",
      "type": "event"
    },
    {
      "inputs": [],
      "name": "chartsBet",
      "outputs": [
        {
          "internalType": "contract IChartsBet",
          "name": "",
          "type": "address"
        }
      ],
      "stateMutability": "view",
      "type": "function"
    },
    {
      "inputs": [
        {
          "internalType": "bytes32",
          "name": "requestId",
          "type": "bytes32"
        },
        {
          "internalType": "bytes32",
          "name": "country",
          "type": "bytes32"
        },
        {
          "internalType": "bytes32",
          "name": "winningArtist",
          "type": "bytes32"
        }
      ],
      "name": "fulfillDailyWinner",
      "outputs": [],
      "stateMutability": "nonpayable",
      "type": "function"
    },
    {
      "inputs": [
        {
          "internalType": "bytes32",
          "name": "requestId",
          "type": "bytes32"
        },
        {
          "internalType": "bytes32",
          "name": "country",
          "type": "bytes32"
        },
        {
          "internalType": "bytes32[]",
          "name": "topArtists",
          "type": "bytes32[]"
        }
      ],
      "name": "fulfillLeaderboardData",
      "outputs": [],
      "stateMutability": "nonpayable",
      "type": "function"
    },
    {
      "inputs": [
        {
          "internalType": "address",
          "name": "_owner",
          "type": "address"
        },
        {
          "internalType": "address",
          "name": "_chartsBet",
          "type": "address"
        }
      ],
      "name": "initialize",
      "outputs": [],
      "stateMutability": "nonpayable",
      "type": "function"
    },
    {
      "inputs": [],
      "name": "owner",
      "outputs": [
        {
          "internalType": "address",
          "name": "",
          "type": "address"
        }
      ],
      "stateMutability": "view",
      "type": "function"
    },
    {
      "inputs": [],
      "name": "pause",
      "outputs": [],
      "stateMutability": "nonpayable",
      "type": "function"
    },
    {
      "inputs": [],
      "name": "paused",
      "outputs": [
        {
          "internalType": "bool",
          "name": "",
          "type": "bool"
        }
      ],
      "stateMutability": "view",
      "type": "function"
    },
    {
      "inputs": [],
      "name": "renounceOwnership",
      "outputs": [],
      "stateMutability": "nonpayable",
      "type": "function"
    },
    {
      "inputs": [
        {
          "internalType": "bytes32",
          "name": "country",
          "type": "bytes32"
        }
      ],
      "name": "requestDailyWinner",
      "outputs": [
        {
          "internalType": "bytes32",
          "name": "requestId",
          "type": "bytes32"
        }
      ],
      "stateMutability": "nonpayable",
      "type": "function"
    },
    {
      "inputs": [
        {
          "internalType": "bytes32",
          "name": "country",
          "type": "bytes32"
        }
      ],
      "name": "requestLeaderboardData",
      "outputs": [
        {
          "internalType": "bytes32",
          "name": "requestId",
          "type": "bytes32"
        }
      ],
      "stateMutability": "nonpayable",
      "type": "function"
    },
    {
      "inputs": [
        {
          "internalType": "address",
          "name": "_chartsBet",
          "type": "address"
        }
      ],
      "name": "setChartsBet",
      "outputs": [],
      "stateMutability": "nonpayable",
      "type": "function"
    },
    {
      "inputs": [
        {
          "internalType": "address",
          "name": "newOwner",
          "type": "address"
        }
      ],
      "name": "transferOwnership",
      "outputs": [],
      "stateMutability": "nonpayable",
      "type": "function"
    },
    {
      "inputs": [],
      "name": "unpause",
      "outputs": [],
      "stateMutability": "nonpayable",
      "type": "function"
    }
  ],
  "bytecode": "0x6080604052348015600f57600080fd5b506117338061001f6000396000f3fe608060405234801561001057600080fd5b50600436106100cf5760003560e01c806379cb2f6c1161008c5780638da5cb5b116100665780638da5cb5b146101b2578063a73475d4146101d0578063f2fde38b14610200578063f4909ccb1461021c576100cf565b806379cb2f6c146101705780638407851f1461018c5780638456cb59146101a8576100cf565b80633f4ba83a146100d4578063485cc955146100de5780634f93f37a146100fa5780635c975abb146101185780637007374a14610136578063715018a614610166575b600080fd5b6100dc610238565b005b6100f860048036038101906100f39190610edd565b61024a565b005b610102610423565b60405161010f9190610f7c565b60405180910390f35b610120610449565b60405161012d9190610fb2565b60405180910390f35b610150600480360381019061014b9190611003565b61046e565b60405161015d919061103f565b60405180910390f35b61016e610503565b005b61018a6004803603810190610185919061105a565b610517565b005b6101a660048036038101906101a19190611206565b610675565b005b6101b06107c8565b005b6101ba6107da565b6040516101c79190611284565b60405180910390f35b6101ea60048036038101906101e59190611003565b610812565b6040516101f7919061103f565b60405180910390f35b61021a6004803603810190610215919061129f565b6108a7565b005b6102366004803603810190610231919061129f565b61092d565b005b6102406109e8565b610248610a6f565b565b6000610254610ae1565b905060008160000160089054906101000a900460ff1615905060008260000160009054906101000a900467ffffffffffffffff1690506000808267ffffffffffffffff161480156102a25750825b9050600060018367ffffffffffffffff161480156102d7575060003073ffffffffffffffffffffffffffffffffffffffff163b145b9050811580156102e5575080155b1561031c576040517ff92ee8a900000000000000000000000000000000000000000000000000000000815260040160405180910390fd5b60018560000160006101000a81548167ffffffffffffffff021916908367ffffffffffffffff160217905550831561036c5760018560000160086101000a81548160ff0219169083151502179055505b61037587610b09565b61037d610b1d565b85600160006101000a81548173ffffffffffffffffffffffffffffffffffffffff021916908373ffffffffffffffffffffffffffffffffffffffff160217905550831561041a5760008560000160086101000a81548160ff0219169083151502179055507fc7f505b2f371ae2175ee4913f4499e1f2633a7b5936321eed1cdaeb6115181d26001604051610411919061131b565b60405180910390a15b50505050505050565b600160009054906101000a900473ffffffffffffffffffffffffffffffffffffffff1681565b600080610454610b2f565b90508060000160009054906101000a900460ff1691505090565b6000610478610b57565b33428360405160200161048d93929190611421565b604051602081830303815290604052805190602001209050600160008083815260200190815260200160002060006101000a81548160ff02191690831515021790555081817f964fad0796b2c4482b663c893a5de5fcd604f4da43798440e1d1beacfbe1f1e260405160405180910390a3919050565b61050b6109e8565b6105156000610b98565b565b61051f6109e8565b610527610b57565b60008084815260200190815260200160002060009054906101000a900460ff16610586576040517f08c379a000000000000000000000000000000000000000000000000000000000815260040161057d906114c6565b60405180910390fd5b60008084815260200190815260200160002060006101000a81549060ff0219169055600160009054906101000a900473ffffffffffffffffffffffffffffffffffffffff1673ffffffffffffffffffffffffffffffffffffffff16630ca8726c83836040518363ffffffff1660e01b81526004016106059291906114e6565b600060405180830381600087803b15801561061f57600080fd5b505af1158015610633573d6000803e3d6000fd5b5050505081837f03b7976f2e9d88e925aa32c799f4c387f7d858dcc945aadddfde1047d03232b283604051610668919061103f565b60405180910390a3505050565b61067d6109e8565b610685610b57565b60008084815260200190815260200160002060009054906101000a900460ff166106e4576040517f08c379a00000000000000000000000000000000000000000000000000000000081526004016106db906114c6565b60405180910390fd5b60008084815260200190815260200160002060006101000a81549060ff0219169055600160009054906101000a900473ffffffffffffffffffffffffffffffffffffffff1673ffffffffffffffffffffffffffffffffffffffff16637fe93e3183836040518363ffffffff1660e01b81526004016107639291906115cd565b600060405180830381600087803b15801561077d57600080fd5b505af1158015610791573d6000803e3d6000fd5b5050505081837fcd92c88455955e8b10b3ab9f397681ac0e5f3eb12665bce3e5a409e6214b1a1960405160405180910390a3505050565b6107d06109e8565b6107d8610c6f565b565b6000806107e5610ce1565b90508060000160009054906101000a900473ffffffffffffffffffffffffffffffffffffffff1691505090565b600061081c610b57565b33428360405160200161083193929190611649565b604051602081830303815290604052805190602001209050600160008083815260200190815260200160002060006101000a81548160ff02191690831515021790555081817f83ed8b46fdd1ce804e4d604651fd2a0dd74cbb0a76b365d7e419b112fef3b01d60405160405180910390a3919050565b6108af6109e8565b600073ffffffffffffffffffffffffffffffffffffffff168173ffffffffffffffffffffffffffffffffffffffff16036109215760006040517f1e4fbdf70000000000000000000000000000000000000000000000000000000081526004016109189190611284565b60405180910390fd5b61092a81610b98565b50565b6109356109e8565b600073ffffffffffffffffffffffffffffffffffffffff168173ffffffffffffffffffffffffffffffffffffffff16036109a4576040517f08c379a000000000000000000000000000000000000000000000000000000000815260040161099b906116dd565b60405180910390fd5b80600160006101000a81548173ffffffffffffffffffffffffffffffffffffffff021916908373ffffffffffffffffffffffffffffffffffffffff16021790555050565b6109f0610d09565b73ffffffffffffffffffffffffffffffffffffffff16610a0e6107da565b73ffffffffffffffffffffffffffffffffffffffff1614610a6d57610a31610d09565b6040517f118cdaa7000000000000000000000000000000000000000000000000000000008152600401610a649190611284565b60405180910390fd5b565b610a77610d11565b6000610a81610b2f565b905060008160000160006101000a81548160ff0219169083151502179055507f5db9ee0a495bf2e6ff9c91a7834c1ba4fdd244a5e8aa4e537bd38aeae4b073aa610ac9610d09565b604051610ad69190611284565b60405180910390a150565b60007ff0c57e16840df040f15088dc2f81fe391c3923bec73e23a9662efc9c229c6a00905090565b610b11610d51565b610b1a81610d91565b50565b610b25610d51565b610b2d610e17565b565b60007fcd5ed15c6e187e77e9aee88184c21f4f2182ab5827cb3b7e07fbedcd63f03300905090565b610b5f610449565b15610b96576040517fd93c066500000000000000000000000000000000000000000000000000000000815260040160405180910390fd5b565b6000610ba2610ce1565b905060008160000160009054906101000a900473ffffffffffffffffffffffffffffffffffffffff169050828260000160006101000a81548173ffffffffffffffffffffffffffffffffffffffff021916908373ffffffffffffffffffffffffffffffffffffffff1602179055508273ffffffffffffffffffffffffffffffffffffffff168173ffffffffffffffffffffffffffffffffffffffff167f8be0079c531659141344cd1fd0a4f28419497f9722a3daafe3b4186f6b6457e060405160405180910390a3505050565b610c77610b57565b6000610c81610b2f565b905060018160000160006101000a81548160ff0219169083151502179055507f62e78cea01bee320cd4e420270b5ea74000d11b0c9f74754ebdbfc544b05a258610cc9610d09565b604051610cd69190611284565b60405180910390a150565b60007f9016d09d72d40fdae2fd8ceac6b6234c7706214fd39c1cd1e609a0528c199300905090565b600033905090565b610d19610449565b610d4f576040517f8dfc202b00000000000000000000000000000000000000000000000000000000815260040160405180910390fd5b565b610d59610e4b565b610d8f576040517fd7e6bcf800000000000000000000000000000000000000000000000000000000815260040160405180910390fd5b565b610d99610d51565b600073ffffffffffffffffffffffffffffffffffffffff168173ffffffffffffffffffffffffffffffffffffffff1603610e0b5760006040517f1e4fbdf7000000000000000000000000000000000000000000000000000000008152600401610e029190611284565b60405180910390fd5b610e1481610b98565b50565b610e1f610d51565b6000610e29610b2f565b905060008160000160006101000a81548160ff02191690831515021790555050565b6000610e55610ae1565b60000160089054906101000a900460ff16905090565b6000604051905090565b600080fd5b600080fd5b600073ffffffffffffffffffffffffffffffffffffffff82169050919050565b6000610eaa82610e7f565b9050919050565b610eba81610e9f565b8114610ec557600080fd5b50565b600081359050610ed781610eb1565b92915050565b60008060408385031215610ef457610ef3610e75565b5b6000610f0285828601610ec8565b9250506020610f1385828601610ec8565b9150509250929050565b6000819050919050565b6000610f42610f3d610f3884610e7f565b610f1d565b610e7f565b9050919050565b6000610f5482610f27565b9050919050565b6000610f6682610f49565b9050919050565b610f7681610f5b565b82525050565b6000602082019050610f916000830184610f6d565b92915050565b60008115159050919050565b610fac81610f97565b82525050565b6000602082019050610fc76000830184610fa3565b92915050565b6000819050919050565b610fe081610fcd565b8114610feb57600080fd5b50565b600081359050610ffd81610fd7565b92915050565b60006020828403121561101957611018610e75565b5b600061102784828501610fee565b91505092915050565b61103981610fcd565b82525050565b60006020820190506110546000830184611030565b92915050565b60008060006060848603121561107357611072610e75565b5b600061108186828701610fee565b935050602061109286828701610fee565b92505060406110a386828701610fee565b9150509250925092565b600080fd5b6000601f19601f8301169050919050565b7f4e487b7100000000000000000000000000000000000000000000000000000000600052604160045260246000fd5b6110fb826110b2565b810181811067ffffffffffffffff8211171561111a576111196110c3565b5b80604052505050565b600061112d610e6b565b905061113982826110f2565b919050565b600067ffffffffffffffff821115611159576111586110c3565b5b602082029050602081019050919050565b600080fd5b600061118261117d8461113e565b611123565b905080838252602082019050602084028301858111156111a5576111a461116a565b5b835b818110156111ce57806111ba8882610fee565b8452602084019350506020810190506111a7565b5050509392505050565b600082601f8301126111ed576111ec6110ad565b5b81356111fd84826020860161116f565b91505092915050565b60008060006060848603121561121f5761121e610e75565b5b600061122d86828701610fee565b935050602061123e86828701610fee565b925050604084013567ffffffffffffffff81111561125f5761125e610e7a565b5b61126b868287016111d8565b9150509250925092565b61127e81610e9f565b82525050565b60006020820190506112996000830184611275565b92915050565b6000602082840312156112b5576112b4610e75565b5b60006112c384828501610ec8565b91505092915050565b6000819050919050565b600067ffffffffffffffff82169050919050565b60006113056113006112fb846112cc565b610f1d565b6112d6565b9050919050565b611315816112ea565b82525050565b6000602082019050611330600083018461130c565b92915050565b60008160601b9050919050565b600061134e82611336565b9050919050565b600061136082611343565b9050919050565b61137861137382610e9f565b611355565b82525050565b6000819050919050565b6000819050919050565b6113a361139e8261137e565b611388565b82525050565b6000819050919050565b6113c46113bf82610fcd565b6113a9565b82525050565b600081905092915050565b7f6461696c7957696e6e6572000000000000000000000000000000000000000000600082015250565b600061140b600b836113ca565b9150611416826113d5565b600b82019050919050565b600061142d8286611367565b60148201915061143d8285611392565b60208201915061144d82846113b3565b60208201915061145c826113fe565b9150819050949350505050565b600082825260208201905092915050565b7f52657175657374206e6f742070656e64696e6700000000000000000000000000600082015250565b60006114b0601383611469565b91506114bb8261147a565b602082019050919050565b600060208201905081810360008301526114df816114a3565b9050919050565b60006040820190506114fb6000830185611030565b6115086020830184611030565b9392505050565b600081519050919050565b600082825260208201905092915050565b6000819050602082019050919050565b61154481610fcd565b82525050565b6000611556838361153b565b60208301905092915050565b6000602082019050919050565b600061157a8261150f565b611584818561151a565b935061158f8361152b565b8060005b838110156115c05781516115a7888261154a565b97506115b283611562565b925050600181019050611593565b5085935050505092915050565b60006040820190506115e26000830185611030565b81810360208301526115f4818461156f565b90509392505050565b7f6c6561646572626f617264000000000000000000000000000000000000000000600082015250565b6000611633600b836113ca565b915061163e826115fd565b600b82019050919050565b60006116558286611367565b6014820191506116658285611392565b60208201915061167582846113b3565b60208201915061168482611626565b9150819050949350505050565b7f496e76616c696420436861727473426574206164647265737300000000000000600082015250565b60006116c7601983611469565b91506116d282611691565b602082019050919050565b600060208201905081810360008301526116f6816116ba565b905091905056fea26469706673582212200581cdfc2e53cb2d0d12978cc9e6086d54cec2628d7c8a79db95a15623cb03d164736f6c634300081a0033",
  "linkReferences": {},
  "deployedLinkReferences": {}
}