{
  "_format": "hh-sol-artifact-1",
  "contractName": "ChartsBetToken",
  "sourceName": "contracts/ChartsBetToken.sol",
  "abi": [
    {
      "inputs": [
        {
          "internalType": "address",
          "name": "initialOwner",
          "type": "address"
        }
      ],
      "stateMutability": "nonpayable",
      "type": "constructor"
    },
    {
      "inputs": [
        {
          "internalType": "address",
          "name": "spender",
          "type": "address"
        },
        {
          "internalType": "uint256",
          "name": "allowance",
          "type": "uint256"
        },
        {
          "internalType": "uint256",
          "name": "needed",
          "type": "uint256"
        }
      ],
      "name": "ERC20InsufficientAllowance",
      "type": "error"
    },
    {
      "inputs": [
        {
          "internalType": "address",
          "name": "sender",
          "type": "address"
        },
        {
          "internalType": "uint256",
          "name": "balance",
          "type": "uint256"
        },
        {
          "internalType": "uint256",
          "name": "needed",
          "type": "uint256"
        }
      ],
      "name": "ERC20InsufficientBalance",
      "type": "error"
    },
    {
      "inputs": [
        {
          "internalType": "address",
          "name": "approver",
          "type": "address"
        }
      ],
      "name": "ERC20InvalidApprover",
      "type": "error"
    },
    {
      "inputs": [
        {
          "internalType": "address",
          "name": "receiver",
          "type": "address"
        }
      ],
      "name": "ERC20InvalidReceiver",
      "type": "error"
    },
    {
      "inputs": [
        {
          "internalType": "address",
          "name": "sender",
          "type": "address"
        }
      ],
      "name": "ERC20InvalidSender",
      "type": "error"
    },
    {
      "inputs": [
        {
          "internalType": "address",
          "name": "spender",
          "type": "address"
        }
      ],
      "name": "ERC20InvalidSpender",
      "type": "error"
    },
    {
      "inputs": [],
      "name": "EnforcedPause",
      "type": "error"
    },
    {
      "inputs": [],
      "name": "ExpectedPause",
      "type": "error"
    },
    {
      "inputs": [
        {
          "internalType": "address",
          "name": "owner",
          "type": "address"
        }
      ],
      "name": "OwnableInvalidOwner",
      "type": "error"
    },
    {
      "inputs": [
        {
          "internalType": "address",
          "name": "account",
          "type": "address"
        }
      ],
      "name": "OwnableUnauthorizedAccount",
      "type": "error"
    },
    {
      "inputs": [],
      "name": "ReentrancyGuardReentrantCall",
      "type": "error"
    },
    {
      "anonymous": false,
      "inputs": [
        {
          "indexed": true,
          "internalType": "address",
          "name": "owner",
          "type": "address"
        },
        {
          "indexed": true,
          "internalType": "address",
          "name": "spender",
          "type": "address"
        },
        {
          "indexed": false,
          "internalType": "uint256",
          "name": "value",
          "type": "uint256"
        }
      ],
      "name": "Approval",
      "type": "event"
    },
    {
      "anonymous": false,
      "inputs": [
        {
          "indexed": true,
          "internalType": "address",
          "name": "previousOwner",
          "type": "address"
        },
        {
          "indexed": true,
          "internalType": "address",
          "name": "newOwner",
          "type": "address"
        }
      ],
      "name": "OwnershipTransferred",
      "type": "event"
    },
    {
      "anonymous": false,
      "inputs": [
        {
          "indexed": false,
          "internalType": "address",
          "name": "account",
          "type": "address"
        }
      ],
      "name": "Paused",
      "type": "event"
    },
    {
      "anonymous": false,
      "inputs": [
        {
          "indexed": true,
          "internalType": "address",
          "name": "to",
          "type": "address"
        },
        {
          "indexed": false,
          "internalType": "uint256",
          "name": "amount",
          "type": "uint256"
        }
      ],
      "name": "RewardDistributed",
      "type": "event"
    },
    {
      "anonymous": false,
      "inputs": [
        {
          "indexed": true,
          "internalType": "address",
          "name": "buyer",
          "type": "address"
        },
        {
          "indexed": false,
          "internalType": "uint256",
          "name": "ethAmount",
          "type": "uint256"
        },
        {
          "indexed": false,
          "internalType": "uint256",
          "name": "tokenAmount",
          "type": "uint256"
        }
      ],
      "name": "TokensPurchased",
      "type": "event"
    },
    {
      "anonymous": false,
      "inputs": [
        {
          "indexed": true,
          "internalType": "address",
          "name": "seller",
          "type": "address"
        },
        {
          "indexed": false,
          "internalType": "uint256",
          "name": "tokenAmount",
          "type": "uint256"
        },
        {
          "indexed": false,
          "internalType": "uint256",
          "name": "ethAmount",
          "type": "uint256"
        }
      ],
      "name": "TokensSold",
      "type": "event"
    },
    {
      "anonymous": false,
      "inputs": [
        {
          "indexed": true,
          "internalType": "address",
          "name": "from",
          "type": "address"
        },
        {
          "indexed": true,
          "internalType": "address",
          "name": "to",
          "type": "address"
        },
        {
          "indexed": false,
          "internalType": "uint256",
          "name": "value",
          "type": "uint256"
        }
      ],
      "name": "Transfer",
      "type": "event"
    },
    {
      "anonymous": false,
      "inputs": [
        {
          "indexed": false,
          "internalType": "address",
          "name": "account",
          "type": "address"
        }
      ],
      "name": "Unpaused",
      "type": "event"
    },
    {
      "inputs": [],
      "name": "MAX_MINT_PERCENT",
      "outputs": [
        {
          "internalType": "uint256",
          "name": "",
          "type": "uint256"
        }
      ],
      "stateMutability": "view",
      "type": "function"
    },
    {
      "inputs": [],
      "name": "MAX_SUPPLY",
      "outputs": [
        {
          "internalType": "uint256",
          "name": "",
          "type": "uint256"
        }
      ],
      "stateMutability": "view",
      "type": "function"
    },
    {
      "inputs": [],
      "name": "TOKENS_PER_ETH",
      "outputs": [
        {
          "internalType": "uint256",
          "name": "",
          "type": "uint256"
        }
      ],
      "stateMutability": "view",
      "type": "function"
    },
    {
      "inputs": [
        {
          "internalType": "address",
          "name": "owner",
          "type": "address"
        },
        {
          "internalType": "address",
          "name": "spender",
          "type": "address"
        }
      ],
      "name": "allowance",
      "outputs": [
        {
          "internalType": "uint256",
          "name": "",
          "type": "uint256"
        }
      ],
      "stateMutability": "view",
      "type": "function"
    },
    {
      "inputs": [
        {
          "internalType": "address",
          "name": "spender",
          "type": "address"
        },
        {
          "internalType": "uint256",
          "name": "value",
          "type": "uint256"
        }
      ],
      "name": "approve",
      "outputs": [
        {
          "internalType": "bool",
          "name": "",
          "type": "bool"
        }
      ],
      "stateMutability": "nonpayable",
      "type": "function"
    },
    {
      "inputs": [
        {
          "internalType": "address",
          "name": "account",
          "type": "address"
        }
      ],
      "name": "balanceOf",
      "outputs": [
        {
          "internalType": "uint256",
          "name": "",
          "type": "uint256"
        }
      ],
      "stateMutability": "view",
      "type": "function"
    },
    {
      "inputs": [
        {
          "internalType": "uint256",
          "name": "value",
          "type": "uint256"
        }
      ],
      "name": "burn",
      "outputs": [],
      "stateMutability": "nonpayable",
      "type": "function"
    },
    {
      "inputs": [
        {
          "internalType": "address",
          "name": "account",
          "type": "address"
        },
        {
          "internalType": "uint256",
          "name": "value",
          "type": "uint256"
        }
      ],
      "name": "burnFrom",
      "outputs": [],
      "stateMutability": "nonpayable",
      "type": "function"
    },
    {
      "inputs": [],
      "name": "buyTokens",
      "outputs": [],
      "stateMutability": "payable",
      "type": "function"
    },
    {
      "inputs": [],
      "name": "decimals",
      "outputs": [
        {
          "internalType": "uint8",
          "name": "",
          "type": "uint8"
        }
      ],
      "stateMutability": "view",
      "type": "function"
    },
    {
      "inputs": [
        {
          "internalType": "address",
          "name": "to",
          "type": "address"
        },
        {
          "internalType": "uint256",
          "name": "amount",
          "type": "uint256"
        }
      ],
      "name": "distributeReward",
      "outputs": [],
      "stateMutability": "nonpayable",
      "type": "function"
    },
    {
      "inputs": [
        {
          "internalType": "address",
          "name": "to",
          "type": "address"
        },
        {
          "internalType": "uint256",
          "name": "amount",
          "type": "uint256"
        }
      ],
      "name": "mint",
      "outputs": [],
      "stateMutability": "nonpayable",
      "type": "function"
    },
    {
      "inputs": [],
      "name": "name",
      "outputs": [
        {
          "internalType": "string",
          "name": "",
          "type": "string"
        }
      ],
      "stateMutability": "view",
      "type": "function"
    },
    {
      "inputs": [],
      "name": "owner",
      "outputs": [
        {
          "internalType": "address",
          "name": "",
          "type": "address"
        }
      ],
      "stateMutability": "view",
      "type": "function"
    },
    {
      "inputs": [],
      "name": "pause",
      "outputs": [],
      "stateMutability": "nonpayable",
      "type": "function"
    },
    {
      "inputs": [],
      "name": "paused",
      "outputs": [
        {
          "internalType": "bool",
          "name": "",
          "type": "bool"
        }
      ],
      "stateMutability": "view",
      "type": "function"
    },
    {
      "inputs": [],
      "name": "renounceOwnership",
      "outputs": [],
      "stateMutability": "nonpayable",
      "type": "function"
    },
    {
      "inputs": [
        {
          "internalType": "uint256",
          "name": "tokenAmount",
          "type": "uint256"
        }
      ],
      "name": "sellTokens",
      "outputs": [],
      "stateMutability": "nonpayable",
      "type": "function"
    },
    {
      "inputs": [],
      "name": "symbol",
      "outputs": [
        {
          "internalType": "string",
          "name": "",
          "type": "string"
        }
      ],
      "stateMutability": "view",
      "type": "function"
    },
    {
      "inputs": [],
      "name": "totalSupply",
      "outputs": [
        {
          "internalType": "uint256",
          "name": "",
          "type": "uint256"
        }
      ],
      "stateMutability": "view",
      "type": "function"
    },
    {
      "inputs": [
        {
          "internalType": "address",
          "name": "to",
          "type": "address"
        },
        {
          "internalType": "uint256",
          "name": "amount",
          "type": "uint256"
        }
      ],
      "name": "transfer",
      "outputs": [
        {
          "internalType": "bool",
          "name": "",
          "type": "bool"
        }
      ],
      "stateMutability": "nonpayable",
      "type": "function"
    },
    {
      "inputs": [
        {
          "internalType": "address",
          "name": "from",
          "type": "address"
        },
        {
          "internalType": "address",
          "name": "to",
          "type": "address"
        },
        {
          "internalType": "uint256",
          "name": "amount",
          "type": "uint256"
        }
      ],
      "name": "transferFrom",
      "outputs": [
        {
          "internalType": "bool",
          "name": "",
          "type": "bool"
        }
      ],
      "stateMutability": "nonpayable",
      "type": "function"
    },
    {
      "inputs": [
        {
          "internalType": "address",
          "name": "newOwner",
          "type": "address"
        }
      ],
      "name": "transferOwnership",
      "outputs": [],
      "stateMutability": "nonpayable",
      "type": "function"
    },
    {
      "inputs": [],
      "name": "unpause",
      "outputs": [],
      "stateMutability": "nonpayable",
      "type": "function"
    },
    {
      "inputs": [
        {
          "internalType": "uint256",
          "name": "amount",
          "type": "uint256"
        }
      ],
      "name": "withdrawETH",
      "outputs": [],
      "stateMutability": "nonpayable",
      "type": "function"
    },
    {
      "stateMutability": "payable",
      "type": "receive"
    }
  ],
  "bytecode": "0x60806040523480156200001157600080fd5b5060405162002dac38038062002dac833981810160405281019062000037919062000594565b806040518060400160405280600e81526020017f436861727473426574546f6b656e0000000000000000000000000000000000008152506040518060400160405280600381526020017f43425400000000000000000000000000000000000000000000000000000000008152508160039081620000b5919062000840565b508060049081620000c7919062000840565b5050506000600560006101000a81548160ff021916908315150217905550600073ffffffffffffffffffffffffffffffffffffffff168173ffffffffffffffffffffffffffffffffffffffff16036200015a5760006040517f1e4fbdf700000000000000000000000000000000000000000000000000000000815260040162000151919062000938565b60405180910390fd5b6200016b81620001a760201b60201c565b506001600681905550620001a08160026b033b2e3c9fd0803ce8000000620001949190620009b3565b6200026d60201b60201c565b5062000a91565b6000600560019054906101000a900473ffffffffffffffffffffffffffffffffffffffff16905081600560016101000a81548173ffffffffffffffffffffffffffffffffffffffff021916908373ffffffffffffffffffffffffffffffffffffffff1602179055508173ffffffffffffffffffffffffffffffffffffffff168173ffffffffffffffffffffffffffffffffffffffff167f8be0079c531659141344cd1fd0a4f28419497f9722a3daafe3b4186f6b6457e060405160405180910390a35050565b600073ffffffffffffffffffffffffffffffffffffffff168273ffffffffffffffffffffffffffffffffffffffff1603620002e25760006040517fec442f05000000000000000000000000000000000000000000000000000000008152600401620002d9919062000938565b60405180910390fd5b620002f660008383620002fa60201b60201c565b5050565b600073ffffffffffffffffffffffffffffffffffffffff168373ffffffffffffffffffffffffffffffffffffffff160362000350578060026000828254620003439190620009eb565b9250508190555062000426565b60008060008573ffffffffffffffffffffffffffffffffffffffff1673ffffffffffffffffffffffffffffffffffffffff16815260200190815260200160002054905081811015620003df578381836040517fe450d38c000000000000000000000000000000000000000000000000000000008152600401620003d69392919062000a37565b60405180910390fd5b8181036000808673ffffffffffffffffffffffffffffffffffffffff1673ffffffffffffffffffffffffffffffffffffffff16815260200190815260200160002081905550505b600073ffffffffffffffffffffffffffffffffffffffff168273ffffffffffffffffffffffffffffffffffffffff1603620004715780600260008282540392505081905550620004be565b806000808473ffffffffffffffffffffffffffffffffffffffff1673ffffffffffffffffffffffffffffffffffffffff168152602001908152602001600020600082825401925050819055505b8173ffffffffffffffffffffffffffffffffffffffff168373ffffffffffffffffffffffffffffffffffffffff167fddf252ad1be2c89b69c2b068fc378daa952ba7f163c4a11628f55a4df523b3ef836040516200051d919062000a74565b60405180910390a3505050565b600080fd5b600073ffffffffffffffffffffffffffffffffffffffff82169050919050565b60006200055c826200052f565b9050919050565b6200056e816200054f565b81146200057a57600080fd5b50565b6000815190506200058e8162000563565b92915050565b600060208284031215620005ad57620005ac6200052a565b5b6000620005bd848285016200057d565b91505092915050565b600081519050919050565b7f4e487b7100000000000000000000000000000000000000000000000000000000600052604160045260246000fd5b7f4e487b7100000000000000000000000000000000000000000000000000000000600052602260045260246000fd5b600060028204905060018216806200064857607f821691505b6020821081036200065e576200065d62000600565b5b50919050565b60008190508160005260206000209050919050565b60006020601f8301049050919050565b600082821b905092915050565b600060088302620006c87fffffffffffffffffffffffffffffffffffffffffffffffffffffffffffffffff8262000689565b620006d4868362000689565b95508019841693508086168417925050509392505050565b6000819050919050565b6000819050919050565b6000620007216200071b6200071584620006ec565b620006f6565b620006ec565b9050919050565b6000819050919050565b6200073d8362000700565b620007556200074c8262000728565b84845462000696565b825550505050565b600090565b6200076c6200075d565b6200077981848462000732565b505050565b5b81811015620007a1576200079560008262000762565b6001810190506200077f565b5050565b601f821115620007f057620007ba8162000664565b620007c58462000679565b81016020851015620007d5578190505b620007ed620007e48562000679565b8301826200077e565b50505b505050565b600082821c905092915050565b60006200081560001984600802620007f5565b1980831691505092915050565b600062000830838362000802565b9150826002028217905092915050565b6200084b82620005c6565b67ffffffffffffffff811115620008675762000866620005d1565b5b6200087382546200062f565b62000880828285620007a5565b600060209050601f831160018114620008b85760008415620008a3578287015190505b620008af858262000822565b8655506200091f565b601f198416620008c88662000664565b60005b82811015620008f257848901518255600182019150602085019450602081019050620008cb565b868310156200091257848901516200090e601f89168262000802565b8355505b6001600288020188555050505b505050505050565b62000932816200054f565b82525050565b60006020820190506200094f600083018462000927565b92915050565b7f4e487b7100000000000000000000000000000000000000000000000000000000600052601260045260246000fd5b7f4e487b7100000000000000000000000000000000000000000000000000000000600052601160045260246000fd5b6000620009c082620006ec565b9150620009cd83620006ec565b925082620009e057620009df62000955565b5b828204905092915050565b6000620009f882620006ec565b915062000a0583620006ec565b925082820190508082111562000a205762000a1f62000984565b5b92915050565b62000a3181620006ec565b82525050565b600060608201905062000a4e600083018662000927565b62000a5d602083018562000a26565b62000a6c604083018462000a26565b949350505050565b600060208201905062000a8b600083018462000a26565b92915050565b61230b8062000aa16000396000f3fe60806040526004361061016a5760003560e01c80636c11bcd3116100d157806395d89b411161008a578063d0febe4c11610064578063d0febe4c14610507578063dd62ed3e14610511578063f14210a61461054e578063f2fde38b1461057757610179565b806395d89b4114610474578063a9059cbb1461049f578063bc6e6604146104dc57610179565b80636c11bcd31461038c57806370a08231146103b5578063715018a6146103f257806379cc6790146104095780638456cb59146104325780638da5cb5b1461044957610179565b8063313ce56711610123578063313ce567146102a257806332cb6b0c146102cd5780633f4ba83a146102f857806340c10f191461030f57806342966c68146103385780635c975abb1461036157610179565b806306fdde031461017e578063095ea7b3146101a957806318160ddd146101e65780631ec8bb8c1461021157806323b872dd1461023a5780632ac234c01461027757610179565b36610179576101776105a0565b005b600080fd5b34801561018a57600080fd5b506101936106c3565b6040516101a0919061199d565b60405180910390f35b3480156101b557600080fd5b506101d060048036038101906101cb9190611a58565b610755565b6040516101dd9190611ab3565b60405180910390f35b3480156101f257600080fd5b506101fb610778565b6040516102089190611add565b60405180910390f35b34801561021d57600080fd5b5061023860048036038101906102339190611a58565b610782565b005b34801561024657600080fd5b50610261600480360381019061025c9190611af8565b610847565b60405161026e9190611ab3565b60405180910390f35b34801561028357600080fd5b5061028c610865565b6040516102999190611add565b60405180910390f35b3480156102ae57600080fd5b506102b761086a565b6040516102c49190611b67565b60405180910390f35b3480156102d957600080fd5b506102e2610873565b6040516102ef9190611add565b60405180910390f35b34801561030457600080fd5b5061030d610883565b005b34801561031b57600080fd5b5061033660048036038101906103319190611a58565b610895565b005b34801561034457600080fd5b5061035f600480360381019061035a9190611b82565b610973565b005b34801561036d57600080fd5b50610376610987565b6040516103839190611ab3565b60405180910390f35b34801561039857600080fd5b506103b360048036038101906103ae9190611b82565b61099e565b005b3480156103c157600080fd5b506103dc60048036038101906103d79190611baf565b610bab565b6040516103e99190611add565b60405180910390f35b3480156103fe57600080fd5b50610407610bf3565b005b34801561041557600080fd5b50610430600480360381019061042b9190611a58565b610c07565b005b34801561043e57600080fd5b50610447610c27565b005b34801561045557600080fd5b5061045e610c39565b60405161046b9190611beb565b60405180910390f35b34801561048057600080fd5b50610489610c63565b604051610496919061199d565b60405180910390f35b3480156104ab57600080fd5b506104c660048036038101906104c19190611a58565b610cf5565b6040516104d39190611ab3565b60405180910390f35b3480156104e857600080fd5b506104f1610d11565b6040516104fe9190611add565b60405180910390f35b61050f6105a0565b005b34801561051d57600080fd5b5061053860048036038101906105339190611c06565b610d16565b6040516105459190611add565b60405180910390f35b34801561055a57600080fd5b5061057560048036038101906105709190611b82565b610d9d565b005b34801561058357600080fd5b5061059e60048036038101906105999190611baf565b610eaf565b005b6105a8610f35565b6105b0610f7b565b600034116105f3576040517f08c379a00000000000000000000000000000000000000000000000000000000081526004016105ea90611c92565b60405180910390fd5b60006064346106029190611ce1565b905080610615610610610c39565b610bab565b1015610656576040517f08c379a000000000000000000000000000000000000000000000000000000000815260040161064d90611d6f565b60405180910390fd5b610668610661610c39565b3383610fbc565b3373ffffffffffffffffffffffffffffffffffffffff167f8fafebcaf9d154343dad25669bfa277f4fbacd7ac6b0c4fed522580e040a0f3334836040516106b0929190611d8f565b60405180910390a2506106c16110b0565b565b6060600380546106d290611de7565b80601f01602080910402602001604051908101604052809291908181526020018280546106fe90611de7565b801561074b5780601f106107205761010080835404028352916020019161074b565b820191906000526020600020905b81548152906001019060200180831161072e57829003601f168201915b5050505050905090565b6000806107606110ba565b905061076d8185856110c2565b600191505092915050565b6000600254905090565b61078a6110d4565b6b033b2e3c9fd0803ce8000000816107a0610778565b6107aa9190611e18565b11156107eb576040517f08c379a00000000000000000000000000000000000000000000000000000000081526004016107e290611e98565b60405180910390fd5b6107f5828261115b565b8173ffffffffffffffffffffffffffffffffffffffff167fe34918ff1c7084970068b53fd71ad6d8b04e9f15d3886cbf006443e6cdc52ea68260405161083b9190611add565b60405180910390a25050565b6000610851610f7b565b61085c8484846111dd565b90509392505050565b600181565b60006012905090565b6b033b2e3c9fd0803ce800000081565b61088b6110d4565b61089361120c565b565b61089d6110d4565b6b033b2e3c9fd0803ce8000000816108b3610778565b6108bd9190611e18565b11156108fe576040517f08c379a00000000000000000000000000000000000000000000000000000000081526004016108f590611f04565b60405180910390fd5b606460016b033b2e3c9fd0803ce80000006109199190611ce1565b6109239190611f53565b811115610965576040517f08c379a000000000000000000000000000000000000000000000000000000000815260040161095c90611ff6565b60405180910390fd5b61096f828261115b565b5050565b61098461097e6110ba565b8261126f565b50565b6000600560009054906101000a900460ff16905090565b6109a6610f35565b6109ae610f7b565b600081116109f1576040517f08c379a00000000000000000000000000000000000000000000000000000000081526004016109e890612088565b60405180910390fd5b806109fb33610bab565b1015610a3c576040517f08c379a0000000000000000000000000000000000000000000000000000000008152600401610a33906120f4565b60405180910390fd5b6000606482610a4b9190611f53565b905080471015610a90576040517f08c379a0000000000000000000000000000000000000000000000000000000008152600401610a8790612160565b60405180910390fd5b610aa233610a9c610c39565b84610fbc565b60003373ffffffffffffffffffffffffffffffffffffffff1682604051610ac8906121b1565b60006040518083038185875af1925050503d8060008114610b05576040519150601f19603f3d011682016040523d82523d6000602084013e610b0a565b606091505b5050905080610b4e576040517f08c379a0000000000000000000000000000000000000000000000000000000008152600401610b4590612212565b60405180910390fd5b3373ffffffffffffffffffffffffffffffffffffffff167f2dcf9433d75db0d8b1c172641f85e319ffe4ad22e108a95d1847ceb906e5195d8484604051610b96929190611d8f565b60405180910390a25050610ba86110b0565b50565b60008060008373ffffffffffffffffffffffffffffffffffffffff1673ffffffffffffffffffffffffffffffffffffffff168152602001908152602001600020549050919050565b610bfb6110d4565b610c0560006112f1565b565b610c1982610c136110ba565b836113b7565b610c23828261126f565b5050565b610c2f6110d4565b610c3761144b565b565b6000600560019054906101000a900473ffffffffffffffffffffffffffffffffffffffff16905090565b606060048054610c7290611de7565b80601f0160208091040260200160405190810160405280929190818152602001828054610c9e90611de7565b8015610ceb5780601f10610cc057610100808354040283529160200191610ceb565b820191906000526020600020905b815481529060010190602001808311610cce57829003601f168201915b5050505050905090565b6000610cff610f7b565b610d0983836114ae565b905092915050565b606481565b6000600160008473ffffffffffffffffffffffffffffffffffffffff1673ffffffffffffffffffffffffffffffffffffffff16815260200190815260200160002060008373ffffffffffffffffffffffffffffffffffffffff1673ffffffffffffffffffffffffffffffffffffffff16815260200190815260200160002054905092915050565b610da56110d4565b610dad610f35565b80471015610df0576040517f08c379a0000000000000000000000000000000000000000000000000000000008152600401610de79061227e565b60405180910390fd5b6000610dfa610c39565b73ffffffffffffffffffffffffffffffffffffffff1682604051610e1d906121b1565b60006040518083038185875af1925050503d8060008114610e5a576040519150601f19603f3d011682016040523d82523d6000602084013e610e5f565b606091505b5050905080610ea3576040517f08c379a0000000000000000000000000000000000000000000000000000000008152600401610e9a90612212565b60405180910390fd5b50610eac6110b0565b50565b610eb76110d4565b600073ffffffffffffffffffffffffffffffffffffffff168173ffffffffffffffffffffffffffffffffffffffff1603610f295760006040517f1e4fbdf7000000000000000000000000000000000000000000000000000000008152600401610f209190611beb565b60405180910390fd5b610f32816112f1565b50565b600260065403610f71576040517f3ee5aeb500000000000000000000000000000000000000000000000000000000815260040160405180910390fd5b6002600681905550565b610f83610987565b15610fba576040517fd93c066500000000000000000000000000000000000000000000000000000000815260040160405180910390fd5b565b600073ffffffffffffffffffffffffffffffffffffffff168373ffffffffffffffffffffffffffffffffffffffff160361102e5760006040517f96c6fd1e0000000000000000000000000000000000000000000000000000000081526004016110259190611beb565b60405180910390fd5b600073ffffffffffffffffffffffffffffffffffffffff168273ffffffffffffffffffffffffffffffffffffffff16036110a05760006040517fec442f050000000000000000000000000000000000000000000000000000000081526004016110979190611beb565b60405180910390fd5b6110ab8383836114d1565b505050565b6001600681905550565b600033905090565b6110cf83838360016116f6565b505050565b6110dc6110ba565b73ffffffffffffffffffffffffffffffffffffffff166110fa610c39565b73ffffffffffffffffffffffffffffffffffffffff16146111595761111d6110ba565b6040517f118cdaa70000000000000000000000000000000000000000000000000000000081526004016111509190611beb565b60405180910390fd5b565b600073ffffffffffffffffffffffffffffffffffffffff168273ffffffffffffffffffffffffffffffffffffffff16036111cd5760006040517fec442f050000000000000000000000000000000000000000000000000000000081526004016111c49190611beb565b60405180910390fd5b6111d9600083836114d1565b5050565b6000806111e86110ba565b90506111f58582856113b7565b611200858585610fbc565b60019150509392505050565b6112146118cd565b6000600560006101000a81548160ff0219169083151502179055507f5db9ee0a495bf2e6ff9c91a7834c1ba4fdd244a5e8aa4e537bd38aeae4b073aa6112586110ba565b6040516112659190611beb565b60405180910390a1565b600073ffffffffffffffffffffffffffffffffffffffff168273ffffffffffffffffffffffffffffffffffffffff16036112e15760006040517f96c6fd1e0000000000000000000000000000000000000000000000000000000081526004016112d89190611beb565b60405180910390fd5b6112ed826000836114d1565b5050565b6000600560019054906101000a900473ffffffffffffffffffffffffffffffffffffffff16905081600560016101000a81548173ffffffffffffffffffffffffffffffffffffffff021916908373ffffffffffffffffffffffffffffffffffffffff1602179055508173ffffffffffffffffffffffffffffffffffffffff168173ffffffffffffffffffffffffffffffffffffffff167f8be0079c531659141344cd1fd0a4f28419497f9722a3daafe3b4186f6b6457e060405160405180910390a35050565b60006113c38484610d16565b90507fffffffffffffffffffffffffffffffffffffffffffffffffffffffffffffffff81146114455781811015611435578281836040517ffb8f41b200000000000000000000000000000000000000000000000000000000815260040161142c9392919061229e565b60405180910390fd5b611444848484840360006116f6565b5b50505050565b611453610f7b565b6001600560006101000a81548160ff0219169083151502179055507f62e78cea01bee320cd4e420270b5ea74000d11b0c9f74754ebdbfc544b05a2586114976110ba565b6040516114a49190611beb565b60405180910390a1565b6000806114b96110ba565b90506114c6818585610fbc565b600191505092915050565b600073ffffffffffffffffffffffffffffffffffffffff168373ffffffffffffffffffffffffffffffffffffffff16036115235780600260008282546115179190611e18565b925050819055506115f6565b60008060008573ffffffffffffffffffffffffffffffffffffffff1673ffffffffffffffffffffffffffffffffffffffff168152602001908152602001600020549050818110156115af578381836040517fe450d38c0000000000000000000000000000000000000000000000000000000081526004016115a69392919061229e565b60405180910390fd5b8181036000808673ffffffffffffffffffffffffffffffffffffffff1673ffffffffffffffffffffffffffffffffffffffff16815260200190815260200160002081905550505b600073ffffffffffffffffffffffffffffffffffffffff168273ffffffffffffffffffffffffffffffffffffffff160361163f578060026000828254039250508190555061168c565b806000808473ffffffffffffffffffffffffffffffffffffffff1673ffffffffffffffffffffffffffffffffffffffff168152602001908152602001600020600082825401925050819055505b8173ffffffffffffffffffffffffffffffffffffffff168373ffffffffffffffffffffffffffffffffffffffff167fddf252ad1be2c89b69c2b068fc378daa952ba7f163c4a11628f55a4df523b3ef836040516116e99190611add565b60405180910390a3505050565b600073ffffffffffffffffffffffffffffffffffffffff168473ffffffffffffffffffffffffffffffffffffffff16036117685760006040517fe602df0500000000000000000000000000000000000000000000000000000000815260040161175f9190611beb565b60405180910390fd5b600073ffffffffffffffffffffffffffffffffffffffff168373ffffffffffffffffffffffffffffffffffffffff16036117da5760006040517f94280d620000000000000000000000000000000000000000000000000000000081526004016117d19190611beb565b60405180910390fd5b81600160008673ffffffffffffffffffffffffffffffffffffffff1673ffffffffffffffffffffffffffffffffffffffff16815260200190815260200160002060008573ffffffffffffffffffffffffffffffffffffffff1673ffffffffffffffffffffffffffffffffffffffff1681526020019081526020016000208190555080156118c7578273ffffffffffffffffffffffffffffffffffffffff168473ffffffffffffffffffffffffffffffffffffffff167f8c5be1e5ebec7d5bd14f71427d1e84f3dd0314c0f7b2291e5b200ac8c7c3b925846040516118be9190611add565b60405180910390a35b50505050565b6118d5610987565b61190b576040517f8dfc202b00000000000000000000000000000000000000000000000000000000815260040160405180910390fd5b565b600081519050919050565b600082825260208201905092915050565b60005b8381101561194757808201518184015260208101905061192c565b60008484015250505050565b6000601f19601f8301169050919050565b600061196f8261190d565b6119798185611918565b9350611989818560208601611929565b61199281611953565b840191505092915050565b600060208201905081810360008301526119b78184611964565b905092915050565b600080fd5b600073ffffffffffffffffffffffffffffffffffffffff82169050919050565b60006119ef826119c4565b9050919050565b6119ff816119e4565b8114611a0a57600080fd5b50565b600081359050611a1c816119f6565b92915050565b6000819050919050565b611a3581611a22565b8114611a4057600080fd5b50565b600081359050611a5281611a2c565b92915050565b60008060408385031215611a6f57611a6e6119bf565b5b6000611a7d85828601611a0d565b9250506020611a8e85828601611a43565b9150509250929050565b60008115159050919050565b611aad81611a98565b82525050565b6000602082019050611ac86000830184611aa4565b92915050565b611ad781611a22565b82525050565b6000602082019050611af26000830184611ace565b92915050565b600080600060608486031215611b1157611b106119bf565b5b6000611b1f86828701611a0d565b9350506020611b3086828701611a0d565b9250506040611b4186828701611a43565b9150509250925092565b600060ff82169050919050565b611b6181611b4b565b82525050565b6000602082019050611b7c6000830184611b58565b92915050565b600060208284031215611b9857611b976119bf565b5b6000611ba684828501611a43565b91505092915050565b600060208284031215611bc557611bc46119bf565b5b6000611bd384828501611a0d565b91505092915050565b611be5816119e4565b82525050565b6000602082019050611c006000830184611bdc565b92915050565b60008060408385031215611c1d57611c1c6119bf565b5b6000611c2b85828601611a0d565b9250506020611c3c85828601611a0d565b9150509250929050565b7f4d7573742073656e642045544820746f2062757920746f6b656e730000000000600082015250565b6000611c7c601b83611918565b9150611c8782611c46565b602082019050919050565b60006020820190508181036000830152611cab81611c6f565b9050919050565b7f4e487b7100000000000000000000000000000000000000000000000000000000600052601160045260246000fd5b6000611cec82611a22565b9150611cf783611a22565b9250828202611d0581611a22565b91508282048414831517611d1c57611d1b611cb2565b5b5092915050565b7f4e6f7420656e6f75676820746f6b656e7320696e207265736572766500000000600082015250565b6000611d59601c83611918565b9150611d6482611d23565b602082019050919050565b60006020820190508181036000830152611d8881611d4c565b9050919050565b6000604082019050611da46000830185611ace565b611db16020830184611ace565b9392505050565b7f4e487b7100000000000000000000000000000000000000000000000000000000600052602260045260246000fd5b60006002820490506001821680611dff57607f821691505b602082108103611e1257611e11611db8565b5b50919050565b6000611e2382611a22565b9150611e2e83611a22565b9250828201905080821115611e4657611e45611cb2565b5b92915050565b7f52657761726420776f756c6420657863656564206d617820737570706c790000600082015250565b6000611e82601e83611918565b9150611e8d82611e4c565b602082019050919050565b60006020820190508181036000830152611eb181611e75565b9050919050565b7f4d696e74696e6720776f756c6420657863656564206d617820737570706c7900600082015250565b6000611eee601f83611918565b9150611ef982611eb8565b602082019050919050565b60006020820190508181036000830152611f1d81611ee1565b9050919050565b7f4e487b7100000000000000000000000000000000000000000000000000000000600052601260045260246000fd5b6000611f5e82611a22565b9150611f6983611a22565b925082611f7957611f78611f24565b5b828204905092915050565b7f43616e6e6f74206d696e74206d6f7265207468616e203125206f66204d41585f60008201527f535550504c59206174206f6e6365000000000000000000000000000000000000602082015250565b6000611fe0602e83611918565b9150611feb82611f84565b604082019050919050565b6000602082019050818103600083015261200f81611fd3565b9050919050565b7f4d757374207370656369667920616e20616d6f756e74206f6620746f6b656e7360008201527f20746f2073656c6c000000000000000000000000000000000000000000000000602082015250565b6000612072602883611918565b915061207d82612016565b604082019050919050565b600060208201905081810360008301526120a181612065565b9050919050565b7f4e6f7420656e6f75676820746f6b656e7320746f2073656c6c00000000000000600082015250565b60006120de601983611918565b91506120e9826120a8565b602082019050919050565b6000602082019050818103600083015261210d816120d1565b9050919050565b7f4e6f7420656e6f7567682045544820696e207265736572766500000000000000600082015250565b600061214a601983611918565b915061215582612114565b602082019050919050565b600060208201905081810360008301526121798161213d565b9050919050565b600081905092915050565b50565b600061219b600083612180565b91506121a68261218b565b600082019050919050565b60006121bc8261218e565b9150819050919050565b7f4661696c656420746f2073656e64204554480000000000000000000000000000600082015250565b60006121fc601283611918565b9150612207826121c6565b602082019050919050565b6000602082019050818103600083015261222b816121ef565b9050919050565b7f4e6f7420656e6f7567682045544820696e20636f6e7472616374000000000000600082015250565b6000612268601a83611918565b915061227382612232565b602082019050919050565b600060208201905081810360008301526122978161225b565b9050919050565b60006060820190506122b36000830186611bdc565b6122c06020830185611ace565b6122cd6040830184611ace565b94935050505056fea2646970667358221220671e7fa66d578c221f8d2885fd2a833d785cac321808326433977f5e31f5657464736f6c63430008180033",
  "linkReferences": {},
  "deployedLinkReferences": {}
}