{
  "_format": "hh-sol-artifact-1",
  "contractName": "ChartsBet",
  "sourceName": "contracts/ChartsBet.sol",
  "abi": [
    {
      "inputs": [
        {
          "internalType": "address",
          "name": "initialOwner",
          "type": "address"
        }
      ],
      "stateMutability": "nonpayable",
      "type": "constructor"
    },
    {
      "inputs": [
        {
          "internalType": "address",
          "name": "bettor",
          "type": "address"
        }
      ],
      "name": "BetAlreadyPlaced",
      "type": "error"
    },
    {
      "inputs": [
        {
          "internalType": "uint256",
          "name": "amount",
          "type": "uint256"
        },
        {
          "internalType": "uint256",
          "name": "maxBet",
          "type": "uint256"
        }
      ],
      "name": "BetTooHigh",
      "type": "error"
    },
    {
      "inputs": [],
      "name": "EnforcedPause",
      "type": "error"
    },
    {
      "inputs": [],
      "name": "ExpectedPause",
      "type": "error"
    },
    {
      "inputs": [
        {
          "internalType": "uint256",
          "name": "required",
          "type": "uint256"
        },
        {
          "internalType": "uint256",
          "name": "available",
          "type": "uint256"
        }
      ],
      "name": "InsufficientContractBalance",
      "type": "error"
    },
    {
      "inputs": [
        {
          "internalType": "uint256",
          "name": "count",
          "type": "uint256"
        }
      ],
      "name": "InvalidArtistCount",
      "type": "error"
    },
    {
      "inputs": [
        {
          "internalType": "bytes32",
          "name": "country",
          "type": "bytes32"
        }
      ],
      "name": "InvalidCountry",
      "type": "error"
    },
    {
      "inputs": [],
      "name": "InvalidInitialization",
      "type": "error"
    },
    {
      "inputs": [],
      "name": "NoBetPlaced",
      "type": "error"
    },
    {
      "inputs": [],
      "name": "NoPayoutToClaim",
      "type": "error"
    },
    {
      "inputs": [],
      "name": "NotInitializing",
      "type": "error"
    },
    {
      "inputs": [
        {
          "internalType": "address",
          "name": "owner",
          "type": "address"
        }
      ],
      "name": "OwnableInvalidOwner",
      "type": "error"
    },
    {
      "inputs": [
        {
          "internalType": "address",
          "name": "account",
          "type": "address"
        }
      ],
      "name": "OwnableUnauthorizedAccount",
      "type": "error"
    },
    {
      "inputs": [],
      "name": "PoolAlreadyClosed",
      "type": "error"
    },
    {
      "inputs": [],
      "name": "PoolNotClosed",
      "type": "error"
    },
    {
      "inputs": [
        {
          "internalType": "uint256",
          "name": "currentTime",
          "type": "uint256"
        },
        {
          "internalType": "uint256",
          "name": "openingTime",
          "type": "uint256"
        },
        {
          "internalType": "uint256",
          "name": "scheduledClosingTime",
          "type": "uint256"
        },
        {
          "internalType": "uint256",
          "name": "actualClosingTime",
          "type": "uint256"
        }
      ],
      "name": "PoolNotOpen",
      "type": "error"
    },
    {
      "inputs": [
        {
          "internalType": "uint256",
          "name": "currentTime",
          "type": "uint256"
        },
        {
          "internalType": "uint256",
          "name": "scheduledClosingTime",
          "type": "uint256"
        }
      ],
      "name": "PoolNotScheduledToClose",
      "type": "error"
    },
    {
      "inputs": [],
      "name": "ReentrancyGuardReentrantCall",
      "type": "error"
    },
    {
      "anonymous": false,
      "inputs": [
        {
          "indexed": true,
          "internalType": "address",
          "name": "bettor",
          "type": "address"
        },
        {
          "indexed": true,
          "internalType": "bytes32",
          "name": "country",
          "type": "bytes32"
        },
        {
          "indexed": true,
          "internalType": "uint256",
          "name": "day",
          "type": "uint256"
        },
        {
          "indexed": false,
          "internalType": "bytes32",
          "name": "artist",
          "type": "bytes32"
        },
        {
          "indexed": false,
          "internalType": "uint256",
          "name": "amount",
          "type": "uint256"
        },
        {
          "indexed": false,
          "internalType": "uint256",
          "name": "odds",
          "type": "uint256"
        }
      ],
      "name": "BetPlaced",
      "type": "event"
    },
    {
      "anonymous": false,
      "inputs": [
        {
          "indexed": true,
          "internalType": "address",
          "name": "bettor",
          "type": "address"
        },
        {
          "indexed": true,
          "internalType": "bytes32",
          "name": "country",
          "type": "bytes32"
        },
        {
          "indexed": true,
          "internalType": "uint256",
          "name": "day",
          "type": "uint256"
        },
        {
          "indexed": false,
          "internalType": "uint256",
          "name": "amount",
          "type": "uint256"
        },
        {
          "indexed": false,
          "internalType": "bool",
          "name": "won",
          "type": "bool"
        }
      ],
      "name": "BetSettled",
      "type": "event"
    },
    {
      "anonymous": false,
      "inputs": [
        {
          "indexed": false,
          "internalType": "uint64",
          "name": "version",
          "type": "uint64"
        }
      ],
      "name": "Initialized",
      "type": "event"
    },
    {
      "anonymous": false,
      "inputs": [
        {
          "indexed": true,
          "internalType": "address",
          "name": "previousOwner",
          "type": "address"
        },
        {
          "indexed": true,
          "internalType": "address",
          "name": "newOwner",
          "type": "address"
        }
      ],
      "name": "OwnershipTransferred",
      "type": "event"
    },
    {
      "anonymous": false,
      "inputs": [
        {
          "indexed": false,
          "internalType": "address",
          "name": "account",
          "type": "address"
        }
      ],
      "name": "Paused",
      "type": "event"
    },
    {
      "anonymous": false,
      "inputs": [
        {
          "indexed": true,
          "internalType": "address",
          "name": "bettor",
          "type": "address"
        },
        {
          "indexed": false,
          "internalType": "uint256",
          "name": "amount",
          "type": "uint256"
        }
      ],
      "name": "PayoutClaimed",
      "type": "event"
    },
    {
      "anonymous": false,
      "inputs": [
        {
          "indexed": true,
          "internalType": "bytes32",
          "name": "country",
          "type": "bytes32"
        },
        {
          "indexed": true,
          "internalType": "uint256",
          "name": "day",
          "type": "uint256"
        },
        {
          "indexed": false,
          "internalType": "bytes32",
          "name": "winningArtist",
          "type": "bytes32"
        },
        {
          "indexed": false,
          "internalType": "uint256",
          "name": "actualClosingTime",
          "type": "uint256"
        }
      ],
      "name": "PoolClosed",
      "type": "event"
    },
    {
      "anonymous": false,
      "inputs": [
        {
          "indexed": true,
          "internalType": "bytes32",
          "name": "country",
          "type": "bytes32"
        },
        {
          "indexed": true,
          "internalType": "uint256",
          "name": "day",
          "type": "uint256"
        },
        {
          "indexed": false,
          "internalType": "uint256",
          "name": "openingTime",
          "type": "uint256"
        },
        {
          "indexed": false,
          "internalType": "uint256",
          "name": "scheduledClosingTime",
          "type": "uint256"
        }
      ],
      "name": "PoolOpened",
      "type": "event"
    },
    {
      "anonymous": false,
      "inputs": [
        {
          "indexed": false,
          "internalType": "address",
          "name": "account",
          "type": "address"
        }
      ],
      "name": "Unpaused",
      "type": "event"
    },
    {
      "inputs": [],
      "name": "MAX_BET",
      "outputs": [
        {
          "internalType": "uint256",
          "name": "",
          "type": "uint256"
        }
      ],
      "stateMutability": "view",
      "type": "function"
    },
    {
      "inputs": [],
      "name": "OUTSIDER_ODDS",
      "outputs": [
        {
          "internalType": "uint256",
          "name": "",
          "type": "uint256"
        }
      ],
      "stateMutability": "view",
      "type": "function"
    },
    {
      "inputs": [],
      "name": "RESERVE_PERCENTAGE",
      "outputs": [
        {
          "internalType": "uint256",
          "name": "",
          "type": "uint256"
        }
      ],
      "stateMutability": "view",
      "type": "function"
    },
    {
      "inputs": [
        {
          "internalType": "bytes32",
          "name": "",
          "type": "bytes32"
        },
        {
          "internalType": "bytes32",
          "name": "",
          "type": "bytes32"
        }
      ],
      "name": "artistRanks",
      "outputs": [
        {
          "internalType": "uint256",
          "name": "",
          "type": "uint256"
        }
      ],
      "stateMutability": "view",
      "type": "function"
    },
    {
      "inputs": [],
      "name": "claimPayout",
      "outputs": [],
      "stateMutability": "nonpayable",
      "type": "function"
    },
    {
      "inputs": [
        {
          "internalType": "bytes32",
          "name": "country",
          "type": "bytes32"
        },
        {
          "internalType": "bytes32",
          "name": "winningArtist",
          "type": "bytes32"
        }
      ],
      "name": "closePoolAndAnnounceWinner",
      "outputs": [],
      "stateMutability": "nonpayable",
      "type": "function"
    },
    {
      "inputs": [],
      "name": "currentDay",
      "outputs": [
        {
          "internalType": "uint256",
          "name": "",
          "type": "uint256"
        }
      ],
      "stateMutability": "view",
      "type": "function"
    },
    {
      "inputs": [
        {
          "internalType": "bytes32",
          "name": "",
          "type": "bytes32"
        },
        {
          "internalType": "uint256",
          "name": "",
          "type": "uint256"
        }
      ],
      "name": "dailyPools",
      "outputs": [
        {
          "internalType": "uint256",
          "name": "openingTime",
          "type": "uint256"
        },
        {
          "internalType": "uint256",
          "name": "scheduledClosingTime",
          "type": "uint256"
        },
        {
          "internalType": "uint256",
          "name": "actualClosingTime",
          "type": "uint256"
        },
        {
          "internalType": "uint256",
          "name": "totalBets",
          "type": "uint256"
        },
        {
          "internalType": "uint256",
          "name": "totalAmount",
          "type": "uint256"
        },
        {
          "internalType": "bytes32",
          "name": "winningArtist",
          "type": "bytes32"
        },
        {
          "internalType": "bool",
          "name": "closed",
          "type": "bool"
        }
      ],
      "stateMutability": "view",
      "type": "function"
    },
    {
      "inputs": [],
      "name": "defaultDuration",
      "outputs": [
        {
          "internalType": "uint256",
          "name": "",
          "type": "uint256"
        }
      ],
      "stateMutability": "view",
      "type": "function"
    },
    {
      "inputs": [
        {
          "internalType": "bytes32",
          "name": "country",
          "type": "bytes32"
        },
        {
          "internalType": "bytes32",
          "name": "artist",
          "type": "bytes32"
        }
      ],
      "name": "getOdds",
      "outputs": [
        {
          "internalType": "uint256",
          "name": "",
          "type": "uint256"
        }
      ],
      "stateMutability": "view",
      "type": "function"
    },
    {
      "inputs": [
        {
          "internalType": "bytes32",
          "name": "country",
          "type": "bytes32"
        }
      ],
      "name": "getPoolInfo",
      "outputs": [
        {
          "internalType": "uint256",
          "name": "openingTime",
          "type": "uint256"
        },
        {
          "internalType": "uint256",
          "name": "scheduledClosingTime",
          "type": "uint256"
        },
        {
          "internalType": "uint256",
          "name": "actualClosingTime",
          "type": "uint256"
        },
        {
          "internalType": "bool",
          "name": "closed",
          "type": "bool"
        },
        {
          "internalType": "uint256",
          "name": "totalBets",
          "type": "uint256"
        },
        {
          "internalType": "uint256",
          "name": "totalAmount",
          "type": "uint256"
        }
      ],
      "stateMutability": "view",
      "type": "function"
    },
    {
      "inputs": [
        {
          "internalType": "bytes32",
          "name": "country",
          "type": "bytes32"
        },
        {
          "internalType": "address",
          "name": "bettor",
          "type": "address"
        }
      ],
      "name": "hasBetPlaced",
      "outputs": [
        {
          "internalType": "bool",
          "name": "",
          "type": "bool"
        }
      ],
      "stateMutability": "view",
      "type": "function"
    },
    {
      "inputs": [],
      "name": "initialize",
      "outputs": [],
      "stateMutability": "nonpayable",
      "type": "function"
    },
    {
      "inputs": [
        {
          "internalType": "uint256",
          "name": "_duration",
          "type": "uint256"
        }
      ],
      "name": "openAllDailyPools",
      "outputs": [],
      "stateMutability": "nonpayable",
      "type": "function"
    },
    {
      "inputs": [],
      "name": "owner",
      "outputs": [
        {
          "internalType": "address",
          "name": "",
          "type": "address"
        }
      ],
      "stateMutability": "view",
      "type": "function"
    },
    {
      "inputs": [],
      "name": "pause",
      "outputs": [],
      "stateMutability": "nonpayable",
      "type": "function"
    },
    {
      "inputs": [],
      "name": "paused",
      "outputs": [
        {
          "internalType": "bool",
          "name": "",
          "type": "bool"
        }
      ],
      "stateMutability": "view",
      "type": "function"
    },
    {
      "inputs": [
        {
          "internalType": "address",
          "name": "",
          "type": "address"
        }
      ],
      "name": "pendingPayouts",
      "outputs": [
        {
          "internalType": "uint256",
          "name": "",
          "type": "uint256"
        }
      ],
      "stateMutability": "view",
      "type": "function"
    },
    {
      "inputs": [
        {
          "internalType": "bytes32",
          "name": "country",
          "type": "bytes32"
        },
        {
          "internalType": "bytes32",
          "name": "artist",
          "type": "bytes32"
        }
      ],
      "name": "placeBet",
      "outputs": [],
      "stateMutability": "payable",
      "type": "function"
    },
    {
      "inputs": [],
      "name": "renounceOwnership",
      "outputs": [],
      "stateMutability": "nonpayable",
      "type": "function"
    },
    {
      "inputs": [
        {
          "internalType": "uint256",
          "name": "_duration",
          "type": "uint256"
        }
      ],
      "name": "setDefaultDuration",
      "outputs": [],
      "stateMutability": "nonpayable",
      "type": "function"
    },
    {
      "inputs": [
        {
          "internalType": "bytes32",
          "name": "country",
          "type": "bytes32"
        }
      ],
      "name": "settleBet",
      "outputs": [],
      "stateMutability": "nonpayable",
      "type": "function"
    },
    {
      "inputs": [
        {
          "internalType": "bytes32",
          "name": "",
          "type": "bytes32"
        },
        {
          "internalType": "uint256",
          "name": "",
          "type": "uint256"
        }
      ],
      "name": "top10Artists",
      "outputs": [
        {
          "internalType": "bytes32",
          "name": "",
          "type": "bytes32"
        }
      ],
      "stateMutability": "view",
      "type": "function"
    },
    {
      "inputs": [
        {
          "internalType": "address",
          "name": "newOwner",
          "type": "address"
        }
      ],
      "name": "transferOwnership",
      "outputs": [],
      "stateMutability": "nonpayable",
      "type": "function"
    },
    {
      "inputs": [],
      "name": "unpause",
      "outputs": [],
      "stateMutability": "nonpayable",
      "type": "function"
    },
    {
      "inputs": [
        {
          "internalType": "bytes32",
          "name": "country",
          "type": "bytes32"
        },
        {
          "internalType": "bytes32[]",
          "name": "artists",
          "type": "bytes32[]"
        }
      ],
      "name": "updateTop10",
      "outputs": [],
      "stateMutability": "nonpayable",
      "type": "function"
    },
    {
      "inputs": [
        {
          "internalType": "bytes32",
          "name": "",
          "type": "bytes32"
        }
      ],
      "name": "validCountries",
      "outputs": [
        {
          "internalType": "bool",
          "name": "",
          "type": "bool"
        }
      ],
      "stateMutability": "view",
      "type": "function"
    },
    {
      "inputs": [
        {
          "internalType": "uint256",
          "name": "amount",
          "type": "uint256"
        }
      ],
      "name": "withdrawETH",
      "outputs": [],
      "stateMutability": "nonpayable",
      "type": "function"
    },
    {
      "stateMutability": "payable",
      "type": "receive"
    }
  ],
  "bytecode": "0x6080604052620151806007553480156200001857600080fd5b506040516200297b3803806200297b83398181016040528101906200003e91906200021c565b80600073ffffffffffffffffffffffffffffffffffffffff168173ffffffffffffffffffffffffffffffffffffffff1603620000b45760006040517f1e4fbdf7000000000000000000000000000000000000000000000000000000008152600401620000ab91906200025f565b60405180910390fd5b620000c581620000ee60201b60201c565b5060008060146101000a81548160ff02191690831515021790555060018081905550506200027c565b60008060009054906101000a900473ffffffffffffffffffffffffffffffffffffffff169050816000806101000a81548173ffffffffffffffffffffffffffffffffffffffff021916908373ffffffffffffffffffffffffffffffffffffffff1602179055508173ffffffffffffffffffffffffffffffffffffffff168173ffffffffffffffffffffffffffffffffffffffff167f8be0079c531659141344cd1fd0a4f28419497f9722a3daafe3b4186f6b6457e060405160405180910390a35050565b600080fd5b600073ffffffffffffffffffffffffffffffffffffffff82169050919050565b6000620001e482620001b7565b9050919050565b620001f681620001d7565b81146200020257600080fd5b50565b6000815190506200021681620001eb565b92915050565b600060208284031215620002355762000234620001b2565b5b6000620002458482850162000205565b91505092915050565b6200025981620001d7565b82525050565b60006020820190506200027660008301846200024e565b92915050565b6126ef806200028c6000396000f3fe6080604052600436106101bb5760003560e01c8063776eba8e116100ec578063b49d65eb1161008a578063da3f857811610064578063da3f8578146105ef578063e88499a91461062c578063f14210a614610643578063f2fde38b1461066c576101c2565b8063b49d65eb14610558578063b78a3fff1461059b578063d32ecee3146105c4576101c2565b80637f6b0da8116100c65780637f6b0da8146104e35780638129fc1c146104ff5780638456cb59146105165780638da5cb5b1461052d576101c2565b8063776eba8e1461043e578063784712f21461047b5780637e95b523146104b8576101c2565b80635b68b7aa1161015957806366566a371161013357806366566a3714610396578063675f6537146103d3578063715018a6146103fc5780637479215314610413576101c2565b80635b68b7aa146103175780635c9302c9146103405780635c975abb1461036b576101c2565b80632af7e2ea116101955780632af7e2ea1461025b5780632e1413df146102865780633f4ba83a146102c3578063455fc8a1146102da576101c2565b806305917872146101c757806309f2c019146101f05780631498955414610232576101c2565b366101c257005b600080fd5b3480156101d357600080fd5b506101ee60048036038101906101e99190611e4b565b610695565b005b3480156101fc57600080fd5b5061021760048036038101906102129190611eae565b6106a7565b60405161022996959493929190611f05565b60405180910390f35b34801561023e57600080fd5b5061025960048036038101906102549190611fcb565b61071b565b005b34801561026757600080fd5b5061027061084d565b60405161027d919061202b565b60405180910390f35b34801561029257600080fd5b506102ad60048036038101906102a89190612046565b610853565b6040516102ba919061202b565b60405180910390f35b3480156102cf57600080fd5b506102d8610878565b005b3480156102e657600080fd5b5061030160048036038101906102fc91906120e4565b61088a565b60405161030e9190612124565b60405180910390f35b34801561032357600080fd5b5061033e60048036038101906103399190612046565b610907565b005b34801561034c57600080fd5b506103556109f7565b604051610362919061202b565b60405180910390f35b34801561037757600080fd5b506103806109fd565b60405161038d9190612124565b60405180910390f35b3480156103a257600080fd5b506103bd60048036038101906103b89190611eae565b610a13565b6040516103ca9190612124565b60405180910390f35b3480156103df57600080fd5b506103fa60048036038101906103f59190611eae565b610a33565b005b34801561040857600080fd5b50610411610cf8565b005b34801561041f57600080fd5b50610428610d0c565b604051610435919061202b565b60405180910390f35b34801561044a57600080fd5b5061046560048036038101906104609190612046565b610d11565b604051610472919061202b565b60405180910390f35b34801561048757600080fd5b506104a2600480360381019061049d919061213f565b610d7d565b6040516104af919061202b565b60405180910390f35b3480156104c457600080fd5b506104cd610d95565b6040516104da919061202b565b60405180910390f35b6104fd60048036038101906104f89190612046565b610da1565b005b34801561050b57600080fd5b50610514611127565b005b34801561052257600080fd5b5061052b611448565b005b34801561053957600080fd5b5061054261145a565b60405161054f919061217b565b60405180910390f35b34801561056457600080fd5b5061057f600480360381019061057a9190612196565b611483565b60405161059297969594939291906121e5565b60405180910390f35b3480156105a757600080fd5b506105c260048036038101906105bd9190611e4b565b6114df565b005b3480156105d057600080fd5b506105d961172d565b6040516105e6919061202b565b60405180910390f35b3480156105fb57600080fd5b5061061660048036038101906106119190612196565b611733565b6040516106239190612254565b60405180910390f35b34801561063857600080fd5b50610641611764565b005b34801561064f57600080fd5b5061066a60048036038101906106659190611e4b565b611935565b005b34801561067857600080fd5b50610693600480360381019061068e919061213f565b611a37565b005b61069d611abd565b8060078190555050565b6000806000806000806000600360008981526020019081526020016000206000600854815260200190815260200160002090508060000154816001015482600201548360070160009054906101000a900460ff16846004015485600501549650965096509650965096505091939550919395565b610723611abd565b600a828290501461076e57818190506040517f2dcd48eb000000000000000000000000000000000000000000000000000000008152600401610765919061202b565b60405180910390fd5b60046000848152602001908152602001600020600061078d9190611dcd565b60005b600a81101561084757600460008581526020019081526020016000208383838181106107bf576107be61226f565b5b9050602002013590806001815401808255809150506001900390600052602060002001600090919091909150556001816107f991906122cd565b6005600086815260200190815260200160002060008585858181106108215761082061226f565b5b905060200201358152602001908152602001600020819055508080600101915050610790565b50505050565b60075481565b6005602052816000526040600020602052806000526040600020600091509150505481565b610880611abd565b610888611b44565b565b6000806003600085815260200190815260200160002060006008548152602001908152602001600020905060008160030160008573ffffffffffffffffffffffffffffffffffffffff1673ffffffffffffffffffffffffffffffffffffffff16815260200190815260200160002060020154141591505092915050565b61090f611abd565b6000600360008481526020019081526020016000206000600854815260200190815260200160002090508060070160009054906101000a900460ff1615610982576040517f8771584c00000000000000000000000000000000000000000000000000000000815260040160405180910390fd5b81816006018190555060018160070160006101000a81548160ff021916908315150217905550428160020181905550600854837f58c7772496e0076e2b3d46e33e9975200496c28ef764e1c54ee55429cecea0658484600201546040516109ea929190612301565b60405180910390a3505050565b60085481565b60008060149054906101000a900460ff16905090565b60026020528060005260406000206000915054906101000a900460ff1681565b610a3b611ba6565b6000600360008381526020019081526020016000206000600854815260200190815260200160002090508060070160009054906101000a900460ff16610aad576040517ff78030f500000000000000000000000000000000000000000000000000000000815260040160405180910390fd5b60008160030160003373ffffffffffffffffffffffffffffffffffffffff1673ffffffffffffffffffffffffffffffffffffffff16815260200190815260200160002090506000816002015403610b30576040517f028e52a100000000000000000000000000000000000000000000000000000000815260040160405180910390fd5b600082600601548260010154149050600081610b4d576000610b6e565b606483600301548460020154610b63919061232a565b610b6d919061239b565b5b90506000606460328560020154610b85919061232a565b610b8f919061239b565b8460020154610b9e91906122cd565b9050808211610bad5781610baf565b805b91508460030160003373ffffffffffffffffffffffffffffffffffffffff1673ffffffffffffffffffffffffffffffffffffffff168152602001908152602001600020600080820160006101000a81549073ffffffffffffffffffffffffffffffffffffffff021916905560018201600090556002820160009055600382016000905550506000821115610c945781600660003373ffffffffffffffffffffffffffffffffffffffff1673ffffffffffffffffffffffffffffffffffffffff1681526020019081526020016000206000828254610c8c91906122cd565b925050819055505b600854863373ffffffffffffffffffffffffffffffffffffffff167f3b8fe5da6ddddb7951721ac65697f3b319db8bf4413601435c2576983580f5598587604051610ce09291906123cc565b60405180910390a45050505050610cf5611bec565b50565b610d00611abd565b610d0a6000611bf5565b565b603281565b60008060056000858152602001908152602001600020600084815260200190815260200160002054905060008103610d4e5761015e915050610d77565b6014600182610d5d91906123f5565b610d67919061232a565b6078610d7391906122cd565b9150505b92915050565b60066020528060005260406000206000915090505481565b670de0b6b3a764000081565b610da9611cb9565b610db1611ba6565b6002600083815260200190815260200160002060009054906101000a900460ff16610e1357816040517f190ed2af000000000000000000000000000000000000000000000000000000008152600401610e0a9190612254565b60405180910390fd5b6000600360008481526020019081526020016000206000600854815260200190815260200160002090508060000154421080610e53575080600201544210155b80610e6c57508060070160009054906101000a900460ff165b15610ec057428160000154826001015483600201546040517feff9e4e4000000000000000000000000000000000000000000000000000000008152600401610eb79493929190612429565b60405180910390fd5b60008160030160003373ffffffffffffffffffffffffffffffffffffffff1673ffffffffffffffffffffffffffffffffffffffff1681526020019081526020016000206002015414610f4957336040517f660f02e8000000000000000000000000000000000000000000000000000000008152600401610f40919061217b565b60405180910390fd5b670de0b6b3a7640000341115610fa05734670de0b6b3a76400006040517f36165f66000000000000000000000000000000000000000000000000000000008152600401610f9792919061246e565b60405180910390fd5b6000610fac8484610d11565b905060405180608001604052803373ffffffffffffffffffffffffffffffffffffffff168152602001848152602001348152602001828152508260030160003373ffffffffffffffffffffffffffffffffffffffff1673ffffffffffffffffffffffffffffffffffffffff16815260200190815260200160002060008201518160000160006101000a81548173ffffffffffffffffffffffffffffffffffffffff021916908373ffffffffffffffffffffffffffffffffffffffff1602179055506020820151816001015560408201518160020155606082015181600301559050508160040160008154809291906110a390612497565b9190505550348260050160008282546110bc91906122cd565b92505081905550600854843373ffffffffffffffffffffffffffffffffffffffff167f558994eb4efaf94bd607117c30a36b6623a6f3fcff263a773f37d634733fd2c9863486604051611111939291906124df565b60405180910390a45050611123611bec565b5050565b6000611131611cfa565b905060008160000160089054906101000a900460ff1615905060008260000160009054906101000a900467ffffffffffffffff1690506000808267ffffffffffffffff1614801561117f5750825b9050600060018367ffffffffffffffff161480156111b4575060003073ffffffffffffffffffffffffffffffffffffffff163b145b9050811580156111c2575080155b156111f9576040517ff92ee8a900000000000000000000000000000000000000000000000000000000815260040160405180910390fd5b60018560000160006101000a81548167ffffffffffffffff021916908367ffffffffffffffff16021790555083156112495760018560000160086101000a81548160ff0219169083151502179055505b60006040518061010001604052807f575700000000000000000000000000000000000000000000000000000000000081526020017f425200000000000000000000000000000000000000000000000000000000000081526020017f444500000000000000000000000000000000000000000000000000000000000081526020017f455300000000000000000000000000000000000000000000000000000000000081526020017f465200000000000000000000000000000000000000000000000000000000000081526020017f495400000000000000000000000000000000000000000000000000000000000081526020017f505400000000000000000000000000000000000000000000000000000000000081526020017f5553000000000000000000000000000000000000000000000000000000000000815250905060005b60088110156113e3576001600260008484600881106113ac576113ab61226f565b5b6020020151815260200190815260200160002060006101000a81548160ff021916908315150217905550808060010191505061138a565b505083156114415760008560000160086101000a81548160ff0219169083151502179055507fc7f505b2f371ae2175ee4913f4499e1f2633a7b5936321eed1cdaeb6115181d26001604051611438919061256f565b60405180910390a15b5050505050565b611450611abd565b611458611d22565b565b60008060009054906101000a900473ffffffffffffffffffffffffffffffffffffffff16905090565b6003602052816000526040600020602052806000526040600020600091509150508060000154908060010154908060020154908060040154908060050154908060060154908060070160009054906101000a900460ff16905087565b6114e7611abd565b62015180426114f6919061239b565b60088190555060006040518061010001604052807f575700000000000000000000000000000000000000000000000000000000000081526020017f425200000000000000000000000000000000000000000000000000000000000081526020017f444500000000000000000000000000000000000000000000000000000000000081526020017f455300000000000000000000000000000000000000000000000000000000000081526020017f465200000000000000000000000000000000000000000000000000000000000081526020017f495400000000000000000000000000000000000000000000000000000000000081526020017f505400000000000000000000000000000000000000000000000000000000000081526020017f5553000000000000000000000000000000000000000000000000000000000000815250905060005b600881101561172857600082826008811061165b5761165a61226f565b5b60200201519050600060036000838152602001908152602001600020600060085481526020019081526020016000209050600081600001540361171957428160000181905550600085116116b1576007546116b3565b845b426116be91906122cd565b816001018190555080600101548160020181905550600854827f6d81dac161f941b26501b4cd6606ed14e343ce5e58ba8f62de9a2071f6be0fd98360000154846001015460405161171092919061246e565b60405180910390a35b5050808060010191505061163d565b505050565b61015e81565b6004602052816000526040600020818154811061174f57600080fd5b90600052602060002001600091509150505481565b61176c611ba6565b6000600660003373ffffffffffffffffffffffffffffffffffffffff1673ffffffffffffffffffffffffffffffffffffffff168152602001908152602001600020549050600081036117ea576040517f3c90366100000000000000000000000000000000000000000000000000000000815260040160405180910390fd5b6000600660003373ffffffffffffffffffffffffffffffffffffffff1673ffffffffffffffffffffffffffffffffffffffff1681526020019081526020016000208190555060003373ffffffffffffffffffffffffffffffffffffffff1682604051611855906125bb565b60006040518083038185875af1925050503d8060008114611892576040519150601f19603f3d011682016040523d82523d6000602084013e611897565b606091505b50509050806118db576040517f08c379a00000000000000000000000000000000000000000000000000000000081526004016118d29061262d565b60405180910390fd5b3373ffffffffffffffffffffffffffffffffffffffff167fec68461f5d4cc45c89e914cb8826a966c73dd35e5f97815ece0a01ffa4a025a683604051611921919061202b565b60405180910390a25050611933611bec565b565b61193d611abd565b80471015611980576040517f08c379a000000000000000000000000000000000000000000000000000000000815260040161197790612699565b60405180910390fd5b600061198a61145a565b73ffffffffffffffffffffffffffffffffffffffff16826040516119ad906125bb565b60006040518083038185875af1925050503d80600081146119ea576040519150601f19603f3d011682016040523d82523d6000602084013e6119ef565b606091505b5050905080611a33576040517f08c379a0000000000000000000000000000000000000000000000000000000008152600401611a2a9061262d565b60405180910390fd5b5050565b611a3f611abd565b600073ffffffffffffffffffffffffffffffffffffffff168173ffffffffffffffffffffffffffffffffffffffff1603611ab15760006040517f1e4fbdf7000000000000000000000000000000000000000000000000000000008152600401611aa8919061217b565b60405180910390fd5b611aba81611bf5565b50565b611ac5611d85565b73ffffffffffffffffffffffffffffffffffffffff16611ae361145a565b73ffffffffffffffffffffffffffffffffffffffff1614611b4257611b06611d85565b6040517f118cdaa7000000000000000000000000000000000000000000000000000000008152600401611b39919061217b565b60405180910390fd5b565b611b4c611d8d565b60008060146101000a81548160ff0219169083151502179055507f5db9ee0a495bf2e6ff9c91a7834c1ba4fdd244a5e8aa4e537bd38aeae4b073aa611b8f611d85565b604051611b9c919061217b565b60405180910390a1565b600260015403611be2576040517f3ee5aeb500000000000000000000000000000000000000000000000000000000815260040160405180910390fd5b6002600181905550565b60018081905550565b60008060009054906101000a900473ffffffffffffffffffffffffffffffffffffffff169050816000806101000a81548173ffffffffffffffffffffffffffffffffffffffff021916908373ffffffffffffffffffffffffffffffffffffffff1602179055508173ffffffffffffffffffffffffffffffffffffffff168173ffffffffffffffffffffffffffffffffffffffff167f8be0079c531659141344cd1fd0a4f28419497f9722a3daafe3b4186f6b6457e060405160405180910390a35050565b611cc16109fd565b15611cf8576040517fd93c066500000000000000000000000000000000000000000000000000000000815260040160405180910390fd5b565b60007ff0c57e16840df040f15088dc2f81fe391c3923bec73e23a9662efc9c229c6a00905090565b611d2a611cb9565b6001600060146101000a81548160ff0219169083151502179055507f62e78cea01bee320cd4e420270b5ea74000d11b0c9f74754ebdbfc544b05a258611d6e611d85565b604051611d7b919061217b565b60405180910390a1565b600033905090565b611d956109fd565b611dcb576040517f8dfc202b00000000000000000000000000000000000000000000000000000000815260040160405180910390fd5b565b5080546000825590600052602060002090810190611deb9190611dee565b50565b5b80821115611e07576000816000905550600101611def565b5090565b600080fd5b600080fd5b6000819050919050565b611e2881611e15565b8114611e3357600080fd5b50565b600081359050611e4581611e1f565b92915050565b600060208284031215611e6157611e60611e0b565b5b6000611e6f84828501611e36565b91505092915050565b6000819050919050565b611e8b81611e78565b8114611e9657600080fd5b50565b600081359050611ea881611e82565b92915050565b600060208284031215611ec457611ec3611e0b565b5b6000611ed284828501611e99565b91505092915050565b611ee481611e15565b82525050565b60008115159050919050565b611eff81611eea565b82525050565b600060c082019050611f1a6000830189611edb565b611f276020830188611edb565b611f346040830187611edb565b611f416060830186611ef6565b611f4e6080830185611edb565b611f5b60a0830184611edb565b979650505050505050565b600080fd5b600080fd5b600080fd5b60008083601f840112611f8b57611f8a611f66565b5b8235905067ffffffffffffffff811115611fa857611fa7611f6b565b5b602083019150836020820283011115611fc457611fc3611f70565b5b9250929050565b600080600060408486031215611fe457611fe3611e0b565b5b6000611ff286828701611e99565b935050602084013567ffffffffffffffff81111561201357612012611e10565b5b61201f86828701611f75565b92509250509250925092565b60006020820190506120406000830184611edb565b92915050565b6000806040838503121561205d5761205c611e0b565b5b600061206b85828601611e99565b925050602061207c85828601611e99565b9150509250929050565b600073ffffffffffffffffffffffffffffffffffffffff82169050919050565b60006120b182612086565b9050919050565b6120c1816120a6565b81146120cc57600080fd5b50565b6000813590506120de816120b8565b92915050565b600080604083850312156120fb576120fa611e0b565b5b600061210985828601611e99565b925050602061211a858286016120cf565b9150509250929050565b60006020820190506121396000830184611ef6565b92915050565b60006020828403121561215557612154611e0b565b5b6000612163848285016120cf565b91505092915050565b612175816120a6565b82525050565b6000602082019050612190600083018461216c565b92915050565b600080604083850312156121ad576121ac611e0b565b5b60006121bb85828601611e99565b92505060206121cc85828601611e36565b9150509250929050565b6121df81611e78565b82525050565b600060e0820190506121fa600083018a611edb565b6122076020830189611edb565b6122146040830188611edb565b6122216060830187611edb565b61222e6080830186611edb565b61223b60a08301856121d6565b61224860c0830184611ef6565b98975050505050505050565b600060208201905061226960008301846121d6565b92915050565b7f4e487b7100000000000000000000000000000000000000000000000000000000600052603260045260246000fd5b7f4e487b7100000000000000000000000000000000000000000000000000000000600052601160045260246000fd5b60006122d882611e15565b91506122e383611e15565b92508282019050808211156122fb576122fa61229e565b5b92915050565b600060408201905061231660008301856121d6565b6123236020830184611edb565b9392505050565b600061233582611e15565b915061234083611e15565b925082820261234e81611e15565b915082820484148315176123655761236461229e565b5b5092915050565b7f4e487b7100000000000000000000000000000000000000000000000000000000600052601260045260246000fd5b60006123a682611e15565b91506123b183611e15565b9250826123c1576123c061236c565b5b828204905092915050565b60006040820190506123e16000830185611edb565b6123ee6020830184611ef6565b9392505050565b600061240082611e15565b915061240b83611e15565b92508282039050818111156124235761242261229e565b5b92915050565b600060808201905061243e6000830187611edb565b61244b6020830186611edb565b6124586040830185611edb565b6124656060830184611edb565b95945050505050565b60006040820190506124836000830185611edb565b6124906020830184611edb565b9392505050565b60006124a282611e15565b91507fffffffffffffffffffffffffffffffffffffffffffffffffffffffffffffffff82036124d4576124d361229e565b5b600182019050919050565b60006060820190506124f460008301866121d6565b6125016020830185611edb565b61250e6040830184611edb565b949350505050565b6000819050919050565b600067ffffffffffffffff82169050919050565b6000819050919050565b600061255961255461254f84612516565b612534565b612520565b9050919050565b6125698161253e565b82525050565b60006020820190506125846000830184612560565b92915050565b600081905092915050565b50565b60006125a560008361258a565b91506125b082612595565b600082019050919050565b60006125c682612598565b9150819050919050565b600082825260208201905092915050565b7f4661696c656420746f2073656e64204554480000000000000000000000000000600082015250565b60006126176012836125d0565b9150612622826125e1565b602082019050919050565b600060208201905081810360008301526126468161260a565b9050919050565b7f4e6f7420656e6f7567682045544820696e20636f6e7472616374000000000000600082015250565b6000612683601a836125d0565b915061268e8261264d565b602082019050919050565b600060208201905081810360008301526126b281612676565b905091905056fea2646970667358221220f829b0108b27520530d5773c20cf0bfe0601f8f24c22f76c56209d2ceabf4dc564736f6c63430008180033",
  "linkReferences": {},
  "deployedLinkReferences": {}
}