{
  "_format": "hh-sol-artifact-1",
  "contractName": "ChartsBet",
  "sourceName": "contracts/ChartsBet.sol",
  "abi": [
    {
      "inputs": [
        {
          "internalType": "address",
          "name": "initialOwner",
          "type": "address"
        },
        {
          "internalType": "address",
          "name": "_chartsBetToken",
          "type": "address"
        }
      ],
      "stateMutability": "nonpayable",
      "type": "constructor"
    },
    {
      "inputs": [],
      "name": "BetAlreadyPlaced",
      "type": "error"
    },
    {
      "inputs": [],
      "name": "BetTooHigh",
      "type": "error"
    },
    {
      "inputs": [],
      "name": "EnforcedPause",
      "type": "error"
    },
    {
      "inputs": [],
      "name": "ExpectedPause",
      "type": "error"
    },
    {
      "inputs": [],
      "name": "InsufficientContractBalance",
      "type": "error"
    },
    {
      "inputs": [],
      "name": "InvalidArtistCount",
      "type": "error"
    },
    {
      "inputs": [],
      "name": "InvalidCountry",
      "type": "error"
    },
    {
      "inputs": [],
      "name": "InvalidInitialization",
      "type": "error"
    },
    {
      "inputs": [],
      "name": "NoBetPlaced",
      "type": "error"
    },
    {
      "inputs": [],
      "name": "NoPayoutToClaim",
      "type": "error"
    },
    {
      "inputs": [],
      "name": "NotInitializing",
      "type": "error"
    },
    {
      "inputs": [
        {
          "internalType": "address",
          "name": "owner",
          "type": "address"
        }
      ],
      "name": "OwnableInvalidOwner",
      "type": "error"
    },
    {
      "inputs": [
        {
          "internalType": "address",
          "name": "account",
          "type": "address"
        }
      ],
      "name": "OwnableUnauthorizedAccount",
      "type": "error"
    },
    {
      "inputs": [],
      "name": "PoolAlreadyClosed",
      "type": "error"
    },
    {
      "inputs": [],
      "name": "PoolNotClosed",
      "type": "error"
    },
    {
      "inputs": [],
      "name": "PoolNotOpen",
      "type": "error"
    },
    {
      "inputs": [],
      "name": "PoolNotReadyToClose",
      "type": "error"
    },
    {
      "inputs": [],
      "name": "ReentrancyGuardReentrantCall",
      "type": "error"
    },
    {
      "inputs": [],
      "name": "TokenTransferFailed",
      "type": "error"
    },
    {
      "anonymous": false,
      "inputs": [
        {
          "indexed": true,
          "internalType": "address",
          "name": "bettor",
          "type": "address"
        },
        {
          "indexed": true,
          "internalType": "bytes32",
          "name": "country",
          "type": "bytes32"
        },
        {
          "indexed": true,
          "internalType": "uint256",
          "name": "day",
          "type": "uint256"
        },
        {
          "indexed": false,
          "internalType": "bytes32",
          "name": "artist",
          "type": "bytes32"
        },
        {
          "indexed": false,
          "internalType": "uint256",
          "name": "amount",
          "type": "uint256"
        },
        {
          "indexed": false,
          "internalType": "uint256",
          "name": "odds",
          "type": "uint256"
        }
      ],
      "name": "BetPlaced",
      "type": "event"
    },
    {
      "anonymous": false,
      "inputs": [
        {
          "indexed": true,
          "internalType": "address",
          "name": "bettor",
          "type": "address"
        },
        {
          "indexed": true,
          "internalType": "bytes32",
          "name": "country",
          "type": "bytes32"
        },
        {
          "indexed": true,
          "internalType": "uint256",
          "name": "day",
          "type": "uint256"
        },
        {
          "indexed": false,
          "internalType": "uint256",
          "name": "amount",
          "type": "uint256"
        },
        {
          "indexed": false,
          "internalType": "bool",
          "name": "won",
          "type": "bool"
        }
      ],
      "name": "BetSettled",
      "type": "event"
    },
    {
      "anonymous": false,
      "inputs": [
        {
          "indexed": false,
          "internalType": "uint64",
          "name": "version",
          "type": "uint64"
        }
      ],
      "name": "Initialized",
      "type": "event"
    },
    {
      "anonymous": false,
      "inputs": [
        {
          "indexed": true,
          "internalType": "address",
          "name": "previousOwner",
          "type": "address"
        },
        {
          "indexed": true,
          "internalType": "address",
          "name": "newOwner",
          "type": "address"
        }
      ],
      "name": "OwnershipTransferred",
      "type": "event"
    },
    {
      "anonymous": false,
      "inputs": [
        {
          "indexed": false,
          "internalType": "address",
          "name": "account",
          "type": "address"
        }
      ],
      "name": "Paused",
      "type": "event"
    },
    {
      "anonymous": false,
      "inputs": [
        {
          "indexed": true,
          "internalType": "address",
          "name": "bettor",
          "type": "address"
        },
        {
          "indexed": false,
          "internalType": "uint256",
          "name": "amount",
          "type": "uint256"
        }
      ],
      "name": "PayoutClaimed",
      "type": "event"
    },
    {
      "anonymous": false,
      "inputs": [
        {
          "indexed": true,
          "internalType": "bytes32",
          "name": "country",
          "type": "bytes32"
        },
        {
          "indexed": true,
          "internalType": "uint256",
          "name": "day",
          "type": "uint256"
        },
        {
          "indexed": false,
          "internalType": "bytes32",
          "name": "winningArtist",
          "type": "bytes32"
        }
      ],
      "name": "PoolClosed",
      "type": "event"
    },
    {
      "anonymous": false,
      "inputs": [
        {
          "indexed": true,
          "internalType": "bytes32",
          "name": "country",
          "type": "bytes32"
        },
        {
          "indexed": true,
          "internalType": "uint256",
          "name": "day",
          "type": "uint256"
        },
        {
          "indexed": false,
          "internalType": "uint256",
          "name": "openingTime",
          "type": "uint256"
        },
        {
          "indexed": false,
          "internalType": "uint256",
          "name": "closingTime",
          "type": "uint256"
        }
      ],
      "name": "PoolOpened",
      "type": "event"
    },
    {
      "anonymous": false,
      "inputs": [
        {
          "indexed": false,
          "internalType": "address",
          "name": "account",
          "type": "address"
        }
      ],
      "name": "Unpaused",
      "type": "event"
    },
    {
      "inputs": [],
      "name": "BET_DURATION",
      "outputs": [
        {
          "internalType": "uint256",
          "name": "",
          "type": "uint256"
        }
      ],
      "stateMutability": "view",
      "type": "function"
    },
    {
      "inputs": [],
      "name": "MAX_BET",
      "outputs": [
        {
          "internalType": "uint256",
          "name": "",
          "type": "uint256"
        }
      ],
      "stateMutability": "view",
      "type": "function"
    },
    {
      "inputs": [],
      "name": "OUTSIDER_ODDS",
      "outputs": [
        {
          "internalType": "uint256",
          "name": "",
          "type": "uint256"
        }
      ],
      "stateMutability": "view",
      "type": "function"
    },
    {
      "inputs": [],
      "name": "RESERVE_PERCENTAGE",
      "outputs": [
        {
          "internalType": "uint256",
          "name": "",
          "type": "uint256"
        }
      ],
      "stateMutability": "view",
      "type": "function"
    },
    {
      "inputs": [
        {
          "internalType": "bytes32",
          "name": "",
          "type": "bytes32"
        },
        {
          "internalType": "bytes32",
          "name": "",
          "type": "bytes32"
        }
      ],
      "name": "artistRanks",
      "outputs": [
        {
          "internalType": "uint256",
          "name": "",
          "type": "uint256"
        }
      ],
      "stateMutability": "view",
      "type": "function"
    },
    {
      "inputs": [],
      "name": "chartsBetToken",
      "outputs": [
        {
          "internalType": "contract IERC20",
          "name": "",
          "type": "address"
        }
      ],
      "stateMutability": "view",
      "type": "function"
    },
    {
      "inputs": [],
      "name": "claimPayout",
      "outputs": [],
      "stateMutability": "nonpayable",
      "type": "function"
    },
    {
      "inputs": [
        {
          "internalType": "bytes32",
          "name": "country",
          "type": "bytes32"
        },
        {
          "internalType": "bytes32",
          "name": "winningArtist",
          "type": "bytes32"
        }
      ],
      "name": "closePoolAndAnnounceWinner",
      "outputs": [],
      "stateMutability": "nonpayable",
      "type": "function"
    },
    {
      "inputs": [],
      "name": "currentDay",
      "outputs": [
        {
          "internalType": "uint256",
          "name": "",
          "type": "uint256"
        }
      ],
      "stateMutability": "view",
      "type": "function"
    },
    {
      "inputs": [
        {
          "internalType": "bytes32",
          "name": "",
          "type": "bytes32"
        },
        {
          "internalType": "uint256",
          "name": "",
          "type": "uint256"
        }
      ],
      "name": "dailyPools",
      "outputs": [
        {
          "internalType": "uint256",
          "name": "openingTime",
          "type": "uint256"
        },
        {
          "internalType": "uint256",
          "name": "closingTime",
          "type": "uint256"
        },
        {
          "internalType": "uint256",
          "name": "totalBets",
          "type": "uint256"
        },
        {
          "internalType": "uint256",
          "name": "totalAmount",
          "type": "uint256"
        },
        {
          "internalType": "bytes32",
          "name": "winningArtist",
          "type": "bytes32"
        },
        {
          "internalType": "bool",
          "name": "closed",
          "type": "bool"
        }
      ],
      "stateMutability": "view",
      "type": "function"
    },
    {
      "inputs": [
        {
          "internalType": "bytes32",
          "name": "country",
          "type": "bytes32"
        },
        {
          "internalType": "bytes32",
          "name": "artist",
          "type": "bytes32"
        }
      ],
      "name": "getOdds",
      "outputs": [
        {
          "internalType": "uint256",
          "name": "",
          "type": "uint256"
        }
      ],
      "stateMutability": "view",
      "type": "function"
    },
    {
      "inputs": [],
      "name": "initialize",
      "outputs": [],
      "stateMutability": "nonpayable",
      "type": "function"
    },
    {
      "inputs": [],
      "name": "openAllDailyPools",
      "outputs": [],
      "stateMutability": "nonpayable",
      "type": "function"
    },
    {
      "inputs": [],
      "name": "owner",
      "outputs": [
        {
          "internalType": "address",
          "name": "",
          "type": "address"
        }
      ],
      "stateMutability": "view",
      "type": "function"
    },
    {
      "inputs": [],
      "name": "pause",
      "outputs": [],
      "stateMutability": "nonpayable",
      "type": "function"
    },
    {
      "inputs": [],
      "name": "paused",
      "outputs": [
        {
          "internalType": "bool",
          "name": "",
          "type": "bool"
        }
      ],
      "stateMutability": "view",
      "type": "function"
    },
    {
      "inputs": [
        {
          "internalType": "address",
          "name": "",
          "type": "address"
        }
      ],
      "name": "pendingPayouts",
      "outputs": [
        {
          "internalType": "uint256",
          "name": "",
          "type": "uint256"
        }
      ],
      "stateMutability": "view",
      "type": "function"
    },
    {
      "inputs": [
        {
          "internalType": "bytes32",
          "name": "country",
          "type": "bytes32"
        },
        {
          "internalType": "bytes32",
          "name": "artist",
          "type": "bytes32"
        },
        {
          "internalType": "uint256",
          "name": "amount",
          "type": "uint256"
        }
      ],
      "name": "placeBet",
      "outputs": [],
      "stateMutability": "nonpayable",
      "type": "function"
    },
    {
      "inputs": [],
      "name": "renounceOwnership",
      "outputs": [],
      "stateMutability": "nonpayable",
      "type": "function"
    },
    {
      "inputs": [
        {
          "internalType": "bytes32",
          "name": "country",
          "type": "bytes32"
        }
      ],
      "name": "settleBet",
      "outputs": [],
      "stateMutability": "nonpayable",
      "type": "function"
    },
    {
      "inputs": [
        {
          "internalType": "bytes32",
          "name": "",
          "type": "bytes32"
        },
        {
          "internalType": "uint256",
          "name": "",
          "type": "uint256"
        }
      ],
      "name": "top10Artists",
      "outputs": [
        {
          "internalType": "bytes32",
          "name": "",
          "type": "bytes32"
        }
      ],
      "stateMutability": "view",
      "type": "function"
    },
    {
      "inputs": [
        {
          "internalType": "address",
          "name": "newOwner",
          "type": "address"
        }
      ],
      "name": "transferOwnership",
      "outputs": [],
      "stateMutability": "nonpayable",
      "type": "function"
    },
    {
      "inputs": [],
      "name": "unpause",
      "outputs": [],
      "stateMutability": "nonpayable",
      "type": "function"
    },
    {
      "inputs": [
        {
          "internalType": "bytes32",
          "name": "country",
          "type": "bytes32"
        },
        {
          "internalType": "bytes32[]",
          "name": "artists",
          "type": "bytes32[]"
        }
      ],
      "name": "updateTop10",
      "outputs": [],
      "stateMutability": "nonpayable",
      "type": "function"
    },
    {
      "inputs": [
        {
          "internalType": "bytes32",
          "name": "",
          "type": "bytes32"
        }
      ],
      "name": "validCountries",
      "outputs": [
        {
          "internalType": "bool",
          "name": "",
          "type": "bool"
        }
      ],
      "stateMutability": "view",
      "type": "function"
    },
    {
      "inputs": [
        {
          "internalType": "uint256",
          "name": "amount",
          "type": "uint256"
        }
      ],
      "name": "withdrawTokens",
      "outputs": [],
      "stateMutability": "nonpayable",
      "type": "function"
    }
  ],
  "bytecode": "0x60806040523480156200001157600080fd5b506040516200269d3803806200269d833981810160405281019062000037919062000257565b81600073ffffffffffffffffffffffffffffffffffffffff168173ffffffffffffffffffffffffffffffffffffffff1603620000ad5760006040517f1e4fbdf7000000000000000000000000000000000000000000000000000000008152600401620000a49190620002af565b60405180910390fd5b620000be816200012960201b60201c565b5060008060146101000a81548160ff0219169083151502179055506001808190555080600260006101000a81548173ffffffffffffffffffffffffffffffffffffffff021916908373ffffffffffffffffffffffffffffffffffffffff1602179055505050620002cc565b60008060009054906101000a900473ffffffffffffffffffffffffffffffffffffffff169050816000806101000a81548173ffffffffffffffffffffffffffffffffffffffff021916908373ffffffffffffffffffffffffffffffffffffffff1602179055508173ffffffffffffffffffffffffffffffffffffffff168173ffffffffffffffffffffffffffffffffffffffff167f8be0079c531659141344cd1fd0a4f28419497f9722a3daafe3b4186f6b6457e060405160405180910390a35050565b600080fd5b600073ffffffffffffffffffffffffffffffffffffffff82169050919050565b60006200021f82620001f2565b9050919050565b620002318162000212565b81146200023d57600080fd5b50565b600081519050620002518162000226565b92915050565b60008060408385031215620002715762000270620001ed565b5b6000620002818582860162000240565b9250506020620002948582860162000240565b9150509250929050565b620002a98162000212565b82525050565b6000602082019050620002c660008301846200029e565b92915050565b6123c180620002dc6000396000f3fe608060405234801561001057600080fd5b506004361061018e5760003560e01c8063776eba8e116100de578063a32c90c911610097578063da3f857811610071578063da3f857814610418578063e53d4c2d14610448578063e88499a914610466578063f2fde38b146104705761018e565b8063a32c90c9146103a7578063b49d65eb146103c5578063d32ecee3146103fa5761018e565b8063776eba8e146102f7578063784712f2146103275780637e95b523146103575780638129fc1c146103755780638456cb591461037f5780638da5cb5b146103895761018e565b80635b68b7aa1161014b57806366566a371161012557806366566a3714610283578063675f6537146102b3578063715018a6146102cf57806374792153146102d95761018e565b80635b68b7aa1461022b5780635c9302c9146102475780635c975abb146102655761018e565b806314989554146101935780631a9db790146101af5780632e1413df146101b9578063315a095d146101e95780633f4ba83a146102055780634ae701fe1461020f575b600080fd5b6101ad60048036038101906101a89190611c52565b61048c565b005b6101b76105b0565b005b6101d360048036038101906101ce9190611cb2565b6107e2565b6040516101e09190611d0b565b60405180910390f35b61020360048036038101906101fe9190611d52565b610807565b005b61020d6108ef565b005b61022960048036038101906102249190611d7f565b610901565b005b61024560048036038101906102409190611cb2565b610d00565b005b61024f610e1e565b60405161025c9190611d0b565b60405180910390f35b61026d610e24565b60405161027a9190611ded565b60405180910390f35b61029d60048036038101906102989190611e08565b610e3a565b6040516102aa9190611ded565b60405180910390f35b6102cd60048036038101906102c89190611e08565b610e5a565b005b6102d761111f565b005b6102e1611133565b6040516102ee9190611d0b565b60405180910390f35b610311600480360381019061030c9190611cb2565b611138565b60405161031e9190611d0b565b60405180910390f35b610341600480360381019061033c9190611e93565b6111a4565b60405161034e9190611d0b565b60405180910390f35b61035f6111bc565b60405161036c9190611d0b565b60405180910390f35b61037d6111c9565b005b6103876114ea565b005b6103916114fc565b60405161039e9190611ecf565b60405180910390f35b6103af611525565b6040516103bc9190611f49565b60405180910390f35b6103df60048036038101906103da9190611f64565b61154b565b6040516103f196959493929190611fb3565b60405180910390f35b6104026115a1565b60405161040f9190611d0b565b60405180910390f35b610432600480360381019061042d9190611f64565b6115a7565b60405161043f9190612014565b60405180910390f35b6104506115d8565b60405161045d9190611d0b565b60405180910390f35b61046e6115df565b005b61048a60048036038101906104859190611e93565b6117d9565b005b61049461185f565b600a82829050146104d1576040517ffe0f495d00000000000000000000000000000000000000000000000000000000815260040160405180910390fd5b6005600084815260200190815260200160002060006104f09190611b6f565b60005b600a8110156105aa57600560008581526020019081526020016000208383838181106105225761052161202f565b5b90506020020135908060018154018082558091505060019003906000526020600020016000909190919091505560018161055c919061208d565b6006600086815260200190815260200160002060008585858181106105845761058361202f565b5b9050602002013581526020019081526020016000208190555080806001019150506104f3565b50505050565b6105b861185f565b62015180426105c791906120f0565b60088190555060006040518061010001604052807f575700000000000000000000000000000000000000000000000000000000000081526020017f425200000000000000000000000000000000000000000000000000000000000081526020017f444500000000000000000000000000000000000000000000000000000000000081526020017f455300000000000000000000000000000000000000000000000000000000000081526020017f465200000000000000000000000000000000000000000000000000000000000081526020017f495400000000000000000000000000000000000000000000000000000000000081526020017f505400000000000000000000000000000000000000000000000000000000000081526020017f5553000000000000000000000000000000000000000000000000000000000000815250905060005b60088110156107de57600082826008811061072c5761072b61202f565b5b6020020151905060006004600083815260200190815260200160002060006008548152602001908152602001600020905060008160000154036107cf574281600001819055506201518042610781919061208d565b8160010181905550600854827f6d81dac161f941b26501b4cd6606ed14e343ce5e58ba8f62de9a2071f6be0fd9836000015484600101546040516107c6929190612121565b60405180910390a35b5050808060010191505061070e565b5050565b6006602052816000526040600020602052806000526040600020600091509150505481565b61080f61185f565b600260009054906101000a900473ffffffffffffffffffffffffffffffffffffffff1673ffffffffffffffffffffffffffffffffffffffff1663a9059cbb6108556114fc565b836040518363ffffffff1660e01b815260040161087392919061214a565b6020604051808303816000875af1158015610892573d6000803e3d6000fd5b505050506040513d601f19601f820116820180604052508101906108b6919061219f565b6108ec576040517f045c4b0200000000000000000000000000000000000000000000000000000000815260040160405180910390fd5b50565b6108f761185f565b6108ff6118e6565b565b610909611948565b610911611989565b6003600084815260200190815260200160002060009054906101000a900460ff16610968576040517fe522f8e600000000000000000000000000000000000000000000000000000000815260040160405180910390fd5b60006004600085815260200190815260200160002060006008548152602001908152602001600020905080600001544210806109a8575080600101544210155b156109df576040517f1435613400000000000000000000000000000000000000000000000000000000815260040160405180910390fd5b60008160020160003373ffffffffffffffffffffffffffffffffffffffff1673ffffffffffffffffffffffffffffffffffffffff1681526020019081526020016000206002015414610a5d576040517f62b79b2c00000000000000000000000000000000000000000000000000000000815260040160405180910390fd5b683635c9adc5dea00000821115610aa0576040517f2eca640200000000000000000000000000000000000000000000000000000000815260040160405180910390fd5b600260009054906101000a900473ffffffffffffffffffffffffffffffffffffffff1673ffffffffffffffffffffffffffffffffffffffff166323b872dd3330856040518463ffffffff1660e01b8152600401610aff939291906121cc565b6020604051808303816000875af1158015610b1e573d6000803e3d6000fd5b505050506040513d601f19601f82011682018060405250810190610b42919061219f565b610b78576040517f045c4b0200000000000000000000000000000000000000000000000000000000815260040160405180910390fd5b6000610b848585611138565b905060405180608001604052803373ffffffffffffffffffffffffffffffffffffffff168152602001858152602001848152602001828152508260020160003373ffffffffffffffffffffffffffffffffffffffff1673ffffffffffffffffffffffffffffffffffffffff16815260200190815260200160002060008201518160000160006101000a81548173ffffffffffffffffffffffffffffffffffffffff021916908373ffffffffffffffffffffffffffffffffffffffff160217905550602082015181600101556040820151816002015560608201518160030155905050816003016000815480929190610c7b90612203565b919050555082826004016000828254610c94919061208d565b92505081905550600854853373ffffffffffffffffffffffffffffffffffffffff167f558994eb4efaf94bd607117c30a36b6623a6f3fcff263a773f37d634733fd2c9878786604051610ce99392919061224b565b60405180910390a45050610cfb6119cf565b505050565b610d0861185f565b6000600460008481526020019081526020016000206000600854815260200190815260200160002090508060010154421015610d6f576040517e2216fc00000000000000000000000000000000000000000000000000000000815260040160405180910390fd5b8060060160009054906101000a900460ff1615610db8576040517f8771584c00000000000000000000000000000000000000000000000000000000815260040160405180910390fd5b81816005018190555060018160060160006101000a81548160ff021916908315150217905550600854837f4a1c15136cda23d049da8fcc55a115cc1ca2dafc28f8d2ca647a3b4c6b42e05b84604051610e119190612014565b60405180910390a3505050565b60085481565b60008060149054906101000a900460ff16905090565b60036020528060005260406000206000915054906101000a900460ff1681565b610e62611989565b6000600460008381526020019081526020016000206000600854815260200190815260200160002090508060060160009054906101000a900460ff16610ed4576040517ff78030f500000000000000000000000000000000000000000000000000000000815260040160405180910390fd5b60008160020160003373ffffffffffffffffffffffffffffffffffffffff1673ffffffffffffffffffffffffffffffffffffffff16815260200190815260200160002090506000816002015403610f57576040517f028e52a100000000000000000000000000000000000000000000000000000000815260040160405180910390fd5b600082600501548260010154149050600081610f74576000610f95565b606483600301548460020154610f8a9190612282565b610f9491906120f0565b5b90506000606460328560020154610fac9190612282565b610fb691906120f0565b8460020154610fc5919061208d565b9050808211610fd45781610fd6565b805b91508460020160003373ffffffffffffffffffffffffffffffffffffffff1673ffffffffffffffffffffffffffffffffffffffff168152602001908152602001600020600080820160006101000a81549073ffffffffffffffffffffffffffffffffffffffff0219169055600182016000905560028201600090556003820160009055505060008211156110bb5781600760003373ffffffffffffffffffffffffffffffffffffffff1673ffffffffffffffffffffffffffffffffffffffff16815260200190815260200160002060008282546110b3919061208d565b925050819055505b600854863373ffffffffffffffffffffffffffffffffffffffff167f3b8fe5da6ddddb7951721ac65697f3b319db8bf4413601435c2576983580f55985876040516111079291906122c4565b60405180910390a4505050505061111c6119cf565b50565b61112761185f565b61113160006119d8565b565b603281565b600080600660008581526020019081526020016000206000848152602001908152602001600020549050600081036111755761015e91505061119e565b601460018261118491906122ed565b61118e9190612282565b607861119a919061208d565b9150505b92915050565b60076020528060005260406000206000915090505481565b683635c9adc5dea0000081565b60006111d3611a9c565b905060008160000160089054906101000a900460ff1615905060008260000160009054906101000a900467ffffffffffffffff1690506000808267ffffffffffffffff161480156112215750825b9050600060018367ffffffffffffffff16148015611256575060003073ffffffffffffffffffffffffffffffffffffffff163b145b905081158015611264575080155b1561129b576040517ff92ee8a900000000000000000000000000000000000000000000000000000000815260040160405180910390fd5b60018560000160006101000a81548167ffffffffffffffff021916908367ffffffffffffffff16021790555083156112eb5760018560000160086101000a81548160ff0219169083151502179055505b60006040518061010001604052807f575700000000000000000000000000000000000000000000000000000000000081526020017f425200000000000000000000000000000000000000000000000000000000000081526020017f444500000000000000000000000000000000000000000000000000000000000081526020017f455300000000000000000000000000000000000000000000000000000000000081526020017f465200000000000000000000000000000000000000000000000000000000000081526020017f495400000000000000000000000000000000000000000000000000000000000081526020017f505400000000000000000000000000000000000000000000000000000000000081526020017f5553000000000000000000000000000000000000000000000000000000000000815250905060005b60088110156114855760016003600084846008811061144e5761144d61202f565b5b6020020151815260200190815260200160002060006101000a81548160ff021916908315150217905550808060010191505061142c565b505083156114e35760008560000160086101000a81548160ff0219169083151502179055507fc7f505b2f371ae2175ee4913f4499e1f2633a7b5936321eed1cdaeb6115181d260016040516114da9190612370565b60405180910390a15b5050505050565b6114f261185f565b6114fa611ac4565b565b60008060009054906101000a900473ffffffffffffffffffffffffffffffffffffffff16905090565b600260009054906101000a900473ffffffffffffffffffffffffffffffffffffffff1681565b6004602052816000526040600020602052806000526040600020600091509150508060000154908060010154908060030154908060040154908060050154908060060160009054906101000a900460ff16905086565b61015e81565b600560205281600052604060002081815481106115c357600080fd5b90600052602060002001600091509150505481565b6201518081565b6115e7611989565b6000600760003373ffffffffffffffffffffffffffffffffffffffff1673ffffffffffffffffffffffffffffffffffffffff16815260200190815260200160002054905060008103611665576040517f3c90366100000000000000000000000000000000000000000000000000000000815260040160405180910390fd5b6000600760003373ffffffffffffffffffffffffffffffffffffffff1673ffffffffffffffffffffffffffffffffffffffff16815260200190815260200160002081905550600260009054906101000a900473ffffffffffffffffffffffffffffffffffffffff1673ffffffffffffffffffffffffffffffffffffffff1663a9059cbb33836040518363ffffffff1660e01b815260040161170792919061214a565b6020604051808303816000875af1158015611726573d6000803e3d6000fd5b505050506040513d601f19601f8201168201806040525081019061174a919061219f565b611780576040517f045c4b0200000000000000000000000000000000000000000000000000000000815260040160405180910390fd5b3373ffffffffffffffffffffffffffffffffffffffff167fec68461f5d4cc45c89e914cb8826a966c73dd35e5f97815ece0a01ffa4a025a6826040516117c69190611d0b565b60405180910390a2506117d76119cf565b565b6117e161185f565b600073ffffffffffffffffffffffffffffffffffffffff168173ffffffffffffffffffffffffffffffffffffffff16036118535760006040517f1e4fbdf700000000000000000000000000000000000000000000000000000000815260040161184a9190611ecf565b60405180910390fd5b61185c816119d8565b50565b611867611b27565b73ffffffffffffffffffffffffffffffffffffffff166118856114fc565b73ffffffffffffffffffffffffffffffffffffffff16146118e4576118a8611b27565b6040517f118cdaa70000000000000000000000000000000000000000000000000000000081526004016118db9190611ecf565b60405180910390fd5b565b6118ee611b2f565b60008060146101000a81548160ff0219169083151502179055507f5db9ee0a495bf2e6ff9c91a7834c1ba4fdd244a5e8aa4e537bd38aeae4b073aa611931611b27565b60405161193e9190611ecf565b60405180910390a1565b611950610e24565b15611987576040517fd93c066500000000000000000000000000000000000000000000000000000000815260040160405180910390fd5b565b6002600154036119c5576040517f3ee5aeb500000000000000000000000000000000000000000000000000000000815260040160405180910390fd5b6002600181905550565b60018081905550565b60008060009054906101000a900473ffffffffffffffffffffffffffffffffffffffff169050816000806101000a81548173ffffffffffffffffffffffffffffffffffffffff021916908373ffffffffffffffffffffffffffffffffffffffff1602179055508173ffffffffffffffffffffffffffffffffffffffff168173ffffffffffffffffffffffffffffffffffffffff167f8be0079c531659141344cd1fd0a4f28419497f9722a3daafe3b4186f6b6457e060405160405180910390a35050565b60007ff0c57e16840df040f15088dc2f81fe391c3923bec73e23a9662efc9c229c6a00905090565b611acc611948565b6001600060146101000a81548160ff0219169083151502179055507f62e78cea01bee320cd4e420270b5ea74000d11b0c9f74754ebdbfc544b05a258611b10611b27565b604051611b1d9190611ecf565b60405180910390a1565b600033905090565b611b37610e24565b611b6d576040517f8dfc202b00000000000000000000000000000000000000000000000000000000815260040160405180910390fd5b565b5080546000825590600052602060002090810190611b8d9190611b90565b50565b5b80821115611ba9576000816000905550600101611b91565b5090565b600080fd5b600080fd5b6000819050919050565b611bca81611bb7565b8114611bd557600080fd5b50565b600081359050611be781611bc1565b92915050565b600080fd5b600080fd5b600080fd5b60008083601f840112611c1257611c11611bed565b5b8235905067ffffffffffffffff811115611c2f57611c2e611bf2565b5b602083019150836020820283011115611c4b57611c4a611bf7565b5b9250929050565b600080600060408486031215611c6b57611c6a611bad565b5b6000611c7986828701611bd8565b935050602084013567ffffffffffffffff811115611c9a57611c99611bb2565b5b611ca686828701611bfc565b92509250509250925092565b60008060408385031215611cc957611cc8611bad565b5b6000611cd785828601611bd8565b9250506020611ce885828601611bd8565b9150509250929050565b6000819050919050565b611d0581611cf2565b82525050565b6000602082019050611d206000830184611cfc565b92915050565b611d2f81611cf2565b8114611d3a57600080fd5b50565b600081359050611d4c81611d26565b92915050565b600060208284031215611d6857611d67611bad565b5b6000611d7684828501611d3d565b91505092915050565b600080600060608486031215611d9857611d97611bad565b5b6000611da686828701611bd8565b9350506020611db786828701611bd8565b9250506040611dc886828701611d3d565b9150509250925092565b60008115159050919050565b611de781611dd2565b82525050565b6000602082019050611e026000830184611dde565b92915050565b600060208284031215611e1e57611e1d611bad565b5b6000611e2c84828501611bd8565b91505092915050565b600073ffffffffffffffffffffffffffffffffffffffff82169050919050565b6000611e6082611e35565b9050919050565b611e7081611e55565b8114611e7b57600080fd5b50565b600081359050611e8d81611e67565b92915050565b600060208284031215611ea957611ea8611bad565b5b6000611eb784828501611e7e565b91505092915050565b611ec981611e55565b82525050565b6000602082019050611ee46000830184611ec0565b92915050565b6000819050919050565b6000611f0f611f0a611f0584611e35565b611eea565b611e35565b9050919050565b6000611f2182611ef4565b9050919050565b6000611f3382611f16565b9050919050565b611f4381611f28565b82525050565b6000602082019050611f5e6000830184611f3a565b92915050565b60008060408385031215611f7b57611f7a611bad565b5b6000611f8985828601611bd8565b9250506020611f9a85828601611d3d565b9150509250929050565b611fad81611bb7565b82525050565b600060c082019050611fc86000830189611cfc565b611fd56020830188611cfc565b611fe26040830187611cfc565b611fef6060830186611cfc565b611ffc6080830185611fa4565b61200960a0830184611dde565b979650505050505050565b60006020820190506120296000830184611fa4565b92915050565b7f4e487b7100000000000000000000000000000000000000000000000000000000600052603260045260246000fd5b7f4e487b7100000000000000000000000000000000000000000000000000000000600052601160045260246000fd5b600061209882611cf2565b91506120a383611cf2565b92508282019050808211156120bb576120ba61205e565b5b92915050565b7f4e487b7100000000000000000000000000000000000000000000000000000000600052601260045260246000fd5b60006120fb82611cf2565b915061210683611cf2565b925082612116576121156120c1565b5b828204905092915050565b60006040820190506121366000830185611cfc565b6121436020830184611cfc565b9392505050565b600060408201905061215f6000830185611ec0565b61216c6020830184611cfc565b9392505050565b61217c81611dd2565b811461218757600080fd5b50565b60008151905061219981612173565b92915050565b6000602082840312156121b5576121b4611bad565b5b60006121c38482850161218a565b91505092915050565b60006060820190506121e16000830186611ec0565b6121ee6020830185611ec0565b6121fb6040830184611cfc565b949350505050565b600061220e82611cf2565b91507fffffffffffffffffffffffffffffffffffffffffffffffffffffffffffffffff82036122405761223f61205e565b5b600182019050919050565b60006060820190506122606000830186611fa4565b61226d6020830185611cfc565b61227a6040830184611cfc565b949350505050565b600061228d82611cf2565b915061229883611cf2565b92508282026122a681611cf2565b915082820484148315176122bd576122bc61205e565b5b5092915050565b60006040820190506122d96000830185611cfc565b6122e66020830184611dde565b9392505050565b60006122f882611cf2565b915061230383611cf2565b925082820390508181111561231b5761231a61205e565b5b92915050565b6000819050919050565b600067ffffffffffffffff82169050919050565b600061235a61235561235084612321565b611eea565b61232b565b9050919050565b61236a8161233f565b82525050565b60006020820190506123856000830184612361565b9291505056fea26469706673582212208eae2d8c722536d5736786decc65306e335b9af2046ffe600eb748b5e935653b64736f6c63430008180033",
  "linkReferences": {},
  "deployedLinkReferences": {}
}