{
  "_format": "hh-sol-artifact-1",
  "contractName": "ChartsBet",
  "sourceName": "contracts/ChartsBet.sol",
  "abi": [
    {
      "inputs": [],
      "name": "ArtistNotInLeaderboard",
      "type": "error"
    },
    {
      "inputs": [],
      "name": "BettingClosed",
      "type": "error"
    },
    {
      "inputs": [],
      "name": "EnforcedPause",
      "type": "error"
    },
    {
      "inputs": [],
      "name": "ExpectedPause",
      "type": "error"
    },
    {
      "inputs": [],
      "name": "InvalidCountryCode",
      "type": "error"
    },
    {
      "inputs": [],
      "name": "InvalidInitialization",
      "type": "error"
    },
    {
      "inputs": [],
      "name": "InvalidOracleAddress",
      "type": "error"
    },
    {
      "inputs": [],
      "name": "LeaderboardAlreadyClosed",
      "type": "error"
    },
    {
      "inputs": [],
      "name": "LeaderboardNotFound",
      "type": "error"
    },
    {
      "inputs": [],
      "name": "LeaderboardStillActive",
      "type": "error"
    },
    {
      "inputs": [],
      "name": "NoFundsToWithdraw",
      "type": "error"
    },
    {
      "inputs": [],
      "name": "NotInitializing",
      "type": "error"
    },
    {
      "inputs": [],
      "name": "OnlyOracleAllowed",
      "type": "error"
    },
    {
      "inputs": [
        {
          "internalType": "address",
          "name": "owner",
          "type": "address"
        }
      ],
      "name": "OwnableInvalidOwner",
      "type": "error"
    },
    {
      "inputs": [
        {
          "internalType": "address",
          "name": "account",
          "type": "address"
        }
      ],
      "name": "OwnableUnauthorizedAccount",
      "type": "error"
    },
    {
      "inputs": [],
      "name": "ReentrancyGuardReentrantCall",
      "type": "error"
    },
    {
      "inputs": [],
      "name": "WithdrawalDelayNotMet",
      "type": "error"
    },
    {
      "anonymous": false,
      "inputs": [
        {
          "indexed": true,
          "internalType": "bytes32",
          "name": "country",
          "type": "bytes32"
        },
        {
          "indexed": false,
          "internalType": "bytes32",
          "name": "artist",
          "type": "bytes32"
        },
        {
          "indexed": false,
          "internalType": "uint256",
          "name": "odds",
          "type": "uint256"
        }
      ],
      "name": "ArtistOddsSet",
      "type": "event"
    },
    {
      "anonymous": false,
      "inputs": [
        {
          "indexed": true,
          "internalType": "address",
          "name": "user",
          "type": "address"
        },
        {
          "indexed": true,
          "internalType": "bytes32",
          "name": "country",
          "type": "bytes32"
        },
        {
          "indexed": false,
          "internalType": "bytes32",
          "name": "artist",
          "type": "bytes32"
        },
        {
          "indexed": false,
          "internalType": "uint256",
          "name": "amount",
          "type": "uint256"
        }
      ],
      "name": "BetPlaced",
      "type": "event"
    },
    {
      "anonymous": false,
      "inputs": [
        {
          "indexed": true,
          "internalType": "bytes32",
          "name": "country",
          "type": "bytes32"
        },
        {
          "indexed": false,
          "internalType": "bytes32",
          "name": "winningArtist",
          "type": "bytes32"
        }
      ],
      "name": "DailyWinnerFulfilled",
      "type": "event"
    },
    {
      "anonymous": false,
      "inputs": [
        {
          "indexed": false,
          "internalType": "uint64",
          "name": "version",
          "type": "uint64"
        }
      ],
      "name": "Initialized",
      "type": "event"
    },
    {
      "anonymous": false,
      "inputs": [
        {
          "indexed": true,
          "internalType": "bytes32",
          "name": "country",
          "type": "bytes32"
        }
      ],
      "name": "LeaderboardClosed",
      "type": "event"
    },
    {
      "anonymous": false,
      "inputs": [
        {
          "indexed": true,
          "internalType": "bytes32",
          "name": "country",
          "type": "bytes32"
        }
      ],
      "name": "LeaderboardCreated",
      "type": "event"
    },
    {
      "anonymous": false,
      "inputs": [
        {
          "indexed": false,
          "internalType": "address",
          "name": "newOracle",
          "type": "address"
        }
      ],
      "name": "OracleUpdated",
      "type": "event"
    },
    {
      "anonymous": false,
      "inputs": [
        {
          "indexed": true,
          "internalType": "address",
          "name": "previousOwner",
          "type": "address"
        },
        {
          "indexed": true,
          "internalType": "address",
          "name": "newOwner",
          "type": "address"
        }
      ],
      "name": "OwnershipTransferred",
      "type": "event"
    },
    {
      "anonymous": false,
      "inputs": [
        {
          "indexed": false,
          "internalType": "address",
          "name": "account",
          "type": "address"
        }
      ],
      "name": "Paused",
      "type": "event"
    },
    {
      "anonymous": false,
      "inputs": [
        {
          "indexed": true,
          "internalType": "bytes32",
          "name": "country",
          "type": "bytes32"
        }
      ],
      "name": "TopArtistsFulfilled",
      "type": "event"
    },
    {
      "anonymous": false,
      "inputs": [
        {
          "indexed": false,
          "internalType": "address",
          "name": "account",
          "type": "address"
        }
      ],
      "name": "Unpaused",
      "type": "event"
    },
    {
      "anonymous": false,
      "inputs": [
        {
          "indexed": false,
          "internalType": "uint256",
          "name": "amount",
          "type": "uint256"
        }
      ],
      "name": "WithdrawalExecuted",
      "type": "event"
    },
    {
      "anonymous": false,
      "inputs": [
        {
          "indexed": false,
          "internalType": "uint256",
          "name": "requestTime",
          "type": "uint256"
        }
      ],
      "name": "WithdrawalRequested",
      "type": "event"
    },
    {
      "inputs": [],
      "name": "LEADERBOARD_DURATION",
      "outputs": [
        {
          "internalType": "uint256",
          "name": "",
          "type": "uint256"
        }
      ],
      "stateMutability": "view",
      "type": "function"
    },
    {
      "inputs": [],
      "name": "WITHDRAWAL_DELAY",
      "outputs": [
        {
          "internalType": "uint256",
          "name": "",
          "type": "uint256"
        }
      ],
      "stateMutability": "view",
      "type": "function"
    },
    {
      "inputs": [
        {
          "internalType": "bytes32",
          "name": "country",
          "type": "bytes32"
        }
      ],
      "name": "closeLeaderboard",
      "outputs": [],
      "stateMutability": "nonpayable",
      "type": "function"
    },
    {
      "inputs": [
        {
          "internalType": "uint256",
          "name": "",
          "type": "uint256"
        }
      ],
      "name": "countryList",
      "outputs": [
        {
          "internalType": "bytes32",
          "name": "",
          "type": "bytes32"
        }
      ],
      "stateMutability": "view",
      "type": "function"
    },
    {
      "inputs": [
        {
          "internalType": "bytes32",
          "name": "country",
          "type": "bytes32"
        }
      ],
      "name": "createLeaderboard",
      "outputs": [],
      "stateMutability": "nonpayable",
      "type": "function"
    },
    {
      "inputs": [],
      "name": "executeWithdrawal",
      "outputs": [],
      "stateMutability": "nonpayable",
      "type": "function"
    },
    {
      "inputs": [
        {
          "internalType": "bytes32",
          "name": "country",
          "type": "bytes32"
        },
        {
          "internalType": "bytes32",
          "name": "winningArtist",
          "type": "bytes32"
        }
      ],
      "name": "fulfillDailyWinner",
      "outputs": [],
      "stateMutability": "nonpayable",
      "type": "function"
    },
    {
      "inputs": [
        {
          "internalType": "bytes32",
          "name": "country",
          "type": "bytes32"
        },
        {
          "internalType": "bytes32[]",
          "name": "topArtists",
          "type": "bytes32[]"
        }
      ],
      "name": "fulfillTopArtists",
      "outputs": [],
      "stateMutability": "nonpayable",
      "type": "function"
    },
    {
      "inputs": [
        {
          "internalType": "bytes32",
          "name": "country",
          "type": "bytes32"
        },
        {
          "internalType": "bytes32",
          "name": "artist",
          "type": "bytes32"
        }
      ],
      "name": "getArtistOdds",
      "outputs": [
        {
          "internalType": "uint256",
          "name": "",
          "type": "uint256"
        }
      ],
      "stateMutability": "view",
      "type": "function"
    },
    {
      "inputs": [
        {
          "internalType": "bytes32",
          "name": "country",
          "type": "bytes32"
        }
      ],
      "name": "getBetsInCountry",
      "outputs": [
        {
          "components": [
            {
              "internalType": "address",
              "name": "user",
              "type": "address"
            },
            {
              "internalType": "uint256",
              "name": "amount",
              "type": "uint256"
            },
            {
              "internalType": "bytes32",
              "name": "artist",
              "type": "bytes32"
            },
            {
              "internalType": "uint256",
              "name": "odds",
              "type": "uint256"
            }
          ],
          "internalType": "struct ChartsBet.Bet[]",
          "name": "",
          "type": "tuple[]"
        }
      ],
      "stateMutability": "view",
      "type": "function"
    },
    {
      "inputs": [
        {
          "internalType": "bytes32",
          "name": "country",
          "type": "bytes32"
        }
      ],
      "name": "getTotalBetAmount",
      "outputs": [
        {
          "internalType": "uint256",
          "name": "",
          "type": "uint256"
        }
      ],
      "stateMutability": "view",
      "type": "function"
    },
    {
      "inputs": [
        {
          "internalType": "bytes32",
          "name": "country",
          "type": "bytes32"
        },
        {
          "internalType": "bytes32",
          "name": "artist",
          "type": "bytes32"
        }
      ],
      "name": "getTotalBetsOnArtist",
      "outputs": [
        {
          "internalType": "uint256",
          "name": "",
          "type": "uint256"
        }
      ],
      "stateMutability": "view",
      "type": "function"
    },
    {
      "inputs": [
        {
          "internalType": "address",
          "name": "_owner",
          "type": "address"
        },
        {
          "internalType": "address",
          "name": "_oracle",
          "type": "address"
        }
      ],
      "name": "initialize",
      "outputs": [],
      "stateMutability": "nonpayable",
      "type": "function"
    },
    {
      "inputs": [
        {
          "internalType": "bytes32",
          "name": "country",
          "type": "bytes32"
        }
      ],
      "name": "isLeaderboardExpired",
      "outputs": [
        {
          "internalType": "bool",
          "name": "",
          "type": "bool"
        }
      ],
      "stateMutability": "view",
      "type": "function"
    },
    {
      "inputs": [
        {
          "internalType": "bytes32",
          "name": "",
          "type": "bytes32"
        }
      ],
      "name": "leaderboards",
      "outputs": [
        {
          "internalType": "bytes32",
          "name": "country",
          "type": "bytes32"
        },
        {
          "internalType": "bytes32",
          "name": "winningArtist",
          "type": "bytes32"
        },
        {
          "internalType": "bool",
          "name": "isClosed",
          "type": "bool"
        },
        {
          "internalType": "uint256",
          "name": "totalBetAmount",
          "type": "uint256"
        },
        {
          "internalType": "uint256",
          "name": "startTime",
          "type": "uint256"
        }
      ],
      "stateMutability": "view",
      "type": "function"
    },
    {
      "inputs": [],
      "name": "oracle",
      "outputs": [
        {
          "internalType": "contract ChartsOracle",
          "name": "",
          "type": "address"
        }
      ],
      "stateMutability": "view",
      "type": "function"
    },
    {
      "inputs": [],
      "name": "owner",
      "outputs": [
        {
          "internalType": "address",
          "name": "",
          "type": "address"
        }
      ],
      "stateMutability": "view",
      "type": "function"
    },
    {
      "inputs": [],
      "name": "paused",
      "outputs": [
        {
          "internalType": "bool",
          "name": "",
          "type": "bool"
        }
      ],
      "stateMutability": "view",
      "type": "function"
    },
    {
      "inputs": [
        {
          "internalType": "bytes32",
          "name": "country",
          "type": "bytes32"
        },
        {
          "internalType": "bytes32",
          "name": "artist",
          "type": "bytes32"
        }
      ],
      "name": "placeBet",
      "outputs": [],
      "stateMutability": "payable",
      "type": "function"
    },
    {
      "inputs": [],
      "name": "renounceOwnership",
      "outputs": [],
      "stateMutability": "nonpayable",
      "type": "function"
    },
    {
      "inputs": [],
      "name": "requestWithdrawal",
      "outputs": [],
      "stateMutability": "nonpayable",
      "type": "function"
    },
    {
      "inputs": [],
      "name": "testOracleConnection",
      "outputs": [],
      "stateMutability": "nonpayable",
      "type": "function"
    },
    {
      "inputs": [],
      "name": "toggleContractActive",
      "outputs": [],
      "stateMutability": "nonpayable",
      "type": "function"
    },
    {
      "inputs": [
        {
          "internalType": "address",
          "name": "newOwner",
          "type": "address"
        }
      ],
      "name": "transferOwnership",
      "outputs": [],
      "stateMutability": "nonpayable",
      "type": "function"
    },
    {
      "inputs": [
        {
          "internalType": "address",
          "name": "newOracle",
          "type": "address"
        }
      ],
      "name": "updateOracle",
      "outputs": [],
      "stateMutability": "nonpayable",
      "type": "function"
    },
    {
      "inputs": [
        {
          "internalType": "bytes32",
          "name": "",
          "type": "bytes32"
        }
      ],
      "name": "validCountries",
      "outputs": [
        {
          "internalType": "bool",
          "name": "",
          "type": "bool"
        }
      ],
      "stateMutability": "view",
      "type": "function"
    },
    {
      "inputs": [],
      "name": "withdrawalRequestTime",
      "outputs": [
        {
          "internalType": "uint256",
          "name": "",
          "type": "uint256"
        }
      ],
      "stateMutability": "view",
      "type": "function"
    }
  ],
  "bytecode": "0x6080604052348015600f57600080fd5b50612af18061001f6000396000f3fe60806040526004361061019c5760003560e01c806378353ba6116100ec57806399da7aac1161008a578063eb4c552811610064578063eb4c552814610595578063f2fde38b146105d2578063f59bdf85146105fb578063fa45aa00146106265761019c565b806399da7aac1461052a578063c2d1aebe14610553578063dbaf21451461057e5761019c565b80637fe93e31116100c65780637fe93e311461045c5780638da5cb5b146104855780638fcd8cee146104b057806397654961146104ed5761019c565b806378353ba6146103ec5780637dc0d1d0146104155780637f6b0da8146104405761019c565b8063485cc9551161015957806366566a371161013357806366566a371461031e578063685142c71461035b578063715018a61461039857806377d0c7d3146103af5761019c565b8063485cc9551461028957806351922353146102b25780635c975abb146102f35761019c565b806306dc39bf146101a15780630ca8726c146101de5780630ebb172a146102075780631385d24c146102325780631cb44dfc146102495780632ce3707e14610272575b600080fd5b3480156101ad57600080fd5b506101c860048036038101906101c39190612254565b61063d565b6040516101d591906123ee565b60405180910390f35b3480156101ea57600080fd5b5061020560048036038101906102009190612410565b61072b565b005b34801561021357600080fd5b5061021c6109de565b604051610229919061245f565b60405180910390f35b34801561023e57600080fd5b506102476109e5565b005b34801561025557600080fd5b50610270600480360381019061026b91906124a6565b610a12565b005b34801561027e57600080fd5b50610287610afb565b005b34801561029557600080fd5b506102b060048036038101906102ab91906124d3565b610b52565b005b3480156102be57600080fd5b506102d960048036038101906102d49190612254565b610ef5565b6040516102ea95949392919061253d565b60405180910390f35b3480156102ff57600080fd5b50610308610f38565b6040516103159190612590565b60405180910390f35b34801561032a57600080fd5b5061034560048036038101906103409190612254565b610f5d565b6040516103529190612590565b60405180910390f35b34801561036757600080fd5b50610382600480360381019061037d91906125d7565b610f7d565b60405161038f9190612604565b60405180910390f35b3480156103a457600080fd5b506103ad610fa1565b005b3480156103bb57600080fd5b506103d660048036038101906103d19190612254565b610fb5565b6040516103e39190612590565b60405180910390f35b3480156103f857600080fd5b50610413600480360381019061040e9190612254565b610fea565b005b34801561042157600080fd5b5061042a6110df565b604051610437919061267e565b60405180910390f35b61045a60048036038101906104559190612410565b611105565b005b34801561046857600080fd5b50610483600480360381019061047e91906127f2565b611389565b005b34801561049157600080fd5b5061049a61154a565b6040516104a7919061285d565b60405180910390f35b3480156104bc57600080fd5b506104d760048036038101906104d29190612410565b611582565b6040516104e4919061245f565b60405180910390f35b3480156104f957600080fd5b50610514600480360381019061050f9190612254565b6115b3565b604051610521919061245f565b60405180910390f35b34801561053657600080fd5b50610551600480360381019061054c9190612254565b6115d2565b005b34801561055f57600080fd5b506105686117c8565b604051610575919061245f565b60405180910390f35b34801561058a57600080fd5b506105936117cf565b005b3480156105a157600080fd5b506105bc60048036038101906105b79190612410565b611819565b6040516105c9919061245f565b60405180910390f35b3480156105de57600080fd5b506105f960048036038101906105f491906124a6565b61184a565b005b34801561060757600080fd5b506106106118d0565b60405161061d919061245f565b60405180910390f35b34801561063257600080fd5b5061063b6118d6565b005b60606000806000848152602001908152602001600020905080600801805480602002602001604051908101604052809291908181526020016000905b8282101561071f57838290600052602060002090600402016040518060800160405290816000820160009054906101000a900473ffffffffffffffffffffffffffffffffffffffff1673ffffffffffffffffffffffffffffffffffffffff1673ffffffffffffffffffffffffffffffffffffffff168152602001600182015481526020016002820154815260200160038201548152505081526020019060010190610679565b50505050915050919050565b6107336119f7565b61073b611a38565b600260009054906101000a900473ffffffffffffffffffffffffffffffffffffffff1673ffffffffffffffffffffffffffffffffffffffff163373ffffffffffffffffffffffffffffffffffffffff16146107c2576040517fd342cbff00000000000000000000000000000000000000000000000000000000815260040160405180910390fd5b600080600084815260200190815260200160002090506000801b816000015403610818576040517f3d3cef6a00000000000000000000000000000000000000000000000000000000815260040160405180910390fd5b8060020160009054906101000a900460ff1615610861576040517f61c54c4a00000000000000000000000000000000000000000000000000000000815260040160405180910390fd5b81816001018190555060018160020160006101000a81548160ff02191690831515021790555060005b816008018054905081101561096b5760008260080182815481106108b1576108b0612878565b5b906000526020600020906004020190508381600201540361095d5760006064826003015483600101546108e491906128d6565b6108ee9190612947565b90508160000160009054906101000a900473ffffffffffffffffffffffffffffffffffffffff1673ffffffffffffffffffffffffffffffffffffffff166108fc829081150290604051600060405180830381858888f1935050505015801561095a573d6000803e3d6000fd5b50505b50808060010191505061088a565b50827f0d1c14929821bae6c0a56db12925a05bb0fa1981e5d0b5d2cc78cc5316aa01f98360405161099c9190612604565b60405180910390a2827f7fa0af01d1013cd4a40114e18d6be90c73e0906187e6bd1f851acc747e36475360405160405180910390a2506109da611a8f565b5050565b6202a30081565b6109ed611aa8565b6109f5610f38565b15610a0757610a02611b2f565b610a10565b610a0f611ba1565b5b565b610a1a611aa8565b600073ffffffffffffffffffffffffffffffffffffffff168173ffffffffffffffffffffffffffffffffffffffff1603610a80576040517f5521068100000000000000000000000000000000000000000000000000000000815260040160405180910390fd5b80600260006101000a81548173ffffffffffffffffffffffffffffffffffffffff021916908373ffffffffffffffffffffffffffffffffffffffff1602179055507f3df77beb5db05fcdd70a30fc8adf3f83f9501b68579455adbd100b818094039481604051610af0919061285d565b60405180910390a150565b610b03611aa8565b7f54455354000000000000000000000000000000000000000000000000000000007f73829305e9f70b89111cf588e6d67f7360300700b6ecaed7130c8021d454b49160405160405180910390a2565b6000610b5c611c13565b905060008160000160089054906101000a900460ff1615905060008260000160009054906101000a900467ffffffffffffffff1690506000808267ffffffffffffffff16148015610baa5750825b9050600060018367ffffffffffffffff16148015610bdf575060003073ffffffffffffffffffffffffffffffffffffffff163b145b905081158015610bed575080155b15610c24576040517ff92ee8a900000000000000000000000000000000000000000000000000000000815260040160405180910390fd5b60018560000160006101000a81548167ffffffffffffffff021916908367ffffffffffffffff1602179055508315610c745760018560000160086101000a81548160ff0219169083151502179055505b610c7d87611c3b565b610c85611c4f565b610c8d611c61565b85600260006101000a81548173ffffffffffffffffffffffffffffffffffffffff021916908373ffffffffffffffffffffffffffffffffffffffff16021790555060006040518061012001604052807f575700000000000000000000000000000000000000000000000000000000000081526020017f425200000000000000000000000000000000000000000000000000000000000081526020017f444500000000000000000000000000000000000000000000000000000000000081526020017f455300000000000000000000000000000000000000000000000000000000000081526020017f465200000000000000000000000000000000000000000000000000000000000081526020017f495400000000000000000000000000000000000000000000000000000000000081526020017f505400000000000000000000000000000000000000000000000000000000000081526020017f555300000000000000000000000000000000000000000000000000000000000081526020017f5445535400000000000000000000000000000000000000000000000000000000815250905060005b6009811015610e8e57600160036000848460098110610e5757610e56612878565b5b6020020151815260200190815260200160002060006101000a81548160ff0219169083151502179055508080600101915050610e35565b50508315610eec5760008560000160086101000a81548160ff0219169083151502179055507fc7f505b2f371ae2175ee4913f4499e1f2633a7b5936321eed1cdaeb6115181d26001604051610ee391906129c7565b60405180910390a15b50505050505050565b60006020528060005260406000206000915090508060000154908060010154908060020160009054906101000a900460ff16908060030154908060040154905085565b600080610f43611c73565b90508060000160009054906101000a900460ff1691505090565b60036020528060005260406000206000915054906101000a900460ff1681565b60018181548110610f8d57600080fd5b906000526020600020016000915090505481565b610fa9611aa8565b610fb36000611c9b565b565b600080600080848152602001908152602001600020905062093a808160040154610fdf91906129e2565b421015915050919050565b610ff2611aa8565b600080600083815260200190815260200160002090506000801b816000015403611048576040517f3d3cef6a00000000000000000000000000000000000000000000000000000000815260040160405180910390fd5b8060020160009054906101000a900460ff1615611091576040517f9aa0b8bd00000000000000000000000000000000000000000000000000000000815260040160405180910390fd5b60018160020160006101000a81548160ff021916908315150217905550817f7fa0af01d1013cd4a40114e18d6be90c73e0906187e6bd1f851acc747e36475360405160405180910390a25050565b600260009054906101000a900473ffffffffffffffffffffffffffffffffffffffff1681565b61110d6119f7565b611115611a38565b600080600084815260200190815260200160002090506000801b81600001540361116b576040517f3d3cef6a00000000000000000000000000000000000000000000000000000000815260040160405180910390fd5b8060020160009054906101000a900460ff168061118d575061118c83610fb5565b5b156111c4576040517f61c54c4a00000000000000000000000000000000000000000000000000000000815260040160405180910390fd5b600081600701600084815260200190815260200160002054905060008103611218576040517f59bdd61600000000000000000000000000000000000000000000000000000000815260040160405180910390fd5b3482600301600082825461122c91906129e2565b9250508190555034826005016000858152602001908152602001600020600082825461125891906129e2565b925050819055508160080160405180608001604052803373ffffffffffffffffffffffffffffffffffffffff16815260200134815260200185815260200183815250908060018154018082558091505060019003906000526020600020906004020160009091909190915060008201518160000160006101000a81548173ffffffffffffffffffffffffffffffffffffffff021916908373ffffffffffffffffffffffffffffffffffffffff1602179055506020820151816001015560408201518160020155606082015181600301555050833373ffffffffffffffffffffffffffffffffffffffff167f5b84398aa8383c056c26357fe69021c31a67fe1c3065d6f6b85deabc1eb9e1d98534604051611373929190612a16565b60405180910390a35050611385611a8f565b5050565b6113916119f7565b600260009054906101000a900473ffffffffffffffffffffffffffffffffffffffff1673ffffffffffffffffffffffffffffffffffffffff163373ffffffffffffffffffffffffffffffffffffffff1614611418576040517fd342cbff00000000000000000000000000000000000000000000000000000000815260040160405180910390fd5b6003600083815260200190815260200160002060009054906101000a900460ff1661146f576040517f139d566400000000000000000000000000000000000000000000000000000000815260040160405180910390fd5b600080600084815260200190815260200160002090506000801b8160000154036114c5576040517f3d3cef6a00000000000000000000000000000000000000000000000000000000815260040160405180910390fd5b8060020160009054906101000a900460ff161561150e576040517f9aa0b8bd00000000000000000000000000000000000000000000000000000000815260040160405180910390fd5b6115188383611d72565b827f577b6860ec2af75814bd1d732a479f5787676f4012afbc91228827a4b7f2e5a460405160405180910390a2505050565b600080611555611f5b565b90508060000160009054906101000a900473ffffffffffffffffffffffffffffffffffffffff1691505090565b6000806000848152602001908152602001600020600701600083815260200190815260200160002054905092915050565b6000806000838152602001908152602001600020600301549050919050565b6115da611aa8565b6115e26119f7565b6003600082815260200190815260200160002060009054906101000a900460ff16611639576040517f139d566400000000000000000000000000000000000000000000000000000000815260040160405180910390fd5b600080600083815260200190815260200160002090506000801b81600001541461171e578060020160009054906101000a900460ff1615801561168d575062093a80816004015461168a91906129e2565b42105b156116c4576040517fdbe95ff500000000000000000000000000000000000000000000000000000000815260040160405180910390fd5b60008083815260200190815260200160002060008082016000905560018201600090556002820160006101000a81549060ff02191690556003820160009055600482016000905560088201600061171b9190612190565b50505b6000806000848152602001908152602001600020905082816000018190555060008160020160006101000a81548160ff021916908315150217905550428160040181905550600081600301819055506001839080600181540180825580915050600190039060005260206000200160009091909190915055827f73829305e9f70b89111cf588e6d67f7360300700b6ecaed7130c8021d454b49160405160405180910390a2505050565b62093a8081565b6117d7611aa8565b426004819055507faf619daa033514f6c299197d29548ccd9276a1b55ef717fb80adf495925dd51060045460405161180f919061245f565b60405180910390a1565b6000806000848152602001908152602001600020600501600083815260200190815260200160002054905092915050565b611852611aa8565b600073ffffffffffffffffffffffffffffffffffffffff168173ffffffffffffffffffffffffffffffffffffffff16036118c45760006040517f1e4fbdf70000000000000000000000000000000000000000000000000000000081526004016118bb919061285d565b60405180910390fd5b6118cd81611c9b565b50565b60045481565b6118de611aa8565b6202a3006004546118ef91906129e2565b421015611928576040517fb95063c200000000000000000000000000000000000000000000000000000000815260040160405180910390fd5b60004703611962576040517f67e3990d00000000000000000000000000000000000000000000000000000000815260040160405180910390fd5b600047905061196f61154a565b73ffffffffffffffffffffffffffffffffffffffff166108fc829081150290604051600060405180830381858888f193505050501580156119b4573d6000803e3d6000fd5b5060006004819055507feaa620b5c98328f5ddb4195c31eadb3e30e7915fcbc9cc1c244441984780c0d2816040516119ec919061245f565b60405180910390a150565b6119ff610f38565b15611a36576040517fd93c066500000000000000000000000000000000000000000000000000000000815260040160405180910390fd5b565b6000611a42611f83565b90506002816000015403611a82576040517f3ee5aeb500000000000000000000000000000000000000000000000000000000815260040160405180910390fd5b6002816000018190555050565b6000611a99611f83565b90506001816000018190555050565b611ab0611fab565b73ffffffffffffffffffffffffffffffffffffffff16611ace61154a565b73ffffffffffffffffffffffffffffffffffffffff1614611b2d57611af1611fab565b6040517f118cdaa7000000000000000000000000000000000000000000000000000000008152600401611b24919061285d565b60405180910390fd5b565b611b37611fb3565b6000611b41611c73565b905060008160000160006101000a81548160ff0219169083151502179055507f5db9ee0a495bf2e6ff9c91a7834c1ba4fdd244a5e8aa4e537bd38aeae4b073aa611b89611fab565b604051611b96919061285d565b60405180910390a150565b611ba96119f7565b6000611bb3611c73565b905060018160000160006101000a81548160ff0219169083151502179055507f62e78cea01bee320cd4e420270b5ea74000d11b0c9f74754ebdbfc544b05a258611bfb611fab565b604051611c08919061285d565b60405180910390a150565b60007ff0c57e16840df040f15088dc2f81fe391c3923bec73e23a9662efc9c229c6a00905090565b611c43611ff3565b611c4c81612033565b50565b611c57611ff3565b611c5f6120b9565b565b611c69611ff3565b611c716120ed565b565b60007fcd5ed15c6e187e77e9aee88184c21f4f2182ab5827cb3b7e07fbedcd63f03300905090565b6000611ca5611f5b565b905060008160000160009054906101000a900473ffffffffffffffffffffffffffffffffffffffff169050828260000160006101000a81548173ffffffffffffffffffffffffffffffffffffffff021916908373ffffffffffffffffffffffffffffffffffffffff1602179055508273ffffffffffffffffffffffffffffffffffffffff168173ffffffffffffffffffffffffffffffffffffffff167f8be0079c531659141344cd1fd0a4f28419497f9722a3daafe3b4186f6b6457e060405160405180910390a3505050565b60008060008481526020019081526020016000209050600081600601905060005b8351811015611e17576000848281518110611db157611db0612878565b5b60200260200101519050600084600601600083815260200190815260200160002081905550600084600701600083815260200190815260200160002081905550600083600083815260200190815260200160002081905550508080600101915050611d93565b5060005b8351811015611e79576000848281518110611e3957611e38612878565b5b602002602001015190508260008281526020019081526020016000206000815480929190611e6690612a3f565b9190505550508080600101915050611e1b565b5060005b8351811015611f54576000848281518110611e9b57611e9a612878565b5b602002602001015190506000600183611eb491906129e2565b905080856006016000848152602001908152602001600020819055506000611eee828660008681526020019081526020016000205461210e565b90508086600701600085815260200190815260200160002081905550877fe702918564d36a4c4da3b202516e441b40204adeb97d8e49c6d2a7b27ee533e88483604051611f3c929190612a16565b60405180910390a25050508080600101915050611e7d565b5050505050565b60007f9016d09d72d40fdae2fd8ceac6b6234c7706214fd39c1cd1e609a0528c199300905090565b60007f9b779b17422d0df92223018b32b4d1fa46e071723d6817e2486d003becc55f00905090565b600033905090565b611fbb610f38565b611ff1576040517f8dfc202b00000000000000000000000000000000000000000000000000000000815260040160405180910390fd5b565b611ffb612170565b612031576040517fd7e6bcf800000000000000000000000000000000000000000000000000000000815260040160405180910390fd5b565b61203b611ff3565b600073ffffffffffffffffffffffffffffffffffffffff168173ffffffffffffffffffffffffffffffffffffffff16036120ad5760006040517f1e4fbdf70000000000000000000000000000000000000000000000000000000081526004016120a4919061285d565b60405180910390fd5b6120b681611c9b565b50565b6120c1611ff3565b60006120cb611c73565b905060008160000160006101000a81548160ff02191690831515021790555050565b6120f5611ff3565b60006120ff611f83565b90506001816000018190555050565b60008060026001848661212191906129e2565b61212b9190612a87565b8561213691906129e2565b6121409190612947565b905060146001826121519190612a87565b61215b91906128d6565b607861216791906129e2565b91505092915050565b600061217a611c13565b60000160089054906101000a900460ff16905090565b50805460008255600402906000526020600020908101906121b191906121b4565b50565b5b8082111561220657600080820160006101000a81549073ffffffffffffffffffffffffffffffffffffffff0219169055600182016000905560028201600090556003820160009055506004016121b5565b5090565b6000604051905090565b600080fd5b600080fd5b6000819050919050565b6122318161221e565b811461223c57600080fd5b50565b60008135905061224e81612228565b92915050565b60006020828403121561226a57612269612214565b5b60006122788482850161223f565b91505092915050565b600081519050919050565b600082825260208201905092915050565b6000819050602082019050919050565b600073ffffffffffffffffffffffffffffffffffffffff82169050919050565b60006122d8826122ad565b9050919050565b6122e8816122cd565b82525050565b6000819050919050565b612301816122ee565b82525050565b6123108161221e565b82525050565b60808201600082015161232c60008501826122df565b50602082015161233f60208501826122f8565b5060408201516123526040850182612307565b50606082015161236560608501826122f8565b50505050565b60006123778383612316565b60808301905092915050565b6000602082019050919050565b600061239b82612281565b6123a5818561228c565b93506123b08361229d565b8060005b838110156123e15781516123c8888261236b565b97506123d383612383565b9250506001810190506123b4565b5085935050505092915050565b600060208201905081810360008301526124088184612390565b905092915050565b6000806040838503121561242757612426612214565b5b60006124358582860161223f565b92505060206124468582860161223f565b9150509250929050565b612459816122ee565b82525050565b60006020820190506124746000830184612450565b92915050565b612483816122cd565b811461248e57600080fd5b50565b6000813590506124a08161247a565b92915050565b6000602082840312156124bc576124bb612214565b5b60006124ca84828501612491565b91505092915050565b600080604083850312156124ea576124e9612214565b5b60006124f885828601612491565b925050602061250985828601612491565b9150509250929050565b61251c8161221e565b82525050565b60008115159050919050565b61253781612522565b82525050565b600060a0820190506125526000830188612513565b61255f6020830187612513565b61256c604083018661252e565b6125796060830185612450565b6125866080830184612450565b9695505050505050565b60006020820190506125a5600083018461252e565b92915050565b6125b4816122ee565b81146125bf57600080fd5b50565b6000813590506125d1816125ab565b92915050565b6000602082840312156125ed576125ec612214565b5b60006125fb848285016125c2565b91505092915050565b60006020820190506126196000830184612513565b92915050565b6000819050919050565b600061264461263f61263a846122ad565b61261f565b6122ad565b9050919050565b600061265682612629565b9050919050565b60006126688261264b565b9050919050565b6126788161265d565b82525050565b6000602082019050612693600083018461266f565b92915050565b600080fd5b6000601f19601f8301169050919050565b7f4e487b7100000000000000000000000000000000000000000000000000000000600052604160045260246000fd5b6126e78261269e565b810181811067ffffffffffffffff82111715612706576127056126af565b5b80604052505050565b600061271961220a565b905061272582826126de565b919050565b600067ffffffffffffffff821115612745576127446126af565b5b602082029050602081019050919050565b600080fd5b600061276e6127698461272a565b61270f565b9050808382526020820190506020840283018581111561279157612790612756565b5b835b818110156127ba57806127a6888261223f565b845260208401935050602081019050612793565b5050509392505050565b600082601f8301126127d9576127d8612699565b5b81356127e984826020860161275b565b91505092915050565b6000806040838503121561280957612808612214565b5b60006128178582860161223f565b925050602083013567ffffffffffffffff81111561283857612837612219565b5b612844858286016127c4565b9150509250929050565b612857816122cd565b82525050565b6000602082019050612872600083018461284e565b92915050565b7f4e487b7100000000000000000000000000000000000000000000000000000000600052603260045260246000fd5b7f4e487b7100000000000000000000000000000000000000000000000000000000600052601160045260246000fd5b60006128e1826122ee565b91506128ec836122ee565b92508282026128fa816122ee565b91508282048414831517612911576129106128a7565b5b5092915050565b7f4e487b7100000000000000000000000000000000000000000000000000000000600052601260045260246000fd5b6000612952826122ee565b915061295d836122ee565b92508261296d5761296c612918565b5b828204905092915050565b6000819050919050565b600067ffffffffffffffff82169050919050565b60006129b16129ac6129a784612978565b61261f565b612982565b9050919050565b6129c181612996565b82525050565b60006020820190506129dc60008301846129b8565b92915050565b60006129ed826122ee565b91506129f8836122ee565b9250828201905080821115612a1057612a0f6128a7565b5b92915050565b6000604082019050612a2b6000830185612513565b612a386020830184612450565b9392505050565b6000612a4a826122ee565b91507fffffffffffffffffffffffffffffffffffffffffffffffffffffffffffffffff8203612a7c57612a7b6128a7565b5b600182019050919050565b6000612a92826122ee565b9150612a9d836122ee565b9250828203905081811115612ab557612ab46128a7565b5b9291505056fea2646970667358221220900f7e31f17f994663f3a7c7fa210aead5999d09a73a70d8a36646c31b66cf8564736f6c634300081a0033",
  "linkReferences": {},
  "deployedLinkReferences": {}
}