{
  "_format": "hh-sol-artifact-1",
  "contractName": "ChartsBet",
  "sourceName": "contracts/ChartsBet.sol",
  "abi": [
    {
      "inputs": [],
      "name": "ArtistNotInLeaderboard",
      "type": "error"
    },
    {
      "inputs": [],
      "name": "BettingClosed",
      "type": "error"
    },
    {
      "inputs": [],
      "name": "EnforcedPause",
      "type": "error"
    },
    {
      "inputs": [],
      "name": "ExpectedPause",
      "type": "error"
    },
    {
      "inputs": [],
      "name": "InvalidCountryCode",
      "type": "error"
    },
    {
      "inputs": [],
      "name": "InvalidInitialization",
      "type": "error"
    },
    {
      "inputs": [],
      "name": "InvalidOracleAddress",
      "type": "error"
    },
    {
      "inputs": [],
      "name": "LeaderboardAlreadyClosed",
      "type": "error"
    },
    {
      "inputs": [],
      "name": "LeaderboardNotFound",
      "type": "error"
    },
    {
      "inputs": [],
      "name": "LeaderboardStillActive",
      "type": "error"
    },
    {
      "inputs": [],
      "name": "NoFundsToWithdraw",
      "type": "error"
    },
    {
      "inputs": [],
      "name": "NotInitializing",
      "type": "error"
    },
    {
      "inputs": [],
      "name": "OnlyOracleAllowed",
      "type": "error"
    },
    {
      "inputs": [
        {
          "internalType": "address",
          "name": "owner",
          "type": "address"
        }
      ],
      "name": "OwnableInvalidOwner",
      "type": "error"
    },
    {
      "inputs": [
        {
          "internalType": "address",
          "name": "account",
          "type": "address"
        }
      ],
      "name": "OwnableUnauthorizedAccount",
      "type": "error"
    },
    {
      "inputs": [],
      "name": "ReentrancyGuardReentrantCall",
      "type": "error"
    },
    {
      "inputs": [],
      "name": "WithdrawalDelayNotMet",
      "type": "error"
    },
    {
      "anonymous": false,
      "inputs": [
        {
          "indexed": true,
          "internalType": "bytes32",
          "name": "country",
          "type": "bytes32"
        },
        {
          "indexed": false,
          "internalType": "string",
          "name": "artist",
          "type": "string"
        },
        {
          "indexed": false,
          "internalType": "uint256",
          "name": "odds",
          "type": "uint256"
        }
      ],
      "name": "ArtistOddsSet",
      "type": "event"
    },
    {
      "anonymous": false,
      "inputs": [
        {
          "indexed": true,
          "internalType": "address",
          "name": "user",
          "type": "address"
        },
        {
          "indexed": true,
          "internalType": "bytes32",
          "name": "country",
          "type": "bytes32"
        },
        {
          "indexed": false,
          "internalType": "string",
          "name": "artist",
          "type": "string"
        },
        {
          "indexed": false,
          "internalType": "uint256",
          "name": "amount",
          "type": "uint256"
        }
      ],
      "name": "BetPlaced",
      "type": "event"
    },
    {
      "anonymous": false,
      "inputs": [
        {
          "indexed": true,
          "internalType": "bytes32",
          "name": "country",
          "type": "bytes32"
        },
        {
          "indexed": false,
          "internalType": "string",
          "name": "winningArtist",
          "type": "string"
        }
      ],
      "name": "DailyWinnerFulfilled",
      "type": "event"
    },
    {
      "anonymous": false,
      "inputs": [
        {
          "indexed": false,
          "internalType": "uint64",
          "name": "version",
          "type": "uint64"
        }
      ],
      "name": "Initialized",
      "type": "event"
    },
    {
      "anonymous": false,
      "inputs": [
        {
          "indexed": true,
          "internalType": "bytes32",
          "name": "country",
          "type": "bytes32"
        }
      ],
      "name": "LeaderboardClosed",
      "type": "event"
    },
    {
      "anonymous": false,
      "inputs": [
        {
          "indexed": true,
          "internalType": "bytes32",
          "name": "country",
          "type": "bytes32"
        }
      ],
      "name": "LeaderboardCreated",
      "type": "event"
    },
    {
      "anonymous": false,
      "inputs": [
        {
          "indexed": false,
          "internalType": "address",
          "name": "newOracle",
          "type": "address"
        }
      ],
      "name": "OracleUpdated",
      "type": "event"
    },
    {
      "anonymous": false,
      "inputs": [
        {
          "indexed": true,
          "internalType": "address",
          "name": "previousOwner",
          "type": "address"
        },
        {
          "indexed": true,
          "internalType": "address",
          "name": "newOwner",
          "type": "address"
        }
      ],
      "name": "OwnershipTransferred",
      "type": "event"
    },
    {
      "anonymous": false,
      "inputs": [
        {
          "indexed": false,
          "internalType": "address",
          "name": "account",
          "type": "address"
        }
      ],
      "name": "Paused",
      "type": "event"
    },
    {
      "anonymous": false,
      "inputs": [
        {
          "indexed": true,
          "internalType": "bytes32",
          "name": "country",
          "type": "bytes32"
        }
      ],
      "name": "TopArtistsFulfilled",
      "type": "event"
    },
    {
      "anonymous": false,
      "inputs": [
        {
          "indexed": false,
          "internalType": "address",
          "name": "account",
          "type": "address"
        }
      ],
      "name": "Unpaused",
      "type": "event"
    },
    {
      "anonymous": false,
      "inputs": [
        {
          "indexed": false,
          "internalType": "uint256",
          "name": "amount",
          "type": "uint256"
        }
      ],
      "name": "WithdrawalExecuted",
      "type": "event"
    },
    {
      "anonymous": false,
      "inputs": [
        {
          "indexed": false,
          "internalType": "uint256",
          "name": "requestTime",
          "type": "uint256"
        }
      ],
      "name": "WithdrawalRequested",
      "type": "event"
    },
    {
      "inputs": [],
      "name": "LEADERBOARD_DURATION",
      "outputs": [
        {
          "internalType": "uint256",
          "name": "",
          "type": "uint256"
        }
      ],
      "stateMutability": "view",
      "type": "function"
    },
    {
      "inputs": [],
      "name": "WITHDRAWAL_DELAY",
      "outputs": [
        {
          "internalType": "uint256",
          "name": "",
          "type": "uint256"
        }
      ],
      "stateMutability": "view",
      "type": "function"
    },
    {
      "inputs": [
        {
          "internalType": "bytes32",
          "name": "country",
          "type": "bytes32"
        }
      ],
      "name": "closeLeaderboard",
      "outputs": [],
      "stateMutability": "nonpayable",
      "type": "function"
    },
    {
      "inputs": [
        {
          "internalType": "uint256",
          "name": "",
          "type": "uint256"
        }
      ],
      "name": "countryList",
      "outputs": [
        {
          "internalType": "bytes32",
          "name": "",
          "type": "bytes32"
        }
      ],
      "stateMutability": "view",
      "type": "function"
    },
    {
      "inputs": [
        {
          "internalType": "bytes32",
          "name": "country",
          "type": "bytes32"
        }
      ],
      "name": "createLeaderboard",
      "outputs": [],
      "stateMutability": "nonpayable",
      "type": "function"
    },
    {
      "inputs": [],
      "name": "executeWithdrawal",
      "outputs": [],
      "stateMutability": "nonpayable",
      "type": "function"
    },
    {
      "inputs": [
        {
          "internalType": "bytes32",
          "name": "country",
          "type": "bytes32"
        },
        {
          "internalType": "string",
          "name": "winningArtist",
          "type": "string"
        }
      ],
      "name": "fulfillDailyWinner",
      "outputs": [],
      "stateMutability": "nonpayable",
      "type": "function"
    },
    {
      "inputs": [
        {
          "internalType": "bytes32",
          "name": "country",
          "type": "bytes32"
        },
        {
          "internalType": "string[]",
          "name": "topArtists",
          "type": "string[]"
        }
      ],
      "name": "fulfillTopArtists",
      "outputs": [],
      "stateMutability": "nonpayable",
      "type": "function"
    },
    {
      "inputs": [
        {
          "internalType": "bytes32",
          "name": "country",
          "type": "bytes32"
        },
        {
          "internalType": "string",
          "name": "artist",
          "type": "string"
        }
      ],
      "name": "getArtistOdds",
      "outputs": [
        {
          "internalType": "uint256",
          "name": "",
          "type": "uint256"
        }
      ],
      "stateMutability": "view",
      "type": "function"
    },
    {
      "inputs": [
        {
          "internalType": "bytes32",
          "name": "country",
          "type": "bytes32"
        }
      ],
      "name": "getBetsInCountry",
      "outputs": [
        {
          "components": [
            {
              "internalType": "address",
              "name": "user",
              "type": "address"
            },
            {
              "internalType": "uint256",
              "name": "amount",
              "type": "uint256"
            },
            {
              "internalType": "string",
              "name": "artist",
              "type": "string"
            },
            {
              "internalType": "uint256",
              "name": "odds",
              "type": "uint256"
            }
          ],
          "internalType": "struct ChartsBet.Bet[]",
          "name": "",
          "type": "tuple[]"
        }
      ],
      "stateMutability": "view",
      "type": "function"
    },
    {
      "inputs": [
        {
          "internalType": "bytes32",
          "name": "country",
          "type": "bytes32"
        }
      ],
      "name": "getTotalBetAmount",
      "outputs": [
        {
          "internalType": "uint256",
          "name": "",
          "type": "uint256"
        }
      ],
      "stateMutability": "view",
      "type": "function"
    },
    {
      "inputs": [
        {
          "internalType": "bytes32",
          "name": "country",
          "type": "bytes32"
        },
        {
          "internalType": "string",
          "name": "artist",
          "type": "string"
        }
      ],
      "name": "getTotalBetsOnArtist",
      "outputs": [
        {
          "internalType": "uint256",
          "name": "",
          "type": "uint256"
        }
      ],
      "stateMutability": "view",
      "type": "function"
    },
    {
      "inputs": [
        {
          "internalType": "address",
          "name": "_owner",
          "type": "address"
        },
        {
          "internalType": "address",
          "name": "_oracle",
          "type": "address"
        }
      ],
      "name": "initialize",
      "outputs": [],
      "stateMutability": "nonpayable",
      "type": "function"
    },
    {
      "inputs": [
        {
          "internalType": "bytes32",
          "name": "country",
          "type": "bytes32"
        }
      ],
      "name": "isLeaderboardExpired",
      "outputs": [
        {
          "internalType": "bool",
          "name": "",
          "type": "bool"
        }
      ],
      "stateMutability": "view",
      "type": "function"
    },
    {
      "inputs": [
        {
          "internalType": "bytes32",
          "name": "",
          "type": "bytes32"
        }
      ],
      "name": "leaderboards",
      "outputs": [
        {
          "internalType": "bytes32",
          "name": "country",
          "type": "bytes32"
        },
        {
          "internalType": "string",
          "name": "winningArtist",
          "type": "string"
        },
        {
          "internalType": "bool",
          "name": "isClosed",
          "type": "bool"
        },
        {
          "internalType": "uint256",
          "name": "totalBetAmount",
          "type": "uint256"
        },
        {
          "internalType": "uint256",
          "name": "startTime",
          "type": "uint256"
        }
      ],
      "stateMutability": "view",
      "type": "function"
    },
    {
      "inputs": [],
      "name": "oracle",
      "outputs": [
        {
          "internalType": "contract ChartsOracle",
          "name": "",
          "type": "address"
        }
      ],
      "stateMutability": "view",
      "type": "function"
    },
    {
      "inputs": [],
      "name": "owner",
      "outputs": [
        {
          "internalType": "address",
          "name": "",
          "type": "address"
        }
      ],
      "stateMutability": "view",
      "type": "function"
    },
    {
      "inputs": [],
      "name": "paused",
      "outputs": [
        {
          "internalType": "bool",
          "name": "",
          "type": "bool"
        }
      ],
      "stateMutability": "view",
      "type": "function"
    },
    {
      "inputs": [
        {
          "internalType": "bytes32",
          "name": "country",
          "type": "bytes32"
        },
        {
          "internalType": "string",
          "name": "artist",
          "type": "string"
        }
      ],
      "name": "placeBet",
      "outputs": [],
      "stateMutability": "payable",
      "type": "function"
    },
    {
      "inputs": [],
      "name": "renounceOwnership",
      "outputs": [],
      "stateMutability": "nonpayable",
      "type": "function"
    },
    {
      "inputs": [],
      "name": "requestWithdrawal",
      "outputs": [],
      "stateMutability": "nonpayable",
      "type": "function"
    },
    {
      "inputs": [],
      "name": "toggleContractActive",
      "outputs": [],
      "stateMutability": "nonpayable",
      "type": "function"
    },
    {
      "inputs": [
        {
          "internalType": "address",
          "name": "newOwner",
          "type": "address"
        }
      ],
      "name": "transferOwnership",
      "outputs": [],
      "stateMutability": "nonpayable",
      "type": "function"
    },
    {
      "inputs": [
        {
          "internalType": "address",
          "name": "newOracle",
          "type": "address"
        }
      ],
      "name": "updateOracle",
      "outputs": [],
      "stateMutability": "nonpayable",
      "type": "function"
    },
    {
      "inputs": [
        {
          "internalType": "bytes32",
          "name": "",
          "type": "bytes32"
        }
      ],
      "name": "validCountries",
      "outputs": [
        {
          "internalType": "bool",
          "name": "",
          "type": "bool"
        }
      ],
      "stateMutability": "view",
      "type": "function"
    },
    {
      "inputs": [],
      "name": "withdrawalRequestTime",
      "outputs": [
        {
          "internalType": "uint256",
          "name": "",
          "type": "uint256"
        }
      ],
      "stateMutability": "view",
      "type": "function"
    }
  ],
  "bytecode": "0x6080604052348015600f57600080fd5b506132ee8061001f6000396000f3fe6080604052600436106101815760003560e01c8063715018a6116100d157806399da7aac1161008a578063f2fde38b11610064578063f2fde38b14610563578063f59bdf851461058c578063fa45aa00146105b7578063fa88e7e7146105ce57610181565b806399da7aac146104f8578063c2d1aebe14610521578063dbaf21451461054c57610181565b8063715018a6146103e857806377d0c7d3146103ff57806378353ba61461043c5780637dc0d1d0146104655780638da5cb5b1461049057806397654961146104bb57610181565b806325100b4d1161013e578063519223531161011857806351922353146103025780635c975abb1461034357806366566a371461036e578063685142c7146103ab57610181565b806325100b4d146102945780633952172d146102b0578063485cc955146102d957610181565b80630617c33b14610186578063061d3bd2146101c357806306dc39bf146101ec5780630ebb172a146102295780631385d24c146102545780631cb44dfc1461026b575b600080fd5b34801561019257600080fd5b506101ad60048036038101906101a891906125dc565b61060b565b6040516101ba9190612651565b60405180910390f35b3480156101cf57600080fd5b506101ea60048036038101906101e59190612752565b610667565b005b3480156101f857600080fd5b50610213600480360381019061020e91906127ae565b610828565b60405161022091906129cf565b60405180910390f35b34801561023557600080fd5b5061023e61099e565b60405161024b9190612651565b60405180910390f35b34801561026057600080fd5b506102696109a5565b005b34801561027757600080fd5b50610292600480360381019061028d9190612a1d565b6109d2565b005b6102ae60048036038101906102a991906125dc565b610abb565b005b3480156102bc57600080fd5b506102d760048036038101906102d291906125dc565b610d77565b005b3480156102e557600080fd5b5061030060048036038101906102fb9190612a4a565b611084565b005b34801561030e57600080fd5b50610329600480360381019061032491906127ae565b611401565b60405161033a959493929190612afe565b60405180910390f35b34801561034f57600080fd5b506103586114cc565b6040516103659190612b58565b60405180910390f35b34801561037a57600080fd5b50610395600480360381019061039091906127ae565b6114f1565b6040516103a29190612b58565b60405180910390f35b3480156103b757600080fd5b506103d260048036038101906103cd9190612b9f565b611511565b6040516103df9190612bcc565b60405180910390f35b3480156103f457600080fd5b506103fd611535565b005b34801561040b57600080fd5b50610426600480360381019061042191906127ae565b611549565b6040516104339190612b58565b60405180910390f35b34801561044857600080fd5b50610463600480360381019061045e91906127ae565b61157e565b005b34801561047157600080fd5b5061047a611673565b6040516104879190612c46565b60405180910390f35b34801561049c57600080fd5b506104a5611699565b6040516104b29190612c70565b60405180910390f35b3480156104c757600080fd5b506104e260048036038101906104dd91906127ae565b6116d1565b6040516104ef9190612651565b60405180910390f35b34801561050457600080fd5b5061051f600480360381019061051a91906127ae565b6116f0565b005b34801561052d57600080fd5b506105366118ee565b6040516105439190612651565b60405180910390f35b34801561055857600080fd5b506105616118f5565b005b34801561056f57600080fd5b5061058a60048036038101906105859190612a1d565b61193f565b005b34801561059857600080fd5b506105a16119c5565b6040516105ae9190612651565b60405180910390f35b3480156105c357600080fd5b506105cc6119cb565b005b3480156105da57600080fd5b506105f560048036038101906105f091906125dc565b611aec565b6040516106029190612651565b60405180910390f35b6000808260405160200161061f9190612cc7565b60405160208183030381529060405280519060200120905060008085815260200190815260200160002060070160008281526020019081526020016000205491505092915050565b61066f611b48565b600260009054906101000a900473ffffffffffffffffffffffffffffffffffffffff1673ffffffffffffffffffffffffffffffffffffffff163373ffffffffffffffffffffffffffffffffffffffff16146106f6576040517fd342cbff00000000000000000000000000000000000000000000000000000000815260040160405180910390fd5b6003600083815260200190815260200160002060009054906101000a900460ff1661074d576040517f139d566400000000000000000000000000000000000000000000000000000000815260040160405180910390fd5b600080600084815260200190815260200160002090506000801b8160000154036107a3576040517f3d3cef6a00000000000000000000000000000000000000000000000000000000815260040160405180910390fd5b8060020160009054906101000a900460ff16156107ec576040517f9aa0b8bd00000000000000000000000000000000000000000000000000000000815260040160405180910390fd5b6107f68383611b89565b827f577b6860ec2af75814bd1d732a479f5787676f4012afbc91228827a4b7f2e5a460405160405180910390a2505050565b60606000806000848152602001908152602001600020905080600801805480602002602001604051908101604052809291908181526020016000905b8282101561099257838290600052602060002090600402016040518060800160405290816000820160009054906101000a900473ffffffffffffffffffffffffffffffffffffffff1673ffffffffffffffffffffffffffffffffffffffff1673ffffffffffffffffffffffffffffffffffffffff168152602001600182015481526020016002820180546108f790612d0d565b80601f016020809104026020016040519081016040528092919081815260200182805461092390612d0d565b80156109705780601f1061094557610100808354040283529160200191610970565b820191906000526020600020905b81548152906001019060200180831161095357829003601f168201915b5050505050815260200160038201548152505081526020019060010190610864565b50505050915050919050565b6202a30081565b6109ad611dfe565b6109b56114cc565b156109c7576109c2611e85565b6109d0565b6109cf611ef7565b5b565b6109da611dfe565b600073ffffffffffffffffffffffffffffffffffffffff168173ffffffffffffffffffffffffffffffffffffffff1603610a40576040517f5521068100000000000000000000000000000000000000000000000000000000815260040160405180910390fd5b80600260006101000a81548173ffffffffffffffffffffffffffffffffffffffff021916908373ffffffffffffffffffffffffffffffffffffffff1602179055507f3df77beb5db05fcdd70a30fc8adf3f83f9501b68579455adbd100b818094039481604051610ab09190612c70565b60405180910390a150565b610ac3611b48565b610acb611f69565b600080600084815260200190815260200160002090506000801b816000015403610b21576040517f3d3cef6a00000000000000000000000000000000000000000000000000000000815260040160405180910390fd5b8060020160009054906101000a900460ff1680610b435750610b4283611549565b5b15610b7a576040517f61c54c4a00000000000000000000000000000000000000000000000000000000815260040160405180910390fd5b600082604051602001610b8d9190612cc7565b604051602081830303815290604052805190602001209050600082600701600083815260200190815260200160002054905060008103610bf9576040517f59bdd61600000000000000000000000000000000000000000000000000000000815260040160405180910390fd5b34836003016000828254610c0d9190612d6d565b92505081905550348360050160008481526020019081526020016000206000828254610c399190612d6d565b925050819055508260080160405180608001604052803373ffffffffffffffffffffffffffffffffffffffff16815260200134815260200186815260200183815250908060018154018082558091505060019003906000526020600020906004020160009091909190915060008201518160000160006101000a81548173ffffffffffffffffffffffffffffffffffffffff021916908373ffffffffffffffffffffffffffffffffffffffff160217905550602082015181600101556040820151816002019081610d0a9190612f43565b50606082015181600301555050843373ffffffffffffffffffffffffffffffffffffffff167f48fc46cbccdd1929e80dd1cfd9cd0e841cf8a54f6dde1807225608686a8e6f758634604051610d60929190613015565b60405180910390a3505050610d73611fc0565b5050565b610d7f611b48565b610d87611f69565b600260009054906101000a900473ffffffffffffffffffffffffffffffffffffffff1673ffffffffffffffffffffffffffffffffffffffff163373ffffffffffffffffffffffffffffffffffffffff1614610e0e576040517fd342cbff00000000000000000000000000000000000000000000000000000000815260040160405180910390fd5b600080600084815260200190815260200160002090506000801b816000015403610e64576040517f3d3cef6a00000000000000000000000000000000000000000000000000000000815260040160405180910390fd5b8060020160009054906101000a900460ff1615610ead576040517f61c54c4a00000000000000000000000000000000000000000000000000000000815260040160405180910390fd5b81816001019081610ebe9190612f43565b5060018160020160006101000a81548160ff021916908315150217905550600082604051602001610eef9190612cc7565b60405160208183030381529060405280519060200120905060005b8260080180549050811015611010576000836008018281548110610f3157610f30613045565b5b906000526020600020906004020190508281600201604051602001610f5691906130f7565b6040516020818303038152906040528051906020012003611002576000606482600301548360010154610f89919061310e565b610f93919061317f565b90508160000160009054906101000a900473ffffffffffffffffffffffffffffffffffffffff1673ffffffffffffffffffffffffffffffffffffffff166108fc829081150290604051600060405180830381858888f19350505050158015610fff573d6000803e3d6000fd5b50505b508080600101915050610f0a565b50837f05b38d8d0276a7822a40028770c59e835ff41a84cf7ef75d0ca61374dd2114b28460405161104191906131b0565b60405180910390a2837f7fa0af01d1013cd4a40114e18d6be90c73e0906187e6bd1f851acc747e36475360405160405180910390a25050611080611fc0565b5050565b600061108e611fd9565b905060008160000160089054906101000a900460ff1615905060008260000160009054906101000a900467ffffffffffffffff1690506000808267ffffffffffffffff161480156110dc5750825b9050600060018367ffffffffffffffff16148015611111575060003073ffffffffffffffffffffffffffffffffffffffff163b145b90508115801561111f575080155b15611156576040517ff92ee8a900000000000000000000000000000000000000000000000000000000815260040160405180910390fd5b60018560000160006101000a81548167ffffffffffffffff021916908367ffffffffffffffff16021790555083156111a65760018560000160086101000a81548160ff0219169083151502179055505b6111af87612001565b6111b7612015565b6111bf612027565b85600260006101000a81548173ffffffffffffffffffffffffffffffffffffffff021916908373ffffffffffffffffffffffffffffffffffffffff16021790555060006040518061010001604052807f575700000000000000000000000000000000000000000000000000000000000081526020017f425200000000000000000000000000000000000000000000000000000000000081526020017f444500000000000000000000000000000000000000000000000000000000000081526020017f455300000000000000000000000000000000000000000000000000000000000081526020017f465200000000000000000000000000000000000000000000000000000000000081526020017f495400000000000000000000000000000000000000000000000000000000000081526020017f505400000000000000000000000000000000000000000000000000000000000081526020017f5553000000000000000000000000000000000000000000000000000000000000815250905060005b600881101561139a5760016003600084846008811061136357611362613045565b5b6020020151815260200190815260200160002060006101000a81548160ff0219169083151502179055508080600101915050611341565b505083156113f85760008560000160086101000a81548160ff0219169083151502179055507fc7f505b2f371ae2175ee4913f4499e1f2633a7b5936321eed1cdaeb6115181d260016040516113ef9190613221565b60405180910390a15b50505050505050565b600060205280600052604060002060009150905080600001549080600101805461142a90612d0d565b80601f016020809104026020016040519081016040528092919081815260200182805461145690612d0d565b80156114a35780601f10611478576101008083540402835291602001916114a3565b820191906000526020600020905b81548152906001019060200180831161148657829003601f168201915b5050505050908060020160009054906101000a900460ff16908060030154908060040154905085565b6000806114d7612039565b90508060000160009054906101000a900460ff1691505090565b60036020528060005260406000206000915054906101000a900460ff1681565b6001818154811061152157600080fd5b906000526020600020016000915090505481565b61153d611dfe565b6115476000612061565b565b600080600080848152602001908152602001600020905062093a8081600401546115739190612d6d565b421015915050919050565b611586611dfe565b600080600083815260200190815260200160002090506000801b8160000154036115dc576040517f3d3cef6a00000000000000000000000000000000000000000000000000000000815260040160405180910390fd5b8060020160009054906101000a900460ff1615611625576040517f9aa0b8bd00000000000000000000000000000000000000000000000000000000815260040160405180910390fd5b60018160020160006101000a81548160ff021916908315150217905550817f7fa0af01d1013cd4a40114e18d6be90c73e0906187e6bd1f851acc747e36475360405160405180910390a25050565b600260009054906101000a900473ffffffffffffffffffffffffffffffffffffffff1681565b6000806116a4612138565b90508060000160009054906101000a900473ffffffffffffffffffffffffffffffffffffffff1691505090565b6000806000838152602001908152602001600020600301549050919050565b6116f8611dfe565b611700611b48565b6003600082815260200190815260200160002060009054906101000a900460ff16611757576040517f139d566400000000000000000000000000000000000000000000000000000000815260040160405180910390fd5b600080600083815260200190815260200160002090506000801b816000015414611844578060020160009054906101000a900460ff161580156117ab575062093a8081600401546117a89190612d6d565b42105b156117e2576040517fdbe95ff500000000000000000000000000000000000000000000000000000000815260040160405180910390fd5b60008083815260200190815260200160002060008082016000905560018201600061180d919061236d565b6002820160006101000a81549060ff02191690556003820160009055600482016000905560088201600061184191906123ad565b50505b6000806000848152602001908152602001600020905082816000018190555060008160020160006101000a81548160ff021916908315150217905550428160040181905550600081600301819055506001839080600181540180825580915050600190039060005260206000200160009091909190915055827f73829305e9f70b89111cf588e6d67f7360300700b6ecaed7130c8021d454b49160405160405180910390a2505050565b62093a8081565b6118fd611dfe565b426004819055507faf619daa033514f6c299197d29548ccd9276a1b55ef717fb80adf495925dd5106004546040516119359190612651565b60405180910390a1565b611947611dfe565b600073ffffffffffffffffffffffffffffffffffffffff168173ffffffffffffffffffffffffffffffffffffffff16036119b95760006040517f1e4fbdf70000000000000000000000000000000000000000000000000000000081526004016119b09190612c70565b60405180910390fd5b6119c281612061565b50565b60045481565b6119d3611dfe565b6202a3006004546119e49190612d6d565b421015611a1d576040517fb95063c200000000000000000000000000000000000000000000000000000000815260040160405180910390fd5b60004703611a57576040517f67e3990d00000000000000000000000000000000000000000000000000000000815260040160405180910390fd5b6000479050611a64611699565b73ffffffffffffffffffffffffffffffffffffffff166108fc829081150290604051600060405180830381858888f19350505050158015611aa9573d6000803e3d6000fd5b5060006004819055507feaa620b5c98328f5ddb4195c31eadb3e30e7915fcbc9cc1c244441984780c0d281604051611ae19190612651565b60405180910390a150565b60008082604051602001611b009190612cc7565b60405160208183030381529060405280519060200120905060008085815260200190815260200160002060050160008281526020019081526020016000205491505092915050565b611b506114cc565b15611b87576040517fd93c066500000000000000000000000000000000000000000000000000000000815260040160405180910390fd5b565b60008060008481526020019081526020016000209050600081600601905060005b8351811015611c54576000848281518110611bc857611bc7613045565b5b6020026020010151604051602001611be09190612cc7565b604051602081830303815290604052805190602001209050600084600601600083815260200190815260200160002081905550600084600701600083815260200190815260200160002081905550600083600083815260200190815260200160002081905550508080600101915050611baa565b5060005b8351811015611cdc576000848281518110611c7657611c75613045565b5b6020026020010151604051602001611c8e9190612cc7565b6040516020818303038152906040528051906020012090508260008281526020019081526020016000206000815480929190611cc99061323c565b9190505550508080600101915050611c58565b5060005b8351811015611df7576000848281518110611cfe57611cfd613045565b5b6020026020010151604051602001611d169190612cc7565b6040516020818303038152906040528051906020012090506000600183611d3d9190612d6d565b905080856006016000848152602001908152602001600020819055506000611d778286600086815260200190815260200160002054612160565b90508086600701600085815260200190815260200160002081905550877fc95c35564c411feac50a7081834b0aaba8fa88d917db6f6989e6387e52746c2a888681518110611dc857611dc7613045565b5b602002602001015183604051611ddf929190613015565b60405180910390a25050508080600101915050611ce0565b5050505050565b611e066121c2565b73ffffffffffffffffffffffffffffffffffffffff16611e24611699565b73ffffffffffffffffffffffffffffffffffffffff1614611e8357611e476121c2565b6040517f118cdaa7000000000000000000000000000000000000000000000000000000008152600401611e7a9190612c70565b60405180910390fd5b565b611e8d6121ca565b6000611e97612039565b905060008160000160006101000a81548160ff0219169083151502179055507f5db9ee0a495bf2e6ff9c91a7834c1ba4fdd244a5e8aa4e537bd38aeae4b073aa611edf6121c2565b604051611eec9190612c70565b60405180910390a150565b611eff611b48565b6000611f09612039565b905060018160000160006101000a81548160ff0219169083151502179055507f62e78cea01bee320cd4e420270b5ea74000d11b0c9f74754ebdbfc544b05a258611f516121c2565b604051611f5e9190612c70565b60405180910390a150565b6000611f7361220a565b90506002816000015403611fb3576040517f3ee5aeb500000000000000000000000000000000000000000000000000000000815260040160405180910390fd5b6002816000018190555050565b6000611fca61220a565b90506001816000018190555050565b60007ff0c57e16840df040f15088dc2f81fe391c3923bec73e23a9662efc9c229c6a00905090565b612009612232565b61201281612272565b50565b61201d612232565b6120256122f8565b565b61202f612232565b61203761232c565b565b60007fcd5ed15c6e187e77e9aee88184c21f4f2182ab5827cb3b7e07fbedcd63f03300905090565b600061206b612138565b905060008160000160009054906101000a900473ffffffffffffffffffffffffffffffffffffffff169050828260000160006101000a81548173ffffffffffffffffffffffffffffffffffffffff021916908373ffffffffffffffffffffffffffffffffffffffff1602179055508273ffffffffffffffffffffffffffffffffffffffff168173ffffffffffffffffffffffffffffffffffffffff167f8be0079c531659141344cd1fd0a4f28419497f9722a3daafe3b4186f6b6457e060405160405180910390a3505050565b60007f9016d09d72d40fdae2fd8ceac6b6234c7706214fd39c1cd1e609a0528c199300905090565b6000806002600184866121739190612d6d565b61217d9190613284565b856121889190612d6d565b612192919061317f565b905060146001826121a39190613284565b6121ad919061310e565b60786121b99190612d6d565b91505092915050565b600033905090565b6121d26114cc565b612208576040517f8dfc202b00000000000000000000000000000000000000000000000000000000815260040160405180910390fd5b565b60007f9b779b17422d0df92223018b32b4d1fa46e071723d6817e2486d003becc55f00905090565b61223a61234d565b612270576040517fd7e6bcf800000000000000000000000000000000000000000000000000000000815260040160405180910390fd5b565b61227a612232565b600073ffffffffffffffffffffffffffffffffffffffff168173ffffffffffffffffffffffffffffffffffffffff16036122ec5760006040517f1e4fbdf70000000000000000000000000000000000000000000000000000000081526004016122e39190612c70565b60405180910390fd5b6122f581612061565b50565b612300612232565b600061230a612039565b905060008160000160006101000a81548160ff02191690831515021790555050565b612334612232565b600061233e61220a565b90506001816000018190555050565b6000612357611fd9565b60000160089054906101000a900460ff16905090565b50805461237990612d0d565b6000825580601f1061238b57506123aa565b601f0160209004906000526020600020908101906123a991906123d1565b5b50565b50805460008255600402906000526020600020908101906123ce91906123ee565b50565b5b808211156123ea5760008160009055506001016123d2565b5090565b5b8082111561244857600080820160006101000a81549073ffffffffffffffffffffffffffffffffffffffff02191690556001820160009055600282016000612437919061236d565b6003820160009055506004016123ef565b5090565b6000604051905090565b600080fd5b600080fd5b6000819050919050565b61247381612460565b811461247e57600080fd5b50565b6000813590506124908161246a565b92915050565b600080fd5b600080fd5b6000601f19601f8301169050919050565b7f4e487b7100000000000000000000000000000000000000000000000000000000600052604160045260246000fd5b6124e9826124a0565b810181811067ffffffffffffffff82111715612508576125076124b1565b5b80604052505050565b600061251b61244c565b905061252782826124e0565b919050565b600067ffffffffffffffff821115612547576125466124b1565b5b612550826124a0565b9050602081019050919050565b82818337600083830152505050565b600061257f61257a8461252c565b612511565b90508281526020810184848401111561259b5761259a61249b565b5b6125a684828561255d565b509392505050565b600082601f8301126125c3576125c2612496565b5b81356125d384826020860161256c565b91505092915050565b600080604083850312156125f3576125f2612456565b5b600061260185828601612481565b925050602083013567ffffffffffffffff8111156126225761262161245b565b5b61262e858286016125ae565b9150509250929050565b6000819050919050565b61264b81612638565b82525050565b60006020820190506126666000830184612642565b92915050565b600067ffffffffffffffff821115612687576126866124b1565b5b602082029050602081019050919050565b600080fd5b60006126b06126ab8461266c565b612511565b905080838252602082019050602084028301858111156126d3576126d2612698565b5b835b8181101561271a57803567ffffffffffffffff8111156126f8576126f7612496565b5b80860161270589826125ae565b855260208501945050506020810190506126d5565b5050509392505050565b600082601f83011261273957612738612496565b5b813561274984826020860161269d565b91505092915050565b6000806040838503121561276957612768612456565b5b600061277785828601612481565b925050602083013567ffffffffffffffff8111156127985761279761245b565b5b6127a485828601612724565b9150509250929050565b6000602082840312156127c4576127c3612456565b5b60006127d284828501612481565b91505092915050565b600081519050919050565b600082825260208201905092915050565b6000819050602082019050919050565b600073ffffffffffffffffffffffffffffffffffffffff82169050919050565b600061283282612807565b9050919050565b61284281612827565b82525050565b61285181612638565b82525050565b600081519050919050565b600082825260208201905092915050565b60005b83811015612891578082015181840152602081019050612876565b60008484015250505050565b60006128a882612857565b6128b28185612862565b93506128c2818560208601612873565b6128cb816124a0565b840191505092915050565b60006080830160008301516128ee6000860182612839565b5060208301516129016020860182612848565b5060408301518482036040860152612919828261289d565b915050606083015161292e6060860182612848565b508091505092915050565b600061294583836128d6565b905092915050565b6000602082019050919050565b6000612965826127db565b61296f81856127e6565b935083602082028501612981856127f7565b8060005b858110156129bd578484038952815161299e8582612939565b94506129a98361294d565b925060208a01995050600181019050612985565b50829750879550505050505092915050565b600060208201905081810360008301526129e9818461295a565b905092915050565b6129fa81612827565b8114612a0557600080fd5b50565b600081359050612a17816129f1565b92915050565b600060208284031215612a3357612a32612456565b5b6000612a4184828501612a08565b91505092915050565b60008060408385031215612a6157612a60612456565b5b6000612a6f85828601612a08565b9250506020612a8085828601612a08565b9150509250929050565b612a9381612460565b82525050565b600082825260208201905092915050565b6000612ab582612857565b612abf8185612a99565b9350612acf818560208601612873565b612ad8816124a0565b840191505092915050565b60008115159050919050565b612af881612ae3565b82525050565b600060a082019050612b136000830188612a8a565b8181036020830152612b258187612aaa565b9050612b346040830186612aef565b612b416060830185612642565b612b4e6080830184612642565b9695505050505050565b6000602082019050612b6d6000830184612aef565b92915050565b612b7c81612638565b8114612b8757600080fd5b50565b600081359050612b9981612b73565b92915050565b600060208284031215612bb557612bb4612456565b5b6000612bc384828501612b8a565b91505092915050565b6000602082019050612be16000830184612a8a565b92915050565b6000819050919050565b6000612c0c612c07612c0284612807565b612be7565b612807565b9050919050565b6000612c1e82612bf1565b9050919050565b6000612c3082612c13565b9050919050565b612c4081612c25565b82525050565b6000602082019050612c5b6000830184612c37565b92915050565b612c6a81612827565b82525050565b6000602082019050612c856000830184612c61565b92915050565b600081905092915050565b6000612ca182612857565b612cab8185612c8b565b9350612cbb818560208601612873565b80840191505092915050565b6000612cd38284612c96565b915081905092915050565b7f4e487b7100000000000000000000000000000000000000000000000000000000600052602260045260246000fd5b60006002820490506001821680612d2557607f821691505b602082108103612d3857612d37612cde565b5b50919050565b7f4e487b7100000000000000000000000000000000000000000000000000000000600052601160045260246000fd5b6000612d7882612638565b9150612d8383612638565b9250828201905080821115612d9b57612d9a612d3e565b5b92915050565b60008190508160005260206000209050919050565b60006020601f8301049050919050565b600082821b905092915050565b600060088302612e037fffffffffffffffffffffffffffffffffffffffffffffffffffffffffffffffff82612dc6565b612e0d8683612dc6565b95508019841693508086168417925050509392505050565b6000612e40612e3b612e3684612638565b612be7565b612638565b9050919050565b6000819050919050565b612e5a83612e25565b612e6e612e6682612e47565b848454612dd3565b825550505050565b600090565b612e83612e76565b612e8e818484612e51565b505050565b5b81811015612eb257612ea7600082612e7b565b600181019050612e94565b5050565b601f821115612ef757612ec881612da1565b612ed184612db6565b81016020851015612ee0578190505b612ef4612eec85612db6565b830182612e93565b50505b505050565b600082821c905092915050565b6000612f1a60001984600802612efc565b1980831691505092915050565b6000612f338383612f09565b9150826002028217905092915050565b612f4c82612857565b67ffffffffffffffff811115612f6557612f646124b1565b5b612f6f8254612d0d565b612f7a828285612eb6565b600060209050601f831160018114612fad5760008415612f9b578287015190505b612fa58582612f27565b86555061300d565b601f198416612fbb86612da1565b60005b82811015612fe357848901518255600182019150602085019450602081019050612fbe565b868310156130005784890151612ffc601f891682612f09565b8355505b6001600288020188555050505b505050505050565b6000604082019050818103600083015261302f8185612aaa565b905061303e6020830184612642565b9392505050565b7f4e487b7100000000000000000000000000000000000000000000000000000000600052603260045260246000fd5b6000815461308181612d0d565b61308b8186612c8b565b945060018216600081146130a657600181146130bb576130ee565b60ff19831686528115158202860193506130ee565b6130c485612da1565b60005b838110156130e6578154818901526001820191506020810190506130c7565b838801955050505b50505092915050565b60006131038284613074565b915081905092915050565b600061311982612638565b915061312483612638565b925082820261313281612638565b9150828204841483151761314957613148612d3e565b5b5092915050565b7f4e487b7100000000000000000000000000000000000000000000000000000000600052601260045260246000fd5b600061318a82612638565b915061319583612638565b9250826131a5576131a4613150565b5b828204905092915050565b600060208201905081810360008301526131ca8184612aaa565b905092915050565b6000819050919050565b600067ffffffffffffffff82169050919050565b600061320b613206613201846131d2565b612be7565b6131dc565b9050919050565b61321b816131f0565b82525050565b60006020820190506132366000830184613212565b92915050565b600061324782612638565b91507fffffffffffffffffffffffffffffffffffffffffffffffffffffffffffffffff820361327957613278612d3e565b5b600182019050919050565b600061328f82612638565b915061329a83612638565b92508282039050818111156132b2576132b1612d3e565b5b9291505056fea26469706673582212209673e11c138c872f0ca857997043f220b13c3e0387316cecd9187fc8dbc4259564736f6c634300081a0033",
  "linkReferences": {},
  "deployedLinkReferences": {}
}