{
  "_format": "hh-sol-artifact-1",
  "contractName": "ChartsOracle",
  "sourceName": "contracts/ChartsOracle.sol",
  "abi": [
    {
      "inputs": [],
      "name": "EnforcedPause",
      "type": "error"
    },
    {
      "inputs": [],
      "name": "ExpectedPause",
      "type": "error"
    },
    {
      "inputs": [],
      "name": "InvalidInitialization",
      "type": "error"
    },
    {
      "inputs": [],
      "name": "NotInitializing",
      "type": "error"
    },
    {
      "inputs": [
        {
          "internalType": "address",
          "name": "owner",
          "type": "address"
        }
      ],
      "name": "OwnableInvalidOwner",
      "type": "error"
    },
    {
      "inputs": [
        {
          "internalType": "address",
          "name": "account",
          "type": "address"
        }
      ],
      "name": "OwnableUnauthorizedAccount",
      "type": "error"
    },
    {
      "anonymous": false,
      "inputs": [
        {
          "indexed": true,
          "internalType": "bytes32",
          "name": "requestId",
          "type": "bytes32"
        },
        {
          "indexed": true,
          "internalType": "bytes32",
          "name": "country",
          "type": "bytes32"
        },
        {
          "indexed": false,
          "internalType": "string",
          "name": "winningArtist",
          "type": "string"
        }
      ],
      "name": "DailyWinnerFulfilled",
      "type": "event"
    },
    {
      "anonymous": false,
      "inputs": [
        {
          "indexed": false,
          "internalType": "uint64",
          "name": "version",
          "type": "uint64"
        }
      ],
      "name": "Initialized",
      "type": "event"
    },
    {
      "anonymous": false,
      "inputs": [
        {
          "indexed": true,
          "internalType": "bytes32",
          "name": "requestId",
          "type": "bytes32"
        },
        {
          "indexed": true,
          "internalType": "bytes32",
          "name": "country",
          "type": "bytes32"
        }
      ],
      "name": "LeaderboardDataFulfilled",
      "type": "event"
    },
    {
      "anonymous": false,
      "inputs": [
        {
          "indexed": true,
          "internalType": "address",
          "name": "previousOwner",
          "type": "address"
        },
        {
          "indexed": true,
          "internalType": "address",
          "name": "newOwner",
          "type": "address"
        }
      ],
      "name": "OwnershipTransferred",
      "type": "event"
    },
    {
      "anonymous": false,
      "inputs": [
        {
          "indexed": false,
          "internalType": "address",
          "name": "account",
          "type": "address"
        }
      ],
      "name": "Paused",
      "type": "event"
    },
    {
      "anonymous": false,
      "inputs": [
        {
          "indexed": true,
          "internalType": "bytes32",
          "name": "requestId",
          "type": "bytes32"
        },
        {
          "indexed": true,
          "internalType": "bytes32",
          "name": "country",
          "type": "bytes32"
        }
      ],
      "name": "RequestDailyWinner",
      "type": "event"
    },
    {
      "anonymous": false,
      "inputs": [
        {
          "indexed": true,
          "internalType": "bytes32",
          "name": "requestId",
          "type": "bytes32"
        },
        {
          "indexed": true,
          "internalType": "bytes32",
          "name": "country",
          "type": "bytes32"
        }
      ],
      "name": "RequestLeaderboardData",
      "type": "event"
    },
    {
      "anonymous": false,
      "inputs": [
        {
          "indexed": false,
          "internalType": "address",
          "name": "account",
          "type": "address"
        }
      ],
      "name": "Unpaused",
      "type": "event"
    },
    {
      "inputs": [],
      "name": "chartsBet",
      "outputs": [
        {
          "internalType": "contract IChartsBet",
          "name": "",
          "type": "address"
        }
      ],
      "stateMutability": "view",
      "type": "function"
    },
    {
      "inputs": [
        {
          "internalType": "bytes32",
          "name": "requestId",
          "type": "bytes32"
        },
        {
          "internalType": "bytes32",
          "name": "country",
          "type": "bytes32"
        },
        {
          "internalType": "string",
          "name": "winningArtist",
          "type": "string"
        }
      ],
      "name": "fulfillDailyWinner",
      "outputs": [],
      "stateMutability": "nonpayable",
      "type": "function"
    },
    {
      "inputs": [
        {
          "internalType": "bytes32",
          "name": "requestId",
          "type": "bytes32"
        },
        {
          "internalType": "bytes32",
          "name": "country",
          "type": "bytes32"
        },
        {
          "internalType": "string[]",
          "name": "topArtists",
          "type": "string[]"
        }
      ],
      "name": "fulfillLeaderboardData",
      "outputs": [],
      "stateMutability": "nonpayable",
      "type": "function"
    },
    {
      "inputs": [
        {
          "internalType": "address",
          "name": "_owner",
          "type": "address"
        },
        {
          "internalType": "address",
          "name": "_chartsBet",
          "type": "address"
        }
      ],
      "name": "initialize",
      "outputs": [],
      "stateMutability": "nonpayable",
      "type": "function"
    },
    {
      "inputs": [],
      "name": "owner",
      "outputs": [
        {
          "internalType": "address",
          "name": "",
          "type": "address"
        }
      ],
      "stateMutability": "view",
      "type": "function"
    },
    {
      "inputs": [],
      "name": "pause",
      "outputs": [],
      "stateMutability": "nonpayable",
      "type": "function"
    },
    {
      "inputs": [],
      "name": "paused",
      "outputs": [
        {
          "internalType": "bool",
          "name": "",
          "type": "bool"
        }
      ],
      "stateMutability": "view",
      "type": "function"
    },
    {
      "inputs": [],
      "name": "renounceOwnership",
      "outputs": [],
      "stateMutability": "nonpayable",
      "type": "function"
    },
    {
      "inputs": [
        {
          "internalType": "bytes32",
          "name": "country",
          "type": "bytes32"
        }
      ],
      "name": "requestDailyWinner",
      "outputs": [
        {
          "internalType": "bytes32",
          "name": "requestId",
          "type": "bytes32"
        }
      ],
      "stateMutability": "nonpayable",
      "type": "function"
    },
    {
      "inputs": [
        {
          "internalType": "bytes32",
          "name": "country",
          "type": "bytes32"
        }
      ],
      "name": "requestLeaderboardData",
      "outputs": [
        {
          "internalType": "bytes32",
          "name": "requestId",
          "type": "bytes32"
        }
      ],
      "stateMutability": "nonpayable",
      "type": "function"
    },
    {
      "inputs": [
        {
          "internalType": "address",
          "name": "_chartsBet",
          "type": "address"
        }
      ],
      "name": "setChartsBet",
      "outputs": [],
      "stateMutability": "nonpayable",
      "type": "function"
    },
    {
      "inputs": [
        {
          "internalType": "address",
          "name": "newOwner",
          "type": "address"
        }
      ],
      "name": "transferOwnership",
      "outputs": [],
      "stateMutability": "nonpayable",
      "type": "function"
    },
    {
      "inputs": [],
      "name": "unpause",
      "outputs": [],
      "stateMutability": "nonpayable",
      "type": "function"
    }
  ],
  "bytecode": "0x6080604052348015600f57600080fd5b506119078061001f6000396000f3fe608060405234801561001057600080fd5b50600436106100cf5760003560e01c8063715018a61161008c578063a73475d411610066578063a73475d4146101b4578063f2fde38b146101e4578063f4909ccb14610200578063fe15ee911461021c576100cf565b8063715018a6146101825780638456cb591461018c5780638da5cb5b14610196576100cf565b806337517ed1146100d45780633f4ba83a146100f0578063485cc955146100fa5780634f93f37a146101165780635c975abb146101345780637007374a14610152575b600080fd5b6100ee60048036038101906100e99190610ffb565b610238565b005b6100f8610396565b005b610114600480360381019061010f91906110c8565b6103a8565b005b61011e610581565b60405161012b9190611167565b60405180910390f35b61013c6105a7565b604051610149919061119d565b60405180910390f35b61016c600480360381019061016791906111b8565b6105cc565b60405161017991906111f4565b60405180910390f35b61018a610661565b005b610194610675565b005b61019e610687565b6040516101ab919061121e565b60405180910390f35b6101ce60048036038101906101c991906111b8565b6106bf565b6040516101db91906111f4565b60405180910390f35b6101fe60048036038101906101f99190611239565b610754565b005b61021a60048036038101906102159190611239565b6107da565b005b6102366004803603810190610231919061134c565b610895565b005b6102406109e8565b610248610a6f565b60008084815260200190815260200160002060009054906101000a900460ff166102a7576040517f08c379a000000000000000000000000000000000000000000000000000000000815260040161029e90611418565b60405180910390fd5b60008084815260200190815260200160002060006101000a81549060ff0219169055600160009054906101000a900473ffffffffffffffffffffffffffffffffffffffff1673ffffffffffffffffffffffffffffffffffffffff16633952172d83836040518363ffffffff1660e01b81526004016103269291906114a6565b600060405180830381600087803b15801561034057600080fd5b505af1158015610354573d6000803e3d6000fd5b5050505081837f9455f61972907193ebaba2565aa04c89fa8cef8b30666027f98ac4bdc27a25248360405161038991906114d6565b60405180910390a3505050565b61039e6109e8565b6103a6610ab0565b565b60006103b2610b22565b905060008160000160089054906101000a900460ff1615905060008260000160009054906101000a900467ffffffffffffffff1690506000808267ffffffffffffffff161480156104005750825b9050600060018367ffffffffffffffff16148015610435575060003073ffffffffffffffffffffffffffffffffffffffff163b145b905081158015610443575080155b1561047a576040517ff92ee8a900000000000000000000000000000000000000000000000000000000815260040160405180910390fd5b60018560000160006101000a81548167ffffffffffffffff021916908367ffffffffffffffff16021790555083156104ca5760018560000160086101000a81548160ff0219169083151502179055505b6104d387610b4a565b6104db610b5e565b85600160006101000a81548173ffffffffffffffffffffffffffffffffffffffff021916908373ffffffffffffffffffffffffffffffffffffffff16021790555083156105785760008560000160086101000a81548160ff0219169083151502179055507fc7f505b2f371ae2175ee4913f4499e1f2633a7b5936321eed1cdaeb6115181d2600160405161056f9190611547565b60405180910390a15b50505050505050565b600160009054906101000a900473ffffffffffffffffffffffffffffffffffffffff1681565b6000806105b2610b70565b90508060000160009054906101000a900460ff1691505090565b60006105d6610a6f565b3342836040516020016105eb9392919061164d565b604051602081830303815290604052805190602001209050600160008083815260200190815260200160002060006101000a81548160ff02191690831515021790555081817f964fad0796b2c4482b663c893a5de5fcd604f4da43798440e1d1beacfbe1f1e260405160405180910390a3919050565b6106696109e8565b6106736000610b98565b565b61067d6109e8565b610685610c6f565b565b600080610692610ce1565b90508060000160009054906101000a900473ffffffffffffffffffffffffffffffffffffffff1691505090565b60006106c9610a6f565b3342836040516020016106de939291906116e1565b604051602081830303815290604052805190602001209050600160008083815260200190815260200160002060006101000a81548160ff02191690831515021790555081817f83ed8b46fdd1ce804e4d604651fd2a0dd74cbb0a76b365d7e419b112fef3b01d60405160405180910390a3919050565b61075c6109e8565b600073ffffffffffffffffffffffffffffffffffffffff168173ffffffffffffffffffffffffffffffffffffffff16036107ce5760006040517f1e4fbdf70000000000000000000000000000000000000000000000000000000081526004016107c5919061121e565b60405180910390fd5b6107d781610b98565b50565b6107e26109e8565b600073ffffffffffffffffffffffffffffffffffffffff168173ffffffffffffffffffffffffffffffffffffffff1603610851576040517f08c379a000000000000000000000000000000000000000000000000000000000815260040161084890611775565b60405180910390fd5b80600160006101000a81548173ffffffffffffffffffffffffffffffffffffffff021916908373ffffffffffffffffffffffffffffffffffffffff16021790555050565b61089d6109e8565b6108a5610a6f565b60008084815260200190815260200160002060009054906101000a900460ff16610904576040517f08c379a00000000000000000000000000000000000000000000000000000000081526004016108fb90611418565b60405180910390fd5b60008084815260200190815260200160002060006101000a81549060ff0219169055600160009054906101000a900473ffffffffffffffffffffffffffffffffffffffff1673ffffffffffffffffffffffffffffffffffffffff1663061d3bd283836040518363ffffffff1660e01b81526004016109839291906118a1565b600060405180830381600087803b15801561099d57600080fd5b505af11580156109b1573d6000803e3d6000fd5b5050505081837fcd92c88455955e8b10b3ab9f397681ac0e5f3eb12665bce3e5a409e6214b1a1960405160405180910390a3505050565b6109f0610d09565b73ffffffffffffffffffffffffffffffffffffffff16610a0e610687565b73ffffffffffffffffffffffffffffffffffffffff1614610a6d57610a31610d09565b6040517f118cdaa7000000000000000000000000000000000000000000000000000000008152600401610a64919061121e565b60405180910390fd5b565b610a776105a7565b15610aae576040517fd93c066500000000000000000000000000000000000000000000000000000000815260040160405180910390fd5b565b610ab8610d11565b6000610ac2610b70565b905060008160000160006101000a81548160ff0219169083151502179055507f5db9ee0a495bf2e6ff9c91a7834c1ba4fdd244a5e8aa4e537bd38aeae4b073aa610b0a610d09565b604051610b17919061121e565b60405180910390a150565b60007ff0c57e16840df040f15088dc2f81fe391c3923bec73e23a9662efc9c229c6a00905090565b610b52610d51565b610b5b81610d91565b50565b610b66610d51565b610b6e610e17565b565b60007fcd5ed15c6e187e77e9aee88184c21f4f2182ab5827cb3b7e07fbedcd63f03300905090565b6000610ba2610ce1565b905060008160000160009054906101000a900473ffffffffffffffffffffffffffffffffffffffff169050828260000160006101000a81548173ffffffffffffffffffffffffffffffffffffffff021916908373ffffffffffffffffffffffffffffffffffffffff1602179055508273ffffffffffffffffffffffffffffffffffffffff168173ffffffffffffffffffffffffffffffffffffffff167f8be0079c531659141344cd1fd0a4f28419497f9722a3daafe3b4186f6b6457e060405160405180910390a3505050565b610c77610a6f565b6000610c81610b70565b905060018160000160006101000a81548160ff0219169083151502179055507f62e78cea01bee320cd4e420270b5ea74000d11b0c9f74754ebdbfc544b05a258610cc9610d09565b604051610cd6919061121e565b60405180910390a150565b60007f9016d09d72d40fdae2fd8ceac6b6234c7706214fd39c1cd1e609a0528c199300905090565b600033905090565b610d196105a7565b610d4f576040517f8dfc202b00000000000000000000000000000000000000000000000000000000815260040160405180910390fd5b565b610d59610e4b565b610d8f576040517fd7e6bcf800000000000000000000000000000000000000000000000000000000815260040160405180910390fd5b565b610d99610d51565b600073ffffffffffffffffffffffffffffffffffffffff168173ffffffffffffffffffffffffffffffffffffffff1603610e0b5760006040517f1e4fbdf7000000000000000000000000000000000000000000000000000000008152600401610e02919061121e565b60405180910390fd5b610e1481610b98565b50565b610e1f610d51565b6000610e29610b70565b905060008160000160006101000a81548160ff02191690831515021790555050565b6000610e55610b22565b60000160089054906101000a900460ff16905090565b6000604051905090565b600080fd5b600080fd5b6000819050919050565b610e9281610e7f565b8114610e9d57600080fd5b50565b600081359050610eaf81610e89565b92915050565b600080fd5b600080fd5b6000601f19601f8301169050919050565b7f4e487b7100000000000000000000000000000000000000000000000000000000600052604160045260246000fd5b610f0882610ebf565b810181811067ffffffffffffffff82111715610f2757610f26610ed0565b5b80604052505050565b6000610f3a610e6b565b9050610f468282610eff565b919050565b600067ffffffffffffffff821115610f6657610f65610ed0565b5b610f6f82610ebf565b9050602081019050919050565b82818337600083830152505050565b6000610f9e610f9984610f4b565b610f30565b905082815260208101848484011115610fba57610fb9610eba565b5b610fc5848285610f7c565b509392505050565b600082601f830112610fe257610fe1610eb5565b5b8135610ff2848260208601610f8b565b91505092915050565b60008060006060848603121561101457611013610e75565b5b600061102286828701610ea0565b935050602061103386828701610ea0565b925050604084013567ffffffffffffffff81111561105457611053610e7a565b5b61106086828701610fcd565b9150509250925092565b600073ffffffffffffffffffffffffffffffffffffffff82169050919050565b60006110958261106a565b9050919050565b6110a58161108a565b81146110b057600080fd5b50565b6000813590506110c28161109c565b92915050565b600080604083850312156110df576110de610e75565b5b60006110ed858286016110b3565b92505060206110fe858286016110b3565b9150509250929050565b6000819050919050565b600061112d6111286111238461106a565b611108565b61106a565b9050919050565b600061113f82611112565b9050919050565b600061115182611134565b9050919050565b61116181611146565b82525050565b600060208201905061117c6000830184611158565b92915050565b60008115159050919050565b61119781611182565b82525050565b60006020820190506111b2600083018461118e565b92915050565b6000602082840312156111ce576111cd610e75565b5b60006111dc84828501610ea0565b91505092915050565b6111ee81610e7f565b82525050565b600060208201905061120960008301846111e5565b92915050565b6112188161108a565b82525050565b6000602082019050611233600083018461120f565b92915050565b60006020828403121561124f5761124e610e75565b5b600061125d848285016110b3565b91505092915050565b600067ffffffffffffffff82111561128157611280610ed0565b5b602082029050602081019050919050565b600080fd5b60006112aa6112a584611266565b610f30565b905080838252602082019050602084028301858111156112cd576112cc611292565b5b835b8181101561131457803567ffffffffffffffff8111156112f2576112f1610eb5565b5b8086016112ff8982610fcd565b855260208501945050506020810190506112cf565b5050509392505050565b600082601f83011261133357611332610eb5565b5b8135611343848260208601611297565b91505092915050565b60008060006060848603121561136557611364610e75565b5b600061137386828701610ea0565b935050602061138486828701610ea0565b925050604084013567ffffffffffffffff8111156113a5576113a4610e7a565b5b6113b18682870161131e565b9150509250925092565b600082825260208201905092915050565b7f52657175657374206e6f742070656e64696e6700000000000000000000000000600082015250565b60006114026013836113bb565b915061140d826113cc565b602082019050919050565b60006020820190508181036000830152611431816113f5565b9050919050565b600081519050919050565b60005b83811015611461578082015181840152602081019050611446565b60008484015250505050565b600061147882611438565b61148281856113bb565b9350611492818560208601611443565b61149b81610ebf565b840191505092915050565b60006040820190506114bb60008301856111e5565b81810360208301526114cd818461146d565b90509392505050565b600060208201905081810360008301526114f0818461146d565b905092915050565b6000819050919050565b600067ffffffffffffffff82169050919050565b600061153161152c611527846114f8565b611108565b611502565b9050919050565b61154181611516565b82525050565b600060208201905061155c6000830184611538565b92915050565b60008160601b9050919050565b600061157a82611562565b9050919050565b600061158c8261156f565b9050919050565b6115a461159f8261108a565b611581565b82525050565b6000819050919050565b6000819050919050565b6115cf6115ca826115aa565b6115b4565b82525050565b6000819050919050565b6115f06115eb82610e7f565b6115d5565b82525050565b600081905092915050565b7f6461696c7957696e6e6572000000000000000000000000000000000000000000600082015250565b6000611637600b836115f6565b915061164282611601565b600b82019050919050565b60006116598286611593565b60148201915061166982856115be565b60208201915061167982846115df565b6020820191506116888261162a565b9150819050949350505050565b7f6c6561646572626f617264000000000000000000000000000000000000000000600082015250565b60006116cb600b836115f6565b91506116d682611695565b600b82019050919050565b60006116ed8286611593565b6014820191506116fd82856115be565b60208201915061170d82846115df565b60208201915061171c826116be565b9150819050949350505050565b7f496e76616c696420436861727473426574206164647265737300000000000000600082015250565b600061175f6019836113bb565b915061176a82611729565b602082019050919050565b6000602082019050818103600083015261178e81611752565b9050919050565b600081519050919050565b600082825260208201905092915050565b6000819050602082019050919050565b600082825260208201905092915050565b60006117dd82611438565b6117e781856117c1565b93506117f7818560208601611443565b61180081610ebf565b840191505092915050565b600061181783836117d2565b905092915050565b6000602082019050919050565b600061183782611795565b61184181856117a0565b935083602082028501611853856117b1565b8060005b8581101561188f5784840389528151611870858261180b565b945061187b8361181f565b925060208a01995050600181019050611857565b50829750879550505050505092915050565b60006040820190506118b660008301856111e5565b81810360208301526118c8818461182c565b9050939250505056fea264697066735822122070340937e099024ccfe91f7b3a19e9cc8837571ca0c45594a69db4d8abbafe9964736f6c634300081a0033",
  "linkReferences": {},
  "deployedLinkReferences": {}
}