{
  "_format": "hh-sol-artifact-1",
  "contractName": "ChartsBet",
  "sourceName": "contracts/ChartsBet.sol",
  "abi": [
    {
      "inputs": [],
      "name": "ArtistNotInLeaderboard",
      "type": "error"
    },
    {
      "inputs": [],
      "name": "BettingClosed",
      "type": "error"
    },
    {
      "inputs": [],
      "name": "EnforcedPause",
      "type": "error"
    },
    {
      "inputs": [],
      "name": "ExpectedPause",
      "type": "error"
    },
    {
      "inputs": [],
      "name": "InvalidCountryCode",
      "type": "error"
    },
    {
      "inputs": [],
      "name": "InvalidInitialization",
      "type": "error"
    },
    {
      "inputs": [],
      "name": "InvalidOracleAddress",
      "type": "error"
    },
    {
      "inputs": [],
      "name": "LeaderboardAlreadyClosed",
      "type": "error"
    },
    {
      "inputs": [],
      "name": "LeaderboardNotFound",
      "type": "error"
    },
    {
      "inputs": [],
      "name": "LeaderboardStillActive",
      "type": "error"
    },
    {
      "inputs": [],
      "name": "NoFundsToWithdraw",
      "type": "error"
    },
    {
      "inputs": [],
      "name": "NotInitializing",
      "type": "error"
    },
    {
      "inputs": [],
      "name": "OnlyOracleAllowed",
      "type": "error"
    },
    {
      "inputs": [
        {
          "internalType": "address",
          "name": "owner",
          "type": "address"
        }
      ],
      "name": "OwnableInvalidOwner",
      "type": "error"
    },
    {
      "inputs": [
        {
          "internalType": "address",
          "name": "account",
          "type": "address"
        }
      ],
      "name": "OwnableUnauthorizedAccount",
      "type": "error"
    },
    {
      "inputs": [],
      "name": "ReentrancyGuardReentrantCall",
      "type": "error"
    },
    {
      "inputs": [],
      "name": "WithdrawalDelayNotMet",
      "type": "error"
    },
    {
      "anonymous": false,
      "inputs": [
        {
          "indexed": true,
          "internalType": "bytes32",
          "name": "country",
          "type": "bytes32"
        },
        {
          "indexed": false,
          "internalType": "bytes32",
          "name": "artist",
          "type": "bytes32"
        },
        {
          "indexed": false,
          "internalType": "uint256",
          "name": "odds",
          "type": "uint256"
        }
      ],
      "name": "ArtistOddsSet",
      "type": "event"
    },
    {
      "anonymous": false,
      "inputs": [
        {
          "indexed": true,
          "internalType": "address",
          "name": "user",
          "type": "address"
        },
        {
          "indexed": true,
          "internalType": "bytes32",
          "name": "country",
          "type": "bytes32"
        },
        {
          "indexed": false,
          "internalType": "string",
          "name": "artist",
          "type": "string"
        },
        {
          "indexed": false,
          "internalType": "uint256",
          "name": "amount",
          "type": "uint256"
        }
      ],
      "name": "BetPlaced",
      "type": "event"
    },
    {
      "anonymous": false,
      "inputs": [
        {
          "indexed": true,
          "internalType": "bytes32",
          "name": "country",
          "type": "bytes32"
        },
        {
          "indexed": false,
          "internalType": "string",
          "name": "winningArtist",
          "type": "string"
        }
      ],
      "name": "DailyWinnerFulfilled",
      "type": "event"
    },
    {
      "anonymous": false,
      "inputs": [
        {
          "indexed": false,
          "internalType": "uint64",
          "name": "version",
          "type": "uint64"
        }
      ],
      "name": "Initialized",
      "type": "event"
    },
    {
      "anonymous": false,
      "inputs": [
        {
          "indexed": true,
          "internalType": "bytes32",
          "name": "country",
          "type": "bytes32"
        }
      ],
      "name": "LeaderboardClosed",
      "type": "event"
    },
    {
      "anonymous": false,
      "inputs": [
        {
          "indexed": true,
          "internalType": "bytes32",
          "name": "country",
          "type": "bytes32"
        }
      ],
      "name": "LeaderboardCreated",
      "type": "event"
    },
    {
      "anonymous": false,
      "inputs": [
        {
          "indexed": false,
          "internalType": "address",
          "name": "newOracle",
          "type": "address"
        }
      ],
      "name": "OracleUpdated",
      "type": "event"
    },
    {
      "anonymous": false,
      "inputs": [
        {
          "indexed": true,
          "internalType": "address",
          "name": "previousOwner",
          "type": "address"
        },
        {
          "indexed": true,
          "internalType": "address",
          "name": "newOwner",
          "type": "address"
        }
      ],
      "name": "OwnershipTransferred",
      "type": "event"
    },
    {
      "anonymous": false,
      "inputs": [
        {
          "indexed": false,
          "internalType": "address",
          "name": "account",
          "type": "address"
        }
      ],
      "name": "Paused",
      "type": "event"
    },
    {
      "anonymous": false,
      "inputs": [
        {
          "indexed": true,
          "internalType": "bytes32",
          "name": "country",
          "type": "bytes32"
        }
      ],
      "name": "TopArtistsFulfilled",
      "type": "event"
    },
    {
      "anonymous": false,
      "inputs": [
        {
          "indexed": false,
          "internalType": "address",
          "name": "account",
          "type": "address"
        }
      ],
      "name": "Unpaused",
      "type": "event"
    },
    {
      "anonymous": false,
      "inputs": [
        {
          "indexed": false,
          "internalType": "uint256",
          "name": "amount",
          "type": "uint256"
        }
      ],
      "name": "WithdrawalExecuted",
      "type": "event"
    },
    {
      "anonymous": false,
      "inputs": [
        {
          "indexed": false,
          "internalType": "uint256",
          "name": "requestTime",
          "type": "uint256"
        }
      ],
      "name": "WithdrawalRequested",
      "type": "event"
    },
    {
      "inputs": [],
      "name": "LEADERBOARD_DURATION",
      "outputs": [
        {
          "internalType": "uint256",
          "name": "",
          "type": "uint256"
        }
      ],
      "stateMutability": "view",
      "type": "function"
    },
    {
      "inputs": [],
      "name": "WITHDRAWAL_DELAY",
      "outputs": [
        {
          "internalType": "uint256",
          "name": "",
          "type": "uint256"
        }
      ],
      "stateMutability": "view",
      "type": "function"
    },
    {
      "inputs": [
        {
          "internalType": "bytes32",
          "name": "country",
          "type": "bytes32"
        }
      ],
      "name": "closeLeaderboard",
      "outputs": [],
      "stateMutability": "nonpayable",
      "type": "function"
    },
    {
      "inputs": [
        {
          "internalType": "uint256",
          "name": "",
          "type": "uint256"
        }
      ],
      "name": "countryList",
      "outputs": [
        {
          "internalType": "bytes32",
          "name": "",
          "type": "bytes32"
        }
      ],
      "stateMutability": "view",
      "type": "function"
    },
    {
      "inputs": [
        {
          "internalType": "bytes32",
          "name": "country",
          "type": "bytes32"
        }
      ],
      "name": "createLeaderboard",
      "outputs": [],
      "stateMutability": "nonpayable",
      "type": "function"
    },
    {
      "inputs": [],
      "name": "executeWithdrawal",
      "outputs": [],
      "stateMutability": "nonpayable",
      "type": "function"
    },
    {
      "inputs": [
        {
          "internalType": "bytes32",
          "name": "country",
          "type": "bytes32"
        },
        {
          "internalType": "string",
          "name": "winningArtist",
          "type": "string"
        }
      ],
      "name": "fulfillDailyWinner",
      "outputs": [],
      "stateMutability": "nonpayable",
      "type": "function"
    },
    {
      "inputs": [
        {
          "internalType": "bytes32",
          "name": "country",
          "type": "bytes32"
        },
        {
          "internalType": "bytes32[]",
          "name": "topArtists",
          "type": "bytes32[]"
        }
      ],
      "name": "fulfillTopArtists",
      "outputs": [],
      "stateMutability": "nonpayable",
      "type": "function"
    },
    {
      "inputs": [
        {
          "internalType": "bytes32",
          "name": "country",
          "type": "bytes32"
        },
        {
          "internalType": "string",
          "name": "artist",
          "type": "string"
        }
      ],
      "name": "getArtistOdds",
      "outputs": [
        {
          "internalType": "uint256",
          "name": "",
          "type": "uint256"
        }
      ],
      "stateMutability": "view",
      "type": "function"
    },
    {
      "inputs": [
        {
          "internalType": "bytes32",
          "name": "country",
          "type": "bytes32"
        }
      ],
      "name": "getBetsInCountry",
      "outputs": [
        {
          "components": [
            {
              "internalType": "address",
              "name": "user",
              "type": "address"
            },
            {
              "internalType": "uint256",
              "name": "amount",
              "type": "uint256"
            },
            {
              "internalType": "string",
              "name": "artist",
              "type": "string"
            },
            {
              "internalType": "uint256",
              "name": "odds",
              "type": "uint256"
            }
          ],
          "internalType": "struct ChartsBet.Bet[]",
          "name": "",
          "type": "tuple[]"
        }
      ],
      "stateMutability": "view",
      "type": "function"
    },
    {
      "inputs": [
        {
          "internalType": "bytes32",
          "name": "country",
          "type": "bytes32"
        }
      ],
      "name": "getTotalBetAmount",
      "outputs": [
        {
          "internalType": "uint256",
          "name": "",
          "type": "uint256"
        }
      ],
      "stateMutability": "view",
      "type": "function"
    },
    {
      "inputs": [
        {
          "internalType": "bytes32",
          "name": "country",
          "type": "bytes32"
        },
        {
          "internalType": "string",
          "name": "artist",
          "type": "string"
        }
      ],
      "name": "getTotalBetsOnArtist",
      "outputs": [
        {
          "internalType": "uint256",
          "name": "",
          "type": "uint256"
        }
      ],
      "stateMutability": "view",
      "type": "function"
    },
    {
      "inputs": [
        {
          "internalType": "address",
          "name": "_owner",
          "type": "address"
        },
        {
          "internalType": "address",
          "name": "_oracle",
          "type": "address"
        }
      ],
      "name": "initialize",
      "outputs": [],
      "stateMutability": "nonpayable",
      "type": "function"
    },
    {
      "inputs": [
        {
          "internalType": "bytes32",
          "name": "country",
          "type": "bytes32"
        }
      ],
      "name": "isLeaderboardExpired",
      "outputs": [
        {
          "internalType": "bool",
          "name": "",
          "type": "bool"
        }
      ],
      "stateMutability": "view",
      "type": "function"
    },
    {
      "inputs": [
        {
          "internalType": "bytes32",
          "name": "",
          "type": "bytes32"
        }
      ],
      "name": "leaderboards",
      "outputs": [
        {
          "internalType": "bytes32",
          "name": "country",
          "type": "bytes32"
        },
        {
          "internalType": "string",
          "name": "winningArtist",
          "type": "string"
        },
        {
          "internalType": "bool",
          "name": "isClosed",
          "type": "bool"
        },
        {
          "internalType": "uint256",
          "name": "totalBetAmount",
          "type": "uint256"
        },
        {
          "internalType": "uint256",
          "name": "startTime",
          "type": "uint256"
        }
      ],
      "stateMutability": "view",
      "type": "function"
    },
    {
      "inputs": [],
      "name": "oracle",
      "outputs": [
        {
          "internalType": "contract ChartsOracle",
          "name": "",
          "type": "address"
        }
      ],
      "stateMutability": "view",
      "type": "function"
    },
    {
      "inputs": [],
      "name": "owner",
      "outputs": [
        {
          "internalType": "address",
          "name": "",
          "type": "address"
        }
      ],
      "stateMutability": "view",
      "type": "function"
    },
    {
      "inputs": [],
      "name": "paused",
      "outputs": [
        {
          "internalType": "bool",
          "name": "",
          "type": "bool"
        }
      ],
      "stateMutability": "view",
      "type": "function"
    },
    {
      "inputs": [
        {
          "internalType": "bytes32",
          "name": "country",
          "type": "bytes32"
        },
        {
          "internalType": "string",
          "name": "artist",
          "type": "string"
        }
      ],
      "name": "placeBet",
      "outputs": [],
      "stateMutability": "payable",
      "type": "function"
    },
    {
      "inputs": [],
      "name": "renounceOwnership",
      "outputs": [],
      "stateMutability": "nonpayable",
      "type": "function"
    },
    {
      "inputs": [],
      "name": "requestWithdrawal",
      "outputs": [],
      "stateMutability": "nonpayable",
      "type": "function"
    },
    {
      "inputs": [],
      "name": "testOracleConnection",
      "outputs": [],
      "stateMutability": "nonpayable",
      "type": "function"
    },
    {
      "inputs": [],
      "name": "toggleContractActive",
      "outputs": [],
      "stateMutability": "nonpayable",
      "type": "function"
    },
    {
      "inputs": [
        {
          "internalType": "address",
          "name": "newOwner",
          "type": "address"
        }
      ],
      "name": "transferOwnership",
      "outputs": [],
      "stateMutability": "nonpayable",
      "type": "function"
    },
    {
      "inputs": [
        {
          "internalType": "address",
          "name": "newOracle",
          "type": "address"
        }
      ],
      "name": "updateOracle",
      "outputs": [],
      "stateMutability": "nonpayable",
      "type": "function"
    },
    {
      "inputs": [
        {
          "internalType": "bytes32",
          "name": "",
          "type": "bytes32"
        }
      ],
      "name": "validCountries",
      "outputs": [
        {
          "internalType": "bool",
          "name": "",
          "type": "bool"
        }
      ],
      "stateMutability": "view",
      "type": "function"
    },
    {
      "inputs": [],
      "name": "withdrawalRequestTime",
      "outputs": [
        {
          "internalType": "uint256",
          "name": "",
          "type": "uint256"
        }
      ],
      "stateMutability": "view",
      "type": "function"
    }
  ],
  "bytecode": "0x6080604052348015600f57600080fd5b506133e48061001f6000396000f3fe60806040526004361061019c5760003560e01c8063715018a6116100ec57806399da7aac1161008a578063f2fde38b11610064578063f2fde38b14610595578063f59bdf85146105be578063fa45aa00146105e9578063fa88e7e7146106005761019c565b806399da7aac1461052a578063c2d1aebe14610553578063dbaf21451461057e5761019c565b80637dc0d1d0116100c65780637dc0d1d01461046e5780637fe93e31146104995780638da5cb5b146104c257806397654961146104ed5761019c565b8063715018a6146103f157806377d0c7d31461040857806378353ba6146104455761019c565b80632ce3707e116101595780635192235311610133578063519223531461030b5780635c975abb1461034c57806366566a3714610377578063685142c7146103b45761019c565b80632ce3707e146102a25780633952172d146102b9578063485cc955146102e25761019c565b80630617c33b146101a157806306dc39bf146101de5780630ebb172a1461021b5780631385d24c146102465780631cb44dfc1461025d57806325100b4d14610286575b600080fd5b3480156101ad57600080fd5b506101c860048036038101906101c3919061268b565b61063d565b6040516101d59190612700565b60405180910390f35b3480156101ea57600080fd5b506102056004803603810190610200919061271b565b610699565b604051610212919061293c565b60405180910390f35b34801561022757600080fd5b5061023061080f565b60405161023d9190612700565b60405180910390f35b34801561025257600080fd5b5061025b610816565b005b34801561026957600080fd5b50610284600480360381019061027f919061298a565b610843565b005b6102a0600480360381019061029b919061268b565b61092c565b005b3480156102ae57600080fd5b506102b7610be8565b005b3480156102c557600080fd5b506102e060048036038101906102db919061268b565b610c3f565b005b3480156102ee57600080fd5b50610309600480360381019061030491906129b7565b610f4c565b005b34801561031757600080fd5b50610332600480360381019061032d919061271b565b6112ef565b604051610343959493929190612a6b565b60405180910390f35b34801561035857600080fd5b506103616113ba565b60405161036e9190612ac5565b60405180910390f35b34801561038357600080fd5b5061039e6004803603810190610399919061271b565b6113df565b6040516103ab9190612ac5565b60405180910390f35b3480156103c057600080fd5b506103db60048036038101906103d69190612b0c565b6113ff565b6040516103e89190612b39565b60405180910390f35b3480156103fd57600080fd5b50610406611423565b005b34801561041457600080fd5b5061042f600480360381019061042a919061271b565b611437565b60405161043c9190612ac5565b60405180910390f35b34801561045157600080fd5b5061046c6004803603810190610467919061271b565b61146c565b005b34801561047a57600080fd5b50610483611561565b6040516104909190612bb3565b60405180910390f35b3480156104a557600080fd5b506104c060048036038101906104bb9190612c96565b611587565b005b3480156104ce57600080fd5b506104d7611748565b6040516104e49190612d01565b60405180910390f35b3480156104f957600080fd5b50610514600480360381019061050f919061271b565b611780565b6040516105219190612700565b60405180910390f35b34801561053657600080fd5b50610551600480360381019061054c919061271b565b61179f565b005b34801561055f57600080fd5b5061056861199d565b6040516105759190612700565b60405180910390f35b34801561058a57600080fd5b506105936119a4565b005b3480156105a157600080fd5b506105bc60048036038101906105b7919061298a565b6119ee565b005b3480156105ca57600080fd5b506105d3611a74565b6040516105e09190612700565b60405180910390f35b3480156105f557600080fd5b506105fe611a7a565b005b34801561060c57600080fd5b506106276004803603810190610622919061268b565b611b9b565b6040516106349190612700565b60405180910390f35b600080826040516020016106519190612d58565b60405160208183030381529060405280519060200120905060008085815260200190815260200160002060070160008281526020019081526020016000205491505092915050565b60606000806000848152602001908152602001600020905080600801805480602002602001604051908101604052809291908181526020016000905b8282101561080357838290600052602060002090600402016040518060800160405290816000820160009054906101000a900473ffffffffffffffffffffffffffffffffffffffff1673ffffffffffffffffffffffffffffffffffffffff1673ffffffffffffffffffffffffffffffffffffffff1681526020016001820154815260200160028201805461076890612d9e565b80601f016020809104026020016040519081016040528092919081815260200182805461079490612d9e565b80156107e15780601f106107b6576101008083540402835291602001916107e1565b820191906000526020600020905b8154815290600101906020018083116107c457829003601f168201915b50505050508152602001600382015481525050815260200190600101906106d5565b50505050915050919050565b6202a30081565b61081e611bf7565b6108266113ba565b1561083857610833611c7e565b610841565b610840611cf0565b5b565b61084b611bf7565b600073ffffffffffffffffffffffffffffffffffffffff168173ffffffffffffffffffffffffffffffffffffffff16036108b1576040517f5521068100000000000000000000000000000000000000000000000000000000815260040160405180910390fd5b80600260006101000a81548173ffffffffffffffffffffffffffffffffffffffff021916908373ffffffffffffffffffffffffffffffffffffffff1602179055507f3df77beb5db05fcdd70a30fc8adf3f83f9501b68579455adbd100b8180940394816040516109219190612d01565b60405180910390a150565b610934611d62565b61093c611da3565b600080600084815260200190815260200160002090506000801b816000015403610992576040517f3d3cef6a00000000000000000000000000000000000000000000000000000000815260040160405180910390fd5b8060020160009054906101000a900460ff16806109b457506109b383611437565b5b156109eb576040517f61c54c4a00000000000000000000000000000000000000000000000000000000815260040160405180910390fd5b6000826040516020016109fe9190612d58565b604051602081830303815290604052805190602001209050600082600701600083815260200190815260200160002054905060008103610a6a576040517f59bdd61600000000000000000000000000000000000000000000000000000000815260040160405180910390fd5b34836003016000828254610a7e9190612dfe565b92505081905550348360050160008481526020019081526020016000206000828254610aaa9190612dfe565b925050819055508260080160405180608001604052803373ffffffffffffffffffffffffffffffffffffffff16815260200134815260200186815260200183815250908060018154018082558091505060019003906000526020600020906004020160009091909190915060008201518160000160006101000a81548173ffffffffffffffffffffffffffffffffffffffff021916908373ffffffffffffffffffffffffffffffffffffffff160217905550602082015181600101556040820151816002019081610b7b9190612fd4565b50606082015181600301555050843373ffffffffffffffffffffffffffffffffffffffff167f48fc46cbccdd1929e80dd1cfd9cd0e841cf8a54f6dde1807225608686a8e6f758634604051610bd19291906130a6565b60405180910390a3505050610be4611dfa565b5050565b610bf0611bf7565b7f54455354000000000000000000000000000000000000000000000000000000007f73829305e9f70b89111cf588e6d67f7360300700b6ecaed7130c8021d454b49160405160405180910390a2565b610c47611d62565b610c4f611da3565b600260009054906101000a900473ffffffffffffffffffffffffffffffffffffffff1673ffffffffffffffffffffffffffffffffffffffff163373ffffffffffffffffffffffffffffffffffffffff1614610cd6576040517fd342cbff00000000000000000000000000000000000000000000000000000000815260040160405180910390fd5b600080600084815260200190815260200160002090506000801b816000015403610d2c576040517f3d3cef6a00000000000000000000000000000000000000000000000000000000815260040160405180910390fd5b8060020160009054906101000a900460ff1615610d75576040517f61c54c4a00000000000000000000000000000000000000000000000000000000815260040160405180910390fd5b81816001019081610d869190612fd4565b5060018160020160006101000a81548160ff021916908315150217905550600082604051602001610db79190612d58565b60405160208183030381529060405280519060200120905060005b8260080180549050811015610ed8576000836008018281548110610df957610df86130d6565b5b906000526020600020906004020190508281600201604051602001610e1e9190613188565b6040516020818303038152906040528051906020012003610eca576000606482600301548360010154610e51919061319f565b610e5b9190613210565b90508160000160009054906101000a900473ffffffffffffffffffffffffffffffffffffffff1673ffffffffffffffffffffffffffffffffffffffff166108fc829081150290604051600060405180830381858888f19350505050158015610ec7573d6000803e3d6000fd5b50505b508080600101915050610dd2565b50837f05b38d8d0276a7822a40028770c59e835ff41a84cf7ef75d0ca61374dd2114b284604051610f099190613241565b60405180910390a2837f7fa0af01d1013cd4a40114e18d6be90c73e0906187e6bd1f851acc747e36475360405160405180910390a25050610f48611dfa565b5050565b6000610f56611e13565b905060008160000160089054906101000a900460ff1615905060008260000160009054906101000a900467ffffffffffffffff1690506000808267ffffffffffffffff16148015610fa45750825b9050600060018367ffffffffffffffff16148015610fd9575060003073ffffffffffffffffffffffffffffffffffffffff163b145b905081158015610fe7575080155b1561101e576040517ff92ee8a900000000000000000000000000000000000000000000000000000000815260040160405180910390fd5b60018560000160006101000a81548167ffffffffffffffff021916908367ffffffffffffffff160217905550831561106e5760018560000160086101000a81548160ff0219169083151502179055505b61107787611e3b565b61107f611e4f565b611087611e61565b85600260006101000a81548173ffffffffffffffffffffffffffffffffffffffff021916908373ffffffffffffffffffffffffffffffffffffffff16021790555060006040518061012001604052807f575700000000000000000000000000000000000000000000000000000000000081526020017f425200000000000000000000000000000000000000000000000000000000000081526020017f444500000000000000000000000000000000000000000000000000000000000081526020017f455300000000000000000000000000000000000000000000000000000000000081526020017f465200000000000000000000000000000000000000000000000000000000000081526020017f495400000000000000000000000000000000000000000000000000000000000081526020017f505400000000000000000000000000000000000000000000000000000000000081526020017f555300000000000000000000000000000000000000000000000000000000000081526020017f5445535400000000000000000000000000000000000000000000000000000000815250905060005b600981101561128857600160036000848460098110611251576112506130d6565b5b6020020151815260200190815260200160002060006101000a81548160ff021916908315150217905550808060010191505061122f565b505083156112e65760008560000160086101000a81548160ff0219169083151502179055507fc7f505b2f371ae2175ee4913f4499e1f2633a7b5936321eed1cdaeb6115181d260016040516112dd91906132b2565b60405180910390a15b50505050505050565b600060205280600052604060002060009150905080600001549080600101805461131890612d9e565b80601f016020809104026020016040519081016040528092919081815260200182805461134490612d9e565b80156113915780601f1061136657610100808354040283529160200191611391565b820191906000526020600020905b81548152906001019060200180831161137457829003601f168201915b5050505050908060020160009054906101000a900460ff16908060030154908060040154905085565b6000806113c5611e73565b90508060000160009054906101000a900460ff1691505090565b60036020528060005260406000206000915054906101000a900460ff1681565b6001818154811061140f57600080fd5b906000526020600020016000915090505481565b61142b611bf7565b6114356000611e9b565b565b600080600080848152602001908152602001600020905062093a8081600401546114619190612dfe565b421015915050919050565b611474611bf7565b600080600083815260200190815260200160002090506000801b8160000154036114ca576040517f3d3cef6a00000000000000000000000000000000000000000000000000000000815260040160405180910390fd5b8060020160009054906101000a900460ff1615611513576040517f9aa0b8bd00000000000000000000000000000000000000000000000000000000815260040160405180910390fd5b60018160020160006101000a81548160ff021916908315150217905550817f7fa0af01d1013cd4a40114e18d6be90c73e0906187e6bd1f851acc747e36475360405160405180910390a25050565b600260009054906101000a900473ffffffffffffffffffffffffffffffffffffffff1681565b61158f611d62565b600260009054906101000a900473ffffffffffffffffffffffffffffffffffffffff1673ffffffffffffffffffffffffffffffffffffffff163373ffffffffffffffffffffffffffffffffffffffff1614611616576040517fd342cbff00000000000000000000000000000000000000000000000000000000815260040160405180910390fd5b6003600083815260200190815260200160002060009054906101000a900460ff1661166d576040517f139d566400000000000000000000000000000000000000000000000000000000815260040160405180910390fd5b600080600084815260200190815260200160002090506000801b8160000154036116c3576040517f3d3cef6a00000000000000000000000000000000000000000000000000000000815260040160405180910390fd5b8060020160009054906101000a900460ff161561170c576040517f9aa0b8bd00000000000000000000000000000000000000000000000000000000815260040160405180910390fd5b6117168383611f72565b827f577b6860ec2af75814bd1d732a479f5787676f4012afbc91228827a4b7f2e5a460405160405180910390a2505050565b6000806117536121e7565b90508060000160009054906101000a900473ffffffffffffffffffffffffffffffffffffffff1691505090565b6000806000838152602001908152602001600020600301549050919050565b6117a7611bf7565b6117af611d62565b6003600082815260200190815260200160002060009054906101000a900460ff16611806576040517f139d566400000000000000000000000000000000000000000000000000000000815260040160405180910390fd5b600080600083815260200190815260200160002090506000801b8160000154146118f3578060020160009054906101000a900460ff1615801561185a575062093a8081600401546118579190612dfe565b42105b15611891576040517fdbe95ff500000000000000000000000000000000000000000000000000000000815260040160405180910390fd5b6000808381526020019081526020016000206000808201600090556001820160006118bc919061241c565b6002820160006101000a81549060ff0219169055600382016000905560048201600090556008820160006118f0919061245c565b50505b6000806000848152602001908152602001600020905082816000018190555060008160020160006101000a81548160ff021916908315150217905550428160040181905550600081600301819055506001839080600181540180825580915050600190039060005260206000200160009091909190915055827f73829305e9f70b89111cf588e6d67f7360300700b6ecaed7130c8021d454b49160405160405180910390a2505050565b62093a8081565b6119ac611bf7565b426004819055507faf619daa033514f6c299197d29548ccd9276a1b55ef717fb80adf495925dd5106004546040516119e49190612700565b60405180910390a1565b6119f6611bf7565b600073ffffffffffffffffffffffffffffffffffffffff168173ffffffffffffffffffffffffffffffffffffffff1603611a685760006040517f1e4fbdf7000000000000000000000000000000000000000000000000000000008152600401611a5f9190612d01565b60405180910390fd5b611a7181611e9b565b50565b60045481565b611a82611bf7565b6202a300600454611a939190612dfe565b421015611acc576040517fb95063c200000000000000000000000000000000000000000000000000000000815260040160405180910390fd5b60004703611b06576040517f67e3990d00000000000000000000000000000000000000000000000000000000815260040160405180910390fd5b6000479050611b13611748565b73ffffffffffffffffffffffffffffffffffffffff166108fc829081150290604051600060405180830381858888f19350505050158015611b58573d6000803e3d6000fd5b5060006004819055507feaa620b5c98328f5ddb4195c31eadb3e30e7915fcbc9cc1c244441984780c0d281604051611b909190612700565b60405180910390a150565b60008082604051602001611baf9190612d58565b60405160208183030381529060405280519060200120905060008085815260200190815260200160002060050160008281526020019081526020016000205491505092915050565b611bff61220f565b73ffffffffffffffffffffffffffffffffffffffff16611c1d611748565b73ffffffffffffffffffffffffffffffffffffffff1614611c7c57611c4061220f565b6040517f118cdaa7000000000000000000000000000000000000000000000000000000008152600401611c739190612d01565b60405180910390fd5b565b611c86612217565b6000611c90611e73565b905060008160000160006101000a81548160ff0219169083151502179055507f5db9ee0a495bf2e6ff9c91a7834c1ba4fdd244a5e8aa4e537bd38aeae4b073aa611cd861220f565b604051611ce59190612d01565b60405180910390a150565b611cf8611d62565b6000611d02611e73565b905060018160000160006101000a81548160ff0219169083151502179055507f62e78cea01bee320cd4e420270b5ea74000d11b0c9f74754ebdbfc544b05a258611d4a61220f565b604051611d579190612d01565b60405180910390a150565b611d6a6113ba565b15611da1576040517fd93c066500000000000000000000000000000000000000000000000000000000815260040160405180910390fd5b565b6000611dad612257565b90506002816000015403611ded576040517f3ee5aeb500000000000000000000000000000000000000000000000000000000815260040160405180910390fd5b6002816000018190555050565b6000611e04612257565b90506001816000018190555050565b60007ff0c57e16840df040f15088dc2f81fe391c3923bec73e23a9662efc9c229c6a00905090565b611e4361227f565b611e4c816122bf565b50565b611e5761227f565b611e5f612345565b565b611e6961227f565b611e71612379565b565b60007fcd5ed15c6e187e77e9aee88184c21f4f2182ab5827cb3b7e07fbedcd63f03300905090565b6000611ea56121e7565b905060008160000160009054906101000a900473ffffffffffffffffffffffffffffffffffffffff169050828260000160006101000a81548173ffffffffffffffffffffffffffffffffffffffff021916908373ffffffffffffffffffffffffffffffffffffffff1602179055508273ffffffffffffffffffffffffffffffffffffffff168173ffffffffffffffffffffffffffffffffffffffff167f8be0079c531659141344cd1fd0a4f28419497f9722a3daafe3b4186f6b6457e060405160405180910390a3505050565b60008060008481526020019081526020016000209050600081600601905060005b835181101561203d576000848281518110611fb157611fb06130d6565b5b6020026020010151604051602001611fc991906132ee565b604051602081830303815290604052805190602001209050600084600601600083815260200190815260200160002081905550600084600701600083815260200190815260200160002081905550600083600083815260200190815260200160002081905550508080600101915050611f93565b5060005b83518110156120c557600084828151811061205f5761205e6130d6565b5b602002602001015160405160200161207791906132ee565b60405160208183030381529060405280519060200120905082600082815260200190815260200160002060008154809291906120b290613309565b9190505550508080600101915050612041565b5060005b83518110156121e05760008482815181106120e7576120e66130d6565b5b60200260200101516040516020016120ff91906132ee565b60405160208183030381529060405280519060200120905060006001836121269190612dfe565b905080856006016000848152602001908152602001600020819055506000612160828660008681526020019081526020016000205461239a565b90508086600701600085815260200190815260200160002081905550877fe702918564d36a4c4da3b202516e441b40204adeb97d8e49c6d2a7b27ee533e88886815181106121b1576121b06130d6565b5b6020026020010151836040516121c8929190613351565b60405180910390a250505080806001019150506120c9565b5050505050565b60007f9016d09d72d40fdae2fd8ceac6b6234c7706214fd39c1cd1e609a0528c199300905090565b600033905090565b61221f6113ba565b612255576040517f8dfc202b00000000000000000000000000000000000000000000000000000000815260040160405180910390fd5b565b60007f9b779b17422d0df92223018b32b4d1fa46e071723d6817e2486d003becc55f00905090565b6122876123fc565b6122bd576040517fd7e6bcf800000000000000000000000000000000000000000000000000000000815260040160405180910390fd5b565b6122c761227f565b600073ffffffffffffffffffffffffffffffffffffffff168173ffffffffffffffffffffffffffffffffffffffff16036123395760006040517f1e4fbdf70000000000000000000000000000000000000000000000000000000081526004016123309190612d01565b60405180910390fd5b61234281611e9b565b50565b61234d61227f565b6000612357611e73565b905060008160000160006101000a81548160ff02191690831515021790555050565b61238161227f565b600061238b612257565b90506001816000018190555050565b6000806002600184866123ad9190612dfe565b6123b7919061337a565b856123c29190612dfe565b6123cc9190613210565b905060146001826123dd919061337a565b6123e7919061319f565b60786123f39190612dfe565b91505092915050565b6000612406611e13565b60000160089054906101000a900460ff16905090565b50805461242890612d9e565b6000825580601f1061243a5750612459565b601f0160209004906000526020600020908101906124589190612480565b5b50565b508054600082556004029060005260206000209081019061247d919061249d565b50565b5b80821115612499576000816000905550600101612481565b5090565b5b808211156124f757600080820160006101000a81549073ffffffffffffffffffffffffffffffffffffffff021916905560018201600090556002820160006124e6919061241c565b60038201600090555060040161249e565b5090565b6000604051905090565b600080fd5b600080fd5b6000819050919050565b6125228161250f565b811461252d57600080fd5b50565b60008135905061253f81612519565b92915050565b600080fd5b600080fd5b6000601f19601f8301169050919050565b7f4e487b7100000000000000000000000000000000000000000000000000000000600052604160045260246000fd5b6125988261254f565b810181811067ffffffffffffffff821117156125b7576125b6612560565b5b80604052505050565b60006125ca6124fb565b90506125d6828261258f565b919050565b600067ffffffffffffffff8211156125f6576125f5612560565b5b6125ff8261254f565b9050602081019050919050565b82818337600083830152505050565b600061262e612629846125db565b6125c0565b90508281526020810184848401111561264a5761264961254a565b5b61265584828561260c565b509392505050565b600082601f83011261267257612671612545565b5b813561268284826020860161261b565b91505092915050565b600080604083850312156126a2576126a1612505565b5b60006126b085828601612530565b925050602083013567ffffffffffffffff8111156126d1576126d061250a565b5b6126dd8582860161265d565b9150509250929050565b6000819050919050565b6126fa816126e7565b82525050565b600060208201905061271560008301846126f1565b92915050565b60006020828403121561273157612730612505565b5b600061273f84828501612530565b91505092915050565b600081519050919050565b600082825260208201905092915050565b6000819050602082019050919050565b600073ffffffffffffffffffffffffffffffffffffffff82169050919050565b600061279f82612774565b9050919050565b6127af81612794565b82525050565b6127be816126e7565b82525050565b600081519050919050565b600082825260208201905092915050565b60005b838110156127fe5780820151818401526020810190506127e3565b60008484015250505050565b6000612815826127c4565b61281f81856127cf565b935061282f8185602086016127e0565b6128388161254f565b840191505092915050565b600060808301600083015161285b60008601826127a6565b50602083015161286e60208601826127b5565b5060408301518482036040860152612886828261280a565b915050606083015161289b60608601826127b5565b508091505092915050565b60006128b28383612843565b905092915050565b6000602082019050919050565b60006128d282612748565b6128dc8185612753565b9350836020820285016128ee85612764565b8060005b8581101561292a578484038952815161290b85826128a6565b9450612916836128ba565b925060208a019950506001810190506128f2565b50829750879550505050505092915050565b6000602082019050818103600083015261295681846128c7565b905092915050565b61296781612794565b811461297257600080fd5b50565b6000813590506129848161295e565b92915050565b6000602082840312156129a05761299f612505565b5b60006129ae84828501612975565b91505092915050565b600080604083850312156129ce576129cd612505565b5b60006129dc85828601612975565b92505060206129ed85828601612975565b9150509250929050565b612a008161250f565b82525050565b600082825260208201905092915050565b6000612a22826127c4565b612a2c8185612a06565b9350612a3c8185602086016127e0565b612a458161254f565b840191505092915050565b60008115159050919050565b612a6581612a50565b82525050565b600060a082019050612a8060008301886129f7565b8181036020830152612a928187612a17565b9050612aa16040830186612a5c565b612aae60608301856126f1565b612abb60808301846126f1565b9695505050505050565b6000602082019050612ada6000830184612a5c565b92915050565b612ae9816126e7565b8114612af457600080fd5b50565b600081359050612b0681612ae0565b92915050565b600060208284031215612b2257612b21612505565b5b6000612b3084828501612af7565b91505092915050565b6000602082019050612b4e60008301846129f7565b92915050565b6000819050919050565b6000612b79612b74612b6f84612774565b612b54565b612774565b9050919050565b6000612b8b82612b5e565b9050919050565b6000612b9d82612b80565b9050919050565b612bad81612b92565b82525050565b6000602082019050612bc86000830184612ba4565b92915050565b600067ffffffffffffffff821115612be957612be8612560565b5b602082029050602081019050919050565b600080fd5b6000612c12612c0d84612bce565b6125c0565b90508083825260208201905060208402830185811115612c3557612c34612bfa565b5b835b81811015612c5e5780612c4a8882612530565b845260208401935050602081019050612c37565b5050509392505050565b600082601f830112612c7d57612c7c612545565b5b8135612c8d848260208601612bff565b91505092915050565b60008060408385031215612cad57612cac612505565b5b6000612cbb85828601612530565b925050602083013567ffffffffffffffff811115612cdc57612cdb61250a565b5b612ce885828601612c68565b9150509250929050565b612cfb81612794565b82525050565b6000602082019050612d166000830184612cf2565b92915050565b600081905092915050565b6000612d32826127c4565b612d3c8185612d1c565b9350612d4c8185602086016127e0565b80840191505092915050565b6000612d648284612d27565b915081905092915050565b7f4e487b7100000000000000000000000000000000000000000000000000000000600052602260045260246000fd5b60006002820490506001821680612db657607f821691505b602082108103612dc957612dc8612d6f565b5b50919050565b7f4e487b7100000000000000000000000000000000000000000000000000000000600052601160045260246000fd5b6000612e09826126e7565b9150612e14836126e7565b9250828201905080821115612e2c57612e2b612dcf565b5b92915050565b60008190508160005260206000209050919050565b60006020601f8301049050919050565b600082821b905092915050565b600060088302612e947fffffffffffffffffffffffffffffffffffffffffffffffffffffffffffffffff82612e57565b612e9e8683612e57565b95508019841693508086168417925050509392505050565b6000612ed1612ecc612ec7846126e7565b612b54565b6126e7565b9050919050565b6000819050919050565b612eeb83612eb6565b612eff612ef782612ed8565b848454612e64565b825550505050565b600090565b612f14612f07565b612f1f818484612ee2565b505050565b5b81811015612f4357612f38600082612f0c565b600181019050612f25565b5050565b601f821115612f8857612f5981612e32565b612f6284612e47565b81016020851015612f71578190505b612f85612f7d85612e47565b830182612f24565b50505b505050565b600082821c905092915050565b6000612fab60001984600802612f8d565b1980831691505092915050565b6000612fc48383612f9a565b9150826002028217905092915050565b612fdd826127c4565b67ffffffffffffffff811115612ff657612ff5612560565b5b6130008254612d9e565b61300b828285612f47565b600060209050601f83116001811461303e576000841561302c578287015190505b6130368582612fb8565b86555061309e565b601f19841661304c86612e32565b60005b828110156130745784890151825560018201915060208501945060208101905061304f565b86831015613091578489015161308d601f891682612f9a565b8355505b6001600288020188555050505b505050505050565b600060408201905081810360008301526130c08185612a17565b90506130cf60208301846126f1565b9392505050565b7f4e487b7100000000000000000000000000000000000000000000000000000000600052603260045260246000fd5b6000815461311281612d9e565b61311c8186612d1c565b94506001821660008114613137576001811461314c5761317f565b60ff198316865281151582028601935061317f565b61315585612e32565b60005b8381101561317757815481890152600182019150602081019050613158565b838801955050505b50505092915050565b60006131948284613105565b915081905092915050565b60006131aa826126e7565b91506131b5836126e7565b92508282026131c3816126e7565b915082820484148315176131da576131d9612dcf565b5b5092915050565b7f4e487b7100000000000000000000000000000000000000000000000000000000600052601260045260246000fd5b600061321b826126e7565b9150613226836126e7565b925082613236576132356131e1565b5b828204905092915050565b6000602082019050818103600083015261325b8184612a17565b905092915050565b6000819050919050565b600067ffffffffffffffff82169050919050565b600061329c61329761329284613263565b612b54565b61326d565b9050919050565b6132ac81613281565b82525050565b60006020820190506132c760008301846132a3565b92915050565b6000819050919050565b6132e86132e38261250f565b6132cd565b82525050565b60006132fa82846132d7565b60208201915081905092915050565b6000613314826126e7565b91507fffffffffffffffffffffffffffffffffffffffffffffffffffffffffffffffff820361334657613345612dcf565b5b600182019050919050565b600060408201905061336660008301856129f7565b61337360208301846126f1565b9392505050565b6000613385826126e7565b9150613390836126e7565b92508282039050818111156133a8576133a7612dcf565b5b9291505056fea26469706673582212202e5877380fe54e805301e757e819d932dc8da5c81b652104ca272fc849b6483364736f6c634300081a0033",
  "linkReferences": {},
  "deployedLinkReferences": {}
}